:10000000403C0020111D0000318E0000FD1C00004E
:10001000FD1C0000FD1C0000FD1C00000000000095
:10002000000000000000000000000000C51E0000ED
:10003000FD1C000000000000911E0000FD1C0000DF
:100040007D200000DD4A00007D2000007D200000B2
:100050007D2000007D2000007D2000007D2000002C
:100060007D2000007D2000005D6900007D200000F3
:100070007D2000007D2000007D2000007D2000000C
:100080007D2000007D2000007D2000007D200000FC
:10009000414B00007D2000007D2000007D200000FD
:1000A0007D2000007D2000007D2000007D200000DC
:1000B0007D2000007D2000007D2000007D200000CC
:1000C0007D2000007D2000007D2000007D200000BC
:1000D0007D2000007D2000007D2000007D200000AC
:1000E0007D2000007D2000007D2000007D2000009C
:1000F0007D2000007D2000007D2000007D2000008C
:10010000014B1B689B681847C0040020014B1B680B
:100110001B691847C0040020014B1B685B69184726
:10012000C0040020014B1B689B691847C0040020D5
:10013000014B1B68DB691847C0040020014B1B689A
:100140001B6A1847C0040020014B1B68DB6A184774
:10015000C004002010B4034C2468E468A44610BC1A
:10016000604700BFC004002030B50346114890F935
:100170001C209A4219DD90F924209A4217DA9A1A23
:10018000846AA05C0C4A15569D420DD00E3200299F
:1001900018BF01309442C0B206D129B1013BDBB295
:1001A000012B01D80130C0B230BD0D20FCE700208A
:1001B000FAE700BF980900209C9B000008B5054B9A
:1001C00093F91C30984203DAFFF7CEFF024B1B561F
:1001D000184608BD980900209C9B000010B51C4CD7
:1001E00094F82C3073B9012384F82C3000F09EF879
:1001F00048B1184BA362D823236284F82430082323
:10020000A361237710BD00F0A7F80028F1D100F01A
:10021000ADF80028EDD100F06BF838B10E4BA362B9
:10022000D823236284F824300423E9E700F06AF835
:100230000028F3D100F070F80028EFD100F080F82A
:100240000028EBD14FF4DF71742000F019F800BFE3
:1002500098090020D79B0000AA9B0000BFF34F8F96
:100260000549064BCA6802F4E0621343CB60BFF352
:100270004F8F00BFFDE700BF00ED00E00400FA056E
:100280001FB572B6134B5D688DB9FFF7E7FFB2FB80
:10029000F6F2DCB20133002AF9D104F110036B4409
:1002A00003F80C2C0A2234B901A8A847EDE702464E
:1002B00000230A26EDE7631E04AEDCB256FA83F390
:1002C000B0FBF2F602FB1600303003F80C0C30469F
:1002D000E9E700BFF00D00204FF08052034BD2F849
:1002E00030111960D2F834215A6070472C0E00206A
:1002F000034B1868A0F10F0358425841704700BFE4
:100300002C0E0020034B1868A0F10A0358425841F4
:10031000704700BF2C0E0020034B1868A0F10E039D
:1003200058425841704700BF2C0E0020034B1868FC
:10033000A0F1100358425841704700BF2C0E002016
:10034000044B1868062803D0431C58425841704794
:10035000012070472C0E0020034B1868A0F10D03FC
:1003600058425841704700BF2C0E0020034B1868BC
:10037000A0F1080358425841704700BF2C0E0020DE
:1003800053B94AB9002908BF00281CBF4FF0FF31FC
:100390004FF0FF3000F00CB8ADF1080C6DE904CE61
:1003A00000F05FF8DDF804E0DDE9022304B07047F7
:1003B000704700BF08B5FFF78FFFBDE80840FFF7A3
:1003C0000DBF801A00F3070038B540B20D4659B290
:1003D0001446FFF7F3FE0023287020446B7040B2F0
:1003E00038BD0023036070477047002070474FF00E
:1003F000FF3070474FF0FF30704770470020704764
:100400004FF0FF30704700207047002070470023F6
:10041000037070470022FFF7D4BF002070474FF0F1
:10042000FF3070474FF0FF3070474FF0FF3070479C
:10043000704700280CBF6FF01500002070470020A7
:10044000704707230370002070470020704700208A
:100450007047034613F8012B002AFBD1181A013804
:1004600070472DE9F04786468C460846089E15469B
:1004700074461946002B40F0C2808542B2FA82F2DF
:1004800045D94AB1C2F1200300FA02FC2EFA03F367
:10049000954043EA0C0C94404FEA154EA8B2BCFBC1
:1004A000FEF8230C0EFB18CC08FB00F943EA0C43C2
:1004B000994528D9EB1808F1FF3704D2994502D99C
:1004C000A8F102072B44A3EB0903A4B2B3FBFEFC83
:1004D0000EFB1C330CFB00F044EA0344A04214D989
:1004E0002C190CF1FF3304D2A04202D9ACF1020363
:1004F0002C44241A43EA07401EB1D4400023346040
:100500007360BDE8F0874746DDE76346F1E792BBDD
:10051000431B01214FEA154EAFB2B3FBFEFC200C8A
:100520000EFB1C330CFB07F840EA0343984562D9E5
:10053000EB180CF1FF3004D2984502D9ACF102005F
:100540002B44A3EB0803A4B2B3FBFEFC0EFB1C334D
:100550000CFB07F744EA0344A7424ED92C190CF1CF
:10056000FF3304D2A74202D9ACF102032C44E41BAE
:1005700043EA0040C0E7C2F1200320FA03F19540AE
:1005800090402EFA03F303434FEA154EAFB2B1FB8E
:10059000FEFC0EFB1C10190C0CFB07F841EA004195
:1005A000884504FA02F422D969180CF1FF3004D20C
:1005B000884502D9ACF102002944A1EB08019BB2A5
:1005C000B1FBFEFC0EFB1C110CFB07F743EA0143D9
:1005D0009F420ED9EB180CF1FF3104D29F4202D991
:1005E000ACF102012B44DB1B41EA004192E760467B
:1005F000E3E76146F7E76046A3E76346B7E7834270
:1006000006D916B9002108467BE7C6E900E0F9E7FC
:10061000B3FA83F78FB9834201D3724508D8BEEB92
:10062000020460EB030301209C461EB9002168E729
:100630003846FAE7C6E9004CF8E7C7F1200CBB40A2
:1006400022FA0CF41C432EFA0CF120FA0CF3B840F9
:1006500001434FEA14490EFA07F5B3FBF9F81FFA04
:1006600084FE09FB18300B0C08FB0EFA43EA00432A
:100670009A4502FA07F240D9E31808F1FF3004D294
:100680009A4502D9A8F102002344A3EB0A0389B2D8
:10069000B3FBF9F809FB183308FB0EFE41EA0341EE
:1006A0008E452CD9611808F1FF3304D28E4502D94A
:1006B000A8F10203214443EA0040A0FB0298A1EB09
:1006C0000E014145CE46434602D306D14D4504D2E4
:1006D000B9EB020E68EB04030138002EA6D0B5EB8F
:1006E0000E0261EB030101FA0CFC22FA07F34CEA5B
:1006F0000303F940C6E9003198E74046C5E74346A1
:10070000D9E70000014B9970704700BFC308002073
:1007100010B504781346E20618D1240642780BD4AB
:100720005B2A13D1C28819680A48402A28BF402290
:1007300009F047F9002010BD5C2A07D1054A1A606C
:10074000C388402B28BF40230B60F3E76FF0850080
:10075000F1E700BF0F270020037813B1022B04D06C
:100760007047034B01221A707047024804F034BEF0
:100770000E270020E926002013B582790B2A0346B4
:100780000FD00C2A1CD0012A09D14FF48073042207
:1007900001930DEB02010023822008F024FB02B03C
:1007A00010BD0F480246062102F8051B1968C0F863
:1007B00005109B88938002B0BDE8104004F052BD44
:1007C000084C094923780B7001220023822008F08D
:1007D0000AFB2378002BE2D000232370DFE700BF61
:1007E000E92600200E270020E826002013B500226D
:1007F0001146044601AB08F00EFB0023019A06499E
:10080000204608F008FB019B072B02D80248FFF79F
:10081000B3FF02B010BD00BF0F27002030B5154A4E
:10082000154B164D8BB0CDE90123154A1068516860
:1008300003AB03C31C460FCD0FC42B682360114BC1
:10084000069305A801238DF8263004F00BFC78B937
:1008500001A804F011FE58B902A804F027FE38B927
:10086000082103A804F03CFE10B9282004F060FE23
:100870000BB030BD3344BB01DEF01223809B00007F
:10088000F09D000059070000014B1B68184700BF8E
:100890001805002030B585B004460D461022002111
:1008A000684609F09CF802238DF802302A46044B72
:1008B00001932146684607F013FC05B030BD00BF28
:1008C0008908000080B505460E461746984606F092
:1008D000EDFF034609F0EEF8DFF81890044649F8FA
:1008E0000030424630463946A84754F8090001F026
:1008F0007DFA00BF080000002DE9F047058B044693
:100900002807904611D4022905F0070540F0CC8055
:10091000204608F043F978B10138218B042811D81A
:10092000DFE800F0C2106D85950001290CBF45F08D
:10093000100545F02005258388F31188BFF36F8FDC
:10094000BDE8F08701F0070AAA4500F0A58000275E
:10095000B9463E46A368002B00F0BC8041F0080178
:10096000218388F31188BFF36F8FA168002900F0FD
:10097000BA800D68002900F0B680D1F804803346B3
:1009800052462046C047002D76D02B6829461D468A
:10099000F0E701F007035A1F012A1BD8002221F0BB
:1009A0000701062B276889B2C4E9002209D13B461A
:1009B00003E0628B013262831B68002BF9D141F0A6
:1009C00002012183204608F0E9F800287AD041F09E
:1009D000200176E0042B0AD121F0070189B221839E
:1009E000204608F0DBF810B141F020012183218B73
:1009F00001F0070AAA454FD00027B946AAE72369A4
:100A000021F0070141F00601062DD3F80090218363
:100A10002DD1B9F1000F3FD041F00801218388F3B7
:100A20001188BFF36F8F3A492046C84729E021F06B
:100A30000701236941F0040189B2042DD3F8049021
:100A40002183E6D000273E464FF0040A82E721F0DA
:100A50000701236941F0050189B2052DD3F80890FB
:100A60002183D6D000273E464FF0050A72E70027C3
:100A70003E464FF0060A6DE72B4687E7B9F1000FB7
:100A8000D1D1EFF31188402383F31288BFF36F8F26
:100A9000238B23F008032383258BEA062ED525F02C
:100AA0001003238305F007056669218B002EBFF62E
:100AB00070AF00232768C4E9003321F0070141F03B
:100AC00001012183218B01F0070AAA454FF000099B
:100AD0007FF440AF002F9CD041F00801218388F3C0
:100AE0001188BFF36F8F002FC8D03D683946334659
:100AF0005246204608F07EF82F46F4E7AB067FF515
:100B00001BAF25F02003238305F0070500E700BF96
:100B1000218C0000014B036000207047389C0000CE
:100B2000F0B40C4B0C4E5F6A0C4BB34203D36FF026
:100B30008500F0BC70475D68BD4209D31C693CB1BB
:100B400095F802C00579AC4502D12346F0BC1847A0
:100B50002433EAE770110020940900207009002076
:100B60002DE9F047134CDFF85080DFF85090054630
:100B70000E461746444503D36FF08500BDE8F08765
:100B80006268D9F824309A4212D3A36983B190786D
:100B90002979884205D13A4631462846BDE8F047D2
:100BA00018475279012A03D13A46314628469847D8
:100BB0002434DFE770090020940900207011002020
:100BC0002DE9F0410B4CDFF8308005460E46174604
:100BD000444502D36FF0850009E063690BB9243402
:100BE000F6E73A463146284698470028F7D1BDE84F
:100BF000F08100BF700900209409002010B5044660
:100C000008F080F910F1780F00D050B9054A20465D
:100C100008F0DBF8D2F8C43023EA0003C2F8C4308D
:100C2000002010BD70110020024B00221A605A6093
:100C3000704700BF2B12002070B50B4B0B4CA3422A
:100C400001D3002070BD196A1E7F00220439D5B27D
:100C5000AE4201D82433F2E7013211F83250854216
:100C6000F5D10120EEE700BF7009002094090020B3
:100C700008B509480378C3F341130A3350F8233009
:100C80003BB100F1080200F110019847C043C00FCA
:100C900008BD1846FCE700BF7011002004282DE9AC
:100CA000F14FDFF8989004460F4616D001282DD159
:100CB000DFF88C8098F8B93043B300F061FD214D26
:100CC0004D4520D2D5F820B04FF0000A2B7F5FFAB7
:100CD0008AF6B34204D82435F2E7FFF7A5FFE7E729
:100CE0000BEBC6060AF1010A307908F00BF902464F
:100CF000307908F06AF8D8F8C430002A23EA0003F3
:100D0000C8F8C430E2DA002388F8B9300D4D4D45FB
:100D100008D30B4B1B6A6BB13946204601B0BDE8C6
:100D2000F04F1847EB681BB13A46214628469847D2
:100D30002435ECE701B0BDE8F08F00BF9409002036
:100D4000701100207009002073B5C4B263060D460F
:100D50008DF8074007D02046FFF76EFF78B10D4BA6
:100D600093F8BA0058B10B4E204655B101F002FF7E
:100D7000F3691BB10DF1070108209847012002B06B
:100D800070BD01F01FFFF369002BF7D00DF10701D3
:100D90000920F2E77011002073B586788DF80060A5
:100DA000037942791C4C43EA0223ADF80230C37840
:100DB000304603F003038DF8043008F006F8D4F849
:100DC000C430184205460BD0304600F0BBFC30461C
:100DD000FFF714FF08F00BFC10B9962006F048FD51
:100DE000684601F0A3FE10F1780F03D010B1002087
:100DF00002B070BD9DF8000001F020FF10F1780FE7
:100E000001D00028F3D1D4F8C43001202B4384F85A
:100E1000B900C4F8C430EBE7701100202DE9F047A9
:100E2000A34EB36904460F461546FBB9237803F079
:100E30001F03012B00F09D80022B00F0048133BBC7
:100E400094F900002A686178002834DA062912D063
:100E500008292BD0D9B901231370517096F8C330EB
:100E60005B0043F00103137002232AE19847002836
:100E7000DCD100200DE06288100A011F01298446A0
:100E800005D9072803D8716AD2B20C781CB96FF063
:100E90001500BDE8F0874E78664503D19A4200F010
:100EA0000B8101332144F0E70B780AE196F8BA3060
:100EB0001370012305E101390829E8D801A353F88B
:100EC00021F000BF5D0F00008F0E00006B0F0000CF
:100ED0008F0E0000E90E00008F0E00008F0E000044
:100EE0008F0E0000F50E0000A07801F00DFE002826
:100EF000BFD0CCE76388756A63BBFFF795FE638854
:100F000086F8BA30F369002BB3D06A4903209847BA
:100F1000AFE76B78042B10D0052B11D0022B04D136
:100F20006F796388BB4208BF01202B781D442B7862
:100F3000002BEED10028AAD0DFE795F80380F4E774
:100F40006388BB42F1D1B8F1000FEED12846FFF71C
:100F500023FFEAE7FF270020B846E8E76388012B74
:100F600095D1002386F8C33083E76388012B8ED1A7
:100F7000F8E796F8BA30D5F800C0002B87D0756A2C
:100F8000A38894F804E02A46107800283FF47FAF45
:100F90005178022904D192F80480F04500F2938040
:100FA0000244F1E78CF800208CF80120396060E7FA
:100FB000154494E00B2A7FF46AAF00274FF0FF0836
:100FC000C146BA4606E06B78042B0FD0052B21D022
:100FD0002B781D442B78002BF5D1F36913B15146C2
:100FE00007209847002F7FF444AF50E795F8028020
:100FF000A38895F803909845EAD163889945E7D18D
:10100000B8F1070F1CD806EB0803AA4683F8BB907B
:101010000127DDE7A3884345DAD1A3784B450AD001
:10102000AF78384600F08EFB3846FFF7E7FDB0FAA0
:1010300080F77F09CCE72846FFF7AEFE0746C7E7F3
:10104000AA460027C4E794F900206378002A18DA3A
:10105000002B7FF41CAF24792D6863060AD020464C
:10106000FFF7EAFD00283FF412AF96F8BA30002BE4
:101070003FF40DAF2946204601F0C4FD00236B70FC
:10108000F2E6012B08D0032B7FF401AF6388002B1D
:101090007FF4FDAE012103E0618800297FF4F7AE03
:1010A000A088FFF751FE00287FF4E3AEEFE600BF13
:1010B000701100202A120020022829607FF4F4AE6B
:1010C0004B883B60D5E694F9000062780028BFF6B3
:1010D00071AF002A3FF466AF0A2A7FF4D8AE2A78AF
:1010E000002A3FF4D4AE697804297FF461AFA9786F
:1010F0008B427FF45DAF072B96BF9B19002393F8BB
:10110000BB308CF80030D4E613B5164C237DF3B910
:10111000E268A168019201AB802007F064FE019AA9
:10112000A3681344A360E3689B1AE3606BB962B1E0
:101130002369E2889A4208DD94F8C82093FBF2F113
:1011400002FB11330BB90123237502B010BD00233C
:101150001A4619468020237502B0BDE8104001F000
:1011600097BD00BF7011002030B585B00023024646
:101170000D460193002858D1002935D108220B468D
:101180000DEB020107F0D7FE002804DA802001F001
:10119000F1FC05B030BD2A4C029A2260039A6260CD
:1011A00004F13802A2609DF90820BDF80E302575C3
:1011B000002AC4E903550ADB802B04D9802001F002
:1011C000D9FC0020E3E713B1C4E90333E1E7FFF7FB
:1011D0004FFD0028DAD0E28823699A42D4BFE2604A
:1011E000E360FFF791FFD4E7154CD4E90215002D19
:1011F00001AB04DC07F09FFE0028CADAC6E72A46E6
:1012000007F099FE0028D9DB019AA3681344A36074
:10121000E3689B1AE360002BBBD104F13803A360A1
:10122000FFF726FD0028DCD1B0E78028B1D1044BC0
:10123000DA68002AD5D11B7D002BD2D1A9E700BFE7
:1012400070110020054B064A9A62064ADA62064A85
:101250001A63064A58629A61002070477011002094
:101260001D0E0000210B0000C10B0000610B0000EF
:101270002DE9F3410446474D47484FF0FF334FF007
:10128000FF3205F057FD95F8B830002B7BD16B6A23
:1012900083B142482C62E8616E6A01F013FE01F0EE
:1012A00001FC041E10DA3C4805F0BCFD204602B0EB
:1012B000BDE8F08100F0BEF8FFF7C4FF6B6A002BB9
:1012C000E7D14FF0FF34EEE700F07CFA041EEADBD2
:1012D0007378012B5AD1F379002B57D0002668463A
:1012E00085F8C830ADF802308DF804608DF80060E4
:1012F00001F01CFC041ED6DB802768468DF80070C8
:1013000001F014FC041ECEDB2549304601F0C6FD79
:10131000041EC8DB2249384601F0C0FD041EC2DBB2
:10132000204CDFF8848044451AD3002001F086FC6D
:10133000041EB8DBD5F8C430802043F00103C5F8A3
:10134000C43001F07BFC041EADDBD5F8C43043F49F
:101350008033C5F8C430012385F8B8300024A2E7F3
:10136000276A0026227FF3B29A4201D82434DAE7B2
:1013700007EBC30257F83310107901F08FFD0136E7
:101380000028EFD09DE76FF077048CE76FF015042D
:1013900089E700BF70110020740800209D0C000038
:1013A00069110000700900209409002030B51F4B1E
:1013B0008BB005AA03F1100518685968144603C4D8
:1013C0000833AB422246F7D11B782370102200214C
:1013D00001A808F004FB12220021154808F0FFFACA
:1013E000102101A807F0AAFE00281BDD0828B8BFBD
:1013F0000820093801AB0E491A18002012F8013FE5
:101400000AAC04EB131403F00F0328336B440130D0
:1014100014F8144C13F8143C0C7008284B7001F1AC
:101420000201EBD102480BB030BD00BFF99D0000B6
:10143000502700202DE9F04F724B93F800B087B091
:10144000BBF1000F03D0704807B0BDE8F08F6E4CC1
:1014500000264FF0011AB0463546B14623783BB915
:101460006A4B02349C42F3D1664A01231370EAE7C7
:101470006378052B1BD8DFE803F08E03C38E1D397C
:10148000402304A88DF810B0ADF812308DF814B0D8
:1014900007F023FD40B1082304A8ADF8123007F08F
:1014A0001CFD08B1ADF812B0BDF81230E37123781D
:1014B0001C44D3E7E378002BF9D1A3786BB108F192
:1014C00001085FFA88F8F2E76B689C4207D0243580
:1014D0004F4B9D42F8D30020B6E74E4DF8E7AB687E
:1014E000002BECD0414620469847E8E7002DF2D08B
:1014F00000222B7F9A42EED2296AA07801EBC2012A
:101500000B79984201D00132F3E70127E07800F02F
:1015100003008DF81400207994F805C040EA0C20EF
:10152000ADF8120094F902000028FBB228DA07F1A6
:1015300010004FF0010C0CFA00F010EA0A0F26D14F
:1015400043F080008DF8100004A8CDE90213019249
:1015500007F0C3FCDDE90121039BC0B99DF8102011
:10156000A27012F0800F18BF10330A7118BFDBB2DF
:101570004FF0010214BF9A40BA404AEA020A96E7C5
:101580000120B84010EA0A0F01D11846DAE7013706
:10159000102FBBD1B7E7032E1AD1FFF707FF07467D
:1015A00050B1FEF756FF024630B11028A8BF1022F6
:1015B0003946A01C08F005FA23786FF00201E21802
:1015C000091B04EB5303D14213D50136F6B26EE783
:1015D000002EF1D1B9F1000F3FF47DAFA4EB090368
:1015E00089F80230C3F3072389F8033089F80480AF
:1015F000EBE702F801BC13F8010902F8020DE2E77B
:10160000A14654E74F270020A80800206D090020BC
:10161000940900207009002010B5094B00211A46DA
:101620001C78844204D15C6814B102EB811010BDB7
:101630000131042903F14003F2D10020F7E700BF94
:101640003C1200202DE9F34150F8283C10F82C6C96
:10165000103304460AD1036950F8202C980736D578
:10166000D2B9590715D5002344F8283C54F8283C32
:1016700010330BD054E9077554F8148C07F0B7FFFA
:1016800000284FD02E48214607F0A1FF02B0BDE848
:10169000F08143F00403236154F8241C01AB30466D
:1016A00007F0A1FB10B16FF01503DDE7019A54F8C4
:1016B000243C134444F8243C54F8203C9B1A44F83E
:1016C000203C54F81C3C134444F81C3CCEE754F82E
:1016D000241C01AB304601F057FB0028E3D1019DEB
:1016E00054F8243C2B4444F8243C54F8203C5B1B25
:1016F00044F8203C54F81C3C2B4444F81C3C002D7E
:10170000B1D0304601F0E4FBB5FBF0F303FB10551C
:10171000002DA8D154F8203C002BA4D0304601F075
:101720007BFBA3E744F8180CA4F1100005F0E8FBDC
:10173000002DABD0424639463046A847A6E700BF49
:101740003010002010B5EFF31184402383F312888A
:10175000BFF36F8FFFF760FF50B14368103307D1BD
:101760006FF08B03436000F12C01044807F02FFF5A
:1017700084F31188BFF36F8F10BD00BF30100020BD
:10178000F8B50E4C04254027EFF3118687F3128835
:10179000BFF36F8F6368103307D16FF08B03084876
:1017A000636004F12C0107F012FF86F31188BFF388
:1017B0006F8F013D04F14004E6D1F8BD3C120020DA
:1017C0003010002070B50A4C0A4E002531462046E4
:1017D00007F0E1FE0122A4F110001146013507F0E7
:1017E000BCFE042D04F14004F0D1002070BD00BF08
:1017F000681200204516000008B5044807F0A6F955
:10180000BDE80840024807F0A1B900BF0A9E0000E9
:101810003F9E0000014806F0BBBA00BF389C0000A4
:1018200038B5044618B90F4B0F485B689847616894
:10183000B1F5683F10D0B1F5680F0DD00B4DA9423E
:101840000AD011F46861206807D00146084807F003
:10185000CDFD00232360656038BD142208F0BFF879
:10186000F9E700BF200600206D9E00002C5F5CA9F8
:101870003C18002008B520B34368B3F5683F10D189
:1018800001220368BFF35B8F53E8001F002903D1D7
:1018900043E800200028F7D1BFF35B8F0DD1002073
:1018A00008BD094A93420AD000684FF0FF324FF05A
:1018B000FF3305F03FFA0028F1D00448F0E7044870
:1018C000EEE76FF4E040EBE72C5F5CA9E98FFFFFE8
:1018D000EA8FFFFF08B5D8B14368B3F5683F10D170
:1018E00000220368BFF35B8F53E8001F012903D177
:1018F00043E800200028F7D1BFF35B8F0BD1002015
:1019000008BD074A934208D0006805F08BFAF6E755
:101910006FF4E040F4E70348F2E70348F0E700BF64
:101920002C5F5CA9E98FFFFFEA8FFFFF10B504462B
:1019300018B91D4B1D485B6898476368B3F5683F4D
:101940002FD0B3F5680F2CD0194A934219D12368D0
:1019500003BB18484FF0FF324FF0FF33214605F02C
:10196000BBF908B923681BB90F4B13485B6898474C
:1019700020681422002108F032F84FF46863636095
:1019800008E0B3F5683F0DD83A2B03D040F6BA62B1
:101990009342DED1206807F061FD636843F03A03AB
:1019A000636010BD054AF3E7200600206D9E00002D
:1019B0002C5F5CA93C180020939E00003A00003A7E
:1019C00008B5064906484023142207F001FDBDE88A
:1019D00008400449044806F04DBA00BF3C130020FB
:1019E0003C180020409C0000549C000030BFFFF7D2
:1019F000FDBF00BF2DE9F0410B4EDFF8308006EB54
:101A00000807CC1B054632460949204607F0D9FF96
:101A1000A01942460021083C07F0E1FF2C6707F1BE
:101A20000800BDE8F08100BF0000000004000000D5
:101A3000749B0000074A936893F90E10002907DB96
:101A4000526993421FBF044A536843F08053536066
:101A5000704700BFB824002000ED00E070B5264BB1
:101A600015469A6A12F0100F9A6A14BF11241024B6
:101A700012F0080F9A6A18BF1224920706460AD578
:101A8000586B9A6A140634D519B19A6A22F080020A
:101A90009A62132401E06FF01500174B9A6A12F056
:101AA000010F9A6A18BF142412F0200F9A6A18BF07
:101AB0001524D20602D49B6A9B070AD50E4B5B689D
:101AC000190506D5314600F08FFA10B180F3098868
:101AD0000224094B9A6A920642BF5A6A22F40052C3
:101AE0005A629A6A42F0FF029A6200232B702046E3
:101AF00070BD6FF01500CCE700ED00E0134B9A6A63
:101B000012F0007F9A6A14BF1E201D2012F0807F01
:101B10009A6A18BF1F2012F4002F9A6A18BF21205A
:101B200012F4802F9A6A18BF222012F4003F9A6A9A
:101B300018BF232012F4803F9A6A6FEA02426FEACC
:101B400012429A6218BF2420704700BF00ED00E0E7
:101B500010B5194B0246986A9C6A10F4805F14BF56
:101B60001720162014F4006F9C6A18BF1820A405D3
:101B700009D5986B986A000404D51AB19A6A22F4C0
:101B800000429A6219200C4B9A6A12F4806F9A6A8A
:101B900018BF1A20D2050CD49B6A13F4005F18BF3B
:101BA0001C20054A936A43F47F43936200230B7021
:101BB00010BD1B20F5E700BF00ED00E0F0B5484B7D
:101BC0005B688BB00446C3F30803002585F31188D6
:101BD000BFF36F8F02F07F40B0F17F4F11D102F061
:101BE0000C0008280DD010074CBF0C460125002220
:101BF000033B8DF80720032B05D8DFE803F02463AF
:101C000067602C46F3E700239DF80720CAB902AEAF
:101C100004F1200720686168324603C20834BC42E0
:101C20001646F7D1099A002D54D0C2F3080121B904
:101C30006FEA52226FEA4222099202A9184607F07F
:101C4000EDF80BB0F0BD264BDA6A9107DBD4DA6A07
:101C5000002AD8DBDA6A5200D5D55A69A16942F464
:101C600080725A61BFF34F8FBFF36F8F5A6931F89B
:101C7000021C22F480725A61BFF34F8FBFF36F8F43
:101C80004DF6027291420AD09A6AD2B24AB10DF16F
:101C9000070201212046FFF7E1FE0346B4E723686F
:101CA000B2E79A6A12F47F4F05D00DF107010120C7
:101CB000FFF74EFFF1E79B6AB3F5803FA3D3FFF731
:101CC0001DFFEAE70DF107020021E3E70DF107012F
:101CD0000020EDE722F4FF7222F00102ACE700BF22
:101CE00000ED00E0044B5A6942F010025A615A6953
:101CF00022F008025A61704700ED00E0EFF308801F
:101D0000EFF3098101B57246FFF758FF01BD00BF2F
:101D1000002080F31488BFF36F8F03F09DFE002036
:101D20000D490860BFF34F8F0C4880F3088800F01E
:101D30002BF8402080F3118809484FF404614018C3
:101D400080F30988EFF314800221084380F314889C
:101D5000BFF36F8F00F010F994ED00E0403C0020DD
:101D6000802E00200749D1F890200023C2F30722DB
:101D70001846934200DB7047C1F89830C1F8A000C4
:101D80000133F6E700ED00E008B572B6002383F3F7
:101D90001388FFF7E7FF144B4FF0FF32C3F88020A2
:101DA000C3F88420C3F88820C3F88C20C3F890209F
:101DB000C3F89420C3F89820C3F89C20C3F880216E
:101DC000C3F88421C3F88821C3F88C21C3F890217B
:101DD000C3F89421C3F89821C3F89C2162B6BFF3DD
:101DE0004F8FBFF36F8F08BD00E100E0084B9B6889
:101DF00083420BD1EFF3058343B1064B5A6842F09F
:101E000080525A605A6A22F400425A6207F0CABCF1
:101E1000B824002000ED00E0094A93686FF00A0141
:101E20009967084958674B6843F080534B6000231B
:101E300083F31188BFF36F8F9368986F704700BF6B
:101E4000B824002000ED00E010B50446EFF3118344
:101E5000402383F31288BFF36F8F0A4B5869986051
:101E6000094B4FF000625A60084B026F1A60002263
:101E7000436F426783F31188BFF36F8F00F01CF943
:101E8000204610BDB824002000ED00E058180020C6
:101E90000B498A684FF030001044EFF3098C80E85A
:101EA000F01F74467046FFF7CFFFA64604498A68C4
:101EB00002F1300090E8F01F8CF3098870470000B1
:101EC000B82400201EF0040F0CBFEFF30880EFF3DE
:101ED0000980816911F8021C0229FFD001B506F0C2
:101EE000A3FF01BD40B2002807DB044A41090123DA
:101EF00000F01F00834042F82130704700E100E00D
:101F000040B200280CDB4309064900F01F002033D3
:101F10000122824041F82320BFF34F8FBFF36F8F20
:101F2000704700BF00E100E0054B420900F01F00D0
:101F300053F82220012303FA00F01040704700BF3D
:101F400000E100E040B2D30754BF02310021002875
:101F5000ACBF00F16040074A4FEA4113ACBF00F547
:101F6000614000F00F00DBB2B4BF135480F80033BF
:101F7000704700BF14ED00E00B4A08B50B4B22F090
:101F80007F029A60BFF34F8FBFF36F8FD3F8882023
:101F900022F47002C3F8882004F0DAFD05F024FD75
:101FA00000F060F804F018FE0000000000ED00E012
:101FB00042F8203C009B42F81C3C0A49019B42F835
:101FC000183C029B42F8143C21F001014FF0807351
:101FD00042F8043C42F8081C0023203A026543679B
:101FE000704700BFC5080000094A0346906870B1F9
:101FF00013F1160F006E05D0A0F140029A4205D8E9
:10200000834203D2814228BF0020704700207047DE
:10201000B824002008B515460B4A0C4B9060026F9F
:102020001A600E4600F048F82C4686F309884FF0F7
:102030000000074B984720464FF000014FF0000288
:102040004FF00003034C2047B8240020581800200C
:10205000478E0000C5080000014B10221A6170472E
:1020600000ED00E0044800234021C2180133302B6A
:1020700082F80013F9D1704700E100E008B5EFF3F2
:102080000583064A103B02EBC30152F8330049684E
:102090008847BDE80840FFF7CDBC00BF80060020A0
:1020A000024B034A0348012100F076B800000420E7
:1020B00000000020649C0000026E054B403A1A604C
:1020C000044A4021C3E901121846012100F06EB80C
:1020D0005C18002000000B15084AC2F898000B6835
:1020E00023F01F03034343F01003C2F89C308B68B6
:1020F00043F00103C2F8A030704700BF00ED00E0DC
:102100002DE9F043DFF8608085B00E461F46044697
:102110004FF00009B14523DA6068D8B13FB1411EE4
:1021200008421BD11F2819D92368194216D12368E8
:10213000019306F0ABFEA36803430393D8F89050D5
:10214000C5F30725D0B2013DA84207D801A9FFF782
:10215000C3FF421C09F101090C34DBE76FF01502E3
:10216000104605B0BDE8F08300ED00E0044B052209
:10217000C3F89420BFF34F8FBFF36F8F704700BF3A
:1021800000ED00E0BFF35F8F024B0022C3F8942004
:10219000704700BF00ED00E010B5034C012322782A
:1021A000FFF7AEFF207010BD6227002008B50B4A74
:1021B00000231278FFF7A4FF10F1160F07D0084A8A
:1021C0000021D2F89030C3F30723984200DB08BD0A
:1021D000C2F89800C2F8A0100130F2E76227002090
:1021E00000ED00E02DE9F043534B544CD3F8903010
:1021F0002568C3F307239D4285B000F29A80FFF75C
:10220000C1FF00200C2685421AD14D4C4D4F257040
:102210006846FEF77FFCDFF82081DFF82C91064648
:102220000025AE4213D1237843490020D1F89020F5
:10223000C2F30722934276DBFFF798FF002042E0CB
:10224000616806FB0011FFF747FF0130DBE70098EC
:1022500000EB05114FEA051CCB683B40B3F5000FBE
:1022600048D00AD8B3F5001F30D0B3F5800F36D070
:10227000B3F5801F10D00135D3E7B3F1807F42D092
:10228000B3F1007FF7D150F80C3088684A6806F047
:10229000FDFD40F4802009E050F80C3088684A6861
:1022A00006F0F4FD40F0885040F43020CDE90123E1
:1022B0000390D8F890302078C3F30723013B98426D
:1022C0002AD96FF0150005B0BDE8F08350F80C3046
:1022D00088684A6806F0DAFD40EA0900E6E750F847
:1022E0000C3088684A6806F0D1FD40F0E06040F4A8
:1022F0000030DBE750F80C3088684A6806F0C6FD0D
:1023000040F08270D2E750F80C3088684A6806F0D6
:10231000BDFD40F08870C9E701A9FFF7DDFE237815
:1023200001332370A7E7C1F89830C1F8A00001334A
:102330007CE74FF0FF30C6E700ED00E0709C000046
:10234000622700200000F0FF0000081108B50649D0
:10235000064821F00701C1F1005202F5802206F083
:102360009BFB002008BD00BF4743002068180020E9
:102370000E4A0123C2F840354FF080424FF08051A1
:10238000C2F87835D1F83001082808D1D1F83411D5
:10239000052904D80648415C09B1C2F838364FF027
:1023A00080430122C3F880250020704700E00140EF
:1023B000CF9E000020B1034B800143F0010318477A
:1023C000704700BF309C0000020600F07F0312D56A
:1023D000082B05D1010700F00F0306D50E48704702
:1023E00010F0780F12D100F00F034C2000EB4310D7
:1023F0000A4B18447047082B05D1020700F00F0361
:1024000006D50748704710F0780FF6D000207047C7
:10241000044800EB43107047C019002074180020D6
:10242000E01A0020E01900200149024807F0CFB867
:102430009C180020700E00200146014807F082B869
:102440009808002002480022002304F027BD00BFA6
:102450009808002013B5124800F0C4FE114B9842B2
:102460001AD1114804F01CF90024104804F05EF958
:102470000F49104800944FF0FF334FF4806204F08E
:102480009FFE0D490B4807F0B8F80C480C4907F0BF
:1024900082F8204602B010BD6FF00400FAE700BFDA
:1024A000A92600000000AD0BE39E0000909C0000F8
:1024B000402A0020700E0020D59E00009C180020AD
:1024C000C527000010B50E49BFF35B8F002351E80C
:1024D000002F012A03D141E800300028F7D1BFF3D3
:1024E0005B8F0CD151F8044C1439204606F033FCB4
:1024F000783004D12046BDE8104006F008BC10BD7D
:102500009418002038B5002464F07F00C0B2FFF7B3
:102510005BFF013406F0CAFC082CF5D10E4D0024F7
:10252000E0B2FFF751FF036903B90561013406F01A
:10253000BDFC082C05F14005F2D1084806F0B6FCB8
:10254000074BD3F87C2212B9064AC3F87C2206480E
:1025500006F0ACFC002038BD041F0020C01900208C
:1025600074180020041B0020E01A002010B5054C50
:10257000FFF768FF20B14168204606F037FFF7E714
:1025800010BD00BF0808002007B500230E48002238
:1025900001A904F0A1FB90B1FFF7E8FF0A4800226F
:1025A000002301A904F098FB38B901980423406086
:1025B0000374FFF741FFFFF737FF002001E00198A8
:1025C000406003B05DF804FB08080020022810B545
:1025D00011D8094B1C5CFFF7D7FF60B100220274D1
:1025E0000472FFF729FF054B93F824301BB1BDE8B7
:1025F0001040FFF719BF10BDE09E000074180020C6
:10260000F8B5877806463846FFF7DEFE3B06F578D4
:10261000044612D5002D43D1FFF7B6FF034600282C
:102620003ED00122A5770274032202739C60FFF75B
:1026300003FFBDE8F840FFF7F7BE4DB1012D2FD1E4
:10264000FFF7A2FF034658B3657705740573EDE7FE
:10265000FFF79AFF20B3B278124B12F0800F02F00E
:10266000080111D041B1D3F8A836E3600123037407
:10267000022303738460DAE702F00F02142101FBE6
:102680000233D3F80836F0E711B1D3F8A837ECE7F6
:1026900002F00F02142101FB0233D3F80837E4E7FC
:1026A000F8BD00BF00700240F0B5064689B01422A4
:1026B000002103A807F093F93378013B052B21D8BB
:1026C000DFE803F07A0314146A1603238DF814303C
:1026D0000024FFF759FF0346A0B1047400F108027B
:1026E000DDE9050182E8030018461DE00423EDE75B
:1026F000B7783846FFF768FE837A044623B1013B7A
:10270000022B43D909B0F0BD3B06F57813D5002D57
:10271000F8D1FFF739FF03460028F3D00122A5774F
:102720000274032202739C60FFF786FE09B0BDE8C5
:10273000F040FFF779BE55B1012DE3D1FFF724FF3B
:1027400003460028DED0657705740573EBE7FFF7D5
:102750001BFF07460028D5D001230374022303730F
:10276000846004F10C01B07806F001FC134AE168C2
:10277000B2F88C328B4206D95B1AA2F88C3201F087
:102780007FF83846D0E7A2F88C52FAE7304609B015
:10279000BDE8F040FFF734BF01A801F04FF89DF805
:1027A0000530052B04D19DF8043013F0600FA9D03B
:1027B000034B059301248CE702248AE77418002058
:1027C000E01900202DE9F043A64CDFF89C9285B07B
:1027D0008046FFF737FE074610B905B0BDE8F08325
:1027E00094F825303A7C3BB9002A00F0868079685D
:1027F0009D4806F0FBFDECE7042A42D8DFE812F022
:102800007D0005000001160140013B7BBD68032BE4
:1028100037D8DFE803F0023D5A5F6E69934B002220
:1028200032607260D3F880143170D3F88414717000
:10283000D3F88814D3F88C0441EA00217180D3F8CE
:102840009014D3F8940441EA0021B180D3F898148D
:10285000D3F89C3441EA0323F3800823EB6030680B
:102860007168834B03C311462B68687A984796F9C1
:102870000030002B08DBF38833B1A4F88C3200F071
:10288000FFFF79684846B4E70023A4F88C32F8E7E4
:102890006B7F002BF5D02B7F002BF2D000266E77BC
:1028A0004FF0FF3273482E774FF0FF3306F011FBE5
:1028B0006B6901936B68CDE9023601A9687A00F073
:1028C000E7FC6C4806F007FBDBE72B680121687A20
:1028D0009847D6E7AB7A6BB9EB7F5BB965484FF0A9
:1028E000FF324FF0FF3306F0F4FA00F0CFFF6148FB
:1028F00006F0F1FA2B680221E9E73A7A042AC0D8F7
:10290000DFE802F059032367730000F02BFC054653
:102910000028B6D100F066FBBFF35B8F5649012358
:1029200051E8002F002A03D141E800300028F7D1F8
:10293000BFF35B8FA5D141F8085C41F8105CE069FA
:102940006361143906F08CF99BE7002565F07F0080
:10295000C0B2FFF739FD037A13B1407A01F0FAF8FB
:102960000135082DF2D194F854311BB194F855017A
:1029700001F0F0F80025E8B2FFF726FD037A13B165
:10298000407A01F0E7F80135082DF4D194F874325B
:102990001BB194F8750201F0DDF8002000F0C6FBD1
:1029A000012384F825302368002B3FF46AAF00210F
:1029B0000220984765E7002584F8255001F030F89B
:1029C000FFF780FD2368002B3FF45BAF294604200E
:1029D000EFE7002B3FF455AF00F0CEFB2368002B50
:1029E0003FF44FAF00210520E3E72268002A3FF4BF
:1029F00048AF002B3FF445AF00210620904740E749
:102A000008F110054FF0FF334FF0FF32284606F073
:102A100060FAFFF777FD284606F05DFA58F8283C83
:102A2000002B3FF42EAF00210120C2E794F874324E
:102A30007BB1012584F8895284F88852FFF7A4FD00
:102A400038B10E4A057405738260FFF7F5FCFFF795
:102A5000EBFC58F8283C002B3FF413AF00210A2070
:102A6000A7E700BF7418002008080020007002408B
:102A700078180020AC18002094180020E01A0020DC
:102A800006F033FC00F0CCFF00F0A2FAFFF76EFD79
:102A9000FFF738FD06F022FC014800F0A3FBF0E64A
:102AA000A926000038B5164D95F824402CBB05F139
:102AB000380006F0D3FC204601F09EF922460121A1
:102AC000E8612720FFF73EFA06F008FCFFF71AFD41
:102AD000044610B9012385F824300A4B1B680BB15A
:102AE000FFF7A2FC4FF08043D3F83834DB0702D560
:102AF0000020FFF76BFD204638BD0024FBE700BF38
:102B00007418002098080020074B93F824203AB14D
:102B100093F82530002B14BF00206FF0120070478F
:102B20006FF01200704700BF7418002038B5104BCA
:102B300093F824300446C3B105782846FFF744FCD7
:102B400010B96FF0150038BD457223798372638820
:102B500043602078618810F0080F02D14B1E0B42B1
:102B6000EFD106F0FFF90020EDE76FF01200EAE781
:102B70007418002038B5124B93F824200546CAB1CA
:102B800093F82530B3B1FFF71FFC0446A8B1837A50
:102B9000012B12D007D9023B012B07D96369A3612E
:102BA0000020E06038BD00F077FEF7E7284600F02F
:102BB00019FEF3E76FF01200F4E76FF01500F1E78C
:102BC0007418002038B50E4B93F82420054682B1C6
:102BD00093F825306BB1FFF7F7FB68B115F00804E7
:102BE0000AD1284600F020FE284600F0EBFF2046E0
:102BF00038BD6FF01200FBE76FF01500F8E700BF7B
:102C00007418002038B50C4B93F8242005460C4668
:102C100062B193F825304BB1FFF7D6FB48B144B110
:102C2000284600F0E7FD2070002038BD6FF012004C
:102C3000FBE76FF01500F8E77418002070B5134E2D
:102C400096F824300446C3B1FFF7BEFB0546B8B181
:102C5000230705D4204600F0E7FD204600F0B2FF30
:102C60002B7A83B901232B7296F825300BB90020FB
:102C700070BD204600F06EFFF9E76FF01200F7E735
:102C80006FF01500F4E76FF07700F1E7741800209B
:102C90002DE9F043DFF8E4801E4698F8243085B033
:102CA000074689461546002B61D098F82530002B41
:102CB0005DD003065ED5FFF787FB0446002859D098
:102CC000037A002B56D04FF0FF334FF0FF3208F15C
:102CD000380006F0FEF8A37F4BB108F1380006F08B
:102CE000FAF86FF00A04204605B0BDE8F083A37A35
:102CF000C5B13BB30123A3774FF0000801A93846C3
:102D0000CDE90195CDF80C8000F0C2FA1C4B984239
:102D100029D084F81E801EBB6FF00404194806F009
:102D2000DAF8E0E7E27F02B1E577002BE2D100F0CC
:102D3000B9FD8742DED000F0A9FD124806F0CBF8BD
:102D40000024D0E7B8F80A309D42F0D26268B5FBA3
:102D5000F2F302FB1353002BE9D10123E377E6E7FB
:102D6000C6F80080D8E706B135600024D6E76FF0DA
:102D70001204B8E76FF01504B5E700BF741800201F
:102D80000000AD0BAC1800202DE9F0411D46204B92
:102D9000174693F824200E46002A33D093F82530A6
:102DA00083B3030631D401B97FBBFFF70DFB0446A3
:102DB00058B3037A4BB34FF0FF3316484FF0FF324E
:102DC00006F087F8E368BB42984628BFB84646B984
:102DD0003FB905B12B600F4806F07DF80020BDE833
:102DE000F081A1694246304606F0EBFDA3694344F9
:102DF000A361E368A3EB0803E360002DEBD0C5F803
:102E00000080E8E76FF01200E9E76FF01500E6E7F1
:102E100074180020AC18002070B51E4D95F82420C1
:102E2000034682B395F825206AB31B062ED4FFF71C
:102E3000CBFA044650B3037A43B34FF0FF334FF05D
:102E4000FF3205F1380006F044F8E368B3B9012613
:102E500063692677A361637F83B1FFF795FB30B980
:102E600005F1380006F037F86FF00B0070BD0674FE
:102E700084600673FFF7E0FAFFF7D6FA064806F01B
:102E80002AF80020F2E76FF01200EFE76FF015006C
:102E9000ECE700BF74180020AC18002010B5084BF8
:102EA00093F824300C462BB1FFF78EFA28B104605A
:102EB000002010BD6FF01200FBE76FF01500F8E77F
:102EC00074180020014B1860704700BF7418002070
:102ED00008B5074B93F8243023B1FFF775FA20B1FA
:102EE000406808BD6FF01200FBE76FF01500F8E7CF
:102EF000741800204FF08053D3F83021082A06D1EF
:102F0000D3F83431052B04D8034AD05C7047002035
:102F100070470120704700BFE49E0000064B10F090
:102F2000800FA3F1D80208BF134600F00F0018224B
:102F300002FB0030704700BF1C220020EFF311801D
:102F4000402383F31288BFF36F8F0A4BD3F8001C22
:102F5000032261B949F27531C3F8001CC3F8142D7E
:102F6000C3F8001C80F31188BFF36F8F7047C3F85C
:102F7000142DF7E700E00640EFF31180402383F3C0
:102F80001288BFF36F8F0A4BD3F8001C61B949F266
:102F90007532C3F8002CC3F8141DC3F8002C80F35D
:102FA0001188BFF36F8F70470022C3F8142DF6E726
:102FB00000E006404FF08053D3F83031082B02BFB9
:102FC000024B0022C3F81C2C704700BF0070024067
:102FD000024A00231360024A13707047FC2200204B
:102FE0006727002008B54A4B4FF40062C3F800245D
:102FF000FFF780FF08B1FFF7A1FF4FF08053D3F830
:103000003031082B18D1EFF31180402383F312885D
:10301000BFF36F8F3F4BD3F8001CC02200296ED145
:1030200049F27531C3F8001CC3F8142CC3F8001C16
:1030300080F31188BFF36F8F354B0122C3F8002551
:10304000D3F800241205FBD54FF40062C3F8002426
:103050004FF08053D3F83031082B17D1EFF31180A4
:10306000402383F31288BFF36F8F2A4BD3F8001CE1
:10307000002947D149F27532C3F8002CC3F8141C5B
:10308000C3F8002C80F31188BFF36F8FFFF732FF76
:1030900030B1FFF771FFFFF72DFF08B1FFF74EFFCB
:1030A0004FF08053D3F83031082B194B0AD140F23E
:1030B000E372C3F800284022C3F80428BFF36F8FDF
:1030C000BFF34F8F8022C3F81C250122C3F830259F
:1030D000114B40F2FF121A60104B00211960104B87
:1030E0001970FFF767FF0F4B19700F4B02221A7010
:1030F000FFF700FF50B1BDE80840FFF73DBFC3F840
:10310000142C95E70022C3F8142CBBE708BD00BFC0
:103110000070024000E00640F8220020F422002067
:10312000632700206527002067270020094B002225
:1031300010B51A70084A094B094C002808BF1346FD
:10314000C4F800332720FEF7CDFE0123C4F8043570
:1031500010BD00BF66270020FDFFDF01FDFFFF015E
:1031600000700240034B1878012894BF0020012012
:10317000704700BF6727002010B54FF0FF324FF0B7
:10318000FF33154803F0E0FEEFF31181402383F392
:103190001288BFF36F8F114B1B7803F0FF0483B1CC
:1031A0000F4BD3F8002412F400720AD10120C3F8A7
:1031B0002C05D3F82C05D3F80004800502D5C3F8FC
:1031C0002C25002481F31188BFF36F8F024803F090
:1031D00097FE204610BD00BF88080020662700200B
:1031E00000700240F8B51C4B1C7894BB1B4A106061
:1031F00001221A7040F2FF17264664F07F0514F092
:10320000080FEDB214BF39464021284605F0AAFE4A
:103210002846FFF783FE0134092C86750673066184
:10322000EBD1002440F2FF17254614F0080FE6B258
:1032300014BF39464021304605F094FE3046FFF772
:103240006DFE0134092C857505730561EDD10448C7
:10325000F8BD0448FCE700BF67270020FC220020DF
:103260000000AD0B0500AD0B084B10F0800F00F017
:103270000F0114BFD3F81025D3F8142501238B4078
:10328000134214BF01200020704700BF00700240AD
:103290002DE9F8430246EFF31187402383F31288A8
:1032A000BFF36F8F030703D1184B1B78834229D1DB
:1032B000174B184E1C683568104605F04BFEE4436A
:1032C000A4B24FF001092C4309FA00F814EA0804EB
:1032D0001AD11046FFF722FE80F80C90034607C96A
:1032E0001C6183E807009C750B4B0C4845EA0805F8
:1032F00080223560C3F8042187F31188BFF36F8FF4
:10330000BDE8F8830648F7E70648F5E7652700209B
:10331000F8220020F422002000E100E00000AD0BC4
:103320000A00AD0B0B00AD0B10F0080F074B06D0D9
:10333000D3F8C00410F4803F18BF0020704700F09D
:103340000F0000F5947053F82000704700700240A1
:103350002DE9F74FAB4BAC4ED3F85421DAB1002234
:10336000C3F85421D3F80413890214D58DF804202E
:10337000D3F82025ADF80620D3F8C034002B3368ED
:1033800014BF4FF001224FF48072134333609F4B00
:1033900001A81B6898479B4BD3F8604134B10022C9
:1033A000C3F86021D3F86C44C3F86C44D3F82821E7
:1033B0004AB10022C3F82821954B187805F0CAFDC0
:1033C000012383401C43DFF84C82934F98F8005050
:1033D00098F9009015F0080143D1B9F1000F05F0FC
:1033E0000F032EDA8D4A52F8230020B342F823103F
:1033F0001422534303F1804303F51C33D3F80836FA
:10340000874A117803F001034B401370FFF7D2FD98
:10341000844803F075FD2846FFF780FD837D032B6C
:1034200037D1284605F096FD012303FA00F03B68EA
:1034300023EA00033B60DFF8D4A101254FF0060921
:103440005DE0794A52F823000028F4D042F82310B6
:103450001422534303F1804303F51C33D3F8083798
:10346000CEE7B9F1000F674B09DBD3F85021002AF2
:10347000E1D00022C3F85021D3F8A837C0E7D3F831
:103480002C21002AD7D00022C3F82C21D3F8A8364B
:10349000B6E7037BDBB9284605F05CFD012303FAA0
:1034A00000F03B68B9F1000F23EA00033B6001DA4A
:1034B000882DC0D106238DF8043000238DF8073005
:1034C000524B8DF806501B6801A89847B3E7002DB2
:1034D000B1D14C4B0122DA64ADE794FAA4F0326822
:1034E000B0FA80F005FA00F31A430F28326024EA9C
:1034F00003043A6840F39C80134200F0A980002C3A
:10350000EBD1404BD3F800215AB1C3F80041474BEF
:103510001C703F4B1C70012301933C4B01A81B689E
:103520009847384BD3F85821002A2ED00022C3F8F0
:103530005821D3F80044C3F80044E30508D53B4BB9
:1035400001221A7002230193304B01A81B6898478F
:10355000A50508D5354B00221A70032301932B4B88
:1035600001A81B68984760050FD5304B1A7862B1E7
:1035700000221A70234B0122C3F808259A65042300
:103580000193224B01A81B6898471E4BD3F85C316E
:1035900003B3244B9B681BB998F80030590619D027
:1035A000184B0022C3F85C21D3F88034184A23F06A
:1035B0007F0313703B6823F001133B60336823F4EF
:1035C000803343F001033360052301930F4B01A8BF
:1035D0001B6898473A6833681A4200F0EB8011483C
:1035E0000022002303F0B0FC002840F0E380054BEC
:1035F000D3F82C35002B7BD00A4803B0BDE8F04F40
:1036000003F07EBC00700240F8220020FC22002063
:103610006527002064270020F42200200871024062
:1036200063270020880800203071024066270020B0
:1036300013407FF464AF60F07F018DF804908DF843
:1036400006108DF80730DAF8003001A8984756E7E1
:10365000A0F110018DF804908DF806108DF8075038
:10366000F1E749F080052846FFF758FC4368B0F8B9
:1036700014A001689A4528BF9A4601F06043B3F14F
:10368000005F044604D05448524606F09AF9524965
:103690002268636852442260A268A3EB0A03D2073F
:1036A00068B2636053D5BAF1000F52D1002323737F
:1036B0004FE011464FF0000A604545D1003B18BF6E
:1036C0000123002A42D0504540D9012303FA09F3CF
:1036D0002BEA03033B6006238DF804303F4B8DF843
:1036E000065002221B68A2758DF8072001A8984792
:1036F000D7F800B033681BEA03093FF47DAF19F037
:10370000012314BF93FAA3F999FAA9F9B9FA89F92F
:10371000B9F10F0FA5D9A9F11005EDB22846FFF7B1
:10372000FDFB04462846FFF7FFFD6368B4F814C0AC
:1037300022689842BDD81B1A00EB020E1146636046
:10374000C4F800E08246B7E70023BAE768B2002B6E
:10375000ACD04FF08053D3F83031082B02BF204B50
:103760008222C3F81C2C336888F80050012202FA28
:1037700009F923EA09033360236915F0080F53445C
:103780002361174B19D1002805F00F054FF01400E5
:1037900000FB0530A9BF0A3503EB8503C0F800170D
:1037A000C0F804A7AFBF43F82520C0F80016C0F842
:1037B00004A65A6003B0BDE8F08F0028B5BFC3F877
:1037C000A016C3F8A017C3F8A4A6C3F8A4A7B4BF53
:1037D0005A629A64EEE700BF04210020FC22002018
:1037E00000700240024B40F48070C3F81805704727
:1037F00000700240030713D400F00F0310F0800F95
:10380000084A0BBF03F5887303F5847302EB830248
:1038100052F8230008BF5068003818BF01207047D5
:103820000020704700700240034BC3F80C0540F4C1
:103830008070C3F80C0570470070024000230360DD
:1038400043600E4BD3F880240270D3F88424427076
:10385000D3F88824D3F88C1442EA01224280D3F8AA
:103860009024D3F8941442EA01228280D3F8982459
:10387000D3F89C3442EA0323C380704700700240AF
:10388000014B0122DA64704700700240014B0122B3
:103890001A65704700700240014B01225A6570475B
:1038A00000700240014B1878704700BF6527002068
:1038B00010B50246EFF31184402383F31288BFF35F
:1038C0006F8F05F047FB0B49012303FA00F00B68EB
:1038D00023EA00030B6012F0080101BF02F00F029F
:1038E000054B02F5947243F8221084F31188BFF35C
:1038F0006F8F10BDF822002000700240F7B501461E
:10390000EFF31185402383F31288BFF36F8FFFF726
:1039100005FB0646084605F01DFB012211F0800F4D
:1039200002FA00F22D4818D1036832EA03040AD0E3
:103930000846FFF7BDFF0323B37585F31188BFF376
:103940006F8F03B0F0BD2649347323EA020303608E
:103950000B6823EA02030B60EDE70B0715D48029FF
:10396000204B2FD001F00F0404F2DA346400C3F8C6
:103970000048D3F80448D3F80478E4B244F00204D1
:103980003C43C3F80448D3F80438154F04683B6837
:1039900064EA030C1CEA020FCFD013433B60002300
:1039A00033730323B3758DF807300F4B8DF8061072
:1039B00024EA0204062204601B688DF8042001A892
:1039C0009847BAE740F2B474C3F80048D3F8044803
:1039D000D3F80478E4B244F00404D1E7F4220020E0
:1039E000F822002000700240FC22002038B5044676
:1039F000094D4FF0FF324FF0FF33284603F0A4FA91
:103A00002046FFF77BFF284603F07AFA034B80221B
:103A1000C3F8042138BD00BF8808002000E100E0A1
:103A2000F8B54FF0FF324FF0FF332B4803F08CFA1C
:103A30002A4B8022C3F884212720FEF775FA98B11B
:103A4000274E284B34681B68240C24041C43012790
:103A500064BB254D40F2FF1333602720C5F80445B1
:103A6000FEF74EFAC5F80043204A13788BB11E4B7F
:103A70000021C3F808110121C3F80026C3F8041679
:103A80005960D3F808110029FBD00021C3F80811B0
:103A90001170154B0022C3F80025FFF78BFA0E4872
:103AA00003F02EFA124B01221A70F8BD94FAA4F515
:103AB000B5FA85F50F2D2846C6BFA5F11000C0B296
:103AC00040F08000030701D4FFF718FF07FA05F55F
:103AD00024EA0504BCE700BF8808002000E100E0FC
:103AE000F8220020F422002000700240632700200A
:103AF0006727002010B504464FF0FF324FF0FF3328
:103B0000114803F021FA2046FFF7F8FE04F00F02F7
:103B1000012393400D4A14F0800F14BFD2F8101502
:103B2000D2F814156FEA030315BF0B400B40C2F81F
:103B30001035C2F81435044803F0E2F9044B802232
:103B4000C3F8042110BD00BF8808002000700240A7
:103B500000E100E070B50446FFF786FB68B904F0A9
:103B60000F02012514F0800F144B05FA02F205D064
:103B7000D3F810150A43C3F8102570BDD3F81415F7
:103B80000A43C3F81425631E062BF6D8EFF31186FB
:103B9000402383F31288BFF36F8F2046FFF788FE20
:103BA000204605F0D7F9064A1368854023EA050345
:103BB000136086F31188BFF36F8FDEE70070024059
:103BC000F4220020030610B5044605D4FFF712FEC8
:103BD00010B12046FFF76CFE014BC3F8184510BD2D
:103BE00000700240084B70B5C31A0D4607499B1080
:103BF000044659430648402205F0D8F92B460146B1
:103C00002046BDE87040184714230020B76DDBB68E
:103C1000389B000073B50C4C0C4A4023041B0093E6
:103C20000D460B460A49A41061430646094805F0B3
:103C3000E9F9011E05DA30462B4602B0BDE87040B6
:103C4000184702B070BD00BF142300206F90000021
:103C5000B76DDBB6389B000010B5EFF3118440233D
:103C600083F31288BFF36F8F074A136823F00201B2
:103C7000DB07116002D4012005F0A2FA84F3118859
:103C8000BFF36F8F10BD00BF64230020002270B50A
:103C9000012104461046FEF755F90F4802F060F87E
:103CA0000E4B984215D102F06BF826690C4930464C
:103CB00004F0C3FF00280BDB0125356424690849A3
:103CC00004F11C0004F0B9FF002801DBE5640020CA
:103CD00070BD6FF00400FBE7DD3D00000000AD0BA0
:103CE000949C00001FB500220123CDE90223094A5C
:103CF000CDF800D06B46CDF804D005F0B1F900281E
:103D000005DB4FF480420023684603F01DF905B03F
:103D10005DF804FB8D90000030B4104B0C2202FBC8
:103D2000003301460020D3E90E529863EFF311806F
:103D3000402484F31288BFF36F8F1C6C04F0C0041E
:103D400044F002041C6480F31188BFF36F8F1DB12F
:103D50002B46034830BC184730BC70471423002062
:103D6000389B000010B4EFF31182402383F31288D4
:103D7000BFF36F8F1748016841F002040460C80761
:103D800007D482F31188BFF36F8F012010BC02F0BB
:103D90000FB84FF08041D1F80C04D1F80C14C907CA
:103DA000EFD5EFF3118083F31288BFF36F8F0A49C9
:103DB0000B6C03F0C00343F002030B6480F3118823
:103DC000BFF36F8F82F31188BFF36F8F002010BC99
:103DD000FFF7A2BF642300201423002010B10128A4
:103DE00004D07047034B1B6C5B0701D1FFF794BFF6
:103DF000704700BF14230020024AC3B21C2003FBFB
:103E000000207047142300202DE9F0413849BFF30A
:103E10005B8F0746012251E8003F41E8002000285F
:103E2000F9D1BFF35B8F33B9324933484B60CB6074
:103E30008A6004F015FF7B1E012B2BD8012F07D1C0
:103E40004FF08043D3F81C3403F00303012B21D03F
:103E500005F0CDFB0546F8B9284B1B78E3B14FF0D0
:103E600080430222C3F808230646DFF894804FF00F
:103E70008044D4F81824D4F81834D20315D503F0AC
:103E80000303012B01D0012F0FD155B386F3118805
:103E9000BFF36F8FBDE8F081EFF31186402383F30A
:103EA0001288BFF36F8F0125DFE7ADB1304604F014
:103EB000DEFFD4F81835002BDBD1D4F80421002A1A
:103EC000D7D0C4F80431D4F804310123C4F818352C
:103ED000C8F88031A360CCE70021212003F0AAFCC0
:103EE000E7E74FF080430222C3F80423D2E700BF84
:103EF0001023002000230020302300200F2A002060
:103F000000E100E0F0B54068057B01F01F0444EAE1
:103F10004514056987B0002D64D0B2F5001F00F18B
:103F2000100506D12146284605F0CAF9002007B041
:103F3000F0BD01AE0027B2F5800F0197776039D14F
:103F4000B3F1007F14BF052304238DF80430002350
:103F5000CDE904630393836823FA01F111F00101B1
:103F60001AD1B2F1A07F17D104F01F03620903F543
:103F7000E0732AD0012A3BD11F4A52F82330DB07D5
:103F80000AD40DF1030632462146284602F0EEF926
:103F90001A4B98421CD0029603AA2146284602F0EA
:103FA000A7F8174B984220D101222146284602F05B
:103FB00041FABBE7B3F1C06F05D0B3F1007F14BF86
:103FC00001230223C1E70323BFE74FF0A042D4E758
:103FD0003146284602F028FA094B9842DBD06FF0B0
:103FE0000B00A4E76FF08500A1E76FF015009EE7D6
:103FF00051F82330FFDE00BF000300500400AD0B7A
:104000000000AD0B38B545682B69B3B110352846B3
:1040100002F0FAF9044680B90146284602F0C0F9D8
:10402000084B98420BD108492246284602F098F9DD
:10403000224605210620FDF785FF002038BD6FF0E0
:104040000400FBE70000AD0B4D400000420970B5D5
:10405000034602D0012A17D070BD0D4E3269516857
:104060000029F9D003F01F0301250C689D400029A9
:10407000F2D08A682A4002D04B68304698472CB16B
:10408000236821461C46F2E7024EE7E72346F8E79D
:10409000609B00004C9B00002DE9F043466840F215
:1040A0000635D006337B87B002EA050554BFC2F35C
:1040B0004010032001F01F07B5F5837F144647EA3F
:1040C00043178DF8030045D00FD8062D18D007D818
:1040D000B5B1022D40D06FF0150007B0BDE8F083F8
:1040E000B5F5807FF7D101250AE040F20222954222
:1040F00034D0B5F5407F33D0B5F5007FEBD1022544
:104100000123220303FA01F12CD57368C3F80815C3
:10411000326982BB07F01F037F0929D0012F77D1B5
:104120003E4A02EB830284F48033D2F80017C3F3D3
:104130000043C4F3404444EA430421F4E16144EA07
:10414000800421F0070144EA05230B43C2F800373D
:104150000020C2E70725D3E70425D1E70525CFE7EF
:104160000325CDE7630344BF7368C3F80C15CFE79D
:104170004FF0A042D5E710360DF102023946304625
:1041800002F0F4F814F4403F80460CD13946304632
:1041900005F094F8224B9845DAD19DF8021030468C
:1041A00002F03CF9D4E701AB4FF0000903AA39460D
:1041B0003046CDE90439CDE90199CDF80C9001F0F4
:1041C00097FF174B984286D114F4003315D09DF811
:1041D00003308DF80E3084F48034C4F300444B4631
:1041E00003AA394630468DF80C508DF80D4002F088
:1041F00039F80B4B9842CDD06DE7CDE9043303AAD3
:104200000DF1030339463046039301F071FFF0E7E7
:1042100003F5E07352F82330FFDE00BF00030050C7
:104220000000AD0B70B5012383400E4ABFF35B8FD6
:10423000DC4352E8001F01EA040542E80056002E64
:10424000F7D1BFF35B8F4FF4803282400648C0F84D
:104250000823BFF35F8FBFF36F8F0B4214BF0120A2
:10426000002070BD842300200010014070B40E496E
:10427000D1E90034D01AC31844F1000422F07F467B
:10428000C1E90034A6F50013B3F5400F09D2074B7E
:104290001B681A0A1B069C19054B42F10005C3E96D
:1042A000004570BC03F07ABC200F0020882300205A
:1042B000280F002011B3BFF35B8F0123104A834006
:1042C00052E800CF4CEA030C42E800C10029F7D1C4
:1042D000BFF35B8F0B4A4FF480338340C2F8043343
:1042E000094BBFF35B8F1B68BFF35B8FC340DB07DA
:1042F00042BF064B4FF40032C3F80021704700BFA5
:1043000084230020001001408023002000E100E011
:104310000D4B1868010A0006BFF35F8F0B4BD3F8F3
:104320000435181841F10001B3F5801F0AD2084B7B
:10433000D3E90023904271EB030303D210F18070A4
:1043400041F10001704700BF8823002000100140A8
:10435000280F00202DE9F04F85B016461F469DF826
:1043600040A00446FFF75EFF0190FFF7D1FFB04287
:1043700071EB070354D23E4B301A67EB01019842B0
:1043800071F100014FD23B4B03EB0413D3E902233D
:104390009F4208BF96425ED037494FF4803804F1FF
:1043A000500508FA04F8AD00C1F848832046ADB2C4
:1043B00004F0D8FE26F07F4B05F1804504F5A87384
:1043C00005F58835DC464FF003090293029A2CF07C
:1043D0007F4341F82230C1F84483D1F80435274A9D
:1043E0006FF00200C01A604420F07F40904232D942
:1043F000286868B1D1F804350393A3EB0B0020F0D3
:104400007F40B0F5000F26D9204604F0ABFE039B99
:10441000BAF1000F07D109EB030C09F10109D5E747
:10442000BAF1000F09D06FF0150520460199FFF78A
:1044300041FF284605B0BDE8F08F0123104ABFF3C5
:104440005B8FA34052E8000F184342E800010029A7
:10445000F8D1BFF35B8F07490E98230101EB0412DB
:10446000C8500F9B5360C2E902670025DDE700BF1B
:1044700001008000100F002000100140FDFF7F00B0
:10448000802300207FB51C4C1C4BC4F80833C4F8B3
:1044900048331B4B00254FF0FF304FF0FF31C4F87D
:1044A0000855C3E902014FF48033C4F80433154BB7
:1044B00002264FF400320121C4F804631120C3F82E
:1044C00080212A46FDF73EFD1120FDF70BFD0E4A27
:1044D0000123A360236013600C4B0D4A0093CDE9C8
:1044E000015500232846FFF735FF3046FFF78CFCC7
:1044F000284604B070BD00BF0010014003000F004B
:10450000100F002000E100E0842300206D42000035
:10451000FFFF7F002DE9F7432B4CD4F804339907B4
:104520000BD5D4F8043143B1284A0023C4F8043130
:10453000D4F80431136801331360D4F80433DA0378
:1045400023D5BFF35B8F224B53E8002F22F00101EC
:1045500043E800100028F7D1BFF35B8FD30702D4E4
:10456000D4F840318BB10025C4F84051D4F8403123
:10457000FFF7CEFEEFF3108272B6164BD3E9026757
:10458000B042B94104D282F3108803B0BDE8F08391
:104590004FF0FF384FF0FF39C3E90289D3E900102B
:1045A0001D604FF48033C4F84833C4F84051D4F848
:1045B000403182F310880029E7D0009032463B4614
:1045C00028468847E1E700BF00100140882300200B
:1045D00080230020100F002030B5431C124C85B002
:1045E00005D08442A8BF0446012CB8BF0124FFF7C0
:1045F0008FFE0E4B0C4DD3E90013401AB0F5000F9F
:1046000010D22218AA4228BF2A4652184FF00000A2
:1046100007490091CDE9010043F10003FFF79AFE3D
:1046200005B030BD2A46F0E7FFFF7F00200F0020D5
:104630006D42000008B5FFF76BFE024B1B68C01A05
:1046400008BD00BF200F00200B4B0C4A1B7AC2F89C
:104650001035042B0DD8DFE803F008030C08030025
:10466000074BA0221A6001207047054B4FF4967249
:10467000F8E70020704700BF8424002000100040AD
:1046800094230020044A0023C2E908339362034ABA
:10469000C2E908339362704750240020242400208C
:1046A000054B1B68D3F80423920342BF0022C3F8D2
:1046B0004421D3F8443170478405002038B50028E0
:1046C0000D490E480E4D40F2044408BF4FF480647B
:1046D000FBF71CFD28B900F041FF2B68C3F800422E
:1046E00038BD084BDB7C002B2B680CBF81222822B5
:1046F000C3F84825F1E700BF3C050020209D0000DD
:10470000840500208424002008B5084B1B68012282
:104710001A61FBF70DFDFBF705FD00F03BFF0320E1
:10472000FBF70CFDBDE80840FBF7EABC8405002060
:1047300007B50B4B0B48DA7C90F90A00002302F511
:10474000166201A9FBF706FD9DF80500FBF7FCFCCE
:104750009DF80420044BC3F80C2503B05DF804FB5E
:104760006C0500208424002000100040EFF311812C
:10477000402383F31288BFF36F8F074A936A013B8C
:104780009362536A0133082B28BF0023536281F3DD
:104790001188BFF36F8F7047502400202DE9F84334
:1047A000224BDFF88C801A78012A81460F4630D1DF
:1047B00098F80030C3F3050203F03F03202B33D8F1
:1047C0001C4B196A53F821301A701A4D1A492C6A79
:1047D00055F824603046013410F8052B05F0F1F847
:1047E000164B86F80190D3F84835377103F07F03F4
:1047F000B37098F80130DB4303F00103F370AB6A48
:10480000082C28BF002401332C62AB620120BDE8D4
:10481000F883084A116A52F82120597809B91170B1
:10482000D3E75B7C1370D0E70020F0E784240020FE
:10483000C029002024240020C229002000100040AC
:10484000837842781B0443EA022302781343C27838
:1048500043EA0253027943EA8253427943EA02630C
:10486000827943EA8263C27943EA4273094AC2F811
:104870001435837A417A1B0443EA0123017A0B43FE
:10488000C17A43EA0163017B43EA4163C2F8183508
:10489000704700BF001000401FB504460D220021E4
:1048A000684605F09CF80A4B00930A4B5B7CE0B22B
:1048B000013B8DF808008DF809008DF80A30684634
:1048C00001238DF80B30FFF7BBFF04B010BD00BF14
:1048D000000101006C0500201FB50023CDF8093050
:1048E000CDF80130CDF8053003238DF802300623D2
:1048F0008DF800300C4B5B7C013B8DF80A30202397
:104900008DF80830094B1B7A012293428DF80B2059
:1049100007D18DF805206846FFF792FF05B05DF8D6
:1049200004FB042BF5D0F6E76C050020842400205E
:10493000F8B55A4B5A4F5B4D3C785B4E01221A60DA
:104940005A4B5A6A53F822102960002C45D0012C8A
:1049500066D001242B68564D5A78C5F82C255B7813
:10496000012707FA03F3DBB2C5F83035514BDA7C87
:10497000C5F808251433BFF35B8F53E8001F21F0FF
:10498000010143E80012002AF7D1BFF35B8FFFF764
:10499000CFFE494BC5F804650222C3F88021384692
:1049A000FDF7A0FA0022C5F80421D5F80431C5F8B6
:1049B0000821D5F80831C5F81021D5F81031C5F80F
:1049C0000C2110462146D5F80C3100F0F9FD2046A7
:1049D000FFF774FE394B9F61F8BD394B348008787E
:1049E0001B689847296833780A79304662F30103D7
:1049F00000F8023B11F8052B04F0E3FF2C4B40F2CA
:104A00001B12C3F800221022C3F804232D4BFA898D
:104A10001A602D4B2D4A1A602D4B02221A7098E70E
:104A2000CA780023338012B1BC7C84F001040B7976
:104A300091F800C030785B0003F00603002A08BF3D
:104A400043F00103727822F0070213436CF3050070
:104A50003070737011F8052B1E4804F0B2FF144B30
:104A600019491B4A74B140F21B10C3F800021548E3
:104A7000FC89046015480860022111701022C3F8F7
:104A8000042366E740F21310C3F8000212480860DE
:104A9000012111701022C3F804235BE79823002042
:104AA000842400207C240020E229002050240020BF
:104AB000001000406C05002000E100E000400140D3
:104AC0008C2300209C23002090230020494D0000CF
:104AD000042A0020E4290020A94C0000684620F0A8
:104AE00007018D4619B5144BD3F80423D2060BD514
:104AF000D3F8102142B10022C3F81021D3F81031AD
:104B00000E4B1B6803B198470B4CD4F804331B07BA
:104B10000BD5D4F80C3143B1084B1B6803B198474F
:104B20000023C4F80C31D4F80C31FCF783FFBDE846
:104B300019408546704700BF0010004090230020B8
:104B4000684620F007018D4631B5194B82B01B68CD
:104B50000193EFF31181402383F31288BFF36F8F2A
:104B6000144B00221D681A6081F31188BFF36F8F08
:104B7000114C2368ABB1E90703D58DF800206846D6
:104B80009847AA0705D501238DF8003068462368A9
:104B900098476B0705D502238DF8003068462368D7
:104BA0009847FCF747FF02B0BDE8314085467047A3
:104BB00098230020A0230020802400200146C8075D
:104BC00008B506D5314804F0D9FA314B00BAC3F81C
:104BD0001C058A0706D52F4804F0D0FA2C4B00BAE2
:104BE000C3F820054B070AD52B48294904F0C6FA1B
:104BF000C1F82405294804F0C1FAC1F828054FF08E
:104C00008053D3F83021082A3ED1D3F83431052B14
:104C10003AD8234AD35CBBB31C4B224A5B7C052B9E
:104C20001B4BD3F81C15D3F8200518BF4FF07F425B
:104C30004140114228D1D3F82415D3F82825C1F3D7
:104C40000720CBB2834214D0C1F30740834210D077
:104C5000B3EB116F0DD0D1B28B420AD0C2F3072152
:104C60008B4206D0C2F307418B4202D0B3EB126FE6
:104C70000AD1074AD2F8743723F0807323F0010376
:104C800043F08073C2F8743708BD00BF6C05002084
:104C900000100040700500207405002078050020F9
:104CA000159F00000000FFFF10B5FBF73BFA154B06
:104CB000154C1B6801221A6100F06CFCFBF720FA0E
:104CC00000221046114600F0E7FC104A1048136815
:104CD00043F001031360A36A3BB90E4B00221A7024
:104CE0004FF48013C0F8003110BDFFF73FFDA36AF9
:104CF000002BF2D04FF48013C0F80031BDE8104013
:104D0000FFF716BE8405002050240020A0230020B9
:104D100000E100E0042A002008B5FBF703FA074988
:104D20000748FBF7F9F9074B1A68D2F8003223F469
:104D3000806323F00403C2F8003208BD3C05002064
:104D4000389D000084050020002270B51046012126
:104D5000224C234D234E00F09FFC00F01BFCFFF77C
:104D6000DBFF40F21313C4F800321F4B1D481A68D2
:104D700000230D32194604F0C6FAEB7CA989002BFA
:104D80000CBF8122282230468A1A0023012104F018
:104D9000BAFA336840F202220026C3F80022C3F8B0
:104DA0004061D3F84021C3F84461D3F8443100F0A6
:104DB00031FD00F009FDC4F80C612878D4F80C31FD
:104DC00010B90A4B1B689847094BC4F80435094BC6
:104DD000094A1A60094B03221A7070BD0010004086
:104DE0008424002084050020942300208C230020AC
:104DF000C029002090230020654E0000042A0020D6
:104E000038B50A4C0A4D2368D3F844358133EB603A
:104E100000F0A4FB07492846FBF778F920B923687E
:104E200040F20442C3F8002238BD00BF84050020D0
:104E3000540500203C05002008B500F0ABFBFBF753
:104E400071F90320FBF77AF9054B1A68D2F80032A2
:104E500023F4806323F00403C2F8003208BD00BFCE
:104E60008405002070B500F007FDFBF761F9FBF742
:104E700047F94F4B4F4AD3F80C11002943D0D3F8D0
:104E80000034D9073FD54C4C4C4D23684C4E43F071
:104E9000010323601268EB899B1A4A4A01331360AD
:104EA000B36A0BB1FFF762FC2B78B3B1464B1A78AB
:104EB000920612D05978454B3D4A9B6AD2F82C0590
:104EC000072BC1F3410108D800F00700FFF766FC8B
:104ED00018B1236843F004032360B26A3C4B12B15B
:104EE0002A7C012A07D13B4A002111704FF480121D
:104EF000C3F8002170BD4FF48012C3F80021BDE853
:104F00007040FFF715BD1368324E334D591E1160C6
:104F10007BB92A6801211161284AD2890A442949AA
:104F20000A6025490A6842F002020A603370284B81
:104F3000DCE71F4C0023C4F80031D4F8003140F204
:104F40001B13C4F80032254B1A68254B10781B68D8
:104F50009847244BC4F80435234B244A1A60022393
:104F60003370FFF7E5FBFFF74BFF00F0F3FB2B6817
:104F7000D3F84421C2B1D4F85035DBB2092BB9D0F3
:104F8000D4F80041002CB5D1FFF756FF00F01CFC0F
:104F900022460121204600F013FB0120FFF78EFB83
:104FA000134B01229A61A5E701221A60A2E700BF14
:104FB000001000409C230020A02300208424002017
:104FC0005024002098230020C02900202424002001
:104FD00000E100E0042A0020840500207C24002059
:104FE0008C230020E229002090230020494D00005E
:104FF0000040014010B500F0A9FCFFF785FB134805
:1050000001F08EFC00F0CCFC114A1248D2F8503668
:1050100023F00103C2F850360F4B00241C700F4BD5
:1050200021461C70FFF72EFB202204F0D8FC0C4B0D
:1050300001201C605C60FCF763FF1420FCF760FF3C
:10504000BDE810400A20FCF75BBF00BF84050020CC
:1050500000100040C8260020042A0020052A002055
:10506000B8290020F0B5044685B0002800F0C580BE
:10507000634D2B780BB1FFF7BDFF624B62681A607E
:10508000614A234604F11007164618685968144609
:1050900003C40833BB422246F7D1186820605B4B3B
:1050A0005B480024202221461C6004F098FC594BE8
:1050B00059491C605C60FFF7C7FA337883B1012B54
:1050C00001D1564B0B60727A554B012A00F0888053
:1050D000022A07D07AB9C3F83C25C3F8342508E082
:1050E000504BEFE74FF6FF70C3F83C05C3F834258B
:1050F0004D4AC3F838250B68707C9847484B4B499C
:105100004B484FF0E732C3F81C254FF04332C3F849
:105110002025484AC3F82425474AC3F82825FFF725
:10512000B1FA0A4600230133082B40F8042B02F1A0
:105130002502F8D1414A424800230133082B40F8A8
:10514000042B02F12502F8D100223E4B1446013215
:10515000082A19601C719C6001F1250103F10C0300
:10516000F5D120220021384804F039FC374B384A69
:105170003848019301A9CDE9024401F0A1FB364B67
:10518000984235D100F09EFB044698BB00F0DAFB54
:10519000324B23495860D1F85026F37C22F00102AB
:1051A0001343C1F85036012108462246FCF7CAFED7
:1051B000224602211420FCF7C5FE224602210A20C5
:1051C000FCF7C0FE0120FCF78DFE1420FCF78AFEE0
:1051D0000A20FCF787FE224B1C7001232B7009E08C
:1051E000FF20C3F83C05C3F8342540F2071280E7DE
:1051F0006FF00D04204605B0F0BD6FF01504F9E71F
:10520000052A00208024002084240020A0230020E0
:10521000C8260020B82900208C230020D94800008F
:105220000010004099480000211001009028002043
:1052300050240020E743C323A363E313682700201F
:1052400024240020C4230020A423002040420F0077
:10525000A1460000840500200000AD0B3C050020A5
:10526000042A00202DE9F041544B1B78002B00F05C
:105270009980002800F09F8003785A1E1F2A00F2B0
:1052800094804F490A781AB94A7C9A42C0F08D80BE
:105290004C4B9A6A072A00F28B804278072A00F268
:1052A0008A80EFF31185402282F31288BFF36F8F5B
:1052B0004A7822BB1C6A53F82440024600F12406B7
:1052C00052F8047B44F8047BB242F9D11278227080
:1052D00046783D4CA25D013202F00302A2551A6AE3
:1052E000407853F82220205C10711A6A0132082A93
:1052F00028BF00221A629A6A01329A623AE0334C5D
:105300000022A44694F804E0BEF1000F2DD10C2732
:1053100057430CEB070601245CF807703471C6F89C
:1053200008E0044600F1240E54F8048B47F8048B7F
:105330007445F9D124783C7090F801E0224F17F8B9
:105340000E40013404F0030407F80E400C246243BD
:1053500044785CF802203C5D147144781C4850F895
:10536000242092B940F82460C5E70132082A04F1EC
:105370000C04C7D185F31188BFF36F8F4B780A7C7B
:10538000134308D00020BDE8F08110469268002A3F
:10539000FBD18660AFE70F4B1B78002BF2D1FFF7F4
:1053A000C7FAEFE76FF00C00EDE76FF07900EAE77E
:1053B0006FF00B00E7E76FF01500E4E7052A002027
:1053C0008424002050240020B8290020C423002079
:1053D000A4230020042A002038B5254B1B78002B7D
:1053E0003CD000283DD0234CA36A002B3CD0EFF3E7
:1053F0001185402383F31288BFF36F8F636A54F8DB
:1054000023301A780270636A54F823305B78437053
:10541000636A54F8233093F902308370636A54F856
:1054200023301B790371636A54F82330DB78C3702F
:10543000636A54F823100530053104F0C2FA636A38
:105440000133082B28BF00236362A36A013BA362D8
:1054500085F31188BFF36F8F002038BD6FF00C000B
:10546000FBE76FF01500F8E76FF03C00F5E700BFD1
:10547000052A00202424002010B50A4B1B7803F0D5
:10548000FF0443B950B1084B02681A600120FFF7CE
:1054900095FB204610BD6FF00F00FBE76FF0150085
:1054A000F8E700BF042A00206C05002010B50A4B65
:1054B0001B7803F0FF0443B950B1084B02685A60EF
:1054C0000220FFF77BFB204610BD6FF00F00FBE7CB
:1054D0006FF01500F8E700BF042A00206C050020DB
:1054E00038B5104B1B780C4603F0FF059BB9A8B1EB
:1054F000082913D80A4601460B4804F062FA0B4A01
:10550000FF231474C4F10804234104209374FFF7AB
:1055100055FB284638BD6FF00F00FBE76FF0150014
:10552000F8E700BF042A0020740500206C05002065
:105530006428034607D8074A127802F0FF002AB908
:10554000054AD37470476FF0150070476FF00F0075
:10555000704700BF042A00206C050020094B0A494F
:105560001A78D30003F1804303F5F833C3F810151C
:105570000649C3F8141501239340054AC2F80435BF
:10558000704700BF082A00201841014000A00040D9
:1055900000F00140084B09491B7801229A40DB00CA
:1055A00003F1804303F5F833C1F808250022C3F85E
:1055B0001025C3F814257047082A002000F0014088
:1055C000F0B52B4B2B4C1B782B4FDA0014442B4A95
:1055D0000025C2F81851D2F81821294A1578800000
:1055E000EA00C0B202F1804202F5F83200F18040D8
:1055F00000F58050C2F81075C2F81405214A05F56F
:10560000117042F82040204A20481678F20002F13A
:10561000804202F5F8320124C2F8100500F59730F7
:1056200000F58470C2F8140504FA06F604FA05F0D1
:10563000304369B1164A174E1178CA0002F1804210
:1056400002F5F8328C40C2F810752043C2F8146598
:105650009B0003F1804303F5F8330122D3F80018CF
:10566000AA400A43C3F80028064BC3F80405F0BD5E
:10567000062A002004F0014018410140004001408A
:10568000092A002000F00140072A002010110040E4
:10569000082A002000A00040F0B5294B294E1878B8
:1056A000294B1A78012404FA02F304FA00F51D4389
:1056B00000F51177C3004FEAC20C19BB03F1804318
:1056C00003F5F833C6F80855C3F81015C3F81415D8
:1056D00046F827100CF1804303F5F833C3F8101592
:1056E000C3F81415194B1B789B0003F1804303F595
:1056F000F8330121D3F80028814022EA0102C3F8DF
:105700000028F0BD124A127803F1804303F5F83304
:10571000944000212C43C6F80845C3F81015C3F87F
:1057200014150CF1804303F5F83346F82710C3F83D
:105730001015C3F81415D30003F18043CCE700BF64
:10574000092A002000F00140072A0020062A002034
:10575000082A0020154B164916480022C3F81821C4
:10576000D3F81831144B1B78DA0002F1804202F5AD
:10577000F832C2F8101501F5973101F58471C2F8BD
:1057800014150E4A1178CA0002F1804202F5F8326F
:10579000C2F810050A48C2F81405012202FA03F300
:1057A0008A401343074AC2F804357047004001405D
:1057B0001011004044A10040072A00200A2A0020BE
:1057C0000010004000F001400F4B1A780F4B1B787F
:1057D000012101FA02F09940D200DB00014302F1FD
:1057E00080420B4803F1804302F5F83203F5F833A9
:1057F000C0F808150021C2F81015C2F81415C3F836
:105800001015C3F814157047072A00200A2A002033
:1058100000F00140134B14491B781448DA0002F1E0
:10582000804202F5F832C2F8101501F50F410C3133
:10583000C2F814150E4A1178CA0002F1804202F52E
:10584000F832C2F81005A0F511403038C2F814053E
:10585000012202FA03F38A401343064AC2F80435D0
:10586000704700BF0C2A00200411004040A10040F6
:105870000B2A002000F001400F4B1A780F4B1B78C9
:10588000012101FA02F09940D200DB00014302F14C
:1058900080420B4803F1804302F5F83203F5F833F8
:1058A000C0F808150021C2F81015C2F81415C3F885
:1058B0001015C3F8141570470C2A00200B2A00207D
:1058C00000F0014038B5174800F08AFF164B9842A7
:1058D000054622D1154800F083FFA84204461CD19A
:1058E000134800F07DFFA042054616D1114800F094
:1058F00077FFA842044610D10F4800F071FFA04284
:1059000005460AD10D4800F06BFFA842044604D1B9
:105910000B4800F07FFFA04202D06FF0120038BDAC
:105920000020FCE7092A00200000AD0B072A002018
:10593000082A00200C2A00200B2A00200A2A002016
:10594000062A002000487047101100400E4B0F49F6
:105950001B780978012202FA01F102FA03F30B43E2
:105960000B49097802FA01F10B430A49097802FA56
:1059700001F10B43084909788A401343074A43F071
:105980000103C2F808357047092A00200B2A0020BD
:10599000072A0020082A00200C2A002000F00140DD
:1059A00038B5184B187800F021FF174B9842044681
:1059B00027D1164B187800F019FFA042054620D1D8
:1059C000134B187800F012FFA842044619D1114B6E
:1059D000187800F00BFFA042054612D10E4B187844
:1059E00000F004FFA84204460BD10C4B187800F0DD
:1059F000FDFEA04205D10A4B1878BDE8384000F002
:105A00000FBF38BD092A00200000AD0B072A002077
:105A1000082A00200C2A00200B2A00200A2A002035
:105A2000062A00204FF08053D3F83021082A06D1EF
:105A3000D3F83431052B02D8024AD05C70470020DD
:105A4000704700BF219F0000024AD2F80034002BAB
:105A5000FBD0704700E0014010B54FF08053D3F801
:105A60003021082A4ED14FF080420021C2F80C119B
:105A7000C2F81011C2F8381502F54042D3F80414E8
:105A8000C2F82015D3F80814C2F82415D3F80C1462
:105A9000C2F82815D3F81014C2F82C15D3F8141432
:105AA000C2F83015D3F81814C2F83415D3F81C1402
:105AB000C2F84015D3F82014C2F84415D3F82414C2
:105AC000C2F84815D3F82814C2F84C15D3F82C1492
:105AD000C2F85015D3F83014C2F85415D3F8341462
