:1010000080370020C12C0000259E0000AD2C000080
:10101000AD2C0000AD2C0000AD2C00000000000045
:10102000000000000000000000000000752E00001D
:10103000AD2C000000000000412E0000AD2C00008F
:101040002D300000095B00002D3000002D30000025
:101050002D3000002D3000002D3000002D3000001C
:101060002D3000002D300000B97900002D30000037
:101070002D3000002D3000002D3000002D300000FC
:101080002D3000002D3000002D3000002D300000EC
:101090006D5B00002D3000002D3000002D30000071
:1010A0002D3000002D3000002D3000002D300000CC
:1010B0002D3000002D3000002D3000002D300000BC
:1010C0002D3000002D3000002D3000002D300000AC
:1010D0002D3000002D3000002D3000002D3000009C
:1010E0002D3000002D3000002D3000002D3000008C
:1010F0002D3000002D3000002D3000002D3000007C
:10110000014B1B689B68184700000020014B1B68BF
:101110001B69184700000020014B1B685B691847DA
:1011200000000020014B1B689B691847000000204D
:10113000014B1B68DB69184700000020014B1B684E
:101140001B6A184700000020014B1B68DB6A184728
:101150000000002010B4034C2468E468A44610BCCE
:10116000604700BF0000002030B50346114890F9E9
:101170001C209A4219DD90F924209A4217DA9A1A13
:10118000846AA05C0C4A15569D420DD00E3200298F
:1011900018BF01309442C0B206D129B1013BDBB285
:1011A000012B01D80130C0B230BD0D20FCE700207A
:1011B000FAE700BFD80400207CAB000008B5054B5F
:1011C00093F91C30984203DAFFF7CEFF024B1B560F
:1011D000184608BDD80400207CAB000010B51C4C9C
:1011E00094F82C3073B9012384F82C3000F09EF869
:1011F00048B1184BA362D823236284F82430082313
:10120000A361237710BD00F0A7F80028F1D100F00A
:10121000ADF80028EDD100F06BF838B10E4BA362A9
:10122000D823236284F824300423E9E700F06AF825
:101230000028F3D100F070F80028EFD100F080F81A
:101240000028EBD14FF4DF71742000F019F800BFD3
:10125000D8040020B7AB00008AAB0000BFF34F8F6B
:101260000549064BCA6802F4E0621343CB60BFF342
:101270004F8F00BFFDE700BF00ED00E00400FA055E
:101280001FB572B6134B5D688DB9FFF7E7FFB2FB70
:10129000F6F2DCB20133002AF9D104F110036B44F9
:1012A00003F80C2C0A2234B901A8A847EDE702463E
:1012B00000230A26EDE7631E04AEDCB256FA83F380
:1012C000B0FBF2F602FB1600303003F80C0C30468F
:1012D000E9E700BF300900204FF08052034BD2F8FD
:1012E00030111960D2F834215A6070476C0900201F
:1012F000034B1868A0F10F0358425841704700BFD4
:101300006C090020034B1868A0F10A0358425841A9
:10131000704700BF6C090020034B1868A0F10E0352
:1013200058425841704700BF6C090020034B1868B1
:10133000A0F1100358425841704700BF6C090020CB
:10134000044B1868062803D0431C58425841704784
:10135000012070476C090020034B1868A0F10D03B1
:1013600058425841704700BF6C090020034B186871
:10137000A0F1080358425841704700BF6C09002093
:1013800053B94AB9002908BF00281CBF4FF0FF31EC
:101390004FF0FF3000F00CB8ADF1080C6DE904CE51
:1013A00000F05FF8DDF804E0DDE9022304B07047E7
:1013B000704700BF08B5FFF78FFFBDE80840FFF793
:1013C0000DBF801A00F3070038B540B20D4659B280
:1013D0001446FFF7F3FE0023287020446B7040B2E0
:1013E00038BD0023036070477047002070474FF0FE
:1013F000FF3070474FF0FF30704770470020704754
:101400004FF0FF30704700207047002070470023E6
:10141000037070470022FFF7D4BF002070474FF0E1
:10142000FF3070474FF0FF3070474FF0FF3070478C
:10143000704700280CBF6FF0150000207047002097
:10144000704707230370002070470020704700207A
:101450007047034613F8012B002AFBD1181A0138F4
:1014600070472DE9F04786468C460846089E15468B
:1014700074461946002B40F0C2808542B2FA82F2CF
:1014800045D94AB1C2F1200300FA02FC2EFA03F357
:10149000954043EA0C0C94404FEA154EA8B2BCFBB1
:1014A000FEF8230C0EFB18CC08FB00F943EA0C43B2
:1014B000994528D9EB1808F1FF3704D2994502D98C
:1014C000A8F102072B44A3EB0903A4B2B3FBFEFC73
:1014D0000EFB1C330CFB00F044EA0344A04214D979
:1014E0002C190CF1FF3304D2A04202D9ACF1020353
:1014F0002C44241A43EA07401EB1D4400023346030
:101500007360BDE8F0874746DDE76346F1E792BBCD
:10151000431B01214FEA154EAFB2B3FBFEFC200C7A
:101520000EFB1C330CFB07F840EA0343984562D9D5
:10153000EB180CF1FF3004D2984502D9ACF102004F
:101540002B44A3EB0803A4B2B3FBFEFC0EFB1C333D
:101550000CFB07F744EA0344A7424ED92C190CF1BF
:10156000FF3304D2A74202D9ACF102032C44E41B9E
:1015700043EA0040C0E7C2F1200320FA03F195409E
:1015800090402EFA03F303434FEA154EAFB2B1FB7E
:10159000FEFC0EFB1C10190C0CFB07F841EA004185
:1015A000884504FA02F422D969180CF1FF3004D2FC
:1015B000884502D9ACF102002944A1EB08019BB295
:1015C000B1FBFEFC0EFB1C110CFB07F743EA0143C9
:1015D0009F420ED9EB180CF1FF3104D29F4202D981
:1015E000ACF102012B44DB1B41EA004192E760466B
:1015F000E3E76146F7E76046A3E76346B7E7834260
:1016000006D916B9002108467BE7C6E900E0F9E7EC
:10161000B3FA83F78FB9834201D3724508D8BEEB82
:10162000020460EB030301209C461EB9002168E719
:101630003846FAE7C6E9004CF8E7C7F1200CBB4092
:1016400022FA0CF41C432EFA0CF120FA0CF3B840E9
:1016500001434FEA14490EFA07F5B3FBF9F81FFAF4
:1016600084FE09FB18300B0C08FB0EFA43EA00431A
:101670009A4502FA07F240D9E31808F1FF3004D284
:101680009A4502D9A8F102002344A3EB0A0389B2C8
:10169000B3FBF9F809FB183308FB0EFE41EA0341DE
:1016A0008E452CD9611808F1FF3304D28E4502D93A
:1016B000A8F10203214443EA0040A0FB0298A1EBF9
:1016C0000E014145CE46434602D306D14D4504D2D4
:1016D000B9EB020E68EB04030138002EA6D0B5EB7F
:1016E0000E0261EB030101FA0CFC22FA07F34CEA4B
:1016F0000303F940C6E9003198E74046C5E7434691
:10170000D9E70000014B9970704700BF0304002027
:1017100010B504781346E20618D1240642780BD49B
:101720005B2A13D1C28819680A48402A28BF402280
:1017300009F03AF9002010BD5C2A07D1054A1A6069
:10174000C388402B28BF40230B60F3E76FF0850070
:10175000F1E700BF4F220020037813B1022B04D021
:101760007047034B01221A707047024804F04ABECA
:101770004E2200202922002013B582790B2A03462D
:101780000FD00C2A1CD0012A09D14FF480730422F7
:1017900001930DEB02010023822008F01EFB02B032
:1017A00010BD0F480246062102F8051B1968C0F853
:1017B00005109B88938002B0BDE8104004F068BD1E
:1017C000084C094923780B7001220023822008F07D
:1017D00004FB2378002BE2D000232370DFE700BF57
:1017E000292200204E2200202822002013B50022AA
:1017F0001146044601AB08F008FB0023019A064994
:10180000204608F002FB019B072B02D80248FFF795
:10181000B3FF02B010BD00BF4F22002030B5154A03
:10182000154B164D8BB0CDE90123154A1068516850
:1018300003AB03C31C460FCD0FC42B682360114BB1
:10184000069305A801238DF8263004F021FC78B911
:1018500001A804F027FE58B902A804F03DFE38B9EB
:10186000082103A804F052FE10B9282004F076FEE7
:101870000BB030BD3344BB01DEF0122360AB00007F
:10188000D0AD000059170000014B1B68184700BF7E
:101890005800002030B585B004460D4610220021C6
:1018A000684609F08FF802238DF802302A46044B6F
:1018B00001932146684607F00DFC05B030BD00BF1E
:1018C0008918000080B505460E461746984606F072
:1018D000E7FF034609F0E2F8DFF81890044649F8FC
:1018E0000030424630463946A84754F8090001F016
:1018F00055FA00BF080000002DE9F047058B0446AB
:101900002807904611D4022905F0070540F0CC8045
:10191000204608F03DF978B10138218B042811D810
:10192000DFE800F0C2106D85950001290CBF45F07D
:10193000100545F02005258388F31188BFF36F8FCC
:10194000BDE8F08701F0070AAA4500F0A58000274E
:10195000B9463E46A368002B00F0BC8041F0080168
:10196000218388F31188BFF36F8FA168002900F0ED
:10197000BA800D68002900F0B680D1F804803346A3
:1019800052462046C047002D76D02B6829461D467A
:10199000F0E701F007035A1F012A1BD8002221F0AB
:1019A0000701062B276889B2C4E9002209D13B460A
:1019B00003E0628B013262831B68002BF9D141F096
:1019C00002012183204608F0E3F800287AD041F094
:1019D000200176E0042B0AD121F0070189B221838E
:1019E000204608F0D5F810B141F020012183218B69
:1019F00001F0070AAA454FD00027B946AAE7236994
:101A000021F0070141F00601062DD3F80090218353
:101A10002DD1B9F1000F3FD041F00801218388F3A7
:101A20001188BFF36F8F3A492046C84729E021F05B
:101A30000701236941F0040189B2042DD3F8049011
:101A40002183E6D000273E464FF0040A82E721F0CA
:101A50000701236941F0050189B2052DD3F80890EB
:101A60002183D6D000273E464FF0050A72E70027B3
:101A70003E464FF0060A6DE72B4687E7B9F1000FA7
:101A8000D1D1EFF31188402383F31288BFF36F8F16
:101A9000238B23F008032383258BEA062ED525F01C
:101AA0001003238305F007056669218B002EBFF61E
:101AB00070AF00232768C4E9003321F0070141F02B
:101AC00001012183218B01F0070AAA454FF000098B
:101AD0007FF440AF002F9CD041F00801218388F3B0
:101AE0001188BFF36F8F002FC8D03D683946334649
:101AF0005246204608F078F82F46F4E7AB067FF50B
:101B00001BAF25F02003238305F0070500E700BF86
:101B1000159C0000014B03600020704718AC0000CA
:101B2000F0B40C4B0C4E5F6A0C4BB34203D36FF016
:101B30008500F0BC70475D68BD4209D31C693CB1AB
:101B400095F802C00579AC4502D12346F0BC184790
:101B50002433EAE7B00C0020D4040020B0040020B5
:101B60002DE9F047134CDFF85080DFF85090054620
:101B70000E461746444503D36FF08500BDE8F08755
:101B80006268D9F824309A4212D3A36983B190785D
:101B90002979884205D13A4631462846BDE8F047C2
:101BA00018475279012A03D13A46314628469847C8
:101BB0002434DFE7B0040020D4040020B00C00205F
:101BC0002DE9F0410B4CDFF8308005460E461746F4
:101BD000444502D36FF0850009E063690BB92434F2
:101BE000F6E73A463146284698470028F7D1BDE83F
:101BF000F08100BFB0040020D404002010B50446DA
:101C000008F07AF910F1780F00D050B9054A204653
:101C100008F0D5F8D2F8C43023EA0003C2F8C43083
:101C2000002010BDB00C0020024B00221A605A6048
:101C3000704700BF6B0D002070B50B4B0B4CA342DF
:101C400001D3002070BD196A1E7F00220439D5B26D
:101C5000AE4201D82433F2E7013211F83250854206
:101C6000F5D10120EEE700BFB0040020D40400202D
:101C700008B509480378C3F341130A3350F82330F9
:101C80003BB100F1080200F110019847C043C00FBA
:101C900008BD1846FCE700BFB00C002004282DE961
:101CA000F14FDFF8989004460F4616D001282DD149
:101CB000DFF88C8098F8B93043B300F039FD214D3E
:101CC0004D4520D2D5F820B04FF0000A2B7F5FFAA7
:101CD0008AF6B34204D82435F2E7FFF7A5FFE7E719
:101CE0000BEBC6060AF1010A307908F005F9024645
:101CF000307908F064F8D8F8C430002A23EA0003E9
:101D0000C8F8C430E2DA002388F8B9300D4D4D45EB
:101D100008D30B4B1B6A6BB13946204601B0BDE8B6
:101D2000F04F1847EB681BB13A46214628469847C2
:101D30002435ECE701B0BDE8F08F00BFD4040020EB
:101D4000B00C0020B004002073B5C4B263060D4689
:101D50008DF8074007D02046FFF76EFF78B10D4B96
:101D600093F8BA0058B10B4E204655B101F018FF58
:101D7000F3691BB10DF1070108209847012002B05B
:101D800070BD01F035FFF369002BF7D00DF10701AD
:101D90000920F2E7B00C002073B586788DF800605A
:101DA000037942791C4C43EA0223ADF80230C37830
:101DB000304603F003038DF8043008F000F8D4F83F
:101DC000C430184205460BD0304600F093FC304634
:101DD000FFF714FF08F0FEFB10B9962006F042FD55
:101DE000684601F0B9FE10F1780F03D010B1002061
:101DF00002B070BD9DF8000001F036FF10F1780FC1
:101E000001D00028F3D1D4F8C43001202B4384F84A
:101E1000B900C4F8C430EBE7B00C00202DE9F0475E
:101E2000924DAB6904460E461746C3B9207800F0C0
:101E30001F00012876D0022800F0DC8000BB94F956
:101E400000103A68637800292EDA062B0CD0082B94
:101E500025D0ABB9537001231370022303E19847D7
:101E60000028E3D100200DE06388190A0A1F012A27
:101E70008C4605D9072903D8DAB26B6A1C781CB9DD
:101E80006FF01500BDE8F0875D78654503D18242AB
:101E900000F0E48001302344F0E71B78E3E095F89C
:101EA000BA3013700123DEE0052B11D0092BE7D1E6
:101EB00063886E6A002B32D1FFF7B6FE638885F81F
:101EC000BA30EB69002BCDD0694903209847C9E7A8
:101ED000A07801F02FFE0028C4D0D1E77378042B3E
:101EE00010D0052B11D0022B04D177796388BB4227
:101EF00008BF012033781E443378002BEED1002830
:101F0000BED0D9E796F80380F4E76388BB42F1D1ED
:101F1000B8F1000FEED13046FFF73EFFEAE7FF27AA
:101F2000B846E9E795F8BA30D7F800C0002BA7D03B
:101F30006F6AA28894F804E03B46187800289FD086
:101F40005978022904D193F80480F04500F2928078
:101F50000344F2E78CF800308CF80130316081E7FF
:101F60001F4493E00B2B8BD100264FF0FF08C14696
:101F7000B24606E07B78042B0FD0052B21D03B78AE
:101F80001F443B78002BF5D1EB6913B15146072074
:101F90009847002E7FF466AF72E797F80280A38817
:101FA00097F803909845EAD163889945E7D1B8F14D
:101FB000070F1CD805EB0803BA4683F8BB9001262F
:101FC000DDE7A3884345DAD1A3784B450AD0BE7834
:101FD000304600F08FFB3046FFF710FEB0FA80F677
:101FE0007609CCE73846FFF7D7FE0646C7E7BA467C
:101FF0000026C4E794F900206378002A18DA002B41
:102000007FF43EAF24793F6863060AD02046FFF78D
:1020100013FE00283FF434AF95F8BA30002B3FF49C
:102020002FAF3946204601F003FE00237B7014E7F2
:10203000012B08D0032B7FF423AF6388002B7FF4A0
:102040001FAF012103E0618800297FF419AFA08848
:10205000FFF77AFE00287FF405AF11E702293B6005
:102060007FF41BAF5B883360FCE600BFB00C002040
:102070006A0D002094F9000063780028BFF672AF63
:10208000002B3FF467AF0A2B7FF4FAAE3B78002BAE
:102090003FF4F6AE797804297FF462AFB9788A42CA
:1020A0007FF45EAF072A96BF5219002392F8BB3027
:1020B0008CF80030F6E600BF13B5164C237DF3B95B
:1020C000E268A168019201AB802007F086FE019AC8
:1020D000A3681344A360E3689B1AE3606BB962B121
:1020E0002369E2889A4208DD94F8C82093FBF2F154
:1020F00002FB11330BB90123237502B010BD00237D
:102100001A4619468020237502B0BDE8104001F040
:10211000D5BD00BFB00C002030B585B0002302460D
:102120000D460193002858D1002935D108220B46CD
:102130000DEB020107F0F9FE002804DA802001F01F
:102140002FFD05B030BD2A4C029A2260039A6260CE
:1021500004F13802A2609DF90820BDF80E30257503
:10216000002AC4E903550ADB802B04D9802001F042
:1021700017FD0020E3E713B1C4E90333E1E7FFF7FC
:1021800077FD0028DAD0E28823699A42D4BFE26062
:10219000E360FFF791FFD4E7154CD4E90215002D59
:1021A00001AB04DC07F0C1FE0028CADAC6E72A4604
:1021B00007F0BBFE0028D9DB019AA3681344A36093
:1021C000E3689B1AE360002BBBD104F13803A360E2
:1021D000FFF74EFD0028DCD1B0E78028B1D1044BD9
:1021E000DA68002AD5D11B7D002BD2D1A9E700BF28
:1021F000B00C0020054B064A9A62064ADA62064A8B
:102200001A63064A58629A6100207047B00C002099
:102210001D1E0000211B0000C11B0000611B0000EF
:102220002DE9F3410446474D47484FF0FF334FF047
:10223000FF3205F079FD95F8B830002B7BD16B6A41
:1022400083B142482C62E8616E6A01F051FE01F0F0
:102250003FFC041E10DA3C4805F0DEFD204602B0CB
:10226000BDE8F08100F0BEF8FFF7C4FF6B6A002BF9
:10227000E7D14FF0FF34EEE700F07CFA041EEADB12
:102280007378012B5AD1F379002B57D0002668467A
:1022900085F8C830ADF802308DF804608DF8006024
:1022A00001F05AFC041ED6DB802768468DF80070CA
:1022B00001F052FC041ECEDB2549304601F004FE3D
:1022C000041EC8DB2249384601F0FEFD041EC2DBB5
:1022D000204CDFF8848044451AD3002001F0C4FC70
:1022E000041EB8DBD5F8C430802043F00103C5F8E4
:1022F000C43001F0B9FC041EADDBD5F8C43043F4A2
:102300008033C5F8C430012385F8B8300024A2E733
:10231000276A0026227FF3B29A4201D82434DAE7F2
:1023200007EBC30257F83310107901F0CDFD0136E9
:102330000028EFD09DE76FF077048CE76FF015046D
:1023400089E700BFB00C0020B40300209D1C0000F2
:1023500019210000B0040020D404002030B51F4B28
:102360008BB005AA03F1100518685968144603C418
:102370000833AB422246F7D11B782370102200218C
:1023800001A808F01FFB12220021154808F01AFBD3
:10239000102101A807F0CCFE00281BDD0828B8BFDB
:1023A0000820093801AB0E491A18002012F8013F25
:1023B0000AAC04EB131403F00F0328336B44013011
:1023C00014F8144C13F8143C0C7008284B7001F1ED
:1023D0000201EBD102480BB030BD00BFD9AD000007
:1023E000902200202DE9F04F724B93F800B087B097
:1023F000BBF1000F03D0704807B0BDE8F08F6E4C02
:1024000000264FF0011AB0463546B14623783BB955
:102410006A4B02349C42F3D1664A01231370EAE707
:102420006378052B1BD8DFE803F08E03C38E1D39BC
:10243000402304A88DF810B0ADF812308DF814B018
:1024400007F045FD40B1082304A8ADF8123007F0AD
:102450003EFD08B1ADF812B0BDF81230E37123783B
:102460001C44D3E7E378002BF9D1A3786BB108F1D2
:1024700001085FFA88F8F2E76B689C4207D02435C0
:102480004F4B9D42F8D30020B6E74E4DF8E7AB68BE
:10249000002BECD0414620469847E8E7002DF2D0CB
:1024A00000222B7F9A42EED2296AA07801EBC2016A
:1024B0000B79984201D00132F3E70127E07800F070
:1024C00003008DF81400207994F805C040EA0C2030
:1024D000ADF8120094F902000028FBB228DA07F1E7
:1024E00010004FF0010C0CFA00F010EA0A0F26D190
:1024F00043F080008DF8100004A8CDE9021301928A
:1025000007F0E5FCDDE90121039BC0B99DF810202F
:10251000A27012F0800F18BF10330A7118BFDBB21F
:102520004FF0010214BF9A40BA404AEA020A96E705
:102530000120B84010EA0A0F01D11846DAE7013746
:10254000102FBBD1B7E7032E1AD1FFF707FF0746BD
:1025500050B1FEF77EFF024630B11028A8BF10220E
:102560003946A01C08F020FA23786FF00201E21827
:10257000091B04EB5303D14213D50136F6B26EE7C3
:10258000002EF1D1B9F1000F3FF47DAFA4EB0903A8
:1025900089F80230C3F3072389F8033089F80480EF
:1025A000EBE702F801BC13F8010902F8020DE2E7BB
:1025B000A14654E78F220020E8030020AD0400204C
:1025C000D4040020B004002010B5094B00211A46A5
:1025D0001C78844204D15C6814B102EB811010BDF8
:1025E0000131042903F14003F2D10020F7E700BFD5
:1025F0007C0D00202DE9F34150F8283C10F82C6C9C
:10260000103304460AD1036950F8202C980736D5B8
:10261000D2B9590715D5002344F8283C54F8283C72
:1026200010330BD054E9077554F8148C07F0D2FF1F
:1026300000284FD02E48214607F0BCFF02B0BDE86D
:10264000F08143F00403236154F8241C01AB3046AD
:1026500007F0C3FB10B16FF01503DDE7019A54F8E2
:10266000243C134444F8243C54F8203C9B1A44F87E
:10267000203C54F81C3C134444F81C3CCEE754F86E
:10268000241C01AB304601F095FB0028E3D1019DED
:1026900054F8243C2B4444F8243C54F8203C5B1B65
:1026A00044F8203C54F81C3C2B4444F81C3C002DBE
:1026B000B1D0304601F022FCB5FBF0F303FB10551E
:1026C000002DA8D154F8203C002BA4D0304601F0B6
:1026D000B9FBA3E744F8180CA4F1100005F00AFCBC
:1026E000002DABD0424639463046A847A6E700BF8A
:1026F000700B002010B5EFF31184402383F3128890
:10270000BFF36F8FFFF760FF50B14368103307D1FD
:102710006FF08B03436000F12C01044807F04AFF7F
:1027200084F31188BFF36F8F10BD00BF700B0020C2
:10273000F8B50E4C04254027EFF3118687F3128875
:10274000BFF36F8F6368103307D16FF08B030848B6
:10275000636004F12C0107F02DFF86F31188BFF3AD
:102760006F8F013D04F14004E6D1F8BD7C0D0020DF
:10277000700B002070B50A4C0A4E002531462046E9
:1027800007F0FCFE0122A4F110001146013507F00C
:10279000D7FE042D04F14004F0D1002070BD00BF2D
:1027A000A80D0020F525000008B5044807F0C8F979
:1027B000BDE80840024807F0C3B900BFEAAD000019
:1027C0001FAE0000014806F0DDBA00BF18AC0000E3
:1027D00038B5044618B90F4B0F485B6898476168D5
:1027E000B1F5683F10D0B1F5680F0DD00B4DA9427F
:1027F0000AD011F46861206807D00146084807F044
:10280000E8FD00232360656038BD142208F0DAF883
:10281000F9E700BF600100204DAE00002C5F5CA90D
:102820007C13002008B520B34368B3F5683F10D18E
:1028300001220368BFF35B8F53E8001F002903D117
:1028400043E800200028F7D1BFF35B8F0DD10020B3
:1028500008BD094A93420AD000684FF0FF324FF09A
:10286000FF3305F061FA0028F1D00448F0E704488E
:10287000EEE76FF4E040EBE72C5F5CA9E98FFFFF28
:10288000EA8FFFFF08B5D8B14368B3F5683F10D1B0
:1028900000220368BFF35B8F53E8001F012903D1B7
:1028A00043E800200028F7D1BFF35B8F0BD1002055
:1028B00008BD074A934208D0006805F0ADFAF6E774
:1028C0006FF4E040F4E70348F2E70348F0E700BFA5
:1028D0002C5F5CA9E98FFFFFEA8FFFFF10B504466C
:1028E00018B91D4B1D485B6898476368B3F5683F8E
:1028F0002FD0B3F5680F2CD0194A934219D1236811
:1029000003BB18484FF0FF324FF0FF33214605F06C
:10291000DDF908B923681BB90F4B13485B6898476A
:1029200020681422002108F04DF84FF468636360BA
:1029300008E0B3F5683F0DD83A2B03D040F6BA62F1
:102940009342DED1206807F07CFD636843F03A03D0
:10295000636010BD054AF3E7600100204DAE000042
:102960002C5F5CA97C13002073AE00003A00003A93
:1029700008B5064906484023142207F01CFDBDE8AF
:1029800008400449044806F06FBA00BF7C0E0020DE
:102990007C13002020AC000034AC000030BFFFF7F7
:1029A000FDBF00BF2DE9F0410B4EDFF8308006EB94
:1029B0000807CC1B054632460949204607F0F4FFBC
:1029C000A01942460021083C07F0FCFF2C6707F1E4
:1029D0000800BDE8F08100BF000000000400000016
:1029E0005CAB0000074A936893F90E10002907DBDF
:1029F000526993421FBF044A536843F080535360A7
:102A0000704700BFF81F002000ED00E070B5264BB6
:102A100015469A6A12F0100F9A6A14BF11241024F6
:102A200012F0080F9A6A18BF1224920706460AD5B8
:102A3000586B9A6A140634D519B19A6A22F080024A
:102A40009A62132401E06FF01500174B9A6A12F096
:102A5000010F9A6A18BF142412F0200F9A6A18BF47
:102A60001524D20602D49B6A9B070AD50E4B5B68DD
:102A7000190506D5314600F08FFA10B180F30988A8
:102A80000224094B9A6A920642BF5A6A22F4005203
:102A90005A629A6A42F0FF029A6200232B70204623
:102AA00070BD6FF01500CCE700ED00E0134B9A6AA3
:102AB00012F0007F9A6A14BF1E201D2012F0807F42
:102AC0009A6A18BF1F2012F4002F9A6A18BF21209B
:102AD00012F4802F9A6A18BF222012F4003F9A6ADB
:102AE00018BF232012F4803F9A6A6FEA02426FEA0D
:102AF00012429A6218BF2420704700BF00ED00E028
:102B000010B5194B0246986A9C6A10F4805F14BF96
:102B10001720162014F4006F9C6A18BF1820A40513
:102B200009D5986B986A000404D51AB19A6A22F400
:102B300000429A6219200C4B9A6A12F4806F9A6ACA
:102B400018BF1A20D2050CD49B6A13F4005F18BF7B
:102B50001C20054A936A43F47F43936200230B7061
:102B600010BD1B20F5E700BF00ED00E0F0B5484BBD
:102B70005B688BB00446C3F30803002585F3118816
:102B8000BFF36F8F02F07F40B0F17F4F11D102F0A1
:102B90000C0008280DD010074CBF0C460125002260
:102BA000033B8DF80720032B05D8DFE803F02463EF
:102BB00067602C46F3E700239DF80720CAB902AEF0
:102BC00004F1200720686168324603C20834BC4221
:102BD0001646F7D1099A002D54D0C2F3080121B945
:102BE0006FEA52226FEA4222099202A9184607F0C0
:102BF0000FF90BB0F0BD264BDA6A9107DBD4DA6A25
:102C0000002AD8DBDA6A5200D5D55A69A16942F4A4
:102C100080725A61BFF34F8FBFF36F8F5A6931F8DB
:102C2000021C22F480725A61BFF34F8FBFF36F8F83
:102C30004DF6027291420AD09A6AD2B24AB10DF1AF
:102C4000070201212046FFF7E1FE0346B4E72368AF
:102C5000B2E79A6A12F47F4F05D00DF10701012007
:102C6000FFF74EFFF1E79B6AB3F5803FA3D3FFF771
:102C70001DFFEAE70DF107020021E3E70DF107016F
:102C80000020EDE722F4FF7222F00102ACE700BF62
:102C900000ED00E0044B5A6942F010025A615A6993
:102CA00022F008025A61704700ED00E0EFF308805F
:102CB000EFF3098101B57246FFF758FF01BD00BF70
:102CC000002080F31488BFF36F8F03F0EDFE002027
:102CD0000D490860BFF34F8F0C4880F3088800F05F
:102CE0002BF8402080F3118809484FF40461401804
:102CF00080F30988EFF314800221084380F31488DD
:102D0000BFF36F8F00F010F994ED00E080370020E2
:102D1000C02900200749D1F890200023C2F30722E0
:102D20001846934200DB7047C1F89830C1F8A00004
:102D30000133F6E700ED00E008B572B6002383F337
:102D40001388FFF7E7FF144B4FF0FF32C3F88020E2
:102D5000C3F88420C3F88820C3F88C20C3F89020DF
:102D6000C3F89420C3F89820C3F89C20C3F88021AE
:102D7000C3F88421C3F88821C3F88C21C3F89021BB
:102D8000C3F89421C3F89821C3F89C2162B6BFF31D
:102D90004F8FBFF36F8F08BD00E100E0084B9B68C9
:102DA00083420BD1EFF3058343B1064B5A6842F0DF
:102DB00080525A605A6A22F400425A6207F0E5BC17
:102DC000F81F002000ED00E0094A93686FF00A0147
:102DD0009967084958674B6843F080534B6000235C
:102DE00083F31188BFF36F8F9368986F704700BFAC
:102DF000F81F002000ED00E010B50446EFF311834A
:102E0000402383F31288BFF36F8F0A4B5869986091
:102E1000094B4FF000625A60084B026F1A600022A3
:102E2000436F426783F31188BFF36F8F00F01CF983
:102E3000204610BDF81F002000ED00E09813002090
:102E40000B498A684FF030001044EFF3098C80E89A
:102E5000F01F74467046FFF7CFFFA64604498A6804
:102E600002F1300090E8F01F8CF3098870470000F1
:102E7000F81F00201EF0040F0CBFEFF30880EFF3E3
:102E80000980816911F8021C0229FFD001B506F002
:102E9000C5FF01BD40B2002807DB044A41090123F8
:102EA00000F01F00834042F82130704700E100E04D
:102EB00040B200280CDB4309064900F01F00203314
:102EC0000122824041F82320BFF34F8FBFF36F8F61
:102ED000704700BF00E100E0054B420900F01F0011
:102EE00053F82220012303FA00F01040704700BF7E
:102EF00000E100E040B2D30754BF023100210028B6
:102F0000ACBF00F16040074A4FEA4113ACBF00F587
:102F1000614000F00F00DBB2B4BF135480F80033FF
:102F2000704700BF14ED00E00B4A08B50B4B22F0D0
:102F30007F029A60BFF34F8FBFF36F8FD3F8882063
:102F400022F47002C3F8882004F0FCFD05F046FD71
:102F500000F060F804F03AFE0010000000ED00E020
:102F600042F8203C009B42F81C3C0A49019B42F875
:102F7000183C029B42F8143C21F001014FF0807391
:102F800042F8043C42F8081C0023203A02654367DB
:102F9000704700BFC5180000094A0346906870B129
:102FA00013F1160F006E05D0A0F140029A4205D829
:102FB000834203D2814228BF00207047002070471F
:102FC000F81F002008B515460B4A0C4B9060026FA5
:102FD0001A600E4600F048F82C4686F309884FF038
:102FE0000000074B984720464FF000014FF00002C9
:102FF0004FF00003034C2047F81F002098130020D7
:103000003B9E0000C5180000014B10221A6170475A
:1030100000ED00E0044800234021C2180133302BAA
:1030200082F80013F9D1704700E100E008B5EFF332
:103030000583064A103B02EBC30152F8330049688E
:103040008847BDE80840FFF7CDBC00BFC0010020A5
:10305000024B034A0348012100F076B80000042027
:103060000000002044AC0000026E054B403A1A609C
:10307000044A4021C3E901121846012100F06EB84C
:103080009C13002000000B15084AC2F898000B683A
:1030900023F01F03034343F01003C2F89C308B68F6
:1030A00043F00103C2F8A030704700BF00ED00E01C
:1030B0002DE9F043DFF8608085B00E461F460446D8
:1030C0004FF00009B14523DA6068D8B13FB1411E25
:1030D00008421BD11F2819D92368194216D1236829
:1030E000019306F0CDFEA36803430393D8F89050F4
:1030F000C5F30725D0B2013DA84207D801A9FFF7C3
:10310000C3FF421C09F101090C34DBE76FF0150223
:10311000104605B0BDE8F08300ED00E0044B052249
:10312000C3F89420BFF34F8FBFF36F8F704700BF7A
:1031300000ED00E0BFF35F8F024B0022C3F8942044
:10314000704700BF00ED00E010B5034C012322786A
:10315000FFF7AEFF207010BDA222002008B50B4A79
:1031600000231278FFF7A4FF10F1160F07D0084ACA
:103170000021D2F89030C3F30723984200DB08BD4A
:10318000C2F89800C2F8A0100130F2E7A222002095
:1031900000ED00E02DE9F043534B544CD3F8903050
:1031A0002568C3F307239D4285B000F29A80FFF79C
:1031B000C1FF00200C2685421AD14D4C4D4F257081
:1031C0006846FEF7A7FCDFF82081DFF82C91064661
:1031D0000025AE4213D1237843490020D1F8902036
:1031E000C2F30722934276DBFFF798FF002042E00C
:1031F000616806FB0011FFF747FF0130DBE700982D
:1032000000EB05114FEA051CCB683B40B3F5000FFE
:1032100048D00AD8B3F5001F30D0B3F5800F36D0B0
:10322000B3F5801F10D00135D3E7B3F1807F42D0D2
:10323000B3F1007FF7D150F80C3088684A6806F087
:103240001FFE40F4802009E050F80C3088684A687E
:1032500006F016FE40F0885040F43020CDE90123FE
:103260000390D8F890302078C3F30723013B9842AD
:103270002AD96FF0150005B0BDE8F08350F80C3086
:1032800088684A6806F0FCFD40EA0900E6E750F865
:103290000C3088684A6806F0F3FD40F0E06040F4C6
:1032A0000030DBE750F80C3088684A6806F0E8FD2B
:1032B00040F08270D2E750F80C3088684A6806F017
:1032C000DFFD40F08870C9E701A9FFF7DDFE237834
:1032D00001332370A7E7C1F89830C1F8A00001338B
:1032E0007CE74FF0FF30C6E700ED00E050AC000097
:1032F000A22200200000F0FF0000081108B50649D6
:10330000064821F00701C1F1005202F5802206F0C3
:10331000BDFB002008BD00BF873E0020A813002091
:103320000E4A0123C2F840354FF080424FF08051E1
:10333000C2F87835D1F83001082808D1D1F8341115
:10334000052904D80648415C09B1C2F838364FF067
:1033500080430122C3F880250020704700E001402F
:10336000AFAE000020B1034B800143F001031847CA
:10337000704700BF10AC00004FF08043D3F84036D8
:10338000DB072ED54FF01023D3F8043303F00703E7
:10339000072B26D1144A0123C2F80435D2F8003491
:1033A000002BFBD04FF01021D1F8043323F007039A
:1033B00043F00403C1F804330023C2F804350A4A79
:1033C000D2F80034002BFBD0BFF34F8F0749084BD6
:1033D000CA6802F4E0621343CB60BFF34F8F00BFB3
:1033E000FDE70020704700BF00E0014000ED00E075
:1033F0000400FA05020600F07F0312D5082B05D160
:10340000010700F00F0306D50E48704710F0780F43
:1034100012D100F00F034C2000EB43100A4B18446C
:103420007047082B05D1020700F00F0306D50748A7
:10343000704710F0780FF6D000207047044800EB7A
:103440004310704700150020B41300202016002000
:10345000201500200149024807F0ACB8DC13002019
:10346000B00900200146014807F05FB8D8030020EA
:1034700002480022002304F00BBD00BFD803002047
:1034800013B5124800F0C4FE114B98421AD11148EE
:1034900004F034F90024104804F076F90F4910487C
:1034A00000944FF0FF334FF4806204F083FE0D4927
:1034B0000B4807F095F80C480C4907F05FF82046D8
:1034C00002B010BD6FF00400FAE700BFD53600006F
:1034D0000000AD0BC3AE000070AC000080250020E2
:1034E000B0090020B5AE0000DC130020F137000069
:1034F00010B50E49BFF35B8F002351E8002F012A5E
:1035000003D141E800300028F7D1BFF35B8F0CD125
:1035100051F8044C1439204606F017FC783004D1D9
:103520002046BDE8104006F0ECBB10BDD4130020CF
:1035300038B5002464F07F00C0B2FFF75BFF0134B0
:1035400006F0AEFC082CF5D10E4D0024E0B2FFF7DA
:1035500051FF036903B90561013406F0A1FC082C91
:1035600005F14005F2D1084806F09AFC074BD3F864
:103570007C2212B9064AC3F87C22064806F090FC69
:10358000002038BD441A002000150020B41300208C
:10359000441600202016002010B5054CFFF768FFE8
:1035A00020B14168204606F014FFF7E710BD00BFC8
:1035B0004803002007B500230E48002201A904F0AB
:1035C00085FB90B1FFF7E8FF0A480022002301A91C
:1035D00004F07CFB38B90198042340600374FFF7C2
:1035E00041FFFFF737FF002001E00198406003B082
:1035F0005DF804FB48030020022810B511D8094BE0
:103600001C5CFFF7D7FF60B1002202740472FFF761
:1036100029FF054B93F824301BB1BDE81040FFF79C
:1036200019BF10BDC0AE0000B4130020F8B58778F4
:1036300006463846FFF7DEFE3B06F578044612D50F
:10364000002D43D1FFF7B6FF034600283ED00122EC
:10365000A5770274032202739C60FFF703FFBDE8A5
:10366000F840FFF7F7BE4DB1012D2FD1FFF7A2FFB4
:10367000034658B3657705740573EDE7FFF79AFFC6
:1036800020B3B278124B12F0800F02F0080111D073
:1036900041B1D3F8A836E360012303740223037316
:1036A0008460DAE702F00F02142101FB0233D3F841
:1036B0000836F0E711B1D3F8A837ECE702F00F02B3
:1036C000142101FB0233D3F80837E4E7F8BD00BF4B
:1036D00000700240F0B5064689B01422002103A80C
:1036E00007F070F93378013B052B21D8DFE803F0B0
:1036F0007A0314146A1603238DF814300024FFF79C
:1037000059FF0346A0B1047400F10802DDE9050188
:1037100082E8030018461DE00423EDE7B778384639
:10372000FFF768FE837A044623B1013B022B43D99D
:1037300009B0F0BD3B06F57813D5002DF8D1FFF7A1
:1037400039FF03460028F3D00122A5770274032233
:1037500002739C60FFF786FE09B0BDE8F040FFF7FA
:1037600079BE55B1012DE3D1FFF724FF03460028B0
:10377000DED0657705740573EBE7FFF71BFF07469F
:103780000028D5D00123037402230373846004F15D
:103790000C01B07806F0E5FB134AE168B2F88C3210
:1037A0008B4206D95B1AA2F88C3201F07FF83846BA
:1037B000D0E7A2F88C52FAE7304609B0BDE8F040F5
:1037C000FFF734BF01A801F04FF89DF80530052B35
:1037D00004D19DF8043013F0600FA9D0034B05937A
:1037E00001248CE702248AE7B4130020201500206E
:1037F0002DE9F043A64CDFF89C9285B08046FFF798
:1038000037FE074610B905B0BDE8F08394F82530BF
:103810003A7C3BB9002A00F0868079689D4806F022
:10382000D8FDECE7042A42D8DFE812F07D0005005D
:103830000001160140013B7BBD68032B37D8DFE850
:1038400003F0023D5A5F6E69934B00223260726052
:10385000D3F880143170D3F884147170D3F88814BD
:10386000D3F88C0441EA00217180D3F89014D3F886
:10387000940441EA0021B180D3F89814D3F89C3421
:1038800041EA0323F3800823EB6030687168834BBF
:1038900003C311462B68687A984796F90030002BCD
:1038A00008DBF38833B1A4F88C3200F0FFFF7968AD
:1038B0004846B4E70023A4F88C32F8E76B7F002B6E
:1038C000F5D02B7F002BF2D000266E774FF0FF3221
:1038D00073482E774FF0FF3306F0F5FA6B690193CA
:1038E0006B68CDE9023601A9687A00F0E7FC6C4804
:1038F00006F0EBFADBE72B680121687A9847D6E7F8
:10390000AB7A6BB9EB7F5BB965484FF0FF324FF094
:10391000FF3306F0D8FA00F0CFFF614806F0D5FA81
:103920002B680221E9E73A7A042AC0D8DFE802F0DE
:1039300059032367730000F02BFC05460028B6D11D
:1039400000F066FBBFF35B8F5649012351E8002F5F
:10395000002A03D141E800300028F7D1BFF35B8F84
:10396000A5D141F8085C41F8105CE0696361143945
:1039700006F070F99BE7002565F07F00C0B2FFF705
:1039800039FD037A13B1407A01F0FAF80135082DB8
:10399000F2D194F854311BB194F8550101F0F0F8CC
:1039A0000025E8B2FFF726FD037A13B1407A01F053
:1039B000E7F80135082DF4D194F874321BB194F86E
:1039C000750201F0DDF8002000F0C6FB012384F849
:1039D00025302368002B3FF46AAF0021022098476E
:1039E00065E7002584F8255001F030F8FFF780FDE9
:1039F0002368002B3FF45BAF29460420EFE7002B40
:103A00003FF455AF00F0CEFB2368002B3FF44FAFDF
:103A100000210520E3E72268002A3FF448AF002B8D
:103A20003FF445AF00210620904740E708F110051C
:103A30004FF0FF334FF0FF32284606F044FAFFF70D
:103A400077FD284606F041FA58F8283C002B3FF451
:103A50002EAF00210120C2E794F874327BB101251A
:103A600084F8895284F88852FFF7A4FD38B10E4AD1
:103A7000057405738260FFF7F5FCFFF7EBFC58F85F
:103A8000283C002B3FF413AF00210A20A7E700BF1A
:103A9000B41300204803002000700240B813002037
:103AA000EC130020D41300202016002006F017FC91
:103AB00000F0CCFF00F0A2FAFFF76EFDFFF738FD33
:103AC00006F006FC014800F0A3FBF0E6D536000046
:103AD00038B5164D95F824402CBB05F1380006F09A
:103AE000B0FC204601F09EF922460121E861272022
:103AF000FFF700FA06F0ECFBFFF71AFD044610B9D9
:103B0000012385F824300A4B1B680BB1FFF7A2FC98
:103B10004FF08043D3F83834DB0702D50020FFF79D
:103B20006BFD204638BD0024FBE700BFB413002026
:103B3000D8030020074B93F824203AB193F825309E
:103B4000002B14BF00206FF0120070476FF01200BE
:103B5000704700BFB413002038B5104B93F82430E1
:103B60000446C3B105782846FFF744FC10B96FF04E
:103B7000150038BD457223798372638843602078CD
:103B8000618810F0080F02D14B1E0B42EFD106F0F6
:103B9000E3F90020EDE76FF01200EAE7B41300202C
:103BA00038B5124B93F824200546CAB193F8253056
:103BB000B3B1FFF71FFC0446A8B1837A012B12D0E2
:103BC00007D9023B012B07D96369A3610020E0609C
:103BD00038BD00F077FEF7E7284600F019FEF3E75E
:103BE0006FF01200F4E76FF01500F1E7B413002056
:103BF00038B50E4B93F82420054682B193F8253052
:103C00006BB1FFF7F7FB68B115F008040AD128463D
:103C100000F020FE284600F0EBFF204638BD6FF094
:103C20001200FBE76FF01500F8E700BFB4130020A7
:103C300038B50C4B93F8242005460C4662B193F836
:103C400025304BB1FFF7D6FB48B144B1284600F010
:103C5000E7FD2070002038BD6FF01200FBE76FF029
:103C60001500F8E7B413002070B5134E96F8243011
:103C70000446C3B1FFF7BEFB0546B8B1230705D420
:103C8000204600F0E7FD204600F0B2FF2B7A83B912
:103C900001232B7296F825300BB9002070BD204609
:103CA00000F06EFFF9E76FF01200F7E76FF0150014
:103CB000F4E76FF07700F1E7B41300202DE9F0434B
:103CC000DFF8E4801E4698F8243085B00746894620
:103CD0001546002B61D098F82530002B5DD00306E7
:103CE0005ED5FFF787FB0446002859D0037A002BE6
:103CF00056D04FF0FF334FF0FF3208F1380006F096
:103D0000E2F8A37F4BB108F1380006F0DEF86FF05F
:103D10000A04204605B0BDE8F083A37AC5B13BB3E1
:103D20000123A3774FF0000801A93846CDE901959A
:103D3000CDF80C8000F0C2FA1C4B984229D084F8D0
:103D40001E801EBB6FF00404194806F0BEF8E0E7C1
:103D5000E27F02B1E577002BE2D100F0B9FD8742A6
:103D6000DED000F0A9FD124806F0AFF80024D0E73D
:103D7000B8F80A309D42F0D26268B5FBF2F302FB5C
:103D80001353002BE9D10123E377E6E7C6F800805F
:103D9000D8E706B135600024D6E76FF01204B8E723
:103DA0006FF01504B5E700BFB41300200000AD0BA1
:103DB000EC1300202DE9F0411D46204B174693F8E7
:103DC00024200E46002A33D093F8253083B303060F
:103DD00031D401B97FBBFFF70DFB044658B3037A1A
:103DE0004BB34FF0FF3316484FF0FF3206F06BF83D
:103DF000E368BB42984628BFB84646B93FB905B10B
:103E00002B600F4806F061F80020BDE8F081A16941
:103E10004246304606F0C8FDA3694344A361E36807
:103E2000A3EB0803E360002DEBD0C5F80080E8E7C2
:103E30006FF01200E9E76FF01500E6E7B413002019
:103E4000EC13002070B51E4D95F82420034682B374
:103E500095F825206AB31B062ED4FFF7CBFA04464B
:103E600050B3037A43B34FF0FF334FF0FF3205F105
:103E7000380006F028F8E368B3B9012663692677AD
:103E8000A361637F83B1FFF795FB30B905F138007B
:103E900006F01BF86FF00B0070BD067484600673AB
:103EA000FFF7E0FAFFF7D6FA064806F00EF8002012
:103EB000F2E76FF01200EFE76FF01500ECE700BFDC
:103EC000B4130020EC13002010B5084B93F82430F5
:103ED0000C462BB1FFF78EFA28B10460002010BD0C
:103EE0006FF01200FBE76FF01500F8E7B413002045
:103EF000014B1860704700BFB413002008B5074B92
:103F000093F8243023B1FFF775FA20B1406808BD5B
:103F10006FF01200FBE76FF01500F8E7B413002014
:103F20004FF08053D3F83021082A06D1D3F834312A
:103F3000052B04D8034AD05C70470020704701204D
:103F4000704700BFC4AE0000064B10F0800FA3F115
:103F5000D80208BF134600F00F00182202FB003001
:103F6000704700BF5C1D0020EFF31180402383F3F6
:103F70001288BFF36F8F0A4BD3F8001C032261B97C
:103F800049F27531C3F8001CC3F8142DC3F8001CA6
:103F900080F31188BFF36F8F7047C3F8142DF7E7D4
:103FA00000E00640EFF31180402383F31288BFF353
:103FB0006F8F0A4BD3F8001C61B949F27532C3F810
:103FC000002CC3F8141DC3F8002C80F31188BFF334
:103FD0006F8F70470022C3F8142DF6E700E006400B
:103FE0004FF08053D3F83031082B02BF024B002230
:103FF000C3F81C2C704700BF00700240024A002327
:104000001360024A137070473C1E0020A722002054
:1040100008B54A4B4FF40062C3F80024FFF780FF55
:1040200008B1FFF7A1FF4FF08053D3F83031082BD0
:1040300018D1EFF31180402383F31288BFF36F8F01
:104040003F4BD3F8001CC02200296ED149F27531D4
:10405000C3F8001CC3F8142CC3F8001C80F31188AB
:10406000BFF36F8F354B0122C3F80025D3F800242E
:104070001205FBD54FF40062C3F800244FF08053C3
:10408000D3F83031082B17D1EFF31180402383F39D
:104090001288BFF36F8F2A4BD3F8001C002947D139
:1040A00049F27532C3F8002CC3F8141CC3F8002C75
:1040B00080F31188BFF36F8FFFF732FF30B1FFF746
:1040C00071FFFFF72DFF08B1FFF74EFF4FF0805350
:1040D000D3F83031082B194B0AD140F2E372C3F800
:1040E00000284022C3F80428BFF36F8FBFF34F8F1F
:1040F0008022C3F81C250122C3F83025114B40F261
:10410000FF121A60104B00211960104B1970FFF755
:1041100067FF0F4B19700F4B02221A70FFF700FF59
:1041200050B1BDE80840FFF73DBFC3F8142C95E738
:104130000022C3F8142CBBE708BD00BF007002408A
:1041400000E00640381E0020341E0020A32200207C
:10415000A5220020A7220020094B002210B51A70CA
:10416000084A094B094C002808BF1346C4F800331D
:104170002720FEF78FFE0123C4F8043510BD00BFD1
:10418000A6220020FDFFDF01FDFFFF0100700240BD
:10419000034B1878012894BF00200120704700BF0E
:1041A000A722002010B54FF0FF324FF0FF33154823
:1041B00003F0C4FEEFF31181402383F31288BFF3B1
:1041C0006F8F114B1B7803F0FF0483B10F4BD3F8B3
:1041D000002412F400720AD10120C3F82C05D3F890
:1041E0002C05D3F80004800502D5C3F82C25002443
:1041F00081F31188BFF36F8F024803F07BFE2046E6
:1042000010BD00BFC8030020A6220020007002409D
:10421000F8B51C4B1C7894BB1B4A106001221A7025
:1042200040F2FF17264664F07F0514F0080FEDB248
:1042300014BF39464021284605F08EFE2846FFF778
:1042400083FE0134092C867506730661EBD10024C8
:1042500040F2FF17254614F0080FE6B214BF3946A6
:104260004021304605F078FE3046FFF76DFE013400
:10427000092C857505730561EDD10448F8BD044826
:10428000FCE700BFA72200203C1E00200000AD0B71
:104290000500AD0B084B10F0800F00F00F0114BFAC
:1042A000D3F81025D3F8142501238B40134214BFF3
:1042B00001200020704700BF007002402DE9F84344
:1042C0000246EFF31187402383F31288BFF36F8F09
:1042D000030703D1184B1B78834229D1174B184E83
:1042E0001C683568104605F02FFEE443A4B24FF079
:1042F00001092C4309FA00F814EA08041AD11046FF
:10430000FFF722FE80F80C90034607C91C6183E882
:1043100007009C750B4B0C4845EA08058022356068
:10432000C3F8042187F31188BFF36F8FBDE8F883CA
:104330000648F7E70648F5E7A5220020381E0020CA
:10434000341E002000E100E00000AD0B0A00AD0BC0
:104350000B00AD0B10F0080F074B06D0D3F8C004CC
:1043600010F4803F18BF0020704700F00F0000F5E8
:10437000947053F820007047007002402DE9F74F09
:10438000AB4BAC4ED3F85421DAB10022C3F8542120
:10439000D3F80413890214D58DF80420D3F820250E
:1043A000ADF80620D3F8C034002B336814BF4FF0AB
:1043B00001224FF48072134333609F4B01A81B68A6
:1043C00098479B4BD3F8604134B10022C3F8602179
:1043D000D3F86C44C3F86C44D3F828214AB10022C6
:1043E000C3F82821954B187805F0AEFD01238340D2
:1043F0001C43DFF84C82934F98F8005098F90090D6
:1044000015F0080143D1B9F1000F05F00F032EDAC2
:104410008D4A52F8230020B342F82310142253434C
:1044200003F1804303F51C33D3F80836874A11782B
:1044300003F001034B401370FFF7D2FD844803F0F3
:1044400059FD2846FFF780FD837D032B37D1284691
:1044500005F07AFD012303FA00F03B6823EA00032C
:104460003B60DFF8D4A101254FF006095DE0794AF1
:1044700052F823000028F4D042F8231014225343AA
:1044800003F1804303F51C33D3F80837CEE7B9F1C5
:10449000000F674B09DBD3F85021002AE1D000223E
:1044A000C3F85021D3F8A837C0E7D3F82C21002A4D
:1044B000D7D00022C3F82C21D3F8A836B6E7037B67
:1044C000DBB9284605F040FD012303FA00F03B6804
:1044D000B9F1000F23EA00033B6001DA882DC0D157
:1044E00006238DF8043000238DF80730524B8DF8E9
:1044F00006501B6801A89847B3E7002DB1D14C4B7B
:104500000122DA64ADE794FAA4F03268B0FA80F0E0
:1045100005FA00F31A430F28326024EA03043A68CC
:1045200040F39C80134200F0A980002CEBD1404B5B
:10453000D3F800215AB1C3F80041474B1C703F4BE0
:104540001C70012301933C4B01A81B689847384B12
:10455000D3F85821002A2ED00022C3F85821D3F8CE
:104560000044C3F80044E30508D53B4B01221A7010
:1045700002230193304B01A81B689847A50508D575
:10458000354B00221A70032301932B4B01A81B68A3
:10459000984760050FD5304B1A7862B100221A7027
:1045A000234B0122C3F808259A6504230193224B6B
:1045B00001A81B6898471E4BD3F85C3103B3244B0A
:1045C0009B681BB998F80030590619D0184B002287
:1045D000C3F85C21D3F88034184A23F07F031370AA
:1045E0003B6823F001133B60336823F4803343F0CE
:1045F00001033360052301930F4B01A81B68984703
:104600003A6833681A4200F0EB8011480022002318
:1046100003F094FC002840F0E380054BD3F82C35E0
:10462000002B7BD00A4803B0BDE8F04F03F062BC1A
:1046300000700240381E00203C1E0020A5220020F1
:10464000A4220020341E002008710240A322002072
:10465000C803002030710240A622002013407FF4DE
:1046600064AF60F07F018DF804908DF806108DF82E
:104670000730DAF8003001A8984756E7A0F110019A
:104680008DF804908DF806108DF80750F1E749F089
:1046900080052846FFF758FC4368B0F814A001686D
:1046A0009A4528BF9A4601F06043B3F1005F044683
:1046B00004D05448524606F077F95249226863689C
:1046C00052442260A268A3EB0A03D20768B2636077
:1046D00053D5BAF1000F52D1002323734FE0114696
:1046E0004FF0000A604545D1003B18BF0123002A66
:1046F00042D0504540D9012303FA09F32BEA0303C2
:104700003B6006238DF804303F4B8DF806500222A3
:104710001B68A2758DF8072001A89847D7F800B04C
:1047200033681BEA03093FF47DAF19F0012314BF7E
:1047300093FAA3F999FAA9F9B9FA89F9B9F10F0F1E
:10474000A5D9A9F11005EDB22846FFF7FDFB0446F7
:104750002846FFF7FFFD6368B4F814C0226898424A
:10476000BDD81B1A00EB020E11466360C4F800E0CE
:104770008246B7E70023BAE768B2002BACD04FF00F
:104780008053D3F83031082B02BF204B8222C3F86C
:104790001C2C336888F80050012202FA09F923EA38
:1047A00009033360236915F0080F53442361174B45
:1047B00019D1002805F00F054FF0140000FB05305B
:1047C000A9BF0A3503EB8503C0F80017C0F804A79A
:1047D000AFBF43F82520C0F80016C0F804A65A6001
:1047E00003B0BDE8F08F0028B5BFC3F8A016C3F82A
:1047F000A017C3F8A4A6C3F8A4A7B4BF5A629A64CA
:10480000EEE700BF441C00203C1E00200070024068
:10481000024B40F48070C3F81805704700700240E6
:10482000030713D400F00F0310F0800F084A0BBFEA
:1048300003F5887303F5847302EB830252F82300B7
:1048400008BF5068003818BF01207047002070472B
:1048500000700240034BC3F80C0540F48070C3F8AD
:104860000C057047007002400023036043600E4B4C
:10487000D3F880240270D3F884244270D3F88824BB
:10488000D3F88C1442EA01224280D3F89024D3F862
:10489000941442EA01228280D3F89824D3F89C34FD
:1048A00042EA0323C380704700700240014B01229B
:1048B000DA64704700700240014B01221A657047AC
:1048C00000700240014B01225A657047007002409F
:1048D000014B1878704700BFA522002010B5024692
:1048E000EFF31184402383F31288BFF36F8F05F039
:1048F0002BFB0B49012303FA00F00B6823EA0003AA
:104900000B6012F0080101BF02F00F02054B02F527
:10491000947243F8221084F31188BFF36F8F10BD97
:10492000381E002000700240F7B50146EFF31185F4
:10493000402383F31288BFF36F8FFFF705FB064612
:10494000084605F001FB012211F0800F02FA00F287
:104950002D4818D1036832EA03040AD00846FFF74D
:10496000BDFF0323B37585F31188BFF36F8F03B0C9
:10497000F0BD2649347323EA020303600B6823EA7F
:1049800002030B60EDE70B0715D48029204B2FD0D5
:1049900001F00F0404F2DA346400C3F80048D3F8DD
:1049A0000448D3F80478E4B244F002043C43C3F86A
:1049B0000448D3F80438154F04683B6864EA030CD4
:1049C0001CEA020FCFD013433B6000233373032351
:1049D000B3758DF807300F4B8DF8061024EA0204EA
:1049E000062204601B688DF8042001A89847BAE7E6
:1049F00040F2B474C3F80048D3F80448D3F80478FC
:104A0000E4B244F00404D1E7341E0020381E002034
:104A1000007002403C1E002038B50446094D4FF09E
:104A2000FF324FF0FF33284603F088FA2046FFF7A5
:104A30007BFF284603F05EFA034B8022C3F8042173
:104A400038BD00BFC803002000E100E0F8B54FF01A
:104A5000FF324FF0FF332B4803F070FA2A4B8022CD
:104A6000C3F884212720FEF737FA98B1274E284B48
:104A700034681B68240C24041C43012764BB254DA7
:104A800040F2FF1333602720C5F80445FEF710FA03
:104A9000C5F80043204A13788BB11E4B0021C3F8A0
:104AA00008110121C3F80026C3F804165960D3F891
:104AB00008110029FBD00021C3F808111170154B13
:104AC0000022C3F80025FFF78BFA0E4803F012FA14
:104AD000124B01221A70F8BD94FAA4F5B5FA85F5C7
:104AE0000F2D2846C6BFA5F11000C0B240F08000CF
:104AF000030701D4FFF718FF07FA05F524EA0504B8
:104B0000BCE700BFC803002000E100E0381E002021
:104B1000341E002000700240A3220020A7220020A3
:104B200010B504464FF0FF324FF0FF33114803F049
:104B300005FA2046FFF7F8FE04F00F020123934028
:104B40000D4A14F0800F14BFD2F81015D2F81415C6
:104B50006FEA030315BF0B400B40C2F81035C2F8D3
:104B60001435044803F0C6F9044B8022C3F804212D
:104B700010BD00BFC80300200070024000E100E04B
:104B800070B50446FFF786FB68B904F00F020125F3
:104B900014F0800F144B05FA02F205D0D3F810156B
:104BA0000A43C3F8102570BDD3F814150A43C3F89F
:104BB0001425631E062BF6D8EFF31186402383F3EA
:104BC0001288BFF36F8F2046FFF788FE204605F05E
:104BD000BBF9064A1368854023EA0503136086F390
:104BE0001188BFF36F8FDEE700700240341E002093
:104BF000030610B5044605D4FFF712FE10B1204697
:104C0000FFF76CFE014BC3F8184510BD0070024061
:104C1000084B70B5C31A0D4607499B10044659430B
:104C20000648402205F0BCF92B4601462046BDE867
:104C300070401847541E0020B76DDBB620AB000053
:104C400073B50C4C0C4A4023041B00930D460B46D5
:104C50000A49A41061430646094805F0CDF9011E32
:104C600005DA30462B4602B0BDE87040184702B066
:104C700070BD00BF541E002063A00000B76DDBB6FE
:104C800020AB000010B5EFF31184402383F31288AA
:104C9000BFF36F8F074A136823F00201DB0711602F
:104CA00002D4012005F086FA84F31188BFF36F8FD8
:104CB00010BD00BFA41E0020002270B501210446D3
:104CC0001046FEF717F90F4802F078F80E4B98429D
:104CD00015D102F083F826690C49304604F0A7FF8D
:104CE00000280BDB012535642469084904F11C0008
:104CF00004F09DFF002801DBE564002070BD6FF02B
:104D00000400FBE7094E00000000AD0B74AC00008E
:104D10001FB500220123CDE90223094ACDF800D0B6
:104D20006B46CDF804D005F095F9002805DB4FF46B
:104D300080420023684603F001F905B05DF804FBEA
:104D400081A0000030B4104B0C2202FB003301465E
:104D50000020D3E90E529863EFF31180402484F3CE
:104D60001288BFF36F8F1C6C04F0C00444F002047F
:104D70001C6480F31188BFF36F8F1DB12B4603486D
:104D800030BC184730BC7047541E002020AB0000D8
:104D900010B4EFF31182402383F31288BFF36F8FB7
:104DA0001748016841F002040460C80707D482F381
:104DB0001188BFF36F8F012010BC02F027B84FF0AD
:104DC0008041D1F80C04D1F80C14C907EFD5EFF3EA
:104DD000118083F31288BFF36F8F0A490B6C03F0C5
:104DE000C00343F002030B6480F31188BFF36F8F9D
:104DF00082F31188BFF36F8F002010BCFFF7A2BFB2
:104E0000A41E0020541E002010B1012804D07047B9
:104E1000034B1B6C5B0701D1FFF794BF704700BFCA
:104E2000541E0020024AC3B21C2003FB002070471E
:104E3000541E00202DE9F0413849BFF35B8F07462F
:104E4000012251E8003F41E800200028F9D1BFF3DA
:104E50005B8F33B9324933484B60CB608A6004F0D2
:104E6000F9FE7B1E012B2BD8012F07D14FF0804379
:104E7000D3F81C3403F00303012B21D005F0AAFB67
:104E80000546F8B9284B1B78E3B14FF08043022266
:104E9000C3F808230646DFF894804FF08044D4F826
:104EA0001824D4F81834D20315D503F00303012BCA
:104EB00001D0012F0FD155B386F31188BFF36F8F47
:104EC000BDE8F081EFF31186402383F31288BFF32E
:104ED0006F8F0125DFE7ADB1304604F0C2FFD4F893
:104EE0001835002BDBD1D4F80421002AD7D0C4F820
:104EF0000431D4F804310123C4F81835C8F88031DE
:104F0000A360CCE70021212003F08EFCE7E74FF0FF
:104F100080430222C3F80423D2E700BF501E0020C2
:104F2000401E0020701E00204F25002000E100E000
:104F3000F0B54068057B01F01F0444EA451405699B
:104F400087B0002D64D0B2F5001F00F1100506D126
:104F50002146284605F0AEF9002007B0F0BD01AEAD
:104F60000027B2F5800F0197776039D1B3F1007F48
:104F700014BF052304238DF804300023CDE9046316
:104F80000393836823FA01F111F001011AD1B2F100
:104F9000A07F17D104F01F03620903F5E0732AD044
:104FA000012A3BD11F4A52F82330DB070AD40DF106
:104FB000030632462146284602F006FA1A4B98426A
:104FC0001CD0029603AA2146284602F0BFF8174BD0
:104FD000984220D101222146284602F059FABBE727
:104FE000B3F1C06F05D0B3F1007F14BF01230223DA
:104FF000C1E70323BFE74FF0A042D4E7314628467C
:1050000002F040FA094B9842DBD06FF00B00A4E7A6
:105010006FF08500A1E76FF015009EE751F823308F
:10502000FFDE00BF000300500400AD0B0000AD0B1D
:1050300038B545682B69B3B11035284602F012FA2D
:10504000044680B90146284602F0D8F9084B984238
:105050000BD108492246284602F0B0F92246052124
:105060000620FDF747FF002038BD6FF00400FBE786
:105070000000AD0B79500000420970B5034602D024
:10508000012A17D070BD0D4E326951680029F9D040
:1050900003F01F0301250C689D400029F2D08A68A7
:1050A0002A4002D04B68304698472CB123682146ED
:1050B0001C46F2E7024EE7E72346F8E748AB00005C
:1050C00034AB00002DE9F043466840F20635D006C7
:1050D000337B87B002EA050554BFC2F340100320BA
:1050E00001F01F07B5F5837F144647EA43178DF893
:1050F000030045D00FD8062D18D007D8B5B1022D22
:1051000040D06FF0150007B0BDE8F083B5F5807FA3
:10511000F7D101250AE040F20222954234D0B5F5DC
:10512000407F33D0B5F5007FEBD102250123220368
:1051300003FA01F12CD57368C3F80815326982BBF4
:1051400007F01F037F0929D0012F77D13E4A02EBD8
:10515000830284F48033D2F80017C3F30043C4F30E
:10516000404444EA430421F4E16144EA800421F02C
:10517000070144EA05230B43C2F800370020C2E7C9
:105180000725D3E70425D1E70525CFE70325CDE79C
:10519000630344BF7368C3F80C15CFE74FF0A04218
:1051A000D5E710360DF102023946304602F00CF90F
:1051B00014F4403F80460CD13946304605F078F86B
:1051C000224B9845DAD19DF80210304602F054F98E
:1051D000D4E701AB4FF0000903AA39463046CDE9C8
:1051E0000439CDE90199CDF80C9001F0AFFF174BD0
:1051F000984286D114F4003315D09DF803308DF811
:105200000E3084F48034C4F300444B4603AA39467C
:1052100030468DF80C508DF80D4002F051F80B4BD4
:105220009842CDD06DE7CDE9043303AA0DF1030315
:1052300039463046039301F089FFF0E703F5E07348
:1052400052F82330FFDE00BF000300500000AD0B1A
:1052500070B5012383400E4ABFF35B8FDC4352E8F5
:10526000001F01EA040542E80056002EF7D1BFF303
:105270005B8F4FF4803282400648C0F80823BFF3AA
:105280005F8FBFF36F8F0B4214BF0120002070BDF2
:10529000C41E00200010014070B40E49D1E9003452
:1052A000D01AC31844F1000422F07F46C1E900344B
:1052B000A6F50013B3F5400F09D2074B1B681A0A75
:1052C0001B069C19054B42F10005C3E9004570BC63
:1052D00003F05EBC600A0020C81E0020680A00209F
:1052E00011B3BFF35B8F0123104A834052E800CF14
:1052F0004CEA030C42E800C10029F7D1BFF35B8FF1
:105300000B4A4FF480338340C2F80433094BBFF398
:105310005B8F1B68BFF35B8FC340DB0742BF064B4D
:105320004FF40032C3F80021704700BFC41E0020B4
:1053300000100140C01E002000E100E00D4B186885
:10534000010A0006BFF35F8F0B4BD3F80435181822
:1053500041F10001B3F5801F0AD2084BD3E90023C5
:10536000904271EB030303D210F1807041F1000110
:10537000704700BFC81E002000100140680A0020CE
:105380002DE9F04F85B016461F469DF840A0044613
:10539000FFF75EFF0190FFF7D1FFB04271EB07030B
:1053A00054D23E4B301A67EB0101984271F1000173
:1053B0004FD23B4B03EB0413D3E902239F4208BFB8
:1053C00096425ED037494FF4803804F1500508FA10
:1053D00004F8AD00C1F848832046ADB204F0BCFE2D
:1053E00026F07F4B05F1804504F5A87305F5883557
:1053F000DC464FF003090293029A2CF07F4341F8F8
:105400002230C1F84483D1F80435274A6FF00200F6
:10541000C01A604420F07F40904232D9286868B1B9
:10542000D1F804350393A3EB0B0020F07F40B0F5D7
:10543000000F26D9204604F08FFE039BBAF1000F1F
:1054400007D109EB030C09F10109D5E7BAF1000F07
:1054500009D06FF0150520460199FFF741FF284656
:1054600005B0BDE8F08F0123104ABFF35B8FA34066
:1054700052E8000F184342E800010029F8D1BFF3B9
:105480005B8F07490E98230101EB0412C8500F9B54
:105490005360C2E902670025DDE700BF010080001C
:1054A000500A002000100140FDFF7F00C01E0020B8
:1054B0007FB51C4C1C4BC4F80833C4F848331B4B55
:1054C00000254FF0FF304FF0FF31C4F80855C3E915
:1054D00002014FF48033C4F80433154B02264FF415
:1054E00000320121C4F804631120C3F880212A4648
:1054F000FDF700FD1120FDF7CDFC0E4A0123A3604E
:10550000236013600C4B0D4A0093CDE90155002335
:105510002846FFF735FF3046FFF78CFC284604B0DD
:1055200070BD00BF0010014003000F00500A0020B2
:1055300000E100E0C41E002099520000FFFF7F0040
:105540002DE9F7432B4CD4F8043399070BD5D4F845
:10555000043143B1284A0023C4F80431D4F804319B
:10556000136801331360D4F80433DA0323D5BFF38F
:105570005B8F224B53E8002F22F0010143E800101B
:105580000028F7D1BFF35B8FD30702D4D4F84031A2
:105590008BB10025C4F84051D4F84031FFF7CEFE5E
:1055A000EFF3108272B6164BD3E90267B042B941ED
:1055B00004D282F3108803B0BDE8F0834FF0FF38C7
:1055C0004FF0FF39C3E90289D3E900101D604FF4A1
:1055D0008033C4F84833C4F84051D4F8403182F3E2
:1055E00010880029E7D0009032463B46284688477D
:1055F000E1E700BF00100140C81E0020C01E0020CF
:10560000500A002030B5431C124C85B005D08442AE
:10561000A8BF0446012CB8BF0124FFF78FFE0E4B34
:105620000C4DD3E90013401AB0F5000F10D2221828
:10563000AA4228BF2A4652184FF00000074900919D
:10564000CDE9010043F10003FFF79AFE05B030BD3C
:105650002A46F0E7FFFF7F00600A00209952000011
:1056600008B5FFF76BFE024B1B68C01A08BD00BFF0
:10567000600A00200B4B0C4A1B7AC2F81035042B31
:105680000DD8DFE803F008030C080300074BA02245
:105690001A6001207047054B4FF49672F8E700201E
:1056A000704700BFC41F002000100040D41E00201F
:1056B000044A0023C2E908339362034AC2E908336B
:1056C00093627047901F0020641F0020054B1B68E9
:1056D000D3F80423920342BF0022C3F84421D3F835
:1056E00044317047C400002038B500280D490E48E9
:1056F0000E4D40F2044408BF4FF48064FBF706FDF2
:1057000028B900F041FF2B68C3F8004238BD084BB0
:10571000DB7C002B2B680CBF81222822C3F8482594
:10572000F1E700BF7C00002000AD0000C4000020B5
:10573000C41F002008B5084B1B6801221A61FBF743
:10574000F7FCFBF7EFFC00F03BFF0320FBF7F6FC58
:10575000BDE80840FBF7D4BCC400002007B50B4BE4
:105760000B48DA7C90F90A00002302F5166201A9C1
:10577000FBF7F0FC9DF80500FBF7E6FC9DF8042024
:10578000044BC3F80C2503B05DF804FBAC0000200B
:10579000C41F002000100040EFF31181402383F369
:1057A0001288BFF36F8F074A936A013B9362536A73
:1057B0000133082B28BF0023536281F31188BFF304
:1057C0006F8F7047901F00202DE9F843224BDFF8C0
:1057D0008C801A78012A81460F4630D198F8003023
:1057E000C3F3050203F03F03202B33D81C4B196A87
:1057F00053F821301A701A4D1A492C6A55F8246052
:105800003046013410F8052B05F0CEF8164B86F81B
:105810000190D3F84835377103F07F03B37098F8DF
:105820000130DB4303F00103F370AB6A082C28BF9F
:10583000002401332C62AB620120BDE8F883084AE2
:10584000116A52F82120597809B91170D3E75B7CAD
:105850001370D0E70020F0E7C41F002000250020CF
:10586000641F002002250020001000408378427849
:105870001B0443EA022302781343C27843EA02532B
:10588000027943EA8253427943EA0263827943EA26
:105890008263C27943EA4273094AC2F81435837AB3
:1058A000417A1B0443EA0123017A0B43C17A43EA9C
:1058B0000163017B43EA4163C2F81835704700BFBA
:1058C000001000401FB504460D220021684605F077
:1058D00079F80A4B00930A4B5B7CE0B2013B8DF8F0
:1058E00008008DF809008DF80A30684601238DF80C
:1058F0000B30FFF7BBFF04B010BD00BF000101007B
:10590000AC0000201FB50023CDF80930CDF80130E0
:10591000CDF8053003238DF8023006238DF80030D2
:105920000C4B5B7C013B8DF80A3020238DF808304E
:10593000094B1B7A012293428DF80B2007D18DF879
:1059400005206846FFF792FF05B05DF804FB042BC5
:10595000F5D0F6E7AC000020C41F0020F8B55A4B84
:105960005A4F5B4D3C785B4E01221A605A4B5A6A83
:1059700053F822102960002C45D0012C66D0012458
:105980002B68564D5A78C5F82C255B78012707FA05
:1059900003F3DBB2C5F83035514BDA7CC5F8082586
:1059A0001433BFF35B8F53E8001F21F0010143E87C
:1059B0000012002AF7D1BFF35B8FFFF7CFFE494BF0
:1059C000C5F804650222C3F880213846FDF762FA63
:1059D0000022C5F80421D5F80431C5F80821D5F80E
:1059E0000831C5F81021D5F81031C5F80C21104642
:1059F0002146D5F80C3100F0F9FD2046FFF774FE82
:105A0000394B9F61F8BD394B348008781B68984743
:105A1000296833780A79304662F3010300F8023BC3
:105A200011F8052B04F0C0FF2C4B40F21B12C3F8F9
:105A300000221022C3F804232D4BFA891A602D4B43
:105A40002D4A1A602D4B02221A7098E7CA7800235B
:105A5000338012B1BC7C84F001040B7991F800C052
:105A600030785B0003F00603002A08BF43F001030F
:105A7000727822F0070213436CF3050030707370E4
:105A800011F8052B1E4804F08FFF144B19491B4ACF
:105A900074B140F21B10C3F800021548FC89046081
:105AA00015480860022111701022C3F8042366E72C
:105AB00040F21310C3F8000212480860012111706F
:105AC0001022C3F804235BE7D81E0020C41F002067
:105AD000BC1F002022250020901F00200010004045
:105AE000AC00002000E100E000400140CC1E00209E
:105AF000DC1E0020D01E0020755D00004425002023
:105B000024250020D55C0000684620F007018D4662
:105B100019B5144BD3F80423D2060BD5D3F81021B2
:105B200042B10022C3F81021D3F810310E4B1B688C
:105B300003B198470B4CD4F804331B070BD5D4F8AA
:105B40000C3143B1084B1B6803B198470023C4F8DC
:105B50000C31D4F80C31FCF745FFBDE819408546FF
:105B6000704700BF00100040D01E0020684620F0A3
:105B700007018D4631B5194B82B01B680193EFF3D5
:105B80001181402383F31288BFF36F8F144B0022DF
:105B90001D681A6081F31188BFF36F8F114C236861
:105BA000ABB1E90703D58DF8002068469847AA07EE
:105BB00005D501238DF800306846236898476B07A8
:105BC00005D502238DF80030684623689847FCF716
:105BD00009FF02B0BDE8314085467047D81E00205D
:105BE000E01E0020C01F00200146C80708B506D5EA
:105BF000314804F0BDFA314B00BAC3F81C058A07DE
:105C000006D52F4804F0B4FA2C4B00BAC3F820058F
:105C10004B070AD52B48294904F0AAFAC1F82405F4
:105C2000294804F0A5FAC1F828054FF08053D3F8AD
:105C30003021082A3ED1D3F83431052B3AD8234AF3
:105C4000D35CBBB31C4B224A5B7C052B1B4BD3F8AC
:105C50001C15D3F8200518BF4FF07F424140114278
:105C600028D1D3F82415D3F82825C1F30720CBB2C7
:105C7000834214D0C1F30740834210D0B3EB116FBD
:105C80000DD0D1B28B420AD0C2F307218B4206D08D
:105C9000C2F307418B4202D0B3EB126F0AD1074A1D
:105CA000D2F8743723F0807323F0010343F080733C
:105CB000C2F8743708BD00BFAC00002000100040DF
:105CC000B0000020B4000020B8000020F5AE0000B5
:105CD0000000FFFF10B5FBF725FA154B154C1B68AC
:105CE00001221A6100F06CFCFBF70AFA0022104650
:105CF000114600F0E7FC104A1048136843F0010316
:105D00001360A36A3BB90E4B00221A704FF4801344
:105D1000C0F8003110BDFFF73FFDA36A002BF2D0A1
:105D20004FF48013C0F80031BDE81040FFF716BEF5
:105D3000C4000020901F0020E01E002000E100E0D1
:105D40004425002008B5FBF7EDF907490748FBF7A4
:105D5000E3F9074B1A68D2F8003223F4806323F08A
:105D60000403C2F8003208BD7C00002018AD00001A
:105D7000C4000020002270B510460121224C234DA2
:105D8000234E00F09FFC00F01BFCFFF7DBFF40F20E
:105D90001313C4F800321F4B1D481A6800230D323C
:105DA000194604F0AAFAEB7CA989002B0CBF8122CA
:105DB000282230468A1A0023012104F09EFA336813
:105DC00040F202220026C3F80022C3F84061D3F853
:105DD0004021C3F84461D3F8443100F031FD00F0B4
:105DE00009FDC4F80C612878D4F80C3110B90A4BBD
:105DF0001B689847094BC4F80435094B094A1A60D7
:105E0000094B03221A7070BD00100040C41F00200F
:105E1000C4000020D41E0020CC1E0020002500203D
:105E2000D01E0020915E00004425002038B50A4CA9
:105E30000A4D2368D3F844358133EB6000F0A4FBAE
:105E400007492846FBF762F920B9236840F204426B
:105E5000C3F8002238BD00BFC40000209400002019
:105E60007C00002008B500F0ABFBFBF75BF90320DA
:105E7000FBF764F9054B1A68D2F8003223F480630B
:105E800023F00403C2F8003208BD00BFC4000020A4
:105E900070B500F007FDFBF74BF9FBF731F94F4BFD
:105EA0004F4AD3F80C11002943D0D3F80034D90756
:105EB0003FD54C4C4C4D23684C4E43F001032360BE
:105EC0001268EB899B1A4A4A01331360B36A0BB11B
:105ED000FFF762FC2B78B3B1464B1A78920612D0CA
:105EE0005978454B3D4A9B6AD2F82C05072BC1F3E4
:105EF000410108D800F00700FFF766FC18B12368DD
:105F000043F004032360B26A3C4B12B12A7C012A9D
:105F100007D13B4A002111704FF48012C3F80021D1
:105F200070BD4FF48012C3F80021BDE87040FFF748
:105F300015BD1368324E334D591E11607BB92A6866
:105F400001211161284AD2890A4429490A60254958
:105F50000A6842F002020A603370284BDCE71F4CEB
:105F60000023C4F80031D4F8003140F21B13C4F808
:105F70000032254B1A68254B10781B689847244B34
:105F8000C4F80435234B244A1A6002233370FFF708
:105F9000E5FBFFF74BFF00F0F3FB2B68D3F8442140
:105FA000C2B1D4F85035DBB2092BB9D0D4F80041D6
:105FB000002CB5D1FFF756FF00F01CFC2246012152
:105FC000204600F013FB0120FFF78EFB134B01224C
:105FD0009A61A5E701221A60A2E700BF0010004005
:105FE000DC1E0020E01E0020C41F0020901F0020A7
:105FF000D81E002000250020641F002000E100E0E2
:1060000044250020C4000020BC1F0020CC1E00201E
:1060100022250020D01E0020755D000000400140B8
:1060200010B500F0A9FCFFF785FB134801F0A6FCB2
:1060300000F0CCFC114A1248D2F8503623F001038C
:10604000C2F850360F4B00241C700F4B21461C70B9
:10605000FFF72EFB202204F0B5FC0C4B01201C6046
:106060005C60FCF725FF1420FCF722FFBDE8104020
:106070000A20FCF71DBF00BFC40000200010004034
:10608000082200204425002045250020F824002077
:10609000F0B5044685B0002800F0C580634D2B782C
:1060A0000BB1FFF7BDFF624B62681A60614A23467D
:1060B00004F11007164618685968144603C40833DB
:1060C000BB422246F7D1186820605B4B5B48002436
:1060D000202221461C6004F075FC594B59491C6074
:1060E0005C60FFF7C7FA337883B1012B01D1564BBF
:1060F0000B60727A554B012A00F08880022A07D083
:106100007AB9C3F83C25C3F8342508E0504BEFE7D3
:106110004FF6FF70C3F83C05C3F834254D4AC3F869
:1061200038250B68707C9847484B4B494B484FF0DB
:10613000E732C3F81C254FF04332C3F82025484A04
:10614000C3F82425474AC3F82825FFF7B1FA0A46C1
:1061500000230133082B40F8042B02F12502F8D16B
:10616000414A424800230133082B40F8042B02F136
:106170002502F8D100223E4B14460132082A19604C
:106180001C719C6001F1250103F10C03F5D1202263
:106190000021384804F016FC374B384A3848019340
:1061A00001A9CDE9024401F0B9FB364B984235D143
:1061B00000F09EFB044698BB00F0DAFB324B23490B
:1061C0005860D1F85026F37C22F001021343C1F845
:1061D0005036012108462246FCF78CFE2246022159
:1061E0001420FCF787FE224602210A20FCF782FEDB
:1061F0000120FCF74FFE1420FCF74CFE0A20FCF7B0
:1062000049FE224B1C7001232B7009E0FF20C3F8CC
:106210003C05C3F8342540F2071280E76FF00D0407
:10622000204605B0F0BD6FF01504F9E745250020C4
:10623000C01F0020C41F0020E01E002008220020F4
:10624000F8240020CC1E002005590000001000405A
:10625000C558000021100100D0230020901F00200D
:10626000E743C323A363E313A8220020641F002095
:10627000041F0020E41E002040420F00CD56000005
:10628000C40000200000AD0B7C000020442500204D
:106290002DE9F041544B1B78002B00F09980002829
:1062A00000F09F8003785A1E1F2A00F294804F4905
:1062B0000A781AB94A7C9A42C0F08D804C4B9A6A8F
:1062C000072A00F28B804278072A00F28A80EFF3D7
:1062D0001185402282F31288BFF36F8F4A7822BB68
:1062E0001C6A53F82440024600F1240652F8047B4D
:1062F00044F8047BB242F9D11278227046783D4CC2
:10630000A25D013202F00302A2551A6A407853F8E6
:106310002220205C10711A6A0132082A28BF00224C
:106320001A629A6A01329A623AE0334C0022A44619
:1063300094F804E0BEF1000F2DD10C2757430CEB6D
:10634000070601245CF807703471C6F808E00446BB
:1063500000F1240E54F8048B47F8048B7445F9D1EE
:1063600024783C7090F801E0224F17F80E40013479
:1063700004F0030407F80E400C24624344785CF8F0
:1063800002203C5D147144781C4850F8242092B9D6
:1063900040F82460C5E70132082A04F10C04C7D193
:1063A00085F31188BFF36F8F4B780A7C134308D0B5
:1063B0000020BDE8F08110469268002AFBD186607B
:1063C000AFE70F4B1B78002BF2D1FFF7C7FAEFE7CF
:1063D0006FF00C00EDE76FF07900EAE76FF00B006B
:1063E000E7E76FF01500E4E745250020C41F002013
:1063F000901F0020F8240020041F0020E41E00202D
:106400004425002038B5254B1B78002B3CD00028B4
:106410003DD0234CA36A002B3CD0EFF311854023E1
:1064200083F31288BFF36F8F636A54F823301A78AE
:106430000270636A54F823305B784370636A54F8DF
:10644000233093F902308370636A54F823301B7948
:106450000371636A54F82330DB78C370636A54F8BD
:1064600023100530053104F09FFA636A0133082BCD
:1064700028BF00236362A36A013BA36285F31188EE
:10648000BFF36F8F002038BD6FF00C00FBE76FF09B
:106490001500F8E76FF03C00F5E700BF4525002048
:1064A000641F002010B50A4B1B7803F0FF0443B9AA
:1064B00050B1084B02681A600120FFF795FB204697
:1064C00010BD6FF00F00FBE76FF01500F8E700BF9D
:1064D00044250020AC00002010B50A4B1B7803F0C7
:1064E000FF0443B950B1084B02685A600220FFF71D
:1064F0007BFB204610BD6FF00F00FBE76FF015002F
:10650000F8E700BF44250020AC00002038B5104B50
:106510001B780C4603F0FF059BB9A8B1082913D8D6
:106520000A4601460B4804F03FFA0B4AFF23147455
:10653000C4F10804234104209374FFF755FB284657
:1065400038BD6FF00F00FBE76FF01500F8E700BFF4
:1065500044250020B4000020AC000020642803463D
:1065600007D8074A127802F0FF002AB9054AD37407
:1065700070476FF0150070476FF00F00704700BF55
:1065800044250020AC000020094B0A491A78D300AA
:1065900003F1804303F5F833C3F810150649C3F837
:1065A000141501239340054AC2F80435704700BF13
:1065B000482500201841014000A0004000F00140A3
:1065C000084B09491B7801229A40DB0003F1804304
:1065D00003F5F833C1F808250022C3F81025C3F8E5
:1065E000142570474825002000F00140F0B52B4BE2
:1065F0002B4C1B782B4FDA0014442B4A0025C2F891
:106600001851D2F81821294A15788000EA00C0B242
:1066100002F1804202F5F83200F1804000F580502E
:10662000C2F81075C2F81405214A05F5117042F838
:106630002040204A20481678F20002F1804202F5FC
:10664000F8320124C2F8100500F5973000F5847087
:10665000C2F8140504FA06F604FA05F0304369B1ED
:10666000164A174E1178CA0002F1804202F5F8323C
:106670008C40C2F810752043C2F814659B0003F1EA
:10668000804303F5F8330122D3F80018AA400A43E7
:10669000C3F80028064BC3F80405F0BD46250020CA
:1066A00004F001401841014000400140492500200C
:1066B00000F001404725002010110040482500202F
:1066C00000A00040F0B5294B294E1878294B1A78C4
:1066D000012404FA02F304FA00F51D4300F51177D2
:1066E000C3004FEAC20C19BB03F1804303F5F83332
:1066F000C6F80855C3F81015C3F8141546F8271046
:106700000CF1804303F5F833C3F81015C3F81415E2
:10671000194B1B789B0003F1804303F5F8330121EB
:10672000D3F80028814022EA0102C3F80028F0BD16
:10673000124A127803F1804303F5F83394400021A4
:106740002C43C6F80845C3F81015C3F814150CF10E
:10675000804303F5F83346F82710C3F81015C3F843
:106760001415D30003F18043CCE700BF4925002076
:1067700000F0014047250020462500204825002044
:10678000154B164916480022C3F81821D3F81831C2
:10679000144B1B78DA0002F1804202F5F832C2F89D
:1067A000101501F5973101F58471C2F814150E4AE0
:1067B0001178CA0002F1804202F5F832C2F81005E1
:1067C0000A48C2F81405012202FA03F38A4013436F
:1067D000074AC2F8043570470040014010110040DC
:1067E00044A10040472500204A2500200010004019
:1067F00000F001400F4B1A780F4B1B78012101FA72
:1068000002F09940D200DB00014302F180420B48C4
:1068100003F1804302F5F83203F5F833C0F80815A8
:106820000021C2F81015C2F81415C3F81015C3F8EA
:1068300014157047472500204A25002000F001402C
:10684000134B14491B781448DA0002F1804202F518
:10685000F832C2F8101501F50F410C31C2F81415C9
:106860000E4A1178CA0002F1804202F5F832C2F8ED
:106870001005A0F511403038C2F81405012202FAC3
:1068800003F38A401343064AC2F80435704700BF39
:106890004C2500200411004040A100404B25002061
:1068A00000F001400F4B1A780F4B1B78012101FAC1
:1068B00002F09940D200DB00014302F180420B4814
:1068C00003F1804302F5F83203F5F833C0F80815F8
:1068D0000021C2F81015C2F81415C3F81015C3F83A
:1068E000141570474C2500204B25002000F0014076
:1068F00038B5174800F0A2FF164B9842054622D142
:10690000154800F09BFFA84204461CD1134800F034
:1069100095FFA042054616D1114800F08FFFA8420E
:10692000044610D10F4800F089FFA04205460AD165
:106930000D4800F083FFA842044604D10B4800F044
:1069400097FFA04202D06FF0120038BD0020FCE794
:10695000492500200000AD0B4725002048250020D8
:106960004C2500204B2500204A25002046250020EC
:1069700000487047101100400E4B0F491B780978F2
:10698000012202FA01F102FA03F30B430B490978E1
:1069900002FA01F10B430A49097802FA01F10B43AB
:1069A000084909788A401343074A43F00103C2F8B3
:1069B00008357047492500204B2500204725002039
:1069C000482500204C25002000F0014038B5184B28
:1069D000187800F039FF174B9842044627D1164B20
:1069E000187800F031FFA042054620D1134B1878EB
:1069F00000F02AFFA842044619D1114B187800F084
:106A000023FFA042054612D10E4B187800F01CFF60
:106A1000A84204460BD10C4B187800F015FFA04299
:106A200005D10A4B1878BDE8384000F027BF38BDC3
:106A3000492500200000AD0B4725002048250020F7
:106A40004C2500204B2500204A250020462500200B
:106A5000BFF34F8F0549064BCA6802F4E062134347
:106A6000CB60BFF34F8F00BFFDE700BF00ED00E03C
:106A70000400FA054FF08053D3F83021082A06D1DC
:106A8000D3F83431052B02D8024AD05C704700207D
:106A9000704700BF01AF0000024AD2F80034002B5B
:106AA000FBD0704700E0014010B54FF08053D3F8A1
:106AB0003021082A4ED14FF080420021C2F80C113B
:106AC000C2F81011C2F8381502F54042D3F8041488
:106AD000C2F82015D3F80814C2F82415D3F80C1402
