:1000000080340020391B000043850000251B0000C0
:10001000251B0000251B0000251B00000000000020
:10002000000000000000000000000000ED1C0000C7
:10003000251B000000000000B91C0000251B00006B
:10004000A51E000041480000A51E0000A51E0000DE
:10005000A51E0000A51E0000A51E0000A51E000094
:10006000A51E0000A51E000051640000A51E000092
:10007000A51E0000A51E0000A51E0000A51E000074
:10008000A51E0000A51E0000A51E0000A51E000064
:10009000A5480000A51E0000A51E0000A51E00002A
:1000A000A51E0000A51E0000A51E0000A51E000044
:1000B000A51E0000A51E0000A51E0000A51E000034
:1000C000A51E0000A51E0000A51E0000A51E000024
:1000D000A51E0000A51E0000A51E0000A51E000014
:1000E000A51E0000A51E0000A51E0000A51E000004
:1000F000A51E0000A51E0000A51E0000A51E0000F4
:10010000014B1B689B681847C0040020014B1B680B
:100110001B691847C0040020014B1B685B69184726
:10012000C0040020014B1B689B691847C0040020D5
:10013000014B1B68DB691847C0040020014B1B689A
:100140001B6A1847C0040020014B1B68DB6A184774
:10015000C004002010B4034C2468E468A44610BC1A
:10016000604700BFC004002030B50346114890F935
:100170001C209A4219DD90F924209A4217DA9A1A23
:10018000846AA05C0C4A15569D420DD00E3200299F
:1001900018BF01309442C0B206D129B1013BDBB295
:1001A000012B01D80130C0B230BD0D20FCE700208A
:1001B000FAE700BFC00800201C93000008B5054BFB
:1001C00093F91C30984203DAFFF7CEFF024B1B561F
:1001D000184608BDC00800201C93000010B51C4C38
:1001E00094F82C3073B9012384F82C3000F09EF879
:1001F00048B1184BA362D823236284F82430082323
:10020000A361237710BD00F0A7F80028F1D100F01A
:10021000ADF80028EDD100F06BF838B10E4BA362B9
:10022000D823236284F824300423E9E700F06AF835
:100230000028F3D100F070F80028EFD100F080F82A
:100240000028EBD14FF4DF71742000F019F800BFE3
:10025000C0080020579300002A930000BFF34F8F7F
:100260000549064BCA6802F4E0621343CB60BFF352
:100270004F8F00BFFDE700BF00ED00E00400FA056E
:100280001FB572B6134B5D688DB9FFF7E7FFB2FB80
:10029000F6F2DCB20133002AF9D104F110036B4409
:1002A00003F80C2C0A2234B901A8A847EDE702464E
:1002B00000230A26EDE7631E04AEDCB256FA83F390
:1002C000B0FBF2F602FB1600303003F80C0C30469F
:1002D000E9E700BF180D00204FF08052034BD2F821
:1002E00030111960D2F834215A607047540D002043
:1002F000034B1868A0F10F0358425841704700BFE4
:10030000540D0020034B1868A0F10A0358425841CD
:10031000704700BF540D0020034B1868A0F10E0376
:1003200058425841704700BF540D0020034B1868D5
:10033000A0F1100358425841704700BF540D0020EF
:10034000044B1868062803D0431C58425841704794
:1003500001207047540D0020034B1868A0F10D03D5
:1003600058425841704700BF540D0020034B186895
:10037000A0F1080358425841704700BF540D0020B7
:1003800053B94AB9002908BF00281CBF4FF0FF31FC
:100390004FF0FF3000F00CB8ADF1080C6DE904CE61
:1003A00000F05FF8DDF804E0DDE9022304B07047F7
:1003B000704700BF08B5FFF78FFFBDE80840FFF7A3
:1003C0000DBF801A00F3070038B540B20D4659B290
:1003D0001446FFF7F3FE0023287020446B7040B2F0
:1003E00038BD0023036070477047002070474FF00E
:1003F000FF3070474FF0FF30704770470020704764
:100400004FF0FF30704700207047002070470023F6
:10041000037070470022FFF7D4BF002070474FF0F1
:10042000FF3070474FF0FF3070474FF0FF3070479C
:10043000704700280CBF6FF01500002070470020A7
:10044000704707230370002070470020704700208A
:100450007047034613F8012B002AFBD1181A013804
:1004600070472DE9F04786468C460846089E15469B
:1004700074461946002B40F0C2808542B2FA82F2DF
:1004800045D94AB1C2F1200300FA02FC2EFA03F367
:10049000954043EA0C0C94404FEA154EA8B2BCFBC1
:1004A000FEF8230C0EFB18CC08FB00F943EA0C43C2
:1004B000994528D9EB1808F1FF3704D2994502D99C
:1004C000A8F102072B44A3EB0903A4B2B3FBFEFC83
:1004D0000EFB1C330CFB00F044EA0344A04214D989
:1004E0002C190CF1FF3304D2A04202D9ACF1020363
:1004F0002C44241A43EA07401EB1D4400023346040
:100500007360BDE8F0874746DDE76346F1E792BBDD
:10051000431B01214FEA154EAFB2B3FBFEFC200C8A
:100520000EFB1C330CFB07F840EA0343984562D9E5
:10053000EB180CF1FF3004D2984502D9ACF102005F
:100540002B44A3EB0803A4B2B3FBFEFC0EFB1C334D
:100550000CFB07F744EA0344A7424ED92C190CF1CF
:10056000FF3304D2A74202D9ACF102032C44E41BAE
:1005700043EA0040C0E7C2F1200320FA03F19540AE
:1005800090402EFA03F303434FEA154EAFB2B1FB8E
:10059000FEFC0EFB1C10190C0CFB07F841EA004195
:1005A000884504FA02F422D969180CF1FF3004D20C
:1005B000884502D9ACF102002944A1EB08019BB2A5
:1005C000B1FBFEFC0EFB1C110CFB07F743EA0143D9
:1005D0009F420ED9EB180CF1FF3104D29F4202D991
:1005E000ACF102012B44DB1B41EA004192E760467B
:1005F000E3E76146F7E76046A3E76346B7E7834270
:1006000006D916B9002108467BE7C6E900E0F9E7FC
:10061000B3FA83F78FB9834201D3724508D8BEEB92
:10062000020460EB030301209C461EB9002168E729
:100630003846FAE7C6E9004CF8E7C7F1200CBB40A2
:1006400022FA0CF41C432EFA0CF120FA0CF3B840F9
:1006500001434FEA14490EFA07F5B3FBF9F81FFA04
:1006600084FE09FB18300B0C08FB0EFA43EA00432A
:100670009A4502FA07F240D9E31808F1FF3004D294
:100680009A4502D9A8F102002344A3EB0A0389B2D8
:10069000B3FBF9F809FB183308FB0EFE41EA0341EE
:1006A0008E452CD9611808F1FF3304D28E4502D94A
:1006B000A8F10203214443EA0040A0FB0298A1EB09
:1006C0000E014145CE46434602D306D14D4504D2E4
:1006D000B9EB020E68EB04030138002EA6D0B5EB8F
:1006E0000E0261EB030101FA0CFC22FA07F34CEA5B
:1006F0000303F940C6E9003198E74046C5E74346A1
:10070000D9E70000014B9970704700BFEB0700204C
:1007100010B504781346E20618D1240642780BD4AB
:100720005B2A13D1C28819680A48402A28BF402290
:1007300008F011FD002010BD5C2A07D1054A1A609F
:10074000C388402B28BF40230B60F3E76FF0850080
:10075000F1E700BF431F0020037813B1022B04D040
:100760007047034B01221A707047024804F070BCB6
:10077000421F00201D1F002013B582790B2A03465B
:100780000FD00C2A1CD0012A09D14FF48073042207
:1007900001930DEB02010023822007F0AEFE02B0B0
:1007A00010BD0F480246062102F8051B1968C0F863
:1007B00005109B88938002B0BDE8104004F08EBB0A
:1007C000084C094923780B7001220023822007F08E
:1007D00094FE2378002BE2D000232370DFE700BFD4
:1007E0001D1F0020421F00201C1F002013B50022E7
:1007F0001146044601AB07F098FE0023019A064912
:10080000204607F092FE019B072B02D80248FFF713
:10081000B3FF02B010BD00BF431F002030B5154A22
:10082000154B164D8BB0CDE90123154A1068516860
:1008300003AB03C31C460FCD0FC42B682360114BC1
:10084000069305A801238DF8263004F047FA78B9FD
:1008500001A804F04DFC58B902A804F067FC38B9AF
:10086000082103A804F082FC10B9282004F0A4FC9D
:100870000BB030BD3344BB01DEF012230093000007
:10088000BC94000059070000014B1B68184700BFCB
:100890001805002030B585B004460D461022002111
:1008A000684608F066FC02238DF802302A46044BA5
:1008B00001932146684606F09DFF05B030BD00BF9C
:1008C0008908000080B505460E461746984606F092
:1008D00067FD034608F0B8FCDFF81890044649F8B5
:1008E0000030424630463946A84754F8090001F026
:1008F00091F900BF080000002DE9F047058B044680
:100900002807904611D4022905F0070540F0CC8055
:10091000204607F0CDFC78B10138218B042811D88E
:10092000DFE800F0C2106D85950001290CBF45F08D
:10093000100545F02005258388F31188BFF36F8FDC
:10094000BDE8F08701F0070AAA4500F0A58000275E
:10095000B9463E46A368002B00F0BC8041F0080178
:10096000218388F31188BFF36F8FA168002900F0FD
:10097000BA800D68002900F0B680D1F804803346B3
:1009800052462046C047002D76D02B6829461D468A
:10099000F0E701F007035A1F012A1BD8002221F0BB
:1009A0000701062B276889B2C4E9002209D13B461A
:1009B00003E0628B013262831B68002BF9D141F0A6
:1009C00002012183204607F073FC00287AD041F011
:1009D000200176E0042B0AD121F0070189B221839E
:1009E000204607F065FC10B141F020012183218BE6
:1009F00001F0070AAA454FD00027B946AAE72369A4
:100A000021F0070141F00601062DD3F80090218363
:100A10002DD1B9F1000F3FD041F00801218388F3B7
:100A20001188BFF36F8F3A492046C84729E021F06B
:100A30000701236941F0040189B2042DD3F8049021
:100A40002183E6D000273E464FF0040A82E721F0DA
:100A50000701236941F0050189B2052DD3F80890FB
:100A60002183D6D000273E464FF0050A72E70027C3
:100A70003E464FF0060A6DE72B4687E7B9F1000FB7
:100A8000D1D1EFF31188402383F31288BFF36F8F26
:100A9000238B23F008032383258BEA062ED525F02C
:100AA0001003238305F007056669218B002EBFF62E
:100AB00070AF00232768C4E9003321F0070141F03B
:100AC00001012183218B01F0070AAA454FF000099B
:100AD0007FF440AF002F9CD041F00801218388F3C0
:100AE0001188BFF36F8F002FC8D03D683946334659
:100AF0005246204607F008FC2F46F4E7AB067FF588
:100B00001BAF25F02003238305F0070500E700BF96
:100B100035830000014B036000207047B89300004C
:100B2000F0B40C4B0C4E5F6A0C4BB34203D36FF026
:100B30008500F0BC70475D68BD4209D31C693CB1BB
:100B400095F802C00579AC4502D12346F0BC1847A0
:100B50002433EAE798100020BC0800209808002001
:100B60002DE9F047134CDFF85080DFF85090054630
:100B70000E461746444503D36FF08500BDE8F08765
:100B80006268D9F824309A4212D3A36983B190786D
:100B90002979884205D13A4631462846BDE8F047D2
:100BA00018475279012A03D13A46314628469847D8
:100BB0002434DFE798080020BC08002098100020AB
:100BC0002DE9F0410B4CDFF8308005460E46174604
:100BD000444502D36FF0850009E063690BB9243402
:100BE000F6E73A463146284698470028F7D1BDE84F
:100BF000F08100BF98080020BC08002010B5044612
:100C000007F009FD10F1780F00D050B9054A2046D1
:100C100007F065FCD2F8C43023EA0003C2F8C43000
:100C2000002010BD98100020024B00221A605A606C
:100C3000704700BF5311002070B50B4B0B4CA34203
:100C400001D3002070BD196A1E7F00220439D5B27D
:100C5000AE4201D82433F2E7013211F83250854216
:100C6000F5D10120EEE700BF98080020BC08002065
:100C700008B509480378C3F341130A3350F8233009
:100C80003BB100F1080200F110019847C043C00FCA
:100C900008BD1846FCE700BF9810002004282DE985
:100CA000F14FDFF8989004460F4616D001282DD159
:100CB000DFF88C8098F8B93043B300F061FD214D26
:100CC0004D4520D2D5F820B04FF0000A2B7F5FFAB7
:100CD0008AF6B34204D82435F2E7FFF7A5FFE7E729
:100CE0000BEBC6060AF1010A307907F094FC0246C4
:100CF000307907F0F4FBD8F8C430002A23EA000367
:100D0000C8F8C430E2DA002388F8B9300D4D4D45FB
:100D100008D30B4B1B6A6BB13946204601B0BDE8C6
:100D2000F04F1847EB681BB13A46214628469847D2
:100D30002435ECE701B0BDE8F08F00BFBC0800200F
:100D4000981000209808002073B5C4B263060D46C1
:100D50008DF8074007D02046FFF76EFF78B10D4BA6
:100D600093F8BA0058B10B4E204655B101F000FE81
:100D7000F3691BB10DF1070108209847012002B06B
:100D800070BD01F01DFEF369002BF7D00DF10701D6
:100D90000920F2E79810002073B586788DF800607E
:100DA000037942791C4C43EA0223ADF80230C37840
:100DB000304603F003038DF8043007F090FBD4F8BD
:100DC000C430184205460BD0304600F0BBFC30461C
:100DD000FFF714FF07F0D5FF10B9962006F0C2FA0E
:100DE000684601F0A1FD10F1780F03D010B100208A
:100DF00002B070BD9DF8000001F01EFE10F1780FEA
:100E000001D00028F3D1D4F8C43001202B4384F85A
:100E1000B900C4F8C430EBE7981000202DE9F04782
:100E2000A34EB36904460F461546FBB9237803F079
:100E30001F03012B00F09D80022B00F0048133BBC7
:100E400094F900002A686178002834DA062912D063
:100E500008292BD0D9B901231370517096F8C330EB
:100E60005B0043F00103137002232AE19847002836
:100E7000DCD100200DE06288100A011F01298446A0
:100E800005D9072803D8716AD2B20C781CB96FF063
:100E90001500BDE8F0874E78664503D19A4200F010
:100EA0000B8101332144F0E70B780AE196F8BA3060
:100EB0001370012305E101390829E8D801A353F88B
:100EC00021F000BF5D0F00008F0E00006B0F0000CF
:100ED0008F0E0000E90E00008F0E00008F0E000044
:100EE0008F0E0000F50E0000A07801F00BFD002829
:100EF000BFD0CCE76388756A63BBFFF795FE638854
:100F000086F8BA30F369002BB3D06A4903209847BA
:100F1000AFE76B78042B10D0052B11D0022B04D136
:100F20006F796388BB4208BF01202B781D442B7862
:100F3000002BEED10028AAD0DFE795F80380F4E774
:100F40006388BB42F1D1B8F1000FEED12846FFF71C
:100F500023FFEAE7FF270020B846E8E76388012B74
:100F600095D1002386F8C33083E76388012B8ED1A7
:100F7000F8E796F8BA30D5F800C0002B87D0756A2C
:100F8000A38894F804E02A46107800283FF47FAF45
:100F90005178022904D192F80480F04500F2938040
:100FA0000244F1E78CF800208CF80120396060E7FA
:100FB000154494E00B2A7FF46AAF00274FF0FF0836
:100FC000C146BA4606E06B78042B0FD0052B21D022
:100FD0002B781D442B78002BF5D1F36913B15146C2
:100FE00007209847002F7FF444AF50E795F8028020
:100FF000A38895F803909845EAD163889945E7D18D
:10100000B8F1070F1CD806EB0803AA4683F8BB907B
:101010000127DDE7A3884345DAD1A3784B450AD001
:10102000AF78384600F08EFB3846FFF7E7FDB0FAA0
:1010300080F77F09CCE72846FFF7AEFE0746C7E7F3
:10104000AA460027C4E794F900206378002A18DA3A
:10105000002B7FF41CAF24792D6863060AD020464C
:10106000FFF7EAFD00283FF412AF96F8BA30002BE4
:101070003FF40DAF2946204601F0C2FC00236B70FF
:10108000F2E6012B08D0032B7FF401AF6388002B1D
:101090007FF4FDAE012103E0618800297FF4F7AE03
:1010A000A088FFF751FE00287FF4E3AEEFE600BF13
:1010B0009810002052110020022829607FF4F4AE1D
:1010C0004B883B60D5E694F9000062780028BFF6B3
:1010D00071AF002A3FF466AF0A2A7FF4D8AE2A78AF
:1010E000002A3FF4D4AE697804297FF461AFA9786F
:1010F0008B427FF45DAF072B96BF9B19002393F8BB
:10110000BB308CF80030D4E613B5164C237DF3B910
:10111000E268A168019201AB802007F0EEF9019A24
:10112000A3681344A360E3689B1AE3606BB962B1E0
:101130002369E2889A4208DD94F8C82093FBF2F113
:1011400002FB11330BB90123237502B010BD00233C
:101150001A4619468020237502B0BDE8104001F000
:1011600095BC00BF9810002030B585B00023024622
:101170000D460193002858D1002935D108220B468D
:101180000DEB020107F060FA002804DA802001F07C
:10119000EFFB05B030BD2A4C029A2260039A6260D0
:1011A00004F13802A2609DF90820BDF80E302575C3
:1011B000002AC4E903550ADB802B04D9802001F002
:1011C000D7FB0020E3E713B1C4E90333E1E7FFF7FE
:1011D0004FFD0028DAD0E28823699A42D4BFE2604A
:1011E000E360FFF791FFD4E7154CD4E90215002D19
:1011F00001AB04DC07F028FA0028CADAC6E72A4661
:1012000007F022FA0028D9DB019AA3681344A360EF
:10121000E3689B1AE360002BBBD104F13803A360A1
:10122000FFF726FD0028DCD1B0E78028B1D1044BC0
:10123000DA68002AD5D11B7D002BD2D1A9E700BFE7
:1012400098100020054B064A9A62064ADA62064A5E
:101250001A63064A58629A6100207047981000206D
:101260001D0E0000210B0000C10B0000610B0000EF
:101270002DE9F3410446474D47484FF0FF334FF007
:10128000FF3205F0D1FA95F8B830002B7BD16B6AAC
:1012900083B142482C62E8616E6A01F011FD01F0F1
:1012A000FFFA041E10DA3C4805F036FB204602B077
:1012B000BDE8F08100F0BEF8FFF7C4FF6B6A002BB9
:1012C000E7D14FF0FF34EEE700F07CFA041EEADBD2
:1012D0007378012B5AD1F379002B57D0002668463A
:1012E00085F8C830ADF802308DF804608DF80060E4
:1012F00001F01AFB041ED6DB802768468DF80070CB
:1013000001F012FB041ECEDB2549304601F0C4FC7F
:10131000041EC8DB2249384601F0BEFC041EC2DBB5
:10132000204CDFF8848044451AD3002001F084FB70
:10133000041EB8DBD5F8C430802043F00103C5F8A3
:10134000C43001F079FB041EADDBD5F8C43043F4A2
:101350008033C5F8C430012385F8B8300024A2E7F3
:10136000276A0026227FF3B29A4201D82434DAE7B2
:1013700007EBC30257F83310107901F08DFC0136EA
:101380000028EFD09DE76FF077048CE76FF015042D
:1013900089E700BF981000209C0700209D0C0000EA
:1013A0006911000098080020BC08002030B51F4BD0
:1013B0008BB005AA03F1100518685968144603C4D8
:1013C0000833AB422246F7D11B782370102200214C
:1013D00001A807F0CEFE12220021154807F0C9FE31
:1013E000102101A807F033FA00281BDD0828B8BF38
:1013F0000820093801AB0E491A18002012F8013FE5
:101400000AAC04EB131403F00F0328336B440130D0
:1014100014F8144C13F8143C0C7008284B7001F1AC
:101420000201EBD102480BB030BD00BFC5940000F3
:10143000841F00202DE9F04F724B93F800B087B065
:10144000BBF1000F03D0704807B0BDE8F08F6E4CC1
:1014500000264FF0011AB0463546B14623783BB915
:101460006A4B02349C42F3D1664A01231370EAE7C7
:101470006378052B1BD8DFE803F08E03C38E1D397C
:10148000402304A88DF810B0ADF812308DF814B0D8
:1014900007F0ACF840B1082304A8ADF8123007F00B
:1014A000A5F808B1ADF812B0BDF81230E371237899
:1014B0001C44D3E7E378002BF9D1A3786BB108F192
:1014C00001085FFA88F8F2E76B689C4207D0243580
:1014D0004F4B9D42F8D30020B6E74E4DF8E7AB687E
:1014E000002BECD0414620469847E8E7002DF2D08B
:1014F00000222B7F9A42EED2296AA07801EBC2012A
:101500000B79984201D00132F3E70127E07800F02F
:1015100003008DF81400207994F805C040EA0C20EF
:10152000ADF8120094F902000028FBB228DA07F1A6
:1015300010004FF0010C0CFA00F010EA0A0F26D14F
:1015400043F080008DF8100004A8CDE90213019249
:1015500007F04CF8DDE90121039BC0B99DF810208C
:10156000A27012F0800F18BF10330A7118BFDBB2DF
:101570004FF0010214BF9A40BA404AEA020A96E7C5
:101580000120B84010EA0A0F01D11846DAE7013706
:10159000102FBBD1B7E7032E1AD1FFF707FF07467D
:1015A00050B1FEF756FF024630B11028A8BF1022F6
:1015B0003946A01C07F0CFFD23786FF00201E21836
:1015C000091B04EB5303D14213D50136F6B26EE783
:1015D000002EF1D1B9F1000F3FF47DAFA4EB090368
:1015E00089F80230C3F3072389F8033089F80480AF
:1015F000EBE702F801BC13F8010902F8020DE2E77B
:10160000A14654E7831F0020D00700209508002042
:10161000BC0800209808002010B5094B00211A468C
:101620001C78844204D15C6814B102EB811010BDB7
:101630000131042903F14003F2D10020F7E700BF94
:10164000641100202DE9F34150F8283C10F82C6C6F
:10165000103304460AD1036950F8202C980736D578
:10166000D2B9590715D5002344F8283C54F8283C32
:1016700010330BD054E9077554F8148C07F081FB34
:1016800000284FD02E48214607F06BFB02B0BDE882
:10169000F08143F00403236154F8241C01AB30466D
:1016A00006F02BFF10B16FF01503DDE7019A54F837
:1016B000243C134444F8243C54F8203C9B1A44F83E
:1016C000203C54F81C3C134444F81C3CCEE754F82E
:1016D000241C01AB304601F055FA0028E3D1019DEE
:1016E00054F8243C2B4444F8243C54F8203C5B1B25
:1016F00044F8203C54F81C3C2B4444F81C3C002D7E
:10170000B1D0304601F0E2FAB5FBF0F303FB10551F
:10171000002DA8D154F8203C002BA4D0304601F075
:1017200079FAA3E744F8180CA4F1100005F062F967
:10173000002DABD0424639463046A847A6E700BF49
:10174000580F002010B5EFF31184402383F3128863
:10175000BFF36F8FFFF760FF50B14368103307D1BD
:101760006FF08B03436000F12C01044807F0F9FA95
:1017700084F31188BFF36F8F10BD00BF580F002096
:10178000F8B50E4C04254027EFF3118687F3128835
:10179000BFF36F8F6368103307D16FF08B03084876
:1017A000636004F12C0107F0DCFA86F31188BFF3C3
:1017B0006F8F013D04F14004E6D1F8BD64110020B3
:1017C000580F002070B50A4C0A4E002531462046BD
:1017D00007F0ABFA0122A4F110001146013507F021
:1017E00086FA042D04F14004F0D1002070BD00BF42
:1017F000901100204516000008B5044806F030FDA1
:10180000BDE80840024806F02BBD00BFD69400009A
:101810000B95000030BFFFF7FDBF00BF2DE9F04181
:101820000B4EDFF8308006EB0807CC1B054632462E
:101830000949204607F08FFCA01942460021083CC8
:1018400007F097FC2C6707F10800BDE8F08100BFA6
:101850000000000004000000F8920000074A9368AE
:1018600093F90E10002907DB526993421FBF044A07
:10187000536843F080535360704700BFC41E00207C
:1018800000ED00E070B5264B15469A6A12F0100F75
:101890009A6A14BF1124102412F0080F9A6A18BF14
:1018A0001224920706460AD5586B9A6A140634D554
:1018B00019B19A6A22F080029A62132401E06FF053
:1018C0001500174B9A6A12F0010F9A6A18BF142478
:1018D00012F0200F9A6A18BF1524D20602D49B6A10
:1018E0009B070AD50E4B5B68190506D5314600F0FB
:1018F0008FFA10B180F309880224094B9A6A920684
:1019000042BF5A6A22F400525A629A6A42F0FF02B7
:101910009A6200232B70204670BD6FF01500CCE753
:1019200000ED00E0134B9A6A12F0007F9A6A14BF30
:101930001E201D2012F0807F9A6A18BF1F2012F40B
:10194000002F9A6A18BF212012F4802F9A6A18BFBC
:10195000222012F4003F9A6A18BF232012F4803F1D
:101960009A6A6FEA02426FEA12429A6218BF242012
:10197000704700BF00ED00E010B5194B0246986AB1
:101980009C6A10F4805F14BF1720162014F4006FB7
:101990009C6A18BF1820A40509D5986B986A0004A2
:1019A00004D51AB19A6A22F400429A6219200C4BAB
:1019B0009A6A12F4806F9A6A18BF1A20D2050CD462
:1019C0009B6A13F4005F18BF1C20054A936A43F416
:1019D0007F43936200230B7010BD1B20F5E700BF0F
:1019E00000ED00E0F0B5484B5B688BB00446C3F3F4
:1019F0000803002585F31188BFF36F8F02F07F4045
:101A0000B0F17F4F11D102F00C0008280DD0100763
:101A10004CBF0C4601250022033B8DF80720032B09
:101A200005D8DFE803F0246367602C46F3E7002362
:101A30009DF80720CAB902AE04F12007206861684A
:101A4000324603C20834BC421646F7D1099A002D2B
:101A500054D0C2F3080121B96FEA52226FEA422240
:101A6000099202A9184606F062FD0BB0F0BD264BA4
:101A7000DA6A9107DBD4DA6A002AD8DBDA6A520024
:101A8000D5D55A69A16942F480725A61BFF34F8F6C
:101A9000BFF36F8F5A6931F8021C22F480725A61C9
:101AA000BFF34F8FBFF36F8F4DF6027291420AD092
:101AB0009A6AD2B24AB10DF1070201212046FFF71E
:101AC000E1FE0346B4E72368B2E79A6A12F47F4F57
:101AD00005D00DF107010120FFF74EFFF1E79B6AEA
:101AE000B3F5803FA3D3FFF71DFFEAE70DF107022F
:101AF0000021E3E70DF107010020EDE722F4FF727A
:101B000022F00102ACE700BF00ED00E0044B5A698F
:101B100042F010025A615A6922F008025A61704775
:101B200000ED00E0EFF30880EFF3098101B57246A4
:101B3000FFF758FF01BD00BF002080F31488BFF3FA
:101B40006F8F03F0BBFD00200D490860BFF34F8F7E
:101B50000C4880F3088800F02BF8402080F31188AF
:101B600009484FF40461401880F30988EFF31480AA
:101B70000221084380F31488BFF36F8F00F010F93F
:101B800094ED00E080340020C02600200749D1F801
:101B900090200023C2F307221846934200DB7047CF
:101BA000C1F89830C1F8A0000133F6E700ED00E07D
:101BB00008B572B6002383F31388FFF7E7FF144BD1
:101BC0004FF0FF32C3F88020C3F88420C3F8882088
:101BD000C3F88C20C3F89020C3F89420C3F8982051
:101BE000C3F89C20C3F88021C3F88421C3F888215E
:101BF000C3F88C21C3F89021C3F89421C3F898212D
:101C0000C3F89C2162B6BFF34F8FBFF36F8F08BD3F
:101C100000E100E0084B9B6883420BD1EFF30583A2
:101C200043B1064B5A6842F080525A605A6A22F415
:101C300000425A6207F080B9C41E002000ED00E0A7
:101C4000094A93686FF00A019967084958674B6819
:101C500043F080534B60002383F31188BFF36F8FF1
:101C60009368986F704700BFC41E002000ED00E02D
:101C700010B50446EFF31183402383F31288BFF3BA
:101C80006F8F0A4B58699860094B4FF000625A6099
:101C9000084B026F1A600022436F426783F311887A
:101CA000BFF36F8F00F01CF9204610BDC41E00204A
:101CB00000ED00E0641200200B498A684FF030000C
:101CC0001044EFF3098C80E8F01F74467046FFF76C
:101CD000CFFFA64604498A6802F1300090E8F01F61
:101CE0008CF3098870470000C41E00201EF0040F0A
:101CF0000CBFEFF30880EFF30980816911F8021C33
:101D00000229FFD001B506F018FC01BD40B2002841
:101D100007DB044A4109012300F01F00834042F819
:101D20002130704700E100E040B200280CDB43099D
:101D3000064900F01F0020330122824041F8232091
:101D4000BFF34F8FBFF36F8F704700BF00E100E01C
:101D5000054B420900F01F0053F82220012303FA2B
:101D600000F01040704700BF00E100E040B2D30730
:101D700054BF023100210028ACBF00F16040074A87
:101D80004FEA4113ACBF00F5614000F00F00DBB239
:101D9000B4BF135480F80033704700BF14ED00E067
:101DA0000B4A08B50B4B22F07F029A60BFF34F8FAE
:101DB000BFF36F8FD3F8882022F47002C3F8882015
:101DC00004F040FC05F08AFB00F060F804F07EFCB3
:101DD0000000000000ED00E042F8203C009B42F8CB
:101DE0001C3C0A49019B42F8183C029B42F8143CF7
:101DF00021F001014FF0807342F8043C42F8081CC6
:101E00000023203A02654367704700BFC508000001
:101E1000094A0346906870B113F1160F006E05D0A1
:101E2000A0F140029A4205D8834203D2814228BFE2
:101E30000020704700207047C41E002008B51546DA
:101E40000B4A0C4B9060026F1A600E4600F048F887
:101E50002C4686F309884FF00000074B9847204630
:101E60004FF000014FF000024FF00003034C2047F9
:101E7000C41E00206412002059850000C50800001F
:101E8000014B10221A61704700ED00E00448002366
:101E90004021C2180133302B82F80013F9D170476A
:101EA00000E100E008B5EFF30583064A103B02EBC2
:101EB000C30152F8330049688847BDE80840FFF77E
:101EC000CDBC00BFF8050020024B034A03480121A6
:101ED00000F076B80000022000000020B893000057
:101EE000026E054B403A1A60044A4021C3E90112D0
:101EF0001846012100F06EB86812002000000B1592
:101F0000084AC2F898000B6823F01F03034343F00C
:101F10001003C2F89C308B6843F00103C2F8A03074
:101F2000704700BF00ED00E02DE9F043DFF860806E
:101F300085B00E461F4604464FF00009B14523DA2E
:101F40006068D8B13FB1411E08421BD11F2819D982
:101F50002368194216D12368019306F020FBA36879
:101F600003430393D8F89050C5F30725D0B2013D41
:101F7000A84207D801A9FFF7C3FF421C09F10109D4
:101F80000C34DBE76FF01502104605B0BDE8F083B6
:101F900000ED00E0044B0522C3F89420BFF34F8FFF
:101FA000BFF36F8F704700BF00ED00E0BFF35F8F9E
:101FB000024B0022C3F89420704700BF00ED00E000
:101FC00010B5034C01232278FFF7AEFF207010BD3F
:101FD000961F002008B50B4A00231278FFF7A4FFD4
:101FE00010F1160F07D0084A0021D2F89030C3F341
:101FF0000723984200DB08BDC2F89800C2F8A01081
:102000000130F2E7961F002000ED00E02DE9F043DB
:10201000534B544CD3F890302568C3F307239D42AB
:1020200085B000F29A80FFF7C1FF00200C268542A0
:102030001AD14D4C4D4F25706846FEF76BFDDFF809
:102040002081DFF82C9106460025AE4213D123787B
:1020500043490020D1F89020C2F30722934276DB57
:10206000FFF798FF002042E0616806FB0011FFF7D0
:1020700047FF0130DBE7009800EB05114FEA051C34
:10208000CB683B40B3F5000F48D00AD8B3F5001F2A
:1020900030D0B3F5800F36D0B3F5801F10D00135A6
:1020A000D3E7B3F1807F42D0B3F1007FF7D150F88E
:1020B0000C3088684A6806F072FA40F4802009E023
:1020C00050F80C3088684A6806F069FA40F0885089
:1020D00040F43020CDE901230390D8F890302078E7
:1020E000C3F30723013B98422AD96FF0150005B0CE
:1020F000BDE8F08350F80C3088684A6806F04FFA63
:1021000040EA0900E6E750F80C3088684A6806F0B3
:1021100046FA40F0E06040F40030DBE750F80C3065
:1021200088684A6806F03BFA40F08270D2E750F8BF
:102130000C3088684A6806F032FA40F08870C9E7C7
:1021400001A9FFF7DDFE237801332370A7E7C1F86B
:102150009830C1F8A00001337CE74FF0FF30C6E7AC
:1021600000ED00E0C4930000961F00200000F0FF87
:102170000000081108B50649064821F00701C1F121
:10218000005202F5003206F011F8002008BD00BF31
:10219000873B002074120020044A0123C2F8403516
:1021A0004FF080420020C2F87835704700E00140CF
:1021B00020B1034B800143F001031847704700BF73
:1021C000B0930000020600F07F0312D5082B05D162
:1021D000010700F00F0306D50E48704710F0780F86
:1021E00012D100F00F034C2000EB43100A4B1844AF
:1021F0007047082B05D1020700F00F0306D50748EA
:10220000704710F0780FF6D000207047044800EBBC
:1022100043107047CC13002080120020EC140020E3
:10222000EC1300200149024806F09BBDA8120020D3
:10223000980D00200146014806F04EBDC007002061
:1022400002480022002304F0A3BB00BFC007002007
:1022500013B5124800F06CFE114B98421AD1114888
:1022600003F0B4FF0024104803F0DAFF0F491048D0
:1022700000944FF0FF334FF4806204F01BFD0D49D2
:102280000B4806F084FD0C480C4906F04EFD204634
:1022900002B010BD6FF00400FAE700BFA5240000F3
:1022A0000000AD0B56950000E49300008022002052
:1022B000980D002048950000A8120020C1250000BC
:1022C00010B50E49BFF35B8F002351E8002F012AA0
:1022D00003D141E800300028F7D1BFF35B8F0CD168
:1022E00051F8044C1439204606F0BFF8783004D178
:1022F0002046BDE8104006F094B810BDA0120020A2
:1023000038B5002464F07F00C0B2FFF75BFF0134F2
:1023100006F055F9082CF5D10E4D0024E0B2FFF778
:1023200051FF036903B90561013406F048F9082C2F
:1023300005F14005F2D1084806F041F9074BD3F802
:102340007C2212B9064AC3F87C22064806F037F907
:10235000002038BD10190020CC130020801200206E
:1023600010150020EC14002010B5054CFFF768FF95
:1023700020B14168204606F003FCF7E710BD00BF1E
:102380008007002007B500230E48002201A904F0B1
:102390001DFA90B1FFF7E8FF0A480022002301A9C7
:1023A00004F014FA38B90198042340600374FFF76D
:1023B00041FFFFF737FF002001E00198406003B0C4
:1023C0005DF804FB80070020022810B511D8094BE6
:1023D0001C5CFFF7D7FF60B1002202740472FFF7A4
:1023E00029FF054B93F824301BB1BDE81040FFF7DF
:1023F00019BF10BD5395000080120020F8B58778F2
:1024000006463846FFF7DEFE3B06F578044612D551
:10241000002D43D1FFF7B6FF034600283ED001222E
:10242000A5770274032202739C60FFF703FFBDE8E7
:10243000F840FFF7F7BE4DB1012D2FD1FFF7A2FFF6
:10244000034658B3657705740573EDE7FFF79AFF08
:1024500020B3B278124B12F0800F02F0080111D0B5
:1024600041B1D3F8A836E360012303740223037358
:102470008460DAE702F00F02142101FB0233D3F883
:102480000836F0E711B1D3F8A837ECE702F00F02F5
:10249000142101FB0233D3F80837E4E7F8BD00BF8D
:1024A00000700240F0B5064689B01422002103A84E
:1024B00006F05FFE3378013B052B21D8DFE803F0FF
:1024C0007A0314146A1603238DF814300024FFF7DE
:1024D00059FF0346A0B1047400F10802DDE90501CB
:1024E00082E8030018461DE00423EDE7B77838467C
:1024F000FFF768FE837A044623B1013B022B43D9E0
:1025000009B0F0BD3B06F57813D5002DF8D1FFF7E3
:1025100039FF03460028F3D00122A5770274032275
:1025200002739C60FFF786FE09B0BDE8F040FFF73C
:1025300079BE55B1012DE3D1FFF724FF03460028F2
:10254000DED0657705740573EBE7FFF71BFF0746E1
:102550000028D5D00123037402230373846004F19F
:102560000C01B07806F08CF8134AE168B2F88C32AE
:102570008B4206D95B1AA2F88C3201F023F8384658
:10258000D0E7A2F88C52FAE7304609B0BDE8F04037
:10259000FFF734BF01A800F0F3FF9DF80530052BCD
:1025A00004D19DF8043013F0600FA9D0034B0593BC
:1025B00001248CE702248AE780120020EC1300201B
:1025C0002DE9F043A64CDFF89C9285B08046FFF7DA
:1025D00037FE074610B905B0BDE8F08394F8253002
:1025E0003A7C3BB9002A00F0868079689D4806F065
:1025F000C7FAECE7042A42D8DFE812F07D000500B4
:102600000001160140013B7BBD68032B37D8DFE892
:1026100003F0023D5A5F6E69934B00223260726094
:10262000D3F880143170D3F884147170D3F88814FF
:10263000D3F88C0441EA00217180D3F89014D3F8C8
:10264000940441EA0021B180D3F89814D3F89C3463
:1026500041EA0323F3800823EB6030687168834B01
:1026600003C311462B68687A984796F90030002B0F
:1026700008DBF38833B1A4F88C3200F0A3FF79684B
:102680004846B4E70023A4F88C32F8E76B7F002BB0
:10269000F5D02B7F002BF2D000266E774FF0FF3263
:1026A00073482E774FF0FF3305F09CFF6B69019361
:1026B0006B68CDE9023601A9687A00F08FFC6C489E
:1026C00005F092FFDBE72B680121687A9847D6E78F
:1026D000AB7A6BB9EB7F5BB965484FF0FF324FF0D7
:1026E000FF3305F07FFF00F073FF614805F07CFFCA
:1026F0002B680221E9E73A7A042AC0D8DFE802F021
:1027000059032367730000F0D3FB05460028B6D1B8
:1027100000F066FBBFF35B8F5649012351E8002FA1
:10272000002A03D141E800300028F7D1BFF35B8FC6
:10273000A5D141F8085C41F8105CE0696361143987
:1027400005F018FE9BE7002565F07F00C0B2FFF79B
:1027500039FD037A13B1407A01F09CF80135082D58
:10276000F2D194F854311BB194F8550101F092F86C
:102770000025E8B2FFF726FD037A13B1407A01F095
:1027800089F80135082DF4D194F874321BB194F80E
:10279000750201F07FF8002000F06EFB012384F841
:1027A00025302368002B3FF46AAF002102209847B0
:1027B00065E7002584F8255000F0D4FFFFF780FD81
:1027C0002368002B3FF45BAF29460420EFE7002B82
:1027D0003FF455AF00F076FB2368002B3FF44FAF7A
:1027E00000210520E3E72268002A3FF448AF002BD0
:1027F0003FF445AF00210620904740E708F110055F
:102800004FF0FF334FF0FF32284605F0EBFEFFF7A5
:1028100077FD284605F0E8FE58F8283C002B3FF4E9
:102820002EAF00210120C2E794F874327BB101255C
:1028300084F8895284F88852FFF7A4FD38B10E4A13
:10284000057405738260FFF7F5FCFFF7EBFC58F8A1
:10285000283C002B3FF413AF00210A20A7E700BF5C
:1028600080120020800700200070024084120020A7
:10287000B8120020A0120020EC14002006F00DF980
:1028800000F070FF00F0A2FAFFF76EFDFFF738FDD1
:1028900006F0FCF8014800F04BFBF0E6A524000030
:1028A00038B5164D95F824402CBB05F1380006F0DC
:1028B0009FF9204601F040F922460121E8612720D6
:1028C000FFF754FA06F0E2F8FFF71AFD044610B9D4
:1028D000012385F824300A4B1B680BB1FFF7A2FCDB
:1028E0004FF08043D3F83834DB0702D50020FFF7E0
:1028F0006BFD204638BD0024FBE700BF801200209E
:10290000C0070020074B93F824203AB193F82530F4
:10291000002B14BF00206FF0120070476FF0120000
:10292000704700BF8012002038B5104B93F8243058
:102930000446C3B105782846FFF744FC10B96FF090
:10294000150038BD4572237983726388436020780F
:10295000618810F0080F02D14B1E0B42EFD105F039
:102960008AFE0020EDE76FF01200EAE780120020F7
:1029700038B5124B93F824200546CAB193F8253098
:10298000B3B1FFF71FFC0446A8B1837A012B12D024
:1029900007D9023B012B07D96369A3610020E060DE
:1029A00038BD00F01BFEF7E7284600F0BDFDF3E759
:1029B0006FF01200F4E76FF01500F1E780120020CD
:1029C00038B50E4B93F82420054682B193F8253094
:1029D0006BB1FFF7F7FB68B115F008040AD1284680
:1029E00000F0C4FD284600F08DFF204638BD6FF092
:1029F0001200FBE76FF01500F8E700BF801200201F
:102A000038B50C4B93F8242005460C4662B193F878
:102A100025304BB1FFF7D6FB48B144B1284600F052
:102A20008BFD2070002038BD6FF01200FBE76FF0C7
:102A30001500F8E78012002070B5134E96F8243088
:102A40000446C3B1FFF7BEFB0546B8B1230705D462
:102A5000204600F08BFD204600F054FF2B7A83B90E
:102A600001232B7296F825300BB9002070BD20464B
:102A700000F010FFF9E76FF01200F7E76FF01500B4
:102A8000F4E76FF07700F1E7801200202DE9F043C2
:102A9000DFF8E4801E4698F8243085B00746894662
:102AA0001546002B61D098F82530002B5DD0030629
:102AB0005ED5FFF787FB0446002859D0037A002B28
:102AC00056D04FF0FF334FF0FF3208F1380005F0D9
:102AD00089FDA37F4BB108F1380005F085FD6FF04B
:102AE0000A04204605B0BDE8F083A37AC5B13BB324
:102AF0000123A3774FF0000801A93846CDE90195DD
:102B0000CDF80C8000F06AFA1C4B984229D084F86A
:102B10001E801EBB6FF00404194805F065FDE0E758
:102B2000E27F02B1E577002BE2D100F05DFD874244
:102B3000DED000F04DFD124805F056FD0024D0E730
:102B4000B8F80A309D42F0D26268B5FBF2F302FB9E
:102B50001353002BE9D10123E377E6E7C6F80080A1
:102B6000D8E706B135600024D6E76FF01204B8E765
:102B70006FF01504B5E700BF801200200000AD0B18
:102B8000B81200202DE9F0411D46204B174693F85E
:102B900024200E46002A33D093F8253083B3030651
:102BA00031D401B97FBBFFF70DFB044658B3037A5C
:102BB0004BB34FF0FF3316484FF0FF3205F012FDD4
:102BC000E368BB42984628BFB84646B93FB905B14D
:102BD0002B600F4805F008FD0020BDE8F081A169D9
:102BE0004246304606F0B7FAA3694344A361E3685E
:102BF000A3EB0803E360002DEBD0C5F80080E8E705
:102C00006FF01200E9E76FF01500E6E78012002090
:102C1000B812002070B51E4D95F82420034682B3EB
:102C200095F825206AB31B062ED4FFF7CBFA04468D
:102C300050B3037A43B34FF0FF334FF0FF3205F147
:102C4000380005F0CFFCE368B3B901266369267745
:102C5000A361637F83B1FFF795FB30B905F13800BD
:102C600005F0C2FC6FF00B0070BD06748460067343
:102C7000FFF7E0FAFFF7D6FA064805F0B5FC0020AA
:102C8000F2E76FF01200EFE76FF01500ECE700BF1E
:102C900080120020B812002010B5084B93F82430A1
:102CA0000C462BB1FFF78EFA28B10460002010BD4E
:102CB0006FF01200FBE76FF01500F8E780120020BC
:102CC000014B1860704700BF8012002008B5074B09
:102CD00093F8243023B1FFF775FA20B1406808BD9E
:102CE0006FF01200FBE76FF01500F8E7801200208C
:102CF000064B10F0800FA3F1D80208BF134600F076
:102D00000F00182202FB0030704700BF281C002073
:102D1000EFF31180402383F31288BFF36F8F0A4BC8
:102D2000D3F8001C032261B949F27531C3F8001CC5
:102D3000C3F8142DC3F8001C80F31188BFF36F8F04
:102D40007047C3F8142DF7E700E00640EFF3118059
:102D5000402383F31288BFF36F8F0A4BD3F8001C14
:102D600061B949F27532C3F8002CC3F8141DC3F8D9
:102D7000002C80F31188BFF36F8F70470022C3F8D7
:102D8000142DF6E700E0064008B54FF08053D3F865
:102D900030310D2B01D1FFF7BBFF0B4B0122C3F8E4
:102DA0000025D3F800241205FBD54FF40062C3F8C8
:102DB00000244FF08053D3F830310D2B03D1BDE800
:102DC0000840FFF7C3BF08BD00700240024A00235D
:102DD0001360024A13707047081D00209B1F0020DB
:102DE000F8B51E4F4FF400634FF08054C7F800341D
:102DF000FFF7CAFFD4F830310D2B04D1184D2B78D2
:102E000003BBFFF785FF154B8022C3F81C25012269
:102E1000C3F83025134B40F2FF121A60124A002308
:102E20001360124A1370124A1370124B02221A7066
:102E30004FF08053D3F830310D2B0ED1BDE8F84060
:102E4000FFF784BF0026C7F80065FFF79DFF2E70CF
:102E5000D4F830310D2BD6D1D3E7F8BD0070024045
:102E6000F4050020041D0020001D0020971F0020F5
:102E7000991F00209B1F0020094B002210B51A70DB
:102E8000084A094B094C002808BF1346C4F8003310
:102E90002720FEF73BFF0123C4F8043510BD00BF17
:102EA0009A1F0020FDFFDF01FDFFFF0100700240BF
:102EB000034B1878012894BF00200120704700BF01
:102EC0009B1F002010B54FF0FF324FF0FF33154825
:102ED00003F0B4FDEFF31181402383F31288BFF3B5
:102EE0006F8F114B1B7803F0FF0483B10F4BD3F8A6
:102EF000002412F400720AD10120C3F82C05D3F883
:102F00002C05D3F80004800502D5C3F82C25002435
:102F100081F31188BFF36F8F024803F06BFD2046E9
:102F200010BD00BFB00700209A1F002000700240B3
:102F3000F8B51C4B1C7894BB1B4A106001221A7018
:102F400040F2FF17264664F07F0514F0080FEDB23B
:102F500014BF39464021284605F08DFB2846FFF76F
:102F6000C7FE0134092C867506730661EBD1002477
:102F700040F2FF17254614F0080FE6B214BF394699
:102F80004021304605F077FB3046FFF7B1FE0134B3
:102F9000092C857505730561EDD10448F8BD044819
:102FA000FCE700BF9B1F0020081D00200000AD0BA8
:102FB0000500AD0B084B10F0800F00F00F0114BF9F
:102FC000D3F81025D3F8142501238B40134214BFE6
:102FD00001200020704700BF007002402DE9F84337
:102FE0000246EFF31187402383F31288BFF36F8FFC
:102FF000030703D1184B1B78834229D1174B184E76
:103000001C683568104605F02EFBE443A4B24FF06F
:1030100001092C4309FA00F814EA08041AD11046F1
:10302000FFF766FE80F80C90034607C91C6183E831
:1030300007009C750B4B0C4845EA0805802235605B
:10304000C3F8042187F31188BFF36F8FBDE8F883BD
:103050000648F7E70648F5E7991F0020041D002001
:10306000001D002000E100E00000AD0B0A00AD0BE8
:103070000B00AD0B10F0080F074B06D0D3F8C004BF
:1030800010F4803F18BF0020704700F00F0000F5DB
:10309000947053F820007047007002402DE9F04F03
:1030A000AB4BAC4FD3F8542185B0DAB10022C3F852
:1030B0005421D3F80413890214D58DF80C20D3F8C9
:1030C0002025ADF80E20D3F8C034002B3B6814BF88
:1030D0004FF001224FF4807213433B609E4B03A8D4
:1030E0001B6898479A4BD3F8604134B10022C3F86B
:1030F0006021D3F86C44C3F86C44D3F828214AB15A
:103100000022C3F82821954B187805F0ACFA01236A
:1031100083401C43DFF84882924E98F8005098F99B
:10312000009015F0080141D1B9F1000F05F00F032F
:103130002CDA8D4A52F8230010B342F823101422DF
:10314000534303F1804303F51C33D3F80836874A11
:10315000117803F001034B401370854803F04AFCDB
:103160002846FFF7C5FD837D032B37D1284605F0A0
:103170007AFA012303FA00F0336823EA000333608C
:10318000DFF8D4A101254FF006095DE0794A52F835
:1031900023000028F4D042F823101422534303F1F3
:1031A000804303F51C33D3F80837D0E7B9F1000F9B
:1031B000674B09DBD3F85021002AE1D00022C3F885
:1031C0005021D3F8A837C2E7D3F82C21002AD7D052
:1031D0000022C3F82C21D3F8A836B8E7037BDBB96B
:1031E000284605F040FA012303FA00F03368B9F1EC
:1031F000000F23EA0003336001DA882DC0D10623D3
:103200008DF80C3000238DF80F30534B8DF80E5095
:103210001B6803A89847B3E7002DB1D14C4B01229E
:10322000DA64ADE794FAA4F03A68B0FA80F005FAEF
:1032300000F31A430F283A6024EA0304326840F38B
:103240009D80134200F0AA80002CEBD1404BD3F8B4
:1032500000215AB1C3F80041474B1C703F4B1C7012
:10326000012303933C4B03A81B689847384BD3F8C2
:103270005821002A2ED00022C3F85821D3F8004448
:10328000C3F80044E30508D53B4B01221A70022322
:103290000393314B03A81B689847A50508D5364B07
:1032A00000221A70032303932B4B03A81B68984733
:1032B00060050FD5304B1A7862B100221A70244B8A
:1032C0000122C3F808259A6504230393224B03A81F
:1032D0001B6898471E4BD3F85C3103B3244B9B68A3
:1032E0001BB998F80030590619D0194B0022C3F8C1
:1032F0005C21D3F88034194A23F07F0313703368BC
:1033000023F0011333603B6823F4803343F001035F
:103310003B6005230393104B03A81B689847326852
:103320003B681A4200F0938011480022002303F00A
:1033300085FB002840F08B80054BD3F82C35002B03
:1033400000F0A8800A4805B0BDE8F04F03F052BB7A
:1033500000700240041D0020081D0020991F00205D
:10336000981F0020001D002008710240971F0020B8
:10337000B0070020307102409A1F002013407FF4F4
:1033800063AF60F07F018DF80C908DF80E108DF812
:103390000F30DAF8003003A8984755E7A0F1100184
:1033A0008DF80C908DF80E108DF80F50F1E749F064
:1033B00080052846FFF79CFC4368B0F814B001680C
:1033C0009B4528BF9B4601F06043B3F1005F044674
:1033D00004D052485A4605F0BEFE50492268636840
:1033E0005A442260A268A3EB0B03D20768B2636061
:1033F00005D5BBF1000F04D10023237301E0002B9E
:10340000FAD0012202FA09F92AEA09033B6023698A
:1034100088F800505B4415F0080F2361404B6FD1D2
:10342000002805F00F054FF0140000FB0530A9BF80
:103430000A3503EB8503C0F80017C0F804B7AFBF27
:1034400043F82520C0F80016C0F804B65A6005B04D
:10345000BDE8F08F61464FF0000B70454AD1003A4D
:1034600018BF0122BCF1000F46D0584544D90122B3
:1034700002FA09F223EA0203336006238DF80C30C6
:10348000284B8DF80E5002211B68A1758DF80F1086
:1034900003A898473368D7F800A013EA0A093FF455
:1034A00051AF19F0012214BF92FAA2F999FAA9F9C1
:1034B000B9FA89F9B9F10F0F01937FF678AFA9F145
:1034C0001005EDB22846FFF713FC04462846FFF727
:1034D000D1FD6268B4F814E0D4F800C0019B9042BA
:1034E000B8D800EB0C0B121AC4F800B06146626049
:1034F0008346B2E70022B5E768B2002A81D17BE7B4
:103500000028B5BFC3F8A016C3F8A017C3F8A4B627
:10351000C3F8A4B7B4BF5A629A6498E7101B00209E
:1035200000700240081D0020024B40F48070C3F878
:103530001805704700700240030713D400F00F0312
:1035400010F0800F084A0BBF03F5887303F58473EE
:1035500002EB830252F8230008BF5068003818BFFE
:10356000012070470020704700700240034BC3F8F1
:103570000C0540F48070C3F80C05704700700240E1
:103580000023036043600E4BD3F880240270D3F80D
:1035900084244270D3F88824D3F88C1442EA0122A0
:1035A0004280D3F89024D3F8941442EA0122828016
:1035B000D3F89824D3F89C3442EA0323C38070479D
:1035C00000700240014B0122DA6470470070024033
:1035D000014B01221A65704700700240014B012225
:1035E0005A65704700700240014B1878704700BF61
:1035F000991F002010B50246EFF31184402383F396
:103600001288BFF36F8F05F02EF80B49012303FAE0
:1036100000F00B6823EA00030B6012F0080101BF01
:1036200002F00F02054B02F5947243F8221084F366
:103630001188BFF36F8F10BD041D00200070024081
:10364000F7B50146EFF31185402383F31288BFF3EA
:103650006F8FFFF74DFB0646084605F004F8012280
:1036600011F0800F02FA00F22D4818D1036832EAF7
:1036700003040AD00846FFF7BDFF0323B37585F3A3
:103680001188BFF36F8F03B0F0BD2649347323EA6E
:10369000020303600B6823EA02030B60EDE70B07EC
:1036A00015D48029204B2FD001F00F0404F2DA3416
:1036B0006400C3F80048D3F80448D3F80478E4B2AF
:1036C00044F002043C43C3F80448D3F80438154FCF
:1036D00004683B6864EA030C1CEA020FCFD0134372
:1036E0003B60002333730323B3758DF807300F4B12
:1036F0008DF8061024EA0204062204601B688DF887
:10370000042001A89847BAE740F2B474C3F800480F
:10371000D3F80448D3F80478E4B244F00404D1E7C1
:10372000001D0020041D002000700240081D002024
:1037300038B50446094D4FF0FF324FF0FF332846AD
:1037400003F07CF92046FFF77BFF284603F052F98F
:10375000034B8022C3F8042138BD00BFB00700200E
:1037600000E100E0F8B54FF0FF324FF0FF332A4898
:1037700003F064F9294B8022C3F884212720FEF747
:10378000E7FA98B1264E274B34681B68240C2404B2
:103790001C43012754BB244D40F2FF133360272004
:1037A000C5F80445FEF7C0FAC5F800431F4A137870
:1037B0008BB11D4B0021C3F808110121C3F800266D
:1037C000C3F804165960D3F808110029FBD0002172
:1037D000C3F808111170144B0022C3F800250E48DD
:1037E00003F008F9124B01221A70F8BD94FAA4F5FF
:1037F000B5FA85F50F2D2846C6BFA5F11000C0B259
:1038000040F08000030701D4FFF71AFF07FA05F51F
:1038100024EA0504BEE700BFB007002000E100E095
:10382000041D0020001D002000700240971F002092
:103830009B1F002010B504464FF0FF324FF0FF33BE
:10384000114803F0FBF82046FFF7FAFE04F00F02E0
:10385000012393400D4A14F0800F14BFD2F81015C5
:10386000D2F814156FEA030315BF0B400B40C2F8E2
:103870001035C2F81435044803F0BCF8044B80221C
:10388000C3F8042110BD00BFB00700200070024043
:1038900000E100E070B50446FFF78CFB68B904F066
:1038A0000F02012514F0800F144B05FA02F205D027
:1038B000D3F810150A43C3F8102570BDD3F81415BA
:1038C0000A43C3F81425631E062BF6D8EFF31186BE
:1038D000402383F31288BFF36F8F2046FFF78AFEE1
:1038E000204604F0C0FE064A1368854023EA05031B
:1038F000136086F31188BFF36F8FDEE7007002401C
:10390000001D0020030610B5044605D4FFF714FE81
:1039100010B12046FFF76EFE014BC3F8184510BDED
:1039200000700240084B70B5C31A0D4607499B1042
:10393000044659430648402204F0C1FE2B46014686
:103940002046BDE870401847201D0020B76DDBB64B
:10395000BC92000073B50C4C0C4A4023041B00932E
:103960000D460B460A49A41061430646094804F077
:10397000D2FE011E05DA30462B4602B0BDE870408B
:10398000184702B070BD00BF201D002081870000D5
:10399000B76DDBB6BC92000010B5EFF31184402385
:1039A00083F31288BFF36F8F074A136823F0020175
:1039B000DB07116002D4012004F0DAFF84F31188E0
:1039C000BFF36F8F10BD00BF701D0020002270B5C7
:1039D000012104461046FEF7C9F90F4801F058FFCF
:1039E0000E4B984215D101F063FF26690C49304611
:1039F00004F0ADFC00280BDB01253564246908497F
:103A000004F11C0004F0A3FC002801DBE5640020A5
:103A100070BD6FF00400FBE71D3B00000000AD0B24
:103A2000E89300001FB500220123CDE90223094AD3
:103A3000CDF800D06B46CDF804D004F09AFE0028F3
:103A400005DB4FF480420023684602F0F7FF05B023
:103A50005DF804FB9F87000030B4104B0C2202FB82
:103A6000003301460020D3E90E529863EFF3118032
:103A7000402484F31288BFF36F8F1C6C04F0C004E1
:103A800044F002041C6480F31188BFF36F8F1DB1F2
:103A90002B46034830BC184730BC7047201D00201F
:103AA000BC92000010B4EFF31182402383F312881C
:103AB000BFF36F8F1748016841F002040460C80724
:103AC00007D482F31188BFF36F8F012010BC01F07F
:103AD00007BF4FF08041D1F80C04D1F80C14C9078E
:103AE000EFD5EFF3118083F31288BFF36F8F0A498C
:103AF0000B6C03F0C00343F002030B6480F31188E6
:103B0000BFF36F8F82F31188BFF36F8F002010BC5B
:103B1000FFF7A2BF701D0020201D002010B101285A
:103B200004D07047034B1B6C5B0701D1FFF794BFB8
:103B3000704700BF201D0020024AC3B21C2003FBB7
:103B400000207047201D00202DE9F0413849BFF3C7
:103B50005B8F0746012251E8003F41E80020002822
:103B6000F9D1BFF35B8F33B9324933484B60CB6037
:103B70008A6004F0FFFB7B1E012B2BD8012F07D19D
:103B80004FF08043D3F81C3403F00303012B21D002
:103B900005F0F7F80546F8B9284B1B78E3B14FF06C
:103BA00080430222C3F808230646DFF894804FF0D2
:103BB0008044D4F81824D4F81834D20315D503F06F
:103BC0000303012B01D0012F0FD155B386F31188C8
:103BD000BFF36F8FBDE8F081EFF31186402383F3CD
:103BE0001288BFF36F8F0125DFE7ADB1304604F0D7
:103BF000C7FCD4F81835002BDBD1D4F80421002AF7
:103C0000D7D0C4F80431D4F804310123C4F81835EE
:103C1000C8F88031A360CCE70021212003F084FBA9
:103C2000E7E74FF080430222C3F80423D2E700BF46
:103C30001C1D00200C1D00203C1D002043220020E4
:103C400000E100E0F0B54068057B01F01F0444EAA4
:103C50004514056987B0002D64D0B2F5001F00F14E
:103C6000100506D12146284604F002FF002007B0C7
:103C7000F0BD01AE0027B2F5800F0197776039D112
:103C8000B3F1007F14BF052304238DF80430002313
:103C9000CDE904630393836823FA01F111F0010174
:103CA0001AD1B2F1A07F17D104F01F03620903F506
:103CB000E0732AD0012A3BD11F4A52F82330DB0798
:103CC0000AD40DF1030632462146284602F0E4F8F4
:103CD0001A4B98421CD0029603AA2146284601F0AE
:103CE0009DFF174B984220D101222146284602F021
:103CF00037F9BBE7B3F1C06F05D0B3F1007F14BF54
:103D000001230223C1E70323BFE74FF0A042D4E71A
:103D10003146284602F01EF9094B9842DBD06FF07D
:103D20000B00A4E76FF08500A1E76FF015009EE798
:103D300051F82330FFDE00BF000300500400AD0B3C
:103D40000000AD0B38B545682B69B3B11035284676
:103D500002F0F0F8044680B90146284602F0B6F8B1
:103D6000084B98420BD108492246284602F08EF8AB
:103D7000224605210620FDF7F9FF002038BD6FF02F
:103D80000400FBE70000AD0B8D3D0000420970B55B
:103D9000034602D0012A17D070BD0D4E326951681A
:103DA0000029F9D003F01F0301250C689D4000296C
:103DB000F2D08A682A4002D04B68304698472CB12E
:103DC000236821461C46F2E7024EE7E72346F8E760
:103DD000E4920000D09200002DE9F043466840F2E2
:103DE0000635D006337B87B002EA050554BFC2F31F
:103DF0004010032001F01F07B5F5837F144647EA02
:103E000043178DF8030045D00FD8062D18D007D8DA
:103E1000B5B1022D40D06FF0150007B0BDE8F083BA
:103E2000B5F5807FF7D101250AE040F202229542E4
:103E300034D0B5F5407F33D0B5F5007FEBD1022506
:103E40000123220303FA01F12CD57368C3F8081586
:103E5000326982BB07F01F037F0929D0012F77D178
:103E60003E4A02EB830284F48033D2F80017C3F396
:103E70000043C4F3404444EA430421F4E16144EACA
:103E8000800421F0070144EA05230B43C2F8003700
:103E90000020C2E70725D3E70425D1E70525CFE7B2
:103EA0000325CDE7630344BF7368C3F80C15CFE760
:103EB0004FF0A042D5E710360DF1020239463046E8
:103EC00001F0EAFF14F4403F80460CD139463046F9
:103ED00004F0CCFD224B9845DAD19DF80210304613
:103EE00002F032F8D4E701AB4FF0000903AA3946DB
:103EF0003046CDE90439CDE90199CDF80C9001F0B7
:103F00008DFE174B984286D114F4003315D09DF8DE
:103F100003308DF80E3084F48034C4F300444B46F3
:103F200003AA394630468DF80C508DF80D4001F04B
:103F30002FFF0B4B9842CDD06DE7CDE9043303AA98
:103F40000DF1030339463046039301F067FEF0E7B5
:103F500003F5E07352F82330FFDE00BF000300508A
:103F60000000AD0B70B5012383400E4ABFF35B8F99
:103F7000DC4352E8001F01EA040542E80056002E27
:103F8000F7D1BFF35B8F4FF4803282400648C0F810
:103F90000823BFF35F8FBFF36F8F0B4214BF012065
:103FA000002070BD901D00200010014070B40E492B
:103FB000D1E90034D01AC31844F1000422F07F463E
:103FC000C1E90034A6F50013B3F5400F09D2074B41
:103FD0001B681A0A1B069C19054B42F10005C3E930
:103FE000004570BC03F054BB480E0020941D002017
:103FF000500E002011B3BFF35B8F0123104A8340A2
:1040000052E800CF4CEA030C42E800C10029F7D186
:10401000BFF35B8F0B4A4FF480338340C2F8043305
:10402000094BBFF35B8F1B68BFF35B8FC340DB079C
:1040300042BF064B4FF40032C3F80021704700BF67
:10404000901D0020001001408C1D002000E100E0C8
:104050000D4B1868010A0006BFF35F8F0B4BD3F8B6
:104060000435181841F10001B3F5801F0AD2084B3E
:10407000D3E90023904271EB030303D210F1807067
:1040800041F10001704700BF941D00200010014065
:10409000500E00202DE9F04F85B016461F469DF8C2
:1040A00040A00446FFF75EFF0190FFF7D1FFB0424A
:1040B00071EB070354D23E4B301A67EB0101984273
:1040C00071F100014FD23B4B03EB0413D3E9022300
:1040D0009F4208BF96425ED037494FF4803804F1C2
:1040E000500508FA04F8AD00C1F848832046ADB287
:1040F00004F0C1FB26F07F4B05F1804504F5A87361
:1041000005F58835DC464FF003090293029A2CF03E
:104110007F4341F82230C1F84483D1F80435274A5F
:104120006FF00200C01A604420F07F40904232D904
:10413000286868B1D1F804350393A3EB0B0020F095
:104140007F40B0F5000F26D9204604F094FB039B76
:10415000BAF1000F07D109EB030C09F10109D5E70A
:10416000BAF1000F09D06FF0150520460199FFF74D
:1041700041FF284605B0BDE8F08F0123104ABFF388
:104180005B8FA34052E8000F184342E8000100296A
:10419000F8D1BFF35B8F07490E98230101EB04129E
:1041A000C8500F9B5360C2E902670025DDE700BFDE
:1041B00001008000380E002000100140FDFF7F004C
:1041C0008C1D00207FB51C4C1C4BC4F80833C4F870
:1041D00048331B4B00254FF0FF304FF0FF31C4F840
:1041E0000855C3E902014FF48033C4F80433154B7A
:1041F00002264FF400320121C4F804631120C3F8F1
:1042000080212A46FDF7B2FD1120FDF77FFD0E4A01
:104210000123A360236013600C4B0D4A0093CDE98A
:10422000015500232846FFF735FF3046FFF78CFC89
:10423000284604B070BD00BF0010014003000F000D
:10424000380E002000E100E0901D0020AD3F00008E
:10425000FFFF7F002DE9F7432B4CD4F80433990777
:104260000BD5D4F8043143B1284A0023C4F80431F3
:10427000D4F80431136801331360D4F80433DA033B
:1042800023D5BFF35B8F224B53E8002F22F00101AF
:1042900043E800100028F7D1BFF35B8FD30702D4A7
:1042A000D4F840318BB10025C4F84051D4F84031E6
:1042B000FFF7CEFEEFF3108272B6164BD3E902671A
:1042C000B042B94104D282F3108803B0BDE8F08354
:1042D0004FF0FF384FF0FF39C3E90289D3E90010EE
:1042E0001D604FF48033C4F84833C4F84051D4F80B
:1042F000403182F310880029E7D0009032463B46D7
:1043000028468847E1E700BF00100140941D0020C7
:104310008C1D0020380E002030B5431C124C85B097
:1043200005D08442A8BF0446012CB8BF0124FFF782
:104330008FFE0E4B0C4DD3E90013401AB0F5000F61
:1043400010D22218AA4228BF2A4652184FF0000065
:1043500007490091CDE9010043F10003FFF79AFE00
:1043600005B030BD2A46F0E7FFFF7F00480E002071
:10437000AD3F000008B5FFF76BFE024B1B68C01A8B
:1043800008BD00BF480E00200B4B0C4A1B7AC2F838
:104390001035042B0DD8DFE803F008030C080300E8
:1043A000074BA0221A6001207047054B4FF496720C
:1043B000F8E70020704700BF901E0020001000406A
:1043C000A01D0020044A0023C2E908339362034A77
:1043D000C2E90833936270475C1E0020301E002043
:1043E000054B1B68D3F80423920342BF0022C3F895
:1043F0004421D3F8443170476405002038B50028C3
:104400000D490E480E4D40F2044408BF4FF480643D
:10441000FBF77CFE28B900F0E5FE2B68C3F80042EC
:1044200038BD084BDB7C002B2B680CBF8122282277
:10443000C3F84825F1E700BF1C0500207494000074
:1044400064050020901E002008B5084B1B6801225F
:104450001A61FBF76DFEFBF765FE00F0DFFE03203F
:10446000FBF76CFEBDE80840FBF74ABE6405002080
:1044700007B50B4B0B48DA7C90F90A00002302F5D4
:10448000166201A9FBF766FE9DF80500FBF75CFECE
:104490009DF80420044BC3F80C2503B05DF804FB21
:1044A0004C050020901E00200010004010B5064C66
:1044B0000649204604F0EBF9C1F82405201D04F05C
:1044C000E6F9C1F8280510BD540500200010004091
:1044D000EFF31181402383F31288BFF36F8F074AF4
:1044E000936A013B9362536A0133082B28BF002370
:1044F000536281F31188BFF36F8F70475C1E0020F9
:104500002DE9F843224BDFF88C801A78012A814686
:104510000F4630D198F80030C3F3050203F03F0393
:10452000202B33D81C4B196A53F821301A701A4DBE
:104530001A492C6A55F824603046013410F8052BCE
:1045400004F009FE164B86F80190D3F84835377110
:1045500003F07F03B37098F80130DB4303F00103ED
:10456000F370AB6A082C28BF002401332C62AB62C5
:104570000120BDE8F883084A116A52F821205978D1
:1045800009B91170D3E75B7C1370D0E70020F0E726
:10459000901E0020F4210020301E0020F621002073
:1045A00000100040837842781B0443EA022302781B
:1045B0001343C27843EA0253027943EA82534279B1
:1045C00043EA0263827943EA8263C27943EA42732F
:1045D000094AC2F81435837A417A1B0443EA01235D
:1045E000017A0B43C17A43EA0163017B43EA4163E9
:1045F000C2F81835704700BF001000401FB50446D0
:104600000D220021684604F0B4FD0A4B00930A4BCA
:104610005B7CE0B2013B8DF808008DF809008DF855
:104620000A30684601238DF80B30FFF7BBFF04B05A
:1046300010BD00BF000101004C0500201FB5002384
:10464000CDF80930CDF80130CDF8053003238DF8D1
:10465000023006238DF800300C4B5B7C013B8DF85B
:104660000A3020238DF80830094B1B7A012293422F
:104670008DF80B2007D18DF805206846FFF792FFD3
:1046800005B05DF804FB042BF5D0F6E74C050020DF
:10469000901E0020F8B55A4B5A4F5B4D3C785B4E4C
:1046A00001221A605A4B5A6A53F822102960002CD2
:1046B00045D0012C66D001242B68564D5A78C5F898
:1046C0002C255B78012707FA03F3DBB2C5F83035F8
:1046D000514BDA7CC5F808251433BFF35B8F53E8E0
:1046E000001F21F0010143E80012002AF7D1BFF3B7
:1046F0005B8FFFF7BDFE494BC5F804650222C3F886
:1047000080213846FDF702FB0022C5F80421D5F8C8
:104710000431C5F80821D5F80831C5F81021D5F8BD
:104720001031C5F80C2110462146D5F80C3100F0A7
:104730008BFD2046FFF762FE394B9F61F8BD394B78
:10474000348008781B689847296833780A7930469E
:1047500062F3010300F8023B11F8052B04F0FBFCA7
:104760002C4B40F21B12C3F800221022C3F8042382
:104770002D4BFA891A602D4B2D4A1A602D4B0222BF
:104780001A7098E7CA780023338012B1BC7C84F099
:1047900001040B7991F800C030785B0003F0060348
:1047A000002A08BF43F00103727822F00702134386
:1047B0006CF305003070737011F8052B1E4804F07F
:1047C000CAFC144B19491B4A74B140F21B10C3F8C0
:1047D00000021548FC890460154808600221117028
:1047E0001022C3F8042366E740F21310C3F8000256
:1047F00012480860012111701022C3F804235BE7FE
:10480000A41D0020901E0020881E002016220020DB
:104810005C1E0020001000404C05002000E100E07C
:1048200000400140981D0020A81D00209C1D002074
:10483000C149000038220020182200202149000030
:10484000684620F007018D4619B5144BD3F80423B0
:10485000D2060BD5D3F8102142B10022C3F81021A3
:10486000D3F810310E4B1B6803B198470B4CD4F8AA
:1048700004331B070BD5D4F80C3143B1084B1B682C
:1048800003B198470023C4F80C31D4F80C31FCF77D
:10489000E5FFBDE819408546704700BF00100040A5
:1048A0009C1D0020684620F007018D4631B5194B4C
:1048B00082B01B680193EFF31181402383F31288C8
:1048C000BFF36F8F144B00221D681A6081F31188AB
:1048D000BFF36F8F114C2368ABB1E90703D58DF897
:1048E000002068469847AA0705D501238DF80030B7
:1048F0006846236898476B0705D502238DF800307A
:10490000684623689847FCF7A9FF02B0BDE831402C
:1049100085467047A41D0020AC1D00208C1E002081
:1049200010B5FBF7FFFB154B154C1B6801221A61F4
:1049300000F074FCFBF7E4FB00221046114600F087
:10494000EFFC104A1048136843F001031360A36A98
:104950003BB90E4B00221A704FF48013C0F800319F
:1049600010BDFFF7B5FDA36A002BF2D04FF4801302
:10497000C0F80031BDE81040FFF78CBE6405002090
:104980005C1E0020AC1D002000E100E03822002069
:1049900008B5FBF7C7FB07490748FBF7BDFB074B0B
:1049A0001A68D2F8003223F4806323F00403C2F8BB
:1049B000003208BD1C0500208C9400006405002016
:1049C000002270B510460121224C234D234E00F0E9
:1049D000A7FC00F023FCFFF7DBFF40F21313C4F841
:1049E00000321F4B1D481A6800230D32194604F08F
:1049F00062F8EB7CA989002B0CBF8122282230466B
:104A00008A1A0023012104F056F8336840F202228A
:104A10000026C3F80022C3F84061D3F84021C3F850
:104A20004461D3F8443100F039FD00F011FDC4F8C1
:104A30000C612878D4F80C3110B90A4B1B689847E0
:104A4000094BC4F80435094B094A1A60094B032283
:104A50001A7070BD00100040901E002064050020F8
:104A6000A01D0020981D0020F42100209C1D002086
:104A7000DD4A00003822002038B50A4C0A4D236870
:104A8000D3F844358133EB6000F0ACFB074928468E
:104A9000FBF73CFB20B9236840F20442C3F8002234
:104AA00038BD00BF64050020340500201C0500202F
:104AB00008B500F0B3FBFBF735FB0320FBF73EFB2B
:104AC000054B1A68D2F8003223F4806323F0040304
:104AD000C2F8003208BD00BF6405002070B500F0C8
:104AE0000FFDFBF725FBFBF70BFB4F4B4F4AD3F8B2
:104AF0000C11002943D0D3F80034D9073FD54C4CD2
:104B00004C4D23684C4E43F0010323601268EB893F
:104B10009B1A4A4A01331360B36A0BB1FFF7D8FC02
:104B20002B78B3B1464B1A78920612D05978454B80
:104B30003D4A9B6AD2F82C05072BC1F3410108D8E6
:104B400000F00700FFF7DCFC18B1236843F0040312
:104B50002360B26A3C4B12B12A7C012A07D13B4A3E
:104B6000002111704FF48012C3F8002170BD4FF482
:104B70008012C3F80021BDE87040FFF78BBD1368B9
:104B8000324E334D591E11607BB92A6801211161E3
:104B9000284AD2890A4429490A6025490A6842F00C
:104BA00002020A603370284BDCE71F4C0023C4F874
:104BB0000031D4F8003140F21B13C4F80032254B09
:104BC0001A68254B10781B689847244BC4F80435A5
:104BD000234B244A1A6002233370FFF749FCFFF786
:104BE0004BFF00F0FBFB2B68D3F84421C2B1D4F893
:104BF0005035DBB2092BB9D0D4F80041002CB5D127
:104C0000FFF756FF00F024FC22460121204600F069
:104C10001BFB0120FFF7F2FB134B01229A61A5E772
:104C200001221A60A2E700BF00100040A81D00206A
:104C3000AC1D0020901E00205C1E0020A41D002042
:104C4000F4210020301E002000E100E03822002086
:104C500064050020881E0020981D002016220020D8
:104C60009C1D0020C14900000040014010B500F02B
:104C7000B1FCFFF7E9FB134801F0CCFB00F0D4FCDA
:104C8000114A1248D2F8503623F00103C2F85036C8
:104C90000F4B00241C700F4B21461C70FFF792FB3A
:104CA000202204F066FA0C4B01201C605C60FDF7CA
:104CB0003BF81420FDF738F8BDE810400A20FDF756
:104CC00033B800BF6405002000100040FC1E002027
:104CD0003822002039220020EC210020F0B50446C3
:104CE00085B0002800F0C580634D2B780BB1FFF72D
:104CF000BDFF624B62681A60614A234604F11007E7
:104D0000164618685968144603C40833BB42224645
:104D1000F7D1186820605B4B5B48002420222146B5
:104D20001C6004F026FA594B59491C605C60FFF77F
:104D30002BFB337883B1012B01D1564B0B60727A78
:104D4000554B012A00F08880022A07D07AB9C3F8AF
:104D50003C25C3F8342508E0504BEFE74FF6FF70D1
:104D6000C3F83C05C3F834254D4AC3F838250B6811
:104D7000707C9847484B4B494B484FF0E732C3F89B
:104D80001C254FF04332C3F82025484AC3F8242598
:104D9000474AC3F82825FFF715FB0A4600230133CD
:104DA000082B40F8042B02F12502F8D1414A424871
:104DB00000230133082B40F8042B02F12502F8D11F
:104DC00000223E4B14460132082A19601C719C6077
:104DD00001F1250103F10C03F5D12022002138480F
:104DE00004F0C7F9374B384A3848019301A9CDE997
:104DF000024401F0DFFA364B984235D100F0A6FBB1
:104E0000044698BB00F0E2FB324B23495860D1F8CE
:104E10005026F37C22F001021343C1F850360121E1
:104E200008462246FCF7A2FF224602211420FCF786
:104E30009DFF224602210A20FCF798FF0120FCF783
:104E400065FF1420FCF762FF0A20FCF75FFF224B8E
:104E50001C7001232B7009E0FF20C3F83C05C3F848
:104E6000342540F2071280E76FF00D04204605B0AC
:104E7000F0BD6FF01504F9E7392200208C1E0020E8
:104E8000901E0020AC1D0020FC1E0020EC21002004
:104E9000981D00203D46000000100040FD45000028
:104EA00021100100C42000205C1E0020E743C32322
:104EB000A363E3139C1F0020301E0020D01D0020A0
:104EC000B01D002040420F00E143000064050020B7
:104ED0000000AD0B1C050020382200202DE9F04118
:104EE000544B1B78002B00F09980002800F09F8025
:104EF00003785A1E1F2A00F294804F490A781AB983
:104F00004A7C9A42C0F08D804C4B9A6A072A00F284
:104F10008B804278072A00F28A80EFF311854022C5
:104F200082F31288BFF36F8F4A7822BB1C6A53F852
:104F30002440024600F1240652F8047B44F8047B26
:104F4000B242F9D11278227046783D4CA25D01320E
:104F500002F00302A2551A6A407853F82220205C1E
:104F600010711A6A0132082A28BF00221A629A6A4E
:104F700001329A623AE0334C0022A44694F804E0ED
:104F8000BEF1000F2DD10C2757430CEB070601246F
:104F90005CF807703471C6F808E0044600F1240E8E
:104FA00054F8048B47F8048B7445F9D124783C708D
:104FB00090F801E0224F17F80E40013404F003048A
:104FC00007F80E400C24624344785CF802203C5DF4
:104FD000147144781C4850F8242092B940F8246099
:104FE000C5E70132082A04F10C04C7D185F3118802
:104FF000BFF36F8F4B780A7C134308D00020BDE8C5
:10500000F08110469268002AFBD18660AFE70F4B13
:105010001B78002BF2D1FFF73DFBEFE76FF00C00A0
:10502000EDE76FF07900EAE76FF00B00E7E76FF06C
:105030001500E4E739220020901E00205C1E0020AD
:10504000EC210020D01D0020B01D002038220020BF
:1050500038B5254B1B78002B3CD000283DD0234C85
:10506000A36A002B3CD0EFF31185402383F3128811
:10507000BFF36F8F636A54F823301A780270636A43
:1050800054F823305B784370636A54F8233093F903
:1050900002308370636A54F823301B790371636AAA
:1050A00054F82330DB78C370636A54F8231005305A
:1050B000053104F050F8636A0133082B28BF002340
:1050C0006362A36A013BA36285F31188BFF36F8F0C
:1050D000002038BD6FF00C00FBE76FF01500F8E71B
:1050E0006FF03C00F5E700BF39220020301E0020A1
:1050F00008B50B4B1B7803F0FF015BB968B103687F
:105100000848036003F0C3FB074B00BAC3F81C0553
:10511000084608BD6FF00F00FBE76FF01500F8E7D9
:10512000382200204C0500200010004008B50C4B30
:105130001B7803F0FF0163B970B10368094840F8B8
:10514000043F03F0A4FB084B00BAC3F8200508464F
:1051500008BD6FF00F00FBE76FF01500F8E700BF28
:10516000382200204C0500200010004038B50F4BBD
:105170001B780C4603F0FF0593B9A0B1082912D89B
:105180000A4601460A4803F0E6FF0A4AFF23147460
:10519000C4F1080423419374FFF788F9284638BD09
:1051A0006FF00F00FBE76FF01500F8E738220020E2
:1051B000540500204C0500206428034607D8074A00
:1051C000127802F0FF002AB9054AD37470476FF0D5
:1051D000150070476FF00F00704700BF38220020A5
:1051E0004C050020094B0A491A78D30003F180438B
:1051F00003F5F833C3F810150649C3F81415012355
:105200009340054AC2F80435704700BF3C22002095
:105210001841014000A0004000F00140084B09493E
:105220001B7801229A40DB0003F1804303F5F83339
:10523000C1F808250022C3F81025C3F814257047CB
:105240003C22002000F00140F0B52B4B2B4C1B788A
:105250002B4FDA0014442B4A0025C2F81851D2F81B
:105260001821294A15788000EA00C0B202F1804274
:1052700002F5F83200F1804000F58050C2F8107558
:10528000C2F81405214A05F5117042F82040204A61
:1052900020481678F20002F1804202F5F83201242B
:1052A000C2F8100500F5973000F58470C2F81405B7
:1052B00004FA06F604FA05F0304369B1164A174EAF
:1052C0001178CA0002F1804202F5F8328C40C2F82F
:1052D00010752043C2F814659B0003F1804303F569
:1052E000F8330122D3F80018AA400A43C3F8002873
:1052F000064BC3F80405F0BD3A22002004F001403B
:1053000018410140004001403D22002000F00140D2
:105310003B220020101100403C22002000A0004051
:10532000F0B5294B294E1878294B1A78012404FA34
:1053300002F304FA00F51D4300F51177C3004FEAAC
:10534000C20C19BB03F1804303F5F833C6F80855C6
:10535000C3F81015C3F8141546F827100CF1804354
:1053600003F5F833C3F81015C3F81415194B1B785F
:105370009B0003F1804303F5F8330121D3F80028A3
:10538000814022EA0102C3F80028F0BD124A1278D7
:1053900003F1804303F5F833944000212C43C6F811
:1053A0000845C3F81015C3F814150CF1804303F534
:1053B000F83346F82710C3F81015C3F81415D300B6
:1053C00003F18043CCE700BF3D22002000F0014004
:1053D0003B2200203A2200203C220020154B164997
:1053E00016480022C3F81821D3F81831144B1B7843
:1053F000DA0002F1804202F5F832C2F8101501F528
:10540000973101F58471C2F814150E4A1178CA005B
:1054100002F1804202F5F832C2F810050A48C2F8DB
:105420001405012202FA03F38A401343074AC2F823
:1054300004357047004001401011004044A1004075
:105440003B2200203E2200200010004000F00140DE
:105450000F4B1A780F4B1B78012101FA02F099408B
:10546000D200DB00014302F180420B4803F180438C
:1054700002F5F83203F5F833C0F808150021C2F838
:105480001015C2F81415C3F81015C3F81415704799
:105490003B2200203E22002000F00140134B144923
:1054A0001B781448DA0002F1804202F5F832C2F8A3
:1054B000101501F50F410C31C2F814150E4A117880
:1054C000CA0002F1804202F5F832C2F81005A0F5D8
:1054D00011403038C2F81405012202FA03F38A4061
:1054E0001343064AC2F80435704700BF402200202B
:1054F0000411004040A100403F22002000F0014084
:105500000F4B1A780F4B1B78012101FA02F09940DA
:10551000D200DB00014302F180420B4803F18043DB
:1055200002F5F83203F5F833C0F808150021C2F887
:105530001015C2F81415C3F81015C3F814157047E8
:10554000402200203F22002000F0014038B51748DB
:1055500000F0C0FE164B9842054622D1154800F0D7
:10556000B9FEA84204461CD1134800F0B3FEA04285
:10557000054616D1114800F0ADFEA842044610D1F0
:105580000F4800F0A7FEA04205460AD10D4800F0E2
:10559000A1FEA842044604D10B4800F0B5FEA0428B
:1055A00002D06FF0120038BD0020FCE73D22002041
:1055B0000000AD0B3B2200203C22002040220020B6
:1055C0003F2200203E2200203A220020004870475F
:1055D000101100400E4B0F491B780978012202FA86
:1055E00001F102FA03F30B430B49097802FA01F1C6
:1055F0000B430A49097802FA01F10B43084909787B
:105600008A401343074A43F00103C2F80835704744
:105610003D2200203F2200203B2200203C2200208F
:105620004022002000F0014038B5184B187800F0F7
:1056300057FE174B9842044627D1164B187800F0B6
:105640004FFEA042054620D1134B187800F048FECB
:10565000A842044619D1114B187800F041FEA0422F
:10566000054612D10E4B187800F03AFEA8420446C7
:105670000BD10C4B187800F033FEA04205D10A4B39
:105680001878BDE8384000F045BE38BD3D22002006
:105690000000AD0B3B2200203C22002040220020D5
:1056A0003F2200203E2200203A220020024AD2F867
:1056B0000034002BFBD0704700E0014010B54FF0E4
:1056C0008053D3F830210D2A55D14FF0804100226C
:1056D000C1F80C21C1F81021C1F83825464AD3F889
:1056E0000404C2F82005D3F80804C2F82405D3F84E
:1056F0000C04C2F82805D3F81004C2F82C05D3F81E
:105700001404C2F83005D3F81804C2F83405D3F8ED
:105710001C04C2F84005D3F82004C2F84405D3F8AD
:105720002404C2F84805D3F82804C2F84C05D3F87D
:105730002C04C2F85005D3F83004C2F85405D3F84D
:105740003404C2F86005D3F83804C2F86405D3F80D
:105750003C04C2F86805D3F84004C2F86C05D3F8DD
:105760004434C2F87035D1F80034DB0709D56FF046
:105770000103C1F800344FF08053D3F830310D2BC2
:105780000CD14FF08053D3F834313BB14FF010239C
:10579000D3F808224FF08043C3F858254FF0102368
:1057A000D3F80022002A03DBD3F80432002B22DADC
:1057B000124901234FF01020C1F804351224FFF7DD
:1057C00075FFC0F80042FFF771FFC0F80442FFF711
:1057D0006DFF0023C1F80435FFF768FFBFF34F8F5B
:1057E0000749084BCA6802F4E0621343CB60BFF379
:1057F0004F8F00BFFDE710BD00C0004000E001403A
:1058000000ED00E00400FA0530B50468CCB1BFF348
:105810005B8FB4FA84F3C3F11F03DBB201229A4019
:1058200024EA020250E8005FA54204D140E8002CBF
:10583000BCF1000FF6D1BFF35B8FE6D102480B70CD
:1058400030BD0248FCE700BF0000AD0B0200AD0B0D
:1058500010B50368CB40DB0714D401238B400268EA
:10586000BFF35B8F43EA020150E8004F944204D13A
:1058700040E8001CBCF1000FF6D1BFF35B8FEED106
:10588000014810BD0148FCE70000AD0B0400AD0B62
:10589000044B1A7922B9012218601A710248704724
:1058A00002487047A41E00200000AD0B0C00AD0B99
:1058B00008B5094B1B682BB10020FCF749FA08B961
:1058C000FCF724FA4FF080430022C3F81825034B5D
:1058D00001221A7008BD00BFA41E00204122002032
:1058E00010B510B1012843D010BD4FF08043D3F85C
:1058F0001814D3F81824C80321D502F00303012B90
:1059000004D013B1002002F0D9FF00234FF08042F1
:105910000220C2F8183508224FF4827303F1804345
:105920000021196002F180421C6801241460154AAC
:1059300012680AB34FF08043C3F80403D4E7D3F8E6
:105940001424D107E1D5D3F81C249207DAD40D4AE8
:1059500012681AB10222C3F80423C5E7D3F8042160
:10596000002AFBD00022C3F80421D3F80431BBE79E
:1059700000224FF48073D1E71A68002AFCD0196026
:105980001B68B1E7A41E002010B54FF08043D3F888
:10599000002152B10020C3F80001D3F800210122F8
:1059A000C3F80823104B1B6898474FF08043D3F887
:1059B000042172B10022C3F80421D3F80421D3F8E2
:1059C0001824D3F81824920704D10122C3F818250B
:1059D0009A6010BD0222C3F80823034BBDE81040B3
:1059E0001B680120184700BFA41E0020036803F0B5
:1059F0001F025B09026004D0012B034818BF00207E
:105A000070474FF0A040704700030050034A43091D
:105A100000F01F00D35C1844C0B2704782950000AC
:105A200070B50546FFF7F2FF0C4C08300E4634F80F
:105A30001030DA0508D5C3F3432304EBC30228462C
:105A400054F8333052689847A3682BB1E268314666
:105A50002846BDE87040184770BD00BF6C050020A7
:105A600008B5FFF7D3FF034B083033F81000400BA5
:105A700008BD00BF6C05002008B5FFF7C7FF034B4A
:105A8000083033F81000C0F3400008BD6C0500205A
:105A900008B5FFF7BBFF034B083033F81000C0F325
:105AA000401008BD6C050020034611F0010010B540
:105AB000CCB20DD1A207C4F3400012D5094AD2F8E6
:105AC00020055860C2F82005003818BF012008E002
:105AD0004FF0A041D1F820251A60C1F82025002AF6
