:10000000280D00200D07000015190000F90600005A
:10001000F9060000F9060000F9060000F9060000E4
:10002000000000000000000000000000B107000018
:10003000F906000000000000F9060000F9060000C3
:1000400071080000710800007108000071080000CC
:1000500071080000710800007108000071080000BC
:1000600071080000710800007108000071080000AC
:10007000710800007108000071080000710800009C
:10008000710800007108000071080000710800008C
:10009000710800007108000071080000710800007C
:1000A000710800007108000071080000710800006C
:1000B000710800007108000071080000710800005C
:1000C000710800007108000071080000710800004C
:1000D000710800007108000071080000710800003C
:1000E000710800007108000071080000710800002C
:1000F000710800007108000071080000710800001C
:10010000710800007108000071080000710800000B
:1001100071080000710800007108000071080000FB
:1001200071080000710800007108000071080000EB
:1001300071080000710800007108000071080000DB
:1001400071080000710800007108000071080000CB
:040150007108000032
:1001540000234FF080500A4A03F180010133202B21
:1001640042F82100F8D100234FF08050054A03F1F2
:1001740080010133102B42F82100F8D10020704790
:10018400002584500028845008B5134BD3F800216F
:10019400D2B1531C1BD04FF47F01D1F8203C22F084
:1001A400010203F01F030E3A38335343D1F8201CE5
:1001B400C1F3441203EB0213603B084A9B0943F466
:1001C4008073C2F8C43502E0044BC3F8C425044963
:1001D400044801F0C0F900BF0080FF000040005057
:1001E4007016085000160850014B1B68184700BFD2
:1001F4000000002030B585B004460D4610220021D1
:10020400684601F002FC02238DF80230044B2A46B2
:1002140021466846019300F043FF05B030BD00BF9E
:10022400ED0100002DE9F047058B044628079046B0
:1002340011D4022905F0070540F0CC80204601F0D6
:1002440083FA78B10138218B042811D8DFE800F053
:10025400C2106D85950001290CBF45F0100545F0CD
:100264002005258388F31188BFF36F8FBDE8F087DD
:1002740001F0070AAA4500F0A5800027B9463E46CA
:10028400A368002B00F0BC8041F00801218388F3AF
:100294001188BFF36F8FA168002900F0BA800D6840
:1002A400002900F0B680334652462046D1F8048037
:1002B400C047002D76D02B6829461D46F0E701F093
:1002C40007035A1F012A1BD8002221F00701062B1D
:1002D400276889B2C4E9002209D13B4603E0628B56
:1002E400013262831B68002BF9D141F002012046E0
:1002F400218301F029FA00287AD041F0200176E028
:10030400042B0AD121F0070189B22046218301F090
:100314001BFA10B141F020012183218B01F0070A5F
:10032400AA454FD00027B946AAE7236921F007015F
:1003340041F00601062DD3F8009021832DD1B9F1A7
:10034400000F3FD041F00801218388F31188BFF3E7
:100354006F8F20463949C84729E021F007012369F6
:1003640041F0040189B2042DD3F804902183E6D02E
:1003740000274FF0040A3E4682E721F00701236973
:1003840041F0050189B2052DD3F808902183D6D018
:1003940000274FF0050A3E4672E700274FF0060A91
:1003A4003E466DE72B4687E7B9F1000FD1D1EFF355
:1003B4001188202383F31288BFF36F8F238B23F0DC
:1003C40008032383258BEA062ED525F01003238307
:1003D40005F007056669218B002EBFF670AF002378
:1003E4002768C4E9003321F0070141F001012183AA
:1003F400218B4FF0000901F0070AAA457FF440AFB2
:10040400002F9CD041F00801218388F31188BFF3A9
:100414006F8F002FC8D03D68394633465246204678
:1004240001F0BEF92F46F4E7AB067FF51BAF25F0CC
:100434002003238305F0070500E700BFD117000060
:1004440008B5044801F073F9BDE80840024801F01A
:100454006EB900BF0F1E0000441E0000014800F0EA
:1004640019BD00BF581D000030BFFFF7FDBF00BF1E
:10047400154B9A6A12F0007F9A6A14BF1E201D2041
:1004840012F0807F9A6A18BF1F2012F4801F9A6AA4
:1004940018BF022012F4002F9A6A18BF212012F408
:1004A400802F9A6A18BF222012F4003F9A6A18BF5C
:1004B400232012F4803F9A6A18BF24206FEA024274
:1004C4006FEA12429A62704700ED00E010B5194BD2
:1004D4000246986A9C6A10F4805F14BF17201620A5
:1004E40014F4006F9C6A18BF1820A40509D5986BF2
:1004F400986A000404D51AB19A6A22F400429A62F6
:1005040019200C4B9A6A12F4806F9A6A18BF1A2049
:10051400D2050CD49B6A13F4005F18BF1C20054A53
:10052400936A43F47F43936200230B7010BD1B2036
:10053400F5E700BF00ED00E010B51C4B0246986AD9
:100544009C6A10F0100F14BF1120102014F0080F33
:100554009C6A18BF1220A40709D5586B986A000634
:1005640004D51AB19A6A22F080029A6213200F4BC2
:100574009A6A12F0010F9A6A18BF142012F0200F21
:100584009A6A18BF1520D40658BF9B6A074B9A6A0B
:10059400920642BF5A6A22F400525A629A6A42F0A0
:1005A400FF029A6200230B7010BD00BF00ED00E053
:1005B400F0B5474B04465B6800258BB0C3F30803D2
:1005C40085F31188BFF36F8F02F07F40B0F17F4F46
:1005D40011D102F00C0008280DD010074CBF0C46B6
:1005E40001250022033B8DF80720032B05D8DFE803
:1005F40003F02462665F2C46F3E700239DF807208E
:10060400CAB902AE04F12007324620686168083492
:1006140003C2BC421646F7D1099A002D53D0C2F347
:10062400080121B96FEA52226FEA42220992184660
:1006340002A901F063F90BB0F0BD254BDA6A91070A
:10064400DBD4DA6A002AD8DBDA6A5200D5D55A69D3
:10065400A16942F480725A61BFF34F8FBFF36F8F69
:100664005A6931F8021C22F480725A61BFF34F8F29
:10067400BFF36F8F4DF60272914209D09A6AD2B2DB
:1006840042B101200DF10701FFF756FF0346B5E71C
:100694002368B3E79A6A12F47F4F05D001200DF165
:1006A4000701FFF713FFF1E79B6AB3F5803FA4D37B
:1006B400FFF7DEFEEAE700200DF10701E4E7002082
:1006C4000DF10701EDE722F4FF7222F00102ADE71C
:1006D40000ED00E0064B5A6942F010025A615A6973
:1006E40042F480625A615A6922F008025A617047E2
:1006F40000ED00E0EFF30880EFF3098101B57246E5
:10070400FFF756FF01BD00BF002080F31488BFF33C
:100714006F8F002080F30A8880F30B880F4880F3E2
:10072400088800F0AFF900200D490860BFF34F8F2F
:1007340000F01AF8202080F311880A484FF4006171
:10074400401880F30988EFF314800221084380F3F2
:100754001488BFF36F8F00F03BF80000280D0020D1
:1007640094ED00E02801002072B6002383F313887F
:100774004FF0FF300C4A03F120010133102B42F8F3
:100784002100F8D100234FF0FF30074A03F1600144
:100794000133102B42F82100F8D162B6BFF34F8F1A
:1007A400BFF36F8F704700BF00E100E01EF0040F3D
:1007B4000CBFEFF30880EFF30980816911F8021C84
:1007C4000229FFD001B5724601F09EF801BD00BFB9
:1007D4000B4A08B50B4B22F07F029A60BFF34F8F90
:1007E400BFF36F8FD3F8882022F47002C3F88820F7
:1007F40000F0A0FA00F0E2FA00F02CF800F0A6FAFB
:100804000000000000ED00E0154680B506460C46E9
:10081400002282F30B88094FA7F5806888F30B88C0
:1008240087F309884FF00000054988472046294688
:100834001A46B04703488047FEE700BF280D002052
:100844002D1900003B1900001022014B1A6170475A
:1008540000ED00E0002320210348C2180133452B9A
:1008640082F80013F9D1704700E100E008B5EFF316
:100874000583064A103B02EBC30152F83300496872
:100884008847BDE8084001F04AB800BF241B0000B7
:1008940008B50649064821F00701C1F1005202F5E6
:1008A400E02200F0EAFE002008BD00BF2F0D00206A
:1008B4008000002000F01F0240090DD001280DD156
:1008C400094B03EB8203D3F8002222F0E04242EA10
:1008D4000171C3F800127047044BF2E70023803221
:1008E40053F82230FFDE00BF0028845000258450D6
:1008F40038B50124114B124DC3F8004502230321DE
:10090400C5F8D0360020FFF7D5FF20460321FFF7B6
:10091400D1FF21462120C5F8004BFFF7CBFF21462C
:100924002020FFF7C7FF21460B20FFF7C3FF214616
:100934000A20FFF7BFFF002038BD00BF00100050A1
:100944000040005007B50DF1070000F0B5F9114B58
:1009540098421CD14FF480620F4B1049C3F8B8255C
:100964004FF40062C3F83C259DF8070001F003F83A
:100974000B499DF8070000F0F9FF01209DF80730AE
:10098400984000F093F9002003B05DF804FB6FF089
:100994000B00F9E70000AD0B00A002502CA00250A0
:1009A40028A102500149024800F01DBF601D00004B
:1009B4008C0000204FF47F032DE9F041D3F830215F
:1009C4000646072A0D46D3F8343120D1023B032BC7
:1009D40002D8124AD35CD3B14FF050244FF001082F
:1009E40000270520C4F81886C4F8147600F02CF902
:1009F4004046C4F8148600F027F9C4F81476C4F805
:100A0400187630462B46BDE8F041002118474FF0D8
:100A140050230022C3F81426F3E700BF721E00001F
:100A24001FB50023019303930123694605480293EC
:100A340000F0ECFE029B9B0708BF039B05B05DF82A
:100A440004FB00BF8C000020102208B5034BC3F840
:100A54004024FFF7E5FF002008BD00BF0030005030
:100A64004FF47F03D3F83021D3F83431072A05D16A
:100A7400023B032B02D8024AD05C70470020704727
:100A84007E1E000008B5FFF7EBFF58B1644BD3F8A6
:100A9400202A3AB90D21C3F8201A0121C3F81C19E0
:100AA400C3F81C290022D30003F57F03D3F80013F5
:100AB400013107D0D3F800130132D3F80433202ACC
:100AC4000B60F0D1FFF7CCFF002840F0A080FFF7C7
:100AD400C7FF40B1534B544AC3F830254FF050235D
:100AE4000122C3F858254FF47F03D3F83021D3F8FB
:100AF4003431072A09D1023B032B06D84B4AD35C75
:100B04001BB100224A4BC3F84C25FFF7A9FF50B193
:100B14004FF05023D3F80024D10742BF0022C3F87A
:100B24001421C3F818214FF47F03D3F83021D3F8EC
:100B34003431072A09D14FF05023D3F80024D207C7
:100B440044BF6FF00102C3F80024FFF789FF18B116
:100B54006522334BC3F80C274FF47F03D3F83021BD
:100B6400D3F83431072A16D1314BD3F82034002B73
:100B740011DA4FF050230322C3F8182501229A609A
:100B8400D3F80421002AFBD00022C3F80421012257
:100B9400DA60C3F818254FF47F03D3F83021D3F873
:100BA4003431072A23D1023B032B02D8214AD35CD8
:100BB400EBB17E221A4B1B49C3F80C27C3F83C291E
:100BC4007F231D4AC2F818310023C1F8043EC1F83E
:100BD400083E01F54821C1F81031C2F82431C2F8A9
:100BE4002C3102F5FF1202F58052C2F8A032134AEA
:100BF400D2F88C3043F44063C2F88C30104A114B65
:100C04001168C3F84415D269C3F84C2508BD2922DC
:100C1400034BC3F80C270322C3F83C2757E700BF54
:100C240000400050009003504400EFBE7A1E0000C4
:100C340000200350761E00000020005000ED00E06C
:100C44000080FF000060005048B1054B054A1B6856
:100C5400B3FBF2F35843044B43F0010318477047C6
:100C64000400002040420F00501D000030B504680D
:100C7400ACB1B4FA84F30122C3F11F03DBB29A408E
:100C840024EA0202D0E8EF5FA54204D1C0E8EC2FC9
:100C9400BCF1000FF6D1EAD102480B7030BD024816
:100CA400FCE700BF0000AD0B0200AD0B014BC3F825
:100CB40004057047007001500146014800F002B875
:100CC400080000200079024B03EB0010FFF7CEBFB1
:100CD4001000002038B5094B53F82040013053F878
:100CE4002050A54200D838BD636823B1204600F0E7
:100CF40061FE0834F5E723689847FAE76C1D0000A5
:100D0400012208B5094B03201A70FFF7E3FFFFF730
:100D140097FB00F06BFE0420FFF7DCFFFFF734FACB
:100D2400034A137B23F00103137308BD240100203D
:100D3400A800002008B50348034A0021121A00F055
:100D440051FE08BD800000202801002008B50020C5
:100D5400FFF7C0FF164B03F5006282F3088883F3A4
:100D64000A880025E023134C84F82230E5772576A1
:100D74006576A57684F82050636A43F4E0236362C1
:100D840084F82350FFF7A6FCFFF75EFD4FF0FF3316
:100D9400A362E36200F02BFE0120FFF79BFF022019
:100DA400FFF798FF2B462A4629460348FFF72CFDF8
:100DB4002801002000ED00E0050D0000074808B5FB
:100DC400074A0849121A00F00FFEBDE80840064819
:100DD400064A0749121A00F007BE00BF00000020AF
:100DE40080000020941E000000000020000000206D
:100DF400941E000010B50A4C23681BB10123236024
:100E0400002010BD00F04EF80028F7D00138072864
:100E140003D8044B53F8200010BD034810BD00BF95
:100E24000C010020841D0000FE8FFFFFBFF34F8FD5
:100E34000549064BCA6802F4E0621343CB60BFF372
:100E44004F8F00BFFDE700BF00ED00E00400FA058E
:100E540030B44FF0FE3200250B4B0C4C0C49496862
:100E6400C3F80024C3F80424C3F80824C3F80C24EA
:100E7400C3F81024C3F81424C3F81824C3F81C249A
:100E8400C4F8005530BC08470050845000408450DA
:100E940020000020024BD0E90012C3E90012704781
:100EA4002000002008B500F011F830B900F010F867
:100EB40038B9054AC2F80C0A08BD00F037F8032017
:100EC40008BD042008BD00BF0050845000207047B6
:100ED40010B5114800F048F800B110BD0F4800F0FB
:100EE40043F80028F9D10E4C204600F03DF80028C4
:100EF400F3D10C4B0C481C6000F036F80146002876
:100F0400EBD100F02DF8044608B1204610BD00F0E6
:100F14003FF82046FAE700BF3800002034000020E4
:100F240030000020280000202C00002008B50848CC
:100F340000F024F8074800F021F8074800F01EF8F4
:100F4400064800F01BF8BDE8084000F00BB800BFED
:100F54003800002034000020300000202C00002045
:100F640000207047704700BF08B5034B02681B6838
:100F740010689847002008BD5000002008B5034BB6
:100F840002685B6810689847002008BD5000002084
:100F940070B5094C094D2069AB68984718B1084BE6
:100FA40008485B6898470021074AEB68116020698C
:100FB400BDE87040184700BF3C00002050000020EE
:100FC40020000020A41D00001001002010B50446DC
:100FD40050B1636813F0685F05D0064A934202D0AB
:100FE40000236260236010BD034B04485B6898478C
:100FF400EFE700BF2C5F5CA920000020C41D0000A7
:10100400C8B143680D4A934213D013F0685F0ED001
:10101400012350E8002F194640E8001C9CF0000F03
:10102400F7D1012AF5D0BFF35F8F00207047044841
:101034007047044870476FF4E04070472C5F5CA928
:10104400E98FFFFFEA8FFFFF034680B14268094939
:101054008A420AD012F0685F05D0BFF35F8F002286
:1010640010461A60704704487047044870476FF48C
:10107400E04070472C5F5CA9E98FFFFFEA8FFFFF18
:1010840010B5044620B10023034A2360626010BDFA
:101094000248FFF7DDFEF6E73A00003AEC1D0000D7
:1010A4002DE9F04F43688DB015468046029383784E
:1010B4009A0740F10D8100240E78002E00F00A8179
:1010C400252E0BD04B1C0393013441463046029B22
:1010D40098470028C0F2F6800399EDE74E788B1C00
:1010E400252E0393F0D00027B946BB46BBF11F0F52
:1010F40038D8A6F12003102B0AD8DFE803F02A0918
:1011040009300909092109090928092D09091F00BC
:10111400A6F13003092B33D92A2E37D11BF0400F07
:1011240055F8043B40F08280002BA7BF4BF0200B06
:101134009946C3F100094BF0280B01E04BF0010B79
:10114400039B13F8016B0393002ECFD130E04BF0D7
:10115400020B4BF0040BF3E74BF0080BF0E74BF0FA
:10116400100BEDE7BBF17F0F19D8A6F13003092B63
:10117400D2D81BF0400F03D00A2101FB0737DFE769
:101184000A214BF0200B01FB0939D9E72E2E06D199
:101194001BF0400F40F09E804BF0400BD0E76C2ECC
:1011A40031D02BD8682E36D06A2E3CD04C2E3AD073
:1011B400002F46F02003B8BF2BF04002A3F16501D5
:1011C400BCBF00271FFA82FB022901D9612B2FD152
:1011D40007350727DFF8ACA225F0070508351BF013
:1011E400080F66D00AEB070B56465E4563D1A4EBA5
:1011F4000A0AA9EB070906EB0A026FE1742E9FD0D5
:101204007A2E9DD0D4E71BF0800F18BF4BF4007BDF
:101214004BF0800B94E71BF4807F18BF4BF4007BEA
:101224004BF4807B8CE74BF4207B89E71F4687E7F0
:10123400A6F16301122900F2F080DFE811F0130037
:101244004F00EE00EE00EE00EE004F00EE00EE0068
:10125400EE00EE00EE00FE00E900EE00EE001B00E2
:10126400EE00AF0055F8043B01270DF1180A8DF884
:101274001830B4E755F804AB834BBAF1000F08BF3C
:101284009A461BF0400F504614BF39464FF0FF31C9
:1012940000F0C3FB0746A2E741462020029B984783
:1012A40000280FDB013EB742F6D34C44B146A41BE1
:1012B40098E74E46F7E7414616F8010B029B98471C
:1012C400002892DA98F8023043F0040388F80230D8
:1012D4004FF0FF3420460DB0BDE8F08F1BF0800FB7
:1012E40034D01BF4007F2CD0073525F00705AA461F
:1012F40069685AF8080B2BF010050029ADB237DAEB
:10130400404245F4806561EB41010DF1180B0A235D
:101314005A4600F08EFBA0EB0B0301936B0662D5DB
:10132400019B25F001019F4289B240F3A180002E68
:1013340000F0998015F0100240F09C80BB460D46E9
:1013440023E0AA465AF8040BC117D4E7AA461BF4B3
:10135400807F5AF8041B01D10846F5E71BF4007F8F
:1013640019BF48B241F3C01108B241F3C031C2E71A
:1013740050EA0103C9D11BF0400FC6D0002FC4D1DD
:101384002BF01102BB46019795B240F2064115EAD3
:1013940001021CBF0BF1010B00222CE02BF0100208
:1013A4000A231FFA82FB1BF0800C49D01BF4007146
:1013B40015BF0735AA4625F007055AF8040B1EBFCA
:1013C400AA4669685AF8080B50EA010545D12BF082
:1013D40016051BF0400FADB242D0002F40D12BF0C8
:1013E4001702019795B215F0100248D0019B002E08
:1013F40042D103F1010B29075AD4EB0706D5D9458D
:101404006FDDA9EB0B030199CB465F185B4649E0FE
:101414004BF0100B10237826C5E7782B04D1C6F1C6
:10142400780343F01003BEE741462520029B98470A
:101434000028FFF647AF023447E608230026B2E748
:10144400AA461BF480715AF8040BBDD01BF400713A
:101454001ABFC0B2614680B2B6E72BF0060295B25D
:101464000DF1180B54E725F01105BB46ADB28CE71E
:101474000D46B8E73B460D4603F1020BBBE7DDF82A
:1014840004B082E7891E0000821E0000CDE9043208
:1014940041462020029B98470028FFF613AF049B87
:1014A400059A01339945F1DCA4EB0B019B46CC185A
:1014B4000AB341463020029B98470028FFF602AF4A
:1014C4008EB901342744391B019B994224DC1D4603
:1014D40055BB019AA9EB0B09554622441446914485
:1014E40033E0019F92E7023441463046029B98471D
:1014F4000028E7DAE6E640F206410D42E2D015F0B4
:10150400020F04F10104414614BF2B20202015F4DE
:10151400806F18BF2D20E9E741463020029B01343B
:1015240098470028CFDACDE606AB013D4146585D29
:10153400029B98470028CBDAC4E641462020029B50
:10154400013498470028FFF6BDAEA9EB0403002B35
:10155400F3DCC1E5704772B6002340F8103B8842C3
:10156400FBD9BFF34F8F30BFFDE7836800EBC101A8
:10157400B3F5004F2CBF51F8220031F81200704728
:1015840000EBC1018068B0F5004F2CBF41F8223058
:1015940021F812307047012208B5FFF7E6FFD0406A
:1015A40008BD836800EBC101B3F5004F08D34B6855
:1015B4001AB143F001034B60704723F00103FAE7CB
:1015C4004B881AB143F001034B80704723F00103A9
:1015D400FAE753000122FFF7D3BFB0F5004F34BF41
:1015E40004230823481C0833A0EBD300B0FA80F08E
:1015F400C0F11F0070472DE9F0410D46866804468E
:10160400FFF7C9FFB6F5004F014601D3012832D0D8
:101614003046FFF7E2FF04EB80010E6996B9012220
:10162400E36882401343E36002220D612B4629469E
:101634002046FFF7A5FF032229462046BDE8F041D6
:10164400FFF79EBF022231462046FFF78EFF074672
:10165400034629462046FFF793FF032233462946D3
:101664002046FFF78DFF39462B462046FFF788FFBB
:1016740002223146E1E7BDE8F081B2F5802F2CBFAC
:10168400082304232DE9F0410026D21A8C18CD1D1D
:1016940025F0070524F00704641BE40805602146CF
:1016A4002046AC60EE60FFF798FF421D92000130C7
:1016B40002F107074FEAD7073146A2F1100205F1FC
:1016C4001000B8BF324600F0A0F93A463146284629
:1016D400FFF77FFF3346324631462846FFF750FF77
:1016E400A4EB0708284631460122FFF75AFF424679
:1016F4003946FFF76EFF3B46324639462846FFF728
:101704003FFF21462846FFF764FF43463246214601
:101714002846FFF735FF214628460122FFF741FFFF
:101724003946BDE8F041FFF766BF002070470FB4AB
:1017340007B504A951F8040B0191FEF75BFD03B052
:101744005DF804EB04B07047038B13F0070305D175
:101754000368002B0CBF002003207047022B05D127
:10176400408BB0FA80F0400980007047012B05D10E
:101774000368002B0CBF0020052070470020704731
:1017840010B50C4600B111B96FF0150010BD081D5D
:1017940000F093F80028F9D1A368032BF6D9F3E7F6
:1017A4002DE9F0410D4607461946281D90461E4670
:1017B40000F094F8044638B1334642462946384688
:1017C400A446BDE8F0416047BDE8F08110B4EFF3F2
:1017D4001182202484F31288BFF36F8F416110BCFF
:1017E4000121FEF71FBD38B50C46054658B151B16D
:1017F4000B6843B14B6833B11C22002100F005F99A
:1018040000202C6138BD6FF01500FBE770B505466C
:101814000E46FFF7B5FF041E14DBEFF311822023FD
:1018240083F31288BFF36F8F4FF6FF716B8B2C8B92
:101834008B4204F0070407D182F31188BFF36F8F42
:101844006FF00A04204670BD022C0CD101336B8367
:1018540082F31188BFF36F8F002322463146284656
:10186400FFF79EFFEEE7062C14D8DFE804F004131C
:101874001313041A0400002333606B683BB9C5E9F1
:101884000066ACB902212846FEF7CCFCDAE71E60FC
:101894006E60F6E782F31188BFF36F8F6FF0040474
:1018A400D0E782F31188BFF36F8F6FF08504C9E727
:1018B40082F31188BFF36F8FC4E7034658B14268BF
:1018C40002F00302012A03D0032A04D1026812B1F0
:1018D4000020986070476FF0150070474268034617
:1018E40002F00302032A4FF00002816014BF104685
:1018F40000685A6070477047FEE77047012801D1BD
:10190400EFF3058300F047B801460068FFF7F6BF20
:1019140008B5FEF7A9FDBDE8084000F000B870471F
:1019240000210120FFF7EABF61B662B680F3118897
:10193400BFF36F8F7047EFF31180202383F3128876
:10194400BFF36F8F70470B464FF050220121C2F84E
:10195400141600211847FFF74DBA08B5FEF77EFDAF
:10196400FFF7CBFFBDE80840FFF744BA40F0004062
:10197400C1F88000704740F00040C1F88000704713
:10198400EFF31183202383F31288BFF36F8FFEE7F5
:1019940008B5FFF7F5FF10B5EFF31184202383F3A7
:1019A4001288BFF36F8FFFF7F3FF84F31188BFF33F
:1019B4006F8F10BD10B5D0E9003433B90020E26850
:1019C400537843F00103537010BD20469847002814
:1019D400F4D00028B8BF4042FF28A8BFFF20E36826
:1019E4001870ECE700F011B800F002B870477047C7
:1019F4000A44431E914200D1704710B511F8014BBF
:101A0400914203F8014FF9D110BD024403469342B9
:101A140000D1704703F8011BF9E70246014410B5F1
:101A24008A42134603D01C780132002CF8D1181ACC
:101A340010BDF0B5C3F13707044603F01F03104689
:101A4400FFB2082BE6B232D0102B3DD06508A408B3
:101A540045EAC17544EA81748A082D1942EB5102A2
:101A6400290941EA02716D1842EB1212290A41EA6E
:101A740002616D1842EB1222290C41EA02416D18F1
:101A840042EB1242AD1842F10002EC0844EA4274FF
:101A9400D10804EB8402A6EB4205EDB2092D0CD962
:101AA4000134A5F10A0541F10001EDB212E0E408A8
:101AB40006F0070544EA4174C908303554EA0102C6
:101AC40000F8015BBDD1F0BD240906F00F0544EA1E
:101AD40001740909092D84BFED19EDB2EDE7000089
:101AE400F508000000000000A90900000000000043
:101AF40055010000000000005B1900000000000018
:101B040049090000000000009508000000000000E2
:101B14005F190000000000004D0A000000000000F2
:101B24000000000025190000000000002519000035
:101B34000000000025190000000000002519000025
:101B44000000000025190000000000002519000015
:101B54000000000025190000000000002519000005
:101B640000000000251900000000000025190000F5
:101B740000000000251900000000000025190000E5
:101B840000000000251900000000000025190000D5
:101B940000000000251900000000000025190000C5
:101BA40000000000251900000000000025190000B5
:101BB40000000000251900000000000025190000A5
:101BC4000000000025190000000000002519000095
:101BD4000000000025190000000000002519000085
:101BE4000000000025190000000000002519000075
:101BF4000000000025190000000000002519000065
:101C04000000000025190000000000002519000054
:101C14000000000025190000000000002519000044
:101C24000000000025190000000000002519000034
:101C34000000000025190000000000002519000024
:101C44000000000025190000000000002519000014
:101C54000000000025190000000000002519000004
:101C640000000000251900000000000025190000F4
:101C740000000000251900000000000025190000E4
:101C840000000000251900000000000025190000D4
:101C940000000000251900000000000025190000C4
:101CA40000000000251900000000000025190000B4
:101CB40000000000251900000000000025190000A4
:101CC4000000000025190000000000002519000094
:101CD4000000000025190000000000002519000084
:101CE4000000000025190000000000002519000074
:101CF4000000000025190000000000002519000064
:101D04000000000025190000000000002519000053
:101D14000000000025190000000000002519000043
:101D24000000000025190000000000002519000033
:101D34000000000025190000000000002519000023
:081D4400000000002519000059
:101D50000338FDD87047000000000000FD180000A7
:101D6000B90900004B19000000000000E41A00004F
:101D7000E41A0000041B0000041B0000241B0000E8
:101D8000241B0000FF8FFFFFFF8FFFFFFE8FFFFF71
:101D9000FE8FFFFFFD8FFFFFFC8FFFFFFC8FFFFF1C
:101DA000FB8FFFFF436F756C64206E6F74206C6F48
:101DB000636B20706F7765722073617665206D7537
:101DC000746578006D757465785F6672656520630B
:101DD000616C6C65642077697468204E554C4C20AA
:101DE000706172616D6574657200000043616E27F9
:101DF0007420696E697469616C697A65206D7574A7
:101E000065782C20776173204E554C4C0D0A002AC2
:101E10002A2A20426F6F74696E67206E52462043F3
:101E20006F6E6E6563742053444B2076332E302ED4
:101E3000322D383962613132393461633962202A96
:101E40002A2A0A002A2A2A205573696E67205A65B1
:101E500070687972204F532076342E302E39392D08
:101E6000663739316334396634393263202A2A2A95
:101E70000A00000000010000000101010000010053
:101E80000000286E756C6C29002A666C6F61742ADC
:041E9000000000004E
:101E94002F1700000090D0030070015000000000D4
:101EA400FFFFFFFF3F000000FFFFFFFF3F000000B8
:101EB40000000000310E0000300000204C00002023
:101EC40044000020400000203C0000207800002056
:101ED4007000002068000020000000006000002066
:101EE40085100000D10F0000051000004D10000007
:101EF400140100203A00003A180100203A00003A88
:101F04001C0100203A00003A200100203A00003A67
:041F140015E015E0DF
:040000030000070DE5
:00000001FF
