:020000040100F9
:10000000D81E00218D180001F1800001791800012F
:10001000791800017918000179180001000000002A
:10002000000000000000000000000000F1190001C5
:1000300079180001000000008919000179180001F9
:100040008D1B00018D1B00018D1B00018D1B00010C
:100050008D1B00018D1B00018D1B00018D1B0001FC
:10006000A53800018D1B00018D1B00018D1B0001B7
:100070008D1B00018D1B00018D1B00018D1B0001DC
:100080008D1B00018D1B00018D1B00018D1B0001CC
:100090008D1B00018D1B00018D1B00018D1B0001BC
:1000A0008D1B000121560001093900018D1B000143
:0800B0008D1B00018D1B0001F6
:1000B800014B1B689B68184700000021014B1B6817
:1000C8001B69184700000021014B1B685B69184732
:1000D80000000021014B1B689B69184700000021A4
:1000E800014B1B68DB69184700000021014B1B68A6
:1000F8001B6A184700000021014B1B689B6A1847C0
:100108000000002110B4034C2468E468A44610BC25
:10011800604700BF000000210228034610DC10F1F0
:10012800270F0FDB2830084A40B2105C024492F9CE
:100138002C209A4207D0002918BF0130C0B270475E
:100148000F20704700207047BC890001022808B5BD
:1001580006DCFFF7E1FF034B034493F92C0008BDCD
:100168000320FCE7BC890001024BD3F83021024B85
:100178001A6070470000FF014C07002108B5FFF71F
:10018800F3FFBDE8084000F036B8801A00F3070016
:1001980038B50D46144659B240B2FFF7D7FF0023D1
:1001A800287020446B7040B238BD0023036070474C
:1001B8007047002070474FF0FF3070474FF0FF3016
:1001C800704770474FF0FF3070470020704700209D
:1001D80070470023037070470022FFF7D6BF002046
:1001E80070474FF0FF3070474FF0FF3070474FF0C7
:1001F800FF3070477047704700280CBF6FF015003C
:1002080000207047002070470723037000207047C4
:10021800002070470020704708B50378022B06D1EC
:10022800034803F003FE10B90122024B1A7008BDFF
:10023800010D0021000D002108B503680246590987
:1002480013D0012906D14FF6FF7103F01F03D940DF
:10025800C80711D40A490B484FF46C7207F0C6FE60
:100268004FF46C71064807F0B8FE4FF0FF31D940E3
:10027800C907EFD5044800E00448136008BD00BF73
:10028800F08A0001238B000100058C4100088C4195
:1002980007B5019001A8FFF7CFFF019B00EB830092
:1002A800D0F80022044B134043F00303C0F8003297
:1002B80003B05DF804FB00BFF0F0FCFF30B5144A52
:1002C800144B8BB0CDE90123134A03AB1068516876
:1002D800124D03C31C460FCD0FC42B68104A236070
:1002E800012305A88DF8153006928DF8263003F005
:1002F8009DFC58B901A803F065FE38B902A803F0BF
:100308007FFE18B9082103A803F09AFE0BB030BD90
:100318003344BB01DEF012233B8B0001A0890001AE
:10032800210200012DE9F84F734BD3F80443D3F8A9
:100338000853601C38D1691C6ED0FF26B046B14600
:10034800EFB2FF2F60D14FF0010A07F0F2FD05462A
:10035800002840F09680FFF7B1FF0546002840F0DE
:100368009080282003F092FE03F0B4FD0546002893
:1003780040F08780614C237803F0FF0B002B00F0DE
:10038800B580002121705E4C03F018FC102200217A
:100398005C4808F001FAA37A042B00F28480DFE8B5
:1003A80003F042737B859300C4F30726C4F3074820
:1003B8004FEA146AE4B2FF2CEFB205D02046FFF7EB
:1003C80067FF204607F0A9FDFF2E05D03046FFF74E
:1003D8005FFF304607F095FDB8F1FF0F04D1BAF181
:1003E800FF0F08D1D146ACE74046FFF751FF404622
:1003F80007F093FDF3E75046FFF74AFF50465FFAD0
:100408008AF907F07EFD9CE7EDB22846FFF740FF2A
:10041800284607F076FD96E7FF274FF0000AB94611
:10042800B8463E4691E70122364B1A70227A5A7036
:1004380002225A71E2791A7162799A71BAF1000F3F
:1004480019D0637A4846DA074AD407F05AFD637A26
:1004580038469B0747D407F054FDBBF1000F0AD07C
:10046800FF2E02D0304607F058FDB8F1FF0F02D03A
:10047800404607F046FD234800F068FC214800F09C
:1004880077FB2846BDE8F88F1E4B227A5A70E2792E
:100498001A7162795A71D1E702221A4B1A70227ABC
:1004A8005A7062795A714FF0000BC7E70322154B57
:1004B8001A70227A5A70E2791A7162795A71A2799D
:1004C8009A710A229A60B9E704220E4B1A70227AAE
:1004D8005A7062791A71A2795A710A229A60E2E70F
:1004E80007F01BFDB3E707F018FDB6E7002140F65B
:1004F800CD4006F0EDFC3EE70080FF01000D002135
:10050800010D0021E809002100224FF0FF310A4BBC
:10051800C3F80022C3F80813C3F81021D3F8102138
:1005280001221A61D3F81021002AFBD00022C3F857
:100538001021D3F810317047008000410A4AD2F8E0
:100548003031072B0BD10F280AD848F21203C340C9
:10055800DB0705D5D2F88420044BC3F888257047FB
:10056800014BD3F88020F7E70000FF01008000412D
:1005780010B5FFF7C9FF044B1B6823B11B6813B103
:10058800BDE81040184710BDF809002110B51C4BF4
:100598000446D3F80423D10416D5D3F830219AB1F0
:1005A8000022C3F83021174AD3F8303113680133D9
:1005B8001360826842B193420CBF002240F6CD42DC
:1005C8000023114805F0CEFE0D4BD3F80423120783
:1005D80014D5D3F80C218AB10022C3F80C210B4A98
:1005E800D3F80C31136801331360A268934205D124
:1005F800FFF78AFFE368BDE81040184710BD00BF49
:1006080000800041000A002148000021040A00215E
:1006180073B5124B124C187020460D4604F040FF7B
:10062800104B0026D3F800224FF0FF32C3F80062C7
:100638002946C3F80823204607F09CFF01230246F9
:10064800009320464FF00113314604F0A9FF2046DD
:1006580002B0BDE8704004F003BF00BF280D0021C0
:10066800288A000100C0004110B5041ED5BF2346EA
:1006780001220022E31E2A49C8BF5BB22833C1F811
:1006880000252B2B44D8DFE803F0164343434343AC
:100698004343434348434343434343434343274339
:1006A8004343294343432B4343432D2F31333537AA
:1006B800393B463D3F41D8231A4AC2F80C351A4BFC
:1006C8001B7863BB2146194807F07AFC2146BDE830
:1006D8001040174807F074BCEC23EDE7F023EBE774
:1006E800F423E9E7F823E7E7F923E5E7FA23E3E763
:1006F800FB23E1E7FC23DFE7FD23DDE7FE23DBE760
:10070800FF23D9E70123D7E70223D5E70323D3E75C
:10071800084807F055FC0023CEE7E223CCE710BDDC
:100728000040004100800041270D0021838B00011B
:10073800A88B0001448B000140F20122424B84B097
:10074800C3F850260022C3F83425C3F83825C3F867
:100758002C2501229142C3F8302527D002291FD029
:10076800002957D1AB22C3F824254FF0AB32C3F888
:100778001C250023FF22CDF805308DF808204FF402
:100788008272ADF80A2001220628CDF801308DF8D2
:100798000C2010D804283FD851D04FF4837317E0A9
:1007A800CC22C3F824254FF0CC32E0E76A22C3F804
:1007B8002425264ADBE70F28EFD102228DF80520F1
:1007C8007F22ADF80A308DF80C3085238DF808208B
:1007D8001F4A13809DF807309DF804205B0743EA01
:1007E80082539DF8052043EA0263174A43F0080341
:1007F800C2F814359DF80A309DF80B101B0443EA23
:1008080001639DF808100B439DF80C1043EA4163FF
:10081800C2F8183504B0704740F20232ADF804202F
:10082800032240F203118DF80720ADF80A20064A8A
:10083800C2F83415C2F838354FF48B73C8E740F264
:1008480007138DF80520C3E7008000411B81FE587F
:10085800DC0C002138B50D46FFF76EFF0F2814BFDA
:10086800FF237E230B4C012D237010D0022D08D0BE
:100878001DB9FF21601C07F0E7FC074BC3F80445CE
:1008880038BDFF22CC21601C07F086FFF5E7FF2268
:10089800F021F8E7290E0021008000410F2808B553
:1008A8000DD1A1F10B030F2B1AD801EB810101F631
:1008B8002E110D4BA1F51661C3F8081508BD40F6B9
:1008C800C41301F516619942F3D90849084840F262
:1008D8000C7207F08BFB40F20C71044807F07DFBAB
:1008E80040F66511E5E700BF00800041CA8B0001B2
:1008F800238B000110B5214CD4E8EF3F23F480325C
:10090800C4E8E12F0029F7D1D80304D51C4B1D49B1
:10091800187807F04DFDD4E8EF3F23F00402C4E84F
:10092800E12F0029F7D1590705D5154B164A174964
:10093800187807F030FDD4E8EF3F23F01002C4E840
:10094800E12F0029F7D1DA0605D50D4B104A0F49DA
:10095800187807F020FDD4E8EF3F23F48072C4E84C
:10096800E12F0029F7D1DB0507D5BDE81040044B7E
:10097800054A0849187807F00EBD10BDFC0900218A
:10098800260D002100C000410080004100410141C6
:100998000480004140C1004170B50446164DFFF780
:1009A800A9FF287814B3154A154907F0E9FC042370
:1009B8000126144C06FA03F3D4E8EF2F1A43C4E8CF
:1009C800E12F0029F8D11049287807F0EFFCD4E886
:1009D800EF3F43F48033C4E8E23F002AF7D1287898
:1009E80006FA00F0BDE8704003F0FEBD074A04496E
:1009F80007F0C6FC0223DBE7260D00210480004136
:100A080000410141FC09002100C000410080004173
:100A1800F8B50F4605461646114CFFF775FDFFF76A
:100A28008DFDC4F81005D4F80032384643F00103B0
:100A3800C4F80032FFF718FE28460A4D3146FFF782
:100A48002DFF2B7843B10020FFF7A6FF2B781BB1B1
:100A58000122054B1A60F8BD01232360FBE700BFA4
:100A680000800041270D0021004001412DE9F0419F
:100A780017460E461B4C1D46FFF746FDFFF75EFD69
:100A8800C4F81005D4F80032394643F02103C4F8FD
:100A98000032154BC4F80435FFF74EFE3146FFF718
:100AA800FDFE0022114B124E1A604FF48053C4F819
:100AB8000433337883B10120FFF76EFF33785BB1DD
:100AC80001220C4B1A6055B1BDE8F0414FF4A02249
:100AD8000023094805F046BC01236360F3E7BDE83D
:100AE800F08100BF00800041290D0021000A00218B
:100AF800270D00210040014148000021B0F5A07FEA
:100B080010B50C4619D10978032917D10122154BC4
:100B180060781A70144B94F904101A78FFF778FF6C
:100B28006279A07900210F4B19700F490B780133B6
:100B3800DBB2834298BF1A460A7010BD04290CD153
:100B48000122084B08491A70607822790023097835
:100B5800FFF78CFF22796079E4E70448BDE810408C
:100B680007F02EBA270D0021280D0021FE8B000169
:100B78002DE9F3410378052B43D8DFE803F0030C94
:100B88004C555C5F427990F90410407802B0BDE89A
:100B9800F041FFF73DBF4478457990F904708679B4
:100BA800D0F80880FFF7B0FC20462946FFF752FE30
:100BB800062C5C4A28D8042C28D9D2F8003243F4F1
:100BC800001343F00103574DC2F800322046FFF7E7
:100BD800B5FC3846C5F81045FFF746FD31462046B6
:100BE800FFF75CFE0023504A1360C5F80C31D5F8B6
:100BF8000C31B8F1000F02D00823C5F804330123E3
:100C08002B6002B0BDE8F0810F2CD6D0D2F80032AC
:100C180043F02103D7E7836802794179407802B02D
:100C2800BDE8F041FFF722BF8168407902B0BDE816
:100C3800F041FFF7EDBC81680079F7E7447890F858
:100C48000580856890F904708679FFF75DFC204679
:100C58004146FFF7FFFD2046FFF770FC314B384651
:100C6800C3F81045D3F8002242F00302C3F800226B
:100C7800FFF7FAFC31462046FFF710FE2B4B2C4AB3
:100C88001B5D1288C5F1640453435C43B4FBF5F45F
:100C980028481C4404F004FC0020FFF77DFE264B86
:100CA8000025D3F800224FF0FF32C3F80052214646
:100CB800C3F808231F4807F04BFC02230246012112
:100CC8001C48009504F06CFCEFF31186402383F375
:100CD8001288BFF36F8F0125184B194C1D602078BF
:100CE80003F066FC20B1207805FA00F003F082FCDE
:100CF800FFF700FE0B4A1349207807F041FB124B1F
:100D0800D3E8EF1F41F48071C3E8E21F002AF7D14E
:100D180001202378984003F067FC86F31188BFF31D
:100D28006F8F6EE700800041040A00215B8C000190
:100D3800DC0C0021288A000100C00041004001416C
:100D4800260D002144C10041FC0900214FF4007325
:100D580030B51A4A87B0CDE90323059003A90446A4
:100D6800174A184804F038FB174B0146984202D03E
:100D7800164807F025F90025002205210C2000F06F
:100D880075FE23460521124A0820009507F0B7F999
:100D9800082000F03BFE0F4803F082FC0A4B984203
:100DA80006D00D4807F00CF96FF00D0007B030BD04
:100DB8000A4B0C3428461C60F8E700BF40420F007D
:100DC800050B0001288A00010000AD0B188C0001FA
:100DD80095050001260D0021398C0001F809002134
:100DE800B2F5802F2DE9F0410AD3344940F2EB12D5
:100DF800334807F0FBF840F2EB11304807F0EDF804
:100E0800042A08D82D494FF4F9722D4807F0EEF856
:100E18004FF4F971F1E7043ACD1D8E1825F0070556
:100E280026F00706761B172E4FEAD60708D823495F
:100E380040F2FB12224807F0D9F840F2FB11DCE738
:100E4800B7FA87F44FF00008C4F12002C4F1240473
:100E5800A4000734E408631CBB420560AF60C5F812
:100E68000C8008D915494FF40372154807F0BEF8ED
:100E78004FF40371C1E74146920005F1100007F0F5
:100E88008BFC630043F001036B803B1B05EBC40242
:100E98005900A5F800805180AA1925F83440A2F815
:100EA8000280AB5305EBC7035A88214642F0010282
:100EB8005A802846BDE8F04107F059B86B8C00010C
:100EC800238B0001014B1B68184700BF78000021E5
:100ED80030B585B004460D4610220021684607F05B
:100EE8005BFC02238DF80230044B2A4621466846F3
:100EF800019306F0ABFD05B030BD00BFCD0E00017B
:100F080080B505460E461746984606F053F8034640
:100F180007F0ACFC0446DFF81890424649F8003068
:100F280039463046A84754F8090000F013FD00BFC1
:100F3800080000002DE9F84F0446A38B084619075E
:100F4800164612D4022803F0070162D1204607F0A2
:100F58005AF888B10138042800F22581DFE810F03A
:100F6800590023017E00C800F50001280CBF43F09A
:100F7800100143F02001A18304F1140006F022FAC5
:100F8800002800F0AB8086F31188BFF36F8FBDE8AF
:100F9800F88F03F00702501F01281ED80020062AE8
:100FA8002768C4E9000014D13A4603E0E08B013019
:100FB800E0831268002AF9D123F0070343F0020204
:100FC8002046A28307F01FF890B342F02002A283C4
:100FD8002EE023F007039AB2F2E7042A33D123F074
:100FE80007039AB22046A28307F00DF810B142F029
:100FF8002002A283A38B03F00709894540F0DC8017
:10100800A18BCA0640F1218121F01003A38301F0CE
:101018000701D4F81880A38BB8F1000FB9DA0022C1
:10102800276823F00703C4E9002243F00103A383E0
:10103800A38B03F00709894540F0BF80002FDFD05C
:101048000025AA4640E0854940F21B12844806F074
:10105800CDFF40F21B11814806F0BFFF41B17F4927
:101068004FF4AB727E4806F0C1FF4FF4AB71F2E764
:10107800236843B9794940F25712794806F0B6FF18
:1010880040F25711E7E723691D6845B973494FF4E2
:10109800AD72734806F0AAFF4FF4AD71DBE70F4657
:1010A80088464FF00609A38B23F0070343F0060395
:1010B8009BB2A383A268002A40F08180002F40F0F1
:1010C8008180002D9CD0BA4643F0080304F1140B2C
:1010D8005846A38306F076F9002875D1614940F295
:1010E80031125F4806F082FF40F231115D48B3E7E4
:1010F800022908D0594940F25D12594806F076FF96
:1011080040F25D11A7E7E78B47B154494FF4AF723E
:10111800534806F06BFF4FF4AF719CE723695D6895
:1011280045B94E4940F261124D4806F05FFF40F262
:10113800611190E7A38BB84623F0070343F004033B
:101148009BB24FF00409A383B4E7012908D04349AF
:101158004FF4B272424806F049FF4FF4B2717AE791
:10116800236843B93D4940F265123D4806F03EFF09
:1011780040F265116FE723699D6845B937494FF417
:10118800B472374806F032FF4FF4B47163E70027B2
:10119800A38BB84623F0070343F005039BB24FF037
:1011A8000509A38386E72D4940F26B122C4806F007
:1011B8001DFF40F26B114EE7002700257AE74FF03C
:1011C800010A81E792467FE786F31188BFF36F8FA4
:1011D800BAF1000F16D147BB15B120462249A847DE
:1011E800EFF31186402383F31288BFF36F8F5846BD
:1011F80006F0DAF808BB1B498822194806F0F6FE03
:10120800882173E7A1680029E5D00E680029E2D09B
:1012180043464A462046D1F804A0D0471EB1336859
:1012280031461E46F2E73346FAE7394643464A4610
:1012380020463F6806F013FFCDE7584606F0D8F879
:10124800A38B23F00803A383DAE68B067FF594AE1D
:1012580021F02003A38301F0070177E68E8C0001BB
:10126800238B0001B38C000175120001F8B5044608
:101278000D4600F11406EFF31187402383F312881B
:10128800BFF36F8F304606F08FF840B909490A4816
:10129800882206F0ABFE8821064806F09EFE3046FE
:1012A80006F0A6F8A5613A462046BDE8F8400121B7
:1012B800FFF740BEB38C0001238B00012DE9F047F6
:1012C80004460F4606F0BBFE051E5DDB04F114095B
:1012D800EFF3118A402383F31288BFF36F8F4846D8
:1012E80006F062F8804638B933498822334806F058
:1012F8007DFE882130483CE0484606F079F84FF6F4
:10130800FF72E38BA68B934206F007063FD0022EAE
:1013180010D135460133E383484606F053F80028D8
:101328003BD1254940F23112244806F05FFE40F2D5
:101338003111DFE7062E13D8DFE806F0092C121268
:10134800090409006FF085054FF00008E4E7002361
:101358003B6063687BB9C4E900777EB13546F3E743
:10136800174916484FF4E47206F040FE4FF4E47152
:10137800134806F032FE1F606760EEE7524602210E
:101388002046FFF7D7FD35462846BDE8F0876FF0C1
:101398000A05D9E76FF00405D6E78AF31188BFF389
:1013A8006F8FB8F1000FEFD0002332463946204640
:1013B80006F055FEE8E700BFB38C0001238B00015F
:1013C8008E8C0001F8B5054600F11406EFF311877D
:1013D800402383F31288BFF36F8F304605F0E4FF94
:1013E80038B920498822204806F000FE88211D4887
:1013F80025E0304605F0FCFFAC8B04F00704022C16
:1014080012D0012C0CBF6FF004046FF08504304635
:1014180005F0D8FF08BB134940F23112124806F014
:10142800E5FD40F23111E2E7EB8B53B90F490E4865
:1014380040F2EF1206F0DAFD40F2EF110B4806F029
:10144800CCFD013B9BB2EB83002BE0D13A46214611
:101458002846FFF76FFD2046F8BD87F31188BFF3D4
:101468006F8FF8E7B38C0001238B00018E8C00018D
:1014780008B54268034602F00302032A816002D0DD
:101488002AB1002000E0006800225A6008BD044923
:101498000448452206F0AAFD4521014806F09DFDB5
:1014A800E08C0001238B0001014B03600020704792
:1014B800308A000108B5044806F082FDBDE80840FE
:1014C800024806F07DBD00BF068D00013C8D00017D
:1014D8001D2808B508D905490548142206F086FDD7
:1014E8001421024806F079FD08BD00BF6A8D00018D
:1014F800238B000170B506460C46154600F0A8FA85
:1015080040B109490948172206F070FD172106481D
:1015180006F063FD3046FFF7DBFF054B43F830501C
:1015280003EBC0035C6070BD998D0001238B000143
:101538006401002130BFFFF7FDBF00BF2DE9F04176
:1015480005460B4EDFF82C80324606EB0807CC1B0D
:101558002046094907F013F9A01942460021083C22
:1015680007F01AF92C6707F10800BDE8F08100BF01
:101578000000000004000000A0890001074A9368E9
:1015880093F90E10002907DB526993421FBF044AE2
:10159800536843F080535360704700BF8C0C0021A0
:1015A80000ED00E0154B9A6A12F0007F9A6A14BFAA
:1015B8001E201D2012F0807F9A6A18BF1F2012F487
:1015C800801F9A6A18BF022012F4002F9A6A18BF67
:1015D800212012F4802F9A6A18BF222012F4003FAB
:1015E8009A6A18BF232012F4803F9A6A18BF2420F1
:1015F8006FEA02426FEA12429A62704700ED00E019
:1016080010B5164B9A6A9C6A12F4805F14BF1722B1
:10161800162214F4006F9C6A18BF1822A40509D575
:101628009A6B9A6A120404D518B19A6A22F4004295
:101638009A621922094B986A10F4806F986A18BF49
:101648001A2210F4807F986A40F47F4098624FF025
:1016580000030CBF10461B200B7010BD00ED00E00E
:1016680010B51E4B0246986A9C6A10F0100F14BF02
:101678001120102014F0080F9C6A18BF1220A4072C
:1016880009D5586B986A000604D51AB19A6A22F0EF
:1016980080029A621320114B9A6A12F0010F9A6A1B
:1016A80018BF1420D40602D49B6A9A070ED50B4B98
:1016B8009B6ADB060AD50A490A4840F2331206F04B
:1016C80095FC40F23311064806F087FC034A936AFA
:1016D80043F0FF03936200230B7010BD00ED00E0A0
:1016E800C68D0001238B0001F0B5564B04465B689C
:1016F80000258BB0C3F3080385F31188BFF36F8F00
:1017080002F07F40B0F17F4F08D102F00C000828AA
:1017180004D012074CBF0C46012554B94A494FF46E
:1017280085624A4806F062FC4FF48561464806F037
:1017380054FC0022033B8DF80720032B7BD8DFE8FD
:1017480003F00272765D3F4AD36A13F0020372D146
:10175800D16A00291ADBD36A5B005BD55369A1699A
:1017680043F480735361BFF34F8FBFF36F8F536997
:1017780031F8021C23F480735361BFF34F8FBFF31A
:101788006F8F4DF60273994220D123689DF8072088
:10179800D2B9224602AE04F12007344610685168D7
:1017A800083203C4BA422646F7D1099A002D44D01C
:1017B800C2F3080121B96FEA52226FEA4222099264
:1017C800184602A906F086FC0BB0F0BD936ADBB29E
:1017D80033B101200DF10701FFF742FF0346D5E7BA
:1017E800936A13F47F4F05D001200DF10701FFF72D
:1017F80007FFF3E7936AB3F5803F02D3FFF7D2FE02
:10180800ECE7114940F2FA22104806F0EFFB40F2EB
:10181800FA218BE70C4940F2FE220C4806F0E6FB61
:1018280040F2FE2182E700200DF10701D4E70020F5
:101838000DF10701DBE70023A8E722F4FF7222F08D
:101848000102BCE700ED00E0C68D0001238B00011A
:10185800064B5A6942F010025A615A6942F4806292
:101868005A615A6922F008025A61704700ED00E097
:10187800EFF30880EFF3098101B57246FFF734FFF3
:1018880001BD00BF002080F31488BFF36F8F0020D4
:1018980080F30A8880F30B880F4880F3088802F0E9
:1018A800E3FD00200D490860BFF34F8F00F02CF8CE
:1018B800402080F311880A484FF40061401880F3F3
:1018C8000988EFF314800221084380F31488BFF3DA
:1018D8006F8F00F0F3F80000D81E002194ED00E0AF
:1018E800D8110021002318460649D1F89020C2F3E8
:1018F8000722934200DB7047C1F89830C1F8A00076
:101908000133F6E700ED00E010B572B6002484F369
:101918001388FFF7E7FF23464FF0FF300C4A03F127
:1019280020010133102B42F82100F8D100234FF099
:10193800FF30074A03F160010133102B42F8210000
:10194800F8D162B6BFF34F8FBFF36F8F10BD00BFE2
:1019580000E100E0084B9B6883420BD1EFF305835D
:1019680043B1064B5A6842F080525A605A6A22F4D0
:1019780000425A6205F024BB8C0C002100ED00E007
:1019880016498A684FF030001044EFF3098C80E85C
:10199800F01F402080F31288BFF36F8F104F4FF075
:1019A80000664A698A603E604FF070041419206826
:1019B8000C4C2060506F0023536780F3118802F1AC
:1019C800300090E8F01F8CF3098802F1000004B59C
:1019D80006F0A3FBBDE80440704700008C0C002112
:1019E80004ED00E0080A00211EF0040F0CBFEFF31D
:1019F8000880EFF30980816911F8021C0229FFD0E1
:101A080001B5724606F06CFB01BD00BF40B200286C
:101A180007DB01234109034A00F01F00834042F815
:101A28002130704700E100E040B200280CDB0122C1
:101A38000649430900F01F008240203341F8232063
:101A4800BFF34F8FBFF36F8F704700BF00E100E017
:101A5800054B420953F82220012300F01F0003FA26
:101A680000F01040704700BF00E100E008B5D30760
:101A78000BD40231072909D90D490E48582206F01E
:101A8800B5FA58210A4806F0A8FA002140B2002801
:101A9800ACBF00F16040084B4FEA4111C9B2ABBF7F
:101AA80000F5614000F00F0080F80013195408BDDC
:101AB800F88D0001238B000114ED00E008B5084BF8
:101AC800084A23F07F039360BFF34F8FBFF36F8FF4
:101AD80003F07CFE05F094FC00F048F803F0B6FE35
:101AE8000000000100ED00E042F8203C009B0B499B
:101AF80042F81C3C019B21F0010142F8183C029B72
:101B080042F8081C42F8143C4FF0807342F8043C39
:101B18000023203A02654367704700BF090F0001A0
:101B280000B50B4B15469860026F0A4B0E461A60BB
:101B3800036E83F30B882C4686F309880020064B36
:101B480098472046002100220023044C204700BF6C
:101B58008C0C0021080A00212B810001090F0001CB
:101B68001022014B1A61704700ED00E0002340216C
:101B78000348C21801331E2B82F80013F9D17047AD
:101B880000E100E008B5EFF30583064A103B02EBDD
:101B9800C30152F8330049688847BDE80840FFF799
:101BA800EDBC00BF640100211FB5094C094A23465A
:101BB8000121094800F0FAF800230393074B01219B
:101BC800E41A01A80193029400F00AF904B010BDC8
:101BD8000000012100000021308A00019802002144
:101BE80010B50C7A0B6804F01F0223F01F031A4388
:101BF800CB68640923F01F03054943EA440343F013
:101C08000103C1F89800C1F89C20C1F8A03010BDAC
:101C180000ED00E010B5074BD3F89030C3F307236D
:101C2800013B984202D8FFF7DBFF10BD6FF01500AB
:101C3800FBE700BF00ED00E02DE9F04F0F4614462A
:101C480006464FF000084D4D85B0B84580F29280A9
:101C5800D6F80490B9F1000F36D0B9F11F0F40F251
:101C6800878019F01F0F40F08380D6F800A01AF083
:101C78001F0F7DD1504606F094FA834609EB0A00FF
:101C8800013806F08EFA834572D11BF1160F6FD01A
:101C98005C456DDDC5F898B0D5F89C10C5F898B0CE
:101CA800D5F8A03021F01F0143F01F0AD6E9003211
:101CB8001A44994202F1FF391ED1CA4508D131466A
:101CC8005FFA8BF006F076FA08F101080C36BCE7EB
:101CD8003146C5F898B0D5F89C3022F01F0203F0C1
:101CE8001F031343C5F89C30E0B206F063FA10F105
:101CF800160F3DD0441CE7E7C5F898B0D5F8A020EA
:101D0800013B23F01F0302F01F021343CA4531466B
:101D1800E0B2C5F8A030E8D006F04CFA10F1160F82
:101D280026D0C5F898B0D5F89C209DF808300AF15F
:101D3800FF3A62F304038DF80830D5F8A0309DF817
:101D480008205B0863F347128DF80820D6E90032B3
:101D58001344009323F01F035344A3EB09030130FA
:101D680023F01F036946C0B20393FFF753FFBEE792
:101D78006FF01504204605B0BDE8F08F00ED00E0D7
:101D88000522044BC3F89420BFF34F8FBFF36F8F26
:101D9800704700BF00ED00E0BFF35F8F0022024BE9
:101DA800C3F89420704700BF00ED00E010B5094C5F
:101DB8002278FFF741FF207016300AD106490748FC
:101DC80040F26F1206F012F940F26F11024806F065
:101DD80004F910BD290F00212F8E0001238B00016B
:101DE8002DE9F74F2E4D8A4606464FF00008AB46C0
:101DF8002C4FD04502DB03B0BDE8F08FD6F8049035
:101E0800B9F1000F47D031680846019106F0C9F9C9
:101E18000199044609EB0100013806F0C2F9844231
:101E28004FF01402204B10D002FB08F36FF015029C
:101E38004BF803201D491E4840F27F1206F0D6F8E1
:101E480040F27F11194806F0C8F814F1160F2C60FB
:101E5800F0D01978A142EDDD02FB08B0C7F8984030
:101E6800C7F89840D7F89C4000F10801007B64F35C
:101E780004000871D7F8A0000C79400860F34714F3
:101E88000C71D7F89C1021F01F016960D7F8A010D9
:101E980021F01F01296108F1010814350C36A8E763
:101EA8000C0A002100ED00E0290F00212F8E00010F
:101EB800238B00012DE9F0414E494F4CD1F8903069
:101EC8002568C3F307239D4286B00AD94B494FF4CE
:101ED800D3724B4806F08AF84FF4D371474806F09E
:101EE8007CF80020FFF758FF464BC1F8C030854208
:101EF8001AD1454C01A82570FFF7D6FA00250646E9
:101F08004FF04108414FAE4215D10020237839499E
:101F1800D1F89020C2F30722934265DB0020FFF737
:101F28002FFF06B0BDE8F081616801EB0011FFF7F3
:101F380057FE0130DBE7019A290102EB0513D3F8BC
:101F48000CC00CEA0700B0F5001F23D0B0F5800FD5
:101F580038D0B0F5801F45D1586852589B68CDE9F4
:101F680002022122013B20F01F010B4423F01F0332
:101F78008DF810200593207802A9FFF74BFE002862
:101F88002DDA1E494FF4E8721D4806F02FF84FF479
:101F9800E871A3E758689B685258013B20F01F017D
:101FA8000B4423F01F031CF0010FCDE902028DF84A
:101FB80010800593DFD011497422114806F016F8F5
:101FC80074218BE758689B685258013B20F01F0129
:101FD8000B44CDE9020223F01F030622C8E7237849
:101FE8000133237001358EE7C1F89830C1F8A0009D
:101FF80001338DE700ED00E03C8A00012F8E0001DF
:10200800238B0001AAFF4400290F00210000F0FFE4
:1020180008B50649064821F00701C1F1045202F546
:102028008032FEF7DDFE002008BD00BFDF22002160
:10203800200A0021064AD2F8AC3123F00043C2F846
:10204800AC310022034BC3F84C21D3F84C31704714
:1020580000200141006001410122024B0020C3F829
:1020680040257047000008415023142213B51F4C27
:102078000DF10700C4F80C351D4BC3F820214FF4AF
:1020880000621C4BC3F8BC254FF48062C3F83825A6
:1020980002F006FB184B984225D118499DF8070015
:1020A80002F0AEFA16499DF8070002F0BDFA15498C
:1020B8009DF8070002F0A4FA21469DF8070002F0F7
:1020C800B3FA01209DF80730984002F08DFA4FF4DA
:1020D800002200200C4BC3F84423C3F84C01D3F86A
:1020E8004C3102B010BD6FF00B00FAE700B00041B0
:1020F80000302041002001410000AD0B4C6101413E
:10210800282001412C2101410060014173B5354B64
:10211800D3E84F3F00233449CDE90033334BD3F89C
:102128000445BFF35F8FD1F80465BFF35F8FD3F821
:1021380004259442F3D16B46224601212B4806F030
:1021480052F8324605460F21274801AB06F04BF8F6
:10215800E0B1019B0DB9009302E0009A9342FAD3D3
:10216800009B22481C44013CD0F84C3524F07F44A5
:102178009C421F4932D0FFF75DFFC0F84C451D4B0C
:10218800009A9A4218D901230B7001E0002DE7D17B
:10219800194AD2F8AC3143F00043C2F8AC31134BC2
:1021A800D3F84C2132B90121144A5160D3F84C318B
:1021B80003B1116001230DE0BFF35F8FD0F8043540
:1021C800E41A24F07F440E4B033C9C42DBD90023E5
:1021D8000B7000230B4A137002B070BD0B78002BF4
:1021E800F7D0D5E72E0F0021001001410060014112
:1021F8002C0F0021FEFF7F000020014100B00041AC
:10220800FBFF7F002D0F0021F8B51E490023C1E810
:10221800423F52BB1C4B1D783DB305231B4E1C4F40
:1022280034780134B4FBF3F303EB8303E41A06F0C8
:1022380080F8184A137823B157F82430C01A0728B1
:1022480013D9154BD3F8141141B10021C3F8141157
:10225800D3F8143134700CB901231370347806F0B4
:1022680068F847F824002846F8BD0C4A0025D2F83B
:10227800AC3123F00043C2F8AC310122084B5A605C
:10228800F1E700BF2E0F00212D0F00212B0F002199
:102298002C0A00212A0F0021005000410020014192
:1022A80000B0004120B1034B800143F001031847FF
:1022B800704700BF208A0001BFF34F8F0549064BC6
:1022C800CA6802F4E0621343CB60BFF34F8F00BFCC
:1022D800FDE700BF00ED00E00400FA05F7B506468B
:1022E8000D461446194F384606F05DF940B91849AD
:1022F8001848142205F07AFE1421154805F06DFEE1
:10230800AAB2BB681B683BB9134912485B2205F0A7
:102318006DFE5B211048F1E73146384698470028A2
:1023280002DB002003B0F0BD002CFBD1AC42F8D298
:102338002F1B042F28BF042705F0FBFF3A46019006
:1023480001A9301906F01BFA3C44EFE71489000193
:102358006D8E0001238B0001A68E000137B5402346
:102368000C460A490093411A491105462346084A72
:10237800084805F06CFF011E05DA2846234603B01D
:10238800BDE83040184703B030BD00BF540A0021F3
:10239800C1820001D8880001C9B2012908B508D94D
:1023A800084909487E2205F021FE7E21054805F0EE
:1023B80014FE0C22036901FB0233986C00F007003D
:1023C80008BD00BFDA8E0001238B000170B5C9B2C9
:1023D800012903690AD9184918484FF4B67205F05B
:1023E80005FE4FF4B671144805F0F7FDEFF31185BB
:1023F800402484F31288BFF36F8F0C2606FB013448
:10240800A46C14F0C00408D0A24206D085F3118849
:10241800BFF36F8F4FF0FF3070BD012206FB013311
:102428009A6485F31188BFF36F8F436803EBC10388
:102438005B6898470020EFE7DA8E0001238B0001E4
:1024480070B50D4606490446411A4911402205480F
:10245800FFF7BCFF2B4601462046BDE870401847F1
:10246800540A0021D888000170B5002201210446D1
:102478000520FFF7FBFA114802F08CF9104B98423F
:1024880018D1206900F010FA02F096F926690D4972
:10249800304605F0FAFD00280BDB0125B5642469F8
:1024A800084904F1200005F0F0FD002801DB0020B8
:1024B800656570BD6FF00400FBE700BF852500016E
:1024C8000000AD0B648A00011FB500220123CDE98D
:1024D80002236B46084ACDF800D0CDF804D005F0A9
:1024E800E4FE002805DB4FF480420023684603F031
:1024F80015FC05B05DF804FBD382000110B5EFF3BD
:102508001184402383F31288BFF36F8F074A13683F
:1025180023F00201DB07116002D4012002F0E4F984
:1025280084F31188BFF36F8F10BD00BFAC0A002180
:102538000C22104B014602FB0033002030B4D3E9D3
:1025480010521864EFF31180402484F31288BFF30B
:102558006F8F9C6C04F0C00444F002049C6480F308
:102568001188BFF36F8F1DB12B4630BC0248184746
:1025780030BC7047540A0021D8880001012810B5E2
:1025880004460AD007280CD078B90E4B9B6C5B0721
:1025980016D1BDE81040FFF7CBBF00F093F92046F5
:1025A800F7E7BDE8104000F09BB90749074840F23B
:1025B8008F2205F01BFD40F28F21034805F00DFD29
:1025C80010BD00BF540A0021DA8E0001238B0001E0
:1025D80010B4EFF31182402383F31288BFF36F8F97
:1025E8001748016841F002040460C80707D482F361
:1025F8001188BFF36F8F012010BC02F005B9114993
:10260800D1F80C04D1F80C14C907F0D5EFF31180F8
:1026180083F31288BFF36F8F0B498B6C03F0C003F1
:1026280043F002038B6480F31188BFF36F8F82F34A
:102638001188BFF36F8F002010BCFFF779BF00BF70
:10264800AC0A002100500041540A0021024BC0B2DC
:1026580003EB4010704700BF540A0021F8B501226F
:1026680006463049D1E8EF3FC1E8E02F0028F9D10C
:102678009BB92D492D484B60CB608A60FEF71EFE42
:1026880000280ADA2A4940F23F222A4805F0AEFC1F
:1026980040F23F21264805F0A0FC06B3731E012B2B
:1026A80036D805F0F4FF0446D0B9234B1B78BBB1EC
:1026B80002220546214BC3F80823204FD7F81824D7
:1026C800D7F81834D20314D503F00303012B01D033
:1026D800012E0ED1BCB185F31188BFF36F8FF8BD01
:1026E800EFF31185402383F31288BFF36F8F012422
:1026F800E3E71CB1284605F036FDDFE7002121207D
:1027080004F0E6FBDAE702220C4BC3F80423E6E701
:10271800074940F25122074805F068FC40F2512170
:10272800B8E700BF500A0021400A0021740A0021BE
:10273800DA8E0001238B0001D511002100500041E1
:10274800012208B5104BD3E8EF1F002903D1C3E8D5
:10275800E02F0028F7D115D100230C49CB600C4B92
:102768004B6003238B600B4B1868FEF7A7FD00280E
:1027780008DA094909484D2205F038FC4D21064878
:1027880005F02BFC08BD00BFCC0A0021B40A0021CB
:1027980085280001B00A0021268F0001238B000143
:1027A80007B5002200230E48CDE900234FF400327C
:1027B800002305F0D3F80B4B1868FEF703FE00283A
:1027C80008DA09490948552205F010FC5521064840
:1027D80005F003FC0022064B1A6003B05DF804FB09
:1027E80060020021B00A0021268F0001238B00011E
:1027F800CC0A0021F7B51C4E3F21B7683046FB686C
:1028080098471A4C1A4D40B1002323702B8002F0D0
:1028180085F80123237003B0F0BD0C216A463046C9
:102828003B6998470028EFD1124A019B217893FB16
:10283800F2F3009A03EB82031BB2B5F900200029DA
:10284800E4D09A1A002AB8BF524212B2012ADDDC3B
:10285800094A0139136821700133136003B0BDE8D8
:10286800F040FFF79DBF00BF288900012F0F00210E
:10287800DE0C002190D00300C40A002108B50748E7
:1028880005F091FE28B902F049F80122044B1A70AC
:1028980008BD0448BDE8084003F08EBC2889000143
:1028A8002F0F00217C000021034B044A18600023ED
:1028B8001360034A13607047B00A0021C80A002158
:1028C800C40A00210022024B1A70FFF739BF00BF6B
:1028D8002F0F0021014805F036BF00BF600200211C
:1028E800024A136801331360FFF75ABFC80A002170
:1028F800EFF31182402383F31288BFF36F8F0A4BE3
:10290800D3F8001161B10021D3F80805C3F800110C
:10291800D3F80031C0B282F31188BFF36F8F7047CC
:102928006FF00A00F7E700BF009000410346F0B5DA
:1029380010469C7893F803C0EFF31182402585F385
:102948001288BFF36F8F1F7893F801E0E41B04EA45
:102958000C04A04288BFA0B23E180CEA06063D4609
:102968001E7082F31188BFF36F8F0A188A4216D13E
:1029780077450CD1EFF31182402181F31288BFF320
:102988006F8F1978597082F31188BFF36F8F1B7995
:10299800241AA34222BF0122054B1A60F0BD5E191A
:1029A8007679013501F8016B05EA0C05DEE700BF11
:1029B800009000412DE9F0472D4D00690E46A842D0
:1029C80014460AD02B492C4840F2031205F00EFB9E
:1029D80040F20311274805F000FBDB4313F0010523
:1029E80004D02030FFF7A2FFBDE8F0879AB3EFF3D9
:1029F8001188402383F31288BFF36F8F0920FFF7F4
:102A080027F807460920FFF70FF888F31188BFF366
:102A18006F8FDFF868A04FF40079CAF80051DAF830
:102A2800003101232546DFF85880CAF80030C8F87D
:102A38008091DAF8003183B1FFF75AFF031EC8F816
:102A48008091F6DB013DADB27355002DF1D117B180
:102A58000920FEF7DBFF2046C6E7EFF3118040238D
:102A680083F31288BFF36F8F05F07DFBE1E700BFAA
:102A7800D00A0021678F0001238B000100900041DC
:102A880000E100E02DE9F041184B07690D469F422F
:102A9800144605D107F135085CB92046BDE8F08138
:102AA80013491448E52205F0A1FAE521104805F07C
:102AB80094FA4FF0FF334FF0FF32384603F02EF907
:102AC800224629464046FFF731FF0646384603F0BE
:102AD800C3F83EB94FF0FF324FF0FF33064803F01A
:102AE8001DF9E6E7A41BA4B23544D5E7D00A0021B6
:102AF800678F0001238B0001E00A002138B51F4BC6
:102B080004699C420AD01E491E4840F2471205F04B
:102B18006DFA40F247111A4805F05FFA0122204683
:102B2800114605F077FD0122002104F1100005F09F
:102B380071FD40F2074323874FF0706323620C2333
:102B48000025012184F824300F4B84F83550E586A0
:102B5800D3F80425092022F00102C3F80425C3F89C
:102B68000051D3F80021C3F804132A461960FEF770
:102B78007DFF0920FEF74AFF284638BDD00A00210C
:102B8800678F0001238B00010090004110B5FFF70B
:102B9800AFFE002820DB174BC0B293F8222093F831
:102BA800214093F82310141B31EA04040DD193F843
:102BB800372093F8364093F83810141B31EA040490
:102BC8000BD101220C4B5A600EE09C1801321140C7
:102BD80084F8250083F8221010BD9C18013211409A
:102BE80084F83A0083F837100448BDE8104003F031
:102BF80033B800BFD00A002100900041E00A00214C
:102C080010B5036941B91C493F221C4805F0EEF98B
:102C18003F21194805F0E1F9486830B916494022C2
:102C2800164805F0E3F94021F3E75868F8B18842FF
:102C380019D19C680868A142586000D198600020AA
:102C480008602AB15A680A609A68596002B999609E
:102C5800002010E0814206D108682060986881420F
:102C6800EDD19C60EBE7044600680028F2D1002A09
:102C7800E8D16FF0150010BDA98F0001238B00016A
:102C880038B545682B69B3B11035284602F0F8F914
:102C9800044680B90146284602F0BAF9084B984222
:102CA8000BD122462846074902F082F9224605211F
:102CB8000A20FEF7DBFE002038BD6FF00400FBE7BA
:102CC8000000AD0B9D2F000108B5036802465909A5
:102CD80013D0012906D14FF6FF7103F01F03D94025
:102CE800C80711D40A490B484FF46C7205F07EF9F5
:102CF8004FF46C71064805F070F94FF0FF31D94078
:102D0800C907EFD5044800E00448136008BD00BFB8
:102D1800F08A0001238B000100058C4100088C41DA
:102D2800F0B5406801F01F04057B87B044EA4514FC
:102D38000569002D5BD0B2F5001F00F1100506D122
:102D48002146284605F0D4FB002007B0F0BD002737
:102D5800B2F5800F01AE0197776033D1B3F1007FF0
:102D680014BF052304238DF804300023CDE9046340
:102D780003938368CB40D90716D4B2F1A07F13D14F
:102D880068460094FFF7A0FF009B803350F823307B
:102D9800DB0709D46A462146284602F00FF9174B8B
:102DA80098421AD0CDF808D02146284603AA01F047
:102DB800C9FF134B98421DD101222146284602F033
:102DC80075F9C1E7B3F1C06F05D0B3F1007F14BF47
:102DD80001230223C7E70323C5E76946284602F013
:102DE8005FF9074B9842DDD06FF00B00ADE76FF04D
:102DF8008500AAE76FF01500A7E700BF0400AD0B38
:102E08000000AD0B2DE9F043466840F20635337BF0
:102E1800D00601F01F0747EA431748BF032302EA19
:102E2800050558BFC2F3401387B0B5F5837F144634
:102E38008DF8033044D00FD8062D18D007D8B5B177
:102E4800022D3FD06FF0150007B0BDE8F083B5F54F
:102E5800807FF7D101250AE040F20222954233D063
:102E6800B5F5407F32D0B5F5007FEBD102250123BF
:102E7800220303FA01F12BD573689960336963BBA8
:102E880003A80397FFF720FF039B00EB830084F45C
:102E98008033C3F30043C4F34044D0F8002244EA2B
:102EA80043049DF8033022F4706244EA830422F05C
:102EB8000F0244EA05231343C0F800320020C3E799
:102EC8000725D4E70425D2E70525D0E70325CEE773
:102ED800630344BF7368D960D0E71036394630467B
:102EE8000DF1020202F06AF814F4403F804616D150
:102EF8003946304605F0FAFA234B9845DED130467C
:102F08009DF8021002F0C6F84045D7D01F49204866
:102F1800EC2205F06BF8EC211C4805F05EF84FF048
:102F2800000901AB3946304603AACDE90439CDE999
:102F38000199CDF80C9001F005FF134B984281D10F
:102F480014F4003315D09DF8033084F48034C4F3AE
:102F580000448DF80E3039464B46304603AA8DF8AA
:102F68000C508DF80D4001F0A3FF074B9842C3D0D9
:102F780068E7CDE9043339460DF10303304603AA67
:102F8800039301F0DFFEF0E70000AD0BE58F0001D1
:102F9800238B00014209034670B502D0012A1AD0DA
:102FA80070BD124E326951680029F9D0012503F02D
:102FB8001F030C689D400029F2D08A682A400ED071
:102FC8004B6853B90A490B48642205F00FF864218D
:102FD800074805F002F8084EE4E7304698471CB168
:102FE800236821461C46E6E72346FAE700890001E4
:102FF800A98F0001238B0001EC8800010122014BFD
:103008001A607047000001410C2903690BD15B6A03
:10301800064907484B4393FBF0F100FB113311605D
:103028000020536070476FF08500704790D0030010
:1030380040420F000022044B0069C3F80021D3F876
:10304800003102F009BE00BF000001417FB50569EB
:10305800AB6A002B40D03F2901D00C293FD105F1A4
:1030680010064FF0FF324FF0FF33304602F07CFC81
:103078001C4B0024019303236946A86A0394029316
:10308800FEF71CF9A04208DA17493D22174804F058
:10309800ADFF3D21144804F0A0FF4FF0FF324FF080
:1030A800FF33284602F03AFEA86AFEF78BF900289B
:1030B80006DA0D4942220D4804F098FF4221E9E75B
:1030C8000B4BD3F808256A6201225A60304602F099
:1030D80001FD204604B070BD6FF00A00FAE76FF0FA
:1030E8008500F7E7053000012D900001238B0001D2
:1030F8000000014110B504690020FFF7A7FAA0629B
:1031080040B910491048772204F070FF77210D4824
:1031180004F063FF4FF0FF320021204605F07AFAF1
:1031280004F1100005F06FFA002201211020FEF7CB
:103138009DFC1020FEF76AFC0122044B0020C3F816
:10314800042310BD2D900001238B000100000141D4
:1031580070B40E4922F07F46D1E90034D01AC31862
:1031680044F10004C1E90034A6F50013B3F5400F9B
:1031780009D2074B1B681A0A1B069C19054B42F11A
:103188000005C3E9004570BC04F074BA9807002133
:10319800600B0021A00700210D4B1868010A0006EA
:1031A800BFF35F8F0B4BD3F80435181841F10001BA
:1031B800B3F5801F0AD2084BD3E90023904271EB84
:1031C800030303D210F1807041F10001704700BF82
:1031D800600B002100600141A00700212DE9F743A1
:1031E80005F030F82A4BD3F8042390070BD5D3F811
:1031F800042142B10022C3F80421264AD3F804313D
:10320800136801331360224AD2F80433D90320D556
:10321800214BD3E8EF1F21F00100C3E8E40F002C95
:10322800F7D1CB0702D4D2F8403193B10025184C1E
:10323800C4F84051D4F84031FFF7AEFFEFF31082E5
:1032480072B6164BD3E90267B042B94104D282F391
:10325800108803B0BDE8F0834FF0FF38D3E90010C1
:103268004FF0FF391D60C3E902894FF48033C4F879
:103278004833C4F84051D4F8403182F3108800290B
:10328800E7D0009032463B4628468847E1E700BF32
:1032980000600141600B0021580B002188070021C4
:1032A8002DE9F84F04460D46434FD7E8EF8F28F035
:1032B8000103C7E8E23F002AF7D14FF480393F4EB7
:1032C800C6F80893BFF35F8FBFF36F8FFFF764FFF4
:1032D800A04271EB050308F0010840D2384B201AD0
:1032E80065EB0101984271F1000148D2354BD3E9F1
:1032F80002239D4208BF94423AD04FF0000C24F0BC
:103308007F40834603216FF0020EC6F84893C6F843
:1033180040C1D6F84031DFF8B0A02BF07F43C6F8A3
:103328004035C6F84493D6F80425AEEB02035B4457
:1033380023F07F4353451BD9D6F840315BB1D6F80B
:103348000425131A23F07F43B3F5000F10D9C6F8EC
:1033580040C1D6F8403101EB020B0131DDE71B4BD0
:10336800D3E8EF1F41F00101C3E8E21F002AF7D1BB
:10337800144B174AC3E902451A6000225A60B8F193
:10338800000F16D0D7E8EF3F43F00103C7E8E23F4C
:10339800002AF7D14FF48032084BC3F804230B4BB3
:1033A800D3E8AF3FDB0742BF4FF48002094BC3F8B5
:1033B8000021BDE8F88F00BF5C0B002100600141CF
:1033C8000100800088070021FDFF7F00580B0021C5
:1033D8005931000100E100E070B54FF0FF300025E1
:1033E8004FF0FF31164C174B0226C4F80833C4F8C7
:1033F8004833154BC4F80855C3E902014FF480332C
:103408004FF48002C4F80433104B0121C4F804635C
:103418001620C3F880212A46FEF728FB1620FEF75F
:10342800F5FA01230A4AA3600021236009481360C2
:10343800FFF736FF3046FFF711F9284670BD00BF89
:103448000060014103000F008807002100E100E04F
:103458005C0B0021FFFF7F00431C10B50F4C05D00B
:103468008442A8BF0446012CB8BF0124FFF794FE8C
:103478000B4AD2E90031C01AB0F5000F074A0AD248
:103488002044904228BF1046BDE81040C01841F1C2
:103498000001FFF705BF1046F6E700BFFFFF7F00FA
:1034A8009807002108B5FFF777FE024B1B68C01A82
:1034B80008BD00BF980700210B4B0C4A1B7AC2F8C5
:1034C8001035042B0DD8DFE803F008030C080300BF
:1034D800A022074B01201A6070474FF49672044BE4
:1034E800F8E70020704700BF580C00210080004119
:1034F8006C0B00210023044AC2E908339362034A93
:10350800C2E9083393627047240C0021F80B0021AC
:10351800054B1B68D3F80423920342BF0022C3F86B
:103528004421D3F844317047B800002108B5FCF7AE
:10353800D1FD0C490C48FCF7C7FD0C4A0C4B507CDC
:103548001B6898470B4B0C4AC3F8042540F2171226
:10355800C3F80022094B0A4A1A600422094B1A7060
:1035680008BD00BF8C000021C48A0001580C00214E
:10357800640B00210080004188110021680B0021A4
:1035880085390001CC110021012208B5084B1B68C0
:103598005A60DA60FCF7A4FDFCF79CFD00F052FECF
:1035A8000320FCF7A3FDBDE80840FCF781BD00BF80
:1035B800B800002110B5064C0649204604F0C1FEAB
:1035C800C1F82405201D04F0BCFEC1F8280510BD73
:1035D800A80000210080004108B507490748FCF70A
:1035E80073FD38B900F016FE4FF00412044B1B6847
:1035F800C3F8002208BD00BF8C000021C48A000166
:10360800B800002138B501251B4B1C4C1B685D60B8
:10361800DD6000F017FEFCF763FDFCF749FD0021B3
:10362800284600F0B5FD40F21313154AC4F80032DD
:10363800144B507C1B689847134BC4F8043500237F
:10364800C4F81031D4F810312561D4F81031002BAA
:10365800FBD00021C4F81011D4F8103140F2171330
:103668000120C4F8003200F027FDFFF7B5FF012262
:10367800064B9A6138BD00BFB800002100800041A8
:10368800580C0021640B00218811002100400141E1
:103698002DE9F843234B81461A780F46012ADFF8B3
:1036A800888031D198F80030C3F3050203F03F0356
:1036B800202B34D81D4B196A53F821301A701B4D32
:1036C8001B492C6A55F824600134304610F8052B44
:1036D80005F055F8174B86F80190D3F8483537713F
:1036E80003F07F03B37098F80130082C6FEA0303E6
:1036F80028BF0024012003F00103F370AB6A2C6299
:103708000133AB62BDE8F883084A116A52F82120F8
:10371800597809B91170D2E75B7C1370CFE70020A4
:10372800F0E700BF580C002188110021F80B002198
:103738008A1100210080004107B5174B1748DA7C31
:1037480090F90A00002302F5166201A9FCF7DAFCD9
:103758009DF80500FCF7D0FC50B11149114840F222
:103768005D3204F043FC40F25D310D4804F035FC55
:103778009DF90430002BC2BF0120033B8DF80430B3
:10378800094BC3F800059DF8042003F58043C3F8EE
:103798000C2503B05DF804FBA0000021580C0021A3
:1037A80075900001238B0001004000418378427826
:1037B8001B0443EA022302781343C27843EA025304
:1037C800027943EA8253427943EA0263827943EAFF
:1037D8008263C27943EA4273094AC2F81435837A8C
:1037E800417A1B0443EA0123017A0B43C17A43EA75
:1037F8000163017B43EA4163C2F81835704700BF93
:10380800008000411FB504460D220021684604F0DF
:10381800C3FF0A4BE0B20093094B8DF808005B7CAC
:103828008DF80900013B8DF80A30012368468DF8B0
:103838000B30FFF7BBFF04B010BD00BF0001010053
:10384800A00000211FB50023CDF80930CDF80130C4
:10385800CDF8053003238DF8023006238DF80030AB
:103868000C4B01225B7C8DF80B20013B8DF80A3054
:1038780020238DF80830084B1B7A934207D18DF826
:1038880005206846FFF792FF05B05DF804FB042B9E
:10389800F5D0F6E7A0000021580C0021684620F07A
:1038A80007018D4619B5144BD3F80423D2060BD55E
:1038B800D3F8102142B10022C3F81021D3F81031F7
:1038C8000E4B1B6803B198470B4CD4F804331B0705
:1038D8000BD5D4F80C3143B1084B1B6803B198479A
:1038E8000023C4F80C31D4F80C31FDF747FEBDE8CD
:1038F80019408546704700BF00800041680B0021D1
:10390800684620F007018D4631B5194B82B01B6817
:103918000193EFF31181402383F31288BFF36F8F74
:103928000022144B1D681A6081F31188BFF36F8F52
:10393800114C2368ABB1E90703D568468DF8002020
:103948009847AA0705D5012368468DF800302368F3
:1039580098476B0705D5022368468DF80030236821
:103968009847FDF70BFE02B0BDE831408546704729
:10397800700B0021740B0021540C00212DE9F84F25
:103988007C4AD2F8007417F0010703D1BDE8F84F5C
:10399800FFF738BEDFF8E0A1DAF82830072BF5D8B2
:1039A800D2F80834754DDBB2DFF8D491D2F80C4464
:1039B80035F8230099F801208442C2F341014FEA07
:1039C800830640F0AC80A8198078814240F0A78037
:1039D800B8460027AA199170664A6A4CD2F80C2496
:1039E80025F82320A37C23B199F80130DB0740F1A7
:1039F800BD80FCF775FB64496448FCF75FFB94F8ED
:103A080000B0634CBBF1000F00F0A180BBF1010FC7
:103A180057D1584BDFF87CC1D3F80814DCF82830AC
:103A2800002B00F08A805C48C9B250F82120002A97
:103A380000F08380D2F800E0DFF860B1CBF800E056
:103A480005EB060E9EF803E0BEF1000F17D0B8F1A3
:103A5800000F14D182F8048050F82120013B9268AD
:103A6800CCF8283040F82120002B5BD002B1126836
:103A7800CBF800204A4A136843F001031360494B0E
:103A8800DBF800801A68AB19B8F1000F4CD001219F
:103A9800D97098F800009047DBF8001023780A786E
:103AA800414862F30503237011F8052B04F067FE03
:103AB800637899F8012023F0070302F00702134303
:103AC80063700522394B1A70FFF736FE294BD3F87D
:103AD8000824D2B2C3F82C2540F21B12C3F80445BF
:103AE800C3F80022324B334A1A60B7B1214B354430
:103AF800D3F80804DAF82830A978072B0DD8C0B213
:103B0800FFF7C6FD48B1264A136843F00403136063
:103B18004FF08062284BC3F80021BDE8F88F4FF0C2
:103B2800000857E74246A3E7404683F803809047DA
:103B3800237868F305032370BAE74FF00008AB1940
:103B480083F80380174B40461B689847F0E7154BEE
:103B580058461B68984799F800302278C3F3010348
:103B680063F30102227084F801B0AAE7FFF74AFD67
:103B7800BBE700BF00800041F80B0021E00C0021EA
:103B880088110021580C00218C000021B08A000106
:103B9800AA110021240C0021780B0021500C0021CF
:103BA800740B0021640B0021AC110021CC11002101
:103BB800680B00213535000100E100E010B5002454
:103BC80000F0BCFBFFF7E0FC124801F089FC00F0B4
:103BD800DFFB114A2146D2F85036104823F0010382
:103BE800C2F850360E4B1C700E4B1C70FFF782FC4F
:103BF800202204F0D1FD0C4B08201C605C60FDF70E
:103C080013FF1A20FDF710FFBDE810401920FDF73B
:103C18000BBF00BFB800002100800041E00C00216C
:103C2800CC110021CD11002180110021F0B50446EE
:103C380085B0002800F0C580634E33780BB1FFF7DC
:103C4800BDFF6268614B04F110051A60604A2346A3
:103C58001746144618685968083303C4AB4222460D
:103C6800F7D118685B4B20600024202221465A486F
:103C78001C6004F091FD594B59491C605C60FFF7CA
:103C88001BFC3B7883B1012B01D1564B0B607A7A30
:103C9800554B012A00F08880022A07D07AB9C3F868
:103CA8003C25C3F8342508E0504BEFE74FF6FF708A
:103CB800C3F83C05C3F834254D4AC3F838250B68CA
:103CC800787C98474FF0E732474B4A48C3F81C25A1
:103CD8004FF04332C3F82025474AC3F82425474A02
:103CE800C3F82825FFF706FC454A0023114601338F
:103CF800082B40F8041B01F12501F8D100234149A4
:103D080041480133082B40F8041B01F12501F8D183
:103D180000252C463D4B0135082D1A601C719C600E
:103D280002F1250203F10C03F5D1202200213848C5
:103D380004F032FD374B384A384801A90193CDE9E0
:103D4800024401F049FB364B984235D100F096FA0F
:103D5800044698BB00F08CFA324B23491871D1F80D
:103D68005026FB7C22F001021343C1F8503622464C
:103D780001212846FDF77AFE224602211A20FDF786
:103D880075FE224602211920FDF770FE2846FDF730
:103D98003DFE1A20FDF73AFE1920FDF737FE224BAB
:103DA8001C700123337009E0FF20C3F83C05C3F8F9
:103DB800342540F2071280E76FF00D04204605B065
:103DC800F0BD6FF01504F9E7CD110021540C002166
:103DD800580C0021740B0021E00C002180110021F7
:103DE800640B00214D380001008000410D380001AE
:103DF80021100100240C0021E743C323A363E3132C
:103E080058100021300F0021F80B0021980B0021D9
:103E1800780B002140420F0019350001B80000213D
:103E28000000AD0B8C000021CC11002138B5274BC8
:103E38001B78002B41D0002842D0254CA36A002BC8
:103E480041D0EFF31185402383F31288BFF36F8FBE
:103E5800636A053054F823301A7800F8052C636A31
:103E680054F823305B7800F8043C636A54F8233034
:103E780093F9023000F8033C636A54F823301B7945
:103E880000F8013C636A54F82330DB7800F8023C00
:103E9800636A54F82310053104F071FC636A013336
:103EA800082B28BF00236362A36A013BA36285F342
:103EB8001188BFF36F8F002038BD6FF00C00FBE74F
:103EC8006FF01500F8E76FF03C00F5E7CD11002121
:103ED800F80B002138B5314B1A7802F0FF05002A9B
:103EE80059D14FF0FF322E4C2E49C4F80823C4F89C
:103EF8001051D4F810212C4A116040F21712C4F85E
:103F080000221022C4F80423042240F6C4111A70B7
:103F1800264B9A7CC4F83025DA7C02F516628A4270
:103F28000AD92349234840F20C7204F05FF840F2A2
:103F38000C711F4804F051F8A2F51662C4F8082560
:103F48001433D3E8EF1F21F00101C3E8E21F002A70
:103F5800F7D14FF48072184B0820C4F80435174B7A
:103F6800C3F88021FDF752FDC4F80451D4F8043198
:103F7800C4F808510120D4F808312946C4F8105172
:103F8800D4F8103100F098F8FFF726FB01222846F4
:103F98000B4B9A6138BD6FF00F00FBE7CC11002185
:103FA8000080004185390001680B0021A000002134
:103FB800CA8B0001238B00018811002100E100E079
:103FC8000040014108B50B4B1B7803F0FF015BB9BA
:103FD80068B103680848036004F0B3F9074B00BAF6
:103FE800C3F81C05084608BD6FF00F00FBE76FF02B
:103FF8001500F8E7CC110021A00000210080004145
:1040080008B50C4B1B7803F0FF0163B970B1036866
:10401800094840F8043F04F094F9084B00BAC3F883
:104028002005084608BD6FF00F00FBE76FF015008C
:10403800F8E700BFCC110021A0000021008000415A
:1040480038B50F4B0C461B7803F0FF0593B9A0B1A8
:10405800082912D80A4601460A4804F090FBFF23B3
:10406800094A1474C4F1080423419374FFF7A2FAAF
:10407800284638BD6FF00F00FBE76FF01500F8E732
:10408800CC110021A8000021A000002164280346CB
:1040980007D8074A127802F0FF002AB9054AD374F4
:1040A80070476FF0150070476FF00F00704700BF42
:1040B800CC110021A000002100222DE9F0410125AA
:1040C800284B8000C3F81821D3F81841C3F81C21E5
:1040D800D3F81C21244AC0B292F800C0234A4CF0FD
:1040E8000046C3F8986192F800E0214A4EF0004774
:1040F800C3F89C71127805FA0EF5940004F1824415
:1041080004F57044D4F80088D20045EA0808C4F8D9
:104118000088184C0432BEF11F0FC3F89C60D2B25D
:1041280027500AD9144915484FF4CF7203F05EFF9F
:104138004FF4CF71104803F050FF11488750114ACF
:10414800127842F00042C3F8982011B10E4BC3F820
:10415800806001230D4A03FA0CF32B43C2F804359F
:10416800BDE8F08100400141D0110021CF110021AC
:10417800CE1100218080004196900001238B000120
:1041880080F00041D11100210090014100F0004170
:1041980070B5184B184A1C780123127803FA04F4F6
:1041A8009340164A2343C2F808350022144D154B94
:1041B8008000C0B2C5F89821C5F89C21C5F89C209C
:1041C8001A50114B114E1B78D80004309B00C0B216
:1041D80003F18243325003F57043C5F89820D3F8B1
:1041E800000820EA0400C3F8000811B1084BC3F81E
:1041F800802070BDCF110021D011002100F00041B6
:104208000040014180800041CE11002180F0004132
:1042180000900141084B09491A7842F00043C1F85F
:10422800983101F5A041C1F8803001239340044A38
:10423800C2F80435704700BFD01100210040014189
:1042480000F00041084B1A7801239340074AC2F84E
:104258000835002302F5A042C2F8983102F5A042C1
:10426800C2F88030704700BFD011002100F0004133
:10427800014B1878704700BFD11100212DE9F34197
:104288000024244F6846244900978DF8044000F024
:10429800BDFB224B0646984204D06FF0120002B0D4
:1042A800BDE8F08168461E4900F0B0FBB042054603
:1042B800F3D168461B4900F0A9FBA8420646ECD199
:1042C800DFF864806846414600F0A0FBB04205462E
:1042D800E3D16846154900F099FBA8420646DCD1AF
:1042E8006846134900F092FBB0420546D5D16846AE
:1042F800104900F0A1FBA842CFD198F800200E4B3E
:1043080042F00041C3F89011012393402046C7F8BA
:104318000435C4E700F00041D41100210000AD0BC2
:10432800D3110021D2110021D1110021D011002177
:10433800CF110021CE1100210080004101220E4B37
:104348000E491B78097802FA03F302FA01F10B43CC
:104358000B49097802FA01F10B430A49097802FA74
:1043680001F10B43084909788A401343074A43F08F
:104378000103C2F808357047CF110021D31100217D
:10438800D1110021D0110021D411002100F00041E9
:10439800012373B5284E2949327868469340284A44
:1043A800C2F808350023C1F890318DF80430254B48
:1043B8000092197800F032FB234B054698420AD048
:1043C8002249234840F26B1203F010FE40F26B11B1
:1043D8001E4803F002FE1F4B6846197800F01EFBCA
:1043E800A8420446ECD11C4B6846197800F016FB2D
:1043F800A0420546E4D16846317800F00FFBA84298
:104408000446DDD1154B6846197800F007FBA04239
:104418000546D5D1124B6846197800F0FFFAA84234
:104428000446CDD10F4B6846197800F00DFBA04229
:10443800C6D102B070BD00BFD1110021008000417B
:1044480000F00041D41100210000AD0BC99000011B
:10445800238B0001D3110021D2110021D01100219A
:10446800CF110021CE1100210022D30003F1FF73E8
:1044780003F58033D3F80013013107D0D3F80013C4
:104488000132D3F80433202A0B60EED1224BD3E952
:104498004C32072B26D1023A032A204B28D9D3F8CD
:1044A8000024D10732D41C4BD3F83021072A19D164
:1044B800D3F83431023B032B02D8194AD35C8BB1B1
:1044C8007F23184A1849C2F818310023C1F8043E5E
:1044D800C1F8083EC2F82431C2F82C3102F57F2217
:1044E800C2F81031114B1A68114BC3F844257047B4
:1044F80010498A5C002AD2D0D3F80024D207CED53E
:104508000022C3F81421C3F81821C8E76FF001028C
:10451800C3F80024C7E700BF0000FF0100500041B6
:10452800EF90000100200041000008410080FF01D9
:1045380000600041F390000130B50468ACB1B4FAF2
:1045480084F30122C3F11F03DBB29A4024EA02027A
:10455800D0E8EF5FA54204D1C0E8EC2FBCF1000F12
:10456800F6D1EAD102480B7030BD0248FCE700BF23
:104578000000AD0B0200AD0B10B50368CB40DB07A4
:1045880010D401238B40026843EA0201D0E8EF4FC0
:10459800944204D1C0E8EC1FBCF1000FF6D1F2D16F
:1045A800014810BD0148FCE70000AD0B0400AD0B4D
:1045B8001F2808B50AD90949094840F2871203F0AB
:1045C80015FD40F28711054803F007FD054BD3F8A8
:1045D800003523FA00F000F0010008BD96900001B4
:1045E800238B000100F00041014BC3F8040570471C
:1045F80000F00041014BC3F80805704700F0004186
:1046080008B541B906490748482203F0EFFC48219C
:10461800034803F0E2FC40F00040C1F8800008BD08
:10462800F7900001238B000108B541B906490748F6
:104638004E2203F0DBFC4E21034803F0CEFC40F091
:104648000040C1F8800008BDF7900001238B0001ED
:1046580008B541B906490748602203F0C7FC602144
:10466800034803F0BAFC0023C1F8803008BD00BF3E
:10467800F7900001238B000108B541B906490748A6
:10468800672203F0B3FC6721034803F0A6FC00236C
:10469800C1F8803008BD00BFF7900001238B0001EE
:1046A8000146014800F0B2B9C0000021F7B506463E
:1046B80050B1012832D033493348FB2203F096FC2D
:1046C800FB21304803F089FC0C224FF4827302214D
:1046D8002E480025C0F80813012142F2107402F197
:1046E800824203F1824303F5A04302F5A042116020
:1046F8001D608E421B68254F8DF8071008BF0DF10D
:1047080007053EB3012E14D021491F4840F2A742A5
:1047180003F06CFC40F2A7411D48D3E704224FF494
:1047280080730146D4E70BB3012003F027FE013C58
:104738001CD0D7F80C3403F48033002DF3D0D7F80D
:104748000C2402F001020FE083B1012003F016FEF1
:10475800013C0BD0D7F8183403F48033002DF3D084
:10476800D7F8182402F003022A700BB903B0F0BD81
:104778009DF807000128F9D103F000FE013CC0D1E3
:10478800F4E700BF34910001238B00010050004181
:1047980071910001054B1A792AB95A7101221860E2
:1047A8001A71034870470348704700BF6C0C00211A
:1047B8000000AD0B0C00AD0B08B50F4B1A7952B9C0
:1047C8000E490F4840F2591203F010FC40F25911FB
:1047D8000A4803F002FC1B6833B10520FDF738F9DD
:1047E80010B90520FDF712F90122064BC3F8182568
:1047F800C3F8142508BD00BF6C0C002134910001DA
:10480800238B00010050004138B5334C237953B94C
:1048180032494FF4D472324803F0E8FB4FF4D471B4
:104828002E4803F0DAFB50B101284BD02B4940F257
:10483800FD122B4803F0DAFB40F2FD11F0E7294B9B
:10484800D3F81814D3F81824C90321D502F00303A8
:10485800012B02D00020FFF729FF0122214B022063
:10486800C3F8182508224FF48273002103F182430C
:1048780003F5A04319601D68012502F1824202F583
:10488800A042156022680AB3164BC3F804030EE071
:10489800D3F81424D207E0D5D3F81C2402F003027D
:1048A800012AD7D122681AB10222C3F8042338BDDD
:1048B800D3F80421002AFBD00022C3F80421D3F83E
:1048C8000431F4E700224FF48073CEE71A68002A17
:1048D800FCD019601B68EAE76C0C002134910001D8
:1048E800238B00010050004108B5094B1B7953B9CF
:1048F8000849094840F2172203F078FB40F21721D3
:10490800044803F06AFBBDE80840FFF7CFBE00BFCC
:104918006C0C002134910001238B0001164BD3F855
:104928000C14D3F80C24C80322D5D10720D5D3F80A
:104938001824D2031CD5114A517901F0FF00C9B9D6
:10494800C3F81C01D3F81C110121517119611268B7
:1049580022B18022C3F8042309487047D3F81C21E8
:10496800002AFBD00022C3F81C21D3F81C31F3E73E
:104978000448704704487047005000416C0C0021FF
:104988000000AD0B0500AD0B0B00AD0BF8B5012712
:104998001A4D1B4ED5F8044304B9F8BDB4FA84F097
:1049A800C0F11F00830003F580739BB203F18243BB
:1049B80003F5A04307FA00F21968D2B224EA020408
:1049C8000029E9D00021022A19601B68C5F80823CC
:1049D80004D83AB13368C0B29847DDE7802A01D1DC
:1049E8007171F7E70749084840F2763203F0FEFA9A
:1049F80040F27631034803F0F0FA00BF005000415E
:104A08006C0C002134910001238B00010079024BCA
:104A180003EB0010FFF790BDC800002101230279C5
:104A280000688B40C0F80835024800EB0210FFF719
:104A3800A3BD00BFC80000210079024B03EB0010A2
:104A4800FFF77ABDCC00002102790368012003EB4F
:104A5800C1035860024800EB0210FFF78DBD00BF8C
:104A6800CC000021034A4309D35C00F01F0018441E
:104A7800C0B270471892000108B502680146104696
:104A880003F098FC50B90F494FF46C720E4803F0CC
:104A9800ADFA4FF46C710B4803F09FFA02F01F0354
:104AA80052090B600AD0012A0AD0064940F2B932ED
:104AB800054803F09BFA40F2B931ECE7034808BD1A
:104AC8000348FCE7F08A0001238B000100058C41B4
:104AD80000088C41072808B50AD90749074840F259
:104AE800AA3203F083FA40F2AA31034803F075FAB8
:104AF800800000F5807008BDA5910001238B00019E
:104B080070B50546FFF7AEFF0C4C083034F810308E
:104B18000E46DA0508D5C3F3432304EBC30228463F
:104B280054F8333052689847A3682BB13146284669
:104B3800E268BDE87040184770BD00BFD80000218A
:104B480008B5FFF78FFF034B083033F81000400B10
:104B580008BD00BFD800002108B5FFF783FF034B4D
:104B6800083033F81000C0F3400008BDD800002119
:104B780008B5FFF777FF044B083033F8100010F042
:104B88001C0018BF012008BDD800002108B5FFF798
:104B980069FF034B083033F81000C0F3401008BD1C
:104BA800D8000021034611F0010010B5CCB20BD19A
:104BB800A207C4F340000DD5074A106A5860106276
:104BC800003818BF012005E004490A6A1A600A6221
:104BD800002AEDD010BD00BF00088C4100058C41B3
:104BE80010B5FFF73FFF184A083032F81030D905E2
:104BF8001DD5C3F3432123F4F85322F810300020C5
:104C080002F10E0434F8023F13F4807F03D0C3F39B
:104C1800432399420BD001303028F3D100230B48AD
:104C280042F83130FFF7A8FC094B984200D110BD7B
:104C3800084909484FF4DC7203F0D8F94FF4DC71E5
:104C4800044803F0CAF900BFD80000215001002130
:104C58000000AD0BDA910001238B00012DE9F84328
:104C6800002407460E4625464FF00108A146B542E6
:104C78000DD1124BD3F87C2132B10022C3F87C212C
:104C8800D3F87C3144F000442046BDE8F883E8B20C
:104C9800FFF720FFA0F58072920808FA02F2174287
:104CA80009D000F1824303F52043196819B1C3F80C
:104CB80000901B6814430135D9E700BF00A00041EC
:104CC800F7B506460846FFF7CDFE1A4F00F108056E
:104CD80037F815300C46DB0729D5304603F0E3FBDF
:104CE8002046FFF753FF50B12046FFF729FF002366
:104CF800316801EB8000C0F81035C0F81035204647
:104D0800FFF76EFF002301A827F815300194FFF77D
:104D1800B3FE019B00EB8300D0F80022064B134042
:104D280043F00203C0F80032044803B0F0BD044861
:104D3800FBE700BFD8000021F0F0FCFF0000AD0B3E
:104D48000400AD0B2DE9F0431646804685B00846B1
:104D5800FFF788FE37680D460446E7B1084603F0BA
:104D680097FB08BB3B46CDE900008DF80E008DF897
:104D78000F000DF10F020DF10E01284603F02CFB78
:104D8800474A04F1080132F8113023F0020343F0D6
:104D9800010322F8113073687BB328461F785968DD
:104DA800FFF7DAFE10B1E9B13E4829E03C4A04F1C8
:104DB800080032F8103023F02003DB04DB0C22F863
:104DC800103079B1032FEFD87168496891F800C0A5
:104DD800D8F800104FEA8C094944A7B9C1F81075F2
:104DE800C1F810752E4A04F1080132F8113023F089
:104DF8001C0343EA870322F81130B3683BBB2A48F7
:104E080005B0BDE8F083D1F810E543EA4C332EF045
:104E1800030EC1F810E5D8F8001043F0200301EBA9
:104E2800090EDEF8101522F8103021F44F3121F464
:104E38004071CEF810152902DEF8108501F47C5176
:104E480041EA074141EA0801CEF81015CAE72846A9
:104E5800D3E90067FFF7C4FE002ED0D0104DD5E986
:104E68000023964203D19F4201D1002209E00F4856
:104E78000DF10F01FFF760FB0B4B9842C0D19DF875
:104E88000F2005EBC20308345F6035F8143045F88D
:104E9800326043EA422343F4807325F81430AEE7C6
:104EA800D80000210400AD0B0000AD0B500100211B
:104EB8002DE9FF410C468046204611461E46FFF765
:104EC800D1FD054621B32046FFF746FE18B9204616
:104ED800FFF75CFE10BB2046FFF74AFE10B14B7887
:104EE800012B1BD001238DF80F3000234A1CCDE97C
:104EF800001320468B1C0DF10F0103F06DFA294AAF
:104F080005F1080132F8113043F0030322F811309B
:104F1800002E44D02046FFF71FFE18B9224804B0DF
:104F2800BDE8F081002296F800C0D8F800301D4F87
:104F380003EB8C03C3F81025C3F8102505F108020C
:104F480037F812104FEA8C0E21F02001C904C90C61
:104F580027F81210757815B3D8F80000B6787044A1
:104F6800D0F810352D0423F4991323F4F853C0F81E
:104F78001035230203F47C5305F440353605D0F888
:104F880010E52B4306F48016334341EA4C3143EADB
:104F98000E0341F02001C0F8103527F8121003481D
:104FA800BDE700BFD80000210400AD0B0000AD0B29
:104FB800014BC3E902127047D800002110B514460E
:104FC80052B90E490E4840F20D3203F00FF840F284
:104FD8000D310A4803F001F80846FFF7D7FD50B134
:104FE8000846FFF73FFD074B083033F810300648F6
:104FF8005B0B237010BD0548FCE700BFDA91000188
:10500800238B0001D80000210000AD0B0400AD0B7C
:105018002DE9F041174D064695F880403CBBA04667
:105028006022214605F1100003F0B6FB36682F6FA9
:10503800A7420FD1002346F30730C6F87C31D6F8D3
:105048007C31FCF7E3FC01230B4885F88030AB6723
:10505800BDE8F081E0B2FFF73DFDA0F580739B0845
:105068001F2B04BF46F8008033580134E0E703489B
:10507800EEE700BFD80000210000AD0B0C00AD0B1F
:10508800034B93F88000003818BF0120704700BF19
:10509800D80000210148FFF76FBA00BF4C0100217A
:1050A8000148FFF749BA00BF4C0100212DE9F3413F
:1050B800054608460C461646FFF75AFD50B93349CF
:1050C80040F2FA32324802F091FF40F2FA312F48AA
:1050D80002F083FF2B680846D3F80423002AA4BFF4
:1050E8004FF00042C3F80423FFF750FD10B3084601
:1050F800FFF732FD0746E8B90846FFF721FD0446E9
:10510800FFF7E8FCD5F8008048F8007058F8003040
:105118002B6803EB8403D3F8102542F00102C3F88F
:10512800102526B101232A68A340C2F8043302B02F
:10513800BDE8F08146B9154940F20E42144802F024
:1051480055FF40F20E41C2E72046FFF78BFC114B9A
:10515800083033F81030C3F38203042B11D0052B29
:1051680011D001A80194FFF787FC019B0169D94080
:1051780001F001010231204602B0BDE8F04103F020
:1051880078B90321F7E70221F5E700BFDA910001BA
:10519800238B0001D80000212DE9F04F684BDFF880
:1051A800A481D3F80403D8F87010C0B289B040F0D5
:1051B8000040FFF753FD051E2FDAC24600235AF8B8
:1051C8007C1F06A8CDE90633FFF7ECFC4FF0000B77
:1051D8005D4B0DF118090193019A12F8013B0192F8
:1051E800DA081AF8022003F0070322FA03F3DA07B1
:1051F8001CD409F10409BBF1000F14D0D8F87010C1
:105208004FF00040FFF72AFDD8F87C1006A8FFF7FA
:10521800C9FC0028DAD125F000450124002D76D1FB
:1052280009B0BDE8F08F4FF0010BD5E7474B5B4461
:105238000293D9F800100029DBD091FAA1F1B1FA54
:1052480081F1029B1C7841EA44142046FFF70AFCCE
:10525800083038F81070C808BB080393012319F800
:10526800002001F0070103FA01F122EA010209F81E
:10527800002005A80594FFF7FFFB059A039B8032E1
:1052880050F82220C7F382065B073746C2F3014273
:1052980022D539462046D6B2FFF732FC05A8059438
:1052A800FFF7EAFB059B803350F82330C3F3014333
:1052B8009E4207D10021204603F0DBF83146204604
:1052C80003F0D7F805A80594FFF7D6FB0122059B44
:1052D80002FA03F30362ACE7022A0CD10321204649
:1052E80003F0C7F806F00503012BEBD13946204639
:1052F800FFF706FCE6E702212046039203F0B9F81F
:10530800032EF3D0039A032ADCD1022EEDE795FA97
:10531800A5F3B3FA83F304FA03F29B0003F1824383
:1053280003F52043D3F81005D3F81015C0F3052072
:10533800C1F3014125EA0205FFF7E2FB6EE700BF72
:1053480000A00041D8000021289200012892000105
:1053580070B51E4A0C68B2FBF4F304FB132595BB29
:10536800944230D85C1E1C402DD1B3F5007F2AD85A
:1053780093FAA3F3B3FA83F302684D79D2F804657C
:10538800097926F0030601F003013143C2F8041538
:10539800D2F8081505F0030521F003012943C2F8E6
:1053A8000815C2F81035006800F5A07300F5B07252
:1053B8001C6053F8041B9342FAD140F30730FCF702
:1053C80025FB034870BD0348FCE700BF0024F40038
:1053D8000000AD0B0400AD0BF8B541B91A497C22A9
:1053E8001A4802F003FE7C21174802F0F6FD0C2350
:1053F8000579174C6B43E618377A1FBBE2508B6868
:10540800144A73600368934207D002F540429342FE
:1054180003D002F58052934202D14B79032B06D96F
:1054280009499422094802F0E1FD9421DCE7FFF7DD
:105438008FFF0C2303FB0544074BC21A5342534109
:105448002372F8BD0548FCE72A920001238B00016E
:10545800740C002100C000410000AD0B0C00AD0B26
:105468000C2110B50B4B027901FB0232127A012A8A
:1054780008D009490948D22202F0B8FDD2210648CD
:1054880002F0ABFD04682260027901FB02330222BC
:105498001A7210BD740C00212A920001238B00019E
:1054A8000C2110B50B4B027901FB0232127A42B97A
:1054B80009490A48DB2202F099FDDB21064802F07F
:1054C8008CFD012204682261007901FB00331A7205
:1054D80010BD00BF740C00212A920001238B00012B
:1054E800F8B50C27134D0379044607FB03531B7AC1
:1054F80043B911491148BC2202F078FDBC210E487D
:1055080002F06BFD0068002640F30730FCF78CFAC8
:1055180023682046D3F800224FF0FF32C3F8006218
:105528002368C3F80823FFF7BBFF237907FB03555C
:105538002E72F8BD740C00212A920001238B000101
:1055480070B50C260579134C06FB0544247A54B92A
:10555800114912484FF4957202F048FD4FF49571C5
:105568000D4802F03AFD4FF4803405688C4073B161
:1055780000268B0003F5A073EE50EB580368C3F8C0
:105588000443036801F5A87143F8212070BDC5F8EC
:105598000843F6E7740C00212A920001238B0001CE
:1055A8002DE9F0414FF00C0E0779144E1D460EFB05
:1055B8000766367A9DF8183056B91149114840F2F5
:1055C800451202F013FD40F245110D4802F005FDA9
:1055D8004FF00117D0F800E08F40DEF8006226EAAD
:1055E8000706CEF800620668D6F800422C43C6F8D3
:1055F8000042BDE8F041FFF7A3BF00BF740C0021D3
:105608002A920001238B00010149024802F072BF6F
:10561800740C002100C000410149024802F06ABF31
:10562800800C00210090014108B5084A084B9342BC
:105638000AD908490848182202F0D8FC1821054858
:1056480002F0CBFC1433F2E7FCD308BD3C8900011F
:10565800D888000167920001238B000170B50446C9
:10566800EFF31186402383F31288BFF36F8F0C4B3F
:105678009D6802F062FE042C08D10A490A48872274
:1056880002F0B4FC8721074802F0A7FC86F31188D2
:10569800BFF36F8F2846BDE87040FCF75BB900BFC9
:1056A8008C0C00218A920001238B000138B5094B2C
:1056B80053F82040013053F82050A54200D838BD97
:1056C800636823B1204602F079FF0834F5E72368C0
:1056D8009847FAE7D88A0001012270B5344B0320B5
:1056E80086B01A70FFF7E2FFFBF7E4FE02F082FFD4
:1056F8000420FFF7DBFF2F4C2F4DAC42264624D960
:105708002E4942222E4802F071FC42212B4802F019
:1057180064FC54F80C3C059354F8103C049354F87A
:10572800143C039354F8183C029354F81C3C01931E
:1057380054F8203C009354E90A2354E90C0100F082
:1057480017FE54F8303C5E65D7E7AE4204F13004EA
:10575800DFD301F00FFA174C1A4EAC421BD9174988
:105768006622174802F042FC6621CFE7D4E90A23F3
:10577800B3F1FF3F08BFB2F1FF3F05D052EA030182
:10578800206803D101F0CEFB3034E6E7314618300B
:1057980001F080FEF8E7E9D301F03AFAFAF7C2FD22
:1057A800094A137B23F00103137306B070BD00BFD1
:1057B800D51100213C8900013C890001AC9200010F
:1057C800238B0001098700012808002108B5034838
:1057D800034A0021121A02F009FF08BD98020021AD
:1057E800D81100210023012270B586B0CDE9042329
:1057F8000F220193CDE9023214230F4D0F4E03FB04
:1058080000550F4906EBC016044601EB00214FF482
:10581800807230460B4B009500F0AAFD737B2C7408
:1058280023F004037373084B013403EBC423EE60C5
:105838006B6006B070BD00BF8C0C0021A80700216A
:10584800D819002131590001D8110021BFB5002015
:10585800FFF72CFF2C4B03F5006282F3088883F3D3
:105868000A88E023294D002485F822302023EB778D
:105878002C766C76AC7685F820406B6A244E43F41F
:10588800E0236B6285F82340FBF7E2FFFCF768F939
:105898004FF0FF33AB62EB62FCF70CFBFCF784F9CB
:1058A80040F201121B4B1C4D9A81B360C3E91844A6
:1058B800DC66FFF7B9FE0120FFF7F8FE0220FFF7CC
:1058C800F5FE01F015FA154B756105930123144F88
:1058D80014494FF48062CDE9034328463B46CDE99D
:1058E8000144009400F044FD06466A7B284622F0F5
:1058F80004026A7300F01CFF2046FFF773FF3A4664
:1059080031462846FCF70CF9D811002100ED00E0DB
:105918008C0C0021A808002128080021CD92000144
:10592800E1560001D81A002108B50C4B9B6893F981
:105938000E30002B09DB4024EFF3118384F3128827
:10594800BFF36F8F02F0F4FBF6E7054905481B2209
:1059580002F04CFB1B21024802F03FFB8C0C00219B
:10596800D2920001238B00012DE9F341044617462A
:105978001E46EFF3058545B1514952486F2202F0A2
:1059880035FB6F214E4802F028FBEFF311884023C6
:1059980083F31288BFF36F8F4B4801F005FD38B9C8
:1059A8004A498822474802F021FB88214748EAE70C
:1059B800454801F01DFDE368454A9BB1A068916820
:1059C800884224D057EA060329D13F4801F0FAFC5F
:1059D800A0B188F31188BFF36F8F6FF00F0002B08A
:1059E800BDE8F081916891F90E100133E360936886
:1059F80035482161A36001F0E5FC50B9334940F214
:105A08003112304802F0F2FA40F23111CEE7216942
:105A1800EBE788F31188BFF36F8F0020DFE791F978
:105A28000E1090F90E306FF07E029942A8BF194609
:105A38009142B8BF11468B4202DD02F0DCFD0546FB
:105A480022464146CDE900761F4800F01DFF002898
:105A5800E3D0EFF31186402383F31288BFF36F8FEF
:105A6800194801F0A1FC00289AD0174801F0C0FCA1
:105A7800A068C0B1236821699C420AD04BB193F950
:105A88000E309942A8BF19466FF07E039942B8BFFD
:105A9800194602F0B0FD30B131460B4801F01EF84E
:105AA8006FF00A009BE7002DF6D1074801F08AFC49
:105AB8000028A3D086F31188BFF36F8FF0E700BFEB
:105AC800F3920001238B0001AC0C0021B38C000180
