:10000000B8390020E51F00001DA10000D11F00002D
:10001000D11F0000D11F0000D11F0000D11F000020
:10002000000000000000000000000000712100003E
:10003000D11F00000000000005210000D11F0000BA
:1000400021230000212300002123000021230000A0
:100050002123000021230000212300002123000090
:100060002123000021230000212300002123000080
:100070002123000021230000212300002123000070
:1002500021230000C560000021230000F5360000C6
:100260002123000021230000FD3A0000212300008B
:10027000212300002123000021230000212300006E
:10028000212300002123000021230000212300005E
:10029000212300002123000021230000212300004E
:1002A000212300002123000021230000212300003E
:10047C00014B1B689B68184700000020014B1B6850
:10048C001B69184700000020014B1B685B6918476B
:10049C0000000020014B1B689B69184700000020DE
:1004AC00014B1B68DB69184700000020014B1B68DF
:1004BC001B6A1847000000200728034611DC10F1C6
:1004CC002D0F10DB2E30094A40B2105C02EBC0023B
:1004DC0092F93C209A4207D0002918BF0130C0B2D3
:1004EC0070471A2070470020704700BFA4AD000071
:1004FC00072808B507DCFFF7DFFF044B03EBC0034D
:10050C0093F93C0008BD0820FCE700BFA4AD000037
:10051C00044B1A68292A03BF5868B0FA80F04009C6
:10052C0000207047D0110020044B1A68272A03BF03
:10053C005868B0FA80F0400900207047D0110020B4
:10054C0008B5104B1049D3F840230A60D3F8443354
:10055C004B60FFF7DDFF10B9FFF7E6FF48B10B4B1F
:10056C00C1E9023303F580530B61A3F5E0434B6102
:10057C0008BD074BC1E9023303F580530B61A3F5AA
:10058C008043F4E700C0FF00D011002000A004500D
:10059C000060045053B94AB9002908BF00281CBF99
:1005AC004FF0FF314FF0FF3000F00CB8ADF1080CFC
:1005BC006DE904CE00F056F8DDF804E0DDE9022325
:1005CC0004B07047704700BF08B5FFF7B9FFBDE82E
:1005DC00084000F036B8801A00F3070038B50D4615
:1005EC00144659B240B2FFF783FF00232870204411
:1005FC006B7040B238BD0023036070477047002019
:10060C0070474FF0FF3070474FF0FF307047704726
:10061C004FF0FF30704700207047002070470023D8
:10062C00037070470022FFF7D6BF002070474FF0D1
:10063C00FF3070474FF0FF3070474FF0FF3070477E
:10064C007047704700280CBF6FF0150000207047F2
:10065C00002070470723037000207047002070476C
:10066C00002070472DE9F04786468C460846089EC8
:10067C00154674461946002B40F0C1808542B2FAEB
:10068C0082F245D94AB1C2F1200300FA02FC95402E
:10069C0094402EFA03F343EA0C0C4FEA154EA8B221
:1006AC00230CBCFBFEF80EFB18CC08FB00F943EA4C
:1006BC000C43994528D9EB1808F1FF3704D299451A
:1006CC0002D9A8F102072B44A3EB0903A4B2B3FB94
:1006DC00FEFC0EFB1C330CFB00F044EA0344A0426E
:1006EC0014D92C190CF1FF3304D2A04202D9ACF16D
:1006FC0002032C44241A43EA07401EB1D4400023C1
:10070C0034607360BDE8F0874746DDE76346F1E788
:10071C0092BB431B01214FEA154EAFB2200CB3FB29
:10072C00FEFC0EFB1C330CFB07F840EA0343984518
:10073C0061D9EB180CF1FF3004D2984502D9ACF119
:10074C0002002B44A3EB0803A4B2B3FBFEFC0EFB8C
:10075C001C330CFB07F744EA0344A7424DD92C1970
:10076C000CF1FF3304D2A74202D9ACF102032C44A2
:10077C00E41B43EA0040C0E7C2F1200395409440DB
:10078C0020FA03F12EFA03F34FEA154E9040AFB264
:10079C000343B1FBFEFC0EFB1C10190C0CFB07F801
:1007AC0041EA0041884522D969180CF1FF3004D286
:1007BC00884502D9ACF102002944A1EB08019BB297
:1007CC00B1FBFEFC0EFB1C110CFB07F743EA0143CB
:1007DC009F420ED9EB180CF1FF3104D29F4202D983
:1007EC00ACF102012B44DB1B41EA004193E760466C
:1007FC00E3E76146F7E76046A4E76346B8E7834260
:10080C0006D916B9002108467CE7C6E900E0F9E7ED
:10081C00B3FA83F78FB9834201D3724508D8BEEB84
:10082C00020460EB030301209C461EB9002169E71A
:10083C003846FAE7C6E9004CF8E7C7F1200CBB4094
:10084C000EFA07F522FA0CF42EFA0CF1BA401C43FE
:10085C0020FA0CF3B8404FEA144901431FFA84FE06
:10086C00B3FBF9F809FB18300B0C08FB0EFA43EA42
:10087C0000439A4540D9E31808F1FF3004D29A4559
:10088C0002D9A8F102002344A3EB0A0389B2B3FBFB
:10089C00F9F809FB183308FB0EFE41EA03418E45BB
:1008AC002CD9611808F1FF3304D28E4502D9A8F176
:1008BC000203214443EA0040A1EB0E01A0FB029885
:1008CC004145CE46434602D306D14D4504D20138AC
:1008DC00B9EB020E68EB0403002EA7D0B5EB0E02A9
:1008EC0061EB030101FA0CFC22FA07F3F9404CEA24
:1008FC000303C6E9003199E74046C5E74346D9E70B
:10090C0008B50378022B06D1034803F077FB10B926
:10091C000122024B1A7008BDA51D0020A41D002049
:10092C0008B503685F2B4FEA531107D80B4A03F045
:10093C001F0352F82120DA40D2070AD4084909488B
:10094C004FF46C7209F066FB4FF46C71044809F0BB
:10095C0058FB0360044B53F8210008BD04AF0000A2
:10096C003CC300006FC30000F8AE000007B5019057
:10097C0001A8FFF7D5FF019B00EB8300D0F8802086
:10098C00044B134043F00303C0F8803003B05DF810
:10099C0004FB00BFF0F0FCFF30B5144A144B8BB0D5
:1009AC00CDE90123134A03AB10685168124D03C300
:1009BC001C460FCD0FC42B68104A2360012305A8D9
:1009CC008DF8153006928DF8263003F015FA58B9CB
:1009DC0001A803F0E1FB38B902A803F0FBFB18B93E
:1009EC00082103A803F016FC0BB030BD3344BB0147
:1009FC00DEF0122387C3000070AD00000D0900006B
:100A0C002DE9F74F804AD2F80035D2F80405D2F818
:100A1C000855A3B15E1C15D07C4A23F00303D2F811
:100A2C002016D2F8204643F6F072C1F3080101F209
:100A3C001731163B02EA143203FB01239B0A744A5A
:100A4C00C2F81C37441C3AD1691C70D04FF0FF0916
:100A5C00C8464F46EEB2FF2E61D14FF0010A09F0A5
:100A6C007CFA002840F0CD80FFF796FF002840F07C
:100A7C00C880282003F0F4FB03F014FB002840F09E
:100A8C00C0800546DFF88CB1634C9BF8002002F067
:100A9C00FF030193002A7ED000218BF8001003F095
:100AAC0077F9102200215D480AF047F8A27A019BE1
:100ABC00042A4FD8DFE802F042757D859300C4B25A
:100ACC00FF2CC0F30728C0F307474FEA106AEEB2B9
:100ADC0005D02046FFF74AFF204609F032FAB8F15C
:100AEC00FF0F05D04046FFF741FF404609F01DFAC5
:100AFC00FF2F04D1BAF1FF0F08D1D146ABE738462E
:100B0C00FFF734FF384609F01CFAF3E75046FFF7BD
:100B1C002DFF50465FFA8AF909F007FA9BE7EDB210
:100B2C002846FFF723FF284609F0FFF995E7FF2633
:100B3C004FF0000AB1463746B04690E70121374ADC
:100B4C001170217A517002215171E1791171617921
:100B5C0091711D46BAF1000F17D0637A4846DA0737
:100B6C0049D409F0E2F9637A30469B0746D409F080
:100B7C00DCF955B1B8F1FF0F02D0404609F0E1F9AC
:100B8C00FF2F02D0384609F0D0F9244800F076FC4B
:100B9C00224800F081FB002140F6354007F090FB25
:100BAC0073E71E4A217A5170E179117161795171A3
:100BBC00CFE70222194B1A70227A5A7062795A7155
:100BCC00C8E70321154A1170217A5170E17911712E
:100BDC0061795171A17991710A219160B9E704226F
:100BEC000E4B1A70227A5A7062791A71A2795A7164
:100BFC000A229A60AEE709F0A4F9B4E709F0A1F96A
:100C0C00B7E703B0BDE8F08F00D0FF0000C0FF00D5
:100C1C0000001250A41D0020A51D0020E814002087
:100C2C0000224FF0FF310A4BC3F80024C3F8901494
:100C3C00C3F82022D3F8202201221A61D3F82022F3
:100C4C00002AFBD00022C3F82022D3F820327047B0
:100C5C0000A0085010B5FFF7E3FF044B1B6823B14D
:100C6C001B6813B1BDE81040184710BDF8140020E4
:100C7C0010B51C4B0446D3F88824110516D5D3F8AF
:100C8C002C229AB10022C3F82C22174AD3F82C320A
:100C9C00136801331360826842B193420CBF002287
:100CAC0040F635420023114806F048FD0D4BD3F8B1
:100CBC008824520614D5D3F818228AB10022C3F81E
:100CCC0018220B4AD3F81832136801331360A26848
:100CDC00934205D1FFF7A4FFE368BDE81040184725
:100CEC0010BD00BF00A008500015002048000020D7
:100CFC000415002073B5124B124C187020460D468B
:100D0C0005F0E2F8104B0026D3F800224FF0FF322A
:100D1C00C3F800622946C3F80823204605F046F9BB
:100D2C0001230246009320464FF00113314605F093
:100D3C008FF9204602B0BDE8704005F0A5B800BFA1
:100D4C00CC1D002010AF00000050085000F12E0305
:100D5C0010B50446362B5ED8DFE803F0645D5D5DAC
:100D6C005D5D1C5D5D5D5D5D5D5D5D5D5D5D2F5D16
:100D7C005D5D5D5D625D625D315D335D355D375D31
:100D8C00393B3D3F41434547494B604D4F515355CE
:100D9C0057595B004FF49873244AC2F81037244B10
:100DAC001B78002B41D12146224809F01DF9214620
:100DBC00BDE81040204809F017B90123ECE70323E4
:100DCC00EAE70423E8E70523E6E70623E4E707233D
:100DDC00E2E70823E0E70923DEE70A23DCE70B233D
:100DEC00DAE70D23D8E70F23D6E71123D4E7132333
:100DFC00D2E71523D0E71B23CEE71F23CCE7232311
:100E0C00CAE72823C8E72D23C6E73323C4E73923D1
:100E1C00C2E73F23C0E7094809F0E6F81823BBE70F
:100E2C000223B9E74FF48873B6E710BD00A0085051
:100E3C00CB1D0020CFC30000F4C3000090C3000002
:100E4C001FB501240022444BA142C3F80447C3F848
:100E5C00442EC3F8482EC3F83C2EC3F8404E2AD07B
:100E6C00022922D0002959D1AB22C3F8342E4FF0DD
:100E7C00AB32C3F82C2E0023CDF80530CDF8013061
:100E8C00FF238DF808304FF48273ADF80A3001233C
:100E9C0004388DF80C300B285BD8DFE800F0554196
:100EAC00415A5A55555A5A5A5A11CC22C3F8342E13
:100EBC004FF0CC32DDE76A22C3F8342E274AD8E74C
:100ECC0002238DF805307F238DF808300023ADF810
:100EDC000A308DF80C308523214A13809DF8073099
:100EEC009DF804205B0743EA82539DF8052043EAF2
:100EFC000263194A43F00803C2F8203E9DF80A30F9
:100F0C009DF80B101B0443EA01639DF808100B437A
:100F1C009DF80C1043EA4163C2F8283E04B010BDA2
:100F2C0040F20233ADF80430032340F203128DF883
:100F3C000730ADF80A30084BC3F8442E0022C3F832
:100F4C00482E4FF48B73C7E78DF8053040F207132A
:100F5C00C2E74FF48373BFE700A008501B81FE5813
:100F6C00801D002038B504460D46FFF769FF0F2C95
:100F7C0014BFFF237E230C4C012D237010D0022DA7
:100F8C0008D01DB9FF21601C09F024F9074BC3F8E8
:100F9C00D04E38BDFF22CC21601C09F0CEFDF5E708
:100FAC00FF22F021F8E700BFCD1E002000A0085062
:100FBC000F2808B50DD1A1F10B030F2B1AD801EB9B
:100FCC00810101F62E110D4BA1F51661C3F808171E
:100FDC0008BD40F6C41301F516619942F3D90849CE
:100FEC00084840F20C7209F015F840F20C710448F4
:100FFC0009F007F840F66511E5E700BF00A00850BE
:10100C0016C400006FC3000010B5214CD4E8EF3FAC
:10101C0023F48032C4E8E12F0029F7D1D80304D59A
:10102C001C4B1D49187805F011FBD4E8EF3F23F059
:10103C000402C4E8E12F0029F7D1590705D5154B57
:10104C00164A1749187809F07EFAD4E8EF3F23F0D6
:10105C001002C4E8E12F0029F7D1DA0605D50D4BB3
:10106C00104A0F49187809F06EFAD4E8EF3F23F4D0
:10107C008072C4E8E12F0029F7D1DB0507D5BDE864
:10108C001040044B054A0849187809F05CBA10BDA9
:10109C00FC140020CA1D00200050085000A008506D
:1010AC000071085004A008504051085070B5044617
:1010BC00164DFFF7A9FF287814B3154A154905F00A
:1010CC00F7FA04230126144C06FA03F3D4E8EF2FA5
:1010DC001A43C4E8E12F0029F8D11049287805F00B
:1010EC0083FAD4E8EF3F43F48033C4E8E23F002AAC
:1010FC00F7D1287806FA00F0BDE8704009F040BA44
:10110C00074A044905F0D4FA0223DBE7CA1D002084
:10111C0004A0085000710850FC1400200050085026
:10112C0000A0085038B5044615460846FFF778FD70
:10113C000F2C08BF0222104BC3F8004508BFC3F8A0
:10114C001028D3F8002442F00102C3F80024FFF762
:10115C00FDFD2046094C2946FFF72AFF237843B1B1
:10116C000020FFF7A3FF23781BB1054B01221A6067
:10117C0038BD014BFAE700BF00A00850CB1D002082
:10118C00007008502DE9F04105460F4610461E46EA
:10119C00FFF746FD0F2D08BF02231B4C0146C4F878
:1011AC00005508BFC4F81038D4F80034284643F072
:1011BC002103C4F80034154BC4F8D03EFFF740FEB1
:1011CC0039462846FFF7F4FE0022114B1A604FF403
:1011DC000063C4F888340F4C23787BB10120FFF7EF
:1011EC0065FF237853B101220B4B1A6056B1BDE851
:1011FC00F0410023094A0A4806F0A0BA0122024B2A
:10120C005A60F3E7BDE8F08100A00850CD1D002026
:10121C0000150020CB1D002000700850B4C4040041
:10122C0048000020B0F5A07F10B50C4619D1097804
:10123C00032917D10122154B60781A70144B94F9BD
:10124C0004101A78FFF76EFF6279A07900210F4B1A
:10125C0019700F490B780133DBB2834298BF1A46E1
:10126C000A7010BD04290CD10122084B08491A70D0
:10127C006078227900230978FFF784FF227960795E
:10128C00E4E70448BDE8104008F0AEBECB1D0020DA
:10129C00CC1D00204AC400002DE9F3410378052B36
:1012AC0047D8DFE803F0030C4952595C427990F9B6
:1012BC000410407802B0BDE8F041FFF733BF44782A
:1012CC0090F8058090F9047086798568FFF7A8FC82
:1012DC0020464146FFF746FE062C5D4B5D4907D87C
:1012EC00D3F800240A43C3F80024C3F800450BE0EC
:1012FC000F2CF5D1D3F800240A43C3F800240222A2
:10130C00C3F80045C3F810283846FFF71FFD3146D7
:10131C002046FFF74DFE00224F4B1A604C4BC3F892
:10132C001822D3F8182215B14022C3F888240122C0
:10133C001A6002B0BDE8F081836802794179407887
:10134C0002B0BDE8F041FFF71DBF8168407902B0E3
:10135C00BDE8F041FFF7CEBC81680079F7E744782F
:10136C0090F80580856890F904708679FFF758FC31
:10137C0020464146FFF7F6FD0F2C08BF0223344AE6
:10138C003846C2F8004508BFC2F81038D2F800340D
:10139C0043F4002343F00103C2F80034FFF7D6FCFA
:1013AC0031462046FFF704FE2C4B2D4A1B5D12885C
:1013BC00C5F1640453435C43B4FBF5F429481C4465
:1013CC0004F082FD0020FFF771FE274B0025D3F8B7
:1013DC0000224FF0FF32C3F800522146C3F8082315
:1013EC00204804F0C3FD0223024601211D4800954C
:1013FC0004F02EFEEFF31186402383F31288BFF323
:10140C006F8F0125194B1A4C1D60207805F0D2F90D
:10141C0020B1207805FA00F009F0C4F8FFF7F4FDCC
:10142C000B4A1449207805F043F9134BD3E8EF1F0E
:10143C0041F48071C3E8E21F002AF7D10120237820
:10144C00984009F09DF886F31188BFF36F8F70E711
:10145C0000A008500100100004150020A7C40000D3
:10146C00801D002010AF0000005008500070085084
:10147C00CA1D002044510850FC1400204FF4007386
:10148C0030B51A4A87B0CDE90323059003A9044669
:10149C00174A184804F0A4FC174B0146984202D096
:1014AC00164808F0A1FD002500220521852000F03A
:1014BC009BFE23460521124A8A20009508F033FE34
:1014CC008A2000F061FE0F4805F05EF80A4B984246
:1014DC0006D00D4808F088FD6FF00D0007B030BD48
:1014EC000A4B0C3428461C60F8E700BF40420F0042
:1014FC003112000010AF00000000AD0B64C40000FE
:10150C007D0C0000CA1D002085C40000F8140020CA
:10151C00B2F5802F2DE9F0410AD3344940F2EB1299
:10152C00334808F077FD40F2EB11304808F069FDC4
:10153C00042A08D82D494FF4F9722D4808F06AFD99
:10154C004FF4F971F1E7043ACD1D8E1825F007051B
:10155C0026F00706761B172E4FEAD60708D8234924
:10156C0040F2FB12224808F055FD40F2FB11DCE77B
:10157C00B7FA87F44FF00008C4F12002C4F1240438
:10158C00A4000734E408631CBB420560AF60C5F8D7
:10159C000C8008D915494FF40372154808F03AFD30
:1015AC004FF40371C1E74146920005F1100009F0B8
:1015BC00C4FA630043F001036B803B1B05EBC402D0
:1015CC005900A5F800805180AA1925F83440A2F8DA
:1015DC000280AB5305EBC7035A88214642F0010247
:1015EC005A802846BDE8F04108F0D5BCB7C40000CD
:1015FC006FC30000014B1B68184700BF7800002028
:10160C0030B585B004460D4610220021684609F01D
:10161C0094FA02238DF80230044B2A462146684680
:10162C00019308F027FA05B030BD00BF0116000089
:10163C0080B505460E461746984606F0B7FE03469B
:10164C0009F0E6FA0446DFF81890424649F80030F3
:10165C0039463046A84754F8090000F037FD00BF62
:10166C00080000002DE9F84F0446A38B0846190723
:10167C00164612D4022803F0070162D1204608F066
:10168C00D6FC88B10138042800F22581DFE810F07F
:10169C00590023017E00C800F50001280CBF43F05F
:1016AC00100143F02001A18304F1140007F0CEF8DF
:1016BC00002800F0AB8086F31188BFF36F8FBDE874
:1016CC00F88F03F00702501F01281ED80020062AAD
:1016DC002768C4E9000014D13A4603E0E08B0130DE
:1016EC00E0831268002AF9D123F0070343F00202C9
:1016FC002046A28308F09BFC90B342F02002A28308
:10170C002EE023F007039AB2F2E7042A33D123F038
:10171C0007039AB22046A28308F089FC10B142F06C
:10172C002002A283A38B03F00709894540F0DC80DB
:10173C00A18BCA0640F1218121F01003A38301F093
:10174C000701D4F81880A38BB8F1000FB9DA002286
:10175C00276823F00703C4E9002243F00103A383A5
:10176C00A38B03F00709894540F0BF80002FDFD021
:10177C000025AA4640E0854940F21B12844808F037
:10178C0049FC40F21B11814808F03BFC41B17F49F8
:10179C004FF4AB727E4808F03DFC4FF4AB71F2E7AE
:1017AC00236843B9794940F25712794808F032FC62
:1017BC0040F25711E7E723691D6845B973494FF4A7
:1017CC00AD72734808F026FC4FF4AD71DBE70F46A1
:1017DC0088464FF00609A38B23F0070343F006035A
:1017EC009BB2A383A268002A40F08180002F40F0B6
:1017FC008180002D9CD0BA4643F0080304F1140BF1
:10180C005846A38307F022F8002875D1614940F2AD
:10181C0031125F4808F0FEFB40F231115D48B3E72E
:10182C00022908D0594940F25D12594808F0F2FBE0
:10183C0040F25D11A7E7E78B47B154494FF4AF7203
:10184C00534808F0E7FB4FF4AF719CE723695D68E0
:10185C0045B94E4940F261124D4808F0DBFB40F2AD
:10186C00611190E7A38BB84623F0070343F0040300
:10187C009BB24FF00409A383B4E7012908D0434974
:10188C004FF4B272424808F0C5FB4FF4B2717AE7DC
:10189C00236843B93D4940F265123D4808F0BAFB54
:1018AC0040F265116FE723699D6845B937494FF4DC
:1018BC00B472374808F0AEFB4FF4B47163E70027FD
:1018CC00A38BB84623F0070343F005039BB24FF0FC
:1018DC000509A38386E72D4940F26B122C4808F0CA
:1018EC0099FB40F26B114EE7002700257AE74FF089
:1018FC00010A81E792467FE786F31188BFF36F8F69
:10190C00BAF1000F16D147BB15B120462249A847A2
:10191C00EFF31186402383F31288BFF36F8F584681
:10192C0006F086FF08BB1B498822194808F072FB99
:10193C00882173E7A1680029E5D00E680029E2D060
:10194C0043464A462046D1F804A0D0471EB133681E
:10195C0031461E46F2E73346FAE7394643464A46D5
:10196C0020463F6808F08FFBCDE7584606F084FF11
:10197C00A38B23F00803A383DAE68B067FF594AEE2
:10198C0021F02003A38301F0070177E6DAC40000FD
:10199C006FC30000FFC40000A9190000F8B504468D
:1019AC000D4600F11406EFF31187402383F31288E0
:1019BC00BFF36F8F304606F03BFF40B909490A4828
:1019CC00882208F027FB8821064808F01AFB3046CD
:1019DC0006F052FFA5613A462046BDE8F8400121C9
:1019EC00FFF740BEFFC400006FC300002DE9F047B5
:1019FC0004460F4608F037FB051E5DDB04F11409A5
:101A0C00EFF3118A402383F31288BFF36F8F48469C
:101A1C0006F00EFF804638B933498822334808F067
:101A2C00F9FA882130483CE0484606F025FF4FF68D
:101A3C00FF72E38BA68B934206F007063FD0022E73
:101A4C0010D135460133E383484606F0FFFE0028EB
:101A5C003BD1254940F23112244808F0DBFA40F220
:101A6C003111DFE7062E13D8DFE806F0092C12122D
:101A7C00090409006FF085054FF00008E4E7002326
:101A8C003B6063687BB9C4E900777EB13546F3E708
:101A9C00174916484FF4E47208F0BCFA4FF4E4719D
:101AAC00134808F0AEFA1F606760EEE75246022159
:101ABC002046FFF7D7FD35462846BDE8F0876FF086
:101ACC000A05D9E76FF00405D6E78AF31188BFF34E
:101ADC006F8FB8F1000FEFD0002332463946204605
:101AEC0008F0D1FAE8E700BFFFC400006FC30000A4
:101AFC00DAC40000F8B5054600F11406EFF31187BF
:101B0C00402383F31288BFF36F8F304606F090FEAC
:101B1C0038B920498822204808F07CFA88211D48D1
:101B2C0025E0304606F0A8FEAC8B04F00704022C2E
:101B3C0012D0012C0CBF6FF004046FF085043046FA
:101B4C0006F084FE08BB134940F23112124808F02B
:101B5C0061FA40F23111E2E7EB8B53B90F490E48B1
:101B6C0040F2EF1208F056FA40F2EF110B4808F071
:101B7C0048FA013B9BB2EB83002BE0D13A4621465D
:101B8C002846FFF76FFD2046F8BD87F31188BFF399
:101B9C006F8FF8E7FFC400006FC30000DAC40000C9
:101BAC0008B54268034602F00302032A816002D0A2
:101BBC002AB1002000E0006800225A6008BD0449E8
:101BCC000448452208F026FA4521014808F019FA84
:101BDC002CC500006FC30000014B03600020704750
:101BEC0018AF000008B5044808F0FEF9BDE808403D
:101BFC00024808F0F9B900BF52C5000088C50000C2
:101C0C00B0F5877F08B508D904490548142208F0B7
:101C1C0001FA1421014808F0F4F908BDB6C500001A
:101C2C006FC3000070B506460C46154600F0CEFAA0
:101C3C0040B109490948172208F0ECF91721064868
:101C4C0008F0DFF93046FFF7DBFF054B43F8305067
:101C5C0003EBC0035C6070BDE5C500006FC3000002
:101C6C000004002030BFFFF7FDBF00BF2DE9F0419D
:101C7C0005460B4EDFF82C80324606EB0807CC1BD2
:101C8C002046094908F04CFFA01942460021083CA7
:101C9C0008F053FFC5F8804007F10800BDE8F0815B
:101CAC0000000000040000006CAD0000074A9368BF
:101CBC0093F90E10002907DB526993421FBF044AA7
:101CCC00536843F080535360704700BF30170020B7
:101CDC0000ED00E0154B9A6A12F0007F9A6A14BF6F
:101CEC001E201D2012F0807F9A6A18BF1F2012F44C
:101CFC00801F9A6A18BF022012F4002F9A6A18BF2C
:101D0C00212012F4802F9A6A18BF222012F4003F6F
:101D1C009A6A18BF232012F4803F9A6A18BF2420B5
:101D2C006FEA02426FEA12429A62704700ED00E0DD
:101D3C0010B5194B0246986A9C6A10F4805F14BF68
:101D4C001720162014F4006F9C6A18BF1820A405E5
:101D5C0009D5986B986A000404D51AB19A6A22F4D2
:101D6C0000429A6219200C4B9A6A12F4806F9A6A9C
:101D7C0018BF1A20D2050CD49B6A13F4005F18BF4D
:101D8C001C20054A936A43F47F43936200230B7033
:101D9C0010BD1B20F5E700BF00ED00E010B5244B93
:101DAC000246986A9C6A10F0100F14BF1120102084
:101DBC0014F0080F9C6A18BF1220A40709D5586BA1
:101DCC00986A000604D51AB19A6A22F080029A62C7
:101DDC001320174B9A6A12F0010F9A6A18BF14203D
:101DEC0012F0200F9A6A18BF1520D20602D49B6AF3
:101DFC009B070ED50E4B9B6ADC060AD50D490E4887
:101E0C0040F2331208F006F940F23311094808F099
:101E1C00F8F8074B9A6A920642BF5A6A22F40052AB
:101E2C005A629A6A42F0FF029A6200230B7010BD4C
:101E3C0000ED00E012C600006FC30000F0B5564B79
:101E4C0004465B6800258BB0C3F3080385F3118847
:101E5C00BFF36F8F02F07F40B0F17F4F08D102F0DB
:101E6C000C00082804D012074CBF0C46012554B9AD
:101E7C004A494FF485624A4808F0CCF84FF4856122
:101E8C00464808F0BEF80022033B8DF80720032BD0
:101E9C007BD8DFE803F00272765D3F4AD36A13F019
:101EAC00020372D1D16A00291ADBD36A5B005BD5BD
:101EBC005369A16943F480735361BFF34F8FBFF330
:101ECC006F8F536931F8021C23F480735361BFF395
:101EDC004F8FBFF36F8F4DF60273994220D1236859
:101EEC009DF80720D2B9224602AE04F120073446F1
:101EFC0010685168083203C4BA422646F7D1099AD1
:101F0C00002D44D0C2F3080121B96FEA52226FEAC6
:101F1C0042220992184602A908F0F0F80BB0F0BD65
:101F2C00936ADBB233B101200DF10701FFF736FFE5
:101F3C000346D5E7936A13F47F4F05D001200DF1CA
:101F4C000701FFF7F5FEF3E7936AB3F5803F02D381
:101F5C00FFF7C0FEECE7114940F2FA22104808F0F6
:101F6C0059F840F2FA218BE70C4940F2FE220C485A
:101F7C0008F050F840F2FE2182E700200DF1070135
:101F8C00D4E700200DF10701DBE70023A8E722F4DA
:101F9C00FF7222F00102BCE700ED00E012C6000067
:101FAC006FC30000064B5A6942F010025A615A691D
:101FBC0042F480625A615A6922F008025A617047F1
:101FCC0000ED00E0EFF30880EFF3098101B57246F4
:101FDC00FFF734FF01BD00BF002080F31488BFF36E
:101FEC006F8F002080F30A8880F30B8802F050FB7F
:101FFC0000200E490860BFF34F8F0D4880F308880E
:10200C0000F03EF8402080F311880A484FF400613C
:10201C00401880F30988EFF314800221084380F301
:10202C001488BFF36F8F00F007F9000094ED00E007
:10203C00B839002078220020BFF34F8F0549064B9A
:10204C00CA6802F4E0621343CB60BFF34F8F00BF4A
:10205C00FDE700BF00ED00E00400FA050023184680
:10206C000649D1F89020C2F30722934200DB704757
:10207C00C1F89830C1F8A0000133F6E700ED00E09C
:10208C0010B572B6002484F31388FFF7E7FF2346DC
:10209C004FF0FF300C4A03F120010133102B42F8B2
:1020AC002100F8D100234FF0FF30074A03F1600103
:1020BC000133102B42F82100F8D162B6BFF34F8FD9
:1020CC00BFF36F8F10BD00BF00E100E0084B9B68B1
:1020DC0083420BD1EFF3058343B1064B5A6842F0B0
:1020EC0080525A605A6A22F400425A6206F064B96D
:1020FC003017002000ED00E017498A684FF03000DF
:10210C001044EFF3098C80E8F01F402080F3128814
:10211C00BFF36F8F114F4FF000664A698A603E60C3
:10212C004FF08004141920680D4C2060D2F8840004
:10213C000023C2F8843080F3118802F1300090E85B
:10214C00F01F8CF3098802F1000004B507F0F9FFC9
:10215C00BDE80440704700003017002004ED00E09B
:10216C00081500201EF0040F0CBFEFF30880EFF3EE
:10217C000980816911F8021C0229FFD001B5724651
:10218C0007F0C2FF01BD00BF00B2002807DB01232E
:10219C004109034A00F01F00834042F82130704788
:1021AC0000E100E000B200280CDB012206494309E3
:1021BC0000F01F008240203341F82320BFF34F8FE3
:1021CC00BFF36F8F704700BF00E100E0054B420981
:1021DC0053F82220012300F01F0003FA00F01040F6
:1021EC00704700BF00E100E008B5D3070BD4023103
:1021FC00072909D90D490E48582207F00BFF582121
:10220C000A4807F0FEFE002100B20028ACBF00F126
:10221C006040084B4FEA4111C9B2ABBF00F56140B9
:10222C0000F00F0080F80013195408BD44C60000DC
:10223C006FC3000014ED00E00B4A08B50B4B22F005
:10224C007F029A60BFF34F8FBFF36F8FD3F8882054
:10225C0022F47002C3F8882004F0A2FC06F014FBF0
:10226C0000F048F804F0DCFC0000000000ED00E099
:10227C0042F8203C009B0B4942F81C3C019B21F08E
:10228C00010142F8183C029B42F8081C42F8143C2D
:10229C004FF0807342F8043C0023203A0265C0F8EA
:1022AC00843070473D16000000B50B4B1546986006
:1022BC00D0F88020094B0E461A60036F83F30B880D
:1022CC002C4686F309880020054B984720460021B0
:1022DC0000220023034C2047301700200815002053
:1022EC0057A100003D1600001022014B1A617047E7
:1022FC0000ED00E00023402040F20F1210B5044C1A
:10230C00E1180133934281F80003F9D110BD00BFED
:10231C0000E100E008B5EFF30583064A103B02EB41
:10232C00C30152F8330049688847BDE80840FFF7FD
:10233C00BDBC00BF000400201FB5094C094A234650
:10234C000121094800F0FAF800230393074B0121FF
:10235C00E41A01A80193029400F00AF904B010BD2C
:10236C0000F002200000002018AF0000480D0020F3
:10237C0010B50C7A0B6804F01F0223F01F031A43EC
:10238C00CB68640923F01F03054943EA440343F077
:10239C000103C1F89800C1F89C20C1F8A03010BD11
:1023AC0000ED00E010B5074BD3F89030C3F30723D2
:1023BC00013B984202D8FFF7DBFF10BD6FF0150010
:1023CC00FBE700BF00ED00E02DE9F04F0F4614468F
:1023DC0006464FF000084D4D85B0B84580F292800E
:1023EC00D6F80490B9F1000F36D0B9F11F0F40F2B6
:1023FC00878019F01F0F40F08380D6F800A01AF0E8
:10240C001F0F7DD1504607F0C3FE834609EB0A002F
:10241C00013807F0BDFE834572D11BF1160F6FD04A
:10242C005C456DDDC5F898B0D5F89C10C5F898B032
:10243C00D5F8A03021F01F0143F01F0AD6E9003275
:10244C001A44994202F1FF391ED1CA4508D13146CE
:10245C005FFA8BF007F0A5FE08F101080C36BCE71B
:10246C003146C5F898B0D5F89C3022F01F0203F025
:10247C001F031343C5F89C30E0B207F092FE10F135
:10248C00160F3DD0441CE7E7C5F898B0D5F8A0204E
:10249C00013B23F01F0302F01F021343CA453146D0
:1024AC00E0B2C5F8A030E8D007F07BFE10F1160FB3
:1024BC0026D0C5F898B0D5F89C209DF808300AF1C4
:1024CC00FF3A62F304038DF80830D5F8A0309DF87C
:1024DC0008205B0863F347128DF80820D6E9003218
:1024EC001344009323F01F035344A3EB090301305F
:1024FC0023F01F036946C0B20393FFF753FFBEE7F7
:10250C006FF01504204605B0BDE8F08F00ED00E03B
:10251C000522044BC3F89420BFF34F8FBFF36F8F8A
:10252C00704700BF00ED00E0BFF35F8F0022024B4D
:10253C00C3F89420704700BF00ED00E010B5094CC3
:10254C002278FFF741FF207016300AD10649074860
:10255C0040F26F1207F05EFD40F26F11024807F077
:10256C0050FD10BDCD1F00207BC600006FC30000C6
:10257C002DE9F74F2E4D8A4606464FF00008AB4624
:10258C002C4FD04502DB03B0BDE8F08FD6F8049099
:10259C00B9F1000F47D031680846019107F0F8FDFA
:1025AC000199044609EB0100013807F0F1FD844262
:1025BC004FF01402204B10D002FB08F36FF0150201
:1025CC004BF803201D491E4840F27F1207F022FDF4
:1025DC0040F27F11194807F014FD14F1160F2C600E
:1025EC00F0D01978A142EDDD02FB08B0C7F8984095
:1025FC00C7F89840D7F89C4000F10801007B64F3C1
:10260C0004000871D7F8A0000C79400860F3471457
:10261C000C71D7F89C1021F01F016960D7F8A0103D
:10262C0021F01F01296108F1010814350C36A8E7C7
:10263C000C15002000ED00E0CD1F00207BC6000033
:10264C006FC300002DE9F0414E494F4CD1F890304A
:10265C002568C3F307239D4286B00AD94B494FF432
:10266C00D3724B4807F0D6FC4FF4D371474807F0B0
:10267C00C8FC0020FFF758FF464BC1F8C03085421C
:10268C001AD1454C01A82570FFF7A6FA002506467D
:10269C004FF04108414FAE4215D100202378394903
:1026AC00D1F89020C2F30722934265DB0020FFF79C
:1026BC002FFF06B0BDE8F081616801EB0011FFF758
:1026CC0057FE0130DBE7019A290102EB0513D3F821
:1026DC000CC00CEA0700B0F5001F23D0B0F5800F3A
:1026EC0038D0B0F5801F45D1586852589B68CDE959
:1026FC0002022122013B20F01F010B4423F01F0397
:10270C008DF810200593207802A9FFF74BFE0028C6
:10271C002DDA1E494FF4E8721D4807F07BFC4FF48C
:10272C00E871A3E758689B685258013B20F01F01E1
:10273C000B4423F01F031CF0010FCDE902028DF8AE
:10274C0010800593DFD011497422114807F062FC08
:10275C0074218BE758689B685258013B20F01F018D
:10276C000B44CDE9020223F01F030622C8E72378AD
:10277C000133237001358EE7C1F89830C1F8A00001
:10278C0001338DE700ED00E024AF00007BC60000B4
:10279C006FC30000AAFF4400CD1F00200000F0FF13
:1027AC0008B50649064821F00701C1F1005202F5AF
:1027BC003C32FEF7ADFE002008BD00BFBF3D00203F
:1027CC002015002008B5284A284B1A6000F0A6F8FE
:1027DC0041F6F8732648D0F82416C1F3080203EA30
:1027EC005133132182F48072883201FB0233214A67
:1027FC00590ADB0548BF0131C2F80419D0F820365C
:10280C004FF47A60C3F30801C3F30943434342F224
:10281C001C5081F4807101F2172100FB01334FF43D
:10282C007A701B0AB3FBF0F100FB1133B3F5FA7F9E
:10283C0028BF01310E4BC2F81C17D3F840131C29CA
:10284C000CD1D3F84433012B08D13423C2F82436ED
:10285C00D2F83C3623F40023C2F83C360122054B57
:10286C000020C3F8002608BD0020A107CC000020E2
:10287C0000C0FF000000125048B1054B054A1B6810
:10288C00B3FBF2F35843044B43F001031847704772
:10289C00CC00002040420F00E0AE0000F7B5064629
:1028AC000D461446194F384607F095FE40B91849A5
:1028BC001848142207F0AEFB1421154807F0A1FBB1
:1028CC00AAB2BB681B683BB9134912485B2207F0DC
:1028DC00A1FB5B211048F1E73146384698470028A8
:1028EC0002DB002003B0F0BD002CFBD1AC42F8D2CF
:1028FC002F1B042F28BF042700F012FE3A4601902C
:10290C0001A9301908F00CF93C44EFE7E0AC0000E9
:10291C00B9C600006FC30000F2C600000122024BD2
:10292C00C3F80424704700BF002008E037B54023EB
:10293C000C460A490093411A491105462346084A98
:10294C00084807F04AFC011E05DA2846234603B066
:10295C00BDE83040184703B030BD00BF4015002023
:10296C0051A2000090AC0000C9B2012908B508D9E9
:10297C00084909487E2207F04DFB7E21054807F0E7
:10298C0040FB0C22036901FB0233986C00F007003A
:10299C0008BD00BF26C700006FC3000070B5C9B2E8
:1029AC00012903690AD9184918484FF4B67207F07F
:1029BC0031FB4FF4B671144807F023FBEFF311858C
:1029CC00402484F31288BFF36F8F0C2606FB01346E
:1029DC00A46C14F0C00408D0A24206D085F3118870
:1029EC00BFF36F8F4FF0FF3070BD012206FB013338
:1029FC009A6485F31188BFF36F8F436803EBC103AF
:102A0C005B6898470020EFE726C700006FC3000003
:102A1C0070B50D4606490446411A49114022054835
:102A2C00FFF7BCFF2B4601462046BDE87040184717
:102A3C004015002090AC000070B500220121044626
:102A4C0040F20510FFF7D0FB104801F05FFF104B70
:102A5C00984218D1206900F035FA01F069FF266917
:102A6C000C49304607F025FB00280BDB0125B5642B
:102A7C002469084904F1200007F01BFB002801DB46
:102A8C000020656570BD6FF00400FBE7592B00005A
:102A9C000000AD0B4CAF00001FB500220123CDE9A7
:102AAC0002236B46084ACDF800D0CDF804D007F0CD
:102ABC00C2FB002805DB43F609520023684604F0EC
:102ACC0019FB05B05DF804FB63A2000010B5EFF331
:102ADC001184402383F31288BFF36F8F074A136866
:102AEC0023F00201DB07116002D4012001F0CAFFC0
:102AFC0084F31188BFF36F8F10BD00BF98150020B1
:102B0C000C22104B014602FB0033002030B4D3E9F9
:102B1C0010521864EFF31180402484F31288BFF331
:102B2C006F8F9C6C04F0C00444F002049C6480F32E
:102B3C001188BFF36F8F1DB12B4630BC024818476C
:102B4C0030BC70474015002090AC000008B506283A
:102B5C0016D8DFE800F004200D11202020000E4BC9
:102B6C00986C10F0070016D1BDE80840FFF7C8BFFD
:102B7C0000F0B6F90120F7E7BDE8084000F0BEB957
:102B8C000649074840F28F2207F044FA40F28F21A1
:102B9C00024807F036FA08BD4015002026C7000091
:102BAC006FC3000010B4EFF31182402383F312883B
:102BBC00BFF36F8F1648016841F002040460C80728
:102BCC0007D482F31188BFF36F8F012010BC01F082
:102BDC00D7BE1049D1F80C14C903F2D5EFF311800C
:102BEC0083F31288BFF36F8F0B498B6C03F0C00318
:102BFC0043F002038B6480F31188BFF36F8F82F371
:102C0C001188BFF36F8F002010BCFFF779BF00BF96
:102C1C009815002000E0105040150020024BC0B267
:102C2C0003EB4010704700BF40150020F8B501229F
:102C3C0006462F49D1E8EF3FC1E8E02F0028F9D133
:102C4C009BB92C492C484B60CB608A60FEF7CEFEBA
:102C5C0000280ADA294940F23F22294807F0DAF91C
:102C6C0040F23F21254807F0CCF9F6B1731E012B39
:102C7C0034D807F024FD0446C0B9224B1B78ABB105
:102C8C0004220546204BC3F808231F4FD7F84C24C9
:102C9C00D7F84C34D20312D59B0701D0012E0ED19C
:102CAC00BCB185F31188BFF36F8FF8BDEFF31185BD
:102CBC00402383F31288BFF36F8F0124E5E71CB127
:102CCC00284607F056FAE1E70021202005F0F8FA33
:102CDC00DCE704220C4BC3F80423E6E7074940F277
:102CEC005122074807F096F940F25121BAE700BF8C
:102CFC003C1500202C1500206015002026C7000074
:102D0C006FC300007522002000E0105008B5FEF7DC
:102D1C00F1FE002808DA05490548552207F07AF932
:102D2C005521024807F06DF908BD00BF70C70000BF
:102D3C006FC30000054C064821464D2208B507F02C
:102D4C0069F94D21204607F05CF900BF70C70000FF
:102D5C006FC30000012208B50D4BD3E8EF1F00290B
:102D6C0003D1C3E8E02F0028F7D10FD1094B0A4952
:102D7C0018680023CB60094B20304B6003238B6019
:102D8C00FEF734FE002801DAFFF7D4FF08BD00BFC0
:102D9C00B81500209C150020A0150020A12E0000C5
:102DAC0013B5002200230A4CCDE900230948002367
:102DBC00094A06F017F82068FFF7A8FF20682030B2
:102DCC00FFF7A4FF0022054B1A6002B010BD00BF34
:102DDC009C150020880C002048E80100B815002044
:102DEC00F7B51C4E3F21B7683046FB6898471A4C24
:102DFC001A4D40B1002323702B8001F05DFE01239E
:102E0C00237003B0F0BD0C216A4630463B699847ED
:102E1C000028EFD1124A019B217893FBF2F3009A20
:102E2C0003EB82031BB2B5F900200029E4D09A1AF7
:102E3C00002AB8BF524212B2012ADDDC094A01391C
:102E4C00136821700133136003B0BDE8F040FFF745
:102E5C00A7BF00BFF4AC0000CE1F0020821D0020D5
:102E6C0090D00300B015002008B5074807F0B3FB5D
:102E7C0028B901F021FE0122044B1A7008BD044848
:102E8C00BDE8084004F084BBF4AC0000CE1F002069
:102E9C007C00002008B500230749CB60074B4B6032
:102EAC0003238B60064B1868FEF7A0FD002801DA9F
:102EBC00FFF740FF08BD00BFA0150020752E0000D5
:102ECC009C150020034B044A186000231360034A2E
:102EDC00136070479C150020B4150020B01500201D
:102EEC000022024B1A70FFF735BF00BFCE1F002027
:102EFC00014807F040BC00BF880C0020024A136850
:102F0C0001331360FFF74CBFB415002010B50369F3
:102F1C0041B91C493F221C4807F07CF83F21194855
:102F2C0007F06FF8486830B916494022164807F088
:102F3C0071F84021F3E75868F8B1884219D19C68C0
:102F4C000868A142586000D19860002008602AB13E
:102F5C005A680A609A68596002B99960002010E0BA
:102F6C00814206D10868206098688142EDD19C604E
:102F7C00EBE7044600680028F2D1002AE8D16FF094
:102F8C00150010BDB9C700006FC3000038B5456807
:102F9C002B69E3B11035284602F0C8FA0446B0B9E3
:102FAC000146284602F082FA0B4B984211D1224678
:102FBC0028460A4902F03EFA22460121DB20FFF79F
:102FCC0013F92246012140F20D10FFF70DF90020F4
:102FDC0038BD6FF00400FBE70000AD0BAD32000014
:102FEC0008B503685F2B4FEA531107D80B4A03F05F
:102FFC001F0352F82120DA40D2070AD408490948A5
:10300C004FF46C7207F006F84FF46C71044806F03C
:10301C00F8FF0360044B53F8210008BD74AF0000A7
:10302C003CC300006FC3000068AF0000F0B54068FF
:10303C0001F01F04057B87B044EA45140569002D97
:10304C005BD0B2F5001F00F1100506D121462846D1
:10305C0007F058FA002007B0F0BD0027B2F5800F3A
:10306C0001AE0197776033D1B3F1007F14BF052314
:10307C0004238DF804300023CDE9046303938368A3
:10308C00CB40D90716D4B2F1A07F13D16846009477
:10309C00FFF7A6FF009B203350F82330DB0709D441
:1030AC006A462146284602F0D3F9174B98421AD0AB
:1030BC00CDF808D02146284603AA02F031F8134B6C
:1030CC0098421DD101222146284602F055FAC1E74B
:1030DC00B3F1C06F05D0B3F1007F14BF01230223FD
:1030EC00C7E70323C5E76946284602F039FA074BC0
:1030FC009842DDD06FF00B00ADE76FF08500AAE7CA
:10310C006FF01500A7E700BF0400AD0B0000AD0B7E
:10311C002DE9F043466840F20635337BD00601F0CA
:10312C001F0747EA431748BF032302EA050558BFA8
:10313C00C2F3401387B0B5F5837F14468DF8033086
:10314C0044D00FD8062D43D007D8B5B1022D14D0DA
:10315C006FF0150007B0BDE8F083B5F5807FF7D1AF
:10316C0001250AE040F20222954233D0B5F5407FAA
:10317C0032D0B5F5007FEBD104250123220303FAED
:10318C0001F12BD573685960336963BB03A80397AE
:10319C00FFF726FF039B00EB830084F48033C3F31B
:1031AC000043C4F34044D0F8802044EA43049DF823
:1031BC00033022F4706244EA830422F00F0244EAE2
:1031CC0005231343C0F880300020C3E70925D4E75A
:1031DC000825D2E70625D0E70525CEE7630344BFD3
:1031EC0073689960D0E71036394630460DF102020B
:1031FC0002F02EF914F4403F804616D13946304681
:10320C0007F07EF9234B9845DED130469DF802102D
:10321C0002F09AF94045D7D01F492048EC2206F01D
:10322C00F9FEEC211C4806F0ECFE4FF0000901AB56
:10323C003946304603AACDE90439CDE90199CDF8D8
:10324C000C9001F06DFF134B984281D114F40033B4
:10325C0015D09DF8033084F48034C4F300448DF809
:10326C000E3039464B46304603AA8DF80C508DF87B
:10327C000D4002F045F8074B9842C3D068E7CDE902
:10328C00043339460DF10303304603AA039301F0CE
:10329C0047FFF0E70000AD0BF5C700006FC300005F
:1032AC004209022A034670B503D0012A1BD0E2B1B1
:1032BC0070BD134E326951680029F9D0012503F015
:1032CC001F030C689D400029F2D08A682A4010D058
:1032DC004B6863B90B490C48642206F09BFE6421D1
:1032EC00084806F08EFE094EE4E7094EE2E7304648
:1032FC0098471CB1236821461C46E4E72346FAE7AD
:10330C00CCAC0000B9C700006FC30000B8AC000023
:10331C00A4AC00000122014B1A60704700700D50E4
:10332C000C2903690BD15B6A064907484B4393FB95
:10333C00F0F100FB113311600020536070476FF007
:10334C008500704790D0030040420F000022044BD0
:10335C000069C3F80021D3F8003103F067BE00BF49
:10336C0000700D507FB50569AB6A002B40D03F292A
:10337C0001D00C293FD105F110064FF0FF324FF070
:10338C00FF33304603F0D8FC1C4B0024019303237D
:10339C006946A86A03940293FEF728FBA04208DA58
:1033AC0017493D22174806F035FE3D21144806F01A
:1033BC0028FE4FF0FF324FF0FF33284603F09AFE01
:1033CC00A86AFEF797FB002806DA0D4942220D4841
:1033DC0006F020FE4221E9E70B4BD3F808256A6280
:1033EC0001225A60304603F05DFD204604B070BDEA
:1033FC006FF00A00FAE76FF08500F7E72133000061
:10340C0043C800006FC3000000700D5010B5046974
:10341C000020FFF703FCA06240B910491048772246
:10342C0006F0F8FD77210D4806F0EBFD4FF0FF326A
:10343C000021204607F006F904F1100007F0FBF814
:10344C0000220121D720FEF7CFFED720FEF79CFEED
:10345C000122044B0020C3F8042310BD43C8000014
:10346C006FC3000000700D5073B514461D466846BE
:10347C0002F0AAF9009BA342019BAB4114D30B4A67
:10348C00D2E90061A41B24F01F0365EB0100640961
:10349C009B1941EB000144EAC060C2E9003102B063
:1034AC00BDE8704005F02ABB02B070BD20120020B0
:1034BC0010B500220121E420FEF796FE002002F058
:1034CC00D5F9124B0446984208D10120104902F05C
:1034DC0089FAA04205D00F4B984213D04FF0FF3021
:1034EC0010BD67220C4B02201A60FFF79FFB0B4AA2
:1034FC000020D2F8183723F4403343F40033C2F8D9
:10350C001837EDE76FF00B00EAE700BF0000AD0BDA
:10351C00940000200200AD0B0C16002000200E5071
:10352C0037B5EFF31185402383F31288BFF36F8F08
:10353C00134805F07DF940B912498822124806F06B
:10354C0069FD88210F4806F05CFD0D4805F094F9E3
:10355C00684602F039F90A48009C05F077F940B941
:10356C00084940F23112084806F054FD40F231117E
:10357C00E8E785F31188BFF36F8F204603B030BDA9
:10358C0010160020FFC400006FC3000007B568468A
:10359C0002F01AF90098074AD2E90032C01A019BCE
:1035AC004FEA501063EB020340EAC36003B05DF8CE
:1035BC0004FB00BF201200207FB5431C18BF20EA7B
:1035CC00E07502A808BF6FF0004502F0FDF8029903
:1035DC000E4B2020D3E900268C1A039961EB0603CD
:1035EC002146C5FB0013402973F1000436BF014688
:1035FC0021F01F01002352184FF0010146EB030389
:10360C000091034802F078FA04B070BD201200203B
:10361C008C0000200C4B0D4A1B7AC2F80035092B8C
:10362C000FD8DFE803F00A050E0A050E0E0E0E0584
:10363C00A022074B01201A6070474FF49672044B7E
:10364C00F8E70020704700BF0817002000A00850C2
:10365C001C1600200023044AC2E908339362034A73
:10366C00C2E9083393627047D4160020A8160020D4
:10367C00054B1B68D3F80423920342BF0022C3F806
:10368C004421D3F844317047C400002008B5FCF73E
:10369C0001FF0B490B48FCF7F7FE0B4A0B4B507C18
:1036AC001B6898470A4B0B4AC3F8D02E0A4AC3F83A
:1036BC0000240A4B0A4A1A6004220A4B1A7008BDED
:1036CC0098000020DCAF0000081700201416002022
:1036DC0000A0085027220020150008001816002012
:1036EC00613B00006B220020684620F007018D46EC
:1036FC00002331B51B4A82B0C2F82031D2F8202108
:10370C00194A12680192EFF31181402282F3128858
:10371C00BFF36F8F154A1568136081F31188BFF3DF
:10372C006F8F134C2268AAB1E90703D568468DF850
:10373C0000309047AA0705D5012368468DF8003064
:10374C00236898476B0705D5022368468DF800302F
:10375C0023689847FEF7AAFA02B0BDE831408546C7
:10376C00704700BF0070085020160020241600205F
:10377C0004170020012208B5084B1B685A60DA6058
:10378C00FCF78EFEFCF786FE00F046FE0320FCF7ED
:10379C008DFEBDE80840FCF76BBE00BFC4000020E6
:1037AC0008B5314B93F90A302E33362B51D8DFE85C
:1037BC0003F01C50505050505750505050505050D7
:1037CC00505050502250505050505550555024503D
:1037DC00265028502A502C2E30323436383A3C3E63
:1037EC005340424446484A4C4E004FF488731F4A9B
:1037FC00C2F8103708BD0123F9E70323F7E70423C8
:10380C00F5E70523F3E70623F1E70723EFE70823A2
:10381C00EDE70923EBE70A23E9E70B23E7E70D23A1
:10382C00E5E70F23E3E71123E1E71323DFE7152394
:10383C00DDE71B23DBE71F23D9E72323D7E7282367
:10384C00D5E72D23D3E73323D1E73923CFE73F2324
:10385C00CDE7074806F0C8FB1823C8E70223C6E7E4
:10386C004FF49873C3E700BF0817002000A008505E
:10387C0090C3000010B5064C0649204606F044FDE6
:10388C00C1F8340E201D06F03FFDC1F8380E10BDF6
:10389C00B400002000A0085008B507490748FCF701
:1038AC00F3FD38B900F0A0FD4FF00412044B1B6877
:1038BC00C3F8002208BD00BF98000020DCAF000058
:1038CC00C400002038B501251A4B1B4C1B685D60E9
:1038DC00DD6000F0A1FDFCF7E3FDFCF7C9FD002164
:1038EC00284600F03FFD154B154AC4F80034154B23
:1038FC00507C1B689847144BC4F8D03E0023C4F886
:10390C002032D4F820322561D4F82032002BFBD0A1
:10391C000021C4F82012D4F820320C4B0120C4F83A
:10392C00003400F0B3FCFFF7B7FF0122084B9A619B
:10393C0038BD00BFC400002000A0085011000800D2
:10394C00081700201416002027220020150008005C
:10395C00007008502DE9F843234B81461A780F4626
:10396C00012ADFF8888031D198F80030C3F30502C2
:10397C0003F03F03202B34D81D4B196A53F8213028
:10398C001A701B4D1B492C6A55F8246001343046C3
:10399C0010F8052B07F0C4F8174B86F80190D3F8F4
:1039AC001837377103F07F03B37098F80130082C87
:1039BC006FEA030328BF0024012003F00103F37016
:1039CC00AB6A2C620133AB62BDE8F883084A116A1A
:1039DC0052F82120597809B91170D2E75B7C137029
:1039EC00CFE70020F0E700BF0817002027220020B7
:1039FC00A81600202922002000A0085083784278C5
:103A0C001B0443EA022302781343C27843EA0253AD
:103A1C00027943EA8253427943EA0263827943EAA8
:103A2C008263C27943EA4273094AC2F8203E837A20
:103A3C00417A1B0443EA0123017A0B43C17A43EA1E
:103A4C000163017B43EA4163C2F8283E704700BF23
:103A5C0000A008501FB504460D220021684607F04F
:103A6C006CF80A4BE0B20093094B8DF808005B7CB4
:103A7C008DF80900013B8DF80A30012368468DF85A
:103A8C000B30FFF7BBFF04B010BD00BF00010100FD
:103A9C00AC0000201FB50023CDF80930CDF8013063
:103AAC00CDF8053003238DF8023006238DF8003055
:103ABC000D4B01225B7C8DF80B20013B8DF80A30FD
:103ACC0020238DF80830094B1B7A03F0F701914243
:103ADC0007D18DF805206846FFF790FF05B05DF81B
:103AEC0004FB042BF5D0F6E7AC00002008170020EF
:103AFC00684620F007018D4619B5144BD3F888247D
:103B0C00D2050BD5D3F8202242B10022C3F82022D3
:103B1C00D3F820320E4B1B6803B198470B4CD4F8EA
:103B2C0088341B060BD5D4F81C3243B1084B1B68E8
:103B3C0003B198470023C4F81C32D4F81C32FEF7AA
:103B4C00B5F8BDE819408546704700BF00A0085085
:103B5C00181600202DE9F84F7A4AD2F80C7E17F08F
:103B6C00010703D1BDE8F84FFFF7ACBEDFF8D8A1D1
:103B7C00DAF82830072BF5D8D2F8103E734DDBB2AB
:103B8C00DFF8CC91D2F8144E35F8230099F80120C7
:103B9C008442C2F341014FEA830640F0A880A81981
:103BAC008078814240F0A380B8460027AA19917012
:103BBC00644A684CD2F8142E25F82320A37C23B138
:103BCC0099F80130DB0740F1B980FCF769FC6249D8
:103BDC006248FCF753FC94F800B0614CBBF1000F49
:103BEC0000F09D80BBF1010F56D1564BDFF874C12C
:103BFC00D3F8101EDCF82830002B00F086805A48D1
:103C0C00C9B250F82120002A7FD0D2F800E0DFF8AA
:103C1C005CB1CBF800E005EB060E9EF803E0BEF1BC
:103C2C00000F17D0B8F1000F14D182F8048050F8AF
:103C3C002120013B9268CCF8283040F82120002B41
:103C4C0058D002B11268CBF80020494A136843F0EF
:103C5C0001031360474BDBF800801A68AB19B8F10D
:103C6C00000F49D00121D97098F800009047DBF87B
:103C7C00001023780A78404862F30503237011F88A
:103C8C00052B06F04DFF637899F8012023F007030C
:103C9C0002F00702134363700522384B1A70FFF7CA
:103CAC007FFD284BD3F8102ED2B2C3F83C2E344AE9
:103CBC00C3F8D04EC3F80024324B334A1A60A7B174
:103CCC00204B3544D3F8100EDAF82830A978072B9E
:103CDC000BD8C0B2FFF73EFE38B1254A136843F04B
:103CEC00040313600122294B1A62BDE8F88F4FF0D0
:103CFC0000085BE74246A6E7404683F803809047FE
:103D0C00237868F305032370BDE74FF00008AB1967
:103D1C0083F80380174B40461B689847F0E7154B18
:103D2C0058461B68984799F800302278C3F3010372
:103D3C0063F30102227084F801B0ADE7FFF7C2FD16
:103D4C00BDE700BF00A00850A8160020841D00206D
:103D5C00272200200817002098000020C8AF000080
:103D6C0049220020D416002028160020001700201D
:103D7C0024160020141600204B2200206B22002059
:103D8C001900080018160020993600000070085021
:103D9C0010B5002400F0BCFBFFF7ECFC104802F05F
:103DAC00B5F800F0DFFB0F4B2146C3F804470E4B70
:103DBC000E481C700E4B1C70FFF74CFC202206F0BA
:103DCC00BCFE0C4B8A201C605C60FEF7EBF9872074
:103DDC00FEF7E8F9BDE810408520FEF7E3B900BF17
:103DEC00C400002000A008506B220020841D00207D
:103DFC006C2200201F220020F0B5044685B000285C
:103E0C0000F0C580634D2B780BB1FFF7C1FF6268E2
:103E1C00614B04F110071A60604A2346164614469B
:103E2C0018685968083303C4BB422246F7D1186896
:103E3C005B4B20600024202221465A481C6006F06F
:103E4C007CFE594B59491C605C60FFF7E3FB3378EF
:103E5C0083B1012B01D1564B0B60727A554B012A61
:103E6C0000F08880022A07D07AB9C3F84C2EC3F828
:103E7C00442E08E0504BEFE74FF6FF70C3F84C0EA2
:103E8C00C3F8442E4D4AC3F8482E0B68707C9847F3
:103E9C004FF0E732474B4A49C3F82C2E4FF04332D0
:103EAC00C3F8302E474A4848C3F8342E474AC3F863
:103EBC00382EFFF7CFFB0A4600230133082B40F8BE
:103ECC00042B02F12502F8D10023414A4148013369
:103EDC00082B40F8042B02F12502F8D100221446DD
:103EEC003D4B0132082A19601C719C6001F12501BF
:103EFC0003F10C03F5D120220021384806F01DFEF9
:103F0C00374B384A384801A90193CDE9024401F0F6
:103F1C0067FF364B984235D100F09AFA044698BBAD
:103F2C0000F090FA324BF27C1871224B0121C3F84D
:103F3C0004278A202246FEF757F9224602218720C1
:103F4C00FEF752F9224602218520FEF74DF98A2010
:103F5C00FEF71AF98720FEF717F94FF48072254BFC
:103F6C008520C3F80423FEF70FF9234B1C700123A3
:103F7C002B7009E0FF20C3F84C0EC3F8442E40F21E
:103F8C00071280E76FF00D04204605B0F0BD6FF00E
:103F9C001504F9E76C2200200417002008170020F4
:103FAC0024160020841D00201F220020141600203F
:103FBC00A13A000000A00850613A00002110010055
:103FCC00F7200020E743C323D4160020A363E31398
:103FDC00CF1F0020A816002048160020281600200D
:103FEC0040420F007D360000C40000200000AD0BE5
:103FFC0098000020007008506B22002038B5274B29
:10400C001B78002B41D0002842D0254CA36A002BF2
:10401C0041D0EFF31185402383F31288BFF36F8FE8
:10402C00636A053054F823301A7800F8052C636A5B
:10403C0054F823305B7800F8043C636A54F823305E
:10404C0093F9023000F8033C636A54F823301B796F
:10405C0000F8013C636A54F82330DB7800F8023C2A
:10406C00636A54F82310053106F05AFD636A013374
:10407C00082B28BF00236362A36A013BA36285F36C
:10408C001188BFF36F8F002038BD6FF00C00FBE779
:10409C006FF01500F8E76FF03C00F5E76C2200209C
:1040AC00A816002038B5314B1A7802F0FF05002A0B
:1040BC0059D14FF0FF322E4C2E49C4F89024C4F83D
:1040CC002052D4F820222C4A11602C4A40F6C411FC
:1040DC00C4F800244FF48072C4F8882404221A70A7
:1040EC00274B9A7CC4F8402EDA7C02F516628A4281
:1040FC000AD92449244840F20C7205F08BFF40F297
:10410C000C71204805F07DFFA2F51662C4F8082753
:10411C001433D3E8EF1F21F00101C3E8E21F002A9A
:10412C00F7D14FF48062194B8A20C4F8D03E184B5B
:10413C00C3F89021FEF728F8C4F80C52D4F80C32CE
:10414C00C4F814520120D4F814322946C4F8205271
:10415C00D4F8203200F09AF8FFF79EFB0122284693
:10416C000C4B9A6138BD6FF00F00FBE76B220020FF
:10417C0000A00850613B0000181600201500080034
:10418C00AC00002016C400006FC3000027220020E2
:10419C0000E100E00070085008B50B4B1B7803F0F1
:1041AC00FF015BB968B103680848036006F0ACF81E
:1041BC00074B00BAC3F82C0E084608BD6FF00F0071
:1041CC00FBE76FF01500F8E76B220020AC00002035
:1041DC0000A0085008B50C4B1B7803F0FF0163B925
:1041EC0070B10368094840F8043F06F08DF8084B9D
:1041FC0000BAC3F8300E084608BD6FF00F00FBE79D
:10420C006FF01500F8E700BF6B220020AC00002017
:10421C0000A0085038B50F4B0C461B7803F0FF0577
:10422C0093B9A0B1082912D80A4601460A4806F0EB
:10423C0077FCFF23094A1474C4F1080423419374D6
:10424C00FFF718FB284638BD6FF00F00FBE76FF047
:10425C001500F8E76B220020B4000020AC00002011
:10426C006428034607D8074A127802F0FF002AB9DF
:10427C00054AD37470476FF0150070476FF00F004C
:10428C00704700BF6B220020AC00002000222DE9FB
:10429C00F0410125284B8000C3F81821D3F81841B0
:1042AC00C3F81C21D3F81C21244AC0B292F800C0D8
:1042BC00234A4CF00046C3F8986192F800E0214A7A
:1042CC004EF00047C3F89C71127805FA0EF5940075
:1042DC0004F1A04404F50224D4F80088D20045EA85
:1042EC000808C4F80088184C0432BEF1170FC3F844
:1042FC009C60D2B227500AD9144915484FF4CF729A
:10430C0005F088FE4FF4CF71104805F07AFE114885
:10431C008750114A127842F00042C3F8982011B12C
:10432C000E4BC3F8806001230D4A03FA0CF32B43A8
:10433C00C2F80435BDE8F081007008506F220020EF
:10434C006E2200206D22002000A10850BAC8000087
:10435C006FC30000802008507022002000500850CD
:10436C000020085070B5184B184A1C78012312789D
:10437C0003FA04F49340164A2343C2F8083500228A
:10438C00144D154B8000C0B2C5F89821C5F89C217E
:10439C00C5F89C201A50114B114E1B78D8000430D4
:1043AC009B00C0B203F1A043325003F50223C5F8C1
:1043BC009820D3F8000820EA0400C3F8000811B1D3
:1043CC00084BC3F8802070BD6E2200206F220020A5
:1043DC00002008500070085000A108506D220020E9
:1043EC008020085000500850084B09491A7842F0B8
:1043FC000043C1F89831A1F50051C1F88030012378
:10440C009340044AC2F80435704700BF6F22002065
:10441C000070085000200850084B1A780123934074
:10442C00074AC2F80835002302F5A042C2F89831B9
:10443C00A2F50052C2F88030704700BF6F220020F6
:10444C0000200850014B1878704700BF70220020E4
:10445C002DE9F3410024244F6846244900978DF838
:10446C00044000F0ABFB224B0646984204D06FF0A0
:10447C00120002B0BDE8F08168461E4900F09EFBB8
:10448C00B0420546F3D168461B4900F097FBA842A1
:10449C000646ECD1DFF864806846414600F08EFB9E
:1044AC00B0420546E3D16846154900F087FBA842A7
:1044BC000646DCD16846134900F080FBB042054645
:1044CC00D5D16846104900F0C3FBA842CFD198F86B
:1044DC0000200E4B42F00041C3F8201301239340FF
:1044EC002046C7F80435C4E700200850732200208A
:1044FC000000AD0B722200207122002070220020DF
:10450C006F2200206E2200206D22002000A0085097
:10451C0001220E4B0E491B78097802FA03F302FABA
:10452C0001F10B430B49097802FA01F10B430A49DB
:10453C00097802FA01F10B43084909788A401343C0
:10454C00074A43F00103C2F8083570476E22002079
:10455C0072220020702200206F2200207322002083
:10456C0000200850012373B5284E2949327868463B
:10457C009340284AC2F808350023C1F820338DF83F
:10458C000430254B0092197800F020FB234B054694
:10459C0098420AD02249234840F26B1205F03AFDAA
:1045AC0040F26B111E4805F02CFD1F4B6846197824
:1045BC0000F00CFBA8420446ECD11C4B6846197861
:1045CC0000F004FBA0420546E4D16846317800F0C7
:1045DC00FDFAA8420446DDD1154B6846197800F067
:1045EC00F5FAA0420546D5D1124B6846197800F071
:1045FC00EDFAA8420446CDD10F4B6846197800F06D
:10460C0031FBA042C6D102B070BD00BF70220020A9
:10461C0000A0085000200850732200200000AD0BB1
:10462C00EDC800006FC30000722200207122002030
:10463C006F2200206E2200206D220020064BD3F842
:10464C0040231C2A05D1D3F84403431E5842584139
:10465C0070470020704700BF00C0FF0003689A0736
:10466C000CD50368DB070DD50922074BC3F80C25C5
:10467C000F22C3F8042501221A60FEE7034B0360E6
:10468C00EF3B0360704700BF00801050F000FA5001
:10469C00012208B5344B3548C3F80028FFF7DEFF7C
:1046AC000830FFF7DBFF0830FFF7D8FF0830FFF7C3
:1046BC00D5FF00F5F470FFF7D1FF2D4AD2F88C30FE
:1046CC0043F44063C2F88C300022D30003F57F031F
:1046DC0003F54043D3F8001401310AD0D3F8001489
:1046EC0039B1D3F800140132D3F80434402A0B60EA
:1046FC00EBD11D4BD3F8402492B3FFF79FFF48B189
:10470C001C4BD3F834231C4B9A429EBF164B1B4AAE
:10471C00C3F84026FFF792FF18B1194B194AC3F89A
:10472C00AC27FFF78BFF48B134220F4BC3F824267C
:10473C00D3F83C2622F40022C3F83C260323124A69
:10474C000B49C2F81835D1F88C3043F44063C1F8EA
:10475C008C3000230D49C1F8D436C2F8A03508BD01
:10476C00C822C3F84024C8E70000125000C50D5001
:10477C0000ED00E000C0FF00001D0A1840E0A91E7B
:10478C0000A0085078000A0400B0045000600D50DE
:10479C0030B50468ACB1B4FA84F30122C3F11F0341
:1047AC00DBB29A4024EA0202D0E8EF5FA54204D1C2
:1047BC00C0E8EC2FBCF1000FF6D1EAD102480B7027
:1047CC0030BD0248FCE700BF0000AD0B0200AD0B92
:1047DC0010B50368CB40DB0710D401238B40026873
:1047EC0043EA0201D0E8EF4F944204D1C0E8EC1F39
:1047FC00BCF1000FF6D1F2D1014810BD0148FCE725
:10480C000000AD0B0400AD0BF7B5064650B1012806
:10481C0038D039493948FB2205F0FCFBFB213648DE
:10482C0005F0EFFB14224FF4847304203449002468
:10483C00C1F80803012002F1A04203F1A04303F5E3
:10484C00871302F5871210601C601B682D4BD3F880
:10485C0040331C2B1BD0864201D10DF107040023E1
:10486C0042F21075264F8DF80730AEB3012E18D0DA
:10487C002549224840F2A74205F0CCFB40F2A74163
:10488C002148CDE704224FF480737120CEE7012E2E
:10489C00E5D1CE60E1E763B3012005F052FD013DA7
:1048AC0027D0D7F80C3403F48033002CF3D0002B32
:1048BC000CBF0123002323701BD09DF80730C3B914
:1048CC00012005F03EFD013DCFD112E08BB101205E
:1048DC0005F037FD013D0CD0D7F84C3403F4803390
:1048EC00002CF3D0D7F84C2402F003022270002BDA
:1048FC00E3D103B0F0BD00BF13C900006FC30000CB
:10490C0000E0105000C0FF0050C90000054B1A79A0
:10491C002AB95A71012218601A710348704703486A
:10492C00704700BF1C1700200000AD0B0C00AD0B36
:10493C0008B50F4B1A7952B90E490F4840F259126B
:10494C0005F068FB40F259110A4805F05AFB1B6848
:10495C0043B140F20510FDF739FC18B940F20510CF
:10496C00FDF712FC0022054BC3F8402408BD00BF24
:10497C001C17002013C900006FC3000000E010508A
:10498C0038B53B4C237953B93A494FF4D4723A4871
:10499C0005F040FB4FF4D471364805F032FB374B31
:1049AC0050B1012846D0334940F2FD12324805F08F
:1049BC0031FB40F2FD11EFE7D3F84C14D3F84C2443
:1049CC00CD031FD5900702D00020FFF71DFF00225A
:1049DC002A4B0420C3F8402410224FF48473002186
:1049EC0003F1A04303F5871319601D68012502F13B
:1049FC00A04202F58712156022689AB31F4BC3F8C8
:104A0C0004030CE0D3F84824D107E0D5D3F85024A4
:104A1C009207D9D122681AB10422C3F8042338BDF5
:104A2C00D3F80821002AFBD00022C3F80821D3F8C0
:104A3C000831F4E70022C3F81021D3F81011C3F8A1
:104A4C001821D3F81811C3F81421D3F814210C4AE7
:104A5C00D2F840231C2A00D1986000224FF48073B6
:104A6C007120BCE71A68002AFCD019601B68D6E7D5
:104A7C001C17002013C900006FC3000000E0105089
:104A8C0000C0FF0008B5094B1B7953B90849094808
:104A9C0040F2172205F0BEFA40F21721044805F047
:104AAC00B0FABDE80840FFF7AFBE00BF1C170020EE
:104ABC0013C900006FC30000144BD3F80C24D103AE
:104ACC0020D5D3F84C24D2031CD5114A517901F0CE
:104ADC00FF00C9B9C3F80C01D3F80C1101215171B5
:104AEC009961126822B10822C3F80423094870475F
:104AFC00D3F80C21002AFBD00022C3F80C21D3F8E8
:104B0C000C31F3E7044870470448704700E010503C
:104B1C001C1700200000AD0B0500AD0B0B00AD0BFE
:104B2C0070B50025214C224ED4F80C2302B970BD6F
:104B3C00B2FA82F2C2F11F02930003F580739BB2AA
:104B4C0003F1A04303F587131D601B6801239340F9
:104B5C00DBB2102BD0B2C4F808331ED011D8082BFE
:104B6C0015D003D8012B13D0042B11D011491248A6
:104B7C0040F2763205F04EFA40F276310D4805F0EF
:104B8C0040FA202B04D0402BF0D1B57100E07571A8
:104B9C0033689847D4F80C23C8E7B571C4F814519E
:104BAC00D4F814312023C4F80433F1E700E010509A
:104BBC001C17002013C900006FC300000079024BC2
:104BCC0003EB0010FFF7E4BDD000002001230279B5
:104BDC0000688B40C0F80835024800EB0210FFF764
:104BEC00F7BD00BFD000002038B50379084A1B017F
:104BFC000446D0580D4605F0A6FB30B101232268BF
:104C0C00AB400448C2F8043538BD0348FCE700BF8C
:104C1C00D00000200000AD0B0400AD0B38B50379BB
:104C2C00084A1B010446D0580D4605F08CFB30B1E8
:104C3C0001232268AB400448C2F8083538BD03484C
:104C4C00FCE700BFD00000200000AD0B0400AD0B52
:104C5C0004230279024803EB02131844FFF798BDB2
:104C6C00D000002002790368012003EBC1035860D7
:104C7C000423034803EB02131844FFF7A9BD00BF3C
:104C8C00D00000205F2898BF074B4FEA50129FBFFF
:104C9C0053F8223000F01F0023FA00F000F001005E
:104CAC0088BF0020704700BFFCAF0000034A4309D7
:104CBC00D35C00F01F001844C0B27047F7C9000065
:104CCC0070B505460846FFF7F1FF36212A791D4BD2
:104CDC0001FB0202083233F81200C10526D56C2400
:104CEC000026C0F3432120F4F85023F812002A794F
:104CFC0004FB02340E3434F8020F10F4807F03D01E
:104D0C00C0F34320814211D00136232EF3D16C2005
:104D1C000024424302EBC1029C502A7900FB023072
:104D2C006030FFF755FD084B984200D170BD074924
:104D3C0007484FF4DC7205F06DF94FF4DC71034851
:104D4C0005F05FF9100100200000AD0BB9C900009F
:104D5C006FC3000010B5016804460846FFF792FFC8
:104D6C0050B90F494FF46C720E4805F053F94FF4DB
:104D7C006C710B4805F045F901F01F035F292360A6
:104D8C004FEA511208D9064940F2B932054805F0EC
:104D9C0041F940F2B931ECE7034B53F8220010BD56
:104DAC003CC300006FC30000F0AF0000072808B53B
:104DBC000AD90749074840F2AA3205F02BF940F20C
:104DCC00AA31034805F01DF9800000F5807008BD7C
:104DDC0084C900006FC30000F0B50646002487B0FC
:104DEC00114F019117F8012B06AB03EBD20313F80B
:104DFC00143C02F00702D34013F0010306D1013436
:104E0C00032CEFD10023184607B0F0BD074A03ADC1
:104E1C0007CA85E8070055F824100A6A46F82420CA
:104E2C000A62002AEBD0EEE707CA000084AD00004E
:104E3C0010B504460846FFF739FF362303FB040080
:104E4C00024B083033F81000400B10BD100100204D
:104E5C0010B504460846FFF729FF362303FB040070
:104E6C00034B083033F81000C0F3400010BD00BFF6
:104E7C001001002010B504460846FFF717FF362333
:104E8C0003FB0400044B083033F8100010F01C0036
:104E9C0018BF012010BD00BF1001002010B5044642
:104EAC000846FFF703FF362303FB0400034B0830CF
:104EBC0033F81000C0F3401010BD00BF10010020EB
:104ECC0010B504460846FFF7F1FE362303FB040039
:104EDC00034B083033F8100000F0010010BD00BF88
:104EEC00100100202DE9F04F0D46D0F8141387B0B7
:104EFC00C9B241F40031AA6D009005F0B0FA8103FB
:104F0C0006462ED50023696E03A8CDE9033305931D
:104F1C00FFF762FFDFF868A1DFF868B10DF10C094B
:104F2C001AF8013B05EBD30292F8642003F0070357
:104F3C0022FA03F3DA076AD4534B09F104095345F7
:104F4C000BF1010BECD14FF40031AA6D009805F078
:104F5C0086FA696E03A8FFF73FFF0028DAD126F422
:104F6C0000360124002E73D107B0BDE8F08F91FA02
:104F7C00A1F1B1FA81F19BF8004041EA44142046BA
:104F8C00FFF794FE083035F81080C8084FEA9803F4
:104F9C000193012319F8002001F0070103FA01F134
:104FAC0022EA010209F8002002A80294FFF7D2FEBF
:104FBC00029A019B203250F82220C8F382075B072B
:104FCC00B846C2F3014227D521462846D7B24246FD
:104FDC0005F0BEF902A80294FFF7BCFE029B203339
:104FEC0050F82330C3F301439F4207D100212046E0
:104FFC0005F01AFA3946204605F016FA02A8029472
:10500C00FFF7A8FE0122029B02FA03F30362D9F810
:10501C0000100029ABD18FE7022A0DD103212046C5
:10502C0005F002FA07F00503012BE7D142462146B1
:10503C00284605F08DF9E1E702212046019205F0A2
:10504C00F3F9032FF2D0019A032AD7D1022FECE700
:10505C0096FAA6F3B3FA83F304FA03F226EA0206ED
:10506C00009A284602EB8303D3F81015D3F81025C9
:10507C00C1F30811C2F3014205F06AF972E700BFEF
:10508C0007CA000007CA00000ACA0000F7B50446A8
:10509C0000790D46FFF714FF002836D0204605F0A6
:1050AC000AFA277929463846FFF7F8FE58B13846F0
:1050BC00FFF7BEFE0022266800B206EB8003C3F8A1
:1050CC001025C3F8102529462046FFF7F9FD284680
:1050DC00FFF7ECFD36222379019502FB0300002239
:1050EC000B4B083023F8102001A8FFF733FE019B6F
:1050FC0000EB8300D0F88020064B134043F00203F2
:10510C00C0F88030044803B0F0BD0448FBE700BF92
:10511C0010010020F0F0FCFF0000AD0B0400AD0B03
:10512C002DE9FF47174604460846FFF7BFFD3E68CA
:10513C00884605463EB3204605F085F998BB3346B4
:10514C00CDE900008DF80E008DF80F000DF10F0267
:10515C0040460DF10E0105F01AF936202379654A07
:10516C0000FB0353083332F8131021F0020122F82C
:10517C001310237900FB0353083332F8131041F05A
:10518C00010122F813107B68002B45D0267941468B
:10519C00304693F80090D3F804A0FFF759FE20B1E5
:1051AC00BAF1000F22D0544839E04FF0360C0CFB0A
:1051BC0006565049083631F8163023F4604323F074
:1051CC00200321F81630BAF1000F0FD0B9F1030FFC
:1051DC00E9D87B6826685B68187806EB8006B9F11D
:1051EC00000F1FD1C6F81095C6F8109536202379FC
:1051FC00404A00FB0353083332F8131021F01C0112
:10520C0022F81310237900FB0353083332F81310E0
:10521C0041EA890122F81310BB6863BB374804B01C
:10522C00BDE8F087D6F8102522F00302C6F8102549
:10523C00226802EB8003D3F8102522F4473222F4C3
:10524C007C72C3F8102541F6F072D3F8106502EAAF
:10525C00081242EA09423243C3F8102523790CFBA9
:10526C000353083331F8132042EA403242F0200253
:10527C0021F81320BAE74146D3E900972046FFF7FF
:10528C001FFDB9F1000FC9D06C232079194E43438F
:10529C00F218F358994504D153689F4201D100216B
:1052AC000CE06C2303FB00600DF10F016030FFF785
:1052BC006FFA124B9842B2D19DF80F106C222379E1
:1052CC00534303EBC10346F803902379534336222F
:1052DC0003EBC10333445F60237902FB03530833B0
:1052EC0036F8132042EA412242F4807226F8132049
:1052FC0094E700BF100100200400AD0B0000AD0BC3
:10530C002DE9F043054685B0084690461F46FFF749
:10531C00CDFC0E460446B8F1000F2DD095F8049044
:10532C004846FFF795FD18B94846FFF7B7FD50BB47
:10533C0031464846FFF79EFD18B198F80130012B15
:10534C0021D001238DF80F30002308F10102CDE9A3
:10535C0000830DF10F0108F10203304605F017F838
:10536C0036222B792F4902FB0343083331F81320E3
:10537C0042F0030221F81320002F50D03146287937
:10538C00FFF766FD18B9284805B0BDE8F083002189
:10539C004FF0360E38782B68820003EB8003C3F88D
:1053AC001015C3F810152B791E490EFB0343083357
:1053BC0031F813C02CF4604C2CF0200C21F813C0E5
:1053CC0097F801C0BCF1000F29D02B68BF781A44A4
:1053DC00D2F81085154B4FEA0C4C08EA0303C2F8BF
:1053EC00103541F6F0730CF4403C03EA06133F050C
:1053FC00D2F8108543EA0C0307F480173B4343EAC9
:10540C000803C2F810352B790EFB0344083431F82D
:10541C00143043EA403343F0200321F8143004489D
:10542C00B2E700BF100100200400AD0B0FE0ECFF51
:10543C000000AD0B30B56C250479044B05FB04342E
:10544C00A160017905FB0133DA6030BD1001002049
:10545C0070B5144652B91049104840F20D3204F0A0
:10546C00D9FD40F20D310C4804F0CBFD06793046E5
:10547C00FFF714FD68B10846FFF718FC362303FB51
:10548C000600074B083033F8103006485B0B2370CE
:10549C0070BD0548FCE700BFB9C900006FC3000030
:1054AC00100100200000AD0B0400AD0B2DE9F843FA
:1054BC00054607796C201A4E00FB076898F868407F
:1054CC0064BB4046A14646222146103005F035FB10
:1054DC002D68D8F85880A04513D10023C5F30830A7
:1054EC00C5F844310130D5F84431FCF74DFE6C233E
:1054FC0003FB076601230B4886F868303366BDE86A
:10550C00F883E0B2FFF752FCA0F580739B08112BD7
:10551C0004BF45F800902B580134DCE70248EEE755
:10552C00100100200000AD0B0C00AD0B6C210279BA
:10553C00044B01FB023393F86800003818BF0120BC
:10554C00704700BF100100206C235C22007913FB14
:10555C00002302481844FFF73BB900BF100100209C
:10556C006C235C22007913FB002302481844FFF7DC
:10557C000FB900BF100100202DE9F341044600795A
:10558C000D461746FFF776FC50B9344940F2FA3213
:10559C00334804F03FFD40F2FA31304804F031FD5D
:1055AC002368D3F8142392035CBF4FF40032C3F882
:1055BC00142326793046FFF771FC08B33046FFF709
:1055CC0047FC8046E0B93046FFF732FC0546FFF752
:1055DC00EDFB26682AB246F800803358236803EBAB
:1055EC008203D3F8102542F00102C3F8102527B12D
:1055FC0001232268AB40C2F8143302B0BDE8F0813D
:10560C0047B9164940F20E42154804F003FD40F22A
:10561C000E41C2E72846FFF749FB362303FB060081
:10562C00104B083033F81030C3F38203042B11D025
:10563C00052B11D001A80195FFF78CFB019BC168CC
:10564C00D94001F001010231284602B0BDE8F04119
:10565C0004F0EABE0321F7E70221F5E7B9C900001F
:10566C006FC300001001002001490248FFF73ABC4B
:10567C001001002000A00D5001490248FFF732BC78
:10568C007C01002000C0105008B5144B027AD3F8EE
:10569C00101521F001010A43C3F810250268B2F578
:1056AC00803F0AD30E4940F2ED620E4804F0B2FC82
:1056BC0040F2ED610A4804F0A4FCC3F8A426426849
:1056CC00FF2A08D906494FF4DF62064804F0A2FC11
:1056DC004FF4DF61EEE7C3F8AC2608BD00200E5096
:1056EC000ACA00006FC300000B2808B50AD90A4982
:1056FC000A4840F28C6204F08DFC40F28C61064842
:10570C0004F07FFC0023000100F1A04000F56220B2
:10571C00C0F82C3508BD00BF0ACA00006FC30000DA
:10572C0070B5054640B917491748D62204F072FCEB
:10573C00D621144804F065FC002467220126007A67
:10574C0092FAA2F3B3FA83F3834204F1010112D16A
:10575C00FFF7CAFF0C210D4BE4B201FB043401210D
:10576C002A68E2606A6822612A7A914022759A68F6
:10577C000A439A6070BD06FA03F30C4622EA030250
:10578C00DEE700BF3DCA00006FC30000E801002047
:10579C00012303FA00F010F0670F0AD0064B5B6888
:1057AC00DB4303F067030342044B054818BF18465C
:1057BC0070470448704700BFE80100200000AD0BA3
:1057CC000400AD0B0800AD0B2DE9F048204B1B7805
:1057DC00012B0AD01F4940F21F121F4804F01AFC7B
:1057EC0040F21F111B4804F00CFC40B919494FF44E
:1057FC009072194804F00EFC4FF49071F2E70023FC
:10580C000022C0E90023154BD3F810359B071CD59B
:10581C00EFF31181402383F31288BFF36F8F4FF0A6
:10582C00FF356FF040440E4ED6E900BC5D4574EB7D
:10583C000C07F9D3CCF31303C0E900B381F311883F
:10584C00BFF36F8F0748BDE8F0880748FBE700BF40
:10585C00E80100203DCA00006FC3000000200E507C
:10586C0040270E500000AD0B0100AD0BF0B5534CB2
:10587C0085B02578002D40F09C80514A01AB07CAB9
:10588C0083E807004F491846D1F8102522F0020290
:10589C00C1F81025FFF7F8FE0723672202F001017B
:1058AC002944013BCDB24FEA5202F7D1052D40F00D
:1058BC0082801A4601274148002567265FFA82FC40
:1058CC0096FAA6F15FFA85FEE645B1FA81F16AD344
:1058DC000132052A017500F10C00EDD101200025E3
:1058EC0039499A0800FA02F212F0670F1CBF5D509A
:1058FC005A580433302BF4D1E420FCF745FC314BDF
:10590C000125D3F818275D2022F4403242F480326E
:10591C00C3F81827D3F8102522F00202C3F810257B
:10592C0040F6FF72C3F828230022C3F88021C3F885
:10593C008020C3F88421C3F88420C3F88821C3F8DD
:10594C008820C3F88C21C3F88C20C3F89021C3F8AD
:10595C009020C3F89421C3F89420C3F89821C3F87D
:10596C009820C3F89C21C3F89C20C3F8A021C3F84D
:10597C00A020C3F8A421C3F8A420C3F8A821C3F81D
:10598C00A820C3F8AC21C3F8AC201D660F4B104AFD
:10599C001B68B3FBF2F358430E4B2B4398470E484E
:1059AC00257005B0F0BD07FA01F126EA01060135B4
:1059BC0086E70A48F5E70A48F3E700BFE80100204C
:1059CC0090AD000000200E5000210E50CC000020A5
:1059DC0040420F00F0AE00000000AD0B0C00AD0B10
:1059EC000100AD0BF7B53B4C064623780D46012B59
:1059FC000AD0394940F21922384804F00BFB40F226
:105A0C001921354804F0FDFA41B9334940F21A2204
:105A1C00324804F0FFFA40F21A21F2E7277D47B131
:105A2C002D4940F21B222D4804F0F4FA40F21B21C0
:105A3C00E7E7636804F1140103F0010301A8019383
:105A4C00FEF7A6FE264B98423CD12F70636823F0DC
:105A5C0001036360A36843F00103A360214BD3F8F7
:105A6C001025950732D4D3F8102542F00202C3F862
:105A7C001025C6B1D3F8482712F0010202BFD3F8A3
:105A8C00481741F00101C3F84817164BD3F84017DB
:105A9C00D3F844174C00F9D42AB9D3F8482722F08C
:105AAC000102C3F84827104B104A1B68B3FBF2F3F2
:105ABC000C4A03EB43135BB1D2F84017D2F84417EE
:105ACC00490001D403B0F0BD013BF4E70848F9E705
:105ADC000848F7E7E80100203DCA00006FC300004A
:105AEC000000AD0B00200E50CC00002040420F00F7
:105AFC000C00AD0B0700AD0B2DE9F0411E46334BEE
:105B0C0004461B7817469DF8188053B9304940F26B
:105B1C00E322304804F07EFA40F2E3212C4804F0F2
:105B2C0070FA40B92A494FF439722A4804F072FAD3
:105B3C004FF43971F2E7007AFFF72AFE264B05463F
:105B4C0098423FD12046FFF7EBFDEFF31180402345
:105B5C0083F31288BFF36F8F227A204B9200134489
:105B6C0000221A60217A1B680B2909D91C4940F2C2
:105B7C006642184804F04EFA40F266411848CEE7E7
:105B8C00B6F5801F08D3164940F26C42114804F058
:105B9C0041FA40F26C41F1E7090101F1A04101F534
:105BAC006221C1F82075C1F8246580F31188BFF318
:105BBC006F8FB8F1000F05D00123227A9340094A68
:105BCC00C2F824332846BDE8F08100BFE80100206C
:105BDC003DCA00006FC300000000AD0B00210E5049
:105BEC000ACA000000200E50F7B52C4A002053685A
:105BFC009268DB4303F0670313401C4601260746FB
:105C0C00CCB90127264B254DD3F820630640287DBF
:105C1C0007FA00F3334239D0E968B9B30B2827D916
:105C2C002049214840F2764204F0F4F940F27641E2
:105C3C001C4804F0E6F994FAA4F5B5FA85F5AA0027
:105C4C0002F58071920806FA02F213420BD001F1B0
:105C5C00A04101F56221D1F800C0BCF1000F02D0C7
:105C6C000F600968104306FA05F524EA0504C7E736
:105C7C000201D5F810C002F1A04202F56222D2F85E
:105C8C002435D2F82025CDF800C088470134052CE6
:105C9C0005F10C05BBD103B0F0BD00BFE80100203D
:105CAC0000200E500ACA00006FC30000064C0748C3
:105CBC00214640F2351208B504F0ACF940F235112A
:105CCC00204604F09EF900BF79CA00006FC30000A3
:105CDC00007A024B03EBC000FEF75ABD3C020020D9
:105CEC00F8B50246067A114800EBC6046468CC404D
:105CFC00E40718D51F29176801D9FFF7D7FF00252E
:105D0C008C00E4B280343D5157688B003D511468CF
:105D1C0003F5C073E550526800EBC600D550BDE8E2
:105D2C00F840FEF755BD0248F8BD00BF3C0200200C
:105D3C000400AD0B70B5234B02680D689A423CD041
:105D4C00214E224C224BB24218BF1C46B4FBF5F339
:105D5C0005FB13469EBBA54231D85C1E1C402ED1C0
:105D6C00B3F5007F2BD893FAA3F3B3FA83F3D2F8ED
:105D7C0004654D79097926F0030601F003013143DE
:105D8C00C2F80415D2F8081505F0030521F003013B
:105D9C002943C2F80815C2F81035006800F5A07345
:105DAC0000F5B0721C6053F8041B9342FAD1C0F397
:105DBC000830FCF7E9F9074870BD074CC6E70748FF
:105DCC00FAE700BF00500550005008500048E801A9
:105DDC000024F4000000AD0B0020A1070400AD0B63
:105DEC00F8B541B922497C22224804F013F97C21F0
:105DFC001F4804F006F90C2305791F4C6B43E61879
:105E0C00377A9FBBE2508B681C4A736003689342DD
:105E1C0017D002F54032934213D002F58A229342F6
:105E2C000FD002F5805293420BD002F58052934270
:105E3C0007D002F58052934203D002F58052934270
:105E4C0002D14B79032B06D909499422094804F055
:105E5C00E1F89421CCE7FFF76DFF0C2303FB05441D
:105E6C00074BC21A534253412372F8BD0548FCE755
