:020000040100F9
:10000000A01E00218D180001458100017918000112
:10001000791800017918000179180001000000002A
:100020000000000000000000000000005D1A000158
:1000300079180001000000001D1A00017918000164
:10004000FD1B0001FD1B0001FD1B0001FD1B00014C
:10005000FD1B0001FD1B0001FD1B0001FD1B00013C
:10006000ED380001FD1B0001FD1B0001FD1B00011F
:10007000FD1B0001FD1B0001FD1B0001FD1B00011C
:10008000FD1B0001FD1B0001FD1B0001FD1B00010C
:10009000FD1B0001FD1B0001FD1B0001FD1B0001FC
:1000A000FD1B00018156000151390001FD1B0001BB
:0800B000FD1B0001FD1B000116
:1000B800014B1B689B68184700000021014B1B6817
:1000C8001B69184700000021014B1B685B69184732
:1000D80000000021014B1B689B69184700000021A4
:1000E800014B1B68DB69184700000021014B1B68A6
:1000F8001B6A184700000021014B1B68DB6A184780
:100108000000002110B4034C2468E468A44610BC25
:10011800604700BF000000210228034610DC10F1F0
:10012800270F0FDB2830084A40B2105C024492F9CE
:100138002C209A4207D0002918BF0130C0B270475E
:100148000F207047002070478C890001022808B5ED
:1001580006DCFFF7E1FF034B034493F92C0008BDCD
:100168000320FCE78C890001024BD3F83021024BB5
:100178001A6070470000FF011407002108B5FFF757
:10018800F3FFBDE8084000F038B8801A00F3070014
:1001980038B50D46144659B240B2FFF7D7FF0023D1
:1001A800287020446B7040B238BD0023036070474C
:1001B8007047002070474FF0FF3070474FF0FF3016
:1001C80070477047002070474FF0FF30704700209D
:1001D8007047002070470023037070470022FFF724
:1001E800D4BF002070474FF0FF3070474FF0FF300A
:1001F80070474FF0FF3070477047704700280CBFBA
:100208006FF0150000207047002070470723037027
:1002180000207047002070470020704708B5037819
:10022800022B06D1034803F023FE10B90122024B2A
:100238001A7008BDC90C0021C80C002108B5036854
:100248000246590913D0012906D14FF6FF7103F070
:100258001F03D940C80711D40A490B484FF46C72E0
:1002680007F0EEFE4FF46C71064807F0E0FE4FF021
:10027800FF31D940C907EFD5044800E004481360AE
:1002880008BD00BF248B0001578B000100058C417D
:1002980000088C4107B5019001A8FFF7CFFF019B2B
:1002A80000EB8300D0F80022044B134043F0030313
:1002B800C0F8003203B05DF804FB00BFF0F0FCFFAB
:1002C80030B5144A144B8BB0CDE90123134A03AB64
:1002D80010685168124D03C31C460FCD0FC42B681C
:1002E800104A2360012305A88DF8153006928DF871
:1002F800263003F0BDFC58B901A803F087FE38B9D1
:1003080002A803F0A1FE18B9082103A803F0BCFE57
:100318000BB030BD3344BB01DEF012236F8B0001FC
:1003280070890001250200012DE9F74F724BD3F8BF
:100338000443D3F80853601C39D1691C6FD0FF26D9
:10034800B046B146EFB2FF2F61D14FF0010A07F076
:100358001AFE002840F0CD80FFF7B2FF002840F0D9
:10036800C880282003F0B6FE03F0D6FD002840F030
:10037800C0800546DFF884B1614C9BF8002002F08C
:10038800FF030193002A7ED000218BF8001003F0B0
:1003980037FC102200215B4808F011FAA27A019B71
:1003A800042A4FD8DFE802F042757D859300C4F334
:1003B8000726C4F307484FEA146AE4B2FF2CEFB2E9
:1003C80005D02046FFF766FF204607F0D0FDFF2E38
:1003D80005D03046FFF75EFF304607F0BCFDB8F1A8
:1003E800FF0F04D1BAF1FF0F08D1D146ABE7404661
:1003F800FFF750FF404607F0BAFDF3E75046FFF716
:1004080049FF50465FFA8AF907F0A5FD9BE7EDB270
:100418002846FFF73FFF284607F09DFD95E7FF2791
:100428004FF0000AB946B8463E4690E70121354AE2
:100438001170217A517002215171E179117161793C
:1004480091711D46BAF1000F17D0637A4846DA0752
:1004580049D407F080FD637A38469B0746D407F0F5
:100468007AFD55B1FF2E02D0304607F080FDB8F175
:10047800FF0F02D0404607F06EFD224800F066FCF0
:10048800204800F075FB002140F6CD4006F0F6FD4F
:1004980073E71C4A217A5170E179117161795171C0
:1004A800CFE70222174B1A70227A5A7062795A7172
:1004B800C8E70321134A1170217A5170E17911714B
:1004C80061795171A17991710A219160B9E704228A
:1004D8000C4B1A70227A5A7062791A71A2795A7181
:1004E8000A229A60AEE707F042FDB4E707F03FFD45
:1004F800B7E703B0BDE8F08F0080FF01C80C00210A
:10050800C90C0021B009002100224FF0FF310A4B2D
:10051800C3F80022C3F80813C3F81021D3F8102138
:1005280001221A61D3F81021002AFBD00022C3F857
:100538001021D3F810317047008000410A4AD2F8E0
:100548003031072B0BD10F280AD848F21203C340C9
:10055800DB0705D5D2F88420044BC3F888257047FB
:10056800014BD3F88020F7E70000FF01008000412D
:1005780010B5FFF7C9FF044B1B6823B11B6813B103
:10058800BDE81040184710BDC009002110B51C4B2C
:100598000446D3F80423D10416D5D3F830219AB1F0
:1005A8000022C3F83021174AD3F8303113680133D9
:1005B8001360826842B193420CBF002240F6CD42DC
:1005C8000023114805F074FE0D4BD3F804231207DD
:1005D80014D5D3F80C218AB10022C3F80C210B4A98
:1005E800D3F80C31136801331360A268934205D124
:1005F800FFF78AFFE368BDE81040184710BD00BF49
:1006080000800041C809002148000021CC090021D0
:1006180073B5124B124C187020460D4604F070FF4B
:10062800104B0026D3F800224FF0FF32C3F80062C7
:100638002946C3F80823204607F0C6FF01230246CF
:10064800009320464FF00113314604F0D9FF2046AD
:1006580002B0BDE8704004F033BF00BFF00C0021C9
:10066800F889000100C0004110B5041ED5BF23461B
:1006780001220022E31E2A49C8BF5BB22833C1F811
:1006880000252B2B44D8DFE803F0164343434343AC
:100698004343434348434343434343434343274339
:1006A8004343294343432B4343432D2F31333537AA
:1006B800393B463D3F41D8231A4AC2F80C351A4BFC
:1006C8001B7863BB2146194807F0A4FC2146BDE806
:1006D8001040174807F09EBCEC23EDE7F023EBE74A
:1006E800F423E9E7F823E7E7F923E5E7FA23E3E763
:1006F800FB23E1E7FC23DFE7FD23DDE7FE23DBE760
:10070800FF23D9E70123D7E70223D5E70323D3E75C
:10071800084807F07FFC0023CEE7E223CCE710BDB2
:100728000040004100800041EF0C0021B78B000120
:10073800DC8B0001788B000140F20122424B84B02F
:10074800C3F850260022C3F83425C3F83825C3F867
:100758002C2501229142C3F8302527D002291FD029
:10076800002957D1AB22C3F824254FF0AB32C3F888
:100778001C250023FF22CDF805308DF808204FF402
:100788008272ADF80A2001220628CDF801308DF8D2
:100798000C2010D804283FD851D04FF4837317E0A9
:1007A800CC22C3F824254FF0CC32E0E76A22C3F804
:1007B8002425264ADBE70F28EFD102228DF80520F1
:1007C8007F22ADF80A308DF80C3085238DF808208B
:1007D8001F4A13809DF807309DF804205B0743EA01
:1007E80082539DF8052043EA0263174A43F0080341
:1007F800C2F814359DF80A309DF80B101B0443EA23
:1008080001639DF808100B439DF80C1043EA4163FF
:10081800C2F8183504B0704740F20232ADF804202F
:10082800032240F203118DF80720ADF80A20064A8A
:10083800C2F83415C2F838354FF48B73C8E740F264
:1008480007138DF80520C3E7008000411B81FE587F
:10085800A40C002138B50D46FFF76EFF0F2814BF12
:10086800FF237E230B4C012D237010D0022D08D0BE
:100878001DB9FF21601C07F011FD074BC3F80445A3
:1008880038BDFF22CC21601C07F099FFF5E7FF2255
:10089800F021F8E7F10D0021008000410F2808B58C
:1008A8000DD1A1F10B030F2B1AD801EB810101F631
:1008B8002E110D4BA1F51661C3F8081508BD40F6B9
:1008C800C41301F516619942F3D90849084840F262
:1008D800F26207F0B5FB40F2F261044807F0A7FBAB
:1008E80040F66511E5E700BF00800041FE8B00017E
:1008F800578B000110B5214CD4E8EF3F23F4803228
:10090800C4E8E12F0029F7D1D80304D51C4B1D49B1
:10091800187807F077FDD4E8EF3F23F00402C4E825
:10092800E12F0029F7D1590705D5154B164A174964
:10093800187807F05AFDD4E8EF3F23F01002C4E816
:10094800E12F0029F7D1DA0605D50D4B104A0F49DA
:10095800187807F04AFDD4E8EF3F23F48072C4E822
:10096800E12F0029F7D1DB0507D5BDE81040044B7E
:10097800054A0849187807F038BD10BDC409002198
:10098800EE0C002100C000410080004100410141FF
:100998000480004140C1004170B50446164DFFF780
:1009A800A9FF287814B3154A154907F013FD042345
:1009B8000126144C06FA03F3D4E8EF2F1A43C4E8CF
:1009C800E12F0029F8D11049287807F019FDD4E85B
:1009D800EF3F43F48033C4E8E23F002AF7D1287898
:1009E80006FA00F0BDE8704003F038BE074A044933
:1009F80007F0F0FC0223DBE7EE0C00210480004145
:100A080000410141C409002100C0004100800041AB
:100A1800F8B50F4605461646114CFFF775FDFFF76A
:100A28008DFDC4F81005D4F80032384643F00103B0
:100A3800C4F80032FFF718FE28460A4D3146FFF782
:100A48002DFF2B7843B10020FFF7A6FF2B781BB1B1
:100A58000122054B1A60F8BD01232360FBE700BFA4
:100A680000800041EF0C0021004001412DE9F041D8
:100A780017460E461B4C1D46FFF746FDFFF75EFD69
:100A8800C4F81005D4F80032394643F02103C4F8FD
:100A98000032154BC4F80435FFF74EFE3146FFF718
:100AA800FDFE0022114B124E1A604FF48053C4F819
:100AB8000433337883B10120FFF76EFF33785BB1DD
:100AC80001220C4B1A6055B1BDE8F0414FF4A02249
:100AD8000023094805F0ECBB01236360F3E7BDE898
:100AE800F08100BF00800041F10C0021C8090021FD
:100AF800EF0C00210040014148000021B0F5A07F23
:100B080010B50C4619D10978032917D10122154BC4
:100B180060781A70144B94F904101A78FFF778FF6C
:100B28006279A07900210F4B19700F490B780133B6
:100B3800DBB2834298BF1A460A7010BD04290CD153
:100B48000122084B08491A70607822790023097835
:100B5800FFF78CFF22796079E4E70448BDE810408C
:100B680007F058BAEF0C0021F00C0021328C00017C
:100B78002DE9F3410378052B43D8DFE803F0030C94
:100B88004C555C5F427990F90410407802B0BDE89A
:100B9800F041FFF73DBF4478457990F904708679B4
:100BA800D0F80880FFF7B0FC20462946FFF752FE30
:100BB800062C5C4A28D8042C28D9D2F8003243F4F1
:100BC800001343F00103574DC2F800322046FFF7E7
:100BD800B5FC3846C5F81045FFF746FD31462046B6
:100BE800FFF75CFE0023504A1360C5F80C31D5F8B6
:100BF8000C31B8F1000F02D00823C5F804330123E3
:100C08002B6002B0BDE8F0810F2CD6D0D2F80032AC
:100C180043F02103D7E7836802794179407802B02D
:100C2800BDE8F041FFF722BF8168407902B0BDE816
:100C3800F041FFF7EDBC81680079F7E7447890F858
:100C48000580856890F904708679FFF75DFC204679
:100C58004146FFF7FFFD2046FFF770FC314B384651
:100C6800C3F81045D3F8002242F00302C3F800226B
:100C7800FFF7FAFC31462046FFF710FE2B4B2C4AB3
:100C88001B5D1288C5F1640453435C43B4FBF5F45F
:100C980028481C4404F034FC0020FFF77DFE264B56
:100CA8000025D3F800224FF0FF32C3F80052214646
:100CB800C3F808231F4807F075FC022302460121E8
:100CC8001C48009504F09CFCEFF31186402383F345
:100CD8001288BFF36F8F0125184B194C1D602078BF
:100CE80003F0A0FC20B1207805FA00F003F0BCFC6A
:100CF800FFF700FE0B4A1349207807F06BFB124BF5
:100D0800D3E8EF1F41F48071C3E8E21F002AF7D14E
:100D180001202378984003F0A1FC86F31188BFF3E3
:100D28006F8F6EE700800041CC0900218F8C000195
:100D3800A40C0021F889000100C0004100400141D5
:100D4800EE0C002144C10041C40900214FF4007396
:100D580030B51A4A87B0CDE90323059003A90446A4
:100D6800174A184804F068FB174B0146984202D00E
:100D7800164807F04FF90025002205210C2000F045
:100D8800A9FE23460521124A0820009507F0E1F93B
:100D9800082000F06FFE0F4803F0BCFC0A4B984295
:100DA80006D00D4807F036F96FF00D0007B030BDDA
:100DB8000A4B0C3428461C60F8E700BF40420F007D
:100DC800050B0001F88900010000AD0B4C8C0001F7
:100DD80095050001EE0C00216D8C0001C009002171
:100DE800B2F5802F2DE9F0410AD3344940F2EB12D5
:100DF800334807F025F940F2EB11304807F017F9AE
:100E0800042A08D82D494FF4F9722D4807F018F92B
:100E18004FF4F971F1E7043ACD1D8E1825F0070556
:100E280026F00706761B172E4FEAD60708D823495F
:100E380040F2FB12224807F003F940F2FB11DCE70D
:100E4800B7FA87F44FF00008C4F12002C4F1240473
:100E5800A4000734E408631CBB420560AF60C5F812
:100E68000C8008D915494FF40372154807F0E8F8C3
:100E78004FF40371C1E74146920005F1100007F0F5
:100E88009EFC630043F001036B803B1B05EBC4022F
:100E98005900A5F800805180AA1925F83440A2F815
:100EA8000280AB5305EBC7035A88214642F0010282
:100EB8005A802846BDE8F04107F083B89F8C0001AE
:100EC800578B0001014B1B68184700BF78000021B1
:100ED80030B585B004460D4610220021684607F05B
:100EE8006EFC02238DF80230044B2A4621466846E0
:100EF800019306F0D5FD05B030BD00BFCD0E000151
:100F080080B505460E461746984606F0E5F80346AE
:100F180007F0C0FC0446DFF81890424649F8003054
:100F280039463046A84754F8090000F025FD00BFAF
:100F3800080000002DE9F84F0446A38B084619075E
:100F4800164612D4022803F0070162D1204607F0A2
:100F580084F888B10138042800F22581DFE810F010
:100F6800590023017E00C800F50001280CBF43F09A
:100F7800100143F02001A18304F1140006F034FAB3
:100F8800002800F0AB8086F31188BFF36F8FBDE8AF
:100F9800F88F03F00702501F01281ED80020062AE8
:100FA8002768C4E9000014D13A4603E0E08B013019
:100FB800E0831268002AF9D123F0070343F0020204
:100FC8002046A28307F049F890B342F02002A2839A
:100FD8002EE023F007039AB2F2E7042A33D123F074
:100FE80007039AB22046A28307F037F810B142F0FF
:100FF8002002A283A38B03F00709894540F0DC8017
:10100800A18BCA0640F1218121F01003A38301F0CE
:101018000701D4F81880A38BB8F1000FB9DA0022C1
:10102800276823F00703C4E9002243F00103A383E0
:10103800A38B03F00709894540F0BF80002FDFD05C
:101048000025AA4640E0854940F21B12844806F074
:10105800F7FF40F21B11814806F0E9FF41B17F49D3
:101068004FF4AB727E4806F0EBFF4FF4AB71F2E73A
:10107800236843B9794940F25712794806F0E0FFEE
:1010880040F25711E7E723691D6845B973494FF4E2
:10109800AD72734806F0D4FF4FF4AD71DBE70F462D
:1010A80088464FF00609A38B23F0070343F0060395
:1010B8009BB2A383A268002A40F08180002F40F0F1
:1010C8008180002D9CD0BA4643F0080304F1140B2C
:1010D8005846A38306F088F9002875D1614940F283
:1010E80031125F4806F0ACFF40F231115D48B3E7BA
:1010F800022908D0594940F25D12594806F0A0FF6C
:1011080040F25D11A7E7E78B47B154494FF4AF723E
:10111800534806F095FF4FF4AF719CE723695D686B
:1011280045B94E4940F261124D4806F089FF40F238
:10113800611190E7A38BB84623F0070343F004033B
:101148009BB24FF00409A383B4E7012908D04349AF
:101158004FF4B272424806F073FF4FF4B2717AE767
:10116800236843B93D4940F265123D4806F068FFDF
:1011780040F265116FE723699D6845B937494FF417
:10118800B472374806F05CFF4FF4B47163E7002788
:10119800A38BB84623F0070343F005039BB24FF037
:1011A8000509A38386E72D4940F26B122C4806F007
:1011B80047FF40F26B114EE7002700257AE74FF012
:1011C800010A81E792467FE786F31188BFF36F8FA4
:1011D800BAF1000F16D147BB15B120462249A847DE
:1011E800EFF31186402383F31288BFF36F8F5846BD
:1011F80006F0ECF808BB1B498822194806F020FFC6
:10120800882173E7A1680029E5D00E680029E2D09B
:1012180043464A462046D1F804A0D0471EB1336859
:1012280031461E46F2E73346FAE7394643464A4610
:1012380020463F6806F03DFFCDE7584606F0EAF83D
:10124800A38B23F00803A383DAE68B067FF594AE1D
:1012580021F02003A38301F0070177E6C28C000187
:10126800578B0001E78C000175120001F8B50446A0
:101278000D4600F11406EFF31187402383F312881B
:10128800BFF36F8F304606F0A1F840B909490A4804
:10129800882206F0D5FE8821064806F0C8FE3046AA
:1012A80006F0B8F8A5613A462046BDE8F8400121A5
:1012B800FFF740BEE78C0001578B00012DE9F0478E
:1012C80004460F4606F0E5FE051E5DDB04F1140931
:1012D800EFF3118A402383F31288BFF36F8F4846D8
:1012E80006F074F8804638B933498822334806F046
:1012F800A7FE882130483CE0484606F08BF84FF6B8
:10130800FF72E38BA68B934206F007063FD0022EAE
:1013180010D135460133E383484606F065F80028C6
:101328003BD1254940F23112244806F089FE40F2AB
:101338003111DFE7062E13D8DFE806F0092C121268
:10134800090409006FF085054FF00008E4E7002361
:101358003B6063687BB9C4E900777EB13546F3E743
:10136800174916484FF4E47206F06AFE4FF4E47128
:10137800134806F05CFE1F606760EEE752460221E4
:101388002046FFF7D7FD35462846BDE8F0876FF0C1
:101398000A05D9E76FF00405D6E78AF31188BFF389
:1013A8006F8FB8F1000FEFD0002332463946204640
:1013B80006F07FFEE8E700BFE78C0001578B0001CD
:1013C800C28C0001F8B5054600F11406EFF3118749
:1013D800402383F31288BFF36F8F304605F0F6FF82
:1013E80038B920498822204806F02AFE88211D485D
:1013F80025E0304606F00EF8AC8B04F00704022C0A
:1014080012D0012C0CBF6FF004046FF08504304635
:1014180005F0EAFF08BB134940F23112124806F002
:101428000FFE40F23111E2E7EB8B53B90F490E483A
:1014380040F2EF1206F004FE40F2EF110B4806F0FE
:10144800F6FD013B9BB2EB83002BE0D13A462146E7
:101458002846FFF76FFD2046F8BD87F31188BFF3D4
:101468006F8FF8E7E78C0001578B0001C28C0001F1
:1014780008B54268034602F00302032A816002D0DD
:101488002AB1002000E0006800225A6008BD044923
:101498000448452206F0D4FD4521014806F0C7FD61
:1014A800148D0001578B0001014B03600020704729
:1014B800008A000108B5044806F0ACFDBDE8084004
:1014C800024806F0A7BD00BF3A8D00016F8D0001EC
:1014D8001D2808B508D905490548142206F0B0FDAD
:1014E8001421024806F0A3FD08BD00BF9D8D000130
:1014F800578B000170B506460C46154600F0DCFA1D
:1015080040B109490948172206F09AFD17210648F3
:1015180006F08DFD3046FFF7DBFF054B43F83050F2
:1015280003EBC0035C6070BDCC8D0001578B0001DC
:101538006401002130BFFFF7FDBF00BF2DE9F04176
:1015480005460B4EDFF82C80324606EB0807CC1B0D
:101558002046094907F026F9A01942460021083C0F
:1015680007F02DF92C6707F10800BDE8F08100BFEE
:10157800000000000400000064890001074A936825
:1015880093F90E10002907DB526993421FBF044AE2
:10159800536843F080535360704700BF540C0021D8
:1015A80000ED00E0154B9A6A12F0007F9A6A14BFAA
:1015B8001E201D2012F0807F9A6A18BF1F2012F487
:1015C800801F9A6A18BF022012F4002F9A6A18BF67
:1015D800212012F4802F9A6A18BF222012F4003FAB
:1015E8009A6A18BF232012F4803F9A6A18BF2420F1
:1015F8006FEA02426FEA12429A62704700ED00E019
:1016080010B5164B9A6A9C6A12F4805F14BF1722B1
:10161800162214F4006F9C6A18BF1822A40509D575
:101628009A6B9A6A120404D518B19A6A22F4004295
:101638009A621922094B986A10F4806F986A18BF49
:101648001A2210F4807F986A40F47F4098624FF025
:1016580000030CBF10461B200B7010BD00ED00E00E
:1016680010B51E4B0246986A9C6A10F0100F14BF02
:101678001120102014F0080F9C6A18BF1220A4072C
:1016880009D5586B986A000604D51AB19A6A22F0EF
:1016980080029A621320114B9A6A12F0010F9A6A1B
:1016A80018BF1420D40602D49B6A9A070ED50B4B98
:1016B8009B6ADB060AD50A490A4840F2631206F01B
:1016C800BFFC40F26311064806F0B1FC034A936A76
:1016D80043F0FF03936200230B7010BD00ED00E0A0
:1016E800F98D0001578B0001F0B5564B04465B6835
:1016F80000258BB0C3F3080385F31188BFF36F8F00
:1017080002F07F40B0F17F4F08D102F00C000828AA
:1017180004D012074CBF0C46012554B94A494FF46E
:101728008B624A4806F08CFC4FF48B61464806F001
:101738007EFC0022033B8DF80720032B7BD8DFE8D3
:1017480003F00272765D3F4AD36A13F0020372D146
:10175800D16A00291ADBD36A5B005BD55369A1699A
:1017680043F480735361BFF34F8FBFF36F8F536997
:1017780031F8021C23F480735361BFF34F8FBFF31A
:101788006F8F4DF60273994220D123689DF8072088
:10179800D2B9224602AE04F12007344610685168D7
:1017A800083203C4BA422646F7D1099A002D44D01C
:1017B800C2F3080121B96FEA52226FEA4222099264
:1017C800184602A906F0B0FC0BB0F0BD936ADBB274
:1017D80033B101200DF10701FFF742FF0346D5E7BA
:1017E800936A13F47F4F05D001200DF10701FFF72D
:1017F80007FFF3E7936AB3F5803F02D3FFF7D2FE02
:10180800ECE7114940F22A32104806F019FC40F280
:101818002A318BE70C4940F22E320C4806F010FCB6
:1018280040F22E3182E700200DF10701D4E70020B5
:101838000DF10701DBE70023A8E722F4FF7222F08D
:101848000102BCE700ED00E0F98D0001578B0001B3
:10185800064B5A6942F010025A615A6942F4806292
:101868005A615A6922F008025A61704700ED00E097
:10187800EFF30880EFF3098101B57246FFF734FFF3
:1018880001BD00BF002080F31488BFF36F8F0020D4
:1018980080F30A8880F30B8802F020FE00200E49AE
:1018A8000860BFF34F8F0D4880F3088800F03EF8BA
:1018B800402080F311880A484FF40061401880F3F3
:1018C8000988EFF314800221084380F31488BFF3DA
:1018D8006F8F00F027F9000094ED00E0A01E0021B2
:1018E800A0110021BFF34F8F0549064BCA6802F4C7
:1018F800E0621343CB60BFF34F8F00BFFDE700BF2B
:1019080000ED00E00400FA05002318460649D1F866
:101918009020C2F30722934200DB7047C1F8983049
:10192800C1F8A0000133F6E700ED00E010B572B68B
:10193800002484F31388FFF7E7FF23464FF0FF30B6
:101948000C4A03F120010133102B42F82100F8D191
:1019580000234FF0FF30074A03F160010133102BD9
:1019680042F82100F8D162B6BFF34F8FBFF36F8FF3
:1019780010BD00BF00E100E0084B9B6883420BD11B
:10198800EFF3058343B1064B5A6842F080525A6020
:101998005A6A22F400425A6205F0A4BB540C002192
:1019A80000ED00E06FF00A01084A9368996708495A
:1019B80058674B6843F080534B60002383F31188CA
:1019C800BFF36F8F9368986F704700BF540C002166
:1019D80000ED00E0EFF31183402383F31288BFF397
:1019E8006F8F4FF00061084A53699360074A51604E
:1019F800196F074A116000215A6F596782F31188DD
:101A0800BFF36F8F704700BF540C002100ED00E05A
:101A1800D00900210E498A684FF030001044EFF3D6
:101A2800098C80E8F01F74467046FFF7D3FFA6467E
:101A380007498A6802F1300090E8F01F8CF30988A2
:101A480002F1000004B506F092FBBDE804407047BF
:101A5800540C00211EF0040F0CBFEFF30880EFF3C5
:101A68000980816911F8021C0229FFD001B506F02E
:101A780061FB01BD40B2002807DB01234109034A8D
:101A880000F01F00834042F82130704700E100E079
:101A980040B200280CDB01220649430900F01F0070
:101AA8008240203341F82320BFF34F8FBFF36F8F5D
:101AB800704700BF00E100E0054B420953F82220BF
:101AC800012300F01F0003FA00F01040704700BF28
:101AD80000E100E008B5D3070BD40231072909D982
:101AE8000D490E48582206F0ABFA58210A4806F06C
:101AF8009EFA002140B20028ACBF00F16040084BBC
:101B08004FEA4111C9B2ABBF00F5614000F00F00C8
:101B180080F80013195408BD2B8E0001578B000163
:101B280014ED00E008B5084B084A23F07F039360E2
:101B3800BFF34F8FBFF36F8F03F078FE05F072FC91
:101B480000F04CF803F0B2FE0000000100ED00E0E8
:101B580042F8203C009B0B4942F81C3C019B21F0B9
:101B6800010142F8183C029B42F8081C42F8143C58
:101B78004FF0807342F8043C0023203A0265436723
:101B8800704700BF090F000100B50D4B154698605E
:101B9800026F0C4B0E461A60036E83F30B882C46BB
:101BA80086F309884FF00000074B984720464FF00E
:101BB80000014FF000024FF00003044C204700BF23
:101BC800540C0021D00900217F810001090F000178
:101BD8001022014B1A61704700ED00E000234021FC
:101BE8000348C21801331E2B82F80013F9D170473D
:101BF80000E100E008B5EFF30583064A103B02EB6D
:101C0800C30152F8330049688847BDE80840FFF728
:101C1800B5BC00BF640100211FB5094C094A234621
:101C28000121094800F0FAF800230393074B01212A
:101C3800E41A01A80193029400F00AF904B010BD57
:101C48000000012100000021008A00019802002103
:101C580010B50C7A0B6804F01F0223F01F031A4317
:101C6800CB68640923F01F03054943EA440343F0A2
:101C78000103C1F89800C1F89C20C1F8A03010BD3C
:101C880000ED00E010B5074BD3F89030C3F30723FD
:101C9800013B984202D8FFF7DBFF10BD6FF015003B
:101CA800FBE700BF00ED00E02DE9F04F0F461446BA
:101CB80006464FF000084D4D85B0B84580F2928039
:101CC800D6F80490B9F1000F36D0B9F11F0F40F2E1
:101CD800878019F01F0F40F08380D6F800A01AF013
:101CE8001F0F7DD1504606F086FA834609EB0A009D
:101CF800013806F080FA834572D11BF1160F6FD0B8
:101D08005C456DDDC5F898B0D5F89C10C5F898B05D
:101D1800D5F8A03021F01F0143F01F0AD6E90032A0
:101D28001A44994202F1FF391ED1CA4508D13146F9
:101D38005FFA8BF006F068FA08F101080C36BCE788
:101D48003146C5F898B0D5F89C3022F01F0203F050
:101D58001F031343C5F89C30E0B206F055FA10F1A2
:101D6800160F3DD0441CE7E7C5F898B0D5F8A02079
:101D7800013B23F01F0302F01F021343CA453146FB
:101D8800E0B2C5F8A030E8D006F03EFA10F1160F20
:101D980026D0C5F898B0D5F89C209DF808300AF1EF
:101DA800FF3A62F304038DF80830D5F8A0309DF8A7
:101DB80008205B0863F347128DF80820D6E9003243
:101DC8001344009323F01F035344A3EB090301308A
:101DD80023F01F036946C0B20393FFF753FFBEE722
:101DE8006FF01504204605B0BDE8F08F00ED00E067
:101DF8000522044BC3F89420BFF34F8FBFF36F8FB6
:101E0800704700BF00ED00E0BFF35F8F0022024B78
:101E1800C3F89420704700BF00ED00E010B5094CEE
:101E28002278FFF741FF207016300AD1064907488B
:101E38004FF4B47206F004F94FF4B471024806F096
:101E4800F6F810BDF10E0021628E0001578B0001DB
:101E58002DE9F74F2E4D8A4606464FF00008AB464F
:101E68002C4FD04502DB03B0BDE8F08FD6F80490C4
:101E7800B9F1000F47D031680846019106F0BBF967
:101E88000199044609EB0100013806F0B4F98442CF
:101E98004FF01402204B10D002FB08F36FF015022C
:101EA8004BF803201D491E484FF4BC7206F0C8F8D1
:101EB8004FF4BC71194806F0BAF814F1160F2C60EB
:101EC800F0D01978A142EDDD02FB08B0C7F89840C0
:101ED800C7F89840D7F89C4000F10801007B64F3EC
:101EE80004000871D7F8A0000C79400860F3471483
:101EF8000C71D7F89C1021F01F016960D7F8A01069
:101F080021F01F01296108F1010814350C36A8E7F2
:101F1800D409002100ED00E0F10E0021628E0001DD
:101F2800578B00012DE9F0414E494F4CD1F89030C4
:101F38002568C3F307239D4286B00AD94B4940F26E
:101F48009F124B4806F07CF840F29F11474806F074
:101F58006EF80020FFF758FF464BC1F8C0308542A5
:101F68001AD1454C01A82570FFF79EFA00250646B0
:101F78004FF04108414FAE4215D10020237839492E
:101F8800D1F89020C2F30722934265DB0020FFF7C7
:101F98002FFF06B0BDE8F081616801EB0011FFF783
:101FA80057FE0130DBE7019A290102EB0513D3F84C
:101FB8000CC00CEA0700B0F5001F23D0B0F5800F65
:101FC80038D0B0F5801F45D1586852589B68CDE984
:101FD80002022122013B20F01F010B4423F01F03C2
:101FE8008DF810200593207802A9FFF74BFE0028F2
:101FF8002DDA1E4940F2C9121D4806F021F840F2B8
:10200800C911A3E758689B685258013B20F01F018B
:102018000B4423F01F031CF0010FCDE902028DF8D9
:1020280010800593DFD011496D22114806F008F899
:102038006D218BE758689B685258013B20F01F01BF
:102048000B44CDE9020223F01F030622C8E72378D8
:102058000133237001358EE7C1F89830C1F8A0002C
:1020680001338DE700ED00E00C8A0001628E00016B
:10207800578B0001AAFF4400F10E00210000F0FF79
:1020880008B50649064821F00701C1F1045202F5D6
:102098008032FEF7A5FE002008BD00BFA722002160
:1020A800E8090021064AD2F8AC3123F00043C2F80F
:1020B800AC310022034BC3F84C21D3F84C317047A4
:1020C80000200141006001410122024B0020C3F8B9
:1020D80040257047000008415023142213B51F4CB7
:1020E8000DF10700C4F80C351D4BC3F820214FF43F
:1020F80000621C4BC3F8BC254FF48062C3F8382536
:1021080002F008FB184B984225D118499DF80700A2
:1021180002F0B0FA16499DF8070002F0BFFA154917
:102128009DF8070002F0A6FA21469DF8070002F084
:10213800B5FA01209DF80730984002F08FFA4FF465
:10214800002200200C4BC3F84423C3F84C01D3F8F9
:102158004C3102B010BD6FF00B00FAE700B000413F
:1021680000302041002001410000AD0B4C610141CD
:10217800282001412C2101410060014173B5354BF4
:10218800D3E84F3F00233449CDE90033334BD3F82C
:102198000445BFF35F8FD1F80465BFF35F8FD3F8B1
:1021A80004259442F3D16B46224601212B4806F0C0
:1021B80044F8324605460F21274801AB06F03DF8A2
:1021C800E0B1019B0DB9009302E0009A9342FAD363
:1021D800009B22481C44013CD0F84C3524F07F4435
:1021E8009C421F4932D0FFF75DFFC0F84C451D4B9C
:1021F800009A9A4218D901230B7001E0002DE7D10B
:10220800194AD2F8AC3143F00043C2F8AC31134B51
:10221800D3F84C2132B90121144A5160D3F84C311A
:1022280003B1116001230DE0BFF35F8FD0F80435CF
:10223800E41A24F07F440E4B033C9C42DBD9002374
:102248000B7000230B4A137002B070BD0B78002B83
:10225800F7D0D5E7F60E00210010014100600141DA
:10226800F40E0021FEFF7F000020014100B0004174
:10227800FBFF7F00F50E0021F8B51E490023C1E8D9
:10228800423F52BB1C4B1D783DB305231B4E1C4FD0
:1022980034780134B4FBF3F303EB8303E41A06F058
:1022A80072F8184A137823B157F82430C01A07284F
:1022B80013D9154BD3F8141141B10021C3F81411E7
:1022C800D3F8143134700CB901231370347806F044
:1022D8005AF847F824002846F8BD0C4A0025D2F8D9
:1022E800AC3123F00043C2F8AC310122084B5A60EC
:1022F800F1E700BFF60E0021F50E0021F30E0021D4
:10230800F4090021F20E0021005000410020014193
:1023180000B0004120B1034B800143F0010318478E
:10232800704700BFF0890001F7B506460D46144610
:10233800194F384606F061F940B91849184814226F
:1023480005F07EFE1421154805F071FEAAB2BB689F
:102358001B683BB9134912485B2205F071FE5B21EB
:102368001048F1E7314638469847002802DB00203C
:1023780003B0F0BD002CFBD1AC42F8D22F1B042FC8
:1023880028BF042705F0FFFF3A46019001A930193C
:1023980006F008FA3C44EFE73C890001A08E0001F2
:1023A800578B0001D98E000137B540230C460A49E6
:1023B8000093411A491105462346084A084805F082
:1023C80070FF011E05DA2846234603B0BDE83040F9
:1023D800184703B030BD00BF1C0A00211583000157
:1023E80000890001C9B2012908B508D90849094876
:1023F8007A2205F025FE7A21054805F018FE0C2200
:10240800036901FB0233986C00F0070008BD00BFA8
:102418000D8F0001578B000170B5C9B201290369FE
:102428000AD91849184840F25D1205F009FE40F231
:102438005D11144805F0FBFDEFF31185402484F38A
:102448001288BFF36F8F0C2606FB0134A46C14F0BE
:10245800C00408D0A24206D085F31188BFF36F8F5D
:102468004FF0FF3070BD012206FB01339A6485F3FB
:102478001188BFF36F8F436803EBC1035B6898470C
:102488000020EFE70D8F0001578B000170B50D4656
:1024980006490446411A491140220548FFF7BCFF86
:1024A8002B4601462046BDE8704018471C0A00210B
:1024B8000089000170B50022012104460520FFF7BC
:1024C80009FB114802F09AF9104B984218D120697B
:1024D80000F010FA02F0A4F926690D49304605F01B
:1024E800FEFD00280BDB0125B5642469084904F1C9
:1024F800200005F0F4FD002801DB0020656570BDB3
:102508006FF00400FBE700BFD12500010000AD0B10
:10251800348A00011FB500220123CDE902236B464E
:10252800084ACDF800D0CDF804D005F0E8FE002820
:1025380005DB4FF480420023684603F0B3FB05B087
:102548005DF804FB2783000110B5EFF311844023E5
:1025580083F31288BFF36F8F074A136823F00201D1
:10256800DB07116002D4012002F0F2F984F311882C
:10257800BFF36F8F10BD00BF740A00210C22104BEF
:10258800014602FB0033002030B4D3E9105218642E
:10259800EFF31180402484F31288BFF36F8F9C6C93
:1025A80004F0C00444F002049C6480F31188BFF373
:1025B8006F8F1DB12B4630BC0248184730BC70479E
:1025C8001C0A002100890001012810B504460AD020
:1025D80004280CD078B90E4B9B6C5B0716D1BDE86C
:1025E8001040FFF7CBBF00F093F92046F7E7BDE8AE
:1025F800104000F09BB90749074840F2722205F0E5
:102608001FFD40F27221034805F011FD10BD00BF07
:102618001C0A00210D8F0001578B000110B4EFF345
:102628001182402383F31288BFF36F8F1748016824
:1026380041F002040460C80707D482F31188BFF38D
:102648006F8F012010BC02F013B91149D1F80C04A6
:10265800D1F80C14C907F0D5EFF3118083F3128871
:10266800BFF36F8F0B498B6C03F0C00343F0020379
:102678008B6480F31188BFF36F8F82F31188BFF3E7
:102688006F8F002010BCFFF779BF00BF740A0021CC
:10269800005000411C0A0021024BC0B203EB40105D
:1026A800704700BF1C0A0021F8B5012206463049D0
:1026B800D1E8EF3FC1E8E02F0028F9D19BB92D49B7
:1026C8002D484B60CB608A60FEF7F8FD00280ADAD7
:1026D8002A494FF40C722A4805F0B2FC4FF40C71E9
:1026E800264805F0A4FC06B3731E012B36D805F066
:1026F800F8FF0446D0B9234B1B78BBB1022205462C
:10270800214BC3F80823204FD7F81824D7F81834DA
:10271800D20314D503F00303012B01D0012E0ED1EF
:10272800BCB185F31188BFF36F8FF8BDEFF3118546
:10273800402383F31288BFF36F8F0124E3E71CB1B2
:10274800284605F03AFDDFE70021212004F096FC39
:10275800DAE702220C4BC3F80423E6E7074940F204
:102768004222074805F06CFC40F24221B8E700BF5E
:10277800180A0021080A00213C0A00210D8F0001D7
:10278800578B00019D11002100500041012208B51E
:10279800104BD3E8EF1F002903D1C3E8E02F00282E
:1027A800F7D115D100230C49CB600C4B4B600323A8
:1027B8008B600B4B1868FEF781FD002808DA094981
:1027C80009484D2205F03CFC4D21064805F02FFC38
:1027D80008BD00BF940A00217C0A0021D12800010D
:1027E800780A0021598F0001578B000107B5002294
:1027F80000230E48CDE900234FF40032002305F0F2
:10280800D7F80B4B1868FEF7DDFD002808DA0949F0
:102818000948552205F014FC5521064805F007FC27
:102828000022064B1A6003B05DF804FB6002002129
:10283800780A0021598F0001578B0001940A002162
:10284800F7B51C4E3C21B7683046FB6898471A4CD0
:102858001A4D40B1002323702B8002F093F8012316
:10286800237003B0F0BD0C216A4630463B69984797
:102878000028EFD1124A019B217893FBF2F3009ACA
:1028880003EB82031BB2B5F900200029E4D09A1AA1
:10289800002AB8BF524212B2012ADDDC094A0139C6
:1028A800136821700133136003B0BDE8F040FFF7EF
:1028B8009DBF00BF50890001F70E0021A60C002122
:1028C80090D003008C0A002108B5074805F095FE52
:1028D80028B902F057F80122044B1A7008BD0448C1
:1028E800BDE8084003F018BC50890001F70E00212C
:1028F8007C000021034B044A186000231360034A3C
:1029080013607047780A0021900A00218C0A002180
:102918000022024B1A70FFF739BF00BFF70E0021E3
:10292800014805F023BF00BF60020021024A136876
:1029380001331360FFF75ABF900A0021EFF31182A9
:10294800402383F31288BFF36F8F0A4BD3F800112B
:1029580061B10021D3F80805C3F80011D3F800319C
:10296800C0B282F31188BFF36F8F70476FF00A000F
:10297800F7E700BF009000410346F0B510469C7889
:1029880093F803C0EFF31182402585F31288BFF353
:102998006F8F1F7893F801E0E41B04EA0C04A0424F
:1029A80088BFA0B23E180CEA06063D461E7082F3A8
:1029B8001188BFF36F8F0A188A4216D177450CD158
:1029C800EFF31182402181F31288BFF36F8F1978DA
:1029D800597082F31188BFF36F8F1B79241AA342B1
:1029E80022BF0122054B1A60F0BD5E1976790135C8
:1029F80001F8016B05EA0C05DEE700BF0090004115
:102A08002DE9F0472D4D00690E46A84214460AD01C
:102A18002B492C4840F2031205F012FB40F2031137
:102A2800274805F004FBDB4313F0010504D02030F0
:102A3800FFF7A2FFBDE8F0879AB3EFF311884023B0
:102A480083F31288BFF36F8F0920FFF735F8074625
:102A58000920FFF71DF888F31188BFF36F8FDFF89F
:102A680068A04FF40079CAF80051DAF80031012360
:102A78002546DFF85880CAF80030C8F88091DAF89F
:102A8800003183B1FFF75AFF031EC8F88091F6DBC7
:102A9800013DADB27355002DF1D117B10920FEF7F4
:102AA800E9FF2046C6E7EFF31180402383F312883D
:102AB800BFF36F8F05F081FBE1E700BF980A0021A3
:102AC8009A8F0001578B00010090004100E100E05F
:102AD8002DE9F041184B07690D469F42144605D170
:102AE80007F135085CB92046BDE8F0811349144860
:102AF800E52205F0A5FAE521104805F098FA4FF00F
:102B0800FF334FF0FF32384603F0CCF8224629460F
:102B18004046FFF731FF0646384603F07DF83EB9D8
:102B28004FF0FF324FF0FF33064803F0BBF8E6E7FB
:102B3800A41BA4B23544D5E7980A00219A8F000156
:102B4800578B0001A80A002138B51F4B04699C4225
:102B58000AD01E491E4840F2471205F071FA40F2A9
:102B680047111A4805F063FA01222046114605F07C
:102B78007BFD0122002104F1100005F075FD40F2F3
:102B8800074323874FF0706323620C23002501213C
:102B980084F824300F4B84F83550E586D3F80425A3
:102BA800092022F00102C3F80425C3F80051D3F824
:102BB8000021C3F804132A461960FEF78BFF092089
:102BC800FEF758FF284638BD980A00219A8F000161
:102BD800578B00010090004110B5FFF7AFFE0028A9
:102BE80020DB174BC0B293F8222093F8214093F8CA
:102BF8002310141B31EA04040DD193F8372093F8FD
:102C0800364093F83810141B31EA04040BD1012222
:102C18000C4B5A600EE09C180132114084F82500D4
:102C280083F8221010BD9C180132114084F83A0034
:102C380083F837100448BDE8104002F0EDBF00BF2C
:102C4800980A002100900041A80A002110B50369E4
:102C580041B91C493E221C4805F0F2F93E211948A9
:102C680005F0E5F9486830B916493F22164805F0DD
:102C7800E7F93F21F3E75868F8B1884219D19C6811
:102C88000868A142586000D19860002008602AB105
:102C98005A680A609A68596002B99960002010E081
:102CA800814206D10868206098688142EDD19C6015
:102CB800EBE7044600680028F2D1002AE8D16FF05B
:102CC800150010BDDC8F0001578B000138B5456831
:102CD8002B69B3B11035284602F002FA044680B9D0
:102CE8000146284602F0C4F9084B98420BD1224607
:102CF8002846074902F08CF9224605210A20FEF7EA
:102D0800E9FE002038BD6FF00400FBE70000AD0BC2
:102D1800E92F000108B503680246590913D00129B3
:102D280006D14FF6FF7103F01F03D940C80711D42D
:102D38000A490B484FF46C7205F082F94FF46C7134
:102D4800064805F074F94FF0FF31D940C907EFD5AF
:102D5800044800E00448136008BD00BF248B00014C
:102D6800578B000100058C4100088C41F0B5406884
:102D780001F01F04057B87B044EA45140569002D5E
:102D88005BD0B2F5001F00F1100506D12146284698
:102D980005F0D8FB002007B0F0BD0027B2F5800F82
:102DA80001AE0197776033D1B3F1007F14BF0523DB
:102DB80004238DF804300023CDE90463039383686A
:102DC800CB40D90716D4B2F1A07F13D1684600943E
:102DD800FFF7A0FF009B803350F82330DB0709D4AE
:102DE8006A462146284602F019F9174B98421AD02C
:102DF800CDF808D02146284603AA01F0D3FF134B8B
:102E080098421DD101222146284602F07FF9C1E7E8
:102E1800B3F1C06F05D0B3F1007F14BF01230223C3
:102E2800C7E70323C5E76946284602F069F9074B57
:102E38009842DDD06FF00B00ADE76FF08500AAE790
:102E48006FF01500A7E700BF0400AD0B0000AD0B45
:102E58002DE9F043466840F20635337BD00601F091
:102E68001F0747EA431748BF032302EA050558BF6F
:102E7800C2F3401387B0B5F5837F14468DF803304D
:102E880044D00FD8062D18D007D8B5B1022D3FD0A1
:102E98006FF0150007B0BDE8F083B5F5807FF7D176
:102EA80001250AE040F20222954233D0B5F5407F71
:102EB80032D0B5F5007FEBD102250123220303FAB6
:102EC80001F12BD573689960336963BB03A8039735
:102ED800FFF720FF039B00EB830084F48033C3F3E8
:102EE8000043C4F34044D0F8002244EA43049DF868
:102EF800033022F4706244EA830422F00F0244EAA9
:102F080005231343C0F800320020C3E70725D4E7A0
:102F18000425D2E70525D0E70325CEE7630344BFA0
:102F28007368D960D0E71036394630460DF1020291
:102F380002F074F814F4403F804616D13946304602
:102F480005F0FEFA234B9845DED130469DF8021075
:102F580002F0D0F84045D7D01F492048EC2205F0B0
:102F68006FF8EC211C4805F062F84FF0000901AB3E
:102F78003946304603AACDE90439CDE90199CDF89F
:102F88000C9001F00FFF134B984281D114F40033D9
:102F980015D09DF8033084F48034C4F300448DF8D0
:102FA8000E3039464B46304603AA8DF80C508DF842
:102FB8000D4001F0ADFF074B9842C3D068E7CDE95B
:102FC800043339460DF10303304603AA039301F095
:102FD800E9FEF0E70000AD0B18900001578B0001E7
:102FE8004209034670B502D0012A1AD070BD124EAC
:102FF800326951680029F9D0012503F01F030C68D4
:103008009D400029F2D08A682A400ED04B6853B9F7
:103018000A490B48612205F013F86121074805F0B9
:1030280006F8084EE4E7304698471CB12368214665
:103038001C46E6E72346FAE728890001DC8F0001F1
:10304800578B0001148900010122014B1A60704757
:10305800000001410C2903690BD15B6A0649074846
:103068004B4393FBF0F100FB1133116000205360D8
:1030780070476FF08500704790D0030040420F0002
:103088000022044B0069C3F80021D3F8003102F094
:10309800C3BD00BF000001417FB50569AB6A002BC5
:1030A80040D03C2901D00C293FD105F110064FF042
:1030B800FF324FF0FF33304602F086FC1C4B0024F1
:1030C800019303236946A86A03940293FEF7F6F86E
:1030D800A04208DA17493D22174804F0B1FF3D2104
:1030E800144804F0A4FF4FF0FF324FF0FF33284696
:1030F80002F0D8FDA86AFEF765F9002806DA0D493E
:1031080042220D4804F09CFF4221E9E70B4BD3F81B
:1031180008256A6201225A60304602F00BFD2046FB
:1031280004B070BD6FF00A00FAE76FF08500F7E7AA
:103138005130000160900001578B000100000141EF
:1031480010B504690020FFF7A7FAA06240B910493A
:103158001048772204F074FF77210D4804F067FFC8
:103168004FF0FF320021204605F07EFA04F11000EE
:1031780005F073FA002201211020FEF7ABFC1020A5
:10318800FEF778FC0122044B0020C3F8042310BD8D
:1031980060900001578B00010000014170B40E4996
:1031A80022F07F46D1E90034D01AC31844F1000454
:1031B800C1E90034A6F50013B3F5400F09D2074B57
:1031C8001B681A0A1B069C19054B42F10005C3E946
:1031D800004570BC04F06EBA60070021280B00217E
:1031E800680700210D4B1868010A0006BFF35F8FBE
:1031F8000B4BD3F80435181841F10001B3F5801FC3
:103208000AD2084BD3E90023904271EB030303D29F
:1032180010F1807041F10001704700BF280B0021B8
:1032280000600141680700212DE9F74305F034F8F3
:103238002A4BD3F8042390070BD5D3F8042142B1C5
:103248000022C3F80421264AD3F804311368013355
:103258001360224AD2F80433D90320D5214BD3E88E
:10326800EF1F21F00100C3E8E40F002CF7D1CB07D2
:1032780002D4D2F8403193B10025184CC4F840511B
:10328800D4F84031FFF7AEFFEFF3108272B6164B59
:10329800D3E90267B042B94104D282F3108803B07F
:1032A800BDE8F0834FF0FF38D3E900104FF0FF3945
:1032B8001D60C3E902894FF48033C4F84833C4F869
:1032C8004051D4F8403182F310880029E7D00090AB
:1032D80032463B4628468847E1E700BF0060014187
:1032E800280B0021200B0021500700212DE9F84F61
:1032F80004460D46434FD7E8EF8F28F00103C7E88F
:10330800E23F002AF7D14FF480393F4EC6F80893C0
:10331800BFF35F8FBFF36F8FFFF764FFA04271EBBE
:10332800050308F0010840D2384B201A65EB01016B
:10333800984271F1000148D2354BD3E902239D42EE
:1033480008BF94423AD04FF0000C24F07F408346E7
:1033580003216FF0020EC6F84893C6F840C1D6F8AC
:103368004031DFF8B0A02BF07F43C6F84035C6F8EF
:103378004493D6F80425AEEB02035B4423F07F4365
:1033880053451BD9D6F840315BB1D6F80425131A3A
:1033980023F07F43B3F5000F10D9C6F840C1D6F823
:1033A800403101EB020B0131DDE71B4BD3E8EF1F86
:1033B80041F00101C3E8E21F002AF7D1144B174A74
:1033C800C3E902451A6000225A60B8F1000F16D00E
:1033D800D7E8EF3F43F00103C7E8E23F002AF7D1FF
:1033E8004FF48032084BC3F804230B4BD3E8AF3FAC
:1033F800DB0742BF4FF48002094BC3F80021BDE848
:10340800F88F00BF240B00210060014101008000FB
:1034180050070021FDFF7F00200B0021A53100018E
:1034280000E100E070B54FF0FF3000254FF0FF31AC
:10343800164C174B0226C4F80833C4F84833154B0A
:10344800C4F80855C3E902014FF480334FF48002F1
:10345800C4F80433104B0121C4F804631620C3F8E0
:1034680080212A46FEF736FB1620FEF703FB0123D0
:103478000A4AA3600021236009481360FFF736FF5A
:103488003046FFF711F9284670BD00BF00600141C2
:1034980003000F005007002100E100E0240B002189
:1034A800FFFF7F00431C10B50F4C05D08442A8BF16
:1034B8000446012CB8BF0124FFF794FE0B4AD2E959
:1034C8000031C01AB0F5000F074A0AD220449042D2
:1034D80028BF1046BDE81040C01841F10001FFF7B1
:1034E80005BF1046F6E700BFFFFF7F006007002119
:1034F80008B5FFF777FE024B1B68C01A08BD00BF6E
:10350800600700210B4B0C4A1B7AC2F81035042BBC
:103518000DD8DFE803F008030C080300A022074BCE
:1035280001201A6070474FF49672044BF8E70020A8
:10353800704700BF200C002100800041340B00219F
:103548000023044AC2E908339362034AC2E90833F4
:1035580093627047EC0B0021C00B0021054B1B68E0
:10356800D3F80423920342BF0022C3F84421D3F8BE
:1035780044317047B800002110B5FCF7ABFD0C4989
:103588000C48FCF7A1FD40F217130B4C0B4AC4F88A
:1035980000320B4B507C1B6898470A4B0A4AC4F808
:1035A80004350A4B1A600422094B1A7010BD00BF7B
:1035B8008C000021F88A000100800041200C0021C5
:1035C8002C0B002150110021CD390001300B0021B6
:1035D80094110021012208B5074B1B681A61FCF7FA
:1035E8007FFDFCF777FD00F067FE0320FCF77EFD0A
:1035F800BDE80840FCF75CBDB800002110B5064CDA
:103608000649204604F0C7FEC1F82405201D04F031
:10361800C2FEC1F8280510BDA800002100800041A5
:1036280008B507490748FCF74FFD38B900F02CFEEC
:103638004FF00412044B1B68C3F8002208BD00BFFA
:103648008C000021F88A0001B800002138B5012556
:103658001B4B1C4C1B681D6100F02EFEFCF740FD47
:10366800FCF726FD00222846114600F0C1FD40F275
:103678001313154AC4F80032144B507C1B68984742
:10368800134BC4F804350023C4F81031D4F81031B2
:103698002561D4F81031002BFBD00022C4F810218A
:1036A800D4F8103140F217131146C4F80032012043
:1036B80000F026FDFFF7B4FF0122064B9A6138BDE2
:1036C800B800002100800041200C00212C0B0021B3
:1036D80050110021004001412DE9F843234B814658
:1036E8001A780F46012ADFF8888031D198F800301F
:1036F800C3F3050203F03F03202B34D81D4B196A8E
:1037080053F821301A701B4D1B492C6A55F8246058
:103718000134304610F8052B05F044F8174B86F8AD
:103728000190D3F84835377103F07F03B37098F8E8
:103738000130082C6FEA030328BF0024012003F09E
:103748000103F370AB6A2C620133AB62BDE8F88306
:10375800084A116A52F82120597809B91170D2E73C
:103768005B7C1370CFE70020F0E700BF200C00213E
:1037780050110021C00B002152110021008000418E
:1037880007B5174B1748DA7C90F90A00002302F5B1
:10379800166201A9FCF7B6FC9DF80500FCF7ACFC25
:1037A80050B1114911484FF4477204F049FC4FF4E5
:1037B80047710D4804F03BFC9DF90430002BC2BF53
:1037C8000120033B8DF80430094BC3F800059DF830
:1037D800042003F58043C3F80C2503B05DF804FB0F
:1037E800A0000021200C0021A8900001578B0001A7
:1037F80000400041837842781B0443EA02230278A0
:103808001343C27843EA0253027943EA8253427966
:1038180043EA0263827943EA8263C27943EA4273E4
:10382800094AC2F81435837A417A1B0443EA012312
:10383800017A0B43C17A43EA0163017B43EA41639E
:10384800C2F81835704700BF008000411FB5044614
:103858000D220021684604F0B2FF0A4BE0B2009343
:10386800094B8DF808005B7C8DF80900013B8DF849
:103878000A30012368468DF80B30FFF7BBFF04B010
:1038880010BD00BF00010100A00000211FB50023EA
:10389800CDF80930CDF80130CDF8053003238DF887
:1038A800023006238DF800300C4B01225B7C8DF82A
:1038B8000B20013B8DF80A3020238DF80830084B87
:1038C8001B7A934207D18DF805206846FFF792FFCF
:1038D80005B05DF804FB042BF5D0F6E7A000002145
:1038E800200C0021684620F007018D4619B5144BBD
:1038F800D3F80423D2060BD5D3F8102142B1002205
:10390800C3F81021D3F810310E4B1B6803B1984748
:103918000B4CD4F804331B070BD5D4F80C3143B146
:10392800084B1B6803B198470023C4F80C31D4F83E
:103938000C31FDF723FEBDE819408546704700BFEE
:1039480000800041300B0021684620F007018D46B9
:1039580031B5194B82B01B680193EFF311814023F5
:1039680083F31288BFF36F8F0022144B1D681A600F
:1039780081F31188BFF36F8F114C2368ABB1E9074E
:1039880003D568468DF800209847AA0705D5012376
:1039980068468DF80030236898476B0705D50223E1
:1039A80068468DF8003023689847FDF7E7FD02B0B8
:1039B800BDE8314085467047380B00213C0B00219B
:1039C8001C0C00212DE9F84F7B4AD2F8007417F03F
:1039D800010703D1BDE8F84FFFF738BEDFF8DCA1D7
:1039E800DAF82830072BF5D8D2F80834744DDBB252
:1039F800DFF8D091D2F80C4435F8230099F801206B
:103A08008442C2F341014FEA830640F0AB80A81913
:103A18008078814240F0A680B8460027AA199170A4
:103A2800654A694CD2F80C2425F82320A37C23B1DD
:103A380099F80130DB0740F1BC80FCF751FB634982
:103A48006348FCF73BFB40F21B125B4BC3F80022B8
:103A580094F800B05F4CBBF1000F00F09B80BBF105
:103A6800010F55D1DFF870C1D3F80814DCF82830FD
:103A7800002B00F085805948C9B250F82120002A4F
:103A88007ED0D2F800E0DFF858B1CBF800E005EBC3
:103A9800060E9EF803E0BEF1000F17D0B8F1000F34
:103AA80014D182F8048050F82120013B9268CCF8A8
:103AB800283040F82120002B57D002B11268CBF8EB
:103AC8000020484A136843F001031360464BDBF8B3
:103AD80000801A68AB19B8F1000F48D00121D970DD
:103AE80098F800009047DBF8001023780A783F48E0
:103AF80062F30503237011F8052B04F053FE637875
:103B080099F8012023F0070302F0070213436370BA
:103B18000522374B1A70FFF733FE274BD3F80824DA
:103B2800D2B2C3F82C25334AC3F80445324B1A6085
:103B3800B7B1214B3544D3F80804DAF82830A9780E
:103B4800072B0DD8C0B2FFF7C7FD48B1254A136847
:103B580043F0040313604FF08062284BC3F8002140
:103B6800BDE8F88F4FF0000858E74246A7E74046FF
:103B780083F803809047237868F305032370BEE732
:103B88004FF00008AB1983F80380174B40461B68B9
:103B98009847F0E7144B58461B68984799F8003047
:103BA8002278C3F3010363F30102227084F801B0A1
:103BB800AEE7FFF74BFDBBE700800041C00B0021DB
:103BC800A80C002150110021200C00218C0000219C
:103BD800E48A000172110021EC0B0021400B002146
:103BE800180C00213C0B00212C0B00217411002122
:103BF8009411002181350001300B002100E100E023
:103C080010B5002400F0D4FBFFF7E4FC124801F0E3
:103C180097FC00F0F7FB114A2146D2F850361048BD
:103C280023F00103C2F850360E4B1C700E4B1C706B
:103C3800FFF786FC202204F0C2FD0C4B08201C6014
:103C48005C60FDF725FF1A20FDF722FFBDE8104054
:103C58001920FDF71DBF00BFB800002100800041FA
:103C6800A80C002194110021951100214811002170
:103C7800F0B5044685B0002800F0C580634E33785F
:103C88000BB1FFF7BDFF6268614B04F110051A60C4
:103C9800604A23461746144618685968083303C40F
:103CA800AB422246F7D118685B4B206000242022E3
:103CB80021465A481C6004F082FD594B59491C6042
:103CC8005C60FFF71FFC3B7883B1012B01D1564B99
:103CD8000B607A7A554B012A00F08880022A07D0B7
:103CE8007AB9C3F83C25C3F8342508E0504BEFE710
:103CF8004FF6FF70C3F83C05C3F834254D4AC3F8A6
:103D080038250B68787C98474FF0E732474B4A488C
:103D1800C3F81C254FF04332C3F82025474AC3F89F
:103D28002425474AC3F82825FFF70AFC454A0023FB
:103D380011460133082B40F8041B01F12501F8D185
:103D48000023414941480133082B40F8041B01F185
:103D58002501F8D100252C463D4B0135082D1A6068
:103D68001C719C6002F1250203F10C03F5D120229D
:103D78000021384804F023FD374B384A384801A958
:103D88000193CDE9024401F057FB364B984235D1F7
:103D980000F0AEFA044698BB00F0A4FA324B23496F
:103DA8001871D1F85026FB7C22F001021343C1F8A8
:103DB8005036224601212846FDF78CFE2246022174
:103DC8001A20FDF787FE224602211920FDF782FE00
:103DD8002846FDF74FFE1A20FDF74CFE1920FDF787
:103DE80049FE224B1C700123337009E0FF20C3F801
:103DF8003C05C3F8342540F2071280E76FF00D0444
:103E0800204605B0F0BD6FF01504F9E795110021C3
:103E18001C0C0021200C00213C0B0021A80C0021C7
:103E2800481100212C0B0021953800010080004129
:103E38005538000121100100EC0B0021E743C32392
:103E4800A363E31320100021F80E0021C00B00210A
:103E5800600B0021400B002140420F006535000136
:103E6800B80000210000AD0B8C0000219411002146
:103E780038B5274B1B78002B41D0002842D0254C61
:103E8800A36A002B41D0EFF31185402383F31288F6
:103E9800BFF36F8F636A053054F823301A7800F83F
:103EA800052C636A54F823305B7800F8043C636A95
:103EB80054F8233093F9023000F8033C636A54F84D
:103EC80023301B7900F8013C636A54F82330DB780F
:103ED80000F8023C636A54F82310053104F062FCD0
:103EE800636A0133082B28BF00236362A36A013B7E
:103EF800A36285F31188BFF36F8F002038BD6FF080
:103F08000C00FBE76FF01500F8E76FF03C00F5E7F1
:103F180095110021C00B002138B5324B1A7802F0F8
:103F2800FF05002A5AD14FF0FF322F4C2F49C4F811
:103F38000823C4F81051D4F810212D4A116040F21A
:103F48001712C4F800221022C4F80423042240F6F1
:103F5800C4111A70274B9A7CC4F83025DA7C02F514
:103F680016628A420AD92449244840F2F26204F0CF
:103F780067F840F2F261204804F059F8A2F5166299
:103F8800C4F808251433D3E8EF1F21F00101C3E872
:103F9800E21F002AF7D14FF48072194B0820C4F8A9
:103FA8000435184BC3F88021FDF764FDC4F80451AB
:103FB800D4F80431C4F808512A460120D4F808314D
:103FC8002946C4F81051D4F8103100F099F8FFF7D9
:103FD80027FB012228460C4B9A6138BD6FF00F0071
:103FE800FBE700BF9411002100800041CD3900019A
:103FF800300B0021A0000021FE8B0001578B00012F
:104008005011002100E100E00040014108B50B4BD0
:104018001B7803F0FF015BB968B1036808480360C7
:1040280004F0B9F9074B00BAC3F81C05084608BDE7
:104038006FF00F00FBE76FF01500F8E7941100210F
:10404800A00000210080004108B50C4B1B7803F04C
:10405800FF0163B970B10368094840F8043F04F0F0
:104068009AF9084B00BAC3F82005084608BD6FF056
:104078000F00FBE76FF01500F8E700BF941100216F
:10408800A00000210080004138B50F4B0C461B787A
:1040980003F0FF0593B9A0B1082912D80A460146D2
:1040A8000A4804F07FFBFF23094A1474C4F108048A
:1040B80023419374FFF7A2FA284638BD6FF00F002A
:1040C800FBE76FF01500F8E794110021A800002124
:1040D800A00000216428034607D8074A127802F096
:1040E800FF002AB9054AD37470476FF0150070476E
:1040F8006FF00F00704700BF94110021A00000214D
:104108002DE9F843002401262E4BC3F81841D3F8B3
:104118001851C3F81C41D3F81C412B4C94F800C02B
:104128002A4C4CF00047C3F8987194F80080284C4A
:1041380048F0004EC3F89CE1247806FA08F6A5007A
:1041480005F1824505F57045D5F80098E40046EA82
:104158000909C5F800981F4D4FEA80095FFA89F9E7
:104168000434B8F11F0FC3F89C70E4B245F809E0B5
:104178000AD9194919484FF4CF7203F061FF4FF477
:10418800CF71154803F053FF154D45F804E0154C61
:10419800247844F00044C3F898402AB180F0010024
:1041A8000C4B8000C0B21C5011B10F4BC3F880708B
:1041B80001230E4A03FA0CF33343C2F80435BDE871
:1041C800F88300BF00400141981100219711002198
:1041D8009611002180800041C9900001578B000191
:1041E80080F00041991100210090014100F0004148
:1041F800F0B51D4B1D4C1E780123247803FA06F6F2
:10420800A3401B4C3343C4F808350024194F1A4BFC
:104218008500EDB2C7F89841C7F89C41C7F89C40A3
:104228005C51164BDFF858C01B78DD0004359B0045
:10423800EDB203F182434CF8054003F57043C7F82B
:104248009840D3F8005825EA0605C3F800582AB163
:1042580080F00100084B8000C0B21C5019B1002248
:10426800084BC3F88020F0BD971100219811002158
:1042780000F000410040014180800041961100217A
:1042880080F0004100900141084B09491A7842F03A
:104298000043C1F8983101F5A041C1F880300123ED
:1042A8009340044AC2F80435704700BF98110021B2
:1042B8000040014100F00041084B1A780123934067
:1042C800074AC2F80835002302F5A042C2F898311F
:1042D80002F5A042C2F88030704700BF9811002153
:1042E80000F00041014B1878704700BF9911002178
:1042F8002DE9F3410024244F6846244900978DF89E
:10430800044000F0B3FB224B0646984204D06FF0FD
:10431800120002B0BDE8F08168461E4900F0A6FB15
:10432800B0420546F3D168461B4900F09FFBA842FE
:104338000646ECD1DFF864806846414600F096FBFB
:10434800B0420546E3D16846154900F08FFBA84204
:104358000646DCD16846134900F088FBB0420546A2
:10436800D5D16846104900F097FBA842CFD198F8FC
:1043780000200E4B42F00041C3F8901101239340F6
:104388002046C7F80435C4E700F000419C1100211D
:104398000000AD0B9B1100219A11002199110021F9
:1043A80098110021971100219611002100800041E9
:1043B80001220E4B0E491B78097802FA03F302FA20
:1043C80001F10B430B49097802FA01F10B430A4941
:1043D800097802FA01F10B43084909788A40134326
:1043E800074A43F00103C2F80835704797110021C6
:1043F8009B11002199110021981100219C11002185
:1044080000F00041012373B5284E294932786846E7
:104418009340284AC2F808350023C1F890318DF836
:104428000430254B0092197800F028FB234B0546F1
:1044380098420AD02249234840F2871203F000FE2E
:1044480040F287111E4803F0F2FD1F4B68461978A9
:1044580000F014FBA8420446ECD11C4B68461978BE
:1044680000F00CFBA0420546E4D16846317800F024
:1044780005FBA8420446DDD1154B6846197800F0C3
:10448800FDFAA0420546D5D1124B6846197800F0CE
:10449800F5FAA8420446CDD10F4B6846197800F0CA
:1044A80003FBA042C6D102B070BD00BF9911002124
:1044B8000080004100F000419C1100210000AD0B7C
:1044C800FC900001578B00019B1100219A110021DB
:1044D8009811002197110021961100210022D30084
:1044E80003F1FF7303F58033D3F80013013107D0CC
:1044F800D3F800130132D3F80433202A0B60EED12D
:10450800224BD3E94C32072B26D1023A032A204BFF
:1045180028D9D3F80024D10732D41C4BD3F8302142
:10452800072A19D1D3F83431023B032B02D8194A90
:10453800D35C8BB17F23184A1849C2F8183100237D
:10454800C1F8043EC1F8083EC2F82431C2F82C3143
:1045580002F57F22C2F81031114B1A68114BC3F8CB
:104568004425704710498A5C002AD2D0D3F8002429
:10457800D207CED50022C3F81421C3F81821C8E702
:104588006FF00102C3F80024C7E700BF0000FF0175
:104598000050004122910001002000410000084124
:1045A8000080FF01006000412691000130B50468D9
:1045B800ACB1B4FA84F30122C3F11F03DBB29A4011
:1045C80024EA0202D0E8EF5FA54204D1C0E8EC2F4C
:1045D800BCF1000FF6D1EAD102480B7030BD024899
:1045E800FCE700BF0000AD0B0200AD0B10B503687F
:1045F800CB40DB0710D401238B40026843EA020159
:10460800D0E8EF4F944204D1C0E8EC1FBCF1000F92
:10461800F6D1F2D1014810BD0148FCE70000AD0B0E
:104628000400AD0B1F2808B50AD90949094840F20A
:10463800871203F005FD40F28711054803F0F7FCE7
:10464800054BD3F8003523FA00F000F0010008BD4F
:10465800C9900001578B000100F00041014BC3F8DD
:104668000405704700F00041014BC3F80805704786
:1046780000F0004108B541B906490748482203F04F
:10468800DFFC4821034803F0D2FC40F00040C1F8A9
:10469800800008BD2A910001578B000108B541B977
:1046A800064907484E2203F0CBFC4E21034803F08D
:1046B800BEFC40F00040C1F8800008BD2A9100010E
:1046C800578B000108B541B906490748602203F035
:1046D800B7FC6021034803F0AAFC0023C1F880302E
:1046E80008BD00BF2A910001578B000108B541B9E8
:1046F80006490748672203F0A3FC6721034803F033
:1047080096FC0023C1F8803008BD00BF2A91000143
:10471800578B00010146014800F0A8B9C0000021EC
:10472800F7B5324B044650B1012825D030493148FD
:10473800DC2203F085FCDC212D4803F078FC022202
:10474800C3F8082301220646DA60C3F80401D3F847
:104758000431012342F21075244F8DF807306CB3F1
:10476800012C1AD0244923484FF4747203F068FCD2
:104778004FF474712048E0E70022C3F8080358603A
:10478800C3F80021D3F800310DF10706E1E70BB3B8
:10479800012003F01DFE013D1CD0D7F80C3403F4B2
:1047A8008033002EF3D0D7F80C2402F001020FE07A
:1047B80083B1012003F00CFE013D0BD0D7F818346B
:1047C80003F48033002EF3D0D7F8182402F0030244
:1047D80032700BB903B0F0BD9DF807000128F9D17C
:1047E80003F0F6FD013DBAD1F4E700BF00500041E7
:1047F80067910001578B0001A4910001054B1A79BC
:104808002AB95A71012218601A710348704703487F
:10481800704700BF340C00210000AD0B0C00AD0B3D
:1048280008B50F4B1A7952B90E490F484FF49872D0
:1048380003F006FC4FF498710A4803F0F8FB1B6874
:1048480033B10520FDF738F910B90520FDF712F945
:104858000122064BC3F81825C3F8142508BD00BF6C
:10486800340C002167910001578B00010050004172
:1048780038B5334C237953B9324940F27F12324864
:1048880003F0DEFB40F27F112E4803F0D0FB50B15D
:1048980001284BD02B4940F2C3122B4803F0D0FB20
:1048A80040F2C311F0E7294BD3F81814D3F81824B1
:1048B800C90321D502F00303012B02D00020FFF722
:1048C8002FFF0122214B0220C3F8182508224FF49C
:1048D8008273002103F1824303F5A04319601D6828
:1048E800012502F1824202F5A042156022680AB34E
:1048F800164BC3F804030EE0D3F81424D207E0D50E
:10490800D3F81C2402F00302012AD7D122681AB175
:104918000222C3F8042338BDD3F80421002AFBD0AF
:104928000022C3F80421D3F80431F4E700224FF43D
:104938008073CEE71A68002AFCD019601B68EAE782
:10494800340C002167910001578B00010050004191
:1049580008B5094B1B7953B90849094840F2DD12DB
:1049680003F06EFB40F2DD11044803F060FBBDE884
:104978000840FFF7D5BE00BF340C00216791000145
:10498800578B0001164BD3F80C14D3F80C24C8032A
:1049980022D5D10720D5D3F81824D2031CD5114A23
:1049A800517901F0FF00C9B9C3F81C01D3F81C11F3
:1049B800012151711961126822B18022C3F80423C0
:1049C80009487047D3F81C21002AFBD00022C3F8FD
:1049D8001C21D3F81C31F3E704487047044870479A
:1049E80000500041340C00210000AD0B0500AD0B58
:1049F8000B00AD0B10B51B4BD3F8002152B10020B2
:104A0800C3F80001D3F800210122C3F80823164B8C
:104A18001B689847134BD3F804215AB10022C3F8F6
:104A28000421D3F804210222C3F808230E4B0120E5
:104A38001B6898470B4BD3F81C2192B1D3F8042379
:104A480012060ED50022C3F81C21D3F81C118021B0
:104A5800C3F80813044B04205A71BDE810401B68C2
:104A6800184710BD00500041340C00210079024B5A
:104A780003EB0010FFF79ABDC8000021012302795B
:104A880000688B40C0F80835024800EB0210FFF7B9
:104A9800ADBD00BFC80000210079024B03EB001038
:104AA800FFF784BDCC00002102790368012003EBE5
:104AB800C1035860024800EB0210FFF797BD00BF22
:104AC800CC000021034A4309D35C00F01F001844BE
:104AD800C0B270474B92000108B502680146104603
:104AE80003F092FC50B90F494FF46C720E4803F072
:104AF800A7FA4FF46C710B4803F099FA02F01F0300
:104B080052090B600AD0012A0AD0064940F2B9328C
:104B1800054803F095FA40F2B931ECE7034808BDBF
:104B28000348FCE7248B0001578B000100058C41EA
:104B380000088C41072808B50AD90749074840F2F8
:104B4800AA3203F07DFA40F2AA31034803F06FFA63
:104B5800800000F5807008BDD8910001578B0001D6
:104B680070B50546FFF7AEFF0C4C083034F810302E
:104B78000E46DA0508D5C3F3432304EBC3022846DF
:104B880054F8333052689847A3682BB13146284609
:104B9800E268BDE87040184770BD00BFD80000212A
:104BA80008B5FFF78FFF034B083033F81000400BB0
:104BB80008BD00BFD800002108B5FFF783FF034BED
:104BC800083033F81000C0F3400008BDD8000021B9
:104BD80008B5FFF777FF044B083033F8100010F0E2
:104BE8001C0018BF012008BDD800002108B5FFF738
:104BF80069FF034B083033F81000C0F3401008BDBC
:104C0800D8000021034611F0010010B5CCB20BD139
:104C1800A207C4F340000DD5074A106A5860106215
:104C2800003818BF012005E004490A6A1A600A62C0
:104C3800002AEDD010BD00BF00088C4100058C4152
:104C480010B5FFF73FFF184A083032F81030D90581
:104C58001DD5C3F3432123F4F85322F81030002064
:104C680002F10E0434F8023F13F4807F03D0C3F33B
:104C7800432399420BD001303028F3D100230B484D
:104C880042F83130FFF7B2FC094B984200D110BD11
:104C9800084909484FF4DC7203F0D2F94FF4DC718B
:104CA800044803F0C4F900BFD800002150010021D6
:104CB8000000AD0B0D920001578B00012DE9F84360
:104CC800002407460E4625464FF00108A146B54286
:104CD8000DD1124BD3F87C2132B10022C3F87C21CC
:104CE800D3F87C3144F000442046BDE8F883E8B2AC
:104CF800FFF720FFA0F58072920808FA02F2174227
:104D080009D000F1824303F52043196819B1C3F8AB
:104D180000901B6814430135D9E700BF00A000418B
:104D2800F7B506460846FFF7CDFE1A4F00F108050D
:104D380037F815300C46DB0729D5304603F0DDFB84
:104D48002046FFF753FF50B12046FFF729FF002305
:104D5800316801EB8000C0F81035C0F810352046E6
:104D6800FFF76EFF002301A827F815300194FFF71D
:104D7800B3FE019B00EB8300D0F80022064B1340E2
:104D880043F00203C0F80032044803B0F0BD044801
:104D9800FBE700BFD8000021F0F0FCFF0000AD0BDE
:104DA8000400AD0B2DE9F0431646804685B0084651
:104DB800FFF788FE37680D460446E7B1084603F05A
:104DC80091FB08BB3B46CDE900008DF80E008DF83D
:104DD8000F000DF10F020DF10E01284603F026FB1E
:104DE800474A04F1080132F8113023F0020343F076
:104DF800010322F8113073687BB328461F7859687D
:104E0800FFF7DAFE10B1E9B13E4829E03C4A04F167
:104E1800080032F8103023F02003DB04DB0C22F802
:104E2800103079B1032FEFD87168496891F800C044
:104E3800D8F800104FEA8C094944A7B9C1F8107591
:104E4800C1F810752E4A04F1080132F8113023F028
:104E58001C0343EA870322F81130B3683BBB2A4896
:104E680005B0BDE8F083D1F810E543EA4C332EF0E5
:104E7800030EC1F810E5D8F8001043F0200301EB49
:104E8800090EDEF8101522F8103021F44F3121F404
:104E98004071CEF810152902DEF8108501F47C5116
:104EA80041EA074141EA0801CEF81015CAE7284649
:104EB800D3E90067FFF7C4FE002ED0D0104DD5E926
:104EC8000023964203D19F4201D1002209E00F48F6
:104ED8000DF10F01FFF76AFB0B4B9842C0D19DF80B
:104EE8000F2005EBC20308345F6035F8143045F82D
:104EF800326043EA422343F4807325F81430AEE766
:104F0800D80000210400AD0B0000AD0B50010021BA
:104F18002DE9FF410C468046204611461E46FFF704
:104F2800D1FD054621B32046FFF746FE18B92046B5
:104F3800FFF75CFE10BB2046FFF74AFE10B14B7826
:104F4800012B1BD001238DF80F3000234A1CCDE91B
:104F5800001320468B1C0DF10F0103F067FA294A54
:104F680005F1080132F8113043F0030322F811303B
:104F7800002E44D02046FFF71FFE18B9224804B07F
:104F8800BDE8F081002296F800C0D8F800301D4F27
:104F980003EB8C03C3F81025C3F8102505F10802AC
:104FA80037F812104FEA8C0E21F02001C904C90C01
:104FB80027F81210757815B3D8F80000B678704441
:104FC800D0F810352D0423F4991323F4F853C0F8BE
:104FD8001035230203F47C5305F440353605D0F828
:104FE80010E52B4306F48016334341EA4C3143EA7B
:104FF8000E0341F02001C0F8103527F812100348BD
:10500800BDE700BFD80000210400AD0B0000AD0BC8
:10501800014BC3E902127047D800002110B51446AD
:1050280052B90E490E4840F20D3203F009F840F229
:105038000D310A4802F0FBFF0846FFF7D7FD50B1D3
:105048000846FFF73FFD074B083033F81030064895
:105058005B0B237010BD0548FCE700BF0D920001F3
:10506800578B0001D80000210000AD0B0400AD0BE8
:105078002DE9F041174D064695F880403CBBA04607
:105088006022214605F1100003F099FB36682F6F66
:10509800A7420FD1002346F30730C6F87C31D6F873
:1050A8007C31FCF7E7FC01230B4885F88030AB67BF
:1050B800BDE8F081E0B2FFF73DFDA0F580739B08E5
:1050C8001F2B04BF46F8008033580134E0E703483B
:1050D800EEE700BFD80000210000AD0B0C00AD0BBF
:1050E800034B93F88000003818BF0120704700BFB9
:1050F800D80000210148FFF779BA00BF4C01002110
:105108000148FFF753BA00BF4C0100212DE9F341D4
:10511800054608460C461646FFF75AFD50B933496E
:1051280040F2FA32324802F08BFF40F2FA312F484F
:1051380002F07DFF2B680846D3F80423002AA4BF99
:105148004FF00042C3F80423FFF750FD10B30846A0
:10515800FFF732FD0746E8B90846FFF721FD044688
:10516800FFF7E8FCD5F8008048F8007058F80030E0
:105178002B6803EB8403D3F8102542F00102C3F82F
:10518800102526B101232A68A340C2F8043302B0CF
:10519800BDE8F08146B9154940F20E42144802F0C4
:1051A8004FFF40F20E41C2E72046FFF78BFC114B40
:1051B800083033F81030C3F38203042B11D0052BC9
:1051C80011D001A80194FFF787FC019B0169D94020
:1051D80001F001010231204602B0BDE8F04103F0C0
:1051E80072B90321F7E70221F5E700BF0D9200012C
:1051F800578B0001D80000212DE9F04F684BDFF8EC
:10520800A481D3F80403D8F87010C0B289B040F074
:105218000040FFF753FD051E2FDAC24600235AF857
:105228007C1F06A8CDE90633FFF7ECFC4FF0000B16
:105238005D4B0DF118090193019A12F8013B019297
:10524800DA081AF8022003F0070322FA03F3DA0750
:105258001CD409F10409BBF1000F14D0D8F8701060
:105268004FF00040FFF72AFDD8F87C1006A8FFF79A
:10527800C9FC0028DAD125F000450124002D76D19B
:1052880009B0BDE8F08F4FF0010BD5E7474B5B4401
:105298000293D9F800100029DBD091FAA1F1B1FAF4
:1052A80081F1029B1C7841EA44142046FFF70AFC6E
:1052B800083038F81070C808BB080393012319F8A0
:1052C800002001F0070103FA01F122EA010209F8BE
:1052D800002005A80594FFF7FFFB059A039B803281
:1052E80050F82220C7F382065B073746C2F3014213
:1052F80022D539462046D6B2FFF732FC05A80594D8
:10530800FFF7EAFB059B803350F82330C3F30143D2
:105318009E4207D10021204603F0D5F831462046A9
:1053280003F0D1F805A80594FFF7D6FB0122059BE9
:1053380002FA03F30362ACE7022A0CD103212046E8
:1053480003F0C1F806F00503012BEBD139462046DE
:10535800FFF706FCE6E702212046039203F0B3F8C4
:10536800032EF3D0039A032ADCD1022EEDE795FA37
:10537800A5F3B3FA83F304FA03F29B0003F1824323
:1053880003F52043D3F81005D3F81015C0F3052012
:10539800C1F3014125EA0205FFF7E2FB6EE700BF12
:1053A80000A00041D80000215B9200015B9200013F
:1053B80070B51E4A0C68B2FBF4F304FB132595BBC9
:1053C800944230D85C1E1C402DD1B3F5007F2AD8FA
:1053D80093FAA3F3B3FA83F302684D79D2F804651C
:1053E800097926F0030601F003013143C2F80415D8
:1053F800D2F8081505F0030521F003012943C2F886
:105408000815C2F81035006800F5A07300F5B072F1
:105418001C6053F8041B9342FAD140F30730FCF7A1
:1054280029FB034870BD0348FCE700BF0024F400D3
:105438000000AD0B0400AD0BF8B541B91A497C2248
:105448001A4802F0FDFD7C21174802F0F0FD0C23FC
:105458000579174C6B43E618377A1FBBE2508B6807
:10546800144A73600368934207D002F5404293429E
:1054780003D002F58052934202D14B79032B06D90F
:1054880009499422094802F0DBFD9421DCE7FFF783
:105498008FFF0C2303FB0544074BC21A53425341A9
:1054A8002372F8BD0548FCE75D920001578B0001A7
:1054B8003C0C002100C000410000AD0B0C00AD0BFE
:1054C8000C2110B50B4B027901FB0232127A012A2A
:1054D80008D009490948D22202F0B2FDD221064873
:1054E80002F0A5FD04682260027901FB0233022262
:1054F8001A7210BD3C0C00215D920001578B00010F
:105508000C2110B50B4B027901FB0232127A42B919
:1055180009490A48DB2202F093FDDB21064802F024
:1055280086FD012204682261007901FB00331A72AA
:1055380010BD00BF3C0C00215D920001578B00019B
:10554800F8B50C27134D0379044607FB03531B7A60
:1055580043B911491148BC2202F072FDBC210E4822
:1055680002F065FD0068002640F30730FCF790FA6A
:1055780023682046D3F800224FF0FF32C3F80062B8
:105588002368C3F80823FFF7BBFF237907FB0355FC
:105598002E72F8BD3C0C00215D920001578B000172
:1055A80070B50C260579134C06FB0544247A54B9CA
:1055B800114912484FF4957202F042FD4FF495716B
:1055C8000D4802F034FD4FF4803405688C4073B107
:1055D80000268B0003F5A073EE50EB580368C3F860
:1055E8000443036801F5A87143F8212070BDC5F88C
:1055F8000843F6E73C0C00215D920001578B00013F
:105608002DE9F0414FF00C0E0779144E1D460EFBA4
:105618000766367A9DF8183056B91149114840F294
:10562800451202F00DFD40F245110D4802F0FFFC55
:105638004FF00117D0F800E08F40DEF8006226EA4C
:105648000706CEF800620668D6F800422C43C6F872
:105658000042BDE8F041FFF7A3BF00BF3C0C0021AA
:105668005D920001578B00010149024802F06CBFAE
:105678003C0C002100C000410149024802F064BF0F
:10568800480C00210090014108B5084A084B934294
:105698000AD908490848182202F0D2FC18210548FE
:1056A80002F0C5FC1433F2E7FCD308BD648900019D
:1056B800008900019A920001578B000170B50446D9
:1056C800EFF31186402383F31288BFF36F8F0C4BDF
:1056D8009D6802F05CFE042C08D10A490A4887221A
:1056E80002F0AEFC8721074802F0A1FC86F311887E
:1056F800BFF36F8F2846BDE87040FCF73DB900BF87
:10570800540C0021BD920001578B000138B5094B9C
:1057180053F82040013053F82050A54200D838BD36
:10572800636823B1204602F073FF0834F5E7236865
:105738009847FAE70C8B0001012270B5344B03201F
:1057480086B01A70FFF7E2FFFBF7B4FE02F07CFFA9
:105758000420FFF7DBFF2F4C2F4DAC42264624D9FF
:105768002E4945222E4802F06BFC45212B4802F0B9
:105778005EFC54F80C3C059354F8103C049354F820
:10578800143C039354F8183C029354F81C3C0193BE
:1057980054F8203C009354E90A2354E90C0100F022
:1057A8008DFD54F8303C5E65D7E7AE4204F1300415
:1057B800DFD301F0ABFA174C1A4EAC421BD917498C
:1057C8006922174802F03CFC6921CFE7D4E90A2393
:1057D800B3F1FF3F08BFB2F1FF3F05D052EA030122
:1057E800206803D102F086FF3034E6E731461830EE
:1057F80001F078FEF8E7E9D301F0D6FAFAF794FD5C
:10580800094A137B23F00103137306B070BD00BF70
:105818009D1100216489000164890001DF92000163
:10582800578B000161870001F007002108B5034884
:10583800034A0021121A02F003FF08BD9802002152
:10584800A01100210023012270B586B0CDE9042300
:105858000F220193CDE9023214230F4D0F4E03FBA3
:1058680000550F4906EBC016044601EB00214FF422
:10587800807230460B4B009500F020FD737B2C7432
:1058880023F004037373084B013403EBC423EE6065
:105898006B6006B070BD00BF540C0021700700217A
:1058A800A019002191590001A0110021BFB50020C5
:1058B800FFF72CFF2C4B03F5006282F3088883F373
:1058C8000A88E023294D002485F822302023EB772D
:1058D8002C766C76AC7685F820406B6A244E43F4BF
:1058E800E0236B6285F82340FBF7B2FFFCF770F901
:1058F8004FF0FF33AB62EB62FCF714FBFCF78CF95B
:1059080040F201121B4B1C4D9A81B360C3E9184445
:10591800DC66FFF7B9FE0120FFF7F8FE0220FFF76B
:10592800F5FE01F09DFA154B756105930123144F9F
:1059380014494FF48062CDE9034328463B46CDE93C
:105948000144009400F0BAFC06466A7B284622F01F
:1059580004026A7300F0FEFE2046FFF773FF3A4622
:1059680031462846FCF710F9A011002100ED00E0AF
:10597800540C002170080021F00700210093000159
:1059880041570001A01A002108B50C4B9B6893F9F8
:105998000E30002B09DB4024EFF3118384F31288C7
:1059A800BFF36F8F02F0EEFBF6E7054905481B22AF
:1059B80002F046FB1B21024802F039FB540C00217F
:1059C80005930001578B00012DE9F3410446174662
:1059D8001E46EFF3058545B1514952486F2202F042
:1059E8002FFB6F214E4802F022FBEFF31188402372
:1059F80083F31288BFF36F8F4B4801F0E7FC38B987
:105A08004A498822474802F01BFB88214748EAE7B1
:105A1800454801F0FFFCE368454A9BB1A0689168DE
:105A2800884224D057EA060329D13F4801F0DCFC1C
:105A3800A0B188F31188BFF36F8F6FF00F0002B029
:105A4800BDE8F081916891F90E100133E360936825
:105A580035482161A36001F0C7FC50B9334940F2D1
:105A68003112304802F0ECFA40F23111CEE72169E8
:105A7800EBE788F31188BFF36F8F0020DFE791F918
:105A88000E1090F90E306FF07E029942A8BF1946A9
:105A98009142B8BF11468B4202DD02F0D6FD0546A1
:105AA80022464146CDE900761F4800F041FF002814
:105AB800E3D0EFF31186402383F31288BFF36F8F8F
:105AC800194801F083FC00289AD0174801F0A2FC7D
