:10000000001F00204D190000418000003919000038
:1000100039190000391900003919000000000000EA
:10002000000000000000000000000000251B000090
:100030003919000000000000F11A00003919000011
:10004000F11C00000D360000F11C0000F11C000046
:10005000F11C0000F11C0000F11C0000F11C00006C
:10006000F11C0000F11C000055550000F11C0000BF
:10007000F11C0000F11C0000F11C0000F11C00004C
:10008000F11C0000F11C0000F11C0000F11C00003C
:1000900071360000F11C0000F11C0000F11C000092
:0800A000F11C0000F11C00003E
:1000A800014B1B689B68184700000020014B1B6828
:1000B8001B69184700000020014B1B685B69184743
:1000C80000000020014B1B689B69184700000020B6
:1000D800014B1B68DB69184700000020014B1B68B7
:1000E8001B6A184700000020014B1B68DB6A184791
:1000F8000000002010B4034C2468E468A44610BC37
:10010800604700BF0000002030B50346114890F951
:100118001C209A4219DD90F924209A4217DA9A1A7B
:10012800846AA05C0C4A15569D420DD00E320029F7
:1001380018BF01309442C0B206D129B1013BDBB2ED
:10014800012B01D80130C0B230BD0D20FCE70020E2
:10015800FAE700BF480200207C87000008B5054B7D
:1001680093F91C30984203DAFFF7CEFF024B1B5677
:10017800184608BD480200207C87000010B51C4CBA
:1001880094F82C3073B9012384F82C3000F09EF8D1
:1001980048B1184BA362D823236284F8243008237B
:1001A800A361237710BD00F0A7F80028F1D100F073
:1001B800ADF80028EDD100F06BF838B10E4BA36212
:1001C800D823236284F824300423E9E700F06AF88E
:1001D8000028F3D100F070F80028EFD100F080F883
:1001E8000028EBD14FF4DF71742000F019F800BF3C
:1001F80048020020B78700008A870000BFF34F8FAE
:100208000549064BCA6802F4E0621343CB60BFF3AA
:100218004F8F00BFFDE700BF00ED00E00400FA05C6
:100228001FB572B6134B5D688DB9FFF7E7FFB2FBD8
:10023800F6F2DCB20133002AF9D104F110036B4461
:1002480003F80C2C0A2234B901A8A847EDE70246A6
:1002580000230A26EDE7631E04AEDCB256FA83F3E8
:10026800B0FBF2F602FB1600303003F80C0C3046F7
:10027800E9E700BFA00600204FF08052034BD2F8F8
:1002880030111960D2F834215A607047DC0600201A
:10029800034B1868A0F10F0358425841704700BF3C
:1002A800DC060020034B1868A0F10A0358425841A5
:1002B800704700BFDC060020034B1868A0F10E034E
:1002C80058425841704700BFDC060020034B1868AD
:1002D800A0F1100358425841704700BFDC060020C7
:1002E800044B1868062803D0431C584258417047ED
:1002F80001207047DC060020034B1868A0F10D03AD
:1003080058425841704700BFDC060020034B18686C
:10031800A0F1080358425841704700BFDC0600208E
:1003280008B5FFF7A9FFBDE80840FFF727BF801A07
:1003380000F3070038B540B20D4659B21446FFF72E
:100348000DFF0023287020446B7040B238BD002395
:10035800036070477047002070474FF0FF307047C8
:100368004FF0FF3070477047002070474FF0FF3064
:1003780070470020704700207047002303707047C3
:100388000022FFF7D4BF002070474FF0FF307047BE
:100398004FF0FF3070474FF0FF307047704700282C
:1003A8000CBF6FF01500002070470020704707232E
:1003B800037000207047002070470020704700003D
:1003C80008B50378022B06D1034803F07BFC10B96B
:1003D800024B01221A7008BD710C0020700C00201D
:1003E80008B50268530904D14FF0FF33D340DB0747
:1003F8000AD4074907484FF46C7207F09FFD044878
:100408004FF46C7107F091FD4FF0A04008BD00BF9C
:100418002C8900005F89000013B50446019001A8EB
:10042800FFF7DEFF00EB8400044BD0F800271340F1
:1004380043F00303C0F8003702B010BDF0F8FCFF2A
:1004480030B5144A144B154D8BB0CDE90123144A2D
:100458001068516803AB03C31C460FCD0FC42B684B
:100468002360104A0692012305A88DF815308DF8EF
:10047800263003F00FFB58B901A803F0EFFC38B998
:1004880002A803F005FD18B9082103A803F01AFD16
:100498000BB030BD3344BB01DEF01223608700008F
:1004A80077890000C90300002DE9F74F4FF01023AA
:1004B800D3F88440D3F88850601C39D1691C6FD0B8
:1004C800FF26EFB2B046B146FF2F61D14FF0010AC7
:1004D80007F0D7FC002840F0CD80FFF7B1FF0028D7
:1004E80040F0C880282003F015FD03F03BFC0028ED
:1004F80040F0C080DFF884B1614C05469BF80020CD
:1005080002F0FF030193002A7ED000218BF800102F
:1005180003F088FA10225B48002108F060F8A27AFC
:10052800019B042A4FD8DFE802F042757D859300CD
:10053800C4F30726C4F307484FEA146AE4B2FF2C51
:10054800EFB205D02046FFF767FF204607F08CFC86
:10055800FF2E05D03046FFF75FFF304607F077FCE7
:10056800B8F1FF0F04D1BAF1FF0F08D1D146ABE7BC
:100578004046FFF751FF404607F076FCF3E7504648
:10058800FFF74AFF50465FFA8AF907F060FC9BE7DD
:10059800EDB22846FFF740FF284607F058FC95E7DC
:1005A800FF27B946B8463E464FF0000A90E7354A5D
:1005B80001211170217A517002215171E179117173
:1005C800617991711D46BAF1000F17D0637ADA0785
:1005D800484649D407F03BFC637A9B07384646D423
:1005E80007F035FC55B1FF2E02D0304607F03CFC31
:1005F800B8F1FF0F02D0404607F029FC214800F06F
:10060800FBFB204800F01EFB002140F6CD4006F021
:10061800AFFC73E71B4A217A5170E1791171617956
:100628005171CFE7174B02221A70227A5A706279F9
:100638005A71C8E7134A03211170217A5170E17980
:10064800117161795171A17991710A219160B9E7AC
:100658000C4B04221A70227A5A7062791A71A279A4
:100668005A710A229A60AEE707F0FEFBB4E707F07A
:10067800FBFBB7E703B0BDE8F08F00BF700C0020AC
:10068800710C0020800900200B4B00224FF0FF3135
:10069800C3F80022C3F80813C3F81021D3F81021B7
:1006A80001221A61D3F81021002AFBD00022C3F8D6
:1006B8001021D3F8103170470010004010B5FFF733
:1006C800E3FF044B1B6823B11B6813B1BDE810405E
:1006D800184710BD9009002010B51C4BD3F804230F
:1006E800D104044616D5D3F830219AB10022C3F8B4
:1006F8003021174AD3F83031136801331360826808
:1007080042B1934213480CBF002240F6CD42002369
:1007180005F03AFD0D4BD3F80423120714D5D3F88E
:100728000C218AB10022C3F80C210B4AD3F80C31F2
:10073800136801331360A268934205D1FFF7A4FF41
:10074800E368BDE81040184710BD00BF0010004026
:1007580098090020480000209C09002073B5124B1E
:10076800124C187020460D4604F034FE104B00263B
:10077800D3F80022C3F800624FF0FF32C3F8082311
:100788002946204607F02FFE012302460093204603
:1007980040F20113314604F09DFE204602B0BDE848
:1007A800704004F0F7BD00BF980C002018880000C6
:1007B80000800040042810B504460BDC10F1100F2F
:1007C8000DDA10F11E0F54D010F1140F53D010F1A0
:1007D800280F52D02B4807F09BFB002331E000F193
:1007E8001003142BF6D801A252F823F08708000052
:1007F800DD070000DD070000DD07000049080000F4
:10080800DD070000DD070000DD0700006B080000C1
:10081800DD070000DD070000DD0700006F080000AD
:10082800DD070000DD070000DD070000E30700002A
:10083800DD070000DD0700007308000077080000EE
:10084800F423114AC2F80C35104B1B78CBB921465A
:100858000F4807F05DFB21460E48BDE8104007F041
:1008680057BBF823EDE7FC23EBE70323E9E7042371
:10087800E7E7E223E5E7EC23E3E7D823E1E7F02322
:10088800DFE710BD8089000000100040970C0020B1
:10089800BF890000E4890000204B40F20122C3F820
:1008A80050260022C3F83425C3F83825C3F82C2570
:1008B8000122914284B0C3F830252AD0022922D0DF
:1008C800F9B9AB22C3F824254FF0AB32C3F81C2585
:1008D80004284FF000030293114A05BF01238DF845
:1008E80008304FF4837340F2071313809DF80830E3
:1008F8000A4A1B0643F00803C2F81435094BC2F82C
:10090800183504B07047CC22C3F824254FF0CC32F8
:10091800DCE76A22C3F82425034AD7E70010004021
:100928004C0C0020FF0004031B81FE5838B50C4C0A
:10093800FFF7B2FFFF22012922700FD0022908D049
:1009480019B91146601C07F0C5FB064BC3F80445EE
:1009580038BDCC21601C07F042FEF6E7F021F9E72C
:10096800990D00200010004008B500F5166040F60B
:10097800C41398420AD90849084840F2F26207F0BD
:10098800DDFA054840F2F26107F0CFFA044BA0F512
:100998001660C3F8080508BD068A00005F890000D4
:1009A8000010004010B5294CBFF35B8F54E8003F9E
:1009B80023F4803244E800210029F7D1BFF35B8F8C
:1009C800D80304D5224B2349187803F079FEBFF3E6
:1009D8005B8F54E8003F23F0040244E8002100291B
:1009E800F7D1BFF35B8F590705D5194B1A4A1B4935
:1009F800187807F028FCBFF35B8F54E8003F23F01A
:100A0800100244E800210029F7D1BFF35B8FDA0612
:100A180005D50F4B124A1149187807F014FCBFF39B
:100A28005B8F54E8003F23F4807244E800210029DA
:100A3800F7D1BFF35B8FDB0507D5054B064A09499C
:100A48001878BDE8104007F0FEBB10BD94090020DF
:100A5800960C00200080004000100040004101403A
:100A6800041000404081004070B51B4D0446FFF75C
:100A780099FF287854B3194A194907F0DAFB042377
:100A88000126184CBFF35B8F06FA03F354E8002FD6
:100A98001A4344E800210029F8D1BFF35B8F1249BB
:100AA800287803F005FEBFF35B8F54E8003F43F45A
:100AB800803344E80032002AF7D1BFF35B8F2878EF
:100AC80006FA00F0BDE8704003F0E6BD074A0449A5
:100AD80007F0AFFB0223D3E7960C00200410004078
:100AE80000410140940900200080004000100040AF
:100AF80070B5114C064615460846FFF7C5FDC4F803
:100B08001065D4F8003243F00103C4F80032FFF74F
:100B180051FE2846094DFFF727FF2B7843B10020E7
:100B2800FFF7A2FF2B781BB1054B01221A6070BD9D
:100B380001232360FBE700BF00100040970C002052
:100B4800004001402DE9F0411B4C17460E461D465A
:100B5800FFF79AFDC4F81005D4F8003243F02103DA
:100B6800C4F80032154BC4F804353946FFF794FE33
:100B78003046FFF7F9FE124B124E00221A604FF46E
:100B88008053C4F80433337883B10120FFF76CFF36
:100B980033785BB10C4B01221A6055B1BDE8F041C6
:100BA8000A484FF4A022002305F0EEBA012363603F
:100BB800F3E7BDE8F08100BF00100040990C002069
:100BC80098090020970C00200040014048000020B0
:100BD800B0F5A07F10B50C4619D10978032917D1B3
:100BE800154B607894F9041001221A70134B1A7887
:100BF800FFF77EFF6279A0790F4B002119700F492A
:100C08000B780133DBB2834298BF1A460A7010BDD5
:100C180004290CD1084B09496078097801221A7017
:100C280022790023FFF78EFF22796079E4E7BDE897
:100C38001040034807F06CB9970C0020980C00206E
:100C48003A8A00002DE9F3410378052B35D8DFE80F
:100C580003F0030C3740474A427990F90410407872
:100C680002B0BDE8F041FFF743BF4479457890F9F9
:100C7800048087798668FFF707FD2146544C28468B
:100C8800FFF754FED4F8003243F02103C4F80032D1
:100C98004046C4F81055FFF78DFD3846FFF764FE4F
:100CA8004C4A00231360C4F80C31D4F80C3116B147
:100CB8000823C4F804330123236002B0BDE8F0819F
:100CC800836802794179407802B0BDE8F041FFF7C6
:100CD80039BF8168407902B0BDE8F041FFF73EBDF9
:100CE80081680079F7E7447890F80580856890F97D
:100CF80004708679FFF7C8FC20464146FFF716FEC8
:100D0800334BC3F81045D3F8002242F00302C3F86E
:100D180000223846FFF74EFD3046FFF725FE2E4BE2
:100D28002E4A1B5D12882E485343C5F164045C4368
:100D3800B4FBF5F41C4404F04DFB0020FFF794FECF
:100D4800284B2748D3F8002200254FF0FF32C3F87C
:100D580000522146C3F8082307F033FB00950246EA
:100D680002231F48012104F0B5FBEFF3118640234D
:100D780083F31288BFF36F8F1B4B1C4C01251D603A
:100D8800207803F07FFC20B1207805FA00F003F00A
:100D980089FCFFF707FE0E4A1549207807F049FA43
:100DA800BFF35B8F134B53E8001F41F4807143E896
:100DB8000012002AF7D1BFF35B8F237801209840F7
:100DC80003F06AFC86F31188BFF36F8F75E700BFE5
:100DD800001000409C090020978A00004C0C00205D
:100DE800188800000080004000400140960C002058
:100DF800448100409409002030B51B4A87B04FF465
:100E08000073CDE90323059003A9184A044618483E
:100E180004F07CFA174B9842014602D0164807F0B6
:100E280077F8002205210820002500F0B7FE2346A8
:100E3800124A00950521012007F009F9012000F068
:100E48007DFE0F4807F00AFA0A4B984206D00D4873
:100E580007F05EF86FF00D0007B030BD0A4B0C3498
:100E68001C602846F8E700BF40420F00D90B00007D
:100E7800188800000000AD0B548A0000E10600004D
:100E8800960C0020758A000090090020B2F5802F8A
:100E98002DE9F0410AD33449344840F2EB1207F007
:100EA8004DF840F2EB11304807F03FF8042A08D813
:100EB8002D492E484FF4F97207F040F84FF4F971B4
:100EC800F1E7043ACD1D8E1825F0070526F0070630
:100ED800761B172E4FEAD60708D82349234840F235
:100EE800FB1207F02BF840F2FB11DCE7B7FA87F4A6
:100EF800C4F12002C4F12404A4000734E408631CEC
:100F08004FF00008BB420560AF60C5F80C8008D9F7
:100F1800154916484FF4037207F010F84FF403719F
:100F2800C1E74146920005F1100007F058FB630045
:100F380043F001036B8005EBC4023B1B5900A5F885
:100F480000805180AA1925F83440A2F80280AB53DA
:100F580005EBC70321465A8842F001025A80284609
:100F6800BDE8F04106F0ABBFA78A00005F8900002A
:100F7800014B1B68184700BF7800002030B585B0CA
:100F880004460D4610220021684607F028FB02237C
:100F98008DF802302A46044B01932146684606F034
:100FA800F9FC05B030BD00BF790F000080B50546DB
:100FB8000E461746984606F009F8034607F07AFBEE
:100FC800DFF81890044649F8003042463046394662
:100FD800A84754F8090000F035FD00BF08000000DC
:100FE8002DE9F84F04460846A38B1907164612D474
:100FF800022803F0070162D1204606F0ACFF88B151
:101008000138042800F22581DFE810F05900230197
:101018007E00C800F50001280CBF43F0100143F022
:101028002001A18304F1140006F058F9002800F00B
:10103800AB8086F31188BFF36F8FBDE8F88F03F09C
:101048000702501F01281ED80020062A2768C4E975
:10105800000014D13A4603E0E08B0130E0831268C7
:10106800002AF9D123F0070343F00202A2832046A5
:1010780006F071FF90B342F02002A2832EE023F025
:1010880007039AB2F2E7042A33D123F007039AB28E
:10109800A283204606F05FFF10B142F02002A2832F
:1010A800A38B03F00709894540F0DC80A18BCA06B1
:1010B80040F1218121F01003A38301F00701D4F846
:1010C8001880A38BB8F1000FB9DA0022276823F043
:1010D8000703C4E9002243F00103A383A38B03F0B1
:1010E8000709894540F0BF80002FDFD00025AA46B8
:1010F80040E08549854840F21B1206F01FFF40F288
:101108001B11814806F011FF41B17F497F484FF418
:10111800AB7206F013FF4FF4AB71F2E7236843B9E3
:1011280079497A4840F2571206F008FF40F2571101
:10113800E7E723691D6845B9734974484FF4AD72F0
:1011480006F0FCFE4FF4AD71DBE7A38B23F0070339
:1011580043F006039BB2A3830F4688464FF0060967
:10116800A268002A40F08180002F40F08180002D85
:101178009CD0BA4643F0080304F1140BA3835846E5
:1011880006F0ACF8002875D16149604840F2311288
:1011980006F0D4FE40F231115D48B3E7022908D0C9
:1011A80059495A4840F25D1206F0C8FE40F25D11F6
:1011B800A7E7E78B47B1544954484FF4AF7206F09C
:1011C800BDFE4FF4AF719CE723695D6845B94E4990
:1011D8004E4840F2611206F0B1FE40F2611190E70C
:1011E800A38B23F0070343F004039BB2A383B84601
:1011F8004FF00409B4E7012908D0434943484FF4A4
:10120800B27206F09BFE4FF4B2717AE7236843B9D5
:101218003D493E4840F2651206F090FE40F26511E5
:101228006FE723699D6845B9374938484FF4B47268
:1012380006F084FE4FF4B47163E7A38B23F0070331
:1012480043F005039BB20027A383B8464FF0050976
:1012580086E72D492D4840F26B1206F06FFE40F2EA
:101268006B114EE7002700257AE74FF0010A81E766
:1012780092467FE786F31188BFF36F8FBAF1000FAC
:1012880016D147BB15B123492046A847EFF311866D
:10129800402383F31288BFF36F8F584606F010F887
:1012A80008BB1B491948882206F048FE882173E7C5
:1012B800A1680029E5D00E680029E2D0D1F804A081
:1012C80043464A462046D0471EB1336831461E463B
:1012D800F2E73346FAE7394643464A4620463F682E
:1012E80006F065FECDE7584606F00EF8A38B23F00E
:1012F8000803A383DAE68B067FF594AE21F020037A
:10130800A38301F0070177E6CA8A00005F8900001D
:10131800EF8A000021130000F8B504460D4600F1DD
:101328001406EFF31187402383F31288BFF36F8FFE
:10133800304605F0C5FF40B909490A48882206F039
:10134800FDFD0748882106F0F0FD304605F0DCFF7A
:10135800A5613A4620460121BDE8F840FFF740BEA6
:10136800EF8A00005F8900002DE9F04704460F4628
:1013780006F00DFE051E5DDB04F11409EFF3118A7A
:10138800402383F31288BFF36F8F484605F098FF18
:10139800804638B933493448882206F0CFFD882181
:1013A80030483CE0484605F0AFFFE38BA68B4FF68C
:1013B800FF72934206F007063FD0022E10D1013388
:1013C800E3833546484605F089FF00283BD1254987
:1013D800254840F2311206F0B1FD40F23111DFE745
:1013E800062E13D8DFE806F0092C121209040900AA
:1013F8006FF085054FF00008E4E700233B60636861
:101408007BB9C4E900777EB13546F3E7174916483A
:101418004FF4E47206F092FD14484FF4E47106F0BC
:1014280084FD1F606760EEE7524602212046FFF701
:10143800D7FD35462846BDE8F0876FF00A05D9E79D
:101448006FF00405D6E78AF31188BFF36F8FB8F100
:10145800000FEFD0002332463946204606F0A7FD9C
:10146800E8E700BFEF8A00005F890000CA8A000031
:10147800F8B5054600F11406EFF31187402383F30E
:101488001288BFF36F8F304605F01AFF38B920492C
:101498002048882206F052FD88211D4825E0304664
:1014A80005F032FFAC8B04F00704022C12D0012C9B
:1014B8000CBF6FF004046FF08504304605F00EFF92
:1014C80008BB1349134840F2311206F037FD40F2C9
:1014D8003111E2E7EB8B53B90F490E4840F2EF1296
:1014E80006F02CFD0C4840F2EF1106F01EFD013B02
:1014F8009BB2EB83002BE0D13A4621462846FFF702
:101508006FFD2046F8BD87F31188BFF36F8FF8E7AA
:10151800EF8A00005F890000CA8A000008B54268A7
:10152800816002F00302032A034602D02AB1002098
:1015380000E0006800225A6008BD044904484522BA
:1015480006F0FCFC0148452106F0EFFC1C8B00006E
:101558005F890000014B036000207047208800006D
:1015680008B5044806F0D4FCBDE80840024806F077
:10157800CFBC00BF428B0000778B0000192808B54C
:1015880008D905490548142206F0D8FC0248142158
:1015980006F0CBFC08BD00BFA58B00005F890000EA
:1015A80070B506460C46154600F0EAFA40B10949FE
:1015B8000948172206F0C2FC0648172106F0B5FCB8
:1015C8003046FFF7DBFF054B43F8305003EBC00311
:1015D8005C6070BDD48B00005F890000380100207A
:1015E80030BFFFF7FDBF00BF2DE9F0410B4EDFF81C
:1015F800308006EB0807CC1B0546324609492046D1
:1016080006F0DFFFA01942460021083C06F0E7FF7C
:101618002C6707F10800BDE8F08100BF000000005A
:101628000400000060870000074A936893F90E10D1
:10163800002907DB526993421FBF044A536843F0ED
:1016480080535360704700BFFC0B002000ED00E0A2
:10165800F8B5274B15469A6A12F0100F9A6A14BF0C
:101668001124102412F0080F9A6A064618BF122493
:1016780090070AD5586B9A6A120628D519B19A6A42
:1016880022F080029A62132401E06FF01500184BD3
:101698009A6A12F0010F9A6A18BF1424D70602D466
:1016A8009B6A99070AD5124F7B681A0506D53146F9
:1016B80000F0D0FA70B180F3098802240C4A936ACA
:1016C80043F0FF03936200232B702046F8BD6FF0B0
:1016D8001500D8E7BB6ADB06F0D50649064840F294
:1016E8005D1206F02BFC034840F25D1106F01DFC6C
:1016F80000ED00E0018C00005F890000134B9A6A3E
:1017080012F0007F9A6A14BF1E201D2012F0807FFD
:101718009A6A18BF1F2012F4002F9A6A18BF212056
:1017280012F4802F9A6A18BF222012F4003F9A6A96
:1017380018BF232012F4803F9A6A6FEA02426FEAC8
:1017480012429A6218BF2420704700BF00ED00E0E3
:1017580010B5164B9A6A9C6A12F4805F14BF172260
:10176800162214F4006F9C6A18BF1822A40509D524
:101778009A6B9A6A120404D518B19A6A22F4004244
:101788009A621922094B986A10F4806F986A18BFF8
:101798001A2210F4807F986A40F47F4098624FF0D4
:1017A80000030B700CBF10461B2010BD00ED00E0BD
:1017B800F0B5564B5B688BB00446C3F308030025AD
:1017C80085F31188BFF36F8F02F07F40B0F17F4F30
:1017D80008D102F00C00082804D012074CBF0C46B0
:1017E800012554B94A494B484FF48B6206F0A6FBD1
:1017F8004FF48B61464806F098FB0022033B8DF8B6
:101808000720032B7BD8DFE803F00272765D3F4A9E
:10181800D36A13F0020372D1D16A00291ADBD36AA2
:101828005B005BD55369A16943F480735361BFF3CF
:101838004F8FBFF36F8F536931F8021C23F4807305
:101848005361BFF34F8FBFF36F8F4DF60273994209
:101858001FD123689DF80720CAB902AE04F12007FA
:1018680020686168324603C20834BC421646F7D184
:10187800099A002D45D0C2F3080121B96FEA522216
:101888006FEA4222099202A9184606F0CBFB0BB078
:10189800F0BD936ADBB23BB10DF10702012120468E
:1018A800FFF7D6FE0346D5E7936A13F47F4F05D0BA
:1018B8000DF107010120FFF74BFFF3E7936AB3F53A
:1018C800803F02D3FFF71AFFECE71149114840F2B5
:1018D8002A3206F033FB40F22A318BE70C490D48D7
:1018E80040F22E3206F02AFB40F22E3182E70DF14B
:1018F80007020021D3E70DF107010020DBE70023F1
:10190800A8E722F4FF7222F00102BBE700ED00E035
:10191800018C00005F890000044B5A6942F01002F4
:101928005A615A6922F008025A61704700ED00E0D6
:10193800EFF30880EFF3098101B57246FFF738FF2E
:1019480001BD00BF002080F31488BFF36F8F02F041
:10195800E7FC00200D490860BFF34F8F0C4880F367
:10196800088800F03DF8402080F3118809484FF4BA
:101978000461401880F30988EFF3148002210843BA
:1019880080F31488BFF36F8F00F032F994ED00E014
:10199800001F002080110020BFF34F8F0549064B20
:1019A800CA6802F4E0621343CB60BFF34F8F00BFF5
:1019B800FDE700BF00ED00E00400FA050749D1F893
:1019C80090200023C2F307221846934200DB704799
:1019D800C1F89830C1F8A0000133F6E700ED00E047
:1019E80008B572B6002383F31388FFF7E7FF144B9B
:1019F8004FF0FF32C3F88020C3F88420C3F8882052
:101A0800C3F88C20C3F89020C3F89420C3F898201A
:101A1800C3F89C20C3F88021C3F88421C3F8882127
:101A2800C3F88C21C3F89021C3F89421C3F89821F6
:101A3800C3F89C2162B6BFF34F8FBFF36F8F08BD09
:101A480000E100E0084B9B6883420BD1EFF305836C
:101A580043B1064B5A6842F080525A605A6A22F4DF
:101A680000425A6205F0B8BAFC0B002000ED00E015
:101A7800094A93686FF00A019967084958674B68E3
:101A880043F080534B60002383F31188BFF36F8FBB
:101A98009368986F704700BFFC0B002000ED00E0D2
:101AA80010B50446EFF31183402383F31288BFF384
:101AB8006F8F0A4B58699860094B4FF000625A6063
:101AC800084B026F1A600022436F426783F3118844
:101AD800BFF36F8F00F026F9204610BDFC0B0020E5
:101AE80000ED00E0A00900200B498A684FF03000A3
:101AF8001044EFF3098C80E8F01F74467046FFF736
:101B0800CFFFA64604498A6802F1300090E8F01F2A
:101B18008CF3098870470000FC0B00201EF0040FAE
:101B28000CBFEFF30880EFF30980816911F8021CFC
:101B38000229FFD001B506F07BFA01BD40B20028AA
:101B480007DB044A4109012300F01F00834042F8E3
:101B58002130704700E100E040B200280CDB430967
:101B6800064900F01F0020330122824041F823205B
:101B7800BFF34F8FBFF36F8F704700BF00E100E0E6
:101B8800054B420900F01F0053F82220012303FAF5
:101B980000F01040704700BF00E100E008B5D3072F
:101BA8000BD40231072909D90E490F48582206F0EB
:101BB800C5F90C48582106F0B8F9002140B20028B0
:101BC800ACBF00F16040094B4FEA4111B8BF00F0CB
:101BD8000F00C9B2AABF00F56140195480F800137C
:101BE80008BD00BF338C00005F89000014ED00E0E1
:101BF80008B5084B084A23F07F039360BFF34F8F63
:101C0800BFF36F8F03F07CFD05F086FB00F060F8F2
:101C180003F0BAFD0000000000ED00E042F8203CAF
:101C2800009B42F81C3C0A49019B42F8183C029B65
:101C380042F8143C21F001014FF0807342F8043C53
:101C480042F8081C0023203A02654367704700BF2A
:101C5800B50F0000094A0346906870B113F1160FDA
:101C6800006E05D0A0F140029A4205D8834203D203
:101C7800814228BF0020704700207047FC0B0020DD
:101C880008B515460B4A0C4B9060026F1A600E4659
:101C980000F048F82C4686F309884FF00000074BFF
:101CA800984720464FF000014FF000024FF0000324
:101CB800034C2047FC0B0020A00900207380000083
:101CC800B50F0000014B10221A61704700ED00E0CB
:101CD800044800234021C21801331A2B82F800134C
:101CE800F9D1704700E100E008B5EFF30583064A33
:101CF800103B02EBC30152F8330049688847BDE83E
:101D08000840FFF791BC00BF38010020024B034A8E
:101D18000348012100F076B8006000200000002090
:101D280020880000026E054B403A1A60044A4021A0
:101D3800C3E901121846012100F080B8A409002067
:101D480000000B15084AC2F898000B6823F01F031F
:101D5800034343F01003C2F89C308B6843F001033F
:101D6800C2F8A030704700BF00ED00E02DE9F04355
:101D7800DFF8608085B00E461F4604464FF0000924
:101D8800B14523DA6068D8B13FB1411E08421BD182
:101D98001F2819D92368194216D12368019306F020
:101DA80087F9A36803430393D8F89050C5F3072530
:101DB800D0B2013DA84207D801A9FFF7C3FF421CD2
:101DC80009F101090C34DBE76FF01502104605B084
:101DD800BDE8F08300ED00E0044B0522C3F8942031
:101DE800BFF34F8FBFF36F8F704700BF00ED00E068
:101DF800BFF35F8F024B0022C3F89420704700BFE7
:101E080000ED00E010B50A4C01232278FFF7AEFF81
:101E1800207016300AD1074907484FF4B47206F00B
:101E28008DF804484FF4B47106F07FF810BD00BF78
:101E3800990E00206A8C00005F89000008B5114ADD
:101E480000231278FFF792FF10F1160F08D00E4A00
:101E58000021D2F89030C3F3072398420BDB08BD6A
:101E68000A490B4840F2871206F068F8074840F222
:101E7800871106F05AF8C2F89800C2F8A01001308D
:101E8800E7E700BF990E002000ED00E06A8C000033
:101E98005F8900002DE9F04F6D4B6E4CD3F8903000
:101EA8002568C3F307239D4285B00AD96A496B4860
:101EB80040F29F1206F042F840F29F11664806F081
:101EC80034F8FFF795FF00200C26854229D1644C91
:101ED800644F25706846FFF73DFBDFF87481DFF833
:101EE800889106460025AE4222D123785849002021
:101EF800D1F89020C2F307229342C0F29E80FFF7E8
:101F08006BFFD1F89030C3F30723082B00F09B80B8
:101F18005149524840F20F2206F010F840F20F21C2
:101F2800CCE7616806FB0011FFF70CFF0130CCE736
:101F3800009A02EB05132901D3F80CA00AEA07005E
:101F4800B0F5000F5CD00AD8B0F5001F36D0B0F558
:101F5800800F48D0B0F5801F12D00135C3E7B0F12B
:101F6800807F58D0B0F1007FF7D19868D3F804A0EB
:101F7800525806F09DF8CDE901A240F480200BE00C
:101F88009868D3F804A0525806F092F8CDE901A257
:101F980040F0885040F430200390D8F890302078F2
:101FA800C3F30723013B984240D92B492B4840F201
:101FB800C91205F0C3FF40F2C9117FE79868D3F84A
:101FC80004B0525806F074F81AF0010F40EA0900FC
:101FD800CDE901B20390E0D01F4920486D2205F0F9
:101FE800ADFF6D216AE79868D3F804A0525806F04F
:101FF8005FF840F0E060CDE901A240F40030CBE7A3
:102008009868D3F804A0525806F052F8CDE901A216
:1020180040F08270C0E79868D3F804A0525806F0E0
:1020280047F8CDE901A240F08870B5E701A9FFF7AC
:1020380089FE2378013323708FE7C1F89830C1F8FF
:10204800A000013354E7002005B0BDE8F08F00BFC1
:1020580000ED00E02C8800006A8C00005F89000019
:10206800990E00200000F0FF0000081108B506498D
:10207800064821F00701C1F1005202F5C042FEF7FF
:1020880005FF002008BD00BF87230020B0090020FD
:1020980020B1034B800143F001031847704700BF8C
:1020A80010880000F7B506460D461446194F384605
:1020B80006F0B2F940B918491848142205F03EFF55
:1020C8001548142105F031FFAAB2BB681B683BB95B
:1020D800134912485B2205F031FF11485B21F1E7F3
:1020E800314638469847002802DB002003B0F0BD8F
:1020F800002CFBD1AC42F8D22F1B042F28BF042799
:1021080006F065F83A46019001A9301906F059FA27
:102118003C44EFE738870000A88C00005F89000086
:10212800E18C000037B50C460A490B4A411A402396
:102138000093491105462346084805F0CEFF011EC5
:1021480005DA2846234603B0BDE83040184703B0F7
:1021580030BD00BFD00900204D810000108700006D
:10216800C9B2012908B508D9084909487A2205F0F1
:10217800E5FE06487A2105F0D8FE03690C2201FB2A
:102188000233986C00F0070008BD00BF158D0000F1
:102198005F89000070B5C9B2012903690AD91849D5
:1021A800184840F25D1205F0C9FE154840F25D116D
:1021B80005F0BBFEEFF31185402484F31288BFF3CA
:1021C8006F8F0C2606FB0134A46C14F0C00408D0F1
:1021D800A24206D085F31188BFF36F8F4FF0FF300E
:1021E80070BD06FB013301229A6485F31188BFF3A1
:1021F8006F8F436803EBC1035B6898470020EFE7E4
:10220800158D00005F89000070B50D460649411A1A
:102218000446491105484022FFF7BCFF2B460146FA
:102228002046BDE870401847D009002010870000FC
:10223800002270B5012104461046FFF7AFFC114893
:1022480002F0B8FA104B984218D1206900F014FA3D
:1022580002F0C2FA26690D49304605F0BEFE002894
:102268000BDB0125B5642469084904F1200005F059
:10227800B4FE002801DB6565002070BD6FF0040026
:10228800FBE700BF4D2300000000AD0B4C880000A9
:102298001FB500220123CDE90223094ACDF800D059
:1022A8006B46CDF804D005F046FF002805DB4FF457
:1022B80080420023684603F061FC05B05DF804FB2A
:1022C8005F81000010B5EFF31184402383F3128877
:1022D800BFF36F8F074A136823F00201DB07116011
:1022E80002D4012002F006FB84F31188BFF36F8F3C
:1022F80010BD00BF280A002030B4104B0C2202FB8E
:10230800003301460020D3E910521864EFF311801E
:10231800402484F31288BFF36F8F9C6C04F0C004D0
:1023280044F002049C6480F31188BFF36F8F1DB1E1
:102338002B46034830BC184730BC7047D0090020F2
:1023480010870000012810B504460AD004280CD0D4
:1023580078B90E4B9B6C5B0716D1BDE81040FFF7B0
:10236800CBBF00F097F92046F7E7BDE8104000F032
:102378009FB90749074840F2722205F0DFFD04487B
:1023880040F2722105F0D1FD10BD00BFD009002038
:10239800158D00005F89000010B4EFF3118240230F
:1023A80083F31288BFF36F8F1748016841F0020466
:1023B8000460C80707D482F31188BFF36F8F012028
:1023C80010BC02F02DBA4FF08041D1F80C04D1F8BE
:1023D8000C14C907EFD5EFF3118083F31288BFF30C
:1023E8006F8F0A498B6C03F0C00343F002038B64C0
:1023F80080F31188BFF36F8F82F31188BFF36F8F5B
:10240800002010BCFFF778BF280A0020D009002060
:10241800024BC0B203EB4010704700BFD009002048
:10242800F8B53349BFF35B8F0646012251E8003FF8
:1024380041E800200028F9D1BFF35B8F9BB92D49F3
:102448002D484B60CB608A60FEF78EFF00280ADAC1
:102458002A492B484FF40C7205F070FD4FF40C71AB
:10246800264805F062FD06B3731E012B37D806F027
:1024780047F80446D0B9234B1B78BBB14FF08043D3
:102488000222C3F8082305464FF08047D7F81824DE
:10249800D7F81834D20312D59B0701D0012E0ED1DC
:1024A800BCB185F31188BFF36F8FF8BDEFF31185C9
:1024B800402383F31288BFF36F8F0124E4E71CB134
:1024C800284605F0E6FDE1E70021212004F050FD53
:1024D800DCE74FF080430222C3F80423E5E707490D
:1024E800074840F2422205F029FD40F24221B7E7B1
:1024F800CC090020BC090020F0090020158D00003F
:102508005F8900004011002008B5134BBFF35B8FB3
:10251800012253E8001F002903D143E800200028C6
:10252800F7D1BFF35B8F15D10C490023CB600C4B5F
:102538004B6003238B600B4B1868FEF715FF0028D0
:1025480008DA094909484D2205F0F8FC06484D21EA
:1025580005F0EBFC08BD00BF480A0020300A002047
:10256800552600002C0A0020618D00005F890000BC
:1025780007B500220023CDE900230D484FF40032AF
:10258800002305F08FF90B4B1868FEF771FF002840
:1025980008DA09490948552205F0D0FC06485521B2
:1025A80005F0C3FC064B00221A6003B05DF804FB7B
:1025B800100200202C0A0020618D00005F890000B5
:1025C800480A0020F7B51C4E1C4CB7681C4DFB6828
:1025D8003C213046984740B1002323702B8002F0FD
:1025E800A3F90123237003B0F0BD0C213B696A46AF
:1025F800304698470028EFD1124A019B93FBF2F32B
:10260800009A217803EB82031BB2B5F90020002958
:10261800E4D09A1A002AB8BF524212B2012ADDDC6D
:10262800094A1368013901332170136003B0BDE80A
:10263800F040FFF79DBF00BF4C8700009A0E0020B6
:102648004E0C002090D00300400A002008B507482F
:1026580005F0E2FE28B902F067F9054B01221A706D
:1026680008BDBDE80840034803F0C2BC4C87000021
:102678009A0E00207C000020034B044A18600023B7
:102688001360034A136070472C0A0020440A002094
:10269800400A0020024B00221A70FFF735BF00BF26
:1026A8009A0E0020014805F070BF00BF10020020FC
:1026B800024A136801331360FFF75ABF440A002027
:1026C800EFF31182402383F31288BFF36F8F0A4B15
:1026D800D3F8001161B10021D3F80805C3F800113F
:1026E800D3F80031C0B282F31188BFF36F8F7047FF
:1026F8006FF00A00F7E700BF00D00040F0B50346CE
:1027080010469C7893F803C0EFF31182402585F3B7
:102718001288BFF36F8F1F7893F801E0E41B04EA77
:102728000C04A04288BFA0B23E180CEA06063D463B
:102738001E7082F31188BFF36F8F0A188A4216D170
:1027480077450CD1EFF31182402181F31288BFF352
:102758006F8F1978597082F31188BFF36F8F1B79C7
:10276800241AA34222BF064B01221A60F0BD5E194B
:102778000135767901F8016B05EA0C05DEE700BF43
:1027880000D000402DE9F0472D4D0069A8420E46C3
:1027980014460AD02B492C4840F2031205F0CEFB10
:1027A800284840F2031105F0C0FBDB4313F0010594
:1027B80004D02030FFF7A2FFBDE8F0879AB3EFF30B
:1027C8001188402383F31288BFF36F8F0D20FFF722
:1027D800D7F907460D20FFF7BFF988F31188BFF333
:1027E8006F8FDFF868A0DFF86880CAF80051DAF860
:1027F80000314FF400590123CAF800302546C8F8C3
:102808008091DAF8003183B1FFF75AFF031EC8F848
:102818008091F6DB013DADB27355002DF1D117B1B2
:102828000D20FFF78BF92046C6E7EFF31180402310
:1028380083F31288BFF36F8F05F02BFCE1E700BF2D
:102848004C0A0020A28D00005F89000000D00040E3
:1028580000E100E02DE9F041184B07699F420D4661
:10286800144605D107F135085CB92046BDE8F0816A
:1028780013491448E52205F061FB1148E52105F0EC
:1028880054FB4FF0FF334FF0FF32384603F076F930
:10289800224629464046FFF731FF0646384603F0F0
:1028A80027F93EB94FF0FF324FF0FF33064803F0E7
:1028B80065F9E6E7A41BA4B23544D5E74C0A002025
:1028C800A28D00005F8900005C0A002038B51F4B0C
:1028D80004699C420AD01E491E4840F2471205F07E
:1028E8002DFB1B4840F2471105F01FFB0122114642
:1028F800204605F0C8FD0122002104F1100005F072
:10290800C2FD40F2074323874FF0706323620C2314
:1029180084F824300025104B84F83550E586D3F828
:10292800042522F00102C3F804250121C3F800514F
:10293800D3F80021C3F804132A4619600D20FFF7C5
:102948002DF90D20FFF7FAF8284638BD4C0A00206B
:10295800A28D00005F89000000D0004010B5FFF78D
:10296800AFFE002820DB174B93F8222093F8214074
:1029780093F82310141B31EA0404C0B20DD193F864
:10298800372093F8364093F83810141B31EA0404C2
:102998000BD10D4B01225A600EE09C1801321140F8
:1029A80084F8250083F8221010BD9C1801321140CC
:1029B80084F83A0083F837100448BDE8104003F063
:1029C80097B800BF4C0A002000D000405C0A0020E5
:1029D80010B5036941B91C491C483E2205F0AEFAFE
:1029E8003E21194805F0A1FA486830B91649174838
:1029F8003F2205F0A3FA3F21F3E75868F8B188426F
:102A080019D19C6808685860A14200D198600020DC
:102A180008602AB15A680A609A68596002B99960D0
:102A2800002010E0814206D1086820609868814241
:102A3800EDD19C60EBE7044600680028F2D1002A3B
:102A4800E8D16FF0150010BDE48D00005F8900002B
:102A580038B545682B69B3B11035284602F0ACFA91
:102A6800044680B90146284602F06CFA084B9842A1
:102A78000BD108492246284602F038FA2246052199
:102A88000620FFF78BF8002038BD6FF00400FBE745
:102A98000000AD0BBD2B000008B50268530904D136
:102AA8004FF0FF33D340DB070AD4074907484FF4F8
:102AB8006C7205F043FA04484FF46C7105F035FA6E
:102AC8004FF0A04008BD00BF2C8900005F890000BE
:102AD800F0B54068057B01F01F0444EA4514056918
:102AE80087B0002D5BD0B2F5001F00F1100506D1AC
:102AF8002146284605F035FC002007B0F0BD01AEA0
:102B08000027B2F5800F0197776033D1B3F1007FCA
:102B180014BF052304238DF804300023CDE9046392
:102B280003938368CB40D90716D4B2F1A07F13D1A1
:102B380068460094FFF7B0FF04F5E07350F82330BF
:102B4800DB0709D46A462146284602F0D5F9174B17
:102B580098421AD0CDF808D003AA2146284602F098
:102B68009BF8134B98421DD101222146284602F0BA
:102B780039FAC1E7B3F1C06F05D0B3F1007F14BFD4
:102B880001230223C7E70323C5E76946284602F065
:102B980023FA074B9842DDD06FF00B00ADE76FF0DA
:102BA8008500AAE76FF01500A7E700BF0400AD0B8A
:102BB8000000AD0B430970B507D1104B596821B11E
:102BC80001250C680E4E854001B970BD8A682A40FF
:102BD8000CD04B6843B90B490B48612205F0AEF99C
:102BE8000848612105F0A1F9304698471CB12368CF
:102BF80021461C46E8E72346FAE700BF900A002072
:102C080024870000E48D00005F8900002DE9F0436F
:102C1800466840F20635337BD00687B001F01F07BF
:102C280002EA050547EA431754BFC2F340130323DA
:102C3800B5F5837F14468DF8033044D00FD8062DA0
:102C480018D007D8B5B1022D3FD06FF0150007B0E6
:102C5800BDE8F083B5F5807FF7D101250AE040F2A1
:102C68000222954233D0B5F5407F32D0B5F5007FCA
:102C7800EBD102250123220303FA01F12BD5736856
:102C8800C3F80815336963BB03A80397FFF704FF6C
:102C980084F4803300EB8700C3F30043C4F340445B
:102CA800D0F8002744EA43049DF8033022F4E16297
:102CB80044EA830422F0070244EA05231343C0F8D8
:102CC80000370020C3E70725D4E70425D2E7052508
:102CD800D0E70325CEE7630344BF7368C3F80C1538
:102CE800D0E710360DF102023946304602F004F9F9
:102CF80014F4403F804616D13946304605F02FFB84
:102D0800234B9845DDD19DF80210304602F05EF95C
:102D18004045D6D01F492048EC2205F00FF91D4840
:102D2800EC2105F002F901AB4FF0000903AA39467E
:102D38003046CDE90439CDE90199CDF80C9001F080
:102D4800ABFF134B984280D114F4003315D09DF893
:102D580003308DF80E3084F48034C4F300444B46BD
:102D680003AA394630468DF80C508DF80D4002F014
:102D780041F8074B9842C3D067E7CDE9043303AA6B
:102D88000DF1030339463046039301F085FFF0E760
:102D98000000AD0B208E00005F890000014B01226E
:102DA8001A60704700C000400C2903690BD15B6AA8
:102DB800064907484B4393FBF0F100FB11331160C0
:102DC8005360002070476FF08500704790D0030073
:102DD80040420F00044B00690022C3F80021D3F8D9
:102DE800003102F085BE00BF00C000407FB5056914
:102DF800AB6A002B40D03C2901D00C293FD105F10A
:102E080010064FF0FF324FF0FF33304602F048FD16
:102E18001C4B019300240323A86A03946946029378
:102E2800FEF7A2FAA04208DA174918483D2205F031
:102E380085F83D21144805F078F84FF0FF324FF03F
:102E4800FF33284602F09AFEA86AFEF711FB002815
:102E580006DA0D490D48422205F070F84221E9E7EB
:102E68000B4BD3F808256A6201225A60304602F0FB
:102E7800CDFD204604B070BD6FF00A00FAE76FF090
:102E88008500F7E7A52D00005A8E00005F89000035
:102E980000C0004010B504690020FFF7B9FAA0622D
:102EA80040B910491048772205F048F80D487721B5
:102EB80005F03BF84FF0FF320021204605F0E3FA19
:102EC80004F1100005F0D8FA002201210C20FEF7C9
:102ED80065FE0C20FEF732FE044B0122C3F80423E2
:102EE800002010BD5A8E00005F89000000C000401D
:102EF80070B40E49D1E90034D01AC31844F1000463
:102F080022F07F46C1E90034A6F50013B3F5400F5F
:102F180009D2074B1B681A0A1B069C19054B42F17C
:102F28000005C3E9004570BC04F03EBB3007002033
:102F3800D00A0020380700200D4B1868010A000647
:102F4800BFF35F8F0B4BD3F80435181841F100011C
:102F5800B3F5801F0AD2084BD3E90023904271EBE6
:102F6800030303D210F1807041F10001704700BFE4
:102F7800D00A002000100140380700202DE9F7434F
:102F88002B4CD4F8043399070BD5D4F8043143B14A
:102F9800284A0023C4F80431D4F8043113680133F3
:102FA8001360D4F80433DA0323D5BFF35B8F224BC5
:102FB80053E8002F22F0010143E800100028F7D160
:102FC800BFF35B8FD30702D4D4F840318BB100250F
:102FD800C4F84051D4F84031FFF7AEFFEFF3108248
:102FE80072B6164BD3E90267B042B94104D282F3F4
:102FF800108803B0BDE8F0834FF0FF384FF0FF3979
:10300800C3E90289D3E900101D604FF48033C4F886
:103018004833C4F84051D4F8403182F3108800296D
:10302800E7D0009032463B4628468847E1E700BF94
:1030380000100140D00A0020C80A00202007002004
:103048002DE9F84F4B4DBFF35B8F06460F4655E809
:10305800008F28F0010345E80032002AF7D1BFF3BA
:103068005B8F454C4FF48039C4F80893BFF35F8FEA
:10307800BFF36F8FFFF760FFB04271EB070308F0F3
:10308800010840D23D4B301A67EB0101984271F1BB
:1030980000014CD23A4BD3E902239F4208BF964223
:1030A8003ED04FF0000CC4F84893C4F840C126F055
:1030B8007F40D4F84031DFF8CCA0834603216FF07D
:1030C800020E2BF07F43C4F84035C4F84493D4F87B
:1030D8000425AEEB02035B4423F07F4353451FD91D
:1030E800D4F840315BB1D4F80425131A23F07F4398
:1030F800B3F5000F14D9C4F840C1D4F8403101EB3E
:10310800020B0131DDE7204BBFF35B8F53E8001F53
:1031180041F0010143E80012002AF7D1BFF35B8FA9
:10312800174B1A4A1A60C3E9026700225A60B8F1BD
:10313800000F1CD0BFF35B8F55E8003F43F001033D
:1031480045E80032002AF7D1BFF35B8F4FF4803394
:10315800C4F804330C4BBFF35B8F1B68BFF35B8F62
:10316800DB0742BF0A4B4FF40032C3F80021BDE829
:10317800F88F00BFCC0A0020001001400100800039
:1031880020070020FDFF7F00C80A0020F92E00005C
:1031980000E100E070B5194C194BC4F80833C4F8C5
:1031A8004833184B00254FF0FF304FF0FF31C4F87B
:1031B8000855C3E902014FF48033C4F80433124BB5
:1031C80002264FF40032C4F804630121C3F88021B9
:1031D80011202A46FEF7E2FC1120FEF7AFFC01237E
:1031E8000A4AA3600021236009481360FFF728FFFB
:1031F8003046FFF715F9284670BD00BF00100140A2
:1032080003000F002007002000E100E0CC0A0020A6
:10321800FFFF7F00431C10B50F4C05D08442A8BFA8
:103228000446012CB8BF0124FFF786FE0B4AD2E9F9
:103238000031C01AB0F5000F074A0AD22044904264
:1032480028BF1046C018BDE8104041F10001FFF743
:10325800F7BE1046F6E700BFFFFF7F0030070020EB
:1032680008B5FFF769FE024B1B68C01A08BD00BF0E
:10327800300700200B4B0C4A1B7AC2F81035042B80
:103288000DD8DFE803F008030C080300074BA02261
:103298001A6001207047054B4FF49672F8E700203A
:1032A800704700BFC80B002000100040DC0A002057
:1032B800044A0023C2E908339362034AC2E9083387
:1032C80093627047940B0020680B0020054B1B6825
:1032D800D3F80423920342BF0022C3F84421D3F851
:1032E80044317047BC00002010B5FCF7EBFE0C4CD5
:1032F8000C490D48FCF7E0FE40F21713C4F8003201
:103308000A4A0B4B507C1B6898470A4BC4F8043593
:10331800094B0A4A1A600A4B04221A7010BD00BFF2
:10332800001000408C000020FC880000C80B002022
:10333800D40A0020F3100020D80A0020F13700003A
:103348003711002008B5084B1B6801221A61FCF7E9
:10335800BFFEFCF7B7FE00F00FFE0320FCF7BEFE31
:10336800BDE80840FCF79CBEBC00002008B5074932
:103378000748FCF7A1FE38B900F0E2FD054B1B68D1
:1033880040F20442C3F8002208BD00BF8C000020B0
:10339800FC880000BC00002038B51C4B1C4C1B6886
:1033A80001251D6100F0E8FDFCF792FEFCF778FEB0
:1033B80000221146284600F061FE40F21313C4F8BB
:1033C8000032144A144B507C1B689847134BC4F8BE
:1033D80004350023C4F81031D4F810312561D4F82D
:1033E8001031002BFBD00022C4F81021D4F8103182
:1033F80040F21713C4F800321146012000F0D2FD44
:10340800FFF7B4FF064B01229A6138BDBC000020CB
:1034180000100040C80B0020D40A0020F310002040
:10342800004001402DE9F843224BDFF88C801A78E0
:10343800012A81460F4630D198F80030C3F30502BF
:1034480003F03F03202B33D81C4B196A53F8213063
:103458001A701A4D1A492C6A55F8246030460134FE
:1034680010F8052B05F0ADF8164B86F80190D3F847
:103478004835377103F07F03B37098F80130DB43A8
:1034880003F00103F370AB6A082C28BF0024013352
:103498002C62AB620120BDE8F883084A116A52F831
:1034A8002120597809B91170D3E75B7C1370D0E7F4
:1034B8000020F0E7C80B0020F3100020680B002064
:1034C800F51000200010004007B5114B1148DA7CB8
:1034D80090F90A00002302F5166201A9FCF70AFE1A
:1034E8009DF80500FCF700FE50B10B490B484FF45E
:1034F800477204F023FD08484FF4477104F015FDA6
:103508009DF80420064BC3F80C2503B05DF804FBB6
:10351800A4000020C80B0020A28E00005F890000D4
:1035280000100040837842781B0443EA02230278A3
:103538001343C27843EA0253027943EA02634279A9
:1035480043EA8263094AC2F81435037AC1791B0435
:1035580043EA012381790B43417A43EA0163817A83
:1035680043EA4163C2F81835704700BF00100040B5
:103578001FB500230293CDF80B300A4B01930A4B79
:103588005B7CC0B2013B8DF80A008DF80B008DF80A
:103598000C3001A801238DF80D30FFF7C3FF05B0EB
:1035A8005DF804FB00010100A40000201FB5002302
:1035B800CDF80930CDF80530ADF80D3003238DF87E
:1035C800063006238DF804300C4B5B7C013B8DF8EC
:1035D8000C3020238DF80A30094B1B7A01229342C4
:1035E8008DF80D2007D18DF8082001A8FFF79AFF64
:1035F80005B05DF804FB042BF5D0F6E7A400002025
:10360800C80B0020684620F007018D4619B5144BF9
:10361800D3F80423D2060BD5D3F8102142B10022E7
:10362800C3F81021D3F810310E4B1B6803B198472B
:103638000B4CD4F804331B070BD5D4F80C3143B129
:10364800084B1B6803B198470023C4F80C31D4F821
:103658000C31FDF7E9FFBDE819408546704700BF0A
:1036680000100040D80A0020684620F007018D4667
:1036780031B5194B82B01B680193EFF311814023D8
:1036880083F31288BFF36F8F144B00221D681A60F2
:1036980081F31188BFF36F8F114C2368ABB1E90731
:1036A80003D58DF8002068469847AA0705D5012359
:1036B8008DF800306846236898476B0705D50223C4
:1036C8008DF80030684623689847FDF7ADFF02B0D3
:1036D800BDE8314085467047E00A0020E40A002032
:1036E800C40B0020C20708B5014606D5374804F0C8
:1036F80076FD374B00BAC3F81C058B0706D535484D
:1037080004F06DFD324B00BAC3F8200548070AD50E
:1037180031482F4904F063FDC1F824052F4804F00F
:103728005EFDC1F828054FF08053D3F83021511CB5
:1037380009BF4FF07043D3F8343193F8E02FD3F832
:10374800E83F08BFC3F30313062A3DD1033B042B0C
:1037580002D8234AD35CBBB31C4B224A5B7C052BA3
:103768001B4BD3F81C15D3F8200518BF4FF07F4228
:103778004140114228D1D3F82415D3F82825C1F3A4
:103788000720CBB2834214D0C1F30740834210D044
:10379800B3EB116F0DD0D1B28B420AD0C2F307211F
:1037A8008B4206D0C2F307418B4202D0B3EB126FB3
:1037B8000AD1074AD2F8743723F0807323F0010343
:1037C80043F08073C2F8743708BD00BFA40000201E
:1037D80000100040A8000020AC000020B00000202D
:1037E800C88E00000000FFFF2DE9F84F7B4AD2F891
:1037F800007417F0010703D1BDE8F84FFFF7CCBDFF
:10380800DFF8DCA1DAF82830072BF5D8D2F808342D
:10381800744DDFF8D491D2F80C4499F80120DBB24A
:10382800C2F3410135F8230084424FEA830640F091
:10383800AB80A8198078814240F0A680B84600275E
:10384800AA196A4C9170654AD2F80C2425F82320ED
:10385800A37C23B199F80130DB0740F1BC80FCF769
:1038680037FC63496348FCF721FC5C4B40F21B12B0
:10387800C3F8002294F800B05F4CBBF1000F00F0D1
:103888009B80BBF1010F55D1DFF870C1D3F8081444
:10389800DCF82830002B00F085805948C9B250F870
:1038A8002120002A7ED0DFF85CB1D2F800E0CBF806
:1038B80000E005EB060E9EF803E0BEF1000F17D0FE
:1038C800B8F1000F14D182F8048050F82120013B90
:1038D800926840F82120CCF82830002B57D002B14C
:1038E8001268CBF80020484A136843F001031360BC
:1038F800464BDBF800801A68AB19B8F1000F48D0C6
:103908000121D97098F800009047DBF8001023785F
:103918000A783F4862F30503237011F8052B04F079
:1039280050FE637899F8012023F0070302F007029C
:1039380013436370374B05221A70FFF7C5FD274BF9
:10394800D3F80824D2B2C3F82C25C3F80445324B67
:10395800324A1A60B7B1214BD3F80804DAF8283094
:103968003544072BA9780DD8C0B2FFF75BFD48B1E5
:10397800254A136843F004031360294B4FF480125F
:10398800C3F80021BDE8F88F4FF0000858E7424619
:10399800A7E783F8038040469047237868F3050338
:1039A8002370BEE7AB194FF0000883F80380174B6C
:1039B80040461B689847F0E7144B58461B689847E1
:1039C80099F80030227884F801B0C3F3010363F357
:1039D80001022270AEE7FFF7DFFCBBE700100040F2
:1039E800680B0020500C0020F3100020C80B0020AA
:1039F8008C000020E488000015110020940B0020A2
:103A0800E80A0020C00B0020E40A0020D40A0020A5
:103A18001711002037110020D80A0020F1320000C9
:103A280000E100E010B500F0CBFBFFF78BFC13487A
:103A380001F0F0FC00F0EEFB114A1248D2F85036C3
:103A480023F00103C2F850360F4B00241C700F4BB3
:103A580021461C70FFF72CFC202204F0C0FD0C4B03
:103A680001201C605C60FEF777F81420FEF774F8FC
:103A7800BDE810400A20FEF76FB800BFBC00002068
:103A880000100040500C0020371100203811002091
:103A9800EB100020F0B5044685B0002800F0DB806C
:103AA8006E4D2B780BB1FFF7BDFF6D4B62681A6046
:103AB8006C4A234604F110071646186859681446DC
:103AC80003C40833BB422246F7D118682060664B0E
:103AD80066480024202221461C6004F080FD644BC7
:103AE80064491C605C60FFF7C5FB337883B1012B28
:103AF80001D1614B0B60727A604B012A00F09E8005
:103B0800022A07D07AB9C3F83C25C3F8342508E05F
:103B18005B4BEFE74FF6FF70C3F83C05C3F834255D
:103B2800584AC3F838250B68707C9847534B564958
:103B380056484FF0E732C3F81C254FF04332C3F81C
:103B48002025534AC3F82425524AC3F82825FFF7ED
:103B5800AFFB0A4600230133082B40F8042B02F17F
:103B68002502F8D14C4A4D4800230133082B40F870
:103B7800042B02F12502F8D10022494B14460132E8
:103B8800082A19601C719C6001F1250103F10C03DE
:103B9800F5D120220021434804F021FD424B434A3D
:103BA8004348019301A9CDE9024401F0AFFB414B21
:103BB80098424BD100F0C0FA0446002848D100F0E2
:103BC800FBFA3D4B2D495860D1F85026F37C22F082
:103BD80001021343C1F85036012108462246FDF779
:103BE800DDFF224602211420FDF7D8FF22460221DC
:103BF8000A20FDF7D3FF0120FDF7A0FF1420FDF7F1
:103C08009DFF0A20FDF79AFF2C4B1C7001232B7097
:103C18004FF08053D3F83021062A19D1D3F8343124
:103C2800033B042B02D8264AD35C8BB1134AD2F843
:103C38003C3743F48063C2F83C3709E0FF20C3F8FF
:103C48003C05C3F8342540F207126AE76FF00D040B
:103C5800204605B0F0BD6FF01504F9E738110020D3
:103C6800C40B0020C80B0020E40A0020500C0020E0
:103C7800EB100020D40A0020B535000000100040E9
:103C88007935000021100100C30F0020940B00209B
:103C9800E743C323A363E3139B0E0020680B0020B4
:103CA800080B0020E80A002040420F00D53200002F
:103CB800BC0000200000AD0B8C0000203711002054
:103CC800C38E000038B5254B1B78002B3CD000284C
:103CD8003DD0234CA36A002B3CD0EFF31185402341
:103CE80083F31288BFF36F8F636A54F823301A780E
:103CF8000270636A54F823305B784370636A54F83F
:103D0800233093F902308370636A54F823301B79A7
:103D18000371636A54F82330DB78C370636A54F81C
:103D280023100530053104F04CFC636A0133082B7D
:103D380028BF00236362A36A013BA36285F311884D
:103D4800BFF36F8F002038BD6FF00C00FBE76FF0FA
:103D58001500F8E76FF03C00F5E700BF38110020C8
:103D6800680B002038B5334B1A7802F0FF05002A9B
:103D78005DD1314C31494FF0FF32C4F80823C4F803
:103D88001051D4F810212E4A116040F21712C4F8CD
:103D980000221022C4F8042304221A70294B9A7CAA
:103DA800C4F83025DA7C40F6C41102F516628A425E
:103DB8000AD92549254840F2F26204F0BFF82248A2
:103DC80040F2F26104F0B1F8A2F51662C4F80825D1
:103DD8001433BFF35B8F53E8001F21F0010143E860
:103DE8000012002AF7D1BFF35B8F194BC4F80435D2
:103DF800184B0222C3F880210120FDF79FFEC4F86A
:103E08000451D4F80431C4F80851D4F80831C4F87E
:103E180010512A4601202946D4F8103100F0C2F882
:103E2800FFF7A4FA0C4B01229A61284638BD6FF0BF
:103E38000F00FBE73711002000100040F1370000A9
:103E4800D80A0020A4000020068A00005F8900002C
:103E5800F310002000E100E00040014010B50A4BDB
:103E68001B7803F0FF0443B950B1084B02681A608D
:103E78000120FFF737FC204610BD6FF00F00FBE76D
:103E88006FF01500F8E700BF37110020A4000020EC
:103E980010B50A4B1B7803F0FF0443B950B1084B27
:103EA80002685A600220FFF71DFC204610BD6FF023
:103EB8000F00FBE76FF01500F8E700BF371100208F
:103EC800A400002038B5104B1B780C4603F0FF0502
:103ED8009BB9A8B1082913D80A4601460B4804F033
:103EE80070FB0B4AFF231474C4F108042341042017
:103EF8009374FFF7F7FB284638BD6FF00F00FBE718
:103F08006FF01500F8E700BF37110020AC00002063
:103F1800A40000206428034607D8074A127802F054
:103F2800FF002AB9054AD37470476FF0150070472F
:103F38006FF00F00704700BF37110020A400002069
:103F4800094B0A491A78D30003F1804303F5F83383
:103F5800C3F810150649C3F8141501239340054A00
:103F6800C2F80435704700BF3B11002018410140DA
:103F780000A0004000F00140084B09491B780122CD
:103F88009A40DB0003F1804303F5F833C1F80825B4
:103F98000022C3F81025C3F8142570473B110020F0
:103FA80000F00140F0B52B4B2B4C1B782B4FDA005F
:103FB80014442B4A0025C2F81851D2F81821294A6E
:103FC80015788000EA00C0B202F1804202F5F832AA
:103FD80000F1804000F58050C2F81075C2F8140551
:103FE800214A05F5117042F82040204A20481678E9
:103FF800F20002F1804202F5F8320124C2F81005FD
:1040080000F5973000F58470C2F8140504FA06F636
:1040180004FA05F0304369B1164A174E1178CA0000
:1040280002F1804202F5F8328C40C2F81075204344
:10403800C2F814659B0003F1804303F5F8330122AD
:10404800D3F80018AA400A43C3F80028064BC3F85F
:104058000405F0BD3911002004F001401841014069
:10406800004001403C11002000F001403A110020BE
:10407800101100403B11002000A00040F0B5294B72
:10408800294E1878294B1A78012404FA02F304FA05
:1040980000F51D4300F51177C3004FEAC20C19BBA8
:1040A80003F1804303F5F833C6F80855C3F8101533
:1040B800C3F8141546F827100CF1804303F5F833BC
:1040C800C3F81015C3F81415194B1B789B0003F19E
:1040D800804303F5F8330121D3F80028814022EA10
:1040E8000102C3F80028F0BD124A127803F1804398
:1040F80003F5F833944000212C43C6F80845C3F86B
:104108001015C3F814150CF1804303F5F83346F87D
:104118002710C3F81015C3F81415D30003F1804312
:10412800CCE700BF3C11002000F001403A1100200C
:10413800391100203B11002038B5174801F076F8F6
:10414800164B9842054622D1154801F06FF8A8424F
:1041580004461CD1134801F069F8A042054616D15F
:10416800114801F063F8A842044610D10F4801F045
:104178005DF8A04205460AD10D4801F057F8A8425B
:10418800044604D10B4801F06BF8A04202D06FF04E
:10419800120038BD0020FCE73C1100200000AD0BE8
:1041A8003A1100203B1100203F1100203E11002051
:1041B8003D110020391100200048704710110040BF
:1041C8000E4B0F491B780978012202FA01F102FA15
:1041D80003F30B430B49097802FA01F10B430A492F
:1041E800097802FA01F10B43084909788A40134318
:1041F800074A43F00103C2F8083570473C11002014
:104208003E1100203A1100203B1100203F110020F0
:1042180000F0014038B51E4B187801F00DF81D4B21
:10422800984205460AD01C491C484FF49C7203F07A
:1042380085FE19484FF49C7103F077FE184B1878E7
:1042480000F0FAFFA8420446EDD1164B187800F0AA
:10425800F3FFA0420546E6D1134B187800F0ECFFB7
:10426800A8420446DFD1114B187800F0E5FFA042C0
:104278000546D8D10E4B187800F0DEFFA842044658
:10428800D1D10C4B187800F0F1FFA042CBD138BD4A
:104298003C1100200000AD0BCD8E00005F890000AE
:1042A8003A1100203B1100203F1100203E11002050
:1042B8003D110020391100204FF0704393F8E02F92
:1042C800062A09D1D3F8E83FC3F30313033B042BB1
:1042D80002D8024AD05C704700207047018F000066
:1042E8004FF08052D2E94C30062B05D10338042810
:1042F80008D8064B185C70470F2B05D1003818BF3B
:10430800012070470120704700207047F28E00009E
:10431800024AD2F80034002BFBD0704700E001407D
:1043280010B54FF08053D3F830315C1C04BF4FF008
:10433800704393F8E03F062B08D14FF08053A44A0E
:10434800D3F82433C3F30423C2F84035FFF7B4FF8E
:1043580010B1A04BA04A5A6703F055FF48B14FF07F
:1043680080534FF08042D3F84432C3F34233C2F84B
:104378003C35FFF7A1FF30B1984AD2F8FC3023F062
:104388008073C2F8FC3003F03EFF40B14FF0804329
:104398000022C3F80C21C3F81021C3F83825FFF711
:1043A8008BFF20B14FF080430322C3F8A025FFF70D
:1043B80083FF60B18A4B0522C3F810260122C3F897
:1043C80088260022C3F818263F22C3F814264FF087
:1043D8008053D3F83021501C09BF4FF07043D3F8F5
:1043E800343193F8E02FD3F8E83F08BFC3F3031341
:1043F800062A4ED1033B042B03D87A4AD35C002B00
:1044080049D04FF08052784BD2F80414C3F82015E5
:10441800D2F80814C3F82415D2F80C14C3F82815D8
:10442800D2F81014C3F82C15D2F81414C3F83015A8
:10443800D2F81814C3F83415D2F81C14C3F8401570
:10444800D2F82014C3F84415D2F82414C3F8481538
:10445800D2F82814C3F84C15D2F82C14C3F8501508
:10446800D2F83014C3F85415D2F83414C3F86015D0
:10447800D2F83814C3F86415D2F83C14C3F8681598
:10448800D2F84014C3F86C15D2F84424C3F8702548
:1044980001E00F2AB5D04FF08053D3F83031591CC2
:1044A80004BF4FF0704393F8E03F062B09D14FF05B
:1044B80080534FF08042D3F8583203F04F03C2F8CC
:1044C800E43E03F0A0FE48B14FF08043D3F8002447
:1044D800D20744BF6FF00102C3F800244FF08052A6
:1044E800D2E94C23062A0CD1033B042B02D83F4ABD
:1044F800D35CA3B13E4AD2F83C3743F48063C2F898
:104508003C374FF08053D3F830310F2B01BF4FF0B9
:104518008042D2F8E43E43F00F03C2F8E43EFFF7CE
:10452800DFFE38B34FF010214FF08043D1F8082256
:10453800C3F85825FFF7D4FEE0B1D1F800310133B4
:1045480003D0D1F80431013314D12A4801234FF0A4
:104558001024C0F804350021FFF7DAFEC4F8001172
:10456800FFF7D6FEC4F80411FFF7D2FEC0F8041511
:10457800FFF7CEFE4FF01023D3F80022002A03DB0A
:10458800D3F80432002B22DA1A4901234FF0102005
:10459800C1F804351524FFF7BBFEC0F80042FFF749
:1045A800B7FEC0F80442FFF7B3FE0023C1F8043594
:1045B800FFF7AEFEBFF34F8F08490F4BCA6802F4EE
:1045C800E0621343CB60BFF34F8F00BFFDE710BD20
:1045D8000030014000C007400DF0ADBA00ED00E02A
:1045E80000500040FC8E000000C00040F78E000024
:1045F8000010004000E001400400FA0530B50468EE
:10460800CCB1BFF35B8FB4FA84F3C3F11F03DBB201
:1046180001229A4024EA020250E8005FA54204D130
:1046280040E8002CBCF1000FF6D1BFF35B8FE6D158
:1046380002480B7030BD0248FCE700BF0000AD0B1C
:104648000200AD0B10B50368CB40DB0714D401237F
:104658008B400268BFF35B8F43EA020150E8004FCA
:10466800944204D140E8001CBCF1000FF6D1BFF31E
:104678005B8FEED1014810BD0148FCE70000AD0B8F
:104688000400AD0B034BD3F8003523FA00F000F01B
:104698000100704700F00140014BC3F80405704762
:1046A80000F00140014BC3F80805704700F00140D5
:1046B800024B00F5117043F82010704700F00140DC
:1046C800034B00F51170002243F82020704700BF0B
:1046D80000F00140F7B54FF08043044650B101287F
:1046E80026D031493148DC2203F028FC2E48DC2151
:1046F80003F01BFC0222C3F808230122DA60C3F886
:104708000401D3F80431064601238DF8073042F23C
:1047180010754FF08047E4B1012C2FD0244923486D
:104728004FF4747203F00AFC21484FF47471DFE708
:104738000022C3F808035860C3F80021D3F80031F9
:104748000DF10706E0E783B1012003F070FD013D9C
:104758000BD0D7F8183403F48033002EF3D0D7F8F1
:10476800182402F003023260A3B903B0F0BD002B95
:10477800FBD0012003F05BFD013DF6D0D7F80C34E7
:1047880003F48033002EF2D0D7F80C2402F0010293
:104798003270E9E79DF807000128E6D103F047FDEC
:1047A800013DB8D1E1E700BF068F00005F89000036
:1047B800438F0000054B1A792AB95A7101221860F3
:1047C8001A71034870470348704700BFDC0B00208C
:1047D8000000AD0B0C00AD0B08B50E4B1A7952B9A1
:1047E8000D490E484FF4987203F0A8FB0A484FF49D
:1047F800987103F09AFB1B682BB10020FDF7C0F9F4
:1048080008B9FDF79BF94FF080430022C3F818253B
:1048180008BD00BFDC0B0020068F00005F89000088
:1048280038B5314C237953B93049314840F27F12B9
:1048380003F084FB40F27F112C4803F076FB50B163
:10484800012846D029492A4840F2C31203F076FBD2
:1048580040F2C311F0E74FF08043D3F81814D3F8AF
:104868001824CD031DD5900702D00020FFF732FF92
:104878004FF080430022C3F81825022008224FF485
:10488800827303F180430021196002F180421D68A0
:1048980001251560226802B34FF08043C3F8040372
:1048A8000CE0D3F81424D107E2D5D3F81C249207DE
:1048B800DBD122681AB10222C3F8042338BDD3F829
:1048C8000421002AFBD00022C3F80421D3F80431C4
:1048D800F4E700224FF48073D3E71A68002AFCD06B
:1048E80019601B68EAE700BFDC0B0020068F000098
:1048F8005F89000008B5094B1B7953B90849094875
:1049080040F2DD1203F01AFB054840F2DD1103F016
:104918000CFBBDE80840FFF7DDBE00BFDC0B002044
:10492800068F00005F8900004FF08043D3F80C1415
:10493800D3F80C24C80322D5D10720D5D3F81824DE
:10494800D2031CD5104A517901F0FF00C9B9C3F848
:104958000C01D3F80C11012151711961126822B1AF
:104968000822C3F8042309487047D3F80C21002A09
:10497800FBD00022C3F80C21D3F80C31F3E704482C
:1049880070470448704700BFDC0B00200000AD0BE7
:104998000500AD0B0B00AD0B10B54FF08043D3F8FD
:1049A800002152B10020C3F80001D3F800210122F0
:1049B800C3F80823164B1B6898474FF08043D3F879
:1049C80004215AB10022C3F80421D3F80421022299
:1049D800C3F808230E4B01201B6898474FF080430B
:1049E800D3F80C2192B1D3F8042312070ED5002274
:1049F800C3F80C21D3F80C110821C3F80813044B91
:104A08005A71BDE810401B680420184710BD00BF4C
:104A1800DC0B002008B502680146104603F020FCB4
:104A280050B90E490E484FF46C7203F087FA4FF4F0
:104A38006C710A4803F079FA02F01F0352090B60FF
:104A480008D00649064840F2B93203F077FA40F236
:104A5800B931EEE74FF0A04008BD00BF2C89000037
:104A68005F890000072808B50AD90749074840F2B6
:104A7800AA3203F063FA044840F2AA3103F055FA67
:104A8800800000F5807008BD778F00005F89000006
:104A980070B500F108030C4C34F81330DA050546FC
:104AA8000E4607D5C3F3432304EBC30254F833304F
:104AB80052689847A3682BB1E26831462846BDE89A
:104AC8007040184770BD00BFC4000020C0B2034B3F
:104AD800083033F81000C0F340007047C4000020CD
:104AE800C0B2034B083033F81000C0F340107047D1
:104AF800C400002010B5C0B2174A083032F8103090
:104B0800D9051DD5C3F3432123F4F85322F81030F7
:104B180002F10E04002034F8023F13F4807F03D022
:104B2800C3F3432399420BD001302028F3D100234B
:104B38000A4842F83130FFF785FD094B984200D109
:104B480010BD084908484FF4DC7203F0F7F905482E
:104B58004FF4DC7103F0E9F9C40000201C010020C7
:104B68000000AD0BAC8F00005F8900002DE9F84311
:104B7800002407460E4625464FF00108A146B542D7
:104B88000DD1124BD3F87C2132B10022C3F87C211D
:104B9800D3F87C3144F000442046BDE8F883E8B2FD
:104BA800FFF760FFA0F58072920808FA02F2174238
:104BB80009D000F1804303F5C043196819B1C3F85F
:104BC80000901B6814430135D9E700BF006000401E
:104BD80010B5044608460A46FFF782FFC0B10846EA
:104BE800FFF774FFA0B9CAB20C4B2168083233F83A
:104BF80012200123520B9340C1F80833236803EBBA
:104C08008203D3F8102522F00302C3F8102510BD43
:104C1800BDE810400021104603F079BBC400002015
:104C2800F7B5CDB2184E0835074636F81530DB070C
:104C38000C4626D5FFF7CCFF2046FFF751FF40B1C1
:104C480036F815303A685B0B03F5A273002142F879
:104C580023102046FFF74EFF002301A826F8153041
:104C68000194FFF7D7FE019B00EB8300074BD0F8B8
:104C78000027134043F00203C0F80037044803B08C
:104C8800F0BD0448FBE700BFC4000020F0F8FCFFBB
:104C98000000AD0B0400AD0BF0B50C46116885B0F3
:104CA80007461546E1B1204603F04EFB08BB0B460C
:104CB800CDE900008DF80E008DF80F000DF10F0200
:104CC8000DF10E01204603F0D5FAE3B24549083349
:104CD80031F8132022F0020242F0010221F81320D9
:104CE8006B685BB320461A785968FFF7EFFE10B17E
:104CF800C9B13D4825E0E6B2DFF8E8C008363CF81F
:104D0800163023F02003DB04DB0C2CF8163051B1ED
:104D1800032AEED869684968087839689AB900F5AD
:104D2800A27041F82020E3B22E48083330F813105F
:104D380021F01C0141EA820220F81320AB683BBB3A
:104D48002A4805B0F0BD01EB800143EA4033D1F8B1
:104D580010E52EF0030EC1F810E53F6807EB800759
:104D680043F02003D7F810152CF8163021F44731FA
:104D780021F44071C7F810152102D7F810E501F4A5
:104D8800F85141EA024141EA0E01C7F81015CAE795
:104D9800D3E900672046FFF7ADFE002ED0D0114DB5
:104DA800D5E90023964203D19F4201D1002209E0B0
:104DB8000F480DF10F01FFF721FC0C4B9842C0D1B1
:104DC8009DF80F2045F83260E4B205EBC2030834C1
:104DD8005F6035F8143043EA422343F4807325F8C2
:104DE8001430ADE7C40000200400AD0B0000AD0B8B
:104DF8001C0100202DE9FF4107460C461E4632B330
:104E08000846FFF763FE18B90846FFF769FE20BB9E
:104E1800E5B2DFF8CC80083538F8153013F01C0FF0
:104E280002D05378012B18D001238DF80F300023BE
:104E3800CDE900230DF10F01931C2046013203F048
:104E480019FA38F8153043F0030328F81530002E06
:104E580043D02046FFF73AFE18B9224804B0BDE80F
:104E6800F08196F800E03B681D4D0EF5A272002116
:104E780043F82210E1B2083135F8112022F020025F
:104E8800D204D20C25F8112096F801C0BCF1000F0D
:104E980023D03868B67800EB8E004FEA0C4CD0F877
:104EA800103523F4981323F4F853C0F8103523026F
:104EB80003F4F8530CF4403C3605D0F8107543EA77
:104EC8000C0306F4801642EA4E32334342F02002C5
:104ED8003B4325F81120C0F810350348BEE700BF52
:104EE800C40000200400AD0B0000AD0B014BC3E96A
:104EF80002127047C400002008B552B90C490D4889
:104F080040F20D3203F01AF8094840F20D3103F06F
:104F18000CF80846FFF7E4FD40B1C9B2064B074854
:104F2800083133F811305B0B137008BD0448FCE7F7
:104F3800AC8F00005F890000C40000200000AD0BAA
:104F48000400AD0B2DE9F041184D95F86040064678
:104F58004CBB4022214605F1100003F040FB3668A7
:104F68002F6DA046A7420FD10023C6F87C3146F327
:104F78000730D6F87C31FCF7E1FD01230C4885F8B1
:104F88006030AB65BDE8F081E0B2FFF76BFDA0F5DE
:104F980080739B081F2B08BF46F8008004F10104AA
:104FA80008BF3358DEE70348ECE700BFC400002021
:104FB8000000AD0B0C00AD0B034B93F860000038FC
:104FC80018BF0120704700BFC40000200148FFF748
:104FD80039BB00BF180100200148FFF70FBB00BF15
:104FE800180100202DE9F341CBB216460833334AA5
:104FF80032F8132012F01C0F0C460546C2F382014A
:105008000AD12F492F4840F2FA3202F097FF40F2B6
:10501800FA312B4802F089FF0368D3F8040300280B
:10502800A4BF4FF00040C3F804032046FFF758FD23
:1050380000B32046FFF74AFD0746D8B9540B20466F
:10504800FFF710FDD5F8008048F8007058F80030D8
:105058002B6803EB8403D3F8102542F00102C3F850
:10506800102526B12A680123A340C2F8043302B0F0
:10507800BDE8F08146B91249124840F20E4202F0EA
:105088005DFF40F20E41C4E7042912D0052912D071
:1050980001A80194FFF7BEFC019AD0F81035D3405F
:1050A80003F00103991C204602B0BDE8F04103F06B
:1050B8002EB90321F7E70221F5E700BFC40000205D
:1050C800AC8F00005F8900002DE9F74F554B564F14
:1050D800D3F80403396DC0B240F00040FFF746FD35
:1050E800051E18DA0023F96D0093684603F01EF9CF
:1050F8004FF0010897F85C30DB075BD4396D4FF04F
:105108000040FFF733FDF96D684603F00FF90028FA
:10511800F0D125F000450124002D6AD103B0BDE887
:10512800F08F94FAA4F4B4FA84F4E10804F10803C3
:1051380004F0070237F813901DF80130019408FABB
:1051480002F223EA020301A80DF80130FFF762FC1E
:10515800019B03F5E0734FEA990B50F82360C9F3FC
:10516800820A1BF0040FD146C6F3014626D05146E9
:105178002046FFF78DFC01A80194FFF74BFC019B2B
:1051880003F5E073F6B250F82330C3F301439E42AF
:1051980007D10021204603F0BAF83146204603F033
:1051A800B6F801A80194FFF735FC019B08FA03F350
:1051B800C0F82035009C002CB3D19FE7022E0CD1FB
:1051C8000321204603F0A3F80AF00503012BE8D1D8
:1051D80049462046FFF75CFCE3E70221204603F03E
:1051E80096F8BAF1030FF3D0032EDAD1BAF1020F11
:1051F800EDE795FAA5F3B3FA83F304FA03F29B00FB
:1052080003F1804303F5C04325EA0205D3F81005EE
:10521800D3F81015C0F30420C1F30141FFF738FC9F
:105228007AE700BF00600040C40000200146014842
:10523800FFF7E4B92C010020012383409AB201460C
:105248002AB1044A0448C2F80835FFF7FBB90348F5
:10525800704700BF00F001402C0100200400AD0B96
:1052680001460148FFF7CAB928010020C30003F12D
:10527800804303F5F833012201465A600148FFF7DD
:10528800E1B900BF2801002070B51D4A0C68B2FBC7
:10529800F4F304FB13258DBB94422FD85C1E1C40ED
:1052A8002CD1B3F5007F29D802684D79D2F804656E
:1052B800097926F0030601F003013143C2F8041509
:1052C800D2F8081593FAA3F321F0030105F00305BA
:1052D800B3FA83F32943C2F80815C2F810350068F9
:1052E800402300F58072D450D1580433582BFAD19A
:1052F80040F30730FCF722FC024870BD0248FCE787
:105308000024F4000000AD0B0400AD0BF8B541B962
:105318001A491B487C2202F011FE7C21174802F032
:1053280004FE0579174C0C236B43E618377A1FBB2C
:10533800E2508B6873600368134A934207D002F502
:105348008052934203D002F58052934202D14B79A6
:10535800032B06D909490A48942202F0EFFD94214B
:10536800DCE7FFF791FF0C2303FB0544074BC21A48
:10537800534253412372F8BD0548FCE7EA8F000009
:105388005F890000E40B0020008000400000AD0BA6
:105398000C00AD0B10B50C4B02790C2101FB02324D
:1053A800127A012A08D009490948D22202F0C6FD1A
:1053B8000648D22102F0B9FD04682260027901FB97
:1053C800023302221A7210BDE40B0020EA8F00009B
:1053D8005F89000010B50C4B02790C2101FB0232E9
:1053E800127A42B909490A48DB2202F0A7FD0748A8
:1053F800DB2102F09AFD046801222261007901FB99
:1054080000331A7210BD00BFE40B0020EA8F0000C1
:105418005F890000F8B5144D03790C2707FB035387
:1054280004461B7A43B911491148BC2202F086FD93
:105438000E48BC2102F079FD006840F30730FCF704
:105448008BFB23680026D3F80022C3F80062236888
:105458004FF0FF32C3F808232046FFF7BBFF23793C
:1054680007FB03552E72F8BDE40B0020EA8F0000FD
:105478005F89000070B5144C05790C2606FB0544BD
:10548800247A54B9114912484FF4957202F056FD26
:105498000E484FF4957102F048FD4FF480340568CA
:1054A8008C4073B18B0003F5A0730026EE50EB58C7
:1054B8000368C3F80443036801F5A87143F8212081
:1054C80070BDC5F80843F6E7E40B0020EA8F00003A
:1054D8005F8900002DE9F041154E07794FF00C0E59
:1054E8000EFB07661C46367A9DF8183056B91149E6
:1054F800114840F2451202F021FD0E4840F24511D4
:1055080002F013FDD0F800E040F20117DEF8006267
:105518008F4026EA0706CEF800620568D5F80062D3
:105528003443C5F80042BDE8F041FFF7A3BF00BF10
:10553800E40B0020EA8F00005F890000014902485F
:1055480002F011BFE40B002000800040014902482E
:1055580002F009BFF00B002000A0004008B5084A7F
:10556800084B93420AD908490848182202F0E6FC79
:105578000548182102F0D9FC1433F2E7FCD308BD22
:105588006087000010870000279000005F890000F6
:1055980070B50446EFF31186402383F31288BFF3F6
:1055A8006F8F0C4B9D6802F016FE042C08D10A4937
:1055B8000A48872202F0C2FC0748872102F0B5FC9E
:1055C80086F31188BFF36F8F2846BDE87040FCF75B
:1055D80039BA00BFFC0B00204A9000005F89000028
:1055E80038B5094B53F82040013053F82050A542F4
:1055F80000D838BD636823B1204602F018FF08348C
:10560800F5E723689847FAE71489000070B5354B29
:10561800354C364D012286B003201A70FFF7E0FFA3
:10562800FBF79EFF02F01FFF0420FFF7D9FFAC42F3
:10563800264624D92E492F48452202F07FFC4521D1
:105648002B4802F072FC54F80C3C059354F8103CBB
:10565800049354F8143C039354F8183C029354F8F8
:105668001C3C019354F8203C009354E90A2354E964
:105678000C0100F08FFD54F8303C5E65D7E7AE4270
:1056880004F13004DFD301F0BBFA174C1A4EAC42D8
:105698001BD917491748692202F050FC6921CFE746
:1056A800D4E90A23B3F1FF3F08BFB2F1FF3F05D0A9
:1056B80052EA0301206803D102F02BFF3034E6E7F9
:1056C8003146183001F088FEF8E7E9D301F0E6FA30
:1056D800FAF7EAFE094A137B23F00103137306B0B5
:1056E80070BD00BF40110020608700006087000087
:1056F8006C9000005F8900007F850000C0070020D3
:1057080008B50348034A0021121A02F0A8FE08BD92
:10571800480200204411002070B5002386B0012201
:10572800CDE90423134E144D01930F22CDE9023223
:105738001249142303FB005506EBC01604464FF428
:10574800A07000FB04110E4B00954FF48072304698
:1057580000F020FD737B0B4AEE6023F004037373A3
:105768004FF4046304FB033313442C746B6006B0DA
:1057780070BD00BF40070020FC0B0020C0190020AE
:105788006958000080110020BFB50020FFF728FFEE
:105798002B4B83F308882B4D2B4E6B692B4F43F40F
:1057A80000736B61E02385F8223000242023EB7717
:1057B8002C766C76AC766B6A43F4E0236B6285F8E2
:1057C8002340FCF7A9F8FCF77DFA4FF0FF33AB62F2
:1057D800EB62FCF75FFBFCF799FA1D4BB36040F2F4
:1057E80001129A81C3E91844DC66FFF7B7FE01206D
:1057F800FFF7F6FE0220174DFFF7F2FE01F0AAFAB6
:10580800154B75610593012314490094CDE90343B1
:105818004FF480623B46CDE90144284600F0BAFCCB
:105828006A7B064622F0040228466A7300F00CFFE1
:105838002046FFF771FF3A4631462846FCF720FA22
:10584800C019002000ED00E0FC0B002015560000F8
:1058580040080020C00700208D900000001B002099
:1058680008B50C4B9B6893F90E30002B09DB4024DC
:10587800EFF3118384F31288BFF36F8F02F0FCFB00
:10588800F6E7054905481B2202F058FB02481B2190
:1058980002F04BFBFC0B0020929000005F89000097
:1058A8002DE9F341044617461E46EFF3058545B139
:1058B800514952486F2202F041FB4F486F2102F0D4
:1058C80034FBEFF31188402383F31288BFF36F8F03
:1058D8004B4801F0F5FC38B94A494848882202F09B
:1058E8002DFB88214748EAE7454801F00DFDE368AC
:1058F800454A9BB1A0689168884224D057EA0603BC
:1059080029D13F4801F0EAFCA0B188F31188BFF320
:105918006F8F6FF00F0002B0BDE8F081916891F9C8
:105928000E10374821610133E3609368A36001F0EA
:10593800D5FC50B93349314840F2311202F0FEFA31
:1059480040F23111CEE72169EBE788F31188BFF304
:105958006F8F0020DFE791F90E1090F90E30994211
:10596800A8BF19466FF07E029142B8BF11468B421C
:1059780002DD02F079FD0546CDE900762048224691
:10598800414600F04FFF0028E3D0EFF31186402393
:1059980083F31288BFF36F8F194801F091FC002838
:1059A8009AD0174801F0B0FCA068C0B123682169FB
:1059B8009C420AD04BB193F90E309942A8BF1946C0
:1059C8006FF07E039942B8BF194602F04DFD30B121
:1059D8000B48314601F088F86FF00A009BE7002D6C
:1059E800F6D1074801F07AFC0028A3D086F3118885
:1059F800BFF36F8FF0E700BFB39000005F8900002E
:105A08001C0C0020EF8A0000FC0B002070B5044637
:105A1800EFF3058646B131493148D72202F08EFAB4
:105A2800D7212E4802F081FA8368002B4FD02D4AE7
:105A3800926893424ED1C36833B928492848EF2267
:105A480002F07CFAEF21ECE7012B03D0013BC360A5
:105A5800002070BDEFF31185402383F31288BFF354
:105A68006F8F214801F02CFC38B920491C48882246
:105A780002F064FA88211D48D4E71B4801F044FC71
:105A88002169A06802F0F0FC204600F071FFA060D8
:105A980050B190F90E202261866700F0D5FD1248BA
:105AA800294601F021F8D3E7E0600F4801F016FC21
:105AB80040B90E490A4840F2311202F03FFA40F26A
:105AC8003111D8E785F31188BFF36F8FC0E76FF006
