:1000000040240020691A0000CD7F0000551A00002E
:10001000551A0000551A0000551A00000000000093
:10002000000000000000000000000000D51B0000E0
:10003000551A000000000000711B0000551A000056
:100040009D1D0000493700009D1D00009D1D000002
:100050009D1D00009D1D00009D1D00009D1D0000B8
:100060009D1D00009D1D0000315400009D1D0000DD
:100070009D1D00009D1D00009D1D00009D1D000098
:100080009D1D00009D1D00009D1D00009D1D000088
:10009000AD3700009D1D00009D1D00009D1D00004E
:1000A0009D1D00009D1D00009D1D00009D1D000068
:1000B0009D1D00009D1D00009D1D00009D1D000058
:1000C0009D1D00009D1D00009D1D00009D1D000048
:1000D0009D1D00009D1D00009D1D00009D1D000038
:1000E000014B1B689B681847C0040020014B1B682C
:1000F0001B691847C0040020014B1B685B69184747
:10010000C0040020014B1B689B691847C0040020F5
:10011000014B1B68DB691847C0040020014B1B68BA
:100120001B6A1847C0040020014B1B689B6A1847D4
:10013000C004002010B4034C2468E468A44610BC3A
:10014000604700BFC004002030B50346114890F955
:100150001C209A4219DD90F924209A4217DA9A1A43
:10016000846AA05C0C4A15569D420DD00E320029BF
:1001700018BF01309442C0B206D129B1013BDBB2B5
:10018000012B01D80130C0B230BD0D20FCE70020AA
:10019000FAE700BF78070020DC87000008B5054BB0
:1001A00093F91C30984203DAFFF7CEFF024B1B563F
:1001B000184608BD78070020DC87000010B51C4CED
:1001C00094F82C3073B9012384F82C3000F09EF899
:1001D00048B1184BA362D823236284F82430082343
:1001E000A361237710BD00F0A7F80028F1D100F03B
:1001F000ADF80028EDD100F06BF838B10E4BA362DA
:10020000D823236284F824300423E9E700F06AF855
:100210000028F3D100F070F80028EFD100F080F84A
:100220000028EBD14FF4DF71742000F019F800BF03
:100230007807002017880000EA870000BFF34F8F7F
:100240000549064BCA6802F4E0621343CB60BFF372
:100250004F8F00BFFDE700BF00ED00E00400FA058E
:100260001FB572B6134B5D688DB9FFF7E7FFB2FBA0
:10027000F6F2DCB20133002AF9D104F110036B4429
:1002800003F80C2C0A2234B901A8A847EDE702466E
:1002900000230A26EDE7631E04AEDCB256FA83F3B0
:1002A000B0FBF2F602FB1600303003F80C0C3046BF
:1002B000E9E700BF080C00204FF08052034BD2F852
:1002C00030111960D2F834215A607047440C002074
:1002D000034B1868A0F10F0358425841704700BF04
:1002E000440C0020034B1868A0F10A0358425841FF
:1002F000704700BF440C0020034B1868A0F10E03A8
:1003000058425841704700BF440C0020034B186806
:10031000A0F1100358425841704700BF440C002020
:10032000044B1868062803D0431C584258417047B4
:1003300001207047440C0020034B1868A0F10D0306
:1003400058425841704700BF440C0020034B1868C6
:10035000A0F1080358425841704700BF440C0020E8
:1003600008B5FFF7A9FFBDE80840FFF727BF801ACF
:1003700000F3070038B540B20D4659B21446FFF7F6
:100380000DFF0023287020446B7040B238BD00235D
:10039000036070477047002070474FF0FF30704790
:1003A0004FF0FF30704770474FF0FF30704700202C
:1003B0007047002070470023037070470022FFF74A
:1003C000D6BF002070474FF0FF3070474FF0FF302E
:1003D00070474FF0FF307047704700280CBF6FF038
:1003E000150000207047002070470723037000208D
:1003F00070470020704700207047000008B5037860
:10040000022B06D1034803F067FC10B9024B01220E
:100410001A7008BDD9110020D811002008B5026853
:10042000530917D14FF08053D3F8301110291CD144
:10043000D3F83431032B18D80E49C85C0E4B0F4942
:10044000002818BF0B4643F0407343F46053D34079
:10045000DB070CD40A490B484FF46C7207F038FDE7
:1004600007484FF46C7107F02AFD034BEBE74FF0A0
:10047000A04008BD7C890000FFC117703F8E16F0B8
:10048000288900005B89000013B50446019001A88B
:10049000FFF7C4FF00EB8400044BD0F800271340A3
:1004A00043F00303C0F8003702B010BDF0F8FCFFC2
:1004B00030B5144A144B154D8BB0CDE90123144AC5
:1004C0001068516803AB03C31C460FCD0FC42B68E3
:1004D0002360104A0692012305A88DF815308DF887
:1004E000263003F0F9FA58B901A803F0C1FC38B975
:1004F00002A803F0DBFC18B9082103A803F0F6FCFE
:100500000BB030BD3344BB01DEF01223C0870000C6
:1005100073890000FD0300002DE9F84F4FF0102310
:10052000D3F88440D3F88850601C38D1691C6ED051
:10053000FF26EFB2B046B146FF2F60D14FF0010A5F
:1005400007F069FC0546002840F09680FFF7B0FFF1
:100550000546002840F09080282003F0EDFC03F0D1
:100560000BFC0546002840F08780614C237803F09F
:10057000FF0B002B00F0B580002121705D4C03F0D3
:1005800073FA5D481022002108F023F8A37A042BA7
:1005900000F28480DFE803F042737B859300C4F3AC
:1005A0000726C4F307484FEA146AE4B2FF2CEFB2FF
:1005B00005D02046FFF768FF204607F01FFCFF2EFE
:1005C00005D03046FFF760FF304607F00AFCB8F16F
:1005D000FF0F04D1BAF1FF0F08D1D146ACE7404676
:1005E000FFF752FF404607F009FCF3E75046FFF7DC
:1005F0004BFF50465FFA8AF907F0F3FB9CE7EDB238
:100600002846FFF741FF284607F0EBFB96E7FF2758
:10061000B946B8463E464FF0000A91E7364B0122F4
:100620001A70227A5A7002225A71E2791A7162792A
:100630009A71BAF1000F19D0637ADA0748464AD4A2
:1006400007F0CFFB637A9B07384647D407F0C9FB16
:10065000BBF1000F0AD0FF2E02D0304607F0CEFBD0
:10066000B8F1FF0F02D0404607F0BBFB224800F074
:1006700055FC214800F066FB2846BDE8F88F1E4B6C
:10068000227A5A70E2791A7162795A71D1E71A4B5B
:1006900002221A70227A5A7062795A714FF0000B56
:1006A000C7E7154B03221A70227A5A70E2791A7141
:1006B00062795A71A2799A710A229A60B9E70E4B4F
:1006C00004221A70227A5A7062791A71A2795A71C8
:1006D0000A229A60E2E707F091FBB3E707F08EFB8E
:1006E000B6E7002140F6CD4006F060FB3EE700BFD4
:1006F000D8110020D9110020E80E00200B4B002259
:100700004FF0FF31C3F80022C3F80813C3F81021DB
:10071000D3F8102101221A61D3F81021002AFBD04E
:100720000022C3F81021D3F81031704700100040A8
:1007300010B5FFF7E3FF044B1B6823B11B6813B12F
:10074000BDE81040184710BDF80E002010B51C4B36
:10075000D3F80423D104044616D5D3F830219AB136
:100760000022C3F83021174AD3F83031136801331F
:100770001360826842B1934213480CBF002240F6D6
:10078000CD42002305F04EFD0D4BD3F80423120794
:1007900014D5D3F80C218AB10022C3F80C210B4ADE
:1007A000D3F80C31136801331360A268934205D16A
:1007B000FFF7A4FFE368BDE81040184710BD00BF75
:1007C00000100040000F002008050020040F00204A
:1007D00073B5124B124C187020460D4604F06CFD98
:1007E000104B0026D3F80022C3F800624FF0FF320E
:1007F000C3F808232946204607F0D3FD012302460B
:100800000093204640F20113314604F0D5FD204606
:1008100002B0BDE8704004F02FBD00BF0012002000
:10082000788800000080004010F1280F10B50446C1
:1008300048D000F11E03DAB2262A3ED8262B3CD837
:10084000DFE803F0423B3B3B3B3B3B3B3B3B143B4A
:100850003B3B253B3B3B273B3B3B293B3B3B2B3B34
:100860003B3B3E3B2D2F313335373900EC23184AC3
:10087000C2F80C35174B1B7843BB2146164807F0CE
:1008800011FB21461548BDE8104007F00BBBF023D3
:10089000EDE7F423EBE7F823E9E7FC23E7E702239E
:1008A000E5E70323E3E70423E1E70523DFE7062386
:1008B000DDE70723DBE70823D9E7094807F0F2FA69
:1008C0000023D4E7D823D2E7E223D0E710BD00BF4E
:1008D00000100040FF110020BF890000E4890000E3
:1008E00080890000444B40F20122C3F850260022C8
:1008F000C3F83425C3F83825C3F82C2501229142CA
:1009000084B0C3F8302528D0022920D0002958D13E
:10091000AB22C3F824254FF0AB32C3F81C250023CB
:10092000FF22CDF805308DF808204FF48272ADF823
:100930000A2006284FF00102CDF801308DF80C2076
:1009400010D804283FD851D04FF4837317E0CC223D
:10095000C3F824254FF0CC32DFE76A22C3F8242500
:10096000264ADAE70F28EFD102228DF805207F22F0
:10097000ADF80A308DF80C308DF808208523204A18
:1009800013809DF807309DF804205B0743EA8253EB
:100990009DF8052043EA0263174A43F00803C2F8B2
:1009A00014359DF80A309DF80B101B0443EA0163CF
:1009B0009DF808100B439DF80C1043EA4163C2F800
:1009C000183504B0704740F20232ADF8042003221B
:1009D0008DF80720ADF80A20074A40F20311C2F84B
:1009E0003415C2F838354FF48B73C8E78DF80520FD
:1009F00040F20713C3E700BF001000401B81FE5800
:100A0000B411002038B50D46FFF76CFF0D4C0F28D0
:100A100014BFFF237E23012D237010D0022D08D098
:100A20001DB9FF21601C07F01FFB074BC3F80445ED
:100A300038BDFF22CC21601C07F0CBFDF5E7FF227B
:100A4000F021F8E701130020001000400F2808B53E
:100A50000DD1A1F10B030F2B1AD801EB810101F687
:100A60002E110D4BA1F51661C3F8081508BD01F54F
:100A7000166140F6C4139942F3D90849084840F278
:100A80000C7207F025FA054840F20C7107F017FACE
:100A900040F66511E5E700BF00100040068A00003F
:100AA0005B89000010B5294CBFF35B8F54E8003F11
:100AB00023F4803244E800210029F7D1BFF35B8F93
:100AC000D80304D5224B2349187803F025FDBFF342
:100AD0005B8F54E8003F23F0040244E80021002922
:100AE000F7D1BFF35B8F590705D5194B1A4A1B493C
:100AF000187807F06CFBBFF35B8F54E8003F23F0DE
:100B0000100244E800210029F7D1BFF35B8FDA0619
:100B100005D50F4B124A1149187807F058FBBFF35F
:100B20005B8F54E8003F23F4807244E800210029E1
:100B3000F7D1BFF35B8FDB0507D5054B064A0949A3
:100B40001878BDE8104007F042BB10BDFC0E002035
:100B5000FE110020008000400010004000410140D4
:100B6000041000404081004070B51B4D0446FFF763
:100B700099FF287854B3194A194907F01EFB04233A
:100B80000126184CBFF35B8F06FA03F354E8002FDD
:100B90001A4344E800210029F8D1BFF35B8F1249C2
:100BA000287803F0B1FCBFF35B8F54E8003F43F4B7
:100BB000803344E80032002AF7D1BFF35B8F2878F6
:100BC00006FA00F0BDE8704003F092BC074A044901
:100BD00007F0F3FA0223D3E7FE11002004100040CF
:100BE00000410140FC0E0020008000400010004049
:100BF00070B5114C054616460846FFF77FFDC4F850
:100C00001055D4F8003243F00103C4F80032FFF766
:100C10000BFE2846094D3146FFF718FF2B7843B1EC
:100C20000020FFF7A1FF2B781BB1054B01221A60B2
:100C300070BD01232360FBE700100040FF1100207E
:100C4000004001402DE9F0411B4C17460E461D4661
:100C5000FFF754FDC4F81005D4F8003243F0210327
:100C6000C4F80032154BC4F804353946FFF73AFE94
:100C70003146FFF7EBFE124B124E00221A604FF482
:100C80008053C4F80433337883B10120FFF76CFF3D
:100C900033785BB10C4B01221A6055B1BDE8F041CD
:100CA0000A484FF4A022002305F0BCBA0123636078
:100CB000F3E7BDE8F08100BF001000400112002002
:100CC000000F0020FF110020004001400805002017
:100CD000B0F5A07F10B50C4619D10978032917D1BA
:100CE000154B607894F9041001221A70134B1A788E
:100CF000FFF77EFF6279A0790F4B002119700F4931
:100D00000B780133DBB2834298BF1A460A7010BDDC
:100D100004290CD1084B09496078097801221A701E
:100D200022790023FFF78EFF22796079E4E7BDE89E
:100D30001040034807F0B6B8FF1100200012002051
:100D40003A8A00002DE9F3410378052B40D8DFE80B
:100D500003F0030C4952595C427990F90410407831
:100D600002B0BDE8F041FFF743BF4479457890F900
:100D700004708679D0F80880FFF7C0FC2846214629
:100D8000FFF740FE062D5B4C25D8042D25D9D4F85D
:100D9000003243F4001343F00103C4F80032384634
:100DA000C4F81055FFF740FD31462846FFF74EFEC8
:100DB000514A00231360C4F80C31D4F80C31B8F157
:100DC000000F02D00823C4F804334A4B01221A60F2
:100DD00002B0BDE8F0810F2DD9D0D4F8003243F035
:100DE0002103DAE7836802794179407802B0BDE8EF
:100DF000F041FFF727BF8168407902B0BDE8F041BC
:100E0000FFF7E6BC81680079F7E7447890F8058041
:100E1000856890F904708679FFF770FC204641469A
:100E2000FFF7F0FD334BC3F81045D3F8002242F032
:100E30000302C3F800223846FFF7F6FC314620468D
:100E4000FFF704FE2D4B2E4A1B5D12882D4853439D
:100E5000C5F164045C43B4FBF5F41C4404F02CFAC3
:100E60000020FFF781FE284B2648D3F800220025FA
:100E70004FF0FF32C3F800522146C3F8082307F0B1
:100E80007EFA0095024602231E48012104F094FADE
:100E9000EFF31186402383F31288BFF36F8F1B4B50
:100EA0001B4C01251D60207803F018FB20B1207831
:100EB00005FA00F003F022FBFFF7F4FD0D4A154997
:100EC000207807F07AF9BFF35B8F134B53E8001FCC
:100ED00041F4807143E80012002AF7D1BFF35B8F21
:100EE00023780120984003F003FB86F31188BFF3B9
:100EF0006F8F6DE700100040040F0020978A0000FC
:100F0000B4110020788800000080004000400140BB
:100F1000FE11002044810040FC0E002030B51B4A29
:100F200087B04FF40073CDE90323059003A9184A55
:100F30000446184804F058F9174B9842014602D06D
:100F4000164806F0AFFF002205210820002500F01A
:100F500083FE2346124A00950521012007F041F83F
:100F6000012000F049FE0F4807F03CF90A4B984277
:100F700006D00D4806F096FF6FF00D0007B030BDAB
:100F80000A4B0C341C602846F8E700BF40420F00B3
:100F9000D10C0000788800000000AD0B548A0000DE
:100FA0004D070000FE110020758A0000F80E002099
:100FB000B2F5802F2DE9F0410AD33449344840F28C
:100FC000EB1206F085FF40F2EB11304806F077FF98
:100FD000042A08D82D492E484FF4F97206F078FFFC
:100FE0004FF4F971F1E7043ACD1D8E1825F007058D
:100FF00026F00706761B172E4FEAD60708D8234996
:10100000234840F2FB1206F063FF40F2FB11DCE7DD
:10101000B7FA87F4C4F12002C4F12404A400073411
:10102000E408631C4FF00008BB420560AF60C5F8E0
:101030000C8008D9154916484FF4037206F048FF92
:101040004FF40371C1E74146920005F1100007F02B
:10105000C0FA630043F001036B8005EBC4023B1B45
:101060005900A5F800805180AA1925F83440A2F84B
:101070000280AB5305EBC70321465A8842F00102B8
:101080005A802846BDE8F04106F0E3BEA78A00007A
:101090005B890000014B1B68184700BF3805002022
:1010A00030B585B004460D4610220021684607F091
:1010B00090FA02238DF802302A46044B0193214610
:1010C000684606F031FC05B030BD00BF9510000049
:1010D00080B505460E461746984605F0D9FE0346EC
:1010E00007F0E2FADFF81890044649F8003042466B
:1010F00030463946A84754F8090000F023FD00BFE8
:10110000080000002DE9F84F04460846A38B190794
:10111000164612D4022803F0070162D1204606F0D9
:10112000E4FE88B10138042800F22581DFE810F0E0
:10113000590023017E00C800F50001280CBF43F0D0
:10114000100143F02001A18304F1140006F0A8F877
:10115000002800F0AB8086F31188BFF36F8FBDE8E5
:10116000F88F03F00702501F01281ED80020062A1E
:101170002768C4E9000014D13A4603E0E08B01304F
:10118000E0831268002AF9D123F0070343F002023A
:10119000A283204606F0A9FE90B342F02002A2836B
:1011A0002EE023F007039AB2F2E7042A33D123F0AA
:1011B00007039AB2A283204606F097FE10B142F0D0
:1011C0002002A283A38B03F00709894540F0DC804D
:1011D000A18BCA0640F1218121F01003A38301F005
:1011E0000701D4F81880A38BB8F1000FB9DA0022F8
:1011F000276823F00703C4E9002243F00103A38317
:10120000A38B03F00709894540F0BF80002FDFD092
:101210000025AA4640E08549854840F21B1206F0A9
:1012200057FE40F21B11814806F049FE41B17F494B
:101230007F484FF4AB7206F04BFE4FF4AB71F2E710
:10124000236843B979497A4840F2571206F040FEC4
:1012500040F25711E7E723691D6845B9734974489F
:101260004FF4AD7206F034FE4FF4AD71DBE7A38BA3
:1012700023F0070343F006039BB2A3830F4688467F
:101280004FF00609A268002A40F08180002F40F04C
:101290008180002D9CD0BA4643F0080304F1140B62
:1012A000A383584605F0FCFF002875D161496048CA
:1012B00040F2311206F00CFE40F231115D48B3E706
:1012C000022908D059495A4840F25D1206F000FE42
:1012D00040F25D11A7E7E78B47B1544954484FF4FA
:1012E000AF7206F0F5FD4FF4AF719CE723695D68BE
:1012F00045B94E494E4840F2611206F0E9FD40F210
:10130000611190E7A38B23F0070343F004039BB222
:10131000A383B8464FF00409B4E7012908D0434934
:1013200043484FF4B27206F0D3FD4FF4B2717AE73E
:10133000236843B93D493E4840F2651206F0C8FDB6
:1013400040F265116FE723699D6845B93749384810
:101350004FF4B47206F0BCFD4FF4B47163E7A38B95
:1013600023F0070343F005039BB20027A383B8468D
:101370004FF0050986E72D492D4840F26B1206F023
:10138000A7FD40F26B114EE7002700257AE74FF0EA
:10139000010A81E792467FE786F31188BFF36F8FDA
:1013A000BAF1000F16D147BB15B123492046A84713
:1013B000EFF31186402383F31288BFF36F8F5846F3
:1013C00005F060FF08BB1B491948882206F080FD24
:1013D000882173E7A1680029E5D00E680029E2D0D2
:1013E000D1F804A043464A462046D0471EB1336890
:1013F00031461E46F2E73346FAE7394643464A4647
:1014000020463F6806F09DFDCDE7584605F05EFF9B
:10141000A38B23F00803A383DAE68B067FF594AE53
:1014200021F02003A38301F0070177E6CA8A0000B8
:101430005B890000EF8A00003D140000F8B5044607
:101440000D4600F11406EFF31187402383F3128851
:10145000BFF36F8F304605F015FF40B909490A48C0
:10146000882206F035FD0748882106F028FD304621
:1014700005F02CFFA5613A4620460121BDE8F84061
:10148000FFF740BEEF8A00005B8900002DE9F047BE
:1014900004460F4606F045FD051E5DDB04F1140908
:1014A000EFF3118A402383F31288BFF36F8F48460E
:1014B00005F0E8FE804638B933493448882206F002
:1014C00007FD882130483CE0484605F0FFFEE38BED
:1014D000A68B4FF6FF72934206F007063FD0022E0E
:1014E00010D10133E3833546484605F0D9FE002884
:1014F0003BD12549254840F2311206F0E9FC40F283
:101500003111DFE7062E13D8DFE806F0092C12129E
:10151000090409006FF085054FF00008E4E7002397
:101520003B6063687BB9C4E900777EB13546F3E779
:10153000174916484FF4E47206F0CAFC14484FF4F9
:10154000E47106F0BCFC1F606760EEE752460221C2
:101550002046FFF7D7FD35462846BDE8F0876FF0F7
:101560000A05D9E76FF00405D6E78AF31188BFF3BF
:101570006F8FB8F1000FEFD0002332463946204676
:1015800006F0DFFCE8E700BFEF8A00005B8900009F
:10159000CA8A0000F8B5054600F11406EFF311877A
:1015A000402383F31288BFF36F8F304605F06AFE45
:1015B00038B920492048882206F08AFC88211D4835
:1015C00025E0304605F082FEAC8B04F00704022CC7
:1015D00012D0012C0CBF6FF004046FF0850430466C
:1015E00005F05EFE08BB1349134840F2311206F0C5
:1015F0006FFC40F23111E2E7EB8B53B90F490E4813
:1016000040F2EF1206F064FC0C4840F2EF1106F0D5
:1016100056FC013B9BB2EB83002BE0D13A462146BE
:101620002846FFF76FFD2046F8BD87F31188BFF30A
:101630006F8FF8E7EF8A00005B890000CA8A00001C
:1016400008B54268816002F00302032A034602D013
:101650002AB1002000E0006800225A6008BD044959
:101660000448452206F034FC0148452106F027FCD9
:101670001C8B00005B890000014B03600020704759
:101680008088000008B5044806F00CFCBDE808405E
:10169000024806F007BC00BF428B0000788B0000B8
:1016A000272808B508D905490548142206F010FC7A
:1016B0000248142106F003FC08BD00BFA68B000001
:1016C0005B89000070B506460C46154600F0B6FA78
:1016D00040B109490948172206F0FAFB06481721CC
:1016E00006F0EDFB3046FFF7DBFF054B43F83050CB
:1016F00003EBC0035C6070BDD58B00005B8900000C
:10170000F805002030BFFFF7FDBF00BF2DE9F04115
:101710000B4EDFF8308006EB0807CC1B054632463F
:101720000949204606F047FFA01942460021083C1F
:1017300006F04FFF2C6707F10800BDE8F08100BFFD
:101740000000000004000000B8870000074A93680A
:1017500093F90E10002907DB526993421FBF044A18
:10176000536843F080535360704700BF64110020FA
:1017700000ED00E0F8B5274B15469A6A12F0100FFD
:101780009A6A14BF1124102412F0080F9A6A0646B0
:1017900018BF122490070AD5586B9A6A120628D5EA
:1017A00019B19A6A22F080029A62132401E06FF064
:1017B0001500184B9A6A12F0010F9A6A18BF142488
:1017C000D70602D49B6A99070AD5124F7B681A057F
:1017D00006D5314600F09CFA70B180F309880224E6
:1017E0000C4A936A43F0FF03936200232B70204658
:1017F000F8BD6FF01500D8E7BB6ADB06F0D50649E7
:10180000064840F22D1206F063FB034840F22D110A
:1018100006F055FB00ED00E0028C00005B89000043
:10182000134B9A6A12F0007F9A6A14BF1E201D2083
:1018300012F0807F9A6A18BF1F2012F4002F9A6A54
:1018400018BF212012F4802F9A6A18BF222012F4A8
:10185000003F9A6A18BF232012F4803F9A6A6FEA09
:1018600002426FEA12429A6218BF2420704700BFFA
:1018700000ED00E010B5164B9A6A9C6A12F4805F86
:1018800014BF1722162214F4006F9C6A18BF182286
:10189000A40509D59A6B9A6A120404D518B19A6AFC
:1018A00022F400429A621922094B986A10F4806F60
:1018B000986A18BF1A2210F4807F986A40F47F401B
:1018C00098624FF000030B700CBF10461B2010BD38
:1018D00000ED00E0F0B5564B5B688BB00446C3F3F7
:1018E0000803002585F31188BFF36F8F02F07F4056
:1018F000B0F17F4F08D102F00C00082804D0120785
:101900004CBF0C46012554B94A494B484FF48562F7
:1019100006F0DEFA4FF48561464806F0D0FA002260
:10192000033B8DF80720032B7BD8DFE803F002721E
:10193000765D3F4AD36A13F0020372D1D16A00295F
:101940001ADBD36A5B005BD55369A16943F48073EA
:101950005361BFF34F8FBFF36F8F536931F8021C90
:1019600023F480735361BFF34F8FBFF36F8F4DF636
:10197000027399421FD123689DF80720CAB902AEAD
:1019800004F1200720686168324603C20834BC4273
:101990001646F7D1099A002D45D0C2F3080121B9A6
:1019A0006FEA52226FEA4222099202A9184606F013
:1019B00003FB0BB0F0BD936ADBB23BB10DF1070244
:1019C00001212046FFF7D6FE0346D5E7936A13F4BC
:1019D0007F4F05D00DF107010120FFF74BFFF3E723
:1019E000936AB3F5803F02D3FFF71AFFECE7114982
:1019F000114840F2FA2206F06BFA40F2FA218BE726
:101A00000C490D4840F2FE2206F062FA40F2FE2137
:101A100082E70DF107020021D3E70DF10701002055
:101A2000DBE70023A8E722F4FF7222F00102BBE704
:101A300000ED00E0028C00005B890000044B5A6955
:101A400042F010025A615A6922F008025A61704746
:101A500000ED00E0EFF30880EFF3098101B5724675
:101A6000FFF738FF01BD00BF002080F31488BFF3EB
:101A70006F8F0F4880F3088802F038FC00200D4972
:101A80000860BFF34F8F00F02BF8402080F31188DF
:101A900009484FF40461401880F30988EFF314807B
:101AA0000221084380F31488BFF36F8F00F0FEF823
:101AB0004024002094ED00E0C01600200749D1F832
:101AC00090200023C2F307221846934200DB7047A0
:101AD000C1F89830C1F8A0000133F6E700ED00E04E
:101AE00008B572B6002383F31388FFF7E7FF144BA2
:101AF0004FF0FF32C3F88020C3F88420C3F8882059
:101B0000C3F88C20C3F89020C3F89420C3F8982021
:101B1000C3F89C20C3F88021C3F88421C3F888212E
:101B2000C3F88C21C3F89021C3F89421C3F89821FD
:101B3000C3F89C2162B6BFF34F8FBFF36F8F08BD10
:101B400000E100E0084B9B6883420BD1EFF3058373
:101B500043B1064B5A6842F080525A605A6A22F4E6
:101B600000425A6205F09AB96411002000ED00E0CD
:101B700015498A684FF030001044EFF3098C80E873
:101B8000F01F402080F31288BFF36F8F0F4F4FF08C
:101B900000664A698A603E604FF07004141920683C
:101BA0000B4C2060506F0023536780F3118804B5FD
:101BB000104600F011F9BDE8044002F1300090E851
:101BC000F01F8CF3098870476411002004ED00E0D9
:101BD000080F00201EF0040F0CBFEFF30880EFF396
:101BE0000980816911F8021C0229FFD001B57246F3
:101BF00006F0E8F901BD00BF40B2002807DB044A47
:101C00004109012300F01F00834042F82130704752
:101C100000E100E040B200280CDB4309064900F077
:101C20001F0020330122824041F82320BFF34F8F51
:101C3000BFF36F8F704700BF00E100E0054B420922
:101C400000F01F0053F82220012303FA00F0104097
:101C5000704700BF00E100E008B5D3070BD40231A4
:101C6000072909D90E490F48582206F031F90C48C6
:101C7000582106F024F9002140B20028ACBF00F141
:101C80006040094B4FEA4111B8BF00F00F00C9B2E4
:101C9000AABF00F56140195480F8001308BD00BFC9
:101CA000348C00005B89000014ED00E008B5084B9F
:101CB000084A23F07F039360BFF34F8FBFF36F8F0A
:101CC00003F0E2FC05F00AFB00F05CF803F020FDF5
:101CD0000000000000ED00E042F8203C009B42F8CC
:101CE0001C3C0A49019B42F8183C029B42F8143CF8
:101CF00021F001014FF0807342F8043C42F8081CC7
:101D00000023203A02654367704700BFD1100000EE
:101D1000094A0346906870B113F1160F006E05D0A2
:101D2000A0F140029A4205D8834203D2814228BFE3
:101D300000207047002070476411002008B5154648
:101D4000094A0A4B9060026F1A600E4600F044F890
:101D50002C4686F309880020054B98472046002131
:101D600000220023034C204764110020080F0020AC
:101D7000FF7F0000D1100000014B10221A61704754
:101D800000ED00E0044800234021C2180133282B55
:101D900082F80013F9D1704700E100E008B5EFF3D5
:101DA0000583064A103B02EBC30152F83300496831
:101DB0008847BDE80840FFF7C9BC00BFF805002010
:101DC000024B034A0348012100F076B8008000204E
:101DD0000000002080880000026E054B403A1A6027
:101DE000044A4021C3E901121846012100F080B8DD
:101DF0000C0F002000000B15084AC2F898000B6871
:101E000023F01F03034343F01003C2F89C308B6898
:101E100043F00103C2F8A030704700BF00ED00E0BE
:101E20002DE9F043DFF8608085B00E461F4604467A
:101E30004FF00009B14523DA6068D8B13FB1411EC7
:101E400008421BD11F2819D92368194216D12368CB
:101E5000019306F0F7F8A36803430393D8F8905072
:101E6000C5F30725D0B2013DA84207D801A9FFF765
:101E7000C3FF421C09F101090C34DBE76FF01502C6
:101E8000104605B0BDE8F08300ED00E0044B0522EC
:101E9000C3F89420BFF34F8FBFF36F8F704700BF1D
:101EA00000ED00E0BFF35F8F024B0022C3F89420E7
:101EB000704700BF00ED00E010B50A4C0123227806
:101EC000FFF7AEFF207016300AD10749074840F2ED
:101ED0006F1205F0FDFF044840F26F1105F0EFFFAF
:101EE00010BD00BF011400206B8C00005B89000056
:101EF00008B5114A00231278FFF792FF10F1160F70
:101F000008D00E4A0021D2F89030C3F3072398423C
:101F10000BDB08BD0A490B484FF4C77205F0D8FF28
:101F200007484FF4C77105F0CAFFC2F89800C2F81D
:101F3000A0100130E7E700BF0114002000ED00E031
:101F40006B8C00005B8900002DE9F04F6D4B6E4CEF
:101F5000D3F890302568C3F307239D4285B00AD992
:101F60006A496B484FF4D37205F0B2FF4FF4D37156
:101F7000664805F0A4FFFFF795FF00200C26854278
:101F800029D1644C644F25706846FFF775FBDFF874
:101F90007481DFF8889106460025AE4222D123786D
:101FA00058490020D1F89020C2F307229342C0F292
:101FB0009E80FFF76BFFD1F89030C3F30723082B07
:101FC00000F09B80514952484FF4067205F080FFA3
:101FD0004FF40671CCE7616806FB0011FFF70CFFB8
:101FE0000130CCE7009A02EB05132901D3F80CA0CD
:101FF0000AEA0700B0F5000F5CD00AD8B0F5001F60
:1020000036D0B0F5800F48D0B0F5801F12D0013522
:10201000C3E7B0F1807F58D0B0F1007FF7D1986866
:10202000D3F804A0525806F00DF8CDE901A240F40F
:1020300080200BE09868D3F804A0525806F002F80C
:10204000CDE901A240F0885040F430200390D8F848
:1020500090302078C3F30723013B984240D92B49A5
:102060002B484FF4E87205F033FF4FF4E8717FE737
:102070009868D3F804B0525805F0E4FF1AF0010F45
:1020800040EA0900CDE901B20390E0D01F492048A1
:10209000742205F01DFF74216AE79868D3F804A044
:1020A000525805F0CFFF40F0E060CDE901A240F4C6
:1020B0000030CBE79868D3F804A0525805F0C2FF6F
:1020C000CDE901A240F08270C0E79868D3F804A07F
:1020D000525805F0B7FFCDE901A240F08870B5E78E
:1020E00001A9FFF789FE2378013323708FE7C1F838
:1020F0009830C1F8A000013354E7002005B0BDE8D6
:10210000F08F00BF00ED00E08C8800006B8C0000B9
:102110005B890000011400200000F0FF000008119E
:1021200008B50649064821F00701C1F1005202F541
:102130000042FEF73DFF002008BD00BFC728002079
:10214000180F002020B1034B800143F00103184712
:10215000704700BF70880000BFF34F8F0549064BE2
:10216000CA6802F4E0621343CB60BFF34F8F00BF35
:10217000FDE700BF00ED00E00400FA05F7B50646F4
:102180000D461446194F384606F029F940B918494A
:102190001848142205F09CFE1548142105F08FFE06
:1021A000AAB2BB681B683BB9134912485B2205F011
:1021B0008FFE11485B21F1E73146384698470028E9
:1021C00002DB002003B0F0BD002CFBD1AC42F8D202
:1021D0002F1B042F28BF042705F0C3FF3A460190A8
:1021E00001A9301906F0E7F93C44EFE72C8700001D
:1021F000A98C00005B890000E28C000037B50C461A
:102200000A490B4A411A40230093491105462346C7
:10221000084805F02CFF011E05DA2846234603B0C6
:10222000BDE83040184703B030BD00BF380F002074
:10223000D980000004870000C9B2012908B508D977
:10224000084909487E2205F043FE06487E2105F034
:1022500036FE03690C2201FB0233986C00F0070084
:1022600008BD00BF168D00005B89000070B5C9B2C3
:10227000012903690AD9184918484FF4B67205F0C4
:1022800027FE15484FF4B67105F019FEEFF31185DE
:10229000402484F31288BFF36F8F0C2606FB0134B1
:1022A000A46C14F0C00408D0A24206D085F31188B3
:1022B000BFF36F8F4FF0FF3070BD06FB013301227B
:1022C0009A6485F31188BFF36F8F436803EBC103F2
:1022D0005B6898470020EFE7168D00005B890000DF
:1022E00070B50D460649411A044649110548402279
:1022F000FFF7BCFF2B4601462046BDE8704018475B
:10230000380F002004870000002270B50121044628
:102310001046FFF7A1FC114802F076F9104B9842E5
:1023200018D1206900F014FA02F080F926690D49ED
:10233000304605F01CFE00280BDB0125B56424693E
:10234000084904F1200005F012FE002801DB656554
:10235000002070BD6FF00400FBE700BF1D240000EB
:102360000000AD0BAC8800001FB500220123CDE9B1
:102370000223094ACDF800D06B46CDF804D005F011
:10238000A4FE002805DB4FF480420023684603F0DA
:1023900025FC05B05DF804FBEB80000010B5EFF301
:1023A0001184402383F31288BFF36F8F074A1368A9
:1023B00023F00201DB07116002D4012002F0C4F90E
:1023C00084F31188BFF36F8F10BD00BF900F002002
:1023D00030B4104B0C2202FB003301460020D3E93D
:1023E00010521864EFF31180402484F31288BFF375
:1023F0006F8F9C6C04F0C00444F002049C6480F372
:102400001188BFF36F8F1DB12B46034830BC1847AE
:1024100030BC7047380F002004870000012810B539
:1024200004460AD003280CD078B90E4B9B6C5B078E
:1024300016D1BDE81040FFF7CBBF00F097F920465A
:10244000F7E7BDE8104000F09FB90749074840F2A0
:102450008F2205F03DFD044840F28F2105F02FFD4D
:1024600010BD00BF380F0020168D00005B890000F2
:1024700010B4EFF31182402383F31288BFF36F8F00
:102480001748016841F002040460C80707D482F3CA
:102490001188BFF36F8F012010BC02F0EBB84FF032
:1024A0008041D1F80C04D1F80C14C907EFD5EFF333
:1024B000118083F31288BFF36F8F0A498B6C03F08E
:1024C000C00343F002038B6480F31188BFF36F8F66
:1024D00082F31188BFF36F8F002010BCFFF778BF25
:1024E000900F0020380F0020024BC0B203EB4010C9
:1024F000704700BF380F0020F8B53349BFF35B8F3A
:102500000646012251E8003F41E800200028F9D1A9
:10251000BFF35B8F9BB92D492D484B60CB608A6020
:10252000FEF7B4FF00280ADA2A492B4840F23F227E
:1025300005F0CEFC40F23F21264805F0C0FC06B372
:10254000731E012B37D805F0BEFF0446D0B9234BCC
:102550001B78BBB14FF080430222C3F80823054625
:102560004FF08047D7F81824D7F81834D20312D583
:102570009B0701D0012E0ED1BCB185F31188BFF3AA
:102580006F8FF8BDEFF31185402383F31288BFF3FB
:102590006F8F0124E4E71CB1284605F044FDE1E714
:1025A0000021212004F002FCDCE74FF080430222EE
:1025B000C3F80423E5E70749074840F2512205F034
:1025C00087FC40F25121B7E7340F0020240F002090
:1025D000580F0020168D00005B890000A81600200F
:1025E00008B5134BBFF35B8F012253E8001F00298E
:1025F00003D143E800200028F7D1BFF35B8F15D14A
:102600000C490023CB600C4B4B6003238B600B4BBE
:102610001868FEF73BFF002808DA094909484D22EF
:1026200005F056FC06484D2105F049FC08BD00BFE9
:10263000B00F0020980F002025270000940F0020E5
:10264000628D00005B89000007B500220023CDE900
:1026500000230D484FF40032002305F0EDF80B4B3A
:102660001868FEF797FF002808DA0949094855223B
:1026700005F02EFC0648552105F021FC064B0022F2
:102680001A6003B05DF804FB40070020940F00209F
:10269000628D00005B890000B00F0020F7B51C4E72
:1026A0001C4CB7681C4DFB683F213046984740B131
:1026B000002323702B8002F061F80123237003B004
:1026C000F0BD0C213B696A46304698470028EFD19F
:1026D000124A019B93FBF2F3009A217803EB8203E9
:1026E0001BB2B5F900200029E4D09A1A002AB8BF1D
:1026F000524212B2012ADDDC094A13680139013362
:102700002170136003B0BDE8F040FFF79DBF00BF2C
:102710004087000002140020B611002090D0030072
:10272000A80F002008B5074805F059FE28B902F0A7
:1027300025F8054B01221A7008BDBDE80840034882
:1027400003F09ABC40870000021400203C050020E2
:10275000034B044A186000231360034A1360704758
:10276000940F0020AC0F0020A80F0020024B002285
:102770001A70FFF735BF00BF02140020014805F0B2
:10278000FEBE00BF40070020024A136801331360F9
:10279000FFF75ABFAC0F0020EFF31182402383F301
:1027A0001288BFF36F8F0A4BD3F8001161B100217B
:1027B000D3F80805C3F80011D3F80031C0B282F392
:1027C0001188BFF36F8F70476FF00A00F7E700BF03
:1027D00000D00040F0B5034610469C7893F803C043
:1027E000EFF31182402585F31288BFF36F8F1F78B6
:1027F00093F801E0E41B04EA0C04A04288BFA0B2F5
:102800003E180CEA06063D461E7082F31188BFF39F
:102810006F8F0A188A4216D177450CD1EFF31182D7
:10282000402181F31288BFF36F8F1978597082F3BA
:102830001188BFF36F8F1B79241AA34222BF064B66
:1028400001221A60F0BD5E190135767901F8016B3D
:1028500005EA0C05DEE700BF00D000402DE9F04797
:102860002D4D0069A8420E4614460AD02B492C482B
:1028700040F2031205F02CFB284840F2031105F04A
:102880001EFBDB4313F0010504D02030FFF7A2FF4D
:10289000BDE8F0879AB3EFF31188402383F31288E1
:1028A000BFF36F8F0D20FFF7C9F907460D20FFF723
:1028B000B1F988F31188BFF36F8FDFF868A0DFF8F4
:1028C0006880CAF80051DAF800314FF4005901234A
:1028D000CAF800302546C8F88091DAF8003183B193
:1028E000FFF75AFF031EC8F88091F6DB013DADB239
:1028F0007355002DF1D117B10D20FFF77DF920465A
:10290000C6E7EFF31180402383F31288BFF36F8F84
:1029100005F089FBE1E700BFB40F0020A38D0000A4
:102920005B89000000D0004000E100E02DE9F041AB
:10293000184B07699F420D46144605D107F135082B
:102940005CB92046BDE8F08113491448E52205F042
:10295000BFFA1148E52105F0B2FA4FF0FF334FF00E
:10296000FF32384603F03AF9224629464046FFF73F
:1029700031FF0646384603F0CFF83EB94FF0FF323C
:102980004FF0FF33064803F029F9E6E7A41BA4B291
:102990003544D5E7B40F0020A38D00005B8900000B
:1029A000C40F002038B51F4B04699C420AD01E4951
:1029B0001E4840F2471205F08BFA1B4840F24711BF
:1029C00005F07DFA01221146204605F03FFD012267
:1029D000002104F1100005F039FD40F20743238780
:1029E0004FF0706323620C2384F824300025104BD1
:1029F00084F83550E586D3F8042522F00102C3F8A7
:102A000004250121C3F80051D3F80021C3F80413B1
:102A10002A4619600D20FFF71FF90D20FFF7ECF88B
:102A2000284638BDB40F0020A38D00005B8900004C
:102A300000D0004010B5FFF7AFFE002820DB174B99
:102A400093F8222093F8214093F82310141B31EAC5
:102A50000404C0B20DD193F8372093F8364093F8B0
:102A60003810141B31EA04040BD10D4B01225A60BB
:102A70000EE09C180132114084F8250083F82210E2
:102A800010BD9C180132114084F83A0083F83710C9
:102A90000448BDE8104003F03FB800BFB40F002069
:102AA00000D00040C40F002010B5036941B91C4993
:102AB0001C483F2205F00CFA3F21194805F0FFF9A8
:102AC000486830B916491748402205F001FA4021FC
:102AD000F3E75868F8B1884219D19C6808685860D3
:102AE000A14200D19860002008602AB15A680A60AB
:102AF0009A68596002B99960002010E0814206D1BD
:102B00000868206098688142EDD19C60EBE704463C
:102B100000680028F2D1002AE8D16FF0150010BD3E
:102B2000E58D00005B89000038B545682B69B3B1BD
:102B30001035284602F0A6F9044680B90146284619
:102B400002F066F9084B98420BD108492246284604
:102B500002F02EF9224605210620FFF77DF800201D
:102B600038BD6FF00400FBE70000AD0BC12C000086
:102B700008B50268530917D14FF08053D3F83011CC
:102B800010291CD1D3F83431032B18D80E49C85C56
:102B90000E4B0F49002818BF0B4643F0407343F417
:102BA0006053D340DB070CD40A490B484FF46C72D6
:102BB00005F08EF907484FF46C7105F080F9034B6E
:102BC000EBE74FF0A04008BD4D8E0000FFC117702D
:102BD0003F8E16F0288900005B890000F0B5406840
:102BE000057B01F01F0444EA4514056987B0002DF8
:102BF0005BD0B2F5001F00F1100506D12146284632
:102C000005F08DFB002007B0F0BD01AE0027B2F546
:102C1000800F0197776033D1B3F1007F14BF052394
:102C200004238DF804300023CDE904630393836803
:102C3000CB40D90716D4B2F1A07F13D168460094D7
:102C4000FFF796FF04F5E07350F82330DB0709D453
:102C50006A462146284602F0B1F8174B98421AD02E
:102C6000CDF808D003AA2146284601F071FF134B86
:102C700098421DD101222146284602F019F9C1E7E8
:102C8000B3F1C06F05D0B3F1007F14BF012302235D
:102C9000C7E70323C5E76946284602F003F9074B57
:102CA0009842DDD06FF00B00ADE76FF08500AAE72A
:102CB0006FF01500A7E700BF0400AD0B0000AD0BDF
:102CC000430970B507D1104B596821B101250C6833
:102CD0000E4E854001B970BD8A682A400CD04B6801
:102CE00043B90B490B48642205F0F2F80848642107
:102CF00005F0E5F8304698471CB1236821461C468C
:102D0000E8E72346FAE700BFF80F00201887000025
:102D1000E58D00005B8900002DE9F043466840F234
:102D20000635337BD00687B001F01F0702EA0505A0
:102D300047EA431754BFC2F340130323B5F5837F1B
:102D400014468DF8033044D00FD8062D18D007D87C
:102D5000B5B1022D3FD06FF0150007B0BDE8F0838C
:102D6000B5F5807FF7D101250AE040F202229542B5
:102D700033D0B5F5407F32D0B5F5007FEBD10225D9
:102D80000123220303FA01F12BD57368C3F8081558
:102D9000336963BB03A80397FFF7EAFE84F480332B
:102DA00000EB8700C3F30043C4F34044D0F800278E
:102DB00044EA43049DF8033022F4E16244EA8304C8
:102DC00022F0070244EA05231343C0F8003700202D
:102DD000C3E70725D4E70425D2E70525D0E7032577
:102DE000CEE7630344BF7368C3F80C15D0E7103611
:102DF0000DF102023946304601F0E0FF14F4403F85
:102E0000804616D13946304605F087FA234B98455F
:102E1000DDD19DF80210304602F03EF84045D6D094
:102E20001F492048EC2205F053F81D48EC2105F01D
:102E300046F801AB4FF0000903AA39463046CDE908
:102E40000439CDE90199CDF80C9001F081FE134BC6
:102E5000984280D114F4003315D09DF803308DF8DA
:102E60000E3084F48034C4F300444B4603AA394640
:102E700030468DF80C508DF80D4001F01DFF074BCA
:102E80009842C3D067E7CDE9043303AA0DF10303E9
:102E900039463046039301F05BFEF0E70000AD0BCE
:102EA000218E00005B890000014B01221A607047EF
:102EB00000C000400C2903690BD15B6A0649074832
:102EC0004B4393FBF0F100FB113311605360002082
:102ED00070476FF08500704790D0030040420F00AC
:102EE000044B00690022C3F80021D3F8003102F03E
:102EF00013BE00BF00C000407FB50569AB6A002B60
:102F000040D03F2901D00C293FD105F110064FF0E8
:102F1000FF324FF0FF33304602F086FC1C4B01932A
:102F200000240323A86A039469460293FEF7AEFACD
:102F3000A04208DA174918483D2204F0C9FF3D2194
:102F4000144804F0BCFF4FF0FF324FF0FF33284627
:102F500002F044FEA86AFEF71DFB002806DA0D49C0
:102F60000D48422204F0B4FF4221E9E70B4BD3F8AD
:102F700008256A6201225A60304602F00BFD2046A5
:102F800004B070BD6FF00A00FAE76FF08500F7E754
:102F9000A92E00005F8E00005B89000000C0004089
:102FA00010B504690020FFF79FFAA06240B91049EC
:102FB0001048772204F08CFF0D48772104F07FFF42
:102FC0004FF0FF320021204605F040FA04F11000D6
:102FD00005F035FA002201210C20FEF73DFE0C2001
:102FE000FEF70AFE044B0122C3F80423002010BDA3
:102FF0005F8E00005B89000000C0004070B40E4985
:10300000D1E90034D01AC31844F1000422F07F46FD
:10301000C1E90034A6F50013B3F5400F09D2074B00
:103020001B681A0A1B069C19054B42F10005C3E9EF
:10303000004570BC04F08CBA980C002038100020B9
:10304000A00C00200D4B1868010A0006BFF35F8F2B
:103050000B4BD3F80435181841F10001B3F5801F6C
:103060000AD2084BD3E90023904271EB030303D249
:1030700010F1807041F10001704700BF381000204E
:1030800000100140A00C00202DE9F7432B4CD4F890
:10309000043399070BD5D4F8043143B1284A0023EF
:1030A000C4F80431D4F80431136801331360D4F840
:1030B0000433DA0323D5BFF35B8F224B53E8002F91
:1030C00022F0010143E800100028F7D1BFF35B8F25
:1030D000D30702D4D4F840318BB10025C4F8405155
:1030E000D4F84031FFF7AEFFEFF3108272B6164B03
:1030F000D3E90267B042B94104D282F3108803B029
:10310000BDE8F0834FF0FF384FF0FF39C3E9028983
:10311000D3E900101D604FF48033C4F84833C4F87D
:103120004051D4F8403182F310880029E7D0009054
:1031300032463B4628468847E1E700BF0010014081
:103140003810002030100020880C00202DE9F84FA6
:103150004B4DBFF35B8F06460F4655E8008F28F0B6
:10316000010345E80032002AF7D1BFF35B8F454CDD
:103170004FF48039C4F80893BFF35F8FBFF36F8FAC
:10318000FFF760FFB04271EB070308F0010840D27F
:103190003D4B301A67EB0101984271F100014CD2AE
:1031A0003A4BD3E902239F4208BF96423ED04FF0EC
:1031B000000CC4F84893C4F840C126F07F40D4F80E
:1031C0004031DFF8CCA0834603216FF0020E2BF0D4
:1031D0007F43C4F84035C4F84493D4F80425AEEBDB
:1031E00002035B4423F07F4353451FD9D4F8403199
:1031F0005BB1D4F80425131A23F07F43B3F5000F15
:1032000014D9C4F840C1D4F8403101EB020B0131AC
:10321000DDE7204BBFF35B8F53E8001F41F0010156
:1032200043E80012002AF7D1BFF35B8F174B1A4A0D
:103230001A60C3E9026700225A60B8F1000F1CD07F
:10324000BFF35B8F55E8003F43F0010345E80032D0
:10325000002AF7D1BFF35B8F4FF48033C4F80433F7
:103260000C4BBFF35B8F1B68BFF35B8FDB0742BF69
:103270000A4B4FF40032C3F80021BDE8F88F00BFBD
:10328000341000200010014001008000880C002054
:10329000FDFF7F0030100020FD2F000000E100E066
:1032A00070B5194C194BC4F80833C4F84833184B9F
:1032B00000254FF0FF304FF0FF31C4F80855C3E947
:1032C00002014FF48033C4F80433124B02264FF44A
:1032D0000032C4F804630121C3F8802111202A467A
:1032E000FEF7BAFC1120FEF787FC01230A4AA3600F
:1032F0000021236009481360FFF728FF3046FFF7DD
:10330000FBF8284670BD00BF0010014003000F000D
:10331000880C002000E100E034100020FFFF7F0057
:10332000431C10B50F4C05D08442A8BF0446012CA5
:10333000B8BF0124FFF786FE0B4AD2E90031C01A5C
:10334000B0F5000F074A0AD22044904228BF104629
:10335000C018BDE8104041F10001FFF7F7BE10466C
:10336000F6E700BFFFFF7F00980C002008B5FFF7CD
:1033700069FE024B1B68C01A08BD00BF980C0020F4
:103380000B4B0C4A1B7AC2F81035042B0DD8DFE822
:1033900003F008030C080300074BA0221A60012069
:1033A0007047054B4FF49672F8E70020704700BF56
:1033B000301100200010004044100020044A002377
:1033C000C2E908339362034AC2E908339362704743
:1033D000FC100020D0100020054B1B68D3F80423FC
:1033E000920342BF0022C3F84421D3F8443170470E
:1033F0007C05002008B5FCF785FE0C490C48FCF75D
:103400007BFE0C4A0C4B507C1B6898470B4B0C4ABC
:10341000C3F8042540F21712C3F80022094B0A4AE8
:103420001A600A4B04221A7008BD00BF4C05002028
:10343000F8880000301100203C10002000100040EF
:103440005B16002040100020293800009F16002045
:1034500008B5094B1B6801225A60DA60FCF758FE78
:10346000FCF750FE00F09AFD0320FCF757FEBDE884
:103470000840FCF735BE00BF7C05002010B5064CA7
:103480000649204604F075FEC1F82405201D04F00D
:1034900070FEC1F8280510BD6C050020001000402A
:1034A00008B507490748FCF727FE38B900F05AFD70
:1034B000054B1B6840F20442C3F8002208BD00BF60
:1034C0004C050020F88800007C05002038B51C4B16
:1034D0001C4C1B6801255D60DD6000F05FFDFCF7A2
:1034E00017FEFCF7FDFD0021284600F0D9FD40F253
:1034F0001313C4F80032144A144B507C1B689847CD
:10350000134BC4F804350023C4F81031D4F810313B
:103510002561D4F81031002BFBD00021C4F8101124
:10352000D4F8103140F21713C4F80032012000F033
:103530004BFDFFF7B5FF074B01229A6138BD00BF75
:103540007C05002000100040301100203C100020BD
:103550005B160020004001402DE9F843224BDFF8C4
:103560008C801A78012A81460F4630D198F80030B5
:10357000C3F3050203F03F03202B33D81C4B196A19
:1035800053F821301A701A4D1A492C6A55F82460E4
:103590003046013410F8052B05F00DF8164B86F86F
:1035A0000190D3F84835377103F07F03B37098F872
:1035B0000130DB4303F00103F370AB6A082C28BF32
:1035C000002401332C62AB620120BDE8F883084A75
:1035D000116A52F82120597809B91170D3E75B7C40
:1035E0001370D0E70020F0E7301100205B160020B8
:1035F000D01000205D1600200010004007B5114BD0
:103600001148DA7C90F90A00002302F5166201A93C
:10361000FCF790FD9DF80500FCF786FD50B10B49C5
:103620000B4840F25D3204F053FC084840F25D3133
:1036300004F045FC9DF80420064BC3F80C2503B0AC
:103640005DF804FB6405002030110020A78E000007
:103650005B89000000100040837842781B0443EA35
:10366000022302781343C27843EA0253027943EA01
:103670008253427943EA0263827943EA8263C279E0
:1036800043EA4273094AC2F81435837A417A1B042B
:1036900043EA0123017A0B43C17A43EA0163017BC8
:1036A00043EA4163C2F81835704700BF001000407C
:1036B0001FB504460D220021684604F08AFF0A4B1C
:1036C00000930A4B5B7CE0B2013B8DF808008DF85B
:1036D00009008DF80A30684601238DF80B30FFF79A
:1036E000BBFF04B010BD00BF000101006405002055
:1036F0001FB50023CDF80930CDF80130CDF80530E5
:1037000003238DF8023006238DF800300C4B5B7CD0
:10371000013B8DF80A3020238DF80830094B1B7AC5
:10372000012293428DF80B2007D18DF805206846C1
:10373000FFF792FF05B05DF804FB042BF5D0F6E728
:103740006405002030110020684620F007018D46F6
:1037500019B5144BD3F80423D2060BD5D3F8102196
:1037600042B10022C3F81021D3F810310E4B1B6870
:1037700003B198470B4CD4F804331B070BD5D4F88E
:103780000C3143B1084B1B6803B198470023C4F8C0
:103790000C31D4F80C31FDF7D9FFBDE8194085464E
:1037A000704700BF0010004040100020684620F025
:1037B00007018D4631B5194B82B01B680193EFF3B9
:1037C0001181402383F31288BFF36F8F144B0022C3
:1037D0001D681A6081F31188BFF36F8F114C236845
:1037E000ABB1E90703D58DF8002068469847AA07D2
:1037F00005D501238DF800306846236898476B078C
:1038000005D502238DF80030684623689847FDF7F8
:103810009DFF02B0BDE8314085467047481000204A
:103820004C1000202C1100202DE9F84F7C4AD2F8D2
:10383000007417F0010703D1BDE8F84FFFF746BE4B
:10384000DFF8E0A1DAF82830072BF5D8D2F80834F1
:10385000754DDFF8D891D2F80C4499F80120DBB20D
:10386000C2F3410135F8230084424FEA830640F059
:10387000AC80A8198078814240F0A780B846002724
:10388000AA196B4C9170664AD2F80C2425F82320B3
:10389000A37C23B199F80130DB0740F1BD80FCF730
:1038A00037FC64496448FCF721FC94F800B0634C91
:1038B000BBF1000F00F0A180BBF1010F57D1584BB5
:1038C000DFF87CC1D3F80814DCF82830002B00F0B6
:1038D0008A805C48C9B250F82120002A00F0838019
:1038E000DFF864B1D2F800E0CBF800E005EB060E9B
:1038F0009EF803E0BEF1000F17D0B8F1000F14D10D
:1039000082F8048050F82120013B926840F8212081
:10391000CCF82830002B5BD002B11268CBF8002025
:103920004A4A136843F001031360494BDBF80080F7
:103930001A68AB19B8F1000F4CD00121D97098F872
:1039400000009047DBF8001023780A78414862F3C2
:103950000503237011F8052B04F02DFE637899F808
:10396000012023F0070302F00702134363703A4B70
:1039700005221A70FFF742FE294BD3F80824D2B271
:10398000C3F82C2540F21B12C3F80445C3F80022EB
:10399000324B334A1A60B7B1214BD3F80804DAF836
:1039A00028303544072BA9780DD8C0B2FFF7D4FDD5
:1039B00048B1264A136843F004031360294B4FF4BF
:1039C0008012C3F80021BDE8F88F4FF0000857E7D8
:1039D0004246A3E783F8038040469047237868F384
:1039E00005032370BAE7AB194FF0000883F8038092
:1039F000174B40461B689847F0E7154B58461B6825
:103A0000984799F80030227884F801B0C3F3010395
:103A100063F301022270AAE7FFF758FDBBE700BF7E
:103A200000100040D0100020B81100205B160020CC
:103A3000301100204C050020E08800007D16002099
:103A4000FC10002050100020281100204C100020F5
:103A50003C1000207F1600209F1600204010002000
:103A6000F533000000E100E010B500F0BBFBFFF70C
:103A7000EFFC134801F040FC00F0DEFB114A124855
:103A8000D2F8503623F00103C2F850360F4B002411
:103A90001C700F4B21461C70FFF790FC202204F095
:103AA00098FD0C4B01201C605C60FEF7B3F81420FD
:103AB000FEF7B0F8BDE810400A20FEF7ABB800BF33
:103AC0007C05002000100040B81100209F16002047
:103AD000A016002053160020F0B5044685B000283B
:103AE00000F0C580634D2B780BB1FFF7BDFF624B33
:103AF00062681A60614A234604F110071646186886
:103B00005968144603C40833BB422246F7D11868EB
:103B100020605B4B5B480024202221461C6004F09F
:103B200058FD594B59491C605C60FFF729FC3378FC
:103B300083B1012B01D1564B0B60727A554B012A90
:103B400000F08880022A07D07AB9C3F83C25C3F870
:103B5000342508E0504BEFE74FF6FF70C3F83C0503
:103B6000C3F834254D4AC3F838250B68707C984754
:103B7000484B4B494B484FF0E732C3F81C254FF0F8
:103B80004332C3F82025484AC3F82425474AC3F8DE
:103B90002825FFF713FC0A4600230133082B40F8C1
:103BA000042B02F12502F8D1414A42480023013397
:103BB000082B40F8042B02F12502F8D100223E4BDD
:103BC00014460132082A19601C719C6001F125011C
:103BD00003F10C03F5D120220021384804F0F9FC50
:103BE000374B384A3848019301A9CDE9024401F026
:103BF000FBFA364B984235D100F0B0FA044698BB38
:103C000000F0ECFA324B23495860D1F85026F37C8F
:103C100022F001021343C1F8503601210846224622
:103C2000FEF71AF8224602211420FEF715F8224664
:103C300002210A20FEF710F80120FDF7DDFF142015
:103C4000FDF7DAFF0A20FDF7D7FF224B1C70012396
:103C50002B7009E0FF20C3F83C05C3F8342540F27F
:103C6000071280E76FF00D04204605B0F0BD6FF03D
:103C70001504F9E7A01600202C11002030110020B7
:103C80004C100020B8110020531600203C100020DA
:103C9000F136000000100040B13600002110010094
:103CA0002B150020FC100020E743C323A363E3137C
:103CB00003140020D01000207010002050100020AD
:103CC00040420F00D93300007C0500200000AD0BFE
:103CD0004C0500209F16002038B5254B1B78002B83
:103CE0003CD000283DD0234CA36A002B3CD0EFF3FE
:103CF0001185402383F31288BFF36F8F636A54F8F2
:103D000023301A780270636A54F823305B7843706A
:103D1000636A54F8233093F902308370636A54F86D
:103D200023301B790371636A54F82330DB78C37046
:103D3000636A54F823100530053104F03CFC636AD3
:103D40000133082B28BF00236362A36A013BA362EF
:103D500085F31188BFF36F8F002038BD6FF00C0022
:103D6000FBE76FF01500F8E76FF03C00F5E700BFE8
:103D7000A0160020D010002038B5334B1A7802F07E
:103D8000FF05002A5CD1314C31494FF0FF32C4F8B5
:103D90000823C4F81051D4F810212E4A116040F2C3
:103DA0001712C4F800221022C4F8042304221A7047
:103DB000294B9A7CC4F83025DA7C40F6C41102F510
:103DC00016628A420AD92549254840F20C7204F04D
:103DD0007FF8224840F20C7104F071F8A2F51662E7
:103DE000C4F808251433BFF35B8F53E8001F21F09C
:103DF000010143E80012002AF7D1BFF35B8F194B92
:103E0000C4F80435184B0222C3F880210120FDF7C5
:103E1000F3FEC4F80451D4F80431C4F80851D4F8BE
:103E20000831C4F8105101202946D4F8103100F0AF
:103E3000CBF8FFF735FB0D4B01229A61284638BDC0
:103E40006FF00F00FBE700BF9F160020001000403E
:103E5000293800004010002064050020068A000078
:103E60005B8900005B16002000E100E0004001409B
:103E700008B50B4B1B7803F0FF015BB968B1036811
:103E80000848036004F075F9074B00BAC3F81C0535
:103E9000084608BD6FF00F00FBE76FF01500F8E76C
:103EA0009F160020640500200010004008B50C4B50
:103EB0001B7803F0FF0163B970B10368094840F84B
:103EC000043F04F056F9084B00BAC3F82005084631
:103ED00008BD6FF00F00FBE76FF01500F8E700BFBB
:103EE0009F160020640500200010004038B50F4BDD
:103EF0001B780C4603F0FF0593B9A0B1082912D82E
:103F00000A4601460A4804F056FB0A4AFF23147485
:103F1000C4F1080423419374FFF7B0FA284638BD72
:103F20006FF00F00FBE76FF01500F8E79F16002019
:103F30006C050020640500206428034607D8074A62
:103F4000127802F0FF002AB9054AD37470476FF067
:103F5000150070476FF00F00704700BF9F160020DC
:103F600064050020094B0A491A78D30003F1804305
:103F700003F5F833C3F810150649C3F814150123E7
:103F80009340054AC2F80435704700BFA3160020CD
:103F90001841014000A0004000F00140084B0949D1
:103FA0001B7801229A40DB0003F1804303F5F833CC
:103FB000C1F808250022C3F81025C3F8142570475E
:103FC000A316002000F00140F0B52B4B2B4C1B78C2
:103FD0002B4FDA0014442B4A0025C2F81851D2F8AE
:103FE0001821294A15788000EA00C0B202F1804207
:103FF00002F5F83200F1804000F58050C2F81075EB
:10400000C2F81405214A05F5117042F82040204AF3
:1040100020481678F20002F1804202F5F8320124BD
:10402000C2F8100500F5973000F58470C2F8140549
:1040300004FA06F604FA05F0304369B1164A174E41
:104040001178CA0002F1804202F5F8328C40C2F8C1
:1040500010752043C2F814659B0003F1804303F5FB
:10406000F8330122D3F80018AA400A43C3F8002805
:10407000064BC3F80405F0BDA116002004F0014072
:104080001841014000400140A416002000F001400A
:10409000A216002010110040A316002000A000402E
:1040A000F0B5294B294E1878294B1A78012404FAC7
:1040B00002F304FA00F51D4300F51177C3004FEA3F
:1040C000C20C19BB03F1804303F5F833C6F8085559
:1040D000C3F81015C3F8141546F827100CF18043E7
:1040E00003F5F833C3F81015C3F81415194B1B78F2
:1040F0009B0003F1804303F5F8330121D3F8002836
:10410000814022EA0102C3F80028F0BD124A127869
:1041100003F1804303F5F833944000212C43C6F8A3
:104120000845C3F81015C3F814150CF1804303F5C6
:10413000F83346F82710C3F81015C3F81415D30048
:1041400003F18043CCE700BFA416002000F001403B
:10415000A2160020A1160020A316002038B517488B
:1041600000F0D2FF164B9842054622D1154800F0C8
:10417000CBFFA84204461CD1134800F0C5FFA04263
:10418000054616D1114800F0BFFFA842044610D1E1
:104190000F4800F0B9FFA04205460AD10D4800F0D3
:1041A000B3FFA842044604D10B4800F0C7FFA04269
:1041B00002D06FF0120038BD0020FCE7A4160020EA
:1041C0000000AD0BA2160020A3160020A7160020A9
:1041D000A6160020A5160020A11600200048704752
:1041E000101100400E4B0F491B780978012202FA8A
:1041F00001F102FA03F30B430B49097802FA01F1CA
:104200000B430A49097802FA01F10B43084909787E
:104210008A401343074A43F00103C2F80835704748
:10422000A4160020A6160020A2160020A316002027
:10423000A716002000F0014038B51E4B187800F09A
:1042400069FF1D4B984205460AD01C491C4840F2A4
:10425000351203F03DFE194840F2351103F02FFEF0
:10426000184B187800F056FFA8420446EDD1164BC3
:10427000187800F04FFFA0420546E6D1134B18789E
:1042800000F048FFA8420446DFD1114B187800F037
:1042900041FFA0420546D8D10E4B187800F03AFFF6
:1042A000A8420446D1D10C4B187800F04DFFA04233
:1042B000CBD138BDA41600200000AD0BC88E000085
:1042C0005B890000A2160020A3160020A71600207C
:1042D000A6160020A5160020A1160020024AD2F83A
:1042E0000034002BFBD0704700E0014010B503F014
:1042F00054FF40B14FF080430022C3F80C21C3F8B3
:104300001021C3F8382503F048FF002846D04FF0AD
:1043100080524B4BD2F80414C3F82015D2F808147D
:10432000C3F82415D2F80C14C3F82815D2F81014C9
:10433000C3F82C15D2F81414C3F83015D2F8181499
:10434000C3F83415D2F81C14C3F84015D2F8201461
:10435000C3F84415D2F82414C3F84815D2F8281429
:10436000C3F84C15D2F82C14C3F85015D2F83014F9
:10437000C3F85415D2F83414C3F86015D2F83814C1
:10438000C3F86415D2F83C14C3F86815D2F8401489
:10439000C3F86C15D2F84424C3F8702503F0FDFE71
:1043A00048B14FF08043D3F80024D20744BF6FF0E8
:1043B0000102C3F800244FF08053D3E94C230D2AA7
:1043C00035D13BB14FF01023D3F808224FF0804392
:1043D000C3F858254FF01023D3F80022002A03DB3E
:1043E000D3F80432002B29DA164901234FF01020AC
:1043F000C1F804351224FFF771FFC0F80042FFF73F
:104400006DFFC0F80442FFF769FF0023C1F80435CF
:10441000FFF764FFBFF34F8F0B490C4BCA6802F4E0
:10442000E0621343CB60BFF34F8F00BFFDE7102A5C
:10443000D0D1032BC6D8064AD35CC2E710BD00BF5B
:1044400000C0004000E0014000ED00E00400FA057B
:10445000ED8E000030B50468CCB1BFF35B8FB4FAC9
:1044600084F3C3F11F03DBB201229A4024EA020263
:1044700050E8005FA54204D140E8002CBCF1000FD9
:10448000F6D1BFF35B8FE6D102480B7030BD024816
:10449000FCE700BF0000AD0B0200AD0B10B50368D8
:1044A000CB40DB0714D401238B400268BFF35B8F42
:1044B00043EA020150E8004F944204D140E8001C56
:1044C000BCF1000FF6D1BFF35B8FEED1014810BDF8
:1044D0000148FCE70000AD0B0400AD0B034BD3F823
:1044E000003523FA00F000F00100704700F00140B1
:1044F000014BC3F80405704700F00140014BC3F8BD
:104500000805704700F00140024B00F5117043F8B8
:104510002010704700F00140034B00F5117000229D
:1045200043F82020704700BF00F00140F7B5064671
:1045300050B101282ED031493148FB2203F0C8FC8C
:104540002E48FB2103F0BBFC0C224FF482730221A6
:104550004FF0804003440244C0F8081300250121B5
:1045600011601D608E421B688DF8071008BF0DF1A9
:10457000070542F210744FF0804746B3012E14D065
:1045800020491F4840F2A74203F0A2FC1D4840F218
:10459000A741D7E704224FF480730146D8E713B34D
:1045A000012003F008FE013C1DD0D7F80C3403F4C1
:1045B0008033002DF3D0D7F80C2402F001022A70CA
:1045C00010E083B1012003F0F6FD013C0BD0D7F8D9
:1045D000183403F48033002DF3D0D7F8182402F0F8
:1045E00003022A600BB903B0F0BD9DF80700012853
:1045F000F9D103F0E0FD013CBFD1F4E7F18E0000FA
:104600005B8900002E8F0000054B1A792AB95A7178
:10461000012218601A71034870470348704700BFB1
:10462000441100200000AD0B0C00AD0B08B50E4B83
:104630001A7952B90D490E4840F2591203F048FC5C
:104640000A4840F2591103F03AFC1B682BB10020D4
:10465000FDF7F4FA08B9FDF7CFFA4FF080430022D6
:10466000C3F8182508BD00BF44110020F18E0000DA
:104670005B89000038B5314C237953B93049314852
:104680004FF4D47203F024FC4FF4D4712C4803F09F
:1046900016FC50B1012846D029492A4840F2FD12A3
:1046A00003F016FC40F2FD11F0E74FF08043D3F821
:1046B0001814D3F81824CD031DD5900702D000207C
:1046C000FFF734FF4FF080430022C3F81825022083
:1046D00008224FF4827303F180430021196002F134
:1046E00080421D6801251560226802B34FF08043A7
:1046F000C3F804030CE0D3F81424D107E2D5D3F8AF
:104700001C249207DBD122681AB10222C3F80423C9
:1047100038BDD3F80421002AFBD00022C3F80421BD
:10472000D3F80431F4E700224FF48073D3E71A681A
:10473000002AFCD019601B68EAE700BF4411002082
:10474000F18E00005B89000008B5094B1B7953B955
:104750000849094840F2172203F0BAFB054840F225
:10476000172103F0ACFBBDE80840FFF7DFBE00BF38
:1047700044110020F18E00005B8900004FF080435F
:10478000D3F80C14D3F80C24C80322D5D10720D5B4
:10479000D3F81824D2031CD5104A517901F0FF0038
:1047A000C9B9C3F80C01D3F80C1101215171196179
:1047B000126822B10822C3F8042309487047D3F8CD
:1047C0000C21002AFBD00022C3F80C21D3F80C31B5
:1047D000F3E7044870470448704700BF44110020C5
:1047E0000000AD0B0500AD0B0B00AD0BF8B54FF0A5
:1047F00080431C4ED3F804430127002504B9F8BDBB
:10480000B4FA84F0C0F11F00820002F5807292B207
:1048100002F1804207FA00F311689BB224EA030414
:104820000029EBD0156012684FF08042082BC2F8C7
:10483000083314D00DD8013B012B0CD90A490B4881
:1048400040F2763203F044FB074840F2763103F041
:1048500036FB102BF2D13368C0B29847CEE77571A2
:10486000F9E700BF44110020F18E00005B890000D1
:10487000034A430900F01F00D35C1844C0B27047DC
:10488000D98F000043091BD14FF08053D3F830215A
:10489000102A13D1D3F83431032B0FD8094AD15C35
:1048A000094B0A4A002918BF134643F0407343F4EA
:1048B000605323FA00F000F001007047024BF4E768
:1048C00000207047D58F0000FFC117703F8E16F093
:1048D00038B5046805462046FFF7D4FF50B90E49A5
:1048E0000E484FF46C7203F0F3FA4FF46C710A48FF
:1048F00003F0E5FA04F01F0364092B6008D00649B1
:10490000064840F2B93203F0E3FA40F2B931EEE77B
:104910004FF0A04038BD00BF288900005B8900002F
:10492000072808B50AD90749074840F2AA3203F018
:10493000CFFA044840F2AA3103F0C1FA800000F532
:10494000807008BD628F00005B89000070B505466D
:10495000FFF78EFF0C4C08300E4634F81030DA05A5
:1049600008D5C3F3432304EBC302284654F833307D
:1049700052689847A3682BB1E26831462846BDE8E3
:104980007040184770BD00BF8405002008B5FFF7D0
:104990006FFF034B083033F81000400B08BD00BF19
:1049A0008405002008B5FFF763FF034B083033F898
:1049B0001000C0F3400008BD8405002008B5FFF7D3
:1049C00057FF044B083033F8100010F01C0018BFDC
:1049D000012008BD8405002008B5FFF749FF034BFF
:1049E000083033F81000C0F3401008BD84050020E3
:1049F00010B5FFF73DFF184A083032F81030D905DE
:104A00001DD5C3F3432123F4F85322F8103002F1EB
:104A10000E04002034F8023F13F4807F03D0C3F368
:104A2000432399420BD001302028F3D100230B48B7
:104A300042F83130FFF732FD094B984200D110BDEA
:104A4000084909484FF4DC7203F042FA05484FF474
:104A5000DC7103F034FA00BF84050020DC0500207F
:104A60000000AD0B978F00005B8900002DE9F84333
:104A7000002407460E4625464FF00108A146B542E0
:104A80000DD1124BD3F87C2132B10022C3F87C2126
:104A9000D3F87C3144F000442046BDE8F883E8B206
:104AA000FFF73EFFA0F58072920808FA02F2174263
:104AB00009D000F1804303F5C043196819B1C3F868
:104AC00000901B6814430135D9E700BF0060004027
:104AD000F7B506460846FFF7CBFE194F00F108056B
:104AE0000C4637F81530DB0727D5304603F0F1FBCD
:104AF0002046FFF771FF40B12046FFF747FF3168BE
:104B000000F5A270002341F820302046FFF770FF27
:104B1000002301A827F815300194FFF7D9FE019B67
:104B200000EB8300074BD0F80027134043F002034B
:104B3000C0F80037044803B0F0BD0448FBE700BFED
:104B400084050020F0F8FCFF0000AD0B0400AD0B65
:104B50002DE9FF41164680460846FFF789FE376873
:104B60000D460446E7B1084603F0A8FB08BBCDE9B3
:104B700000008DF80E008DF80F003B460DF10F027E
:104B80000DF10E01284603F02FFB474A04F10801FE
:104B900032F8113023F0020343F0010322F8113000
:104BA000736863B328461F785968FFF7FBFE10B19E
:104BB000D1B13E4826E03C4A04F1080032F81030FA
:104BC00023F02003DB04DB0C22F8103061B1032F4B
:104BD000EFD87168496891F800C0D8F80010A7B9FB
:104BE0000CF5A27C41F82C702F4A04F1080132F830
:104BF000113023F01C0343EA870322F81130B36815
:104C00004BBB2B4804B0BDE8F08101EB8C0143EABB
:104C10004C33D1F810E52EF0030EC1F810E5D8F8AA
:104C2000001001EB8C0E43F02003DEF8101522F883
:104C3000103021F4473121F44071CEF810152902CB
:104C4000DEF8108501F4F85141EA074141EA080114
:104C5000CEF81015C8E7D3E900672846FFF7C8FE6D
:104C6000002ECED0104DD5E90023964203D19F42AD
:104C700001D1002209E00F480DF10F01FFF7EAFB17
:104C80000B4B9842BED19DF80F2045F8326005EBE2
:104C9000C20308345F6035F8143043EA422343F41A
:104CA000807325F81430ACE7840500200400AD0BB8
:104CB0000000AD0BDC0500202DE9FF410C468046CD
:104CC000204611461E46FFF7D3FD054621B3204678
:104CD000FFF768FE18B92046FFF77EFE10BB20469E
:104CE000FFF76CFE10B14B78012B1BD001238DF820
:104CF0000F300023CDE900134A1C8B1C20460DF118
:104D00000F0103F071FA274A05F1080132F811305A
:104D100043F0030322F81130002E41D02046FFF764
:104D200041FE18B9204804B0BDE8F08196F800C0F3
:104D3000D8F800301B4F0CF5A272002143F8221066
:104D400005F1080237F8121021F02001C904C90C3E
:104D500027F8121075781DB3D8F80000B67800EB6C
:104D60008C002D04D0F8103523F4981323F4F85355
:104D7000C0F81035230203F4F85305F44035360526
:104D8000D0F810E52B4306F4801641EA4C3133434A
:104D900041F0200143EA0E0327F81210C0F8103545
:104DA0000248C0E7840500200400AD0B0000AD0BF5
:104DB000014BC3E9021270478405002010B5144668
:104DC00052B90E490E4840F20D3203F081F80B48FB
:104DD00040F20D3103F073F80846FFF7FDFD50B1C6
:104DE0000846FFF745FD074B083033F810300648FA
:104DF0005B0B237010BD0548FCE700BF978F0000D8
:104E00005B890000840500200000AD0B0400AD0BA1
:104E10002DE9F041184D95F8604006464CBB402204
:104E2000214605F1100003F0D4FB36682F6DA04633
:104E3000A7420FD10023C6F87C3146F30730D6F8DD
:104E40007C31FCF7D9FE01230C4885F86030AB6556
:104E5000BDE8F081E0B2FFF763FDA0F580739B0829
:104E60001F2B08BF46F8008004F1010408BF335827
:104E7000DEE70348ECE700BF840500200000AD0B2F
:104E80000C00AD0B034B93F86000003818BF0120F5
:104E9000704700BF840500200148FFF7FFBA00BF3C
:104EA000D80500200148FFF7D5BA00BFD80500207B
:104EB0002DE9F341054608460C461646FFF77EFDF0
:104EC00050B93449344840F2FA3203F001F840F264
:104ED000FA31304802F0F3FF2B68D3F80423002A9C
:104EE000A4BF4FF00042C3F804230846FFF774FD47
:104EF00018B30846FFF756FD0746F0B90846FFF716
:104F000045FD0446FFF70CFDD5F8008048F8007019
:104F100058F800302B6822B203EB8203D3F8102537
:104F200042F00102C3F8102526B12A680123A340EC
:104F3000C2F8043302B0BDE8F08146B915491648FD
:104F400040F20E4202F0C4FF40F20E41C1E720469B
:104F5000FFF78EFC114B083033F81030C3F3820397
:104F6000042B12D0052B12D001A80194FFF7B0FC3E
:104F7000019BD0F81015D94001F001010231204603
:104F800002B0BDE8F04103F07CB90321F7E702214C
:104F9000F5E700BF978F00005B89000084050020C3
:104FA0002DE9F74F564B574FD3F80403396DC0B274
:104FB00040F00040FFF75AFD051E18DA0023F96D96
:104FC0000093684603F06CF94FF0010897F85C30E5
:104FD000DB075DD4396D4FF00040FFF747FDF96DF9
:104FE000684603F05DF90028F0D125F00045012462
:104FF000002D6CD103B0BDE8F08F94FAA4F4B4FA9C
:1050000084F42046FFF734FCE10808301DF8013035
:1050100037F81090019404F0070208FA02F223EA2C
:10502000020301A80DF80130FFF752FC019B03F5C4
:10503000E0734FEA990B50F82360C9F3820A1BF022
:10504000040FD146C6F3014626D051462046FFF74D
:105050007DFC01A80194FFF73BFC019B03F5E07385
:10506000F6B250F82330C3F301439E4207D100212A
:10507000204603F006F93146204603F002F901A864
:105080000194FFF725FC019B08FA03F3C0F82035D3
:10509000009C002CB1D19DE7022E0CD103212046AB
:1050A00003F0EFF80AF00503012BE8D1494620464A
:1050B000FFF74CFCE3E70221204603F0E2F8BAF1E7
:1050C000030FF3D0032EDAD1BAF1020FEDE795FA10
:1050D000A5F3B3FA83F304FA03F29B0003F18043D0
:1050E00003F5C04325EA0205D3F81005D3F81015DF
:1050F000C0F30420C1F30141FFF728FC78E700BFAB
:10510000006000408405002001460148FFF7A2B975
:10511000EC05002001238340C3F3120201462AB1AB
:10512000034A0448C2F80835FFF7B8B90248704787
:1051300000F00140EC0500200400AD0B01460148E1
:10514000FFF788B9E8050020C30003F1804303F5A9
:10515000F833012201465A600148FFF79FB900BFAA
:10516000E805002070B51D4A0C68B2FBF4F304FB9F
:1051700013258DBB94422FD85C1E1C402CD1B3F557
:10518000007F29D802684D79D2F80465097926F0A4
:10519000030601F003013143C2F80415D2F80815E3
:1051A00093FAA3F321F0030105F00305B3FA83F3A7
:1051B0002943C2F80815C2F810350068402300F5ED
:1051C0008072D450D1580433582BFAD140F30730B1
:1051D000FCF712FD024870BD0248FCE70024F40011
:1051E0000000AD0B0400AD0BF8B541B91C491D48DA
:1051F0007C2202F06DFE7C21194802F060FE0579E8
:10520000194C0C236B43E618377A3FBBE2508B688E
:1052100073600368154A93420BD002F580529342A3
:1052200007D002F58052934203D002F580329342B8
:1052300002D14B79032B06D909490A48942202F07E
:1052400047FE9421D8E7FFF78DFF0C2303FB0544AD
:10525000074BC21A534253412372F8BD0548FCE77D
:10526000E98F00005B8900004C11002000800040A5
:105270000000AD0B0C00AD0B10B50C4B02790C21EE
:1052800001FB0232127A012A08D009490948D222C8
:1052900002F01EFE0648D22102F011FE04682260D0
:1052A000027901FB023302221A7210BD4C11002058
:1052B000E98F00005B89000010B50C4B02790C21CE
:1052C00001FB0232127A42B909490A48DB2202F094
:1052D000FFFD0748DB2102F0F2FD04680122226194
:1052E000007901FB00331A7210BD00BF4C11002081
:1052F000E98F00005B890000F8B5144D03790C2795
:1053000007FB035304461B7A43B911491148BC22D9
:1053100002F0DEFD0E48BC2102F0D1FD006840F332
:105320000730FCF777FC23680026D3F80022C3F887
:10533000006223684FF0FF32C3F808232046FFF7CE
:10534000BBFF237907FB03552E72F8BD4C110020DB
:10535000E98F00005B89000070B5144C05790C26BC
:1053600006FB0544247A54B9114912484FF495724A
:1053700002F0AEFD0E484FF4957102F0A0FD4FF41F
:10538000803405688C4073B18B0003F5A073002650
:10539000EE50EB580368C3F80443036801F5A871A5
:1053A00043F8212070BDC5F80843F6E74C110020F2
:1053B000E98F00005B8900002DE9F041154E077967
:1053C0004FF00C0E0EFB07661C46367A9DF818301F
:1053D00056B91149114840F2451202F079FD0E48C4
:1053E00040F2451102F06BFDD0F800E040F20117E9
:1053F000DEF800628F4026EA0706CEF800620568F4
:10540000D5F800623443C5F80042BDE8F041FFF72B
:10541000A3BF00BF4C110020E98F00005B89000092
:105420000149024802F07DBF4C110020008000407D
:105430000149024802F075BF5811002000A0004049
:1054400008B5144BA8220021184603F0C2F8032225
:10545000026111494261114A8161C2614FF4806267
:105460000262002282624262C26201660C494166A7
:105470001021816603460267C2664267BFF35F8FF1
:10548000084911F8010D98540132102AF9D1BFF3DF
:105490005F8F08BD1004002026900000100000203F
:1054A000000000203F90000010B4BFF35F8F0B4A54
:1054B0000B490023C85C12F8014D844209D1013325
:1054C000102BF7D10023BFF35F8F23B110BCFFF780
:1054D000B7BF0123F7E710BC704700BF3F90000043
:1054E0001004002008B5084A084B93420AD908491D
:1054F0000848182202F0ECFC0548182102F0DFFCF5
:105500001433F2E7FCD308BD548700000487000081
:10551000409000005B89000070B50446EFF31186EF
:10552000402383F31288BFF36F8F0C4B9D6802F00A
:105530001CFE042C08D10A490A48872202F0C8FC44
:105540000748872102F0BBFC86F31188BFF36F8FF9
:105550002846BDE87040FCF7F5BA00BF6411002092
:10556000639000005B89000038B5094B53F8204078
:10557000013053F82050A54200D838BD636823B1EC
:10558000204602F037FF0834F5E723689847FAE72A
:105590001089000070B5354B354C364D012286B070
:1055A00003201A70FFF7E0FFFCF76CF802F03EFFF3
:1055B0000420FFF7D9FFAC42264624D92E492F48B4
:1055C000422202F085FC42212B4802F078FC54F87C
:1055D0000C3C059354F8103C049354F8143C03938A
:1055E00054F8183C029354F81C3C019354F8203CA6
:1055F000009354E90A2354E90C0100F019FE54F811
:10560000303C5E65D7E7AE4204F13004DFD301F0F1
:105610001FFA174C1A4EAC421BD91749174866227D
:1056200002F056FC6621CFE7D4E90A23B3F1FF3F2D
:1056300008BFB2F1FF3F05D052EA0301206803D151
:1056400001F0DEFB3034E6E73146183001F090FE21
:10565000F8E7E9D301F04AFAFAF75EFF094A137B4B
:1056600023F00103137306B070BD00BFA81600201D
:105670005487000054870000859000005B8900007B
:1056800039850000280D002008B50348034A002191
:10569000121A02F0C7FE08BD78070020AC160020E1
:1056A00070B5002386B00122CDE90423134E144DBA
:1056B00001930F22CDE902321249142303FB005556
:1056C00006EBC01604464FF4A07000FB04110E4B0D
:1056D00000954FF48072304600F0AAFD737B0B4AB0
:1056E000EE6023F0040373734FF4046304FB03338D
:1056F00013442C746B6006B070BD00BFA80C002072
:1057000064110020001F0020E9570000C01600208F
:10571000BFB50020FFF728FF2B4B83F308882B4DE4
:105720002B4E6B692B4F43F400736B61E02385F8BC
:10573000223000242023EB772C766C76AC766B6AD3
:1057400043F4E0236B6285F82340FCF777F9FCF71C
:1057500013FB4FF0FF33AB62EB62FCF7F5FBFCF79A
:105760002FFB1D4BB36040F201129A81C3E918442C
:10577000DC66FFF7B7FE0120FFF7F6FE0220174DAB
:10578000FFF7F2FE01F022FA154B75610593012334
:1057900014490094CDE903434FF480623B46CDE9C0
:1057A0000144284600F044FD6A7B064622F00402CC
:1057B00028466A7300F02AFF2046FFF771FF3A4639
:1057C00031462846FCF7BAFA001F002000ED00E041
:1057D0006411002095550000A80D0020280D002020
:1057E000A69000004020002008B50C4B9B6893F960
:1057F0000E30002B09DB4024EFF3118384F3128871
:10580000BFF36F8F02F002FCF6E7054905481B2243
:1058100002F05EFB02481B2102F051FB64110020E4
:10582000AB9000005B8900002DE9F3410446174668
:105830001E46EFF3058545B1514952486F2202F0EB
:1058400047FB4F486F2102F03AFBEFF311884023EA
:1058500083F31288BFF36F8F4B4801F013FD38B903
:105860004A494848882202F033FB88214748EAE742
:10587000454801F02BFDE368454A9BB1A06891685B
:10588000884224D057EA060329D13F4801F008FD99
:10589000A0B188F31188BFF36F8F6FF00F0002B0D3
:1058A000BDE8F081916891F90E103748216101330C
:1058B000E3609368A36001F0F3FC50B933493148C9
:1058C00040F2311202F004FB40F23111CEE72169BF
:1058D000EBE788F31188BFF36F8F0020DFE791F9C2
:1058E0000E1090F90E309942A8BF19466FF07E0253
:1058F0009142B8BF11468B4202DD02F098FD054689
:10590000CDE9007620482246414600F02BFF0028D2
:10591000E3D0EFF31186402383F31288BFF36F8F38
:10592000194801F0AFFC00289AD0174801F0CEFCCE
:10593000A068C0B1236821699C420AD04BB193F999
:105940000E309942A8BF19466FF07E039942B8BF46
:10595000194602F06CFD30B10B48314601F02CF8CD
:105960006FF00A009BE7002DF6D1074801F098FC84
:105970000028A3D086F31188BFF36F8FF0E700BF34
:10598000CC9000005B89000084110020EF8A0000A9
:1059900064110020F8B50546EFF3058343B149498A
:1059A0004948D72202F094FAD721464802F087FAF4
:1059B0008368002B7FD0454A926893427ED1C368AA
:1059C00033B940494048EF2202F082FAEF21ECE778
:1059D000012B03D0013BC3600020F8BDEFF311871A
:1059E000402484F31288BFF36F8F394801F04AFCDA
:1059F00038B938493448882202F06AFA8821354893
:105A0000D4E7334801F062FC2969A86802F00FFD71
:105A1000EFF3118384F31288BFF36F8F83F3118840
:105A2000BFF36F8F3BB92C492748B02202F050FAE0
:105A3000B0212948BAE72C68A5420FD10023C5E957
:105A40000233234801F02CFC80BB22491E4840F25F
:105A5000311202F03DFA40F23111D0E7002CEDD0C6
:105A6000A36833B91C491848992202F031FA9921E8
:105A7000DFE7D4E9003213605A60637B002623F02D
:105A800002036373C4E90066A66004F1180001F024
:105A900019FDAC6094F90E302B612046A66700F02A
:105AA000B5FD0B48394600F087FF95E787F311886D
:105AB000BFF36F8F90E76FF015008EE74FF0FF3068
:105AC0008BE700BFCC9000005B89000064110020D0
:105AD00084110020EF8A0000EE90000008B5836872
