:10000000803900209D1C000025AF0000891C0000E5
:10001000891C0000891C0000891C000000000000F1
:10002000000000000000000000000000751E00003D
:10003000891C000000000000411E0000891C000017
:100040004D200000593A00004D2000004D200000D6
:100050004D2000004D2000004D2000004D200000EC
:100060004D2000004D200000315900004D200000BF
:100070004D2000004D2000004D2000004D200000CC
:100080004D2000004D2000004D2000004D200000BC
:10009000BD3A00004D2000004D2000004D20000022
:1000A0004D2000004D2000004D2000004D2000009C
:1000B0004D2000004D2000004D2000004D2000008C
:1000C0004D2000004D2000004D2000004D2000007C
:1000D0004D2000004D2000004D2000004D2000006C
:1000E0004D2000004D2000004D2000004D2000005C
:1000F0004D2000004D2000004D2000004D2000004C
:10010000014B1B689B681847C0040020014B1B680B
:100110001B691847C0040020014B1B685B69184726
:10012000C0040020014B1B689B691847C0040020D5
:10013000014B1B68DB691847C0040020014B1B689A
:100140001B6A1847C0040020014B1B68DB6A184774
:10015000C004002010B4034C2468E468A44610BC1A
:10016000604700BFC004002030B50346114890F935
:100170001C209A4219DD90F924209A4217DA9A1A23
:10018000846AA05C0C4A15569D420DD00E3200299F
:1001900018BF01309442C0B206D129B1013BDBB295
:1001A000012B01D80130C0B230BD0D20FCE700208A
:1001B000FAE700BFC00800208CB7000008B5054B67
:1001C00093F91C30984203DAFFF7CEFF024B1B561F
:1001D000184608BDC00800208CB7000010B51C4CA4
:1001E00094F82C3073B9012384F82C3000F09EF879
:1001F00048B1184BA362D823236284F82430082323
:10020000A361237710BD00F0A7F80028F1D100F01A
:10021000ADF80028EDD100F06BF838B10E4BA362B9
:10022000D823236284F824300423E9E700F06AF835
:100230000028F3D100F070F80028EFD100F080F82A
:100240000028EBD14FF4DF71742000F019F800BFE3
:10025000C0080020C7B700009AB70000BFF34F8F57
:100260000549064BCA6802F4E0621343CB60BFF352
:100270004F8F00BFFDE700BF00ED00E00400FA056E
:100280001FB572B6134B5D688DB9FFF7E7FFB2FB80
:10029000F6F2DCB20133002AF9D104F110036B4409
:1002A00003F80C2C0A2234B901A8A847EDE702464E
:1002B00000230A26EDE7631E04AEDCB256FA83F390
:1002C000B0FBF2F602FB1600303003F80C0C30469F
:1002D000E9E700BF180D00204FF08052034BD2F821
:1002E00030111960D2F834215A607047540D002043
:1002F000034B1868A0F10F0358425841704700BFE4
:10030000540D0020034B1868A0F10A0358425841CD
:10031000704700BF540D0020034B1868A0F10E0376
:1003200058425841704700BF540D0020034B1868D5
:10033000A0F1100358425841704700BF540D0020EF
:10034000044B1868062803D0431C58425841704794
:1003500001207047540D0020034B1868A0F10D03D5
:1003600058425841704700BF540D0020034B186895
:10037000A0F1080358425841704700BF540D0020B7
:1003800008B5FFF7A9FFBDE80840FFF727BF801AAF
:1003900000F3070038B540B20D4659B21446FFF7D6
:1003A0000DFF0023287020446B7040B238BD00233D
:1003B000036070477047002070474FF0FF30704770
:1003C0004FF0FF3070477047002070474FF0FF300C
:1003D000704700207047002070470023037070476B
:1003E0000022FFF7D4BF002070474FF0FF30704766
:1003F0004FF0FF3070474FF0FF30704770470028D4
:100400000CBF6FF0150000207047002070470723D5
:1004100003700020704700207047002070470000E4
:1004200008B50378022B06D1034803F051FE10B93A
:10043000024B01221A7008BDDD220020DC220020C0
:1004400008B503685909024613D0012906D103F003
:100450001F034FF6FF71D940C80712D40A490B4851
:100460004FF46C720AF0DCFC07484FF46C710AF030
:10047000CEFC4FF0FF31D940C907EFD54FF0A04077
:1004800000E00348136008BD10BB000043BB000040
:100490000003005007B5019001A8FFF7D1FF019BB1
:1004A00000EB8300054BD0F80027134043F0030313
:1004B000C0F8003703B05DF804FB00BFF0F8FCFFA4
:1004C00030B5144A144B154D8BB0CDE90123144AB5
:1004D0001068516803AB03C31C460FCD0FC42B68D3
:1004E0002360104A0692012305A88DF815308DF877
:1004F000263003F0EDFC58B901A803F0B5FE38B979
:1005000002A803F0CBFE18B9082103A803F0E0FE0F
:100510000BB030BD3344BB01DEF0122370B70000D6
:100520005BBB0000210400002DE9F74F4FF01023C2
:10053000D3F88440D3F88850601C39D1691C6FD03F
:10054000FF26EFB2B046B146FF2F61D14FF0010A4E
:100550000AF009FC002840F0CD80FFF7B1FF002829
:1005600040F0C880282003F0DBFE03F001FE0028E5
:1005700040F0C080DFF884B1614C05469BF8002054
:1005800002F0FF030193002A7ED000218BF80010B7
:1005900003F066FC10225B4800210AF0FFFFA27AFC
:1005A000019B042A4FD8DFE802F042757D85930055
:1005B000C4F30726C4F307484FEA146AE4B2FF2CD9
:1005C000EFB205D02046FFF765FF20460AF0BEFBDC
:1005D000FF2E05D03046FFF75DFF30460AF0A9FB3D
:1005E000B8F1FF0F04D1BAF1FF0F08D1D146ABE744
:1005F0004046FFF74FFF40460AF0A8FBF3E750469E
:10060000FFF748FF50465FFA8AF90AF092FB9BE732
:10061000EDB22846FFF73EFF28460AF08AFB95E731
:10062000FF27B946B8463E464FF0000A90E7354AE4
:1006300001211170217A517002215171E1791171FA
:10064000617991711D46BAF1000F17D0637ADA070C
:10065000484649D40AF06DFB637A9B07384646D476
:100660000AF067FB55B1FF2E02D030460AF06EFB50
:10067000B8F1FF0F02D040460AF05BFB214800F0C2
:1006800053FC204800F064FB002140F6CD4006F00A
:1006900091FF73E71B4A217A5170E17911716179F9
:1006A0005171CFE7174B02221A70227A5A70627981
:1006B0005A71C8E7134A03211170217A5170E17908
:1006C000117161795171A17991710A219160B9E734
:1006D0000C4B04221A70227A5A7062791A71A2792C
:1006E0005A710A229A60AEE70AF030FBB4E70AF0CA
:1006F0002DFBB7E703B0BDE8F08F00BFDC22002080
:10070000DD220020F80F00200B4B00224FF0FF31BC
:10071000C3F80022C3F80813C3F81021D3F810213E
:1007200001221A61D3F81021002AFBD00022C3F85D
:100730001021D3F8103170470010004010B5FFF7BA
:10074000E3FF044B1B6823B11B6813B1BDE81040E5
:10075000184710BD0810002010B51C4BD3F8042317
:10076000D104044616D5D3F830219AB10022C3F83B
:100770003021174AD3F8303113680133136082688F
:1007800042B1934213480CBF002240F6CD420023F1
:1007900006F01CF80D4BD3F80423120714D5D3F838
:1007A0000C218AB10022C3F80C210B4AD3F80C317A
:1007B000136801331360A268934205D1FFF7A4FFC9
:1007C000E368BDE81040184710BD00BF00100040AE
:1007D00010100020080500201410002073B5124BE3
:1007E000124C187020460D4604F0E6FF104B002610
:1007F000D3F80022C3F800624FF0FF32C3F8082399
:10080000294620460AF084FD012302460093204633
:1008100040F20113314605F04FF8204602B0BDE822
:10082000704004F0A9BF00BF0423002028B80000D6
:100830000080004010F1280F10B5044648D000F1A8
:100840001E03DAB2262A3ED8262B3CD8DFE803F076
:10085000423B3B3B3B3B3B3B3B3B143B3B3B253B1E
:100860003B3B273B3B3B293B3B3B2B3B3B3B3E3B0B
:100870002D2F313335373900EC23184AC2F80C35A7
:10088000174B1B7843BB214616480AF0B3FA2146A2
:100890001548BDE810400AF0ADBAF023EDE7F423A7
:1008A000EBE7F823E9E7FC23E7E70223E5E7032387
:1008B000E3E70423E1E70523DFE70623DDE707237A
:1008C000DBE70823D9E709480AF094FA0023D4E7C4
:1008D000D823D2E7E223D0E710BD00BF00100040CC
:1008E00003230020A3BB0000C8BB000064BB0000C2
:1008F000444B40F20122C3F850260022C3F83425AD
:10090000C3F83825C3F82C250122914284B0C3F8DE
:10091000302528D0022920D0002958D1AB22C3F895
:1009200024254FF0AB32C3F81C250023FF22CDF85D
:1009300005308DF808204FF48272ADF80A200628A1
:100940004FF00102CDF801308DF80C2010D80428AA
:100950003FD851D04FF4837317E0CC22C3F824253D
:100960004FF0CC32DFE76A22C3F82425264ADAE7C3
:100970000F28EFD102228DF805207F22ADF80A3032
:100980008DF80C308DF808208523204A13809DF8BF
:1009900007309DF804205B0743EA82539DF8052049
:1009A00043EA0263174A43F00803C2F814359DF87E
:1009B0000A309DF80B101B0443EA01639DF80810F0
:1009C0000B439DF80C1043EA4163C2F8183504B09C
:1009D000704740F20232ADF8042003228DF8072060
:1009E000ADF80A20074A40F20311C2F83415C2F8E4
:1009F00038354FF48B73C8E78DF8052040F20713A4
:100A0000C3E700BF001000401B81FE58B822002041
:100A100038B50D46FFF76CFF0D4C0F2814BFFF23B0
:100A20007E23012D237010D0022D08D01DB9FF2187
:100A3000601C0AF0C3FA074BC3F8044538BDFF2217
:100A4000CC21601C0AF0AAFDF5E7FF22F021F8E7AF
:100A500005240020001000400F2808B50DD1A1F199
:100A60000B030F2B1AD801EB810101F62E110D4B50
:100A7000A1F51661C3F8081508BD01F5166140F629
:100A8000C4139942F3D90849084840F2F2620AF0C7
:100A9000C7F9054840F2F2610AF0B9F940F665116C
:100AA000E5E700BF00100040EABB000043BB0000C8
:100AB00010B5294CBFF35B8F54E8003F23F480321C
:100AC00044E800210029F7D1BFF35B8FD80304D598
:100AD000224B2349187803F067FFBFF35B8F54E87C
:100AE000003F23F0040244E800210029F7D1BFF3BE
:100AF0005B8F590705D5194B1A4A1B4918780AF01C
:100B000019FBBFF35B8F54E8003F23F0100244E869
:100B100000210029F7D1BFF35B8FDA0605D50F4B13
:100B2000124A114918780AF005FBBFF35B8F54E8AD
:100B3000003F23F4807244E800210029F7D1BFF37D
:100B40005B8FDB0507D5054B064A09491878BDE8D8
:100B500010400AF0EFBA10BD0C1000200223002054
:100B6000008000400010004000410140041000409F
:100B70004081004070B51B4D0446FFF799FF28786F
:100B800054B3194A19490AF0CBFA04230126184C28
:100B9000BFF35B8F06FA03F354E8002F1A4344E8CF
:100BA00000210029F8D1BFF35B8F1249287803F0A8
:100BB000F3FEBFF35B8F54E8003F43F4803344E817
:100BC0000032002AF7D1BFF35B8F287806FA00F0D5
:100BD000BDE8704003F0D4BE074A04490AF0A0FA09
:100BE0000223D3E70223002004100040004101400B
:100BF0000C100020008000400010004070B5114C27
:100C0000054616460846FFF77FFDC4F81055D4F890
:100C1000003243F00103C4F80032FFF70BFE284610
:100C2000094D3146FFF718FF2B7843B10020FFF73D
:100C3000A1FF2B781BB1054B01221A6070BD012367
:100C40002360FBE700100040032300200040014028
:100C50002DE9F0411B4C17460E461D46FFF754FD8B
:100C6000C4F81005D4F8003243F02103C4F8003270
:100C7000154BC4F804353946FFF73AFE3146FFF705
:100C8000EBFE124B124E00221A604FF48053C4F850
:100C90000433337883B10120FFF76CFF33785BB105
:100CA0000C4B01221A6055B1BDE8F0410A484FF4DF
:100CB000A022002305F08ABD01236360F3E7BDE8AD
:100CC000F08100BF0010004005230020101000201C
:100CD000032300200040014008050020B0F5A07F5C
:100CE00010B50C4619D10978032917D1154B607836
:100CF00094F9041001221A70134B1A78FFF77EFF43
:100D00006279A0790F4B002119700F490B780133DC
:100D1000DBB2834298BF1A460A7010BD04290CD179
:100D2000084B09496078097801221A70227900235A
:100D3000FFF78EFF22796079E4E7BDE810400348B1
:100D40000AF058B803230020042300201EBC000032
:100D50002DE9F3410378052B40D8DFE803F0030CBD
:100D60004952595C427990F90410407802B0BDE8CC
:100D7000F041FFF743BF4479457890F904708679D4
:100D8000D0F80880FFF7C0FC28462146FFF740FE58
:100D9000062D5B4C25D8042D25D9D4F8003243F418
:100DA000001343F00103C4F800323846C4F810556C
:100DB000FFF740FD31462846FFF74EFE514A00231B
:100DC0001360C4F80C31D4F80C31B8F1000F02D024
:100DD0000823C4F804334A4B01221A6002B0BDE86C
:100DE000F0810F2DD9D0D4F8003243F02103DAE797
:100DF000836802794179407802B0BDE8F041FFF79D
:100E000027BF8168407902B0BDE8F041FFF7E6BC3A
:100E100081680079F7E7447890F80580856890F953
:100E200004708679FFF770FC20464146FFF7F0FD1D
:100E3000334BC3F81045D3F8002242F00302C3F845
:100E400000223846FFF7F6FC31462046FFF704FE45
:100E50002D4B2E4A1B5D12882D485343C5F1640467
:100E60005C43B4FBF5F41C4404F0A6FC0020FFF73F
:100E700081FE284B2648D3F8002200254FF0FF3290
:100E8000C3F800522146C3F808230AF02FFA009550
:100E9000024602231E48012104F00EFDEFF31186E5
:100EA000402383F31288BFF36F8F1B4B1B4C01252C
:100EB0001D60207803F05AFD20B1207805FA00F07B
:100EC00003F064FDFFF7F4FD0D4A154920780AF0A0
:100ED00027F9BFF35B8F134B53E8001F41F4807178
:100EE00043E80012002AF7D1BFF35B8F237801207B
:100EF000984003F045FD86F31188BFF36F8F6DE7CF
:100F000000100040141000207BBC0000B82200201C
:100F100028B800000080004000400140022300206B
:100F2000448100400C10002030B51B4A87B04FF4BC
:100F30000073CDE90323059003A9184A0446184815
:100F400004F0CEFB174B9842014602D0164809F038
:100F500051FF002205210820002500F0CBFF234689
:100F6000124A00950521012009F0E7FF012000F059
:100F700091FF0F480AF0E9F80A4B984206D00D4855
:100F800009F038FF6FF00D0007B030BD0A4B0C348C
:100F90001C602846F8E700BF40420F00DD0C00004F
:100FA00028B800000000AD0B38BC00005907000055
:100FB0000223002059BC000008100020B2F5802F49
:100FC0002DE9F0410AD33449344840F2EB1209F0DC
:100FD00027FF40F2EB11304809F019FF042A08D826
:100FE0002D492E484FF4F97209F01AFF4FF4F971A8
:100FF000F1E7043ACD1D8E1825F0070526F0070607
:10100000761B172E4FEAD60708D82349234840F20B
:10101000FB1209F005FF40F2FB11DCE7B7FA87F499
:10102000C4F12002C4F12404A4000734E408631CC2
:101030004FF00008BB420560AF60C5F80C8008D9CE
:10104000154916484FF4037209F0EAFE4FF4037194
:10105000C1E74146920005F110000AF09FFA6300D3
:1010600043F001036B8005EBC4023B1B5900A5F85C
:1010700000805180AA1925F83440A2F80280AB53B1
:1010800005EBC70321465A8842F001025A802846E0
:10109000BDE8F04109F085BE8BBC000043BB0000F9
:1010A000014B1B68184700BF3805002030B585B0DC
:1010B00004460D461022002168460AF06FFA02230A
:1010C0008DF802302A46044B01932146684609F008
:1010D000D3FB05B030BD00BFA110000080B50546B0
:1010E0000E461746984606F093FA03460AF0C2FAEF
:1010F000DFF81890044649F8003042463046394639
:10110000A84754F8090000F049FE00BF080000009D
:1011100008B50446EFF31183402383F31288BFF32D
:101120006F8F02F0B1FA204600F0E2FD024809F0AC
:1011300061FE09F017FFFCE7AEBC00002DE9F84F97
:1011400004460846A38B1907164612D4022803F05A
:10115000070162D1204609F070FE88B101380428E9
:1011600000F22581DFE810F0590023017E00C8005D
:10117000F50001280CBF43F0100143F02001A183CA
:1011800004F1140006F0CCFB002800F0AB8086F3DD
:101190001188BFF36F8FBDE8F88F03F00702501F6F
:1011A00001281ED80020062A2768C4E9000014D1AF
:1011B0003A4603E0E08B0130E0831268002AF9D15F
:1011C00023F0070343F00202A283204609F035FE14
:1011D00090B342F02002A2832EE023F007039AB2DC
:1011E000F2E7042A33D123F007039AB2A283204600
:1011F00009F023FE10B142F02002A283A38B03F07A
:101200000709894540F0DC80A18BCA0640F12181A5
:1012100021F01003A38301F00701D4F81880A38BF9
:10122000B8F1000FB9DA0022276823F00703C4E9F8
:10123000002243F00103A383A38B03F00709894530
:1012400040F0BF80002FDFD00025AA4640E085494E
:10125000854840F21B1209F0E3FD40F21B11814862
:1012600009F0D5FD41B17F497F484FF4AB7209F0D9
:10127000D7FD4FF4AB71F2E7236843B979497A4857
:1012800040F2571209F0CCFD40F25711E7E723690D
:101290001D6845B9734974484FF4AD7209F0C0FD3B
:1012A0004FF4AD71DBE7A38B23F0070343F0060394
:1012B0009BB2A3830F4688464FF00609A268002A16
:1012C00040F08180002F40F08180002D9CD0BA46F4
:1012D00043F0080304F1140BA383584606F020FBE7
:1012E000002875D16149604840F2311209F098FD3B
:1012F00040F231115D48B3E7022908D059495A48F4
:1013000040F25D1209F08CFD40F25D11A7E7E78B1A
:1013100047B1544954484FF4AF7209F081FD4FF47E
:10132000AF719CE723695D6845B94E494E4840F26C
:10133000611209F075FD40F2611190E7A38B23F073
:10134000070343F004039BB2A383B8464FF004099C
:10135000B4E7012908D0434943484FF4B27209F079
:101360005FFD4FF4B2717AE7236843B93D493E48C7
:1013700040F2651209F054FD40F265116FE72369F0
:101380009D6845B9374938484FF4B47209F048FDB3
:101390004FF4B47163E7A38B23F0070343F0050315
:1013A0009BB20027A383B8464FF0050986E72D4975
:1013B0002D4840F26B1209F033FD40F26B114EE7FD
:1013C000002700257AE74FF0010A81E792467FE780
:1013D00086F31188BFF36F8FBAF1000F16D147BBA8
:1013E00015B123492046A847EFF31186402383F324
:1013F0001288BFF36F8F584606F084FA08BB1B496A
:101400001948882209F00CFD882173E7A16800299A
:10141000E5D00E680029E2D0D1F804A043464A4640
:101420002046D0471EB1336831461E46F2E73346A8
:10143000FAE7394643464A4620463F6809F029FD07
:10144000CDE7584606F082FAA38B23F00803A38366
:10145000DAE68B067FF594AE21F02003A38301F03A
:10146000070177E6D7BC000043BB0000FCBC0000CE
:1014700075140000F8B504460D4600F11406EFF3AC
:101480001187402383F31288BFF36F8F304606F035
:1014900039FA40B909490A48882209F0C1FC0748CD
:1014A000882109F0B4FC304606F050FAA5613A46AE
:1014B00020460121BDE8F840FFF740BEFCBC00001B
:1014C00043BB00002DE9F04704460F4609F0D1FC6C
:1014D000051E5DDB04F11409EFF3118A402383F349
:1014E0001288BFF36F8F484606F00CFA804638B971
:1014F00033493448882209F093FC882130483CE085
:10150000484606F023FAE38BA68B4FF6FF72934210
:1015100006F007063FD0022E10D10133E383354693
:10152000484606F0FDF900283BD12549254840F200
:10153000311209F075FC40F23111DFE7062E13D8A5
:10154000DFE806F0092C1212090409006FF0850586
:101550004FF00008E4E700233B6063687BB9C4E90F
:1015600000777EB13546F3E7174916484FF4E47229
:1015700009F056FC14484FF4E47109F048FC1F6070
:101580006760EEE7524602212046FFF7D7FD354659
:101590002846BDE8F0876FF00A05D9E76FF004052B
:1015A000D6E78AF31188BFF36F8FB8F1000FEFD041
:1015B000002332463946204609F06BFCE8E700BFBD
:1015C000FCBC000043BB0000D7BC0000F8B50546DA
:1015D00000F11406EFF31187402383F31288BFF361
:1015E0006F8F304606F08EF938B92049204888229E
:1015F00009F016FC88211D4825E0304606F0A6F9C2
:10160000AC8B04F00704022C12D0012C0CBF6FF03D
:1016100004046FF08504304606F082F908BB1349D4
:10162000134840F2311209F0FBFB40F23111E2E7BE
:10163000EB8B53B90F490E4840F2EF1209F0F0FB63
:101640000C4840F2EF1109F0E2FB013B9BB2EB8347
:10165000002BE0D13A4621462846FFF76FFD204691
:10166000F8BD87F31188BFF36F8FF8E7FCBC00006B
:1016700043BB0000D7BC000008B54268816002F09F
:101680000302032A034602D02AB1002000E00068CA
:1016900000225A6008BD04490448452209F0C0FBF5
:1016A0000148452109F0B3FB29BD000043BB000000
:1016B000014B03600020704730B8000008B50448B3
:1016C00009F098FBBDE80840024809F093BB00BF51
:1016D0004FBD000084BD0000014806F0CBBC00BF38
:1016E00030B8000038B5044618B90F4B0F485B6896
:1016F00098476168B1F5683F10D0B1F5680F0DD01B
:101700000B4DA9420AD011F46861206807D0014648
:10171000084804F05FFB00232360656038BD142295
:1017200009F03CFFF9E700BF38060020B2BD000019
:101730002C5F5CA91815002008B520B34368B3F5E9
:10174000683F10D101220368BFF35B8F53E8001F8D
:10175000002903D143E800200028F7D1BFF35B8FB5
:101760000DD1002008BD094A93420AD000684FF00D
:10177000FF324FF0FF3304F0B5FB0028F1D00448EE
:10178000F0E70448EEE76FF4E040EBE72C5F5CA97C
:10179000E98FFFFFEA8FFFFF08B5D8B14368B3F5C3
:1017A000683F10D100220368BFF35B8F53E8001F2E
:1017B000012903D143E800200028F7D1BFF35B8F54
:1017C0000BD1002008BD074A934208D0006804F0FE
:1017D0003FFCF6E76FF4E040F4E70348F2E7034824
:1017E000F0E700BF2C5F5CA9E98FFFFFEA8FFFFFE6
:1017F00010B5044618B91D4B1D485B6898476368CF
:10180000B3F5683F2FD0B3F5680F2CD0194A934237
:1018100019D1236803BB18484FF0FF324FF0FF3354
:10182000214604F065FA08B923681BB90F4B134829
:101830005B68984720681422002109F0AFFE4FF43E
:101840006863636008E0B3F5683F0DD83A2B03D0B6
:1018500040F6BA629342DED1206809F0D2FD636897
:1018600043F03A03636010BD054AF3E738060020F1
:10187000B2BD00002C5F5CA918150020D8BD000087
:101880003A00003A08B5064906484023142209F0F8
:10189000A1FDBDE808400449044806F0AFBC00BF04
:1018A000181000201815002038B800004CB80000AF
:1018B0002F2808B508D905490548142209F0B0FABF
:1018C0000248142109F0A3FA08BD00BF05BE0000BC
:1018D00043BB000070B506460C46154600F0FCFA06
:1018E00040B109490948172209F09AFA0648172118
:1018F00009F08DFA3046FFF7DBFF054B43F8305017
:1019000003EBC0035C6070BD34BE000043BB00004D
:10191000A806002030BFFFF7FDBF00BF2DE9F04152
:101920000B4EDFF8308006EB0807CC1B054632462D
:101930000949204609F00AFEA01942460021083C48
:1019400009F02CFE2C6707F10800BDE8F08100BF0C
:10195000000000000400000070B70000074A936810
:1019600093F90E10002907DB526993421FBF044A06
:10197000536843F080535360704700BFA0170020A6
:1019800000ED00E0F8B52D4B15469A6A12F0100FE5
:101990009A6A14BF1124102412F0080F9A6A18BF13
:1019A0001224970706460AD5586B9A6A140634D54E
:1019B00019B19A6A22F080029A62132401E06FF052
:1019C00015001E4B9A6A12F0010F9A6A18BF142470
:1019D00012F0200F9A6A18BF1524D10602D49B6A10
:1019E0009A070AD5154F7B681B0506D5314600F0CE
:1019F000E3FAA8B180F309880224104B9A6A920690
:101A000042BF5A6A22F400525A629A6A42F0FF02B6
:101A10009A6200232B702046F8BD6FF01500CCE7CA
:101A2000BB6AD906E9D50649064840F25D1209F0BD
:101A3000F7F9034840F25D1109F0E9F900ED00E023
:101A400061BE000043BB0000134B9A6A12F0007F96
:101A50009A6A14BF1E201D2012F0807F9A6A18BF58
:101A60001F2012F4002F9A6A18BF212012F4802F31
:101A70009A6A18BF222012F4003F9A6A18BF2320E6
:101A800012F4803F9A6A6FEA02426FEA12429A6247
:101A900018BF2420704700BF00ED00E010B5194BBF
:101AA0000246986A9C6A10F4805F14BF17201620C3
:101AB00014F4006F9C6A18BF1820A40509D5986B10
:101AC000986A000404D51AB19A6A22F400429A6214
:101AD00019200C4B9A6A12F4806F9A6A18BF1A2068
:101AE000D2050CD49B6A13F4005F18BF1C20054A72
:101AF000936A43F47F43936200230B7010BD1B2055
:101B0000F5E700BF00ED00E0F0B5564B5B688BB029
:101B10000446C3F30803002585F31188BFF36F8FD4
:101B200002F07F40B0F17F4F08D102F00C0008288E
:101B300004D012074CBF0C46012554B94A494B4802
:101B40004FF48B6209F06CF94FF48B61464809F051
:101B50005EF90022033B8DF80720032B7BD8DFE8DA
:101B600003F00272765D3F4AD36A13F0020372D12A
:101B7000D16A00291ADBD36A5B005BD55369A1697E
:101B800043F480735361BFF34F8FBFF36F8F53697B
:101B900031F8021C23F480735361BFF34F8FBFF3FE
:101BA0006F8F4DF6027399421FD123689DF807206D
:101BB000CAB902AE04F1200720686168324603C248
:101BC0000834BC421646F7D1099A002D45D0C2F31D
:101BD000080121B96FEA52226FEA4222099202A952
:101BE000184609F095F90BB0F0BD936ADBB23BB132
:101BF0000DF1070201212046FFF7C4FE0346D5E799
:101C0000936A13F47F4F05D00DF107010120FFF710
:101C100045FFF3E7936AB3F5803F02D3FFF714FF64
:101C2000ECE71149114840F22A3209F0F9F840F284
:101C30002A318BE70C490D4840F22E3209F0F0F8BA
:101C400040F22E3182E70DF107020021D3E70DF1BA
:101C500007010020DBE70023A8E722F4FF7222F04F
:101C60000102BBE700ED00E061BE000043BB0000E5
:101C7000044B5A6942F010025A615A6922F0080274
:101C80005A61704700ED00E0EFF30880EFF309813F
:101C900001B57246FFF738FF01BD00BF002080F399
:101CA0001488BFF36F8F02F039FD00200D490860E2
:101CB000BFF34F8F0C4880F3088800F03DF84020B8
:101CC00080F3118809484FF40461401880F30988B3
:101CD000EFF314800221084380F31488BFF36F8F61
:101CE00000F032F994ED00E080390020C027002098
:101CF000BFF34F8F0549064BCA6802F4E0621343F5
:101D0000CB60BFF34F8F00BFFDE700BF00ED00E0E9
:101D10000400FA050749D1F890200023C2F30722F6
:101D20001846934200DB7047C1F89830C1F8A00014
:101D30000133F6E700ED00E008B572B6002383F347
:101D40001388FFF7E7FF144B4FF0FF32C3F88020F2
:101D5000C3F88420C3F88820C3F88C20C3F89020EF
:101D6000C3F89420C3F89820C3F89C20C3F88021BE
:101D7000C3F88421C3F88821C3F88C21C3F89021CB
:101D8000C3F89421C3F89821C3F89C2162B6BFF32D
:101D90004F8FBFF36F8F08BD00E100E0084B9B68D9
:101DA00083420BD1EFF3058343B1064B5A6842F0EF
:101DB00080525A605A6A22F400425A6205F02EBCE0
:101DC000A017002000ED00E0094A93686FF00A01B7
:101DD0009967084958674B6843F080534B6000236C
:101DE00083F31188BFF36F8F9368986F704700BFBC
:101DF000A017002000ED00E010B50446EFF31183BA
:101E0000402383F31288BFF36F8F0A4B58699860A1
:101E1000094B4FF000625A60084B026F1A600022B3
:101E2000436F426783F31188BFF36F8F00F02CF983
:101E3000204610BDA017002000ED00E0381500205E
:101E40000B498A684FF030001044EFF3098C80E8AA
:101E5000F01F74467046FFF7CFFFA64604498A6814
:101E600002F1300090E8F01F8CF309887047000001
:101E7000A01700201EF0040F0CBFEFF30880EFF353
:101E80000980816911F8021C0229FFD001B509F00F
:101E900045F801BD40B2002807DB044A410901238F
:101EA00000F01F00834042F82130704700E100E05D
:101EB00040B200280CDB4309064900F01F00203324
:101EC0000122824041F82320BFF34F8FBFF36F8F71
:101ED000704700BF00E100E0054B420900F01F0021
:101EE00053F82220012303FA00F01040704700BF8E
:101EF00000E100E008B5D3070BD40231072909D966
:101F00000E490F48582208F08BFF0C48582108F062
:101F10007EFF002140B20028ACBF00F16040094BB9
:101F20004FEA4111B8BF00F00F00C9B2AABF00F5D7
:101F30006140195480F8001308BD00BF93BE000033
:101F400043BB000014ED00E00B4A08B50B4B22F038
:101F50007F029A60BFF34F8FBFF36F8FD3F8882053
:101F600022F47002C3F8882003F0F0FD05F0F6FCBF
:101F700000F060F803F02EFE0000000000ED00E02D
:101F800042F8203C009B42F81C3C0A49019B42F865
:101F9000183C029B42F8143C21F001014FF0807381
:101FA00042F8043C42F8081C0023203A02654367CB
:101FB000704700BFDD100000094A0346906870B109
:101FC00013F1160F006E05D0A0F140029A4205D819
:101FD000834203D2814228BF00207047002070470F
:101FE000A017002008B515460B4A0C4B9060026FF5
:101FF0001A600E4600F048F82C4686F309884FF028
:102000000000074B984720464FF000014FF00002B8
:102010004FF00003034C2047A01700203815002084
:1020200057AF0000DD100000014B10221A6170470D
:1020300000ED00E0044800234021C2180133302B9A
:1020400082F80013F9D1704700E100E008B5EFF322
:102050000583064A103B02EBC30152F8330049687E
:102060008847BDE80840FFF779BC00BFA8060020FC
:10207000024B034A0348012100F076B80000042017
:10208000000000205CB80000026E054B403A1A6068
:10209000044A4021C3E901121846012100F080B82A
:1020A0003C15002000000B15084AC2F898000B6888
:1020B00023F01F03034343F01003C2F89C308B68E6
:1020C00043F00103C2F8A030704700BF00ED00E00C
:1020D0002DE9F043DFF8608085B00E461F460446C8
:1020E0004FF00009B14523DA6068D8B13FB1411E15
:1020F00008421BD11F2819D92368194216D1236819
:10210000019308F04BFFA36803430393D8F8905062
:10211000C5F30725D0B2013DA84207D801A9FFF7B2
:10212000C3FF421C09F101090C34DBE76FF0150213
:10213000104605B0BDE8F08300ED00E0044B052239
:10214000C3F89420BFF34F8FBFF36F8F704700BF6A
:1021500000ED00E0BFF35F8F024B0022C3F8942034
:10216000704700BF00ED00E010B50A4C0123227853
:10217000FFF7AEFF207016300AD1074907484FF429
:10218000B47208F04DFE04484FF4B47108F03FFEFD
:1021900010BD00BF05250020CABE000043BB0000E3
:1021A00008B5114A00231278FFF792FF10F1160FBD
:1021B00008D00E4A0021D2F89030C3F3072398428A
:1021C0000BDB08BD0A490B4840F2871208F028FED5
:1021D000074840F2871108F01AFEC2F89800C2F8CA
:1021E000A0100130E7E700BF0525002000ED00E06A
:1021F000CABE000043BB00002DE9F04F6D4B6E4C92
:10220000D3F890302568C3F307239D4285B00AD9DF
:102210006A496B4840F29F1208F002FE40F29F119B
:10222000664808F0F4FDFFF795FF00200C26854274
:1022300029D1644C644F25706846FFF739FADFF8FE
:102240007481DFF8889106460025AE4222D12378BA
:1022500058490020D1F89020C2F307229342C0F2DF
:102260009E80FFF76BFFD1F89030C3F30723082B54
:1022700000F09B805149524840F20F2208F0D0FDF7
:1022800040F20F21CCE7616806FB0011FFF70CFF5D
:102290000130CCE7009A02EB05132901D3F80CA01A
:1022A0000AEA0700B0F5000F5CD00AD8B0F5001FAD
:1022B00036D0B0F5800F48D0B0F5801F12D0013570
:1022C000C3E7B0F1807F58D0B0F1007FF7D19868B4
:1022D000D3F804A0525808F061FECDE901A240F401
:1022E00080200BE09868D3F804A0525808F056FEFE
:1022F000CDE901A240F0885040F430200390D8F896
:1023000090302078C3F30723013B984240D92B49F2
:102310002B4840F2C91208F083FD40F2C9117FE753
:102320009868D3F804B0525808F038FE1AF0010F3C
:1023300040EA0900CDE901B20390E0D01F492048EE
:102340006D2208F06DFD6D216AE79868D3F804A04E
:10235000525808F023FE40F0E060CDE901A240F4BD
:102360000030CBE79868D3F804A0525808F016FE66
:10237000CDE901A240F08270C0E79868D3F804A0CC
:10238000525808F00BFECDE901A240F08870B5E785
:1023900001A9FFF789FE2378013323708FE7C1F885
:1023A0009830C1F8A000013354E7002005B0BDE823
:1023B000F08F00BF00ED00E068B80000CABE00006A
:1023C00043BB0000052500200000F0FF00000811BD
:1023D00008B50649064821F00701C1F1005202F58F
:1023E0008022FEF7EBFD002008BD00BF073E002065
:1023F00048150020024B0122C3F8402500207047F9
:1024000000E0014020B1034B800143F00103184775
:10241000704700BF20B80000F7B506460D461446C9
:10242000194F384608F094FF40B91849184814224B
:1024300008F0F6FC1548142108F0E9FCAAB2BB68C4
:102440001B683BB9134912485B2208F0E9FC1148AC
:102450005B21F1E7314638469847002802DB00202F
:1024600003B0F0BD002CFBD1AC42F8D22F1B042FDF
:1024700028BF042708F02AFE3A46019001A9301926
:1024800009F064F83C44EFE748B7000008BF0000DB
:1024900043BB000041BF000037B50C460A490B4A58
:1024A000411A40230093491105462346084808F085
:1024B00088FD011E05DA2846234603B0BDE83040FA
:1024C000184703B030BD00BF681500202DB00000D4
:1024D000F8B60000C9B2012908B508D90849094869
:1024E0007A2208F09DFC06487A2108F090FC0369E6
:1024F0000C2201FB0233986C00F0070008BD00BFFE
:1025000075BF000043BB000070B5C9B20129036963
:102510000AD91849184840F25D1208F081FC1548A4
:1025200040F25D1108F073FCEFF31185402484F351
:102530001288BFF36F8F0C2606FB0134A46C14F0D5
:10254000C00408D0A24206D085F31188BFF36F8F74
:102550004FF0FF3070BD06FB013301229A6485F312
:102560001188BFF36F8F436803EBC1035B68984723
:102570000020EFE775BF000043BB000070B50D46BB
:102580000649411A0446491105484022FFF7BCFF9D
:102590002B4601462046BDE87040184768150020CC
:1025A000F8B60000002270B5012104461046FFF77E
:1025B000A1FC114802F078FA104B984218D120691A
:1025C00000F014FA02F082FA26690D49304608F04C
:1025D00076FC00280BDB0125B5642469084904F169
:1025E000200008F06CFC002801DB6565002070BD50
:1025F0006FF00400FBE700BFB92600000000AD0B40
:1026000088B800001FB500220123CDE90223094A42
:10261000CDF800D06B46CDF804D008F000FD0028BE
:1026200005DB4FF480420023684603F0C9FD05B086
:102630005DF804FB3FB0000010B5EFF311844023B8
:1026400083F31288BFF36F8F074A136823F00201E8
:10265000DB07116002D4012002F0C6FA84F311886E
:10266000BFF36F8F10BD00BFC015002030B4104BFA
:102670000C2202FB003301460020D3E910521864FB
:10268000EFF31180402484F31288BFF36F8F9C6CAA
:1026900004F0C00444F002049C6480F31188BFF38A
:1026A0006F8F1DB12B46034830BC184730BC7047B4
:1026B00068150020F8B60000012810B504460AD0BD
:1026C00004280CD078B90E4B9B6C5B0716D1BDE883
:1026D0001040FFF7CBBF00F097F92046F7E7BDE8C1
:1026E000104000F09FB90749074840F2722208F0F5
:1026F00097FB044840F2722108F089FB10BD00BF2F
:102700006815002075BF000043BB000010B4EFF354
:102710001182402383F31288BFF36F8F174801683B
:1027200041F002040460C80707D482F31188BFF3A4
:102730006F8F012010BC02F0EDB94FF08041D1F84D
:102740000C04D1F80C14C907EFD5EFF3118083F313
:102750001288BFF36F8F0A498B6C03F0C00343F0FC
:1027600002038B6480F31188BFF36F8F82F31188AB
:10277000BFF36F8F002010BCFFF778BFC01500209B
:1027800068150020024BC0B203EB4010704700BF39
:1027900068150020F8B53349BFF35B8F0646012268
:1027A00051E8003F41E800200028F9D1BFF35B8FDA
:1027B0009BB92D492D484B60CB608A60FEF782FEA5
:1027C00000280ADA2A492B484FF40C7208F028FB3B
:1027D0004FF40C71264808F01AFB06B3731E012B48
:1027E00037D808F052FE0446D0B9234B1B78BBB152
:1027F0004FF080430222C3F8082305464FF080477C
:10280000D7F81824D7F81834D20312D59B0701D073
:10281000012E0ED1BCB185F31188BFF36F8FF8BDC7
:10282000EFF31185402383F31288BFF36F8F0124E8
:10283000E4E71CB1284608F0A2FBE1E700212120D3
:1028400004F0B8FEDCE74FF080430222C3F8042313
:10285000E5E70749074840F2422208F0E1FA40F272
:102860004221B7E764150020541500208815002088
:1028700075BF000043BB0000AC27002008B5134B18
:10288000BFF35B8F012253E8001F002903D143E807
:1028900000200028F7D1BFF35B8F15D10C4900232E
:1028A000CB600C4B4B6003238B600B4B1868FEF71F
:1028B00009FE002808DA094909484D2208F0B0FA53
:1028C00006484D2108F0A3FA08BD00BFE01500201E
:1028D000C8150020C1290000C4150020C1BF000098
:1028E00043BB000007B500220023CDE900230D48BB
:1028F0004FF40032002305F0F7FA0B4B1868FEF78F
:1029000065FE002808DA09490948552208F088FAC6
:102910000648552108F07BFA064B00221A6003B0E6
:102920005DF804FB38080020C4150020C1BF00007A
:1029300043BB0000E0150020F7B51C4E1C4CB768E7
:102940001C4DFB683C213046984740B10023237062
:102950002B8002F063F90123237003B0F0BD0C213A
:102960003B696A46304698470028EFD1124A019BDE
:1029700093FBF2F3009A217803EB82031BB2B5F9C3
:1029800000200029E4D09A1A002AB8BF524212B29D
:10299000012ADDDC094A1368013901332170136013
:1029A00003B0BDE8F040FFF79DBF00BF5CB700007B
:1029B00006250020BA22002090D00300D815002060
:1029C00008B5074808F0C4FC28B902F027F9054B00
:1029D00001221A7008BDBDE80840034803F02ABE72
:1029E0005CB70000062500205C050020034B044A6C
:1029F000186000231360034A13607047C415002059
:102A0000DC150020D8150020024B00221A70FFF7B9
:102A100035BF00BF06250020014808F07BBD00BF80
:102A200038080020024A136801331360FFF75ABFC9
:102A3000DC150020EFF31182402383F31288BFF3EB
:102A40006F8F0A4BD3F8001161B10021D3F808054C
:102A5000C3F80011D3F80031C0B282F31188BFF37C
:102A60006F8F70476FF00A00F7E700BF00D000409B
:102A7000F0B5034610469C7893F803C0EFF311823B
:102A8000402585F31288BFF36F8F1F7893F801E01C
:102A9000E41B04EA0C04A04288BFA0B23E180CEA72
:102AA00006063D461E7082F31188BFF36F8F0A1829
:102AB0008A4216D177450CD1EFF31182402181F380
:102AC0001288BFF36F8F1978597082F31188BFF3A2
:102AD0006F8F1B79241AA34222BF064B01221A6072
:102AE000F0BD5E190135767901F8016B05EA0C0538
:102AF000DEE700BF00D000402DE9F0472D4D006912
:102B0000A8420E4614460AD02B492C4840F2031224
:102B100008F086F9284840F2031108F078F9DB4301
:102B200013F0010504D02030FFF7A2FFBDE8F087C5
:102B30009AB3EFF31188402383F31288BFF36F8FAA
:102B40000D20FFF7C9F907460D20FFF7B1F988F30B
:102B50001188BFF36F8FDFF868A0DFF86880CAF8CC
:102B60000051DAF800314FF400590123CAF800305F
:102B70002546C8F88091DAF8003183B1FFF75AFF93
:102B8000031EC8F88091F6DB013DADB27355002DF0
:102B9000F1D117B10D20FFF77DF92046C6E7EFF31D
:102BA0001180402383F31288BFF36F8F08F0E7F999
:102BB000E1E700BFE415002002C0000043BB0000B5
:102BC00000D0004000E100E02DE9F041184B07691A
:102BD0009F420D46144605D107F135085CB92046E1
:102BE000BDE8F08113491448E52208F019F91148AD
:102BF000E52108F00CF94FF0FF334FF0FF32384673
:102C000003F0DEFA224629464046FFF731FF06462A
:102C1000384603F08FFA3EB94FF0FF324FF0FF33E2
:102C2000064803F0CDFAE6E7A41BA4B23544D5E785
:102C3000E415002002C0000043BB0000F415002092
:102C400038B51F4B04699C420AD01E491E4840F209
:102C5000471208F0E5F81B4840F2471108F0D7F892
:102C600001221146204608F0D3FB0122002104F185
:102C7000100008F0CDFB40F2074323874FF070634C
:102C800023620C2384F824300025104B84F835503F
:102C9000E586D3F8042522F00102C3F804250121BA
:102CA000C3F80051D3F80021C3F804132A46196071
:102CB0000D20FFF71FF90D20FFF7ECF8284638BD6F
:102CC000E415002002C0000043BB000000D000401B
:102CD00010B5FFF7AFFE002820DB174B93F822203A
:102CE00093F8214093F82310141B31EA0404C0B276
:102CF0000DD193F8372093F8364093F83810141B11
:102D000031EA04040BD10D4B01225A600EE09C18ED
:102D10000132114084F8250083F8221010BD9C1860
:102D20000132114084F83A0083F837100448BDE8B6
:102D3000104003F0FFB900BFE415002000D00040B0
:102D4000F4150020F7B50F46164640B91749184844
:102D5000182208F065F81821144808F058F8E1B96D
:102D600012491348192208F05BF81921F4E7331BC4
:102D7000B3F5806F38BF1D462A4601AB39190020D4
:102D800005F0B0F968B9019B9D420AD12C44A642D6
:102D9000EDD809D0162003B0F0BD4FF480650024B3
:102DA000F5E76FF01500F6E70020F4E744C00000F7
:102DB00043BB000010B5036941B91C491C483E22C1
:102DC00008F02EF83E21194808F021F8486830B97B
:102DD000164917483F2208F023F83F21F3E75868C7
:102DE000F8B1884219D19C6808685860A14200D1A6
:102DF0009860002008602AB15A680A609A68596091
:102E000002B99960002010E0814206D10868206074
:102E100098688142EDD19C60EBE704460068002889
:102E2000F2D1002AE8D16FF0150010BD84C0000077
:102E300043BB000038B545682B69B3B1103528464F
:102E400002F072FA044680B90146284602F032FACE
:102E5000084B98420BD108492246284602F0FAF95D
:102E6000224605210620FFF745F8002038BD6FF007
:102E70000400FBE70000AD0B4931000008B5036812
:102E80005909024613D0012906D103F01F034FF65A
:102E9000FF71D940C80712D40A490B484FF46C722D
:102EA00007F0BEFF07484FF46C7107F0B0FF4FF01A
:102EB000FF31D940C907EFD54FF0A04000E00348EB
:102EC000136008BD10BB000043BB000000030050AE
:102ED000F0B54068057B01F01F0444EA451405691C
:102EE00087B0002D5CD0B2F5001F00F1100506D1AF
:102EF0002146284608F0CAF9002007B0F0BD01AE0F
:102F00000027B2F5800F0197776034D1B3F1007FCD
:102F100014BF052304238DF804300023CDE9046396
:102F200003938368CB40D90717D4B2F1A07F14D1A3
:102F300068460094FFF7A2FF009B03F5E07350F88A
:102F40002330DB0709D46A462146284602F088F977
:102F5000164B98421AD0CDF808D003AA214628462D
:102F600002F048F8124B98421DD101222146284612
:102F700002F0F0F9C0E7B3F1C06F05D0B3F1007F04
:102F800014BF01230223C6E70323C4E7694628468A
:102F900002F0DAF9064B9842DDD06FF00B00ACE797
:102FA0006FF08500A9E76FF01500A6E70400AD0BF0
:102FB0000000AD0B2DE9F043466840F20635337B47
:102FC000D00687B001F01F0702EA050547EA43175C
:102FD00054BFC2F340130323B5F5837F14468DF825
:102FE000033045D00FD8062D18D007D8B5B1022D23
:102FF00040D06FF0150007B0BDE8F083B5F5807FD5
:10300000F7D101250AE040F20222954234D0B5F50D
:10301000407F33D0B5F5007FEBD102250123220399
:1030200003FA01F12CD57368C3F8081533696BBB3B
:1030300003A80397FFF722FF039B00EB830084F4B0
:103040008033C3F30043C4F34044D0F8002744EA7C
:1030500043049DF8033022F4E16244EA830422F041
:10306000070244EA05231343C0F800370020C2E7F3
:103070000725D3E70425D1E70525CFE70325CDE7CD
:10308000630344BF7368C3F80C15CFE710360DF126
:1030900002023946304602F0E3F814F4403F80461D
:1030A00016D13946304608F0EFF8244B9845DDD16B
:1030B0009DF80210304602F041F94045D6D0204933
:1030C0002048EC2207F0ACFE1D48EC2107F09FFEE3
:1030D00001AB4FF0000903AA39463046CDE9043967
:1030E000CDE90199CDF80C9001F084FF134B984283
:1030F0007FF47FAF14F4003315D09DF803308DF8C2
:103100000E3084F48034C4F300444B4603AA39469D
:1031100030468DF80C508DF80D4002F01FF8074B2B
:103120009842C2D065E7CDE9043303AA0DF1030349
:1031300039463046039301F05DFFF0E70000AD0B28
:10314000C0C0000043BB0000420970B5034602D076
:10315000012A1AD070BD124E326951680029F9D087
:1031600003F01F0301250C689D400029F2D08A68F6
:103170002A400ED04B6853B90A490B48612207F028
:103180004FFE0848612107F042FE084EE4E7304652
:1031900098471CB1236821461C46E6E72346FAE718
:1031A00020B7000084C0000043BB00000CB7000043
:1031B000014B01221A60704700C000400C290369CE
:1031C0000BD15B6A064907484B4393FBF0F100FBC8
:1031D000113311605360002070476FF08500704715
:1031E00090D0030040420F00044B00690022C3F856
:1031F0000021D3F8003102F09DBF00BF00C00040A5
:103200007FB50569AB6A002B40D03C2901D00C2961
:103210003FD105F110064FF0FF324FF0FF3330463B
:1032200002F060FE1C4B019300240323A86A039460
:1032300069460293FEF746F9A04208DA1749184892
:103240003D2207F0EDFD3D21144807F0E0FD4FF071
:10325000FF324FF0FF33284602F0B2FFA86AFEF7B4
:10326000B5F9002806DA0D490D48422207F0D8FDCD
:103270004221E9E70B4BD3F808256A6201225A6024
:10328000304602F0E5FE204604B070BD6FF00A0043
:10329000FAE76FF08500F7E7B131000008C10000E0
:1032A00043BB000000C0004010B504690020FFF7D8
:1032B00069FAA06240B910491048772207F0B0FDC2
:1032C0000D48772107F0A3FD4FF0FF320021204683
:1032D00008F09EF804F1100008F093F80022012194
:1032E0000C20FEF707FE0C20FEF7D4FD044B012254
:1032F000C3F80423002010BD08C1000043BB000038
:1033000000C0004070B40E49D1E90034D01AC3188F
:1033100044F1000422F07F46C1E90034A6F5001311
:10332000B3F5400F09D2074B1B681A0A1B069C19FC
:10333000054B42F10005C3E9004570BC04F056BCE2
:10334000A80D002074160020B00D00200D4B186849
:10335000010A0006BFF35F8F0B4BD3F80435181832
:1033600041F10001B3F5801F0AD2084BD3E90023D5
:10337000904271EB030303D210F1807041F1000120
:10338000704700BF7416002000100140B00D0020EF
:103390002DE9F7432B4CD4F8043399070BD5D4F817
:1033A000043143B1284A0023C4F80431D4F804316D
:1033B000136801331360D4F80433DA0323D5BFF361
:1033C0005B8F224B53E8002F22F0010143E80010ED
:1033D0000028F7D1BFF35B8FD30702D4D4F8403174
:1033E0008BB10025C4F84051D4F84031FFF7AEFF4F
:1033F000EFF3108272B6164BD3E90267B042B941BF
:1034000004D282F3108803B0BDE8F0834FF0FF3898
:103410004FF0FF39C3E90289D3E900101D604FF472
:103420008033C4F84833C4F84051D4F8403182F3B3
:1034300010880029E7D0009032463B46284688474E
:10344000E1E700BF00100140741600206C16002058
:10345000980D00202DE9F84F4B4DBFF35B8F0646CA
:103460000F4655E8008F28F0010345E80032002A96
:10347000F7D1BFF35B8F454C4FF48039C4F8089304
:10348000BFF35F8FBFF36F8FFFF760FFB04271EB49
:10349000070308F0010840D23D4B301A67EB0101E9
:1034A000984271F100014CD23A4BD3E902239F427A
:1034B00008BF96423ED04FF0000CC4F84893C4F8C1
:1034C00040C126F07F40D4F84031DFF8CCA08346DD
:1034D00003216FF0020E2BF07F43C4F84035C4F88F
:1034E0004493D4F80425AEEB02035B4423F07F43FE
:1034F00053451FD9D4F840315BB1D4F80425131AD1
:1035000023F07F43B3F5000F14D9C4F840C1D4F8B9
:10351000403101EB020B0131DDE7204BBFF35B8F44
:1035200053E8001F41F0010143E80012002AF7D1DF
:10353000BFF35B8F174B1A4A1A60C3E90267002278
:103540005A60B8F1000F1CD0BFF35B8F55E8003F05
:1035500043F0010345E80032002AF7D1BFF35B8F47
:103560004FF48033C4F804330C4BBFF35B8F1B68FC
:10357000BFF35B8FDB0742BF0A4B4FF40032C3F847
:103580000021BDE8F88F00BF701600200010014038
:1035900001008000980D0020FDFF7F006C160020C8
:1035A0000533000000E100E070B5194C194BC4F878
:1035B0000833C4F84833184B00254FF0FF304FF064
:1035C000FF31C4F80855C3E902014FF48033C4F851
:1035D0000433124B02264FF40032C4F80463012175
:1035E000C3F8802111202A46FEF784FC1120FEF743
:1035F00051FC01230A4AA36000212360094813609B
:10360000FFF728FF3046FFF7C5F8284670BD00BF1A
:103610000010014003000F00980D002000E100E0C1
:1036200070160020FFFF7F00431C10B50F4C05D023
:103630008442A8BF0446012CB8BF0124FFF786FED0
:103640000B4AD2E90031C01AB0F5000F074A0AD27E
:103650002044904228BF1046C018BDE8104041F1F8
:103660000001FFF7F7BE1046F6E700BFFFFF7F003F
:10367000A80D002008B5FFF769FE024B1B68C01AB1
:1036800008BD00BFA80D002010B5084C01236360E1
:103690001120FEF70DFC064BC4F80833C4F848337C
:1036A000044B4FF40032C3F8802110BD00100140DC
:1036B00003000F0000E100E00B4B0C4A1B7AC2F83C
:1036C0001035042B0DD8DFE803F008030C080300C5
:1036D000074BA0221A6001207047054B4FF49672E9
:1036E000F8E70020704700BF6C1700200010004072
:1036F00080160020044A0023C2E908339362034A7B
:10370000C2E9083393627047381700200C17002075
:10371000054B1B68D3F80423920342BF0022C3F871
:103720004421D3F8443170479C05002010B5FCF7C4
:10373000F9FC0C4C0C490D48FCF7EEFC40F2171359
:10374000C4F800320A4A0B4B507C1B6898470A4B5E
:10375000C4F80435094B0A4A1A600A4B04221A704D
:1037600010BD00BF001000406C05002058B90000DB
:103770006C170020781600205F2700207C160020A0
:10378000253C0000A327002008B5084B1B68012238
:103790001A61FCF7CDFCFCF7C5FC00F0F3FD03203B
:1037A000FCF7CCFCBDE80840FCF7AABC9C05002057
:1037B00008B507490748FCF7AFFC38B900F0C6FD6B
:1037C000054B1B6840F20442C3F8002208BD00BF4D
:1037D0006C05002058B900009C05002038B51C4B32
:1037E0001C4C1B6801251D6100F0CCFDFCF7A0FC02
:1037F000FCF786FC00221146284600F045FE40F208
:103800001313C4F80032144A144B507C1B689847B9
:10381000134BC4F804350023C4F81031D4F8103128
:103820002561D4F81031002BFBD00022C4F8102100
:10383000D4F8103140F21713C4F8003211460120B9
:1038400000F0B6FDFFF7B4FF064B01229A6138BDC8
:103850009C050020001000406C1700207816002006
:103860005F270020004001402DE9F843224BDFF89C
:103870008C801A78012A81460F4630D198F80030A2
:10388000C3F3050203F03F03202B33D81C4B196A06
:1038900053F821301A701A4D1A492C6A55F82460D1
:1038A0003046013410F8052B07F050FE164B86F811
:1038B0000190D3F84835377103F07F03B37098F85F
:1038C0000130DB4303F00103F370AB6A082C28BF1F
:1038D000002401332C62AB620120BDE8F883084A62
:1038E000116A52F82120597809B91170D3E75B7C2D
:1038F0001370D0E70020F0E76C1700205F2700204E
:103900000C170020612700200010004007B5114B64
:103910001148DA7C90F90A00002302F5166201A929
:10392000FCF718FC9DF80500FCF70EFC50B10B49A4
:103930000B484FF4477207F073FA08484FF4477189
:1039400007F065FA9DF80420064BC3F80C2503B078
:103950005DF804FB840500206C17002050C10000B6
:1039600043BB000000100040837842781B0443EA08
:10397000022302781343C27843EA0253027943EAEE
:103980008253427943EA0263827943EA8263C279CD
:1039900043EA4273094AC2F81435837A417A1B0418
:1039A00043EA0123017A0B43C17A43EA0163017BB5
:1039B00043EA4163C2F81835704700BF0010004069
:1039C0001FB504460D220021684607F0E7FD0A4BAB
:1039D00000930A4B5B7CE0B2013B8DF808008DF848
:1039E00009008DF80A30684601238DF80B30FFF787
:1039F000BBFF04B010BD00BF000101008405002022
:103A00001FB50023CDF80930CDF80130CDF80530D1
:103A100003238DF8023006238DF800300C4B5B7CBD
:103A2000013B8DF80A3020238DF80830094B1B7AB2
:103A3000012293428DF80B2007D18DF805206846AE
:103A4000FFF792FF05B05DF804FB042BF5D0F6E715
:103A5000840500206C170020684620F007018D4681
:103A600019B5144BD3F80423D2060BD5D3F8102183
:103A700042B10022C3F81021D3F810310E4B1B685D
:103A800003B198470B4CD4F804331B070BD5D4F87B
:103A90000C3143B1084B1B6803B198470023C4F8AD
:103AA0000C31D4F80C31FDF759FFBDE819408546BB
:103AB000704700BF001000407C160020684620F0D0
:103AC00007018D4631B5194B82B01B680193EFF3A6
:103AD0001181402383F31288BFF36F8F144B0022B0
:103AE0001D681A6081F31188BFF36F8F114C236832
:103AF000ABB1E90703D58DF8002068469847AA07BF
:103B000005D501238DF800306846236898476B0778
:103B100005D502238DF80030684623689847FDF7E5
:103B20001DFF02B0BDE83140854670478416002075
:103B300088160020681700200146C80708B506D57A
:103B4000314807F0CBFA314B00BAC3F81C058A079D
:103B500006D52F4807F0C2FA2C4B00BAC3F820054F
:103B60004B070AD52B48294907F0B8FAC1F82405B4
:103B7000294807F0B3FAC1F828054FF08053D3F86D
:103B80003021082A3ED1D3F83431052B3AD8234AC4
:103B9000D35CBBB31C4B224A5B7C052B1B4BD3F87D
:103BA0001C15D3F8200518BF4FF07F424140114249
:103BB00028D1D3F82415D3F82825C1F30720CBB298
:103BC000834214D0C1F30740834210D0B3EB116F8E
:103BD0000DD0D1B28B420AD0C2F307218B4206D05E
:103BE000C2F307418B4202D0B3EB126F0AD1074AEE
:103BF000D2F8743723F0807323F0010343F080730D
:103C0000C2F8743708BD00BF8405002000100040D2
:103C1000880500208C0500209005002071C100005F
:103C20000000FFFF2DE9F84F7B4AD2F8007417F02F
:103C3000010703D1BDE8F84FFFF7D0BDDFF8DCA1E5
:103C4000DAF82830072BF5D8D2F80834744DDFF8AD
:103C5000D491D2F80C4499F80120DBB2C2F34101AF
:103C600035F8230084424FEA830640F0AB80A81960
:103C70008078814240F0A680B8460027AA196A4C95
:103C80009170654AD2F80C2425F82320A37C23B137
:103C900099F80130DB0740F1BC80FCF749FA634931
:103CA0006348FCF733FA5C4B40F21B12C3F8002266
:103CB00094F800B05F4CBBF1000F00F09B80BBF1AB
:103CC000010F55D1DFF870C1D3F80814DCF82830A3
:103CD000002B00F085805948C9B250F82120002AF5
:103CE0007ED0DFF85CB1D2F800E0CBF800E005EB65
:103CF000060E9EF803E0BEF1000F17D0B8F1000FDA
:103D000014D182F8048050F82120013B926840F8D9
:103D10002120CCF82830002B57D002B11268CBF804
:103D20000020484A136843F001031360464BDBF858
:103D300000801A68AB19B8F1000F48D00121D97082
:103D400098F800009047DBF8001023780A783F4885
:103D500062F30503237011F8052B07F0F7FB637876
:103D600099F8012023F0070302F007021343637060
:103D7000374B05221A70FFF7C9FD274BD3F80824EB
:103D8000D2B2C3F82C25C3F80445324B324A1A602C
:103D9000B7B1214BD3F80804DAF828303544072BA3
:103DA000A9780DD8C0B2FFF75FFD48B1254A136866
:103DB00043F004031360294B4FF48012C3F8002131
:103DC000BDE8F88F4FF0000858E74246A7E783F8B0
:103DD000038040469047237868F305032370BEE7CD
:103DE000AB194FF0000883F80380174B40461B685F
:103DF0009847F0E7144B58461B68984799F80030ED
:103E0000227884F801B0C3F3010363F30102227046
:103E1000AEE7FFF7E3FCBBE7001000400C17002003
:103E2000BC2200205F2700206C1700206C050020BA
:103E300040B9000081270020381700208C16002090
:103E400064170020881600207816002083270020A1
:103E5000A32700207C1600202D37000000E100E0A1
:103E600010B500F0B3FBFFF78FFC134801F0C4FC62
:103E700000F0D6FB114A1248D2F8503623F0010365
:103E8000C2F850360F4B00241C700F4B21461C709B
:103E9000FFF730FC202207F081FB0C4B01201C6057
:103EA0005C60FEF705F81420FEF702F8BDE810404C
:103EB0000A20FDF7FDBF00BF9C0500200010004058
:103EC000BC220020A3270020A42700205727002081
:103ED000F0B5044685B0002800F0C580634D2B780E
:103EE0000BB1FFF7BDFF624B62681A60614A23465F
:103EF00004F11007164618685968144603C40833BD
:103F0000BB422246F7D1186820605B4B5B48002417
:103F1000202221461C6007F041FB594B59491C6087
:103F20005C60FFF7C9FB337883B1012B01D1564B9D
:103F30000B60727A554B012A00F08880022A07D064
:103F40007AB9C3F83C25C3F8342508E0504BEFE7B5
:103F50004FF6FF70C3F83C05C3F834254D4AC3F84B
:103F600038250B68707C9847484B4B494B484FF0BD
:103F7000E732C3F81C254FF04332C3F82025484AE6
:103F8000C3F82425474AC3F82825FFF7B3FB0A46A0
:103F900000230133082B40F8042B02F12502F8D14D
:103FA000414A424800230133082B40F8042B02F118
:103FB0002502F8D100223E4B14460132082A19602E
:103FC0001C719C6001F1250103F10C03F5D1202245
:103FD0000021384807F0E2FA374B384A3848019355
:103FE00001A9CDE9024401F07BFB364B984235D163
:103FF00000F0A8FA044698BB00F0E4FA324B2349DB
:104000005860D1F85026F37C22F001021343C1F826
:104010005036012108462246FDF76CFF2246022158
:104020001420FDF767FF224602210A20FDF762FFF8
:104030000120FDF72FFF1420FDF72CFF0A20FDF7CC
:1040400029FF224B1C7001232B7009E0FF20C3F8CD
:104050003C05C3F8342540F2071280E76FF00D04E9
:10406000204605B0F0BD6FF01504F9E7A427002045
:10407000681700206C17002088160020BC22002042
:104080005727002078160020013A00000010004059
:10409000C1390000211001002F2600203817002010
:1040A000E743C323A363E313072500200C17002075
:1040B000AC1600208C16002040420F001137000083
:1040C0009C0500200000AD0B6C050020A3270020FC
:1040D00038B5254B1B78002B3CD000283DD0234C15
:1040E000A36A002B3CD0EFF31185402383F31288A1
:1040F000BFF36F8F636A54F823301A780270636AD3
:1041000054F823305B784370636A54F8233093F992
:1041100002308370636A54F823301B790371636A39
:1041200054F82330DB78C370636A54F823100530E9
:10413000053107F00BFA636A0133082B28BF00230F
:104140006362A36A013BA36285F31188BFF36F8F9B
:10415000002038BD6FF00C00FBE76FF01500F8E7AA
:104160006FF03C00F5E700BFA42700200C170020EB
:1041700038B5334B1A7802F0FF05002A5DD1314C77
:1041800031494FF0FF32C4F80823C4F81051D4F875
:1041900010212E4A116040F21712C4F8002210229A
:1041A000C4F8042304221A70294B9A7CC4F83025E1
:1041B000DA7C40F6C41102F516628A420AD9254912
:1041C000254840F2F26206F02BFE224840F2F261EE
:1041D00006F01DFEA2F51662C4F808251433BFF3DD
:1041E0005B8F53E8001F21F0010143E80012002A11
:1041F000F7D1BFF35B8F194BC4F80435184B02227B
:10420000C3F880210120FDF745FEC4F80451D4F81D
:104210000431C4F80851D4F80831C4F810512A46C2
:1042200001202946D4F8103100F0C2F8FFF7C0FA97
:104230000C4B01229A61284638BD6FF00F00FBE756
:10424000A327002000100040253C00007C16002021
:1042500084050020EABB000043BB00005F2700206C
:1042600000E100E00040014010B50A4B1B7803F06C
:10427000FF0443B950B1084B02681A600120FFF7F0
:104280005BFC204610BD6FF00F00FBE76FF01500E0
:10429000F8E700BFA32700208405002010B50A4BD3
:1042A0001B7803F0FF0443B950B1084B02685A6011
:1042B0000220FFF741FC204610BD6FF00F00FBE726
:1042C0006FF01500F8E700BFA32700208405002049
:1042D00038B5104B1B780C4603F0FF059BB9A8B10D
:1042E000082913D80A4601460B4807F02FF90B4A54
:1042F000FF231474C4F10804234104209374FFF7CE
:104300001BFC284638BD6FF00F00FBE76FF015006F
:10431000F8E700BFA32700208C05002084050020BB
:104320006428034607D8074A127802F0FF002AB92A
:10433000054AD37470476FF0150070476FF00F0097
:10434000704700BFA327002084050020094B0A49BD
:104350001A78D30003F1804303F5F833C3F810153E
:104360000649C3F8141501239340054AC2F80435E1
:10437000704700BFA72700201841014000A000405F
:1043800000F00140084B09491B7801229A40DB00EC
:1043900003F1804303F5F833C1F808250022C3F880
:1043A0001025C3F814257047A727002000F001400E
:1043B000F0B52B4B2B4C1B782B4FDA0014442B4AB7
:1043C0000025C2F81851D2F81821294A1578800022
:1043D000EA00C0B202F1804202F5F83200F18040FA
:1043E00000F58050C2F81075C2F81405214A05F591
:1043F000117042F82040204A20481678F20002F15D
:10440000804202F5F8320124C2F8100500F5973019
:1044100000F58470C2F8140504FA06F604FA05F0F3
:10442000304369B1164A174E1178CA0002F1804232
:1044300002F5F8328C40C2F810752043C2F81465BA
:104440009B0003F1804303F5F8330122D3F80018F1
:10445000AA400A43C3F80028064BC3F80405F0BD80
:10446000A527002004F00140184101400040014010
:10447000A827002000F00140A627002010110040CE
:10448000A727002000A00040F0B5294B294E18783E
:10449000294B1A78012404FA02F304FA00F51D43AB
:1044A00000F51177C3004FEAC20C19BB03F180433A
:1044B00003F5F833C6F80855C3F81015C3F81415FA
:1044C00046F827100CF1804303F5F833C3F81015B4
:1044D000C3F81415194B1B789B0003F1804303F5B7
:1044E000F8330121D3F80028814022EA0102C3F801
:1044F0000028F0BD124A127803F1804303F5F83327
:10450000944000212C43C6F80845C3F81015C3F8A1
:1045100014150CF1804303F5F83346F82710C3F85F
:104520001015C3F81415D30003F18043CCE700BF86
:10453000A827002000F00140A6270020A527002082
:10454000A727002038B5174801F05AF8164B9842B3
:10455000054622D1154801F053F8A84204461CD163
:10456000134801F04DF8A042054616D1114801F05C
:1045700047F8A842044610D10F4801F041F8A04284
:1045800005460AD10D4801F03BF8A842044604D183
:104590000B4801F04FF8A04202D06FF0120038BD76
:1045A0000020FCE7A82700200000AD0BA627002074
:1045B000A7270020AB270020AA270020A92700203A
:1045C000A527002000487047101100400E4B0F49EE
:1045D0001B780978012202FA01F102FA03F30B4376
:1045E0000B49097802FA01F10B430A49097802FAEA
:1045F00001F10B43084909788A401343074A43F005
:104600000103C2F808357047A8270020AA27002018
:10461000A6270020A7270020AB27002000F001409C
:1046200038B51E4B187800F0F1FF1D4B9842054637
:104630000AD01C491C484FF49C7206F0F1FB194843
:104640004FF49C7106F0E3FB184B187800F0DEFF86
:10465000A8420446EDD1164B187800F0D7FFA042CF
:104660000546E6D1134B187800F0D0FFA842044667
:10467000DFD1114B187800F0C9FFA0420546D8D110
:104680000E4B187800F0C2FFA8420446D1D10C4B63
:10469000187800F0D5FFA042CBD138BDA827002064
:1046A0000000AD0B77C1000043BB0000A62700202F
:1046B000A7270020AB270020AA270020A927002039
:1046C000A5270020BFF34F8F0549064BCA6802F4A7
:1046D000E0621343CB60BFF34F8F00BFFDE700BF25
:1046E00000ED00E00400FA054FF08053D3F83021CC
:1046F000082A06D1D3F83431052B02D8024AD05CFF
:1047000070470020704700BFA2C10000024AD2F8E3
:104710000034002BFBD0704700E0014010B54FF093
:104720008053D3F83021082A4ED14FF08042002127
:10473000C2F80C11C2F81011C2F8381502F5404247
:10474000D3F80414C2F82015D3F80814C2F82415BD
:10475000D3F80C14C2F82815D3F81014C2F82C158D
:10476000D3F81414C2F83015D3F81814C2F834155D
:10477000D3F81C14C2F84015D3F82014C2F844151D
:10478000D3F82414C2F84815D3F82814C2F84C15ED
:10479000D3F82C14C2F85015D3F83014C2F85415BD
:1047A000D3F83414C2F86015D3F83814C2F864157D
:1047B000D3F83C14C2F86815D3F84014C2F86C154D
:1047C000D3F84434C2F87035FFF78EFF18B13F4B71
:1047D0003F4AC3F88C26FFF787FF18B13D4BFB22F9
:1047E000C3F81825FFF780FF70B14FF080414FF0FC
:1047F0008053D1F8E42ED3F8583222F00F0203F0A0
:104800000F031343C1F8E43EFFF76EFF20B1324BB4
:104810004FF40072C3F840264FF08053D3F8303184
:10482000082B1AD14FF08043D3F80024D20744BF9D
:104830006FF00102C3F800244FF08053D3F83431F5
:10484000052B02D8254AD35C3BB14FF01023D3F897
:1048500008224FF08043C3F858254FF01021D1F8BB
:104860000C32DB0714D51E480123C0F80435FFF7CE
:104870004DFFD1F80C3223F00103C1F80C32FFF7E1
:1048800045FF0023C0F80435FFF740FFFFF71AFF8C
:10489000D1F80032002B03DBD1F80432002B14DAFC
:1048A0000F4901234FF01020C1F804351224FFF7FF
:1048B0002DFFC0F80042FFF729FFC0F80442FFF7C0
:1048C00025FF0023C1F80435DEE710BD005000408D
:1048D0004881030000F00040009002409CC10000AD
:1048E00000E0014030B50468CCB1BFF35B8FB4FA8F
:1048F00084F3C3F11F03DBB201229A4024EA0202CF
:1049000050E8005FA54204D140E8002CBCF1000F44
:10491000F6D1BFF35B8FE6D102480B7030BD024881
:10492000FCE700BF0000AD0B0200AD0B10B5036843
:10493000CB40DB0714D401238B400268BFF35B8FAD
:1049400043EA020150E8004F944204D140E8001CC1
:10495000BCF1000FF6D1BFF35B8FEED1014810BD63
:104960000148FCE70000AD0B0400AD0B034BD3F88E
:10497000003523FA00F000F00100704700F001401C
:10498000014BC3F80405704700F00140014BC3F828
:104990000805704700F00140024B00F5117043F824
:1049A0002010704700F00140034B00F51170002209
:1049B00043F82020704700BF00F00140F7B54FF0EA
:1049C0008043044650B1012826D033493348DC22C5
:1049D00006F026FA3048DC2106F019FA0222C3F864
:1049E00008230122DA60C3F80401D3F80431064633
:1049F00001238DF8073042F210754FF08047E4B183
:104A0000012C2ED0264925484FF4747206F008FA7E
:104A100023484FF47471DFE70022C3F8080358609D
:104A2000C3F80021D3F800310DF10706E0E783B1A8
:104A3000012006F073FB013D0BD0D7F8183403F4C6
:104A40008033002EF3D0D7F8182402F0030232602E
:104A5000BBB903B0F0BD83B1012006F05FFB013D9F
:104A60000BD0D7F80C3403F48033002EF3D0D7F8F2
:104A70000C2402F0010232701BB90A4B00225A7159
:104A8000E7E79DF80700012803D106F047FB013D49
:104A9000B5D1012CDDD1F0E7A8C1000043BB000077
:104AA000E5C1000080170020054B1A792AB99A71D8
:104AB000012218609A80034870470348704700BF7E
:104AC000801700200000AD0B0C00AD0B08B50E4B9D
:104AD0001A7952B90D490E484FF4987206F0A0F9B0
:104AE0000A484FF4987106F092F91B682BB1002028
:104AF000FDF7F2F908B9FDF7CDF94FF08043002238
:104B0000C3F8182508BD00BF80170020A8C1000009
:104B100043BB000038B5314C237953B93049314893
:104B200040F27F1206F07CF940F27F112C4806F02B
:104B30006EF950B1012846D029492A4840F2C312E3
:104B400006F06EF940F2C311F0E74FF08043D3F85E
:104B50001814D3F81824CD031DD5900702D00020D7
:104B6000FFF72CFF4FF080430022C3F818250220E6
:104B700008224FF4827303F180430021196002F18F
:104B800080421D6801251560226802B34FF0804302
:104B9000C3F804030CE0D3F81424D107E2D5D3F80A
:104BA0001C249207DBD122681AB10222C3F8042325
:104BB00038BDD3F80421002AFBD00022C3F8042119
:104BC000D3F80431F4E700224FF48073D3E71A6876
:104BD000002AFCD019601B68EAE700BF801700209C
:104BE000A8C1000043BB000008B5094B1B7953B9AD
:104BF0000849094840F2DD1206F012F9054840F272
:104C0000DD1106F004F9BDE80840FFF7D7BE00BF8C
:104C100080170020A8C1000043BB00004FF0804374
:104C2000D3F80C14D3F80C24C80325D5D10723D509
:104C3000D3F81824D2031FD5114A917901F0FF004F
:104C4000E1B9C3F80C01D3F80C11022001219171D4
:104C5000C3F8340C1961126822B10822C3F8042386
:104C600008487047D3F80C21002AFBD00022C3F873
:104C70000C21D3F80C31F3E7034870470348704721
:104C8000801700200000AD0B0500AD0B0B00AD0B35
:104C900010B54FF08043D3F800216AB10022C3F869
:104CA0000021D3F800210122C3F80823184B5879BA
:104CB00010B95A711B6898474FF08043D3F804210C
:104CC0005AB10022C3F80421D3F804210222C3F808
:104CD00008230F4B01201B6898474FF08043D3F8FF
:104CE0000C21A2B1D3F80423120710D50022C3F877
:104CF000342CC3F80C21D3F80C110821C3F8081385
:104D0000034B9A71BDE810401B680420184710BD82
:104D100080170020034A430900F01F00D35C1844A9
:104D2000C0B270478CC2000008B502680146104648
:104D300006F00DFA50B9104910484FF46C7206F0A5
:104D40006FF84FF46C710C4806F061F802F01F0325
:104D500052090B600AD0012A0BD00749074840F2DC
:104D6000B93206F05DF840F2B931ECE74FF0A040FF
:104D700008BD0348FCE700BF10BB000043BB0000B8
:104D800000030050072808B50AD90749074840F230
:104D9000AA3206F045F8044840F2AA3106F037F886
:104DA000800000F5807008BD19C2000043BB000000
:104DB00070B50546FFF7AEFF0C4C08300E4634F8D0
:104DC0001030DA0508D5C3F3432304EBC3022846A9
:104DD00054F8333052689847A3682BB1E2683146E3
:104DE0002846BDE87040184770BD00BFA4050020EC
:104DF00008B5FFF78FFF034B083033F81000400B66
:104E000008BD00BFA405002008B5FFF783FF034BD2
:104E1000083033F81000C0F3400008BDA40500209E
:104E200008B5FFF777FF044B083033F8100010F097
:104E30001C0018BF012008BDA405002008B5FFF71D
:104E400069FF034B083033F81000C0F3401008BD71
:104E5000A4050020034611F0010010B5CCB20DD11D
:104E6000A207C4F3400012D5094AD2F820055860C1
:104E7000C2F82005003818BF012008E04FF0A0411B
:104E8000D1F820251A60C1F82025002AE8D010BDED
:104E90000003005010B5FFF73DFF184A083032F804
:104EA0001030D9051DD5C3F3432123F4F85322F85C
:104EB000103002F10E04002034F8023F13F4807F1A
:104EC00003D0C3F3432399420BD001303028F3D1F0
:104ED00000230B4842F83130FFF728FD094B984278
:104EE00000D110BD084909484FF4DC7205F098FF65
:104EF00005484FF4DC7105F08AFF00BFA4050020CF
:104F00001C0600200000AD0B4EC2000043BB000099
:104F10002DE9F843002407460E4625464FF00108C8
:104F2000A146B5420DD1124BD3F87C2132B10022FB
:104F3000C3F87C21D3F87C3144F000442046BDE81E
:104F4000F883E8B2FFF71EFFA0F58072920808FA16
:104F500002F2174209D000F1804303F5C0431968FB
:104F600019B1C3F800901B6814430135D9E700BF9D
:104F700000600040F7B506460846FFF7CBFE194F24
:104F800000F108050C4637F81530DB0727D5304609
:104F900006F056F92046FFF751FF40B12046FFF7D3
:104FA00027FF316800F5A270002341F82030204629
:104FB000FFF770FF002301A827F815300194FFF7D1
:104FC000B3FE019B00EB8300074BD0F80027134092
:104FD00043F00203C0F80037044803B0F0BD0448B2
:104FE000FBE700BFA4050020F0F8FCFF0000AD0BBC
:104FF0000400AD0B2DE9FF41164680460846FFF739
:1050000089FE37680D460446E7B1084606F00DF9FB
:1050100008BBCDE900008DF80E008DF80F003B466F
:105020000DF10F020DF10E01284606F0A2F8474AD5
:1050300004F1080132F8113023F0020343F00103B8
:1050400022F81130736863B328461F785968FFF758
:10505000DBFE10B1D1B13E4826E03C4A04F1080025
:1050600032F8103023F02003DB04DB0C22F8103080
:1050700061B1032FEFD87168496891F800C0D8F882
:105080000010A7B90CF5A27C41F82C702F4A04F14E
:10509000080132F8113023F01C0343EA870322F899
:1050A0001130B3684BBB2B4804B0BDE8F08101EB75
:1050B0008C0143EA4C33D1F810E52EF0030EC1F811
:1050C00010E5D8F8001001EB8C0E43F02003DEF859
:1050D000101522F8103021F44F3121F44071CEF830
:1050E00010152902DEF8108501F47C5141EA0741D0
:1050F00041EA0801CEF81015C8E7D3E90067284651
:10510000FFF7C8FE002ECED0104DD5E90023964201
:1051100003D19F4201D1002209E00F480DF10F0198
:10512000FFF7E0FB0B4B9842BED19DF80F2045F8EE
:10513000326005EBC20308345F6035F8143043EA8F
:10514000422343F4807325F81430ACE7A405002013
:105150000400AD0B0000AD0B1C0600202DE9FF4143
:105160000C468046204611461E46FFF7D3FD0546F5
:1051700021B32046FFF748FE18B92046FFF75EFE30
:1051800010BB2046FFF74CFE10B14B78012B1BD013
:1051900001238DF80F300023CDE900134A1C8B1C2E
:1051A00020460DF10F0105F0E4FF274A05F1080143
:1051B00032F8113043F0030322F81130002E41D0B1
:1051C0002046FFF721FE18B9204804B0BDE8F08161
:1051D00096F800C0D8F800301B4F0CF5A2720021E1
:1051E00043F8221005F1080237F8121021F02001CF
:1051F000C904C90C27F8121075781DB3D8F800003F
:10520000B67800EB8C002D04D0F8103523F49913F8
:1052100023F4F853C0F81035230203F47C5305F44B
:1052200040353605D0F810E52B4306F4801641EAE8
:105230004C31334341F0200143EA0E0327F81210AA
:10524000C0F810350248C0E7A40500200400AD0BEB
:105250000000AD0B014BC3E902127047A40500200A
:1052600010B5144652B90E490E4840F20D3205F001
:10527000D7FD0B4840F20D3105F0C9FD0846FFF798
:10528000DDFD50B10846FFF745FD074B083033F808
:10529000103006485B0B237010BD0548FCE700BFCB
:1052A0004EC2000043BB0000A40500200000AD0B6F
:1052B0000400AD0B2DE9F041184D95F880400646ED
:1052C0004CBB6022214605F1100006F067F93668F4
:1052D0002F6FA046A7420FD10023C6F87C3146F3BA
:1052E0000730D6F87C31FCF7D5FD01230C4885F852
:1052F0008030AB67BDE8F081E0B2FFF743FDA0F579
:1053000080739B081F2B08BF46F8008004F101043E
:1053100008BF3358DEE70348ECE700BFA4050020D0
:105320000000AD0B0C00AD0B034B93F88000003870
:1053300018BF0120704700BFA40500200148FFF7F7
:10534000F5BA00BF180600200148FFF7CBBA00BF2E
:10535000180600202DE9F341054608460C4616467E
:10536000FFF75EFD50B93449344840F2FA3205F097
:1053700057FD40F2FA31304805F049FD2B68D3F86B
:105380000423002AA4BF4FF00042C3F804230846B8
:10539000FFF754FD18B30846FFF736FD0746F0B98E
:1053A0000846FFF725FD0446FFF7ECFCD5F8008022
:1053B00048F8007058F800302B6822B203EB8203E3
:1053C000D3F8102542F00102C3F8102526B12A684F
:1053D0000123A340C2F8043302B0BDE8F08146B90E
:1053E0001549164840F20E4205F01AFD40F20E41F2
:1053F000C1E72046FFF78EFC114B083033F8103020
:10540000C3F38203042B12D0052B12D001A8019400
:10541000FFF78AFC019BD0F81015D94001F001017B
:105420000231204602B0BDE8F04105F0EFBE032195
:10543000F7E70221F5E700BF4EC2000043BB0000C2
:10544000A40500202DE9F04F694BDFF8A881D3F8BF
:105450000403D8F87010C0B289B040F00040FFF7E4
:1054600057FD051E2FDAC24600235AF87C1F06A8F6
:10547000CDE90633FFF7EEFC5F4B01930DF1180900
:105480004FF0000B019A12F8013B0192DA0803F089
:1054900007031AF8022022FA03F3DA071CD409F1F1
:1054A0000409BBF1000F14D0D8F870104FF0004081
:1054B000FFF72EFDD8F87C1006A8FFF7CBFC0028DC
:1054C000DAD125F000450124002D79D109B0BDE8DD
:1054D000F08F4FF0010BD5E7484B5B440293D9F8AE
:1054E00000100029DBD0029B91FAA1F11C78B1FADF
:1054F00081F141EA44142046FFF70CFC0830059482
:1055000038F81070C808BB0819F80020039301F0A0
:105510000701012303FA01F122EA010209F8002040
:1055200005A8FFF701FC059A039B02F5E072C7F39B
:10553000820650F822205B073746C2F3014224D589
:1055400039462046D6B2FFF733FC05A80594FFF78D
:10555000EBFB059B03F5E07350F82330C3F30143E5
:105560009E4207D10021204605F050FE31462046DC
:1055700005F04CFE05A80594FFF7D6FB059B01221C
:1055800002FA03F3C0F82035A9E7022A0CD103215F
:10559000204605F03BFE06F00503012BEAD1394613
:1055A0002046FFF705FCE5E702212046039205F0BF
:1055B0002DFE032EF3D0039A032ADBD1022EEDE752
:1055C00095FAA5F3B3FA83F304FA03F29B0003F10F
:1055D000804303F5C04325EA0205D3F81005D3F84C
:1055E0001015C0F30520C1F30141FFF7E1FB6BE7A4
:1055F00000600040A40500209CC200009CC2000086
:1056000001460148FFF76EB92C06002001238340B4
:10561000C3F3120201462AB1034A0448C2F808350E
:10562000FFF784B90248704700F001402C060020C3
:105630000400AD0B01460148FFF754B928060020CD
:10564000C30003F1804303F5F833012201465A6099
:105650000148FFF76BB900BF2806002070B51D4A4E
:105660000C68B2FBF4F304FB13258DBB94422FD8D6
:105670005C1E1C402CD1B3F5007F29D802684D79FF
:10568000D2F80465097926F0030601F003013143DD
:10569000C2F80415D2F8081593FAA3F321F0030118
:1056A00005F00305B3FA83F32943C2F80815C2F8DD
:1056B00010350068402300F58072D450D15804336F
:1056C000582BFAD140F30730FCF7E4FB024870BDD9
:1056D0000248FCE70024F4000000AD0B0400AD0B11
:1056E000F8B541B91E491F487C2205F099FB7C2181
:1056F0001B4805F08CFB05791B4C0C236B43E6180B
:10570000377A5FBBE2508B6873600368174A934235
:105710000FD002F5805293420BD002F58052934293
:1057200007D002F58032934203D002F580529342B3
:1057300002D14B79032B06D909490A48942205F076
:105740006FFB9421D4E7FFF789FF0C2303FB05448B
:10575000074BC21A534253412372F8BD0548FCE778
:105760009EC2000043BB000088170020008000405C
:105770000000AD0B0C00AD0B10B50C4B02790C21E9
:1057800001FB0232127A012A08D009490948D222C3
:1057900005F046FB0648D22105F039FB046822607B
:1057A000027901FB023302221A7210BD8817002011
:1057B0009EC2000043BB000010B50C4B02790C21C7
:1057C00001FB0232127A42B909490A48DB2205F08C
:1057D00027FB0748DB2105F01AFB04680122226140
:1057E000007901FB00331A7210BD00BF881700203A
:1057F0009EC2000043BB0000F8B5144D03790C278E
:1058000007FB035304461B7A43B911491148BC22D4
:1058100005F006FB0E48BC2105F0F9FA006840F3DC
:105820000730FCF745FB23680026D3F80022C3F8B5
:10583000006223684FF0FF32C3F808232046FFF7C9
:10584000BBFF237907FB03552E72F8BD8817002094
:105850009EC2000043BB000070B5144C05790C26B5
:1058600006FB0544247A54B9114912484FF4957245
:1058700005F0D6FA0E484FF4957105F0C8FA4FF4CA
:10588000803405688C4073B18B0003F5A07300264B
:10589000EE50EB580368C3F80443036801F5A871A0
:1058A00043F8212070BDC5F80843F6E788170020AB
:1058B0009EC2000043BB00002DE9F041154E077960
:1058C0004FF00C0E0EFB07661C46367A9DF818301A
:1058D00056B91149114840F2451205F0A1FA0E4897
:1058E00040F2451105F093FAD0F800E040F20117BC
:1058F000DEF800628F4026EA0706CEF800620568EF
:10590000D5F800623443C5F80042BDE8F041FFF726
:10591000A3BF00BF881700209EC2000043BB000049
:105920000149024805F0B4BC8817002000800040FF
:105930000149024805F0ACBC9417002000A00040CB
:1059400008B5144BA8220021184605F027FE0322B3
:10595000026111494261114A8161C2614FF4806262
:105960000262002282624262C26201660C494166A2
:105970001021816603460267C2664267BFF35F8FEC
:10598000084911F8010D98540132102AF9D1BFF3DA
:105990005F8F08BD10040020DBC200001000002053
:1059A00000000020F4C2000008B5084A084B9342EA
:1059B0000AD908490848182205F032FA0548182182
:1059C00005F025FA1433F2E7FCD308BD70B70000E8
:1059D000F8B60000F5C2000043BB000070B50446F5
:1059E000EFF31186402383F31288BFF36F8F0C4BC4
:1059F0009D6805F06FFB042C08D10A490A488722EC
:105A000005F00EFA0748872105F001FA86F31188A0
:105A1000BFF36F8F2846BDE87040FCF7BFB900BFE9
:105A2000A017002018C3000043BB000038B5094B85
:105A300053F82040013053F82050A54200D838BD1B
:105A4000636823B1204605F08EFC0834F5E723682F
:105A50009847FAE770B9000070B5354B354C364DB4
:105A6000012286B003201A70FFF7E0FFFBF726FE45
:105A700005F095FC0420FFF7D9FFAC42264624D957
:105A80002E492F48452205F0CBF945212B4805F03A
:105A9000BEF954F80C3C059354F8103C049354F8A8
:105AA000143C039354F8183C029354F81C3C0193A3
:105AB00054F8203C009354E90A2354E90C0100F007
:105AC0008BFE54F8303C5E65D7E7AE4204F13004FB
:105AD000DFD301F0B7FB174C1A4EAC421BD9174964
