:1000000080240020A91900005181000095190000EA
:1000100095190000951900009519000000000000D6
:10002000000000000000000000000000151B0000A0
:100030009519000000000000B11A00009519000099
:10004000E91C00004D360000E91C0000E91C00001E
:10005000E91C0000E91C0000E91C0000E91C00008C
:10006000E91C0000E91C0000B1550000E91C00007B
:10007000E91C0000E91C0000E91C0000E91C00006C
:10008000E91C0000E91C0000E91C0000E91C00005C
:10009000B1360000E91C0000E91C0000E91C00006A
:1000A000E91C0000E91C0000E91C0000E91C00003C
:1000B000E91C0000E91C0000E91C0000E91C00002C
:1000C000E91C0000E91C0000E91C0000E91C00001C
:0C00D000E91C0000E91C0000E91C000015
:1000DC00014B1B689B681847C0040020014B1B6830
:1000EC001B691847C0040020014B1B685B6918474B
:1000FC00C0040020014B1B689B691847C0040020FA
:10010C00014B1B68DB691847C0040020014B1B68BE
:10011C001B6A1847C0040020014B1B689B6A1847D8
:10012C00C004002010B4034C2468E468A44610BC3E
:10013C00604700BFC004002030B50346114890F959
:10014C001C209A4219DD90F924209A4217DA9A1A47
:10015C00846AA05C0C4A15569D420DD00E320029C3
:10016C0018BF01309442C0B206D129B1013BDBB2B9
:10017C00012B01D80130C0B230BD0D20FCE70020AE
:10018C00FAE700BF700700201C89000008B5054B7A
:10019C0093F91C30984203DAFFF7CEFF024B1B5643
:1001AC00184608BD700700201C89000010B51C4CB7
:1001BC0094F82C3073B9012384F82C3000F09EF89D
:1001CC0048B1184BA362D823236284F82430082347
:1001DC00A361237710BD00F0A7F80028F1D100F03F
:1001EC00ADF80028EDD100F06BF838B10E4BA362DE
:1001FC00D823236284F824300423E9E700F06AF85A
:10020C000028F3D100F070F80028EFD100F080F84E
:10021C000028EBD14FF4DF71742000F019F800BF07
:10022C0070070020578900002A890000BFF34F8F08
:10023C000549064BCA6802F4E0621343CB60BFF376
:10024C004F8F00BFFDE700BF00ED00E00400FA0592
:10025C001FB572B6134B5D688DB9FFF7E7FFB2FBA4
:10026C00F6F2DCB20133002AF9D104F110036B442D
:10027C0003F80C2C0A2234B901A8A847EDE7024672
:10028C0000230A26EDE7631E04AEDCB256FA83F3B4
:10029C00B0FBF2F602FB1600303003F80C0C3046C3
:1002AC00E9E700BF000C00204FF08052034BD2F85E
:1002BC0030111960D2F834215A6070473C0C002080
:1002CC00034B1868A0F10F0358425841704700BF08
:1002DC003C0C0020034B1868A0F10A03584258410B
:1002EC00704700BF3C0C0020034B1868A0F10E03B4
:1002FC0058425841704700BF3C0C0020034B186813
:10030C00A0F1100358425841704700BF3C0C00202C
:10031C00044B1868062803D0431C584258417047B8
:10032C00012070473C0C0020034B1868A0F10D0312
:10033C0058425841704700BF3C0C0020034B1868D2
:10034C00A0F1080358425841704700BF3C0C0020F4
:10035C0008B5FFF7A9FFBDE80840FFF727BF801AD3
:10036C0000F3070038B540B20D4659B21446FFF7FA
:10037C000DFF0023287020446B7040B238BD002361
:10038C00036070477047002070474FF0FF30704794
:10039C004FF0FF30704770474FF0FF307047002030
:1003AC007047002070470023037070470022FFF74E
:1003BC00D6BF002070474FF0FF3070474FF0FF3032
:1003CC0070474FF0FF307047704700280CBF6FF03C
:1003DC001500002070470020704707230370002091
:1003EC0070470020704700207047000008B5037864
:1003FC00022B06D1034803F085FC10B9024B0122F5
:10040C001A7008BDD1110020D011002008B5026867
:10041C00530904D14FF0FF33D340DB070AD407490B
:10042C0007484FF46C7207F00FFE04484FF46C71E0
:10043C0007F001FE4FF0A04008BD00BF688A000025
:10044C009B8A000013B50446019001A8FFF7DEFF5C
:10045C0000EB8400044BD0F80027134043F0030357
:10046C00C0F8003702B010BDF0F8FCFF30B5144AEC
:10047C00144B154D8BB0CDE90123144A106851680B
:10048C0003AB03C31C460FCD0FC42B682360104A6B
:10049C000692012305A88DF815308DF8263003F04F
:1004AC0019FB58B901A803F0F9FC38B902A803F0FC
:1004BC000FFD18B9082103A803F024FD0BB030BDC3
:1004CC003344BB01DEF0122300890000B38A000024
:1004DC00F90300002DE9F84F4FF01023D3F88440B6
:1004EC00D3F88850601C38D1691C6ED0FF26EFB24F
:1004FC00B046B146FF2F60D14FF0010A07F047FD1F
:10050C000546002840F09680FFF7B0FF054600280E
:10051C0040F09080282003F01DFD03F043FC0546BD
:10052C00002840F08780614C237803F0FF0B002BF0
:10053C0000F0B580002121705D4C03F093FA5D480A
:10054C001022002108F0E3F8A37A042B00F2848037
:10055C00DFE803F042737B859300C4F30726C4F3F2
:10056C0007484FEA146AE4B2FF2CEFB205D02046DC
:10057C00FFF768FF204607F0FDFCFF2E05D0304644
:10058C00FFF760FF304607F0E8FCB8F1FF0F04D12D
:10059C00BAF1FF0F08D1D146ACE74046FFF752FF46
:1005AC00404607F0E7FCF3E75046FFF74BFF504699
:1005BC005FFA8AF907F0D1FC9CE7EDB22846FFF709
:1005CC0041FF284607F0C9FC96E7FF27B946B84615
:1005DC003E464FF0000A91E7364B01221A70227A00
:1005EC005A7002225A71E2791A7162799A71BAF1CF
:1005FC00000F19D0637ADA0748464AD407F0ADFCED
:10060C00637A9B07384647D407F0A7FCBBF1000F71
:10061C000AD0FF2E02D0304607F0ACFCB8F1FF0F29
:10062C0002D0404607F099FC224800F0FFFB21481D
:10063C0000F022FB2846BDE8F88F1E4B227A5A7038
:10064C00E2791A7162795A71D1E71A4B02221A7047
:10065C00227A5A7062795A714FF0000BC7E7154B2A
:10066C0003221A70227A5A70E2791A7162795A71DD
:10067C00A2799A710A229A60B9E70E4B04221A7079
:10068C00227A5A7062791A71A2795A710A229A6086
:10069C00E2E707F06FFCB3E707F06CFCB6E700216C
:1006AC0040F6CD4006F03EFC3EE700BFD0110020E6
:1006BC00D1110020E00E00200B4B00224FF0FF3137
:1006CC00C3F80022C3F80813C3F81021D3F8102183
:1006DC0001221A61D3F81021002AFBD00022C3F8A2
:1006EC001021D3F8103170470010004010B5FFF7FF
:1006FC00E3FF044B1B6823B11B6813B1BDE810402A
:10070C00184710BDF00E002010B51C4BD3F8042375
:10071C00D104044616D5D3F830219AB10022C3F87F
:10072C003021174AD3F830311368013313608268D3
:10073C0042B1934213480CBF002240F6CD42002335
:10074C0005F02CFE0D4BD3F80423120714D5D3F867
:10075C000C218AB10022C3F80C210B4AD3F80C31BE
:10076C00136801331360A268934205D1FFF7A4FF0D
:10077C00E368BDE81040184710BD00BF00100040F2
:10078C00F80E002008050020FC0E002073B5124B5B
:10079C00124C187020460D4604F048FE104B0026F3
:1007AC00D3F80022C3F800624FF0FF32C3F80823DD
:1007BC002946204607F093FE01230246009320466B
:1007CC0040F20113314604F0B1FE204602B0BDE800
:1007DC00704004F00BBE00BFF8110020B889000077
:1007EC0000800040042810B504460BDC10F1100FFB
:1007FC000DDA10F11E0F54D010F1140F53D010F16C
:10080C00280F52D02B4807F009FC002331E000F1EF
:10081C001003142BF6D801A252F823F0BB080000E9
:10082C001108000011080000110800007D080000EC
:10083C001108000011080000110800009F080000BA
:10084C00110800001108000011080000A3080000A6
:10085C001108000011080000110800001708000022
:10086C001108000011080000A7080000AB080000E8
:10087C00F423114AC2F80C35104B1B78CBB9214626
:10088C000F4807F0CBFB21460E48BDE8104007F09F
:10089C00C5BBF823EDE7FC23EBE70323E9E70423CF
:1008AC00E7E7FF23E5E7EC23E3E7D823E1E7F023D1
:1008BC00DFE710BDBC8A000000100040F7110020DB
:1008CC00FB8A0000208B0000214B40F20122C3F870
:1008DC0050260022C3F83425C3F83825C3F82C253C
:1008EC000122914284B0C3F830252BD0022923D0A9
:1008FC0001BBAB22C3F824254FF0AB32C3F81C2547
:10090C0004284FF00003CDF80530124A05BF01232F
:10091C008DF808304FF4837340F2071313809DF861
:10092C0008300B4A1B0643F00803C2F814350A4B77
:10093C00C2F8183504B07047CC22C3F824254FF008
:10094C00CC32DBE76A22C3F82425044AD6E700BF81
:10095C0000100040AC110020FF0004031B81FE5866
:10096C0038B50C4CFFF7B0FFFF22012922700FD0D5
:10097C00022908D019B91146601C07F02FFC064B50
:10098C00C3F8044538BDCC21601C07F0C0FEF6E767
:10099C00F021F9E7F91200200010004008B500F52D
:1009AC00166040F6C41398420AD90849084840F228
:1009BC000C7207F049FB054840F20C7107F03BFB49
:1009CC00044BA0F51660C3F8080508BD428B000067
:1009DC009B8A00000010004010B5294CBFF35B8FC0
:1009EC0054E8003F23F4803244E800210029F7D179
:1009FC00BFF35B8FD80304D5224B2349187803F03F
:100A0C0051FEBFF35B8F54E8003F23F0040244E82F
:100A1C0000210029F7D1BFF35B8F590705D5194B7E
:100A2C001A4A1B49187807F08AFCBFF35B8F54E80D
:100A3C00003F23F0100244E800210029F7D1BFF356
:100A4C005B8FDA0605D50F4B124A1149187807F05F
:100A5C0076FCBFF35B8F54E8003F23F4807244E8CC
:100A6C0000210029F7D1BFF35B8FDB0507D5054BC0
:100A7C00064A09491878BDE8104007F060BC10BD63
:100A8C00F40E0020F6110020008000400010004001
:100A9C0000410140041000404081004070B51B4DE6
:100AAC000446FFF799FF287854B3194A194907F0FF
:100ABC003CFC04230126184CBFF35B8F06FA03F3AE
:100ACC0054E8002F1A4344E800210029F8D1BFF361
:100ADC005B8F1249287803F0DDFDBFF35B8F54E880
:100AEC00003F43F4803344E80032002AF7D1BFF3CF
:100AFC005B8F287806FA00F0BDE8704003F0BEBDAD
:100B0C00074A044907F011FC0223D3E7F611002031
:100B1C000410004000410140F40E00200080004011
:100B2C000010004070B5114C064615460846FFF7FC
:100B3C00C3FDC4F81065D4F8003243F00103C4F8C7
:100B4C000032FFF74FFE2846094DFFF727FF2B78A1
:100B5C0043B10020FFF7A2FF2B781BB1054B0122FC
:100B6C001A6070BD01232360FBE700BF001000403A
:100B7C00F7110020004001402DE9F0411B4C1746B5
:100B8C000E461D46FFF798FDC4F81005D4F8003248
:100B9C0043F02103C4F80032154BC4F80435394630
:100BAC00FFF792FE3046FFF7F9FE124B124E002271
:100BBC001A604FF48053C4F80433337883B10120A6
:100BCC00FFF76CFF33785BB10C4B01221A6055B107
:100BDC00BDE8F0410A484FF4A022002305F0DEBB2B
:100BEC0001236360F3E7BDE8F08100BF0010004013
:100BFC00F9110020F80E0020F711002000400140F0
:100C0C0008050020B0F5A07F10B50C4619D1097865
:100C1C00032917D1154B607894F9041001221A702E
:100C2C00134B1A78FFF77EFF6279A0790F4B0021E6
:100C3C0019700F490B780133DBB2834298BF1A4607
:100C4C000A7010BD04290CD1084B09496078097849
:100C5C0001221A7022790023FFF78EFF2279607926
:100C6C00E4E7BDE81040034807F0D8B9F7110020BD
:100C7C00F8110020768B00002DE9F3410378052B49
:100C8C0035D8DFE803F0030C3740474A427990F936
:100C9C000410407802B0BDE8F041FFF743BF44793F
:100CAC00457890F9048087798668FFF705FD214621
:100CBC00544C2846FFF754FED4F8003243F021037D
:100CCC00C4F800324046C4F81055FFF78BFD384687
:100CDC00FFF764FE4C4A00231360C4F80C31D4F8BF
:100CEC000C3116B10823C4F804330123236002B07D
:100CFC00BDE8F081836802794179407802B0BDE8A3
:100D0C00F041FFF739BF8168407902B0BDE8F0418E
:100D1C00FFF73CBD81680079F7E7447890F80580CF
:100D2C00856890F904708679FFF7C6FC2046414629
:100D3C00FFF716FE334BC3F81045D3F8002242F0F0
:100D4C000302C3F800223846FFF74CFD3046FFF78C
:100D5C0025FE2E4B2E4A1B5D12882E485343C5F19F
:100D6C0064045C43B4FBF5F41C4404F05FFB00200A
:100D7C00FFF794FE284B2748D3F8002200254FF0AC
:100D8C00FF32C3F800522146C3F8082307F095FB45
:100D9C000095024602231F48012104F0C7FBEFF324
:100DAC001186402383F31288BFF36F8F1B4B1C4CAF
:100DBC0001251D60207803F057FC20B1207805FA3E
:100DCC0000F003F061FCFFF707FE0E4A154920788E
:100DDC0007F0ABFABFF35B8F134B53E8001F41F4E2
:100DEC00807143E80012002AF7D1BFF35B8F2378A0
:100DFC000120984003F042FC86F31188BFF36F8FFB
:100E0C0075E700BF00100040FC0E0020D38B0000E3
:100E1C00AC110020B8890000008000400040014067
:100E2C00F611002044810040F40E002030B51B4A1E
:100E3C0087B04FF40073CDE90323059003A9184A3A
:100E4C000446184804F086FA174B9842014602D023
:100E5C00164807F0E3F8002205210820002500F0D1
:100E6C0095FE2346124A00950521012007F075F9DD
:100E7C00012000F05BFE0F4807F06CFA0A4B984219
:100E8C0006D00D4807F0CAF86FF00D0007B030BD62
:100E9C000A4B0C341C602846F8E700BF40420F0098
:100EAC00110C0000B88900000000AD0B908B000005
:100EBC0015070000F6110020B18B0000F00E002089
:100ECC00B2F5802F2DE9F0410AD33449344840F271
:100EDC00EB1207F0B9F840F2EB11304807F0ABF821
:100EEC00042A08D82D492E484FF4F97207F0ACF8B3
:100EFC004FF4F971F1E7043ACD1D8E1825F0070572
:100F0C0026F00706761B172E4FEAD60708D823497A
:100F1C00234840F2FB1207F097F840F2FB11DCE794
:100F2C00B7FA87F4C4F12002C4F12404A4000734F6
:100F3C00E408631C4FF00008BB420560AF60C5F8C5
:100F4C000C8008D9154916484FF4037207F07CF849
:100F5C004FF40371C1E74146920005F1100007F010
:100F6C00D6FB630043F001036B8005EBC4023B1B13
:100F7C005900A5F800805180AA1925F83440A2F830
:100F8C000280AB5305EBC70321465A8842F001029D
:100F9C005A802846BDE8F04107F017B8E38B0000F3
:100FAC009B8A0000014B1B68184700BF38050020C6
:100FBC0030B585B004460D4610220021684607F076
:100FCC00A6FB02238DF802302A46044B01932146DE
:100FDC00684606F065FD05B030BD00BFB10F0000DE
:100FEC0080B505460E461746984606F00DF80346A2
:100FFC0007F0F8FBDFF81890044649F80030424639
:10100C0030463946A84754F8090000F035FD00BFBA
:10101C00080000002DE9F84F04460846A38B190779
:10102C00164612D4022803F0070162D1204607F0BD
:10103C0018F888B10138042800F22581DFE810F097
:10104C00590023017E00C800F50001280CBF43F0B5
:10105C00100143F02001A18304F1140006F0DCF927
:10106C00002800F0AB8086F31188BFF36F8FBDE8CA
:10107C00F88F03F00702501F01281ED80020062A03
:10108C002768C4E9000014D13A4603E0E08B013034
:10109C00E0831268002AF9D123F0070343F002021F
:1010AC00A283204606F0DDFF90B342F02002A2831B
:1010BC002EE023F007039AB2F2E7042A33D123F08F
:1010CC0007039AB2A283204606F0CBFF10B142F080
:1010DC002002A283A38B03F00709894540F0DC8032
:1010EC00A18BCA0640F1218121F01003A38301F0EA
:1010FC000701D4F81880A38BB8F1000FB9DA0022DD
:10110C00276823F00703C4E9002243F00103A383FB
:10111C00A38B03F00709894540F0BF80002FDFD077
:10112C000025AA4640E08549854840F21B1206F08E
:10113C008BFF40F21B11814806F07DFF41B17F49C6
:10114C007F484FF4AB7206F07FFF4FF4AB71F2E7C0
:10115C00236843B979497A4840F2571206F074FF74
:10116C0040F25711E7E723691D6845B97349744884
:10117C004FF4AD7206F068FF4FF4AD71DBE7A38B53
:10118C0023F0070343F006039BB2A3830F46884664
:10119C004FF00609A268002A40F08180002F40F031
:1011AC008180002D9CD0BA4643F0080304F1140B47
:1011BC00A383584606F030F9002875D16149604880
:1011CC0040F2311206F040FF40F231115D48B3E7B6
:1011DC00022908D059495A4840F25D1206F034FFF2
:1011EC0040F25D11A7E7E78B47B1544954484FF4DF
:1011FC00AF7206F029FF4FF4AF719CE723695D686D
:10120C0045B94E494E4840F2611206F01DFF40F2BE
:10121C00611190E7A38B23F0070343F004039BB207
:10122C00A383B8464FF00409B4E7012908D0434919
:10123C0043484FF4B27206F007FF4FF4B2717AE7ED
:10124C00236843B93D493E4840F2651206F0FCFE66
:10125C0040F265116FE723699D6845B937493848F5
:10126C004FF4B47206F0F0FE4FF4B47163E7A38B45
:10127C0023F0070343F005039BB20027A383B84672
:10128C004FF0050986E72D492D4840F26B1206F008
:10129C00DBFE40F26B114EE7002700257AE74FF09A
:1012AC00010A81E792467FE786F31188BFF36F8FBF
:1012BC00BAF1000F16D147BB15B123492046A847F8
:1012CC00EFF31186402383F31288BFF36F8F5846D8
:1012DC0006F094F808BB1B491948882206F0B4FEA6
:1012EC00882173E7A1680029E5D00E680029E2D0B7
:1012FC00D1F804A043464A462046D0471EB1336875
:10130C0031461E46F2E73346FAE7394643464A462B
:10131C0020463F6806F0D1FECDE7584606F092F81D
:10132C00A38B23F00803A383DAE68B067FF594AE38
:10133C0021F02003A38301F0070177E6068C00005F
:10134C009B8A00002B8C000059130000F8B5044652
:10135C000D4600F11406EFF31187402383F3128836
:10136C00BFF36F8F304606F049F840B909490A4877
:10137C00882206F069FE0748882106F05CFE30469C
:10138C0006F060F8A5613A4620460121BDE8F84018
:10139C00FFF740BE2B8C00009B8A00002DE9F04724
:1013AC0004460F4606F079FE051E5DDB04F11409B8
:1013BC00EFF3118A402383F31288BFF36F8F4846F3
:1013CC0006F01CF8804638B933493448882206F0B8
:1013DC003BFE882130483CE0484606F033F8E38B6E
:1013EC00A68B4FF6FF72934206F007063FD0022EF3
:1013FC0010D10133E3833546484606F00DF800283A
:10140C003BD12549254840F2311206F01DFE40F231
:10141C003111DFE7062E13D8DFE806F0092C121283
:10142C00090409006FF085054FF00008E4E700237C
:10143C003B6063687BB9C4E900777EB13546F3E75E
:10144C00174916484FF4E47206F0FEFD14484FF4A9
:10145C00E47106F0F0FD1F606760EEE75246022172
:10146C002046FFF7D7FD35462846BDE8F0876FF0DC
:10147C000A05D9E76FF00405D6E78AF31188BFF3A4
:10148C006F8FB8F1000FEFD000233246394620465B
:10149C0006F013FEE8E700BF2B8C00009B8A0000CF
:1014AC00068C0000F8B5054600F11406EFF3118721
:1014BC00402383F31288BFF36F8F304605F09EFFF5
:1014CC0038B920492048882206F0BEFD88211D48E5
:1014DC0025E0304605F0B6FFAC8B04F00704022C77
:1014EC0012D0012C0CBF6FF004046FF08504304651
:1014FC0005F092FF08BB1349134840F2311206F075
:10150C00A3FD40F23111E2E7EB8B53B90F490E48C2
:10151C0040F2EF1206F098FD0C4840F2EF1106F085
:10152C008AFD013B9BB2EB83002BE0D13A4621466E
:10153C002846FFF76FFD2046F8BD87F31188BFF3EF
:10154C006F8FF8E72B8C00009B8A0000068C000044
:10155C0008B54268816002F00302032A034602D0F8
:10156C002AB1002000E0006800225A6008BD04493E
:10157C000448452206F068FD0148452106F05BFD54
:10158C00588C00009B8A0000014B036000207047C0
:10159C00C089000008B5044806F040FDBDE80840CD
:1015AC00024806F03BBD00BF7E8C0000B38C0000EF
:1015BC00262808B508D905490548142206F044FD2B
:1015CC000248142106F037FD08BD00BFE18C000075
:1015DC009B8A000070B506460C46154600F0C8FA0A
:1015EC0040B109490948172206F02EFD064817217B
:1015FC0006F021FD3046FFF7DBFF054B43F830507A
:10160C0003EBC0035C6070BD108D00009B8A000072
:10161C00F805002030BFFFF7FDBF00BF2DE9F041FA
:10162C000B4EDFF8308006EB0807CC1B0546324624
:10163C000949204607F05DF8A01942460021083CF4
:10164C0007F065F82C6707F10800BDE8F08100BFD2
:10165C00000000000400000000890000074A9368A5
:10166C0093F90E10002907DB526993421FBF044AFD
:10167C00536843F080535360704700BF5C110020E7
:10168C0000ED00E0F8B52D4B15469A6A12F0100FDC
:10169C009A6A14BF1124102412F0080F9A6A18BF0A
:1016AC001224970706460AD5586B9A6A140634D545
:1016BC0019B19A6A22F080029A62132401E06FF049
:1016CC0015001E4B9A6A12F0010F9A6A18BF142467
:1016DC0012F0200F9A6A18BF1524D10602D49B6A07
:1016EC009A070AD5154F7B681B0506D5314600F0C5
:1016FC00AFFAA8B180F309880224104B9A6A9206BB
:10170C0042BF5A6A22F400525A629A6A42F0FF02AD
:10171C009A6200232B702046F8BD6FF01500CCE7C1
:10172C00BB6AD906E9D50649064840F22D1206F0E7
:10173C008BFC034840F22D1106F07DFC00ED00E01F
:10174C003D8D00009B8A0000134B9A6A12F0007FBB
:10175C009A6A14BF1E201D2012F0807F9A6A18BF4F
:10176C001F2012F4002F9A6A18BF212012F4802F28
:10177C009A6A18BF222012F4003F9A6A18BF2320DD
:10178C0012F4803F9A6A6FEA02426FEA12429A623E
:10179C0018BF2420704700BF00ED00E010B5194BB6
:1017AC000246986A9C6A10F4805F14BF17201620BA
:1017BC0014F4006F9C6A18BF1820A40509D5986B07
:1017CC00986A000404D51AB19A6A22F400429A620B
:1017DC0019200C4B9A6A12F4806F9A6A18BF1A205F
:1017EC00D2050CD49B6A13F4005F18BF1C20054A69
:1017FC00936A43F47F43936200230B7010BD1B204C
:10180C00F5E700BF00ED00E0F0B5564B5B688BB020
:10181C000446C3F30803002585F31188BFF36F8FCB
:10182C0002F07F40B0F17F4F08D102F00C00082885
:10183C0004D012074CBF0C46012554B94A494B48F9
:10184C004FF4856206F000FC4FF48561464806F0C3
:10185C00F2FB0022033B8DF80720032B7BD8DFE83B
:10186C0003F00272765D3F4AD36A13F0020372D121
:10187C00D16A00291ADBD36A5B005BD55369A16975
:10188C0043F480735361BFF34F8FBFF36F8F536972
:10189C0031F8021C23F480735361BFF34F8FBFF3F5
:1018AC006F8F4DF6027399421FD123689DF8072064
:1018BC00CAB902AE04F1200720686168324603C23F
:1018CC000834BC421646F7D1099A002D45D0C2F314
:1018DC00080121B96FEA52226FEA4222099202A949
:1018EC00184606F025FC0BB0F0BD936ADBB23BB199
:1018FC000DF1070201212046FFF7C4FE0346D5E790
:10190C00936A13F47F4F05D00DF107010120FFF707
:10191C0045FFF3E7936AB3F5803F02D3FFF714FF5B
:10192C00ECE71149114840F2FA2206F08DFB40F227
:10193C00FA218BE70C490D4840F2FE2206F084FB9D
:10194C0040F2FE2182E70DF107020021D3E70DF1F1
:10195C0007010020DBE70023A8E722F4FF7222F046
:10196C000102BBE700ED00E03D8D00009B8A00000A
:10197C00044B5A6942F010025A615A6922F008026B
:10198C005A61704700ED00E0EFF30880EFF3098136
:10199C0001B57246FFF738FF01BD00BF002080F390
:1019AC001488BFF36F8F0F4880F3088802F0D2FCC5
:1019BC0000200D490860BFF34F8F00F02BF840203A
:1019CC0080F3118809484FF40461401880F30988AA
:1019DC00EFF314800221084380F31488BFF36F8F58
:1019EC0000F0FEF88024002094ED00E0C0160020EA
:1019FC000749D1F890200023C2F3072218469342DE
:101A0C0000DB7047C1F89830C1F8A0000133F6E74D
:101A1C0000ED00E008B572B6002383F31388FFF7DE
:101A2C00E7FF144B4FF0FF32C3F88020C3F884203B
:101A3C00C3F88820C3F88C20C3F89020C3F89420F6
:101A4C00C3F89820C3F89C20C3F88021C3F88421E4
:101A5C00C3F88821C3F88C21C3F89021C3F89421D2
:101A6C00C3F89821C3F89C2162B6BFF34F8FBFF324
:101A7C006F8F08BD00E100E0084B9B6883420BD1DF
:101A8C00EFF3058343B1064B5A6842F080525A601B
:101A9C005A6A22F400425A6205F0BCBA5C1100206A
:101AAC0000ED00E015498A684FF030001044EFF368
:101ABC00098C80E8F01F402080F31288BFF36F8FF1
:101ACC000F4F4FF000664A698A603E604FF0700419
:101ADC00141920680B4C2060506F0023536780F35F
:101AEC00118804B5104600F017F9BDE8044002F166
:101AFC00300090E8F01F8CF3098870475C110020CF
:101B0C0004ED00E0000F00201EF0040F0CBFEFF3FB
:101B1C000880EFF30980816911F8021C0229FFD0BB
:101B2C0001B5724606F00AFB01BD00BF40B20028A9
:101B3C0007DB044A4109012300F01F00834042F8EF
:101B4C002130704700E100E040B200280CDB430973
:101B5C00064900F01F0020330122824041F8232067
:101B6C00BFF34F8FBFF36F8F704700BF00E100E0F2
:101B7C00054B420900F01F0053F82220012303FA01
:101B8C0000F01040704700BF00E100E008B5D3073B
:101B9C000BD40231072909D90E490F48582206F0F7
:101BAC0053FA0C48582106F046FA002140B200289E
:101BBC00ACBF00F16040094B4FEA4111B8BF00F0D7
:101BCC000F00C9B2AABF00F56140195480F8001388
:101BDC0008BD00BF6F8D00009B8A000014ED00E073
:101BEC000B4A08B50B4B22F07F029A60BFF34F8F64
:101BFC00BFF36F8FD3F8882022F47002C3F88820CB
:101C0C0003F0FCFD05F026FC00F05CF803F03AFE56
:101C1C000000000000ED00E042F8203C009B42F880
:101C2C001C3C0A49019B42F8183C029B42F8143CAC
:101C3C0021F001014FF0807342F8043C42F8081C7B
:101C4C000023203A02654367704700BFED0F000088
:101C5C00094A0346906870B113F1160F006E05D057
:101C6C00A0F140029A4205D8834203D2814228BF98
:101C7C0000207047002070475C11002008B5154605
:101C8C00094A0A4B9060026F1A600E4600F044F845
:101C9C002C4686F309880020054B984720460021E6
:101CAC0000220023034C20475C110020000F002071
:101CBC0083810000ED0F0000014B10221A61704768
:101CCC0000ED00E0044800234021C2180133272B0B
:101CDC0082F80013F9D1704700E100E008B5EFF38A
:101CEC000583064A103B02EBC30152F833004968E6
:101CFC008847BDE80840FFF7B1BC00BFF8050020DD
:101D0C00024B034A0348012100F076B80000012081
:101D1C0000000020C0890000026E054B403A1A609A
:101D2C00044A4021C3E901121846012100F080B891
:101D3C00040F002000000B15084AC2F898000B682D
:101D4C0023F01F03034343F01003C2F89C308B684D
:101D5C0043F00103C2F8A030704700BF00ED00E073
:101D6C002DE9F043DFF8608085B00E461F4604462F
:101D7C004FF00009B14523DA6068D8B13FB1411E7C
:101D8C0008421BD11F2819D92368194216D1236880
:101D9C00019306F013FAA36803430393D8F8905009
:101DAC00C5F30725D0B2013DA84207D801A9FFF71A
:101DBC00C3FF421C09F101090C34DBE76FF015027B
:101DCC00104605B0BDE8F08300ED00E0044B0522A1
:101DDC00C3F89420BFF34F8FBFF36F8F704700BFD2
:101DEC0000ED00E0BFF35F8F024B0022C3F894209C
:101DFC00704700BF00ED00E010B50A4C01232278BB
:101E0C00FFF7AEFF207016300AD10749074840F2A1
:101E1C006F1206F019F9044840F26F1106F00BF935
:101E2C0010BD00BFF9130020A68D00009B8A000096
:101E3C0008B5114A00231278FFF792FF10F1160F24
:101E4C0008D00E4A0021D2F89030C3F307239842F1
:101E5C000BDB08BD0A490B484FF4C77206F0F4F8C7
:101E6C0007484FF4C77106F0E6F8C2F89800C2F8BC
:101E7C00A0100130E7E700BFF913002000ED00E0EF
:101E8C00A68D00009B8A00002DE9F04F6D4B6E4C27
:101E9C00D3F890302568C3F307239D4285B00AD947
:101EAC006A496B484FF4D37206F0CEF84FF4D371F5
:101EBC00664806F0C0F8FFF795FF00200C26854217
:101ECC0029D1644C644F25706846FFF75DFBDFF841
:101EDC007481DFF8889106460025AE4222D1237822
:101EEC0058490020D1F89020C2F307229342C0F247
:101EFC009E80FFF76BFFD1F89030C3F30723082BBC
:101F0C0000F09B80514952484FF4067206F09CF841
:101F1C004FF40671CCE7616806FB0011FFF70CFF6C
:101F2C000130CCE7009A02EB05132901D3F80CA081
:101F3C000AEA0700B0F5000F5CD00AD8B0F5001F14
:101F4C0036D0B0F5800F48D0B0F5801F12D00135D7
:101F5C00C3E7B0F1807F58D0B0F1007FF7D198681B
:101F6C00D3F804A0525806F029F9CDE901A240F4A7
:101F7C0080200BE09868D3F804A0525806F01EF9A4
:101F8C00CDE901A240F0885040F430200390D8F8FD
:101F9C0090302078C3F30723013B984240D92B495A
:101FAC002B484FF4E87206F04FF84FF4E8717FE7D6
:101FBC009868D3F804B0525806F000F91AF0010FE3
:101FCC0040EA0900CDE901B20390E0D01F49204856
:101FDC00742206F039F874216AE79868D3F804A0E3
:101FEC00525806F0EBF840F0E060CDE901A240F465
:101FFC000030CBE79868D3F804A0525806F0DEF80E
:10200C00CDE901A240F08270C0E79868D3F804A033
:10201C00525806F0D3F8CDE901A240F08870B5E72C
:10202C0001A9FFF789FE2378013323708FE7C1F8EC
:10203C009830C1F8A000013354E7002005B0BDE88A
:10204C00F08F00BF00ED00E0CC890000A68D0000F1
:10205C009B8A0000F91300200000F0FF000008111B
:10206C0008B50649064821F00701C1F1005202F5F6
:10207C008032FEF725FF002008BD00BF0729002095
:10208C00100F0020024B0122C3F84025002070479E
:10209C0000E0014020B1034B800143F001031847DD
:1020AC00704700BFB0890000BFF34F8F0549064B46
:1020BC00CA6802F4E0621343CB60BFF34F8F00BFDA
:1020CC00FDE700BF00ED00E00400FA05F7B5064699
:1020DC000D461446194F384606F01FFA40B91849F8
:1020EC001848142205F0B0FF1548142105F0A3FF81
:1020FC00AAB2BB681B683BB9134912485B2205F0B6
:10210C00A3FF11485B21F1E7314638469847002878
:10211C0002DB002003B0F0BD002CFBD1AC42F8D2A6
:10212C002F1B042F28BF042706F0D2F83A46019043
:10213C0001A9301906F0DDFA3C44EFE77488000081
:10214C00E48D00009B8A00001D8E000037B50C4604
:10215C000A490B4A411A402300934911054623466C
:10216C00084806F03EF8011E05DA2846234603B05F
:10217C00BDE83040184703B030BD00BF300F002021
:10218C00598200004C880000C9B2012908B508D951
:10219C00084909487F2205F057FF06487F2105F0C2
:1021AC004AFF03690C2201FB0233986C00F0070014
:1021BC0008BD00BF518E00009B8A000070B5C9B2EB
:1021CC00012903690AD9184918484FF4DF7205F040
:1021DC003BFF15484FF4DF7105F02DFFEFF3118530
:1021EC00402484F31288BFF36F8F0C2606FB013456
:1021FC00A46C14F0C00408D0A24206D085F3118858
:10220C00BFF36F8F4FF0FF3070BD06FB013301221F
:10221C009A6485F31188BFF36F8F436803EBC10396
:10222C005B6898470020EFE7518E00009B8A000006
:10223C0070B50D460649411A04464911054840221D
:10224C00FFF7BCFF2B4601462046BDE870401847FF
:10225C00300F00204C880000002270B5012104468C
:10226C001046FFF793FC114802F09CFA104B984271
:10227C0018D1206900F026FA02F0A6FA26690D4959
:10228C00304605F030FF00280BDB0125B5642469CE
:10229C00084904F1200005F026FF002801DB6565E4
:1022AC00002070BD6FF00400FBE700BF9D23000011
:1022BC000000AD0BEC8900001FB500220123CDE915
:1022CC000223094ACDF800D06B46CDF804D005F0B6
:1022DC00B6FF002805DB4FF480420023684603F06C
:1022EC0039FD05B05DF804FB6582000010B5074CA4
:1022FC0023782BB94FF4A57006F00BF9012323704A
:10230C00BDE81040002002F083BA00BFFA13002091
:10231C0010B5EFF31184402383F31288BFF36F8F52
:10232C00074A136823F00201DB07116002D4012075
:10233C0002F0F8FA84F31188BFF36F8F10BD00BF61
:10234C00880F002030B4104B0C2202FB00330146E6
:10235C000020D3E910521864EFF31180402484F369
:10236C001288BFF36F8F9C6C04F0C00444F002041D
:10237C009C6480F31188BFF36F8F1DB12B4603480B
:10238C0030BC184730BC7047300F00204C88000020
:10239C00012810B504460AD003280CD078B90E4B8E
:1023AC009B6C5B0716D1BDE81040FFF7CBBF00F06C
:1023BC0097F92046F7E7BDE8104000F09FB90749B0
:1023CC00074840F2ED2205F03FFE044840F2ED21B3
:1023DC0005F031FE10BD00BF300F0020518E000003
:1023EC009B8A000010B4EFF31182402383F3128810
:1023FC00BFF36F8F1748016841F002040460C807EF
:10240C0007D482F31188BFF36F8F012010BC02F048
:10241C00FFB94FF08041D1F80C04D1F80C14C90766
:10242C00EFD5EFF3118083F31288BFF36F8F0A4956
:10243C008B6C03F0C00343F002038B6480F31188B0
:10244C00BFF36F8F82F31188BFF36F8F002010BC26
:10245C00FFF778BF880F0020300F0020024BC0B26E
:10246C0003EB4010704700BF300F0020F8B5334924
:10247C00BFF35B8F0646012251E8003F41E8002084
:10248C000028F9D1BFF35B8F9BB92D492D484B60C8
:10249C00CB608A60FEF782FF00280ADA2A492B48B3
:1024AC0040F2912205F0D0FD40F29121264805F032
:1024BC00C2FD06B3731E012B37D806F0A2F80446F2
:1024CC00D0B9234B1B78BBB14FF080430222C3F829
:1024DC00082305464FF08047D7F81824D7F818344E
:1024EC00D20312D59B0701D0012E0ED1BCB185F3BE
:1024FC001188BFF36F8FF8BDEFF31185402383F381
:10250C001288BFF36F8F0124E4E71CB1284605F055
:10251C0046FEE1E70021212004F004FDDCE74FF04A
:10252C0080430222C3F80423E5E70749074840F239
:10253C00A32205F089FD40F2A321B7E72C0F002060
:10254C001C0F0020500F0020518E00009B8A0000B1
:10255C00A116002008B5134BBFF35B8F012253E883
:10256C00001F002903D143E800200028F7D1BFF356
:10257C005B8F15D10C490023CB600C4B4B600323B4
:10258C008B600B4B1868FEF709FF002808DA094925
:10259C0009484D2205F058FD06484D2105F04BFD2C
:1025AC0008BD00BFA80F0020900F0020A52600003A
:1025BC008C0F00209D8E00009B8A000007B5002226
:1025CC000023CDE900230D484FF40032002305F021
:1025DC00EFF90B4B1868FEF765FF002808DA09497C
:1025EC000948552205F030FD0648552105F023FD1C
:1025FC00064B00221A6003B05DF804FB380700207C
:10260C008C0F00209D8E00009B8A0000A80F0020DC
:10261C00F7B51C4E1C4CB7681C4DFB683F2130466F
:10262C00984740B1002323702B8002F095F90123C9
:10263C00237003B0F0BD0C213B696A4630469847C5
:10264C000028EFD1124A019B93FBF2F3009A2178F8
:10265C0003EB82031BB2B5F900200029E4D09A1ACF
:10266C00002AB8BF524212B2012ADDDC094A1368B3
:10267C00013901332170136003B0BDE8F040FFF75E
:10268C009DBF00BF88880000FB130020AE11002006
:10269C0090D00300A00F002008B5074805F03DFFBF
:1026AC0028B902F059F9054B01221A7008BDBDE892
:1026BC000840034803F09CBD88880000FB130020F1
:1026CC003C050020034B044A186000231360034AA6
:1026DC00136070478C0F0020A40F0020A00F002067
:1026EC00024B00221A70FFF735BF00BFFB1300200E
:1026FC00014805F0E2BF00BF38070020024A13680A
:10270C0001331360FFF75ABFA40F0020EFF31182BF
:10271C00402383F31288BFF36F8F0A4BD3F8001159
:10272C0061B10021D3F80805C3F80011D3F80031CA
:10273C00C0B282F31188BFF36F8F70476FF00A003D
:10274C00F7E700BF00D00040F0B5034610469C7878
:10275C0093F803C0EFF31182402585F31288BFF381
:10276C006F8F1F7893F801E0E41B04EA0C04A0427D
:10277C0088BFA0B23E180CEA06063D461E7082F3D6
:10278C001188BFF36F8F0A188A4216D177450CD186
:10279C00EFF31182402181F31288BFF36F8F197808
:1027AC00597082F31188BFF36F8F1B79241AA342DF
:1027BC0022BF064B01221A60F0BD5E1901357679F5
:1027CC0001F8016B05EA0C05DEE700BF00D0004004
:1027DC002DE9F0472D4D0069A8420E4614460AD04B
:1027EC002B492C4840F2031205F02EFC284840F2ED
:1027FC00031105F020FCDB4313F0010504D020305D
:10280C00FFF7A2FFBDE8F0879AB3EFF311884023DE
:10281C0083F31288BFF36F8F0D20FFF7A9F90746DA
:10282C000D20FFF791F988F31188BFF36F8FDFF854
:10283C0068A0DFF86880CAF80051DAF800314FF46C
:10284C0000590123CAF800302546C8F88091DAF8FF
:10285C00003183B1FFF75AFF031EC8F88091F6DBF5
:10286C00013DADB27355002DF1D117B10D20FFF71D
:10287C005DF92046C6E7EFF31180402383F31288FD
:10288C00BFF36F8F05F08BFCE1E700BFAC0F0020AE
:10289C00DE8E00009B8A000000D0004000E100E0CA
:1028AC002DE9F041184B07699F420D46144605D19E
:1028BC0007F135085CB92046BDE8F081134914488E
:1028CC00E52205F0C1FB1148E52105F0B4FB4FF002
:1028DC00FF334FF0FF32384603F03CFA22462946CC
:1028EC004046FFF731FF0646384603F0D1F93EB9B2
:1028FC004FF0FF324FF0FF33064803F02BFAE6E7B8
:10290C00A41BA4B23544D5E7AC0F0020DE8E00002A
:10291C009B8A0000BC0F002038B51F4B04699C42F9
:10292C000AD01E491E4840F2471205F08DFB1B4889
:10293C0040F2471105F07FFB01221146204605F0BD
:10294C0023FE0122002104F1100005F01DFE40F2CF
:10295C00074323874FF0706323620C2384F82430E1
:10296C000025104B84F83550E586D3F8042522F069
:10297C000102C3F804250121C3F80051D3F800214A
:10298C00C3F804132A4619600D20FFF7FFF80D2039
:10299C00FFF7CCF8284638BDAC0F0020DE8E0000C7
:1029AC009B8A000000D0004010B5FFF7AFFE002856
:1029BC0020DB174B93F8222093F8214093F8231037
:1029CC00141B31EA0404C0B20DD193F8372093F8EC
:1029DC00364093F83810141B31EA04040BD10D4B1C
:1029EC0001225A600EE09C180132114084F8250037
:1029FC0083F8221010BD9C180132114084F83A0063
:102A0C0083F837100448BDE8104003F041B900BF0B
:102A1C00AC0F002000D00040BC0F002010B50369A3
:102A2C0041B91C491C483F2205F00EFB3F211948B7
:102A3C0005F001FB486830B916491748402205F0EB
:102A4C0003FB4021F3E75868F8B1884219D19C6820
:102A5C0008685860A14200D19860002008602AB133
:102A6C005A680A609A68596002B99960002010E0AF
:102A7C00814206D10868206098688142EDD19C6043
:102A8C00EBE7044600680028F2D1002AE8D16FF089
:102A9C00150010BD208F00009B8A000038B54568DA
:102AAC002B69B3B11035284602F0AAFA044680B956
:102ABC000146284602F06AFA084B98420BD10849A5
:102ACC002246284602F036FA224605210620FFF758
:102ADC005DF8002038BD6FF00400FBE70000AD0B83
:102AEC000D2C000008B50268530904D14FF0FF33D8
:102AFC00D340DB070AD4074907484FF46C7205F042
:102B0C00A3FA04484FF46C7105F095FA4FF0A0400D
:102B1C0008BD00BF688A00009B8A0000F0B54068C1
:102B2C00057B01F01F0444EA4514056987B0002DAC
:102B3C005BD0B2F5001F00F1100506D121462846E6
:102B4C0005F08BFC002007B0F0BD01AE0027B2F5FC
:102B5C00800F0197776033D1B3F1007F14BF052349
:102B6C0004238DF804300023CDE9046303938368B8
:102B7C00CB40D90716D4B2F1A07F13D1684600948C
:102B8C00FFF7B0FF04F5E07350F82330DB0709D4EE
:102B9C006A462146284602F0D3F9174B98421AD0C0
:102BAC00CDF808D003AA2146284602F099F8134B19
:102BBC0098421DD101222146284602F037FAC1E77E
:102BCC00B3F1C06F05D0B3F1007F14BF0123022312
:102BDC00C7E70323C5E76946284602F021FA074BED
:102BEC009842DDD06FF00B00ADE76FF08500AAE7DF
:102BFC006FF01500A7E700BF0400AD0B0000AD0B94
:102C0C00430970B507D1104B596821B101250C68E7
:102C1C000E4E854001B970BD8A682A400CD04B68B5
:102C2C0043B90B490B48642205F00EFA084864219D
:102C3C0005F001FA304698471CB1236821461C4622
:102C4C00E8E72346FAE700BFF00F00206088000099
:102C5C00208F00009B8A00002DE9F043466840F26B
:102C6C000635337BD00687B001F01F0702EA050555
:102C7C0047EA431754BFC2F340130323B5F5837FD0
:102C8C0014468DF8033044D00FD8062D18D007D831
:102C9C00B5B1022D3FD06FF0150007B0BDE8F08341
:102CAC00B5F5807FF7D101250AE040F2022295426A
:102CBC0033D0B5F5407F32D0B5F5007FEBD102258E
:102CCC000123220303FA01F12BD57368C3F808150D
:102CDC00336963BB03A80397FFF704FF84F48033C5
:102CEC0000EB8700C3F30043C4F34044D0F8002743
:102CFC0044EA43049DF8033022F4E16244EA83047D
:102D0C0022F0070244EA05231343C0F800370020E1
:102D1C00C3E70725D4E70425D2E70525D0E703252B
:102D2C00CEE7630344BF7368C3F80C15D0E71036C5
:102D3C000DF102023946304602F002F914F4403F1C
:102D4C00804616D13946304605F085FB234B984515
:102D5C00DDD19DF80210304602F05CF94045D6D02A
:102D6C001F492048EC2205F06FF91D48EC2105F0B5
:102D7C0062F901AB4FF0000903AA39463046CDE9A0
:102D8C000439CDE90199CDF80C9001F0A9FF134B52
:102D9C00984280D114F4003315D09DF803308DF88F
:102DAC000E3084F48034C4F300444B4603AA3946F5
:102DBC0030468DF80C508DF80D4002F03FF8074B63
:102DCC009842C3D067E7CDE9043303AA0DF103039E
:102DDC0039463046039301F083FFF0E70000AD0B5A
:102DEC005C8F00009B8A0000014B01221A60704727
:102DFC0000C000400C2903690BD15B6A06490748E7
:102E0C004B4393FBF0F100FB113311605360002036
:102E1C0070476FF08500704790D0030040420F0060
:102E2C00044B00690022C3F80021D3F8003102F0F2
:102E3C002FBF00BF00C000407FB50569AB6A002BF7
:102E4C0040D03F2901D00C293FD105F110064FF09D
:102E5C00FF324FF0FF33304602F0A2FD1C4B0193C2
:102E6C0000240323A86A039469460293FEF796FA9A
:102E7C00A04208DA174918483D2205F0E5F83D2133
:102E8C00144805F0D8F84FF0FF324FF0FF332846C6
:102E9C0002F060FFA86AFEF705FB002806DA0D4970
:102EAC000D48422205F0D0F84221E9E70B4BD3F84C
:102EBC0008256A6201225A60304602F027FE20463D
:102ECC0004B070BD6FF00A00FAE76FF08500F7E709
:102EDC00F52D0000968F00009B8A000000C000407A
:102EEC0010B504690020FFF7B9FAA06240B9104987
:102EFC001048772205F0A8F80D48772105F09BF8CB
:102F0C004FF0FF320021204605F03EFB04F110008B
:102F1C0005F033FB002201210C20FEF737FE0C20BC
:102F2C00FEF704FE044B0122C3F80423002010BD5D
:102F3C00968F00009B8A000000C0004070B40E49C0
:102F4C00D1E90034D01AC31844F1000422F07F46B2
:102F5C00C1E90034A6F50013B3F5400F09D2074BB5
:102F6C001B681A0A1B069C19054B42F10005C3E9A4
:102F7C00004570BC04F0A8BB900C00203010002061
:102F8C00980C00200D4B1868010A0006BFF35F8FE8
:102F9C000B4BD3F80435181841F10001B3F5801F21
:102FAC000AD2084BD3E90023904271EB030303D2FE
:102FBC0010F1807041F10001704700BF301000200B
:102FCC0000100140980C00202DE9F7432B4CD4F84D
:102FDC00043399070BD5D4F8043143B1284A0023A4
:102FEC00C4F80431D4F80431136801331360D4F8F5
:102FFC000433DA0323D5BFF35B8F224B53E8002F46
:10300C0022F0010143E800100028F7D1BFF35B8FD9
:10301C00D30702D4D4F840318BB10025C4F8405109
:10302C00D4F84031FFF7AEFFEFF3108272B6164BB7
:10303C00D3E90267B042B94104D282F3108803B0DD
:10304C00BDE8F0834FF0FF384FF0FF39C3E9028938
:10305C00D3E900101D604FF48033C4F84833C4F832
:10306C004051D4F8403182F310880029E7D0009009
:10307C0032463B4628468847E1E700BF0010014036
:10308C003010002028100020800C00202DE9F84F73
:10309C004B4DBFF35B8F06460F4655E8008F28F06B
:1030AC00010345E80032002AF7D1BFF35B8F454C92
:1030BC004FF48039C4F80893BFF35F8FBFF36F8F61
:1030CC00FFF760FFB04271EB070308F0010840D234
:1030DC003D4B301A67EB0101984271F100014CD263
:1030EC003A4BD3E902239F4208BF96423ED04FF0A1
:1030FC00000CC4F84893C4F840C126F07F40D4F8C3
:10310C004031DFF8CCA0834603216FF0020E2BF088
:10311C007F43C4F84035C4F84493D4F80425AEEB8F
:10312C0002035B4423F07F4353451FD9D4F840314D
:10313C005BB1D4F80425131A23F07F43B3F5000FC9
:10314C0014D9C4F840C1D4F8403101EB020B013161
:10315C00DDE7204BBFF35B8F53E8001F41F001010B
:10316C0043E80012002AF7D1BFF35B8F174B1A4AC2
:10317C001A60C3E9026700225A60B8F1000F1CD034
:10318C00BFF35B8F55E8003F43F0010345E8003285
:10319C00002AF7D1BFF35B8F4FF48033C4F80433AC
:1031AC000C4BBFF35B8F1B68BFF35B8FDB0742BF1E
:1031BC000A4B4FF40032C3F80021BDE8F88F00BF72
:1031CC002C1000200010014001008000800C002019
:1031DC00FDFF7F0028100020492F000000E100E0D7
:1031EC0070B5194C194BC4F80833C4F84833184B54
:1031FC0000254FF0FF304FF0FF31C4F80855C3E9FC
:10320C0002014FF48033C4F80433124B02264FF4FE
:10321C000032C4F804630121C3F8802111202A462E
:10322C00FEF7B4FC1120FEF781FC01230A4AA360CF
:10323C000021236009481360FFF728FF3046FFF791
:10324C0015F9284670BD00BF0010014003000F00A7
:10325C00800C002000E100E02C100020FFFF7F001C
:10326C00431C10B50F4C05D08442A8BF0446012C5A
:10327C00B8BF0124FFF786FE0B4AD2E90031C01A11
:10328C00B0F5000F074A0AD22044904228BF1046DE
:10329C00C018BDE8104041F10001FFF7F7BE104621
:1032AC00F6E700BFFFFF7F00900C002008B5FFF78A
:1032BC0069FE024B1B68C01A08BD00BF900C0020B1
:1032CC000B4B0C4A1B7AC2F81035042B0DD8DFE8D7
:1032DC0003F0080308080300074BA0221A60012022
:1032EC007047054B4FF49672F8E70020704700BF0B
:1032FC0028110020001000403C100020044A00233C
:10330C00C2E908339362034AC2E9083393627047F7
:10331C00F4100020C8100020054B1B68D3F80423C0
:10332C00920342BF0022C3F84421D3F844317047C2
:10333C007C05002008B5FCF7DDFE0C490C48FCF7B9
:10334C00D3FE0C4A0C4B507C1B6898470B4B0C4A19
:10335C00C3F8042540F21712C3F80022094B0A4A9D
:10336C001A600A4B04221A7008BD00BF4C050020DD
:10337C00388A000028110020341000200010004072
:10338C005416002038100020313800009816002008
:10339C0008B5094B1B6801225A60DA60FCF7B0FED5
:1033AC00FCF7A8FE00F008FE0320FCF7AFFEBDE81A
:1033BC000840FCF78DBE00BF7C05002008B507490E
:1033CC000748FCF791FE38B900F0DAFD054B1B6895
:1033DC0040F20442C3F8002208BD00BF4C05002097
:1033EC00388A00007C05002038B51C4B1C4C1B682F
:1033FC0001255D60DD6000F0DFFDFCF781FEFCF770
:10340C0067FE0021284600F059FE40F21313C4F861
:10341C000032144A144B507C1B689847134BC4F869
:10342C0004350023C4F81031D4F810312561D4F8D8
:10343C001031002BFBD00021C4F81011D4F810313E
:10344C0040F21713C4F80032012000F0CBFDFFF757
:10345C00B5FF074B01229A6138BD00BF7C050020E7
:10346C0000100040281100203410002054160020B9
:10347C00004001402DE9F843224BDFF88C801A788C
:10348C00012A81460F4630D198F80030C3F305026B
:10349C0003F03F03202B33D81C4B196A53F821300F
:1034AC001A701A4D1A492C6A55F8246030460134AA
:1034BC0010F8052B05F01DF9164B86F80190D3F882
:1034CC004835377103F07F03B37098F80130DB4354
:1034DC0003F00103F370AB6A082C28BF00240133FE
:1034EC002C62AB620120BDE8F883084A116A52F8DD
:1034FC002120597809B91170D3E75B7C1370D0E7A0
:10350C000020F0E72811002054160020C8100020DD
:10351C00561600200010004007B5114B1148DA7CFC
:10352C0090F90A00002302F5166201A9FCF7FAFDD6
:10353C009DF80500FCF7F0FD50B10B490B4840F22B
:10354C005D3204F081FD084840F25D3104F073FDFA
:10355C009DF80420064BC3F80C2503B05DF804FB62
:10356C006405002028110020DE8F00009B8A0000DB
:10357C0000100040837842781B0443EA022302784F
:10358C001343C27843EA0253027943EA0263094ABD
:10359C00C2F81435C37981791B0443EA01234179BC
:1035AC000B43017A43EA0163417A43EA4163C2F86F
:1035BC0018357047001000401FB500230293ADF87A
:1035CC000C300A4B01930A4B5B7CC0B2013B8DF86B
:1035DC0009008DF80A008DF80B3001A801238DF835
:1035EC000C30FFF7C7FF05B05DF804FB00010100CC
:1035FC00640500201FB50F4A0023CDE901230E4BB3
:10360C005B7C013B8DF80B3020238DF809300B4B84
:10361C001B7A01229342ADF80C2007D18DF80820BB
:10362C0001A8FFF7A7FF05B05DF804FB042BF5D04C
:10363C00F6E700BF060003006405002028110020F7
:10364C00684620F007018D4619B5144BD3F80423B6
:10365C00D2060BD5D3F8102142B10022C3F81021A9
:10366C00D3F810310E4B1B6803B198470B4CD4F8B0
:10367C0004331B070BD5D4F80C3143B1084B1B6832
:10368C0003B198470023C4F80C31D4F80C31FDF782
:10369C00E5FFBDE819408546704700BF00100040AB
:1036AC0038100020684620F007018D4631B5194BC3
:1036BC0082B01B680193EFF31181402383F31288CE
:1036CC00BFF36F8F144B00221D681A6081F31188B1
:1036DC00BFF36F8F114C2368ABB1E90703D58DF89D
:1036EC00002068469847AA0705D501238DF80030BD
:1036FC006846236898476B0705D502238DF8003080
:10370C00684623689847FDF7A9FF02B0BDE8314031
:10371C0085467047401000204410002024110020E2
:10372C00C20708B5014606D5374804F0D9FD374B1A
:10373C0000BAC3F81C058B0706D5354804F0D0FD3C
:10374C00324B00BAC3F8200548070AD531482F4937
:10375C0004F0C6FDC1F824052F4804F0C1FDC1F8E2
:10376C0028054FF08053D3F83021511C09BF4FF07E
:10377C007043D3F8343193F8E02FD3F8E83F08BF07
:10378C00C3F30313062A3DD1033B042B02D8234A6F
:10379C00D35CBBB31C4B224A5B7C052B1B4BD3F875
:1037AC001C15D3F8200518BF4FF07F424140114241
:1037BC0028D1D3F82415D3F82825C1F30720CBB290
:1037CC00834214D0C1F30740834210D0B3EB116F86
:1037DC000DD0D1B28B420AD0C2F307218B4206D056
:1037EC00C2F307418B4202D0B3EB126F0AD1074AE6
:1037FC00D2F8743723F0807323F0010343F0807305
:10380C00C2F8743708BD00BF6405002000100040EA
:10381C00680500206C050020700500200490000055
:10382C000000FFFF2DE9F84F7C4AD2F8007417F026
:10383C00010703D1BDE8F84FFFF7D6BDDFF8E0A1D3
:10384C00DAF82830072BF5D8D2F80834754DDFF8A4
:10385C00D891D2F80C4499F80120DBB2C2F34101A3
:10386C0035F8230084424FEA830640F0AC80A81957
:10387C008078814240F0A780B8460027AA196B4C8B
:10388C009170664AD2F80C2425F82320A37C23B12E
:10389C0099F80130DB0740F1BD80FCF731FC64493D
:1038AC006448FCF71BFC94F800B0634CBBF1000FB0
:1038BC0000F0A180BBF1010F57D1584BDFF87CC150
:1038CC00D3F80814DCF82830002B00F08A805C4810
:1038DC00C9B250F82120002A00F08380DFF864B1CF
:1038EC00D2F800E0CBF800E005EB060E9EF803E002
:1038FC00BEF1000F17D0B8F1000F14D182F804807C
:10390C0050F82120013B926840F82120CCF8283057
:10391C00002B5BD002B11268CBF800204A4A136826
:10392C0043F001031360494BDBF800801A68AB19B4
:10393C00B8F1000F4CD00121D97098F800009047D5
:10394C00DBF8001023780A78414862F305032370F2
:10395C0011F8052B04F0CDFE637899F8012023F0C3
:10396C00070302F00702134363703A4B05221A70E7
:10397C00FFF7D2FD294BD3F80824D2B2C3F82C257B
:10398C0040F21B12C3F80445C3F80022324B334AF1
:10399C001A60B7B1214BD3F80804DAF82830354453
:1039AC00072BA9780DD8C0B2FFF764FD48B1264AA1
:1039BC00136843F004031360294B4FF48012C3F8CF
:1039CC000021BDE8F88F4FF0000857E74246A3E707
:1039DC0083F8038040469047237868F305032370EF
:1039EC00BAE7AB194FF0000883F80380174B404639
:1039FC001B689847F0E7154B58461B68984799F891
:103A0C000030227884F801B0C3F3010363F30102A0
:103A1C002270AAE7FFF7E8FCBBE700BF00100040EC
:103A2C00C8100020B01100205416002028110020CE
:103A3C004C050020208A000076160020F41000208F
:103A4C0048100020201100204410002034100020C9
:103A5C007816002098160020381000204133000002
:103A6C0000E100E010B500F0CBFBFFF791FC134830
:103A7C0001F0FCFC00F0EEFB114A1248D2F8503673
:103A8C0023F00103C2F850360F4B00241C700F4B6F
:103A9C0021461C70FFF732FC202204F038FE0C4B40
:103AAC0001201C605C60FEF74FF81420FEF74CF808
:103ABC00BDE810400A20FEF747B800BF7C05002087
:103ACC0000100040B011002098160020991600201C
:103ADC004C160020F0B5044685B0002800F0DB80C1
:103AEC006E4D2B780BB1FFF7BDFF6D4B62681A6002
:103AFC006C4A234604F11007164618685968144698
:103B0C0003C40833BB422246F7D118682060664BC9
:103B1C0066480024202221461C6004F0F8FD644B0A
:103B2C0064491C605C60FFF7CBFB337883B1012BDD
:103B3C0001D1614B0B60727A604B012A00F09E80C0
:103B4C00022A07D07AB9C3F83C25C3F8342508E01B
:103B5C005B4BEFE74FF6FF70C3F83C05C3F8342519
:103B6C00584AC3F838250B68707C9847534B564914
:103B7C0056484FF0E732C3F81C254FF04332C3F8D8
:103B8C002025534AC3F82425524AC3F82825FFF7A9
:103B9C00B5FB0A4600230133082B40F8042B02F135
:103BAC002502F8D14C4A4D4800230133082B40F82C
:103BBC00042B02F12502F8D10022494B14460132A4
:103BCC00082A19601C719C6001F1250103F10C039A
:103BDC00F5D120220021434804F099FD424B434A81
:103BEC004348019301A9CDE9024401F0B3FB414BD9
:103BFC0098424BD100F0C0FA0446002848D100F09E
:103C0C00FBFA3D4B2D495860D1F85026F37C22F03D
:103C1C0001021343C1F85036012108462246FDF734
:103C2C00B5FF224602211420FDF7B0FF22460221E7
:103C3C000A20FDF7ABFF0120FDF778FF1420FDF7FC
:103C4C0075FF0A20FDF772FF2C4B1C7001232B70A3
:103C5C004FF08053D3F83021062A19D1D3F83431E0
:103C6C00033B042B02D8264AD35C8BB1134AD2F8FF
:103C7C003C3743F48063C2F83C3709E0FF20C3F8BB
:103C8C003C05C3F8342540F207126AE76FF00D04C7
:103C9C00204605B0F0BD6FF01504F9E79916002029
:103CAC00241100202811002044100020B011002005
:103CBC004C1600203410002001360000001000408B
:103CCC00C53500002110010024150020F41000203F
:103CDC00E743C323A363E313FC130020C8100020A5
:103CEC00681000204810002040420F0025330000CF
:103CFC007C0500200000AD0B4C0500209816002020
:103D0C00FF8F000038B5254B1B78002B3CD00028CA
:103D1C003DD0234CA36A002B3CD0EFF311854023FC
:103D2C0083F31288BFF36F8F636A54F823301A78C9
:103D3C000270636A54F823305B784370636A54F8FA
:103D4C00233093F902308370636A54F823301B7963
:103D5C000371636A54F82330DB78C370636A54F8D8
:103D6C0023100530053104F0C4FC636A0133082BC1
:103D7C0028BF00236362A36A013BA36285F3118809
:103D8C00BFF36F8F002038BD6FF00C00FBE76FF0B6
:103D9C001500F8E76FF03C00F5E700BF991600201E
:103DAC00C810002038B5334B1A7802F0FF05002AF2
:103DBC005CD1314C31494FF0FF32C4F80823C4F8C0
:103DCC001051D4F810212E4A116040F21712C4F889
:103DDC0000221022C4F8042304221A70294B9A7C66
:103DEC00C4F83025DA7C40F6C41102F516628A421A
:103DFC000AD92549254840F20C7204F025F92248CD
:103E0C0040F20C7104F017F9A2F51662C4F80825FB
:103E1C001433BFF35B8F53E8001F21F0010143E81B
:103E2C000012002AF7D1BFF35B8F194BC4F804358D
:103E3C00184B0222C3F880210120FDF777FEC4F84D
:103E4C000451D4F80431C4F80851D4F80831C4F83A
:103E5C00105101202946D4F8103100F0C3F8FFF7B7
:103E6C00ADFA0D4B01229A61284638BD6FF00F0058
:103E7C00FBE700BF9816002000100040313800000E
:103E8C003810002064050020428B00009B8A000043
:103E9C005416002000E100E00040014010B50A4B30
:103EAC001B7803F0FF0443B950B1084B02681A6049
:103EBC000120FFF735FC204610BD6FF00F00FBE72B
:103ECC006FF01500F8E700BF98160020640500207D
:103EDC0010B50A4B1B7803F0FF0443B950B1084BE3
:103EEC0002685A600220FFF71BFC204610BD6FF0E1
:103EFC000F00FBE76FF01500F8E700BF98160020E5
:103F0C006405002038B5104B1B780C4603F0FF05F8
:103F1C009BB9A8B1082913D80A4601460B4804F0EE
:103F2C00E8FB0B4AFF231474C4F10804234104205A
:103F3C009374FFF7F5FB284638BD6FF00F00FBE7D5
:103F4C006FF01500F8E700BF981600206C050020F4
:103F5C00640500206428034607D8074A127802F04B
:103F6C00FF002AB9054AD37470476FF015007047EB
:103F7C006FF00F00704700BF9816002064050020FA
:103F8C00094B0A491A78D30003F1804303F5F8333F
:103F9C00C3F810150649C3F8141501239340054ABC
:103FAC00C2F80435704700BF9C1600201841014030
:103FBC0000A0004000F00140084B09491B78012289
:103FCC009A40DB0003F1804303F5F833C1F8082570
:103FDC000022C3F81025C3F8142570479C16002046
:103FEC0000F00140F0B52B4B2B4C1B782B4FDA001B
:103FFC0014442B4A0025C2F81851D2F81821294A2A
:10400C0015788000EA00C0B202F1804202F5F83265
:10401C0000F1804000F58050C2F81075C2F814050C
:10402C00214A05F5117042F82040204A20481678A4
:10403C00F20002F1804202F5F8320124C2F81005B8
:10404C0000F5973000F58470C2F8140504FA06F6F2
:10405C0004FA05F0304369B1164A174E1178CA00BC
:10406C0002F1804202F5F8328C40C2F81075204300
:10407C00C2F814659B0003F1804303F5F833012269
:10408C00D3F80018AA400A43C3F80028064BC3F81B
:10409C000405F0BD9A16002004F0014018410140BF
:1040AC00004001409D16002000F001409B160020AE
:1040BC00101100409C16002000A00040F0B5294BC8
:1040CC00294E1878294B1A78012404FA02F304FAC1
:1040DC0000F51D4300F51177C3004FEAC20C19BB64
:1040EC0003F1804303F5F833C6F80855C3F81015EF
:1040FC00C3F8141546F827100CF1804303F5F83378
:10410C00C3F81015C3F81415194B1B789B0003F159
:10411C00804303F5F8330121D3F80028814022EACB
:10412C000102C3F80028F0BD124A127803F1804353
:10413C0003F5F833944000212C43C6F80845C3F826
:10414C001015C3F814150CF1804303F5F83346F839
:10415C002710C3F81015C3F81415D30003F18043CE
:10416C00CCE700BF9D16002000F001409B160020FC
:10417C009A1600209C16002038B5174801F07AF8E2
:10418C00164B9842054622D1154801F073F8A84207
:10419C0004461CD1134801F06DF8A042054616D117
:1041AC00114801F067F8A842044610D10F4801F0FD
:1041BC0061F8A04205460AD10D4801F05BF8A8420F
:1041CC00044604D10B4801F06FF8A04202D06FF006
:1041DC00120038BD0020FCE79D1600200000AD0B3E
:1041EC009B1600209C160020A01600209F16002075
:1041FC009E1600209A1600200048704710110040AF
:10420C000E4B0F491B780978012202FA01F102FAD0
:10421C0003F30B430B49097802FA01F10B430A49EA
:10422C00097802FA01F10B43084909788A401343D3
:10423C00074A43F00103C2F8083570479D16002069
:10424C009F1600209B1600209C160020A016002014
:10425C0000F0014038B51E4B187801F011F81D4BD9
:10426C00984205460AD01C491C4840F2351203F00E
:10427C00EBFE194840F2351103F0DDFE184B1878AF
:10428C0000F0FEFFA8420446EDD1164B187800F062
:10429C00F7FFA0420546E6D1134B187800F0F0FF6B
:1042AC00A8420446DFD1114B187800F0E9FFA04278
:1042BC000546D8D10E4B187800F0E2FFA842044610
:1042CC00D1D10C4B187800F0F5FFA042CBD138BD02
:1042DC009D1600200000AD0B099000009B8A000089
:1042EC009B1600209C160020A01600209F16002074
:1042FC009E1600209A160020BFF34F8F0549064BDF
:10430C00CA6802F4E0621343CB60BFF34F8F00BF67
:10431C00FDE700BF00ED00E00400FA054FF070432C
:10432C0093F8E02F062A09D1D3F8E83FC3F303131F
:10433C00033B042B02D8024AD05C70470020704724
:10434C003D900000024AD2F80034002BFBD070479D
:10435C0000E0014010B503F0D7FF40B14FF080539F
:10436C00944AD3F82433C3F30423C2F84035FFF73F
:10437C00D5FF10B1904B914A5A6703F0C5FF48B175
:10438C004FF080534FF08042D3F84432C3F34233A2
:10439C00C2F83C35FFF7C2FF30B1894AD2F8FC3085
:1043AC0023F08073C2F8FC3003F0AEFF40B14FF045
:1043BC0080430022C3F80C21C3F81021C3F8382520
:1043CC00FFF7ACFF20B14FF080430322C3F8A025C8
:1043DC00FFF7A4FF60B17B4B0522C3F81026012226
:1043EC00C3F888260022C3F818263F22C3F81426E7
:1043FC004FF08053D3F83021511C09BF4FF070435C
:10440C00D3F8343193F8E02FD3F8E83F08BFC3F367
:10441C000313062A4DD1033B042B03D86A4AD35C01
:10442C00002B46D04FF08052684BD2F80414C3F8DE
:10443C002015D2F80814C3F82415D2F80C14C3F8BC
:10444C002815D2F81014C3F82C15D2F81414C3F88C
:10445C003015D2F81814C3F83415D2F81C14C3F85C
:10446C004015D2F82014C3F84415D2F82414C3F81C
:10447C004815D2F82814C3F84C15D2F82C14C3F8EC
:10448C005015D2F83014C3F85415D2F83414C3F8BC
:10449C006015D2F83814C3F86415D2F83C14C3F87C
:1044AC006815D2F84014C3F86C15D2F84424C3F83C
:1044BC00702503F029FF48B14FF080534FF0804234
:1044CC00D3F8583203F04F03C2F8E43E03F01CFF5C
:1044DC0048B14FF08043D3F80024D20744BF6FF0AB
:1044EC000102C3F800244FF08053D3F83021062A80
:1044FC0026D1D3F83431033B042B02D8344AD35C95
:10450C0063B1344AD2F83C3743F48063C2F83C3789
:10451C004FF08053D3F83031062B11D14FF080532C
:10452C00D3F83431033B042B02D82B4AD35C3BB178
:10453C004FF01023D3F808224FF08043C3F85825CE
:10454C004FF01021D1F80C32DB0714D5234801238E
:10455C00C0F80435FFF7F6FED1F80C3223F0010356
:10456C00C1F80C32FFF7EEFE0023C0F80435FFF75C
:10457C00E9FEFFF7C1FED1F80032002B03DBD1F8C6
:10458C000432002B14DA154901234FF01020C1F826
:10459C0004351524FFF7D6FEC0F80042FFF7D2FE13
:1045AC00C0F80442FFF7CEFE0023C1F80435DEE765
:1045BC0010BD00BF0030014000C007400DF0ADBA87
:1045CC0000ED00E0005000403890000000C00040BA
:1045DC0033900000001000402E90000000E00140DD
:1045EC0030B50468CCB1BFF35B8FB4FA84F3C3F17C
:1045FC001F03DBB201229A4024EA020250E8005F5A
:10460C00A54204D140E8002CBCF1000FF6D1BFF359
:10461C005B8FE6D102480B7030BD0248FCE700BF4F
:10462C000000AD0B0200AD0B10B50368CB40DB07EF
:10463C0014D401238B400268BFF35B8F43EA020161
:10464C0050E8004F944204D140E8001CBCF1000F2C
:10465C00F6D1BFF35B8FEED1014810BD0148FCE7EA
:10466C000000AD0B0400AD0B034BD3F8003523FA5F
:10467C0000F000F00100704700F00140014BC3F85E
:10468C000405704700F00140014BC3F80805704762
:10469C0000F00140024B00F5117043F820107047F8
:1046AC0000F00140034B00F51170002243F820206C
:1046BC00704700BF00F00140F7B5044650B1012827
:1046CC002ED034493448FB2203F0BEFC3148FB2188
:1046DC0003F0B1FC0C224FF4827302214FF08040A6
:1046EC0003440244C0F808130026012111601E6027
:1046FC008C421B688DF8071008BF0DF1070642F2BB
:10470C0010754FF0804764B3012C14D02349224814
:10471C0040F2A74203F098FC204840F2A741D7E7AB
:10472C0004224FF480730146D8E783B1012003F0D3
:10473C00FAFD013D0BD0D7F80C3403F48033002E76
:10474C00F3D0D7F80C2402F001023270BBB9144B31
:10475C0000225A7111E083B1012003F0E4FD013D08
:10476C000BD0D7F8183403F48033002EF3D0D7F8DD
:10477C00182402F0030232600BB903B0F0BD9DF8AF
:10478C000700012803D103F0CEFD013DBBD1012C64
:10479C00F3D1DCE7429000009B8A00007F90000080
:1047AC003C110020054B1A792AB99A710122186024
:1047BC009A80034870470348704700BF3C110020A3
:1047CC000000AD0B0C00AD0B08B50E4B1A7952B9AD
:1047DC000D490E4840F2591203F036FC0A4840F2DB
:1047EC00591103F028FC1B682BB10020FDF7C0F910
:1047FC0008B9FDF79BF94FF080430022C3F8182548
:10480C0008BD00BF3C110020429000009B8A0000B4
:10481C0070B53D4C237953B93C493D484FF4D472A3
:10482C0003F012FC4FF4D471384803F004FC4FF041
:10483C00804350B101284DD03449354840F2FD1227
:10484C0003F002FC40F2FD11EEE7D3F81814D3F894
:10485C001824CD0326D5900702D00020FFF72CFF9B
:10486C004FF080430022C3F81825C3F80421294ACD
:10487C00D3F80431D2F8FC0040F08073C2F8FC305D
:10488C00254B1D6845F0010119605E685968891B4C
:10489C00B1F50A5FFAD31D602049C2F8FC00082369
:1048AC0002201EE0D3F81424D107D9D5D3F81C2448
:1048BC009207D2D122681AB10222C3F8042370BD28
:1048CC00D3F80421002AFBD00022C3F80421D3F82A
:1048DC000431F4E70022C3F800211149D3F8003168
:1048EC00134603F1804301221A60236823B14FF071
:1048FC008043C3F80403E2E70B68002BFCD00023D1
:10490C000B600B68DBE700BF3C11002042900000FD
:10491C009B8A000000ED00E0001000E00401004064
:10492C000001004008B5094B1B7953B908490948E7
:10493C0040F2172203F088FB054840F2172103F0E0
:10494C007AFBBDE80840FFF7B7BE00BF3C11002062
:10495C00429000009B8A00004FF08043D3F80C1467
:10496C00D3F80C24C80325D5D10723D5D3F81824A4
:10497C00D2031FD5114A917901F0FF00E1B9C3F8B8
:10498C000C01D3F80C11022001219171C3F8340CE5
:10499C001961126822B10822C3F804230848704731
:1049AC00D3F80C21002AFBD00022C3F80C21D3F839
:1049BC000C31F3E703487047034870473C11002063
:1049CC000000AD0B0500AD0B0B00AD0BF8B54FF0B7
:1049DC0080431F4DD3F804430127002604B9F8BDCA
:1049EC00B4FA84F0C0F11F00820002F5807292B21A
:1049FC0002F1804207FA00F31168DBB224EA0304E7
:104A0C000029EBD0166012684FF08042082BC2F8D8
:104A1C00083319D00ED8012B0ED0022B10D00D4913
:104A2C000D4840F2763203F00FFB0A4840F2763123
:104A3C0003F001FB102BF1E76A79002ACED16B71E0
:104A4C002B68C0B29847C9E7C2F8346CAE71F7E76F
:104A5C003C110020429000009B8A000008B50268BF
:104A6C000146104603F078FC50B90E490E484FF43D
:104A7C006C7203F0E9FA4FF46C710A4803F0DBFA3C
:104A8C0002F01F0352090B6008D00649064840F299
:104A9C00B93203F0D9FA40F2B931EEE74FF0A04049
:104AAC0008BD00BF688A00009B8A0000072808B573
:104ABC000AD90749074840F2AA3203F0C5FA04485C
:104ACC0040F2AA3103F0B7FA800000F5807008BDFF
:104ADC00B39000009B8A000070B500F108030C4CE9
:104AEC0034F81330DA0505460E4607D5C3F34323D5
:104AFC0004EBC30254F8333052689847A3682BB1C7
:104B0C00E26831462846BDE87040184770BD00BFCA
:104B1C0084050020C0B2034B083033F81000C0F3FA
:104B2C004000704784050020C0B2034B083033F8B6
:104B3C001000C0F3401070478405002010B5C0B2BF
:104B4C00174A083032F81030D9051DD5C3F343216C
:104B5C0023F4F85322F8103002F10E04002034F83C
:104B6C00023F13F4807F03D0C3F3432399420BD04D
:104B7C0001302028F3D100230A4842F83130FFF7E6
:104B8C0053FD094B984200D110BD084908484FF419
:104B9C00DC7203F059FA05484FF4DC7103F04BFA60
:104BAC0084050020DC0500200000AD0BE89000001F
:104BBC009B8A00002DE9F843002407460E46254643
:104BCC004FF00108A146B5420DD1124BD3F87C2110
:104BDC0032B10022C3F87C21D3F87C3144F000447C
:104BEC002046BDE8F883E8B2FFF760FFA0F58072BD
:104BFC00920808FA02F2174209D000F1804303F53B
:104C0C00C043196819B1C3F800901B6814430135EF
:104C1C00D9E700BF0060004010B5044608460A46BC
:104C2C00FFF782FFC0B10846FFF774FFA0B9CAB204
:104C3C000C4B2168083233F812200123520B93409D
:104C4C00C1F80833236803EB8203D3F8102522F054
:104C5C000302C3F8102510BDBDE81040002110461A
:104C6C0003F0D1BB84050020F7B5CDB2184E083542
:104C7C00074636F81530DB070C4626D5FFF7CCFF78
:104C8C002046FFF751FF40B136F815303A685B0B00
:104C9C0003F5A273002142F823102046FFF74EFFC4
:104CAC00002301A826F815300194FFF7D7FE019BCD
:104CBC0000EB8300074BD0F80027134043F00203AE
:104CCC00C0F80037044803B0F0BD0448FBE700BF50
:104CDC0084050020F0F8FCFF0000AD0B0400AD0BC8
:104CEC00F0B50C46116885B007461546E1B1204673
:104CFC0003F0A6FB08BB0B46CDE900008DF80E00B7
:104D0C008DF80F000DF10F020DF10E01204603F08E
:104D1C002DFBE3B24549083331F8132022F002028F
:104D2C0042F0010221F813206B685BB320461A781D
:104D3C005968FFF7EFFE10B1C9B13D4825E0E6B266
:104D4C00DFF8E8C008363CF8163023F02003DB040B
:104D5C00DB0C2CF8163051B1032AEED8696849687F
:104D6C00087839689AB900F5A27041F82020E3B2AE
:104D7C002E48083330F8131021F01C0141EA82024E
:104D8C0020F81320AB683BBB2A4805B0F0BD01EB03
:104D9C00800143EA4033D1F810E52EF0030EC1F840
:104DAC0010E53F6807EB800743F02003D7F8101598
:104DBC002CF8163021F4473121F44071C7F8101546
:104DCC002102D7F810E501F4F85141EA024141EA19
:104DDC000E01C7F81015CAE7D3E900672046FFF7A4
:104DEC00ADFE002ED0D0114DD5E90023964203D153
:104DFC009F4201D1002209E00F480DF10F01FFF78E
:104E0C00EFFB0C4B9842C0D19DF80F2045F8326057
:104E1C00E4B205EBC20308345F6035F8143043EAA2
:104E2C00422343F4807325F81430ADE78405002049
:104E3C000400AD0B0000AD0BDC0500202DE9FF419B
:104E4C0007460C461E4632B30846FFF763FE18B9F8
:104E5C000846FFF769FE20BBE5B2DFF8CC800835C9
:104E6C0038F8153013F01C0F02D05378012B18D0E2
:104E7C0001238DF80F300023CDE900230DF10F0134
:104E8C00931C2046013203F071FA38F8153043F0C8
:104E9C00030328F81530002E43D02046FFF73AFEC6
:104EAC0018B9224804B0BDE8F08196F800E03B68E0
:104EBC001D4D0EF5A272002143F82210E1B208310B
:104ECC0035F8112022F02002D204D20C25F8112042
:104EDC0096F801C0BCF1000F23D03868B67800EB0F
:104EEC008E004FEA0C4CD0F8103523F4981323F4B1
:104EFC00F853C0F81035230203F4F8530CF4403C7B
:104F0C003605D0F8107543EA0C0306F4801642EA15
:104F1C004E32334342F020023B4325F81120C0F8B7
:104F2C0010350348BEE700BF840500200400AD0B1C
:104F3C000000AD0B014BC3E9021270478405002041
:104F4C0008B552B90C490D4840F20D3203F07CF80B
:104F5C00094840F20D3103F06EF80846FFF7E4FD06
:104F6C0040B1C9B2064B0748083133F811305B0B1E
:104F7C00137008BD0448FCE7E89000009B8A000011
:104F8C00840500200000AD0B0400AD0B2DE9F041B1
:104F9C00184D95F8604006464CBB4022214605F161
:104FAC00100003F0B4FB36682F6DA046A7420FD15A
:104FBC000023C6F87C3146F30730D6F87C31FCF779
:104FCC00B5FD01230C4885F86030AB65BDE8F08178
:104FDC00E0B2FFF76BFDA0F580739B081F2B08BF99
:104FEC0046F8008004F1010408BF3358DEE703489B
:104FFC00ECE700BF840500200000AD0B0C00AD0BEE
:10500C00034B93F86000003818BF0120704700BFB5
:10501C00840500200148FFF707BB00BFD80500201E
:10502C000148FFF7DDBA00BFD80500202DE9F34198
:10503C00CBB216460833334A32F8132012F01C0F49
:10504C000C460546C2F382010AD12F492F4840F283
:10505C00FA3202F0F9FF40F2FA312B4802F0EBFF82
:10506C000368D3F804030028A4BF4FF00040C3F832
:10507C0004032046FFF758FD00B32046FFF74AFD16
:10508C000746D8B9540B2046FFF710FDD5F8008021
:10509C0048F8007058F800302B6803EB8403D3F801
:1050AC00102542F00102C3F8102526B12A6801230D
:1050BC00A340C2F8043302B0BDE8F08146B91249EE
:1050CC00124840F20E4202F0BFFF40F20E41C4E71C
:1050DC00042912D0052912D001A80194FFF7BEFCB7
:1050EC00019AD0F81035D34003F00103991C2046E7
:1050FC0002B0BDE8F04103F086B90321F7E70221C5
:10510C00F5E700BF84050020E89000009B8A0000B2
:10511C002DE9F74F554B564FD3F80403396DC0B2F8
:10512C0040F00040FFF746FD051E18DA0023F96D2C
:10513C000093684603F076F94FF0010897F85C305D
:10514C00DB075BD4396D4FF00040FFF733FDF96D91
:10515C00684603F067F90028F0D125F000450124DA
:10516C00002D6AD103B0BDE8F08F94FAA4F4B4FA20
:10517C0084F4E10804F1080304F0070237F81390F3
:10518C001DF80130019408FA02F223EA020301A887
:10519C000DF80130FFF762FC019B03F5E0734FEA59
:1051AC00990B50F82360C9F3820A1BF0040FD14607
:1051BC00C6F3014626D051462046FFF78DFC01A8C8
:1051CC000194FFF74BFC019B03F5E073F6B250F82A
:1051DC002330C3F301439E4207D10021204603F044
:1051EC0012F93146204603F00EF901A80194FFF79D
:1051FC0035FC019B08FA03F3C0F82035009C002C09
:10520C00B3D19FE7022E0CD10321204603F0FBF80B
:10521C000AF00503012BE8D149462046FFF75CFC58
:10522C00E3E70221204603F0EEF8BAF1030FF3D0C6
:10523C00032EDAD1BAF1020FEDE795FAA5F3B3FA22
:10524C0083F304FA03F29B0003F1804303F5C0439C
:10525C0025EA0205D3F81005D3F81015C0F3042085
:10526C00C1F30141FFF738FC7AE700BF0060004052
:10527C008405002001460148FFF7B2B9EC05002077
:10528C0001238340C3F3120201462AB1034A0448A6
:10529C00C2F80835FFF7C8B90248704700F0014062
:1052AC00EC0500200400AD0B01460148FFF798B94E
:1052BC00E8050020C30003F1804303F5F833012215
:1052CC0001465A600148FFF7AFB900BFE80500205E
:1052DC0070B51D4A0C68B2FBF4F304FB13258DBBAF
:1052EC0094422FD85C1E1C402CD1B3F5007F29D8DA
:1052FC0002684D79D2F80465097926F0030601F0AD
:10530C0003013143C2F80415D2F8081593FAA3F33C
:10531C0021F0030105F00305B3FA83F32943C2F826
:10532C000815C2F810350068402300F58072D4507F
:10533C00D1580433582BFAD140F30730FCF7F6FB65
:10534C00024870BD0248FCE70024F4000000AD0BDD
:10535C000400AD0BF8B541B91E491F487C2202F080
:10536C0073FE7C211B4802F066FE05791B4C0C2356
:10537C006B43E618377A5FBBE2508B687360036847
:10538C00174A93420FD002F5805293420BD002F58C
:10539C008052934207D002F58032934203D002F53B
:1053AC008052934202D14B79032B06D909490A4802
:1053BC00942202F049FE9421D4E7FFF789FF0C23D5
:1053CC0003FB0544074BC21A534253412372F8BDE9
:1053DC000548FCE7269100009B8A00004411002040
:1053EC00008000400000AD0B0C00AD0B10B50C4B59
:1053FC0002790C2101FB0232127A012A08D00949E8
:10540C000948D22202F020FE0648D22102F013FEF7
:10541C0004682260027901FB023302221A7210BD69
:10542C0044110020269100009B8A000010B50C4B03
:10543C0002790C2101FB0232127A42B909490A485D
:10544C00DB2202F001FE0748DB2102F0F4FD0468C8
:10545C0001222261007901FB00331A7210BD00BFDA
:10546C0044110020269100009B8A0000F8B5144DD1
:10547C0003790C2707FB035304461B7A43B91149E4
:10548C001148BC2202F0E0FD0E48BC2102F0D3FD15
:10549C00006840F30730FCF757FB23680026D3F86D
:1054AC000022C3F8006223684FF0FF32C3F80823D0
:1054BC002046FFF7BBFF237907FB03552E72F8BD7F
:1054CC0044110020269100009B8A000070B5144CFA
:1054DC0005790C2606FB0544247A54B91149124867
:1054EC004FF4957202F0B0FD0E484FF4957102F036
:1054FC00A2FD4FF4803405688C4073B18B0003F52A
:10550C00A0730026EE50EB580368C3F804430368FD
:10551C0001F5A87143F8212070BDC5F80843F6E7E2
:10552C0044110020269100009B8A00002DE9F041D7
:10553C00154E07794FF00C0E0EFB07661C46367A9B
:10554C009DF8183056B91149114840F2451202F035
:10555C007BFD0E4840F2451102F06DFDD0F800E0E5
:10556C0040F20117DEF800628F4026EA0706CEF8FB
:10557C0000620568D5F800623443C5F80042BDE806
:10558C00F041FFF7A3BF00BF44110020269100009B
:10559C009B8A00000149024802F061BF44110020BF
:1055AC00008000400149024802F059BF5011002010
:1055BC0000A0004008B5144BA8220021184603F0A7
:1055CC00A6F80322026111494261114A8161C2614C
:1055DC004FF480620262002282624262C262016601
:1055EC000C4941661021816603460267C266426718
:1055FC00BFF35F8F084911F8010D98540132102A3E
:10560C00F9D1BFF35F8F08BD100400206391000037
:10561C0010000020000000207C91000010B4BFF3AB
:10562C005F8F0B4A0B490023C85C12F8014D844272
:10563C0009D10133102BF7D10023BFF35F8F23B1B6
:10564C0010BCFFF7B7BF0123F7E710BC704700BFD2
:10565C007C9100001004002008B5084A084B9342C6
:10566C000AD908490848182202F0EEFC054818210E
:10567C0002F0E1FC1433F2E7FCD308BD9C88000077
:10568C004C8800007D9100009B8A000070B5044698
:10569C00EFF31186402383F31288BFF36F8F0C4B0B
:1056AC009D6802F019FE042C08D10A490A48872289
:1056BC0002F0CAFC0748872102F0BDFC86F3118872
:1056CC00BFF36F8F2846BDE87040FCF7D5B900BF1B
:1056DC005C110020A09100009B8A000038B5094B9A
:1056EC0053F82040013053F82050A54200D838BD63
:1056FC00636823B1204602F01BFF0834F5E72368EA
:10570C009847FAE7508A000070B5354B354C364D4A
:10571C00012286B003201A70FFF7E0FFFBF73AFF77
:10572C0002F022FF0420FFF7D9FFAC42264624D911
:10573C002E492F48422202F087FC42212B4802F0CE
:10574C007AFC54F80C3C059354F8103C049354F830
:10575C00143C039354F8183C029354F81C3C0193EA
:10576C0054F8203C009354E90A2354E90C0100F04E
:10577C001BFE54F8303C5E65D7E7AE4204F13004B2
:10578C00DFD301F021FA174C1A4EAC421BD9174942
:10579C001748662202F058FC6621CFE7D4E90A23A9
:1057AC00B3F1FF3F08BFB2F1FF3F05D052EA03014E
:1057BC00206803D101F0E0FB3034E6E731461830C5
:1057CC0001F092FEF8E7E9D301F04CFAFAF782FE09
:1057DC00094A137B23F00103137306B070BD00BF9D
:1057EC00A11600209C8800009C880000C29100003B
:1057FC009B8A000081860000200D002008B503481C
:10580C00034A0021121A02F0ABFE08BD70070020FB
:10581C00A416002070B5002386B00122CDE9042324
:10582C00134E144D01930F22CDE902321249142369
:10583C0003FB005506EBC01604464FF4C07000FB8A
:10584C0004110E4B00954FF4A072304600F0ACFDE5
:10585C00737B0B4AEE6023F0040373734FF4046301
:10586C0004FB033313442C746B6006B070BD00BF93
:10587C00A00C00205C110020001F00206D590000BE
:10588C00C0160020BFB50020FFF728FF2C4B83F378
:10589C0008882C4D2C4E6B692C4F43F400736B61B4
:1058AC00E02385F8223000242023EB772C766C76CD
:1058BC00AC7685F820406B6A43F4E0236B6285F884
:1058CC002340FCF755F8FCF7F7F94FF0FF33AB62C8
:1058DC00EB62FCF7D9FAFCF713FA1D4BB36040F2FC
:1058EC0001129A81C3E91844DC66FFF7B5FE01206A
:1058FC00FFF7F4FE0220174DFFF7F0FE01F022FA3D
:10590C00154B75610593012314490094CDE90343AC
:10591C004FF480623B46CDE90144284600F044FD3B
:10592C006A7B064622F0040228466A7300F02AFFBE
:10593C002046FFF76FFF3A4631462846FCF79EF9A2
:10594C00001F002000ED00E05C1100201557000046
:10595C00A00D0020200D0020E391000080200020ED
:10596C0008B50C4B9B6893F90E30002B09DB4024D7
:10597C00EFF3118384F31288BFF36F8F02F002FCF4
:10598C00F6E7054905481B2202F05EFB02481B2185
:10599C0002F051FB5C110020E89100009B8A000092
:1059AC002DE9F341044617461E46EFF3058545B134
:1059BC00514952486F2202F047FB4F486F2102F0C9
:1059CC003AFBEFF31188402383F31288BFF36F8FF8
:1059DC004B4801F013FD38B94A494848882202F077
:1059EC0033FB88214748EAE7454801F02BFDE36883
:1059FC00454A9BB1A0689168884224D057EA0603B7
:105A0C0029D13F4801F008FDA0B188F31188BFF3FC
:105A1C006F8F6FF00F0002B0BDE8F081916891F9C3
:105A2C000E10374821610133E3609368A36001F0E5
:105A3C00F3FC50B93349314840F2311202F004FB07
:105A4C0040F23111CEE72169EBE788F31188BFF3FF
:105A5C006F8F0020DFE791F90E1090F90E3099420C
:105A6C00A8BF19466FF07E029142B8BF11468B4217
:105A7C0002DD02F07AFD0546CDE90076204822468B
:105A8C00414600F02BFF0028E3D0EFF311864023B2
:105A9C0083F31288BFF36F8F194801F0AFFC002815
:105AAC009AD0174801F0CEFCA068C0B123682169D8
:105ABC009C420AD04BB193F90E309942A8BF1946BB
:105ACC006FF07E039942B8BF194602F04EFD30B11B
