:10000000C0240020991A000085800000851A000095
:10001000851A0000851A0000851A00000000000003
:10002000000000000000000000000000711C000043
:10003000851A0000000000003D1C0000851A000029
:10004000491E0000D9370000491E0000491E00006B
:10005000491E0000491E0000491E0000491E000004
:10006000491E0000491E00002D550000491E0000D9
:10007000491E0000491E0000491E0000491E0000E4
:10008000491E0000491E0000491E0000491E0000D4
:100090003D380000491E0000491E0000491E0000B6
:1000A000491E0000491E0000491E0000491E0000B4
:1000B000491E0000491E0000491E0000491E0000A4
:1000C000491E0000491E0000491E0000491E000094
:1000D000491E0000491E0000491E0000491E000084
:1000E000491E0000491E0000491E0000491E000074
:1000F000491E0000491E0000491E0000491E000064
:10010000014B1B689B681847C0040020014B1B680B
:100110001B691847C0040020014B1B685B69184726
:10012000C0040020014B1B689B691847C0040020D5
:10013000014B1B68DB691847C0040020014B1B689A
:100140001B6A1847C0040020014B1B68DB6A184774
:10015000C004002010B4034C2468E468A44610BC1A
:10016000604700BFC004002030B50346114890F935
:100170001C209A4219DD90F924209A4217DA9A1A23
:10018000846AA05C0C4A15569D420DD00E3200299F
:1001900018BF01309442C0B206D129B1013BDBB295
:1001A000012B01D80130C0B230BD0D20FCE700208A
:1001B000FAE700BFD00700200C88000008B5054B07
:1001C00093F91C30984203DAFFF7CEFF024B1B561F
:1001D000184608BDD00700200C88000010B51C4C44
:1001E00094F82C3073B9012384F82C3000F09EF879
:1001F00048B1184BA362D823236284F82430082323
:10020000A361237710BD00F0A7F80028F1D100F01A
:10021000ADF80028EDD100F06BF838B10E4BA362B9
:10022000D823236284F824300423E9E700F06AF835
:100230000028F3D100F070F80028EFD100F080F82A
:100240000028EBD14FF4DF71742000F019F800BFE3
:10025000D0070020478800001A880000BFF34F8FA6
:100260000549064BCA6802F4E0621343CB60BFF352
:100270004F8F00BFFDE700BF00ED00E00400FA056E
:100280001FB572B6134B5D688DB9FFF7E7FFB2FB80
:10029000F6F2DCB20133002AF9D104F110036B4409
:1002A00003F80C2C0A2234B901A8A847EDE702464E
:1002B00000230A26EDE7631E04AEDCB256FA83F390
:1002C000B0FBF2F602FB1600303003F80C0C30469F
:1002D000E9E700BF280C00204FF08052034BD2F812
:1002E00030111960D2F834215A607047640C002034
:1002F000034B1868A0F10F0358425841704700BFE4
:10030000640C0020034B1868A0F10A0358425841BE
:10031000704700BF640C0020034B1868A0F10E0367
:1003200058425841704700BF640C0020034B1868C6
:10033000A0F1100358425841704700BF640C0020E0
:10034000044B1868062803D0431C58425841704794
:1003500001207047640C0020034B1868A0F10D03C6
:1003600058425841704700BF640C0020034B186886
:10037000A0F1080358425841704700BF640C0020A8
:1003800008B5FFF7A9FFBDE80840FFF727BF801AAF
:1003900000F3070038B540B20D4659B21446FFF7D6
:1003A0000DFF0023287020446B7040B238BD00233D
:1003B000036070477047002070474FF0FF30704770
:1003C0004FF0FF3070477047002070474FF0FF300C
:1003D000704700207047002070470023037070476B
:1003E0000022FFF7D4BF002070474FF0FF30704766
:1003F0004FF0FF3070474FF0FF30704770470028D4
:100400000CBF6FF0150000207047002070470723D5
:1004100003700020704700207047002070470000E4
:1004200008B50378022B06D1034803F09BFC10B9F2
:10043000024B01221A7008BD051200200412002090
:1004400008B503685909024613D0012906D103F003
:100450001F0340F2FF31D940C80712D40A490B48A4
:100460004FF46C7207F090FD07484FF46C7107F081
:1004700082FD4FF0FF31D940C907EFD54FF0A040C2
:1004800000E00348136008BDD4890000078A00001B
:100490000003005007B5019001A8FFF7D1FF019BB1
:1004A00000EB8300054BD0F80027134043F0030313
:1004B000C0F8003703B05DF804FB00BFF0F8FCFFA4
:1004C00030B5144A144B154D8BB0CDE90123144AB5
:1004D0001068516803AB03C31C460FCD0FC42B68D3
:1004E0002360104A0692012305A88DF815308DF877
:1004F000263003F037FB58B901A803F0FFFC38B9E8
:1005000002A803F019FD18B9082103A803F034FD6F
:100510000BB030BD3344BB01DEF01223F087000086
:100520001F8A0000210400002DE9F74F4FF010232F
:10053000D3F88440D3F88850601C39D1691C6FD03F
:10054000FF26EFB2B046B146FF2F61D14FF0010A4E
:1005500007F0BDFC002840F0CD80FFF7B1FF002878
:1005600040F0C880282003F02DFD03F04BFC00284C
:1005700040F0C080DFF884B1614C05469BF8002054
:1005800002F0FF030193002A7ED000218BF80010B7
:1005900003F0B0FA10225B48002108F056F8A27A66
:1005A000019B042A4FD8DFE802F042757D85930055
:1005B000C4F30726C4F307484FEA146AE4B2FF2CD9
:1005C000EFB205D02046FFF765FF204607F072FC2A
:1005D000FF2E05D03046FFF75DFF304607F05DFC8B
:1005E000B8F1FF0F04D1BAF1FF0F08D1D146ABE744
:1005F0004046FFF74FFF404607F05CFCF3E75046EC
:10060000FFF748FF50465FFA8AF907F046FC9BE780
:10061000EDB22846FFF73EFF284607F03EFC95E77F
:10062000FF27B946B8463E464FF0000A90E7354AE4
:1006300001211170217A517002215171E1791171FA
:10064000617991711D46BAF1000F17D0637ADA070C
:10065000484649D407F021FC637A9B07384646D4C4
:1006600007F01BFC55B1FF2E02D0304607F022FCEC
:10067000B8F1FF0F02D0404607F00FFC214800F010
:1006800053FC204800F064FB002140F6CD4006F00A
:1006900095FC73E71B4A217A5170E17911716179F8
:1006A0005171CFE7174B02221A70227A5A70627981
:1006B0005A71C8E7134A03211170217A5170E17908
:1006C000117161795171A17991710A219160B9E734
:1006D0000C4B04221A70227A5A7062791A71A2792C
:1006E0005A710A229A60AEE707F0E4FBB4E707F01C
:1006F000E1FBB7E703B0BDE8F08F00BF04120020B4
:1007000005120020080F00200B4B00224FF0FF3194
:10071000C3F80022C3F80813C3F81021D3F810213E
:1007200001221A61D3F81021002AFBD00022C3F85D
:100730001021D3F8103170470010004010B5FFF7BA
:10074000E3FF044B1B6823B11B6813B1BDE81040E5
:10075000184710BD180F002010B51C4BD3F8042308
:10076000D104044616D5D3F830219AB10022C3F83B
:100770003021174AD3F8303113680133136082688F
:1007800042B1934213480CBF002240F6CD420023F1
:1007900005F020FD0D4BD3F80423120714D5D3F830
:1007A0000C218AB10022C3F80C210B4AD3F80C317A
:1007B000136801331360A268934205D1FFF7A4FFC9
:1007C000E368BDE81040184710BD00BF00100040AE
:1007D000200F002008050020240F002073B5124BC5
:1007E000124C187020460D4604F0E4FD104B002614
:1007F000D3F80022C3F800624FF0FF32C3F8082399
:100800002946204607F01EFE01230246009320469B
:1008100040F20113314604F04DFE204602B0BDE81F
:10082000704004F0A7BD00BF2C120020A888000073
:100830000080004010F1280F10B5044648D000F1A8
:100840001E03DAB2262A3ED8262B3CD8DFE803F076
:10085000423B3B3B3B3B3B3B3B3B143B3B3B253B1E
:100860003B3B273B3B3B293B3B3B2B3B3B3B3E3B0B
:100870002D2F313335373900EC23184AC2F80C35A7
:10088000174B1B7843BB2146164807F067FB2146F0
:100890001548BDE8104007F061BBF023EDE7F423F5
:1008A000EBE7F823E9E7FC23E7E70223E5E7032387
:1008B000E3E70423E1E70523DFE70623DDE707237A
:1008C000DBE70823D9E7094807F048FB0023D4E712
:1008D000D823D2E7E223D0E710BD00BF00100040CC
:1008E0002B120020678A00008C8A0000288A0000F2
:1008F000444B40F20122C3F850260022C3F83425AD
:10090000C3F83825C3F82C250122914284B0C3F8DE
:10091000302528D0022920D0002958D1AB22C3F895
:1009200024254FF0AB32C3F81C250023FF22CDF85D
:1009300005308DF808204FF48272ADF80A200628A1
:100940004FF00102CDF801308DF80C2010D80428AA
:100950003FD851D04FF4837317E0CC22C3F824253D
:100960004FF0CC32DFE76A22C3F82425264ADAE7C3
:100970000F28EFD102228DF805207F22ADF80A3032
:100980008DF80C308DF808208523204A13809DF8BF
:1009900007309DF804205B0743EA82539DF8052049
:1009A00043EA0263174A43F00803C2F814359DF87E
:1009B0000A309DF80B101B0443EA01639DF80810F0
:1009C0000B439DF80C1043EA4163C2F8183504B09C
:1009D000704740F20232ADF8042003228DF8072060
:1009E000ADF80A20074A40F20311C2F83415C2F8E4
:1009F00038354FF48B73C8E78DF8052040F20713A4
:100A0000C3E700BF001000401B81FE58E01100202A
:100A100038B50D46FFF76CFF0D4C0F2814BFFF23B0
:100A20007E23012D237010D0022D08D01DB9FF2187
:100A3000601C07F073FB074BC3F8044538BDFF2269
:100A4000CC21601C07F001FEF5E7FF22F021F8E75A
:100A50002D130020001000400F2808B50DD1A1F182
:100A60000B030F2B1AD801EB810101F62E110D4B50
:100A7000A1F51661C3F8081508BD01F5166140F629
:100A8000C4139942F3D90849084840F2F26207F0CA
:100A90007BFA054840F2F26107F06DFA40F6651105
:100AA000E5E700BF00100040AE8A0000078A0000A2
:100AB00010B5294CBFF35B8F54E8003F23F480321C
:100AC00044E800210029F7D1BFF35B8FD80304D598
:100AD000224B2349187803F071FDBFF35B8F54E874
:100AE000003F23F0040244E800210029F7D1BFF3BE
:100AF0005B8F590705D5194B1A4A1B49187807F01F
:100B0000B3FBBFF35B8F54E8003F23F0100244E8CF
:100B100000210029F7D1BFF35B8FDA0605D50F4B13
:100B2000124A1149187807F09FFBBFF35B8F54E816
:100B3000003F23F4807244E800210029F7D1BFF37D
:100B40005B8FDB0507D5054B064A09491878BDE8D8
:100B5000104007F089BB10BD1C0F00202A12002096
:100B6000008000400010004000410140041000409F
:100B70004081004070B51B4D0446FFF799FF28786F
:100B800054B3194A194907F065FB04230126184C90
:100B9000BFF35B8F06FA03F354E8002F1A4344E8CF
:100BA00000210029F8D1BFF35B8F1249287803F0A8
:100BB000FDFCBFF35B8F54E8003F43F4803344E80F
:100BC0000032002AF7D1BFF35B8F287806FA00F0D5
:100BD000BDE8704003F0DEBC074A044907F03AFB69
:100BE0000223D3E72A1200200410004000410140F4
:100BF0001C0F0020008000400010004070B5114C18
:100C0000054616460846FFF77FFDC4F81055D4F890
:100C1000003243F00103C4F80032FFF70BFE284610
:100C2000094D3146FFF718FF2B7843B10020FFF73D
:100C3000A1FF2B781BB1054B01221A6070BD012367
:100C40002360FBE7001000402B1200200040014011
:100C50002DE9F0411B4C17460E461D46FFF754FD8B
:100C6000C4F81005D4F8003243F02103C4F8003270
:100C7000154BC4F804353946FFF73AFE3146FFF705
:100C8000EBFE124B124E00221A604FF48053C4F850
:100C90000433337883B10120FFF76CFF33785BB105
:100CA0000C4B01221A6055B1BDE8F0410A484FF4DF
:100CB000A022002305F08EBA01236360F3E7BDE8AC
:100CC000F08100BF001000402D120020200F0020F6
:100CD0002B1200200040014008050020B0F5A07F45
:100CE00010B50C4619D10978032917D1154B607836
:100CF00094F9041001221A70134B1A78FFF77EFF43
:100D00006279A0790F4B002119700F490B780133DC
:100D1000DBB2834298BF1A460A7010BD04290CD179
:100D2000084B09496078097801221A70227900235A
:100D3000FFF78EFF22796079E4E7BDE810400348B1
:100D400007F00CB92B1200202C120020E28A0000C0
:100D50002DE9F3410378052B40D8DFE803F0030CBD
:100D60004952595C427990F90410407802B0BDE8CC
:100D7000F041FFF743BF4479457890F904708679D4
:100D8000D0F80880FFF7C0FC28462146FFF740FE58
:100D9000062D5B4C25D8042D25D9D4F8003243F418
:100DA000001343F00103C4F800323846C4F810556C
:100DB000FFF740FD31462846FFF74EFE514A00231B
:100DC0001360C4F80C31D4F80C31B8F1000F02D024
:100DD0000823C4F804334A4B01221A6002B0BDE86C
:100DE000F0810F2DD9D0D4F8003243F02103DAE797
:100DF000836802794179407802B0BDE8F041FFF79D
:100E000027BF8168407902B0BDE8F041FFF7E6BC3A
:100E100081680079F7E7447890F80580856890F953
:100E200004708679FFF770FC20464146FFF7F0FD1D
:100E3000334BC3F81045D3F8002242F00302C3F845
:100E400000223846FFF7F6FC31462046FFF704FE45
:100E50002D4B2E4A1B5D12882D485343C5F1640467
:100E60005C43B4FBF5F41C4404F0A4FA0020FFF743
:100E700081FE284B2648D3F8002200254FF0FF3290
:100E8000C3F800522146C3F8082307F0C9FA0095B9
:100E9000024602231E48012104F00CFBEFF31186E9
:100EA000402383F31288BFF36F8F1B4B1B4C01252C
:100EB0001D60207803F064FB20B1207805FA00F073
:100EC00003F06EFBFFF7F4FD0D4A1549207807F09B
:100ED000C1F9BFF35B8F134B53E8001F41F48071DE
:100EE00043E80012002AF7D1BFF35B8F237801207B
:100EF000984003F04FFB86F31188BFF36F8F6DE7C7
:100F000000100040240F00203F8B0000E011002063
:100F1000A888000000800040004001402A12002004
:100F2000448100401C0F002030B51B4A87B04FF4AD
:100F30000073CDE90323059003A9184A0446184815
:100F400004F0CCF9174B9842014602D0164807F03E
:100F500005F8002205210820002500F0C9FE2346DF
:100F6000124A00950521012007F097F8012000F0B2
:100F70008FFE0F4807F083F90A4B984206D00D48C0
:100F800006F0ECFF6FF00D0007B030BD0A4B0C34DB
:100F90001C602846F8E700BF40420F00DD0C00004F
:100FA000A88800000000AD0BFC8A00005907000073
:100FB0002A1200201D8B0000180F0020B2F5802F90
:100FC0002DE9F0410AD33449344840F2EB1206F0DF
:100FD000DBFF40F2EB11304806F0CDFF042A08D8C1
:100FE0002D492E484FF4F97206F0CEFF4FF4F971F7
:100FF000F1E7043ACD1D8E1825F0070526F0070607
:10100000761B172E4FEAD60708D82349234840F20B
:10101000FB1206F0B9FF40F2FB11DCE7B7FA87F4E8
:10102000C4F12002C4F12404A4000734E408631CC2
:101030004FF00008BB420560AF60C5F80C8008D9CE
:10104000154916484FF4037206F09EFF4FF40371E2
:10105000C1E74146920005F1100007F0F6FA63007F
:1010600043F001036B8005EBC4023B1B5900A5F85C
:1010700000805180AA1925F83440A2F80280AB53B1
:1010800005EBC70321465A8842F001025A802846E0
:10109000BDE8F04106F039BF4F8B0000078A000021
:1010A000014B1B68184700BF3805002030B585B0DC
:1010B00004460D4610220021684607F0C6FA0223B6
:1010C0008DF802302A46044B01932146684606F00B
:1010D00087FC05B030BD00BFA110000080B50546FB
:1010E0000E461746984605F097FF034607F018FB93
:1010F000DFF81890044649F8003042463046394639
:10110000A84754F8090000F047FD00BF08000000A0
:101110002DE9F84F04460846A38B1907164612D44A
:10112000022803F0070162D1204606F03AFF88B199
:101130000138042800F22581DFE810F0590023016E
:101140007E00C800F50001280CBF43F0100143F0F9
:101150002001A18304F1140006F0E6F8002800F055
:10116000AB8086F31188BFF36F8FBDE8F88F03F073
:101170000702501F01281ED80020062A2768C4E94C
:10118000000014D13A4603E0E08B0130E08312689E
:10119000002AF9D123F0070343F00202A28320467C
:1011A00006F0FFFE90B342F02002A2832EE023F06F
:1011B00007039AB2F2E7042A33D123F007039AB265
:1011C000A283204606F0EDFE10B142F02002A28379
:1011D000A38B03F00709894540F0DC80A18BCA0688
:1011E00040F1218121F01003A38301F00701D4F81D
:1011F0001880A38BB8F1000FB9DA0022276823F01A
:101200000703C4E9002243F00103A383A38B03F087
:101210000709894540F0BF80002FDFD00025AA468E
:1012200040E08549854840F21B1206F0ADFE40F2D1
:101230001B11814806F09FFE41B17F497F484FF462
:10124000AB7206F0A1FE4FF4AB71F2E7236843B92D
:1012500079497A4840F2571206F096FE40F257114B
:10126000E7E723691D6845B9734974484FF4AD72C7
:1012700006F08AFE4FF4AD71DBE7A38B23F0070382
:1012800043F006039BB2A3830F4688464FF006093E
:10129000A268002A40F08180002F40F08180002D5C
:1012A0009CD0BA4643F0080304F1140BA3835846BC
:1012B00006F03AF8002875D16149604840F23112D1
:1012C00006F062FE40F231115D48B3E7022908D012
:1012D00059495A4840F25D1206F056FE40F25D113F
:1012E000A7E7E78B47B1544954484FF4AF7206F073
:1012F0004BFE4FF4AF719CE723695D6845B94E49D9
:101300004E4840F2611206F03FFE40F2611190E754
:10131000A38B23F0070343F004039BB2A383B846D7
:101320004FF00409B4E7012908D0434943484FF47A
:10133000B27206F029FE4FF4B2717AE7236843B91E
:101340003D493E4840F2651206F01EFE40F265112E
:101350006FE723699D6845B9374938484FF4B4723F
:1013600006F012FE4FF4B47163E7A38B23F007037A
:1013700043F005039BB20027A383B8464FF005094D
:1013800086E72D492D4840F26B1206F0FDFD40F234
:101390006B114EE7002700257AE74FF0010A81E73D
:1013A00092467FE786F31188BFF36F8FBAF1000F83
:1013B00016D147BB15B123492046A847EFF3118644
:1013C000402383F31288BFF36F8F584605F09EFFCA
:1013D00008BB1B491948882206F0D6FD882173E70F
:1013E000A1680029E5D00E680029E2D0D1F804A058
:1013F00043464A462046D0471EB1336831461E4612
:10140000F2E73346FAE7394643464A4620463F6804
:1014100006F0F3FDCDE7584605F09CFFA38B23F0C3
:101420000803A383DAE68B067FF594AE21F0200350
:10143000A38301F0070177E6728B0000078A0000A2
:10144000978B000049140000F8B504460D4600F1E2
:101450001406EFF31187402383F31288BFF36F8FD5
:10146000304605F053FF40B909490A48882206F082
:101470008BFD0748882106F07EFD304605F06AFFA7
:10148000A5613A4620460121BDE8F840FFF740BE7D
:10149000978B0000078A00002DE9F04704460F46AD
:1014A00006F09BFD051E5DDB04F11409EFF3118AC4
:1014B000402383F31288BFF36F8F484605F026FF61
:1014C000804638B933493448882206F05DFD8821CA
:1014D00030483CE0484605F03DFFE38BA68B4FF6D5
:1014E000FF72934206F007063FD0022E10D101335F
:1014F000E3833546484605F017FF00283BD12549D0
:10150000254840F2311206F03FFD40F23111DFE78D
:10151000062E13D8DFE806F0092C12120904090080
:101520006FF085054FF00008E4E700233B60636837
:101530007BB9C4E900777EB13546F3E71749164811
:101540004FF4E47206F020FD14484FF4E47106F005
:1015500012FD1F606760EEE7524602212046FFF74A
:10156000D7FD35462846BDE8F0876FF00A05D9E774
:101570006FF00405D6E78AF31188BFF36F8FB8F1D7
:10158000000FEFD0002332463946204606F035FDE5
:10159000E8E700BF978B0000078A0000728B00000D
:1015A000F8B5054600F11406EFF31187402383F3E5
:1015B0001288BFF36F8F304605F0A8FE38B9204976
:1015C0002048882206F0E0FC88211D4825E03046AE
:1015D00005F0C0FEAC8B04F00704022C12D0012CE5
:1015E0000CBF6FF004046FF08504304605F09CFEDC
:1015F00008BB1349134840F2311206F0C5FC40F213
:101600003111E2E7EB8B53B90F490E4840F2EF126C
:1016100006F0BAFC0C4840F2EF1106F0ACFC013BBE
:101620009BB2EB83002BE0D13A4621462846FFF7D8
:101630006FFD2046F8BD87F31188BFF36F8FF8E781
:10164000978B0000078A0000728B000008B5426883
:10165000816002F00302032A034602D02AB100206F
:1016600000E0006800225A6008BD04490448452291
:1016700006F08AFC0148452106F07DFCC48B000081
:10168000078A0000014B036000207047B08800000B
:1016900008B5044806F062FCBDE80840024806F0C0
:1016A0005DBC00BFEA8B00001F8C00002F2808B52E
:1016B00008D905490548142206F066FC02481421A1
:1016C00006F059FC08BD00BF4D8C0000078A0000E1
:1016D00070B506460C46154600F0FCFA40B10949C3
:1016E0000948172206F050FC0648172106F043FC73
:1016F0003046FFF7DBFF054B43F8305003EBC003E8
:101700005C6070BD7C8C0000078A00000C06002025
:1017100030BFFFF7FDBF00BF2DE9F0410B4EDFF8F2
:10172000308006EB0807CC1B0546324609492046A7
:1017300006F07DFFA01942460021083C06F085FF17
:101740002C6707F10800BDE8F08100BF0000000031
:1017500004000000E8870000074A936893F90E1020
:10176000002907DB526993421FBF044A536843F0C4
:1017700080535360704700BF9011002000ED00E0DF
:10178000F8B52D4B15469A6A12F0100F9A6A14BFDD
:101790001124102412F0080F9A6A18BF1224970718
:1017A00006460AD5586B9A6A140634D519B19A6A56
:1017B00022F080029A62132401E06FF015001E4BA4
:1017C0009A6A12F0010F9A6A18BF142412F0200FBF
:1017D0009A6A18BF1524D10602D49B6A9A070AD5C3
:1017E000154F7B681B0506D5314600F0E3FAA8B11A
:1017F00080F309880224104B9A6A920642BF5A6A03
:1018000022F400525A629A6A42F0FF029A6200235E
:101810002B702046F8BD6FF01500CCE7BB6AD906E7
:10182000E9D50649064840F25D1206F0ADFB0348D3
:1018300040F25D1106F09FFB00ED00E0A98C000076
:10184000078A0000134B9A6A12F0007F9A6A14BF4D
:101850001E201D2012F0807F9A6A18BF1F2012F4EC
:10186000002F9A6A18BF212012F4802F9A6A18BF9D
:10187000222012F4003F9A6A18BF232012F4803FFE
:101880009A6A6FEA02426FEA12429A6218BF2420F3
:10189000704700BF00ED00E010B5194B0246986A92
:1018A0009C6A10F4805F14BF1720162014F4006F98
:1018B0009C6A18BF1820A40509D5986B986A000483
:1018C00004D51AB19A6A22F400429A6219200C4B8C
:1018D0009A6A12F4806F9A6A18BF1A20D2050CD443
:1018E0009B6A13F4005F18BF1C20054A936A43F4F7
:1018F0007F43936200230B7010BD1B20F5E700BFF0
:1019000000ED00E0F0B5564B5B688BB00446C3F3C6
:101910000803002585F31188BFF36F8F02F07F4025
:10192000B0F17F4F08D102F00C00082804D0120754
:101930004CBF0C46012554B94A494B484FF48B62C1
:1019400006F022FB4FF48B61464806F014FB0022A0
:10195000033B8DF80720032B7BD8DFE803F00272EE
:10196000765D3F4AD36A13F0020372D1D16A00292F
:101970001ADBD36A5B005BD55369A16943F48073BA
:101980005361BFF34F8FBFF36F8F536931F8021C60
:1019900023F480735361BFF34F8FBFF36F8F4DF606
:1019A000027399421FD123689DF80720CAB902AE7D
:1019B00004F1200720686168324603C20834BC4243
:1019C0001646F7D1099A002D45D0C2F3080121B976
:1019D0006FEA52226FEA4222099202A9184606F0E3
:1019E00047FB0BB0F0BD936ADBB23BB10DF10702D0
:1019F00001212046FFF7C4FE0346D5E7936A13F49E
:101A00007F4F05D00DF107010120FFF745FFF3E7F8
:101A1000936AB3F5803F02D3FFF714FFECE7114957
:101A2000114840F22A3206F0AFFA40F22A318BE731
:101A30000C490D4840F22E3206F0A6FA40F22E3143
:101A400082E70DF107020021D3E70DF10701002025
:101A5000DBE70023A8E722F4FF7222F00102BBE7D4
:101A600000ED00E0A98C0000078A0000044B5A69D1
:101A700042F010025A615A6922F008025A61704716
:101A800000ED00E0EFF30880EFF3098101B5724645
:101A9000FFF738FF01BD00BF002080F31488BFF3BB
:101AA0006F8F02F07BFC00200D490860BFF34F8F61
:101AB0000C4880F3088800F03DF8402080F311883E
:101AC00009484FF40461401880F30988EFF314804B
:101AD0000221084380F31488BFF36F8F00F032F9BE
:101AE00094ED00E0C024002000170020BFF34F8FCA
:101AF0000549064BCA6802F4E0621343CB60BFF3AA
:101B00004F8F00BFFDE700BF00ED00E00400FA05C5
:101B10000749D1F890200023C2F3072218469342C8
:101B200000DB7047C1F89830C1F8A0000133F6E738
:101B300000ED00E008B572B6002383F31388FFF7C9
:101B4000E7FF144B4FF0FF32C3F88020C3F8842026
:101B5000C3F88820C3F88C20C3F89020C3F89420E1
:101B6000C3F89820C3F89C20C3F88021C3F88421CF
:101B7000C3F88821C3F88C21C3F89021C3F89421BD
:101B8000C3F89821C3F89C2162B6BFF34F8FBFF30F
:101B90006F8F08BD00E100E0084B9B6883420BD1CA
:101BA000EFF3058343B1064B5A6842F080525A6006
:101BB0005A6A22F400425A6205F034BA90110020A9
:101BC00000ED00E0094A93686FF00A01996708493F
:101BD00058674B6843F080534B60002383F31188B0
:101BE000BFF36F8F9368986F704700BF901100200C
:101BF00000ED00E010B50446EFF31183402383F3BA
:101C00001288BFF36F8F0A4B58699860094B4FF0E9
:101C100000625A60084B026F1A600022436F4267ED
:101C200083F31188BFF36F8F00F02CF9204610BDAD
:101C30009011002000ED00E0280F00200B498A6879
:101C40004FF030001044EFF3098C80E8F01F744629
:101C50007046FFF7CFFFA64604498A6802F13000BC
:101C600090E8F01F8CF30988704700009011002065
:101C70001EF0040F0CBFEFF30880EFF309808169B9
:101C800011F8021C0229FFD001B506F0F7F901BDD9
:101C900040B2002807DB044A4109012300F01F007D
:101CA000834042F82130704700E100E040B2002854
:101CB0000CDB4309064900F01F002033012282405B
:101CC00041F82320BFF34F8FBFF36F8F704700BFE2
:101CD00000E100E0054B420900F01F0053F822200C
:101CE000012303FA00F01040704700BF00E100E05C
:101CF00008B5D3070BD40231072909D90E490F487B
:101D0000582206F041F90C48582106F034F9002118
:101D100040B20028ACBF00F16040094B4FEA4111CE
:101D2000B8BF00F00F00C9B2AABF00F56140195456
:101D300080F8001308BD00BFDB8C0000078A00009C
:101D400014ED00E00B4A08B50B4B22F07F029A60BD
:101D5000BFF34F8FBFF36F8FD3F8882022F4700248
:101D6000C3F8882003F0F0FC05F0FCFA00F060F8FE
:101D700003F02EFD0000000000ED00E042F8203CE2
:101D8000009B42F81C3C0A49019B42F8183C029B0C
:101D900042F8143C21F001014FF0807342F8043CFA
:101DA00042F8081C0023203A02654367704700BFD1
:101DB000DD100000094A0346906870B113F1160F58
:101DC000006E05D0A0F140029A4205D8834203D2AA
:101DD000814228BF002070470020704790110020EA
:101DE00008B515460B4A0C4B9060026F1A600E4600
:101DF00000F048F82C4686F309884FF00000074BA6
:101E0000984720464FF000014FF000024FF00003CA
:101E1000034C204790110020280F0020B7800000BD
:101E2000DD100000014B10221A61704700ED00E048
:101E3000044800234021C2180133302B82F80013DC
:101E4000F9D1704700E100E008B5EFF30583064AD9
:101E5000103B02EBC30152F8330049688847BDE8E4
:101E60000840FFF779BC00BF0C060020024B034A74
:101E70000348012100F076B8000002200000002095
:101E8000B0880000026E054B403A1A60044A4021B7
:101E9000C3E901121846012100F080B82C0F002080
:101EA00000000B15084AC2F898000B6823F01F03C6
:101EB000034343F01003C2F89C308B6843F00103E6
:101EC000C2F8A030704700BF00ED00E02DE9F043FC
:101ED000DFF8608085B00E461F4604464FF00009CB
:101EE000B14523DA6068D8B13FB1411E08421BD129
:101EF0001F2819D92368194216D12368019306F0C7
:101F0000FDF8A36803430393D8F89050C5F3072561
:101F1000D0B2013DA84207D801A9FFF7C3FF421C78
:101F200009F101090C34DBE76FF01502104605B02A
:101F3000BDE8F08300ED00E0044B0522C3F89420D7
:101F4000BFF34F8FBFF36F8F704700BF00ED00E00E
:101F5000BFF35F8F024B0022C3F89420704700BF8D
:101F600000ED00E010B50A4C01232278FFF7AEFF28
:101F7000207016300AD1074907484FF4B47206F0B2
:101F800003F804484FF4B47105F0F5FF10BD00BF2D
:101F90002D140020128D0000078A000008B5114A98
:101FA00000231278FFF792FF10F1160F08D00E4AA7
:101FB0000021D2F89030C3F3072398420BDB08BD11
:101FC0000A490B4840F2871205F0DEFF074840F24D
:101FD000871105F0D0FFC2F89800C2F8A0100130B8
:101FE000E7E700BF2D14002000ED00E0128D000097
:101FF000078A00002DE9F04F6D4B6E4CD3F89030FE
:102000002568C3F307239D4285B00AD96A496B4806
:1020100040F29F1205F0B8FF40F29F11664805F0AC
:10202000AAFFFFF795FF00200C26854229D1644CBA
:10203000644F25706846FFF725FBDFF87481DFF8F1
:10204000889106460025AE4222D1237858490020C7
:10205000D1F89020C2F307229342C0F29E80FFF78E
:102060006BFFD1F89030C3F30723082B00F09B805F
:102070005149524840F20F2205F086FF40F20F21ED
:10208000CCE7616806FB0011FFF70CFF0130CCE7DD
:10209000009A02EB05132901D3F80CA00AEA070005
:1020A000B0F5000F5CD00AD8B0F5001F36D0B0F5FF
:1020B000800F48D0B0F5801F12D00135C3E7B0F1D2
:1020C000807F58D0B0F1007FF7D19868D3F804A092
:1020D000525806F013F8CDE901A240F480200BE03D
:1020E0009868D3F804A0525806F008F8CDE901A288
:1020F00040F0885040F430200390D8F89030207899
:10210000C3F30723013B984240D92B492B4840F2A7
:10211000C91205F039FF40F2C9117FE79868D3F87A
:1021200004B0525805F0EAFF1AF0010F40EA090026
:10213000CDE901B20390E0D01F4920486D2205F09F
:1021400023FF6D216AE79868D3F804A0525805F080
:10215000D5FF40F0E060CDE901A240F40030CBE7CC
:102160009868D3F804A0525805F0C8FFCDE901A241
:1021700040F08270C0E79868D3F804A0525805F088
:10218000BDFFCDE901A240F08870B5E701A9FFF7D6
:1021900089FE2378013323708FE7C1F89830C1F8A6
:1021A000A000013354E7002005B0BDE8F08F00BF68
:1021B00000ED00E0BC880000128D0000078A0000DE
:1021C0002D1400200000F0FF0000081108B506499A
:1021D000064821F00701C1F1005202F50032FEF776
:1021E000EDFE002008BD00BF47290020380F002069
:1021F000024B0122C3F840250020704700E0014057
:1022000020B1034B800143F001031847704700BF22
:10221000A0880000F7B506460D461446194F38460B
:1022200006F030F940B918491848142205F0ACFE00
:102230001548142105F09FFEAAB2BB681B683BB984
:10224000134912485B2205F09FFE11485B21F1E71C
:10225000314638469847002802DB002003B0F0BD25
:10226000002CFBD1AC42F8D22F1B042F28BF04272F
:1022700005F0D1FF3A46019001A9301906F0D7F9CF
:102280003C44EFE7C0870000508D0000078A000043
:10229000898D000037B50C460A490B4A411A402384
:1022A0000093491105462346084805F03AFF011EF0
:1022B00005DA2846234603B0BDE83040184703B08E
:1022C00030BD00BF580F00208D81000084870000C2
:1022D000C9B2012908B508D9084909487A2205F088
:1022E00053FE06487A2105F046FE03690C2201FBE5
:1022F0000233986C00F0070008BD00BFBD8D0000E0
:10230000078A000070B5C9B2012903690AD91849C2
:10231000184840F25D1205F037FE154840F25D1195
:1023200005F029FEEFF31185402484F31288BFF3F2
:102330006F8F0C2606FB0134A46C14F0C00408D087
:10234000A24206D085F31188BFF36F8F4FF0FF30A4
:1023500070BD06FB013301229A6485F31188BFF337
:102360006F8F436803EBC1035B6898470020EFE77A
:10237000BD8D0000078A000070B50D460649411A60
:102380000446491105484022FFF7BCFF2B46014691
:102390002046BDE870401847580F00208487000091
:1023A000002270B5012104461046FFF7A1FC114838
:1023B00002F07EF9104B984218D1206900F014FA0F
:1023C00002F088F926690D49304605F02CFE0028F8
:1023D0000BDB0125B5642469084904F1200005F0F0
:1023E00022FE002801DB6565002070BD6FF004004F
:1023F000FBE700BFB52400000000AD0BDC88000047
:102400001FB500220123CDE90223094ACDF800D0EF
:102410006B46CDF804D005F0B2FE002805DB4FF482
:1024200080420023684603F0CFFB05B05DF804FB53
:102430009F81000010B5EFF31184402383F31288CD
:10244000BFF36F8F074A136823F00201DB071160A7
:1024500002D4012002F0CCF984F31188BFF36F8F0E
:1024600010BD00BFB00F002030B4104B0C2202FB97
:10247000003301460020D3E910521864EFF31180B5
:10248000402484F31288BFF36F8F9C6C04F0C00467
:1024900044F002049C6480F31188BFF36F8F1DB178
:1024A0002B46034830BC184730BC7047580F0020FB
:1024B00084870000012810B504460AD004280CD0F7
:1024C00078B90E4B9B6C5B0716D1BDE81040FFF747
:1024D000CBBF00F097F92046F7E7BDE8104000F0C9
:1024E0009FB90749074840F2722205F04DFD0448A4
:1024F00040F2722105F03FFD10BD00BF580F0020D3
:10250000BD8D0000078A000010B4EFF31182402354
:1025100083F31288BFF36F8F1748016841F00204FC
:102520000460C80707D482F31188BFF36F8F0120BE
:1025300010BC02F0F3B84FF08041D1F80C04D1F890
:102540000C14C907EFD5EFF3118083F31288BFF3A2
:102550006F8F0A498B6C03F0C00343F002038B6456
:1025600080F31188BFF36F8F82F31188BFF36F8FF1
:10257000002010BCFFF778BFB00F0020580F0020DC
:10258000024BC0B203EB4010704700BF580F002051
:10259000F8B53349BFF35B8F0646012251E8003F8F
:1025A00041E800200028F9D1BFF35B8F9BB92D498A
:1025B0002D484B60CB608A60FEF76EFF00280ADA78
:1025C0002A492B484FF40C7205F0DEFC4FF40C71D5
:1025D000264805F0D0FC06B3731E012B37D805F052
:1025E000C5FF0446D0B9234B1B78BBB14FF08043E5
:1025F0000222C3F8082305464FF08047D7F8182475
:10260000D7F81834D20312D59B0701D0012E0ED172
:10261000BCB185F31188BFF36F8FF8BDEFF311855F
:10262000402383F31288BFF36F8F0124E4E71CB1CA
:10263000284605F054FDE1E70021212004F0BEFC0E
:10264000DCE74FF080430222C3F80423E5E70749A3
:10265000074840F2422205F097FC40F24221B7E7DA
:10266000540F0020440F0020780F0020BD8D000083
:10267000078A0000D416002008B5134BBFF35B8F08
:10268000012253E8001F002903D143E8002000285D
:10269000F7D1BFF35B8F15D10C490023CB600C4BF6
:1026A0004B6003238B600B4B1868FEF7F5FE002888
:1026B00008DA094909484D2205F066FC06484D2113
:1026C00005F059FC08BD00BFD00F0020B80F002056
:1026D000BD270000B40F0020098E0000078A00000B
:1026E00007B500220023CDE900230D484FF4003246
:1026F000002305F0FDF80B4B1868FEF751FF00288A
:1027000008DA09490948552205F03EFC06485521DA
:1027100005F031FC064B00221A6003B05DF804FBA3
:1027200098070020B40F0020098E0000078A0000DF
:10273000D00F0020F7B51C4E1C4CB7681C4DFB6831
:102740003C213046984740B1002323702B8002F093
:1027500069F80123237003B0F0BD0C213B696A4680
:10276000304698470028EFD1124A019B93FBF2F3C1
:10277000009A217803EB82031BB2B5F900200029EF
:10278000E4D09A1A002AB8BF524212B2012ADDDC04
:10279000094A1368013901332170136003B0BDE8A1
:1027A000F040FFF79DBF00BFD48700002E1400202B
:1027B000E211002090D00300C80F002008B50748A0
:1027C00005F060FE28B902F02DF8054B01221A70C1
:1027D00008BDBDE80840034803F030BCD4870000C2
:1027E0002E1400203C050020034B044A18600023EF
:1027F0001360034A13607047B40F0020CC0F002011
:10280000C80F0020024B00221A70FFF735BF00BF2F
:102810002E140020014805F0EEBE00BF98070020EE
:10282000024A136801331360FFF75ABFCC0F002030
:10283000EFF31182402383F31288BFF36F8F0A4BAB
:10284000D3F8001161B10021D3F80805C3F80011D5
:10285000D3F80031C0B282F31188BFF36F8F704795
:102860006FF00A00F7E700BF00D00040F0B5034664
:1028700010469C7893F803C0EFF31182402585F34E
:102880001288BFF36F8F1F7893F801E0E41B04EA0E
:102890000C04A04288BFA0B23E180CEA06063D46D2
:1028A0001E7082F31188BFF36F8F0A188A4216D107
:1028B00077450CD1EFF31182402181F31288BFF3E9
:1028C0006F8F1978597082F31188BFF36F8F1B795E
:1028D000241AA34222BF064B01221A60F0BD5E19E2
:1028E0000135767901F8016B05EA0C05DEE700BFDA
:1028F00000D000402DE9F0472D4D0069A8420E465A
:1029000014460AD02B492C4840F2031205F03CFB38
:10291000284840F2031105F02EFBDB4313F00105BC
:1029200004D02030FFF7A2FFBDE8F0879AB3EFF3A1
:102930001188402383F31288BFF36F8F0D20FFF7B8
:10294000C9F907460D20FFF7B1F988F31188BFF3E5
:102950006F8FDFF868A0DFF86880CAF80051DAF8F6
:1029600000314FF400590123CAF800302546C8F859
:102970008091DAF8003183B1FFF75AFF031EC8F8DF
:102980008091F6DB013DADB27355002DF1D117B149
:102990000D20FFF77DF92046C6E7EFF311804023B5
:1029A00083F31288BFF36F8F05F099FBE1E700BF57
:1029B000D40F00204A8E0000078A000000D000409B
:1029C00000E100E02DE9F041184B07699F420D46F8
:1029D000144605D107F135085CB92046BDE8F08101
:1029E00013491448E52205F0CFFA1148E52105F016
:1029F000C2FA4FF0FF334FF0FF32384603F0E4F8ED
:102A0000224629464046FFF731FF0646384603F086
:102A100095F83EB94FF0FF324FF0FF33064803F010
:102A2000D3F8E6E7A41BA4B23544D5E7D40F0020C1
:102A30004A8E0000078A0000E40F002038B51F4BC3
:102A400004699C420AD01E491E4840F2471205F014
:102A50009BFA1B4840F2471105F08DFA01221146FE
:102A6000204605F046FD0122002104F1100005F08A
:102A700040FD40F2074323874FF0706323620C232D
:102A800084F824300025104B84F83550E586D3F8BF
:102A9000042522F00102C3F804250121C3F80051E6
:102AA000D3F80021C3F804132A4619600D20FFF75C
:102AB0001FF90D20FFF7ECF8284638BDD40F002091
:102AC0004A8E0000078A000000D0004010B5FFF7D2
:102AD000AFFE002820DB174B93F8222093F821400B
:102AE00093F82310141B31EA0404C0B20DD193F8FB
:102AF000372093F8364093F83810141B31EA040459
:102B00000BD10D4B01225A600EE09C18013211408E
:102B100084F8250083F8221010BD9C180132114062
:102B200084F83A0083F837100448BDE8104003F0F9
:102B300005B800BFD40F002000D00040E40F0020F3
:102B400010B5036941B91C491C483E2205F01CFA26
:102B50003E21194805F00FFA486830B91649174860
:102B60003F2205F011FA3F21F3E75868F8B1884297
:102B700019D19C6808685860A14200D19860002073
:102B800008602AB15A680A609A68596002B9996067
:102B9000002010E0814206D10868206098688142D8
:102BA000EDD19C60EBE7044600680028F2D1002AD2
:102BB000E8D16FF0150010BD8C8E0000078A000070
:102BC00038B545682B69B3B11035284602F0AAF92B
:102BD000044680B90146284602F06AF9084B98423B
:102BE0000BD108492246284602F032F92246052137
:102BF0000620FFF77DF8002038BD6FF00400FBE7EA
:102C00000000AD0BD52E000008B503685909024637
:102C100013D0012906D103F01F0340F2FF31D94040
:102C2000C80712D40A490B484FF46C7205F0ACF98E
:102C300007484FF46C7105F09EF94FF0FF31D94011
:102C4000C907EFD54FF0A04000E00348136008BD6E
:102C5000D4890000078A000000030050F0B54068E6
:102C6000057B01F01F0444EA4514056987B0002D77
:102C70005CD0B2F5001F00F1100506D121462846B0
:102C800005F09EFB002007B0F0BD01AE0027B2F5B5
:102C9000800F0197776034D1B3F1007F14BF052313
:102CA00004238DF804300023CDE904630393836883
:102CB000CB40D90717D4B2F1A07F14D16846009455
:102CC000FFF7A2FF009B03F5E07350F82330DB070A
:102CD00009D46A462146284602F0C0F8164B9842AD
:102CE0001AD0CDF808D003AA2146284601F080FF6B
:102CF000124B98421DD101222146284602F028F9A4
:102D0000C0E7B3F1C06F05D0B3F1007F14BF01235A
:102D10000223C6E70323C4E76946284602F012F9F6
:102D2000064B9842DDD06FF00B00ACE76FF08500EA
:102D3000A9E76FF01500A6E70400AD0B0000AD0B8E
:102D40002DE9F043466840F20635337BD00687B064
:102D500001F01F0702EA050547EA431754BFC2F313
:102D600040130323B5F5837F14468DF8033045D017
:102D70000FD8062D18D007D8B5B1022D40D06FF06E
:102D8000150007B0BDE8F083B5F5807FF7D10125C8
:102D90000AE040F20222954234D0B5F5407F33D0AC
:102DA000B5F5007FEBD102250123220303FA01F1DF
:102DB0002CD57368C3F8081533696BBB03A8039758
:102DC000FFF722FF039B00EB830084F48033C3F3FF
:102DD0000043C4F34044D0F8002744EA43049DF87C
:102DE000033022F4E16244EA830422F0070244EA59
:102DF00005231343C0F800370020C2E70725D3E7B7
:102E00000425D1E70525CFE70325CDE7630344BFBC
:102E10007368C3F80C15CFE710360DF1020239467E
:102E2000304602F01BF814F4403F804616D1394674
:102E3000304605F0C3FA244B9845DDD19DF80210C9
:102E4000304602F079F84045D6D020492048EC229F
:102E500005F09AF81D48EC2105F08DF801AB4FF014
:102E6000000903AA39463046CDE90439CDE9019974
:102E7000CDF80C9001F0BCFE134B98427FF47FAF6D
:102E800014F4003315D09DF803308DF80E3084F41F
:102E90008034C4F300444B4603AA394630468DF8CB
:102EA0000C508DF80D4001F057FF074B9842C2D0EF
:102EB00065E7CDE9043303AA0DF103033946304633
:102EC000039301F095FEF0E70000AD0BC88E000003
:102ED000078A0000420970B5034602D0012A1AD0C1
:102EE00070BD124E326951680029F9D003F01F03FA
:102EF00001250C689D400029F2D08A682A400ED036
:102F00004B6853B90A490B48612205F03DF808485F
:102F1000612105F030F8084EE4E7304698471CB1CF
:102F2000236821461C46E6E72346FAE7AC87000003
:102F30008C8E0000078A000098870000014B012258
:102F40001A60704700C000400C2903690BD15B6A0E
:102F5000064907484B4393FBF0F100FB1133116026
:102F60005360002070476FF08500704790D00300D9
:102F700040420F00044B00690022C3F80021D3F83F
:102F8000003102F0DBBD00BF00C000407FB5056925
:102F9000AB6A002B40D03C2901D00C293FD105F170
:102FA00010064FF0FF324FF0FF33304602F09EFC28
:102FB0001C4B019300240323A86A039469460293DF
:102FC000FEF76AFAA04208DA174918483D2204F0D1
:102FD000DBFF3D21144804F0CEFF4FF0FF324FF0ED
:102FE000FF33284602F0F0FDA86AFEF7D9FA002860
:102FF00006DA0D490D48422204F0C6FF4221E9E7F6
:103000000B4BD3F808256A6201225A60304602F061
:1030100023FD204604B070BD6FF00A00FAE76FF0A0
:103020008500F7E73D2F0000108F0000078A0000A1
:1030300000C0004010B504690020FFF7A1FAA062AB
:1030400040B910491048772204F09EFF0D487721BF
:1030500004F091FF4FF0FF320021204605F049FABD
:1030600004F1100005F03EFA002201210C20FEF7C9
:103070003FFE0C20FEF70CFE044B0122C3F8042394
:10308000002010BD108F0000078A000000C0004023
:1030900070B40E49D1E90034D01AC31844F10004C9
:1030A00022F07F46C1E90034A6F50013B3F5400FC6
:1030B00009D2074B1B681A0A1B069C19054B42F1E3
:1030C0000005C3E9004570BC04F094BAB80C0020B8
:1030D00064100020C00C00200D4B1868010A000687
:1030E000BFF35F8F0B4BD3F80435181841F1000183
:1030F000B3F5801F0AD2084BD3E90023904271EB4D
:10310000030303D210F1807041F10001704700BF4A
:103110006410002000100140C00C00202DE9F7438E
:103120002B4CD4F8043399070BD5D4F8043143B1B0
:10313000284A0023C4F80431D4F804311368013359
:103140001360D4F80433DA0323D5BFF35B8F224B2B
:1031500053E8002F22F0010143E800100028F7D1C6
:10316000BFF35B8FD30702D4D4F840318BB1002575
:10317000C4F84051D4F84031FFF7AEFFEFF31082AE
:1031800072B6164BD3E90267B042B94104D282F35A
:10319000108803B0BDE8F0834FF0FF384FF0FF39DF
:1031A000C3E90289D3E900101D604FF48033C4F8ED
:1031B0004833C4F84051D4F8403182F310880029D4
:1031C000E7D0009032463B4628468847E1E700BFFB
:1031D00000100140641000205C100020A80C0020AA
:1031E0002DE9F84F4B4DBFF35B8F06460F4655E870
:1031F000008F28F0010345E80032002AF7D1BFF321
:103200005B8F454C4FF48039C4F80893BFF35F8F50
:10321000BFF36F8FFFF760FFB04271EB070308F059
:10322000010840D23D4B301A67EB0101984271F121
:1032300000014CD23A4BD3E902239F4208BF964289
:103240003ED04FF0000CC4F84893C4F840C126F0BB
:103250007F40D4F84031DFF8CCA0834603216FF0E3
:10326000020E2BF07F43C4F84035C4F84493D4F8E1
:103270000425AEEB02035B4423F07F4353451FD983
:10328000D4F840315BB1D4F80425131A23F07F43FE
:10329000B3F5000F14D9C4F840C1D4F8403101EBA4
:1032A000020B0131DDE7204BBFF35B8F53E8001FBA
:1032B00041F0010143E80012002AF7D1BFF35B8F10
:1032C000174B1A4A1A60C3E9026700225A60B8F124
:1032D000000F1CD0BFF35B8F55E8003F43F00103A4
:1032E00045E80032002AF7D1BFF35B8F4FF48033FB
:1032F000C4F804330C4BBFF35B8F1B68BFF35B8FC9
:10330000DB0742BF0A4B4FF40032C3F80021BDE88F
:10331000F88F00BF60100020001001400100800005
:10332000A80C0020FDFF7F005C1000209130000001
:1033300000E100E070B5194C194BC4F80833C4F82B
:103340004833184B00254FF0FF304FF0FF31C4F8E1
:103350000855C3E902014FF48033C4F80433124B1B
:1033600002264FF40032C4F804630121C3F880211F
:1033700011202A46FEF7BCFC1120FEF789FC012330
:103380000A4AA3600021236009481360FFF728FF61
:103390003046FFF7FDF8284670BD00BF0010014021
:1033A00003000F00A80C002000E100E060100020E6
:1033B000FFFF7F00431C10B50F4C05D08442A8BF0F
:1033C0000446012CB8BF0124FFF786FE0B4AD2E960
:1033D0000031C01AB0F5000F074A0AD220449042CB
:1033E00028BF1046C018BDE8104041F10001FFF7AA
:1033F000F7BE1046F6E700BFFFFF7F00B80C0020C5
:1034000008B5FFF769FE024B1B68C01A08BD00BF74
:10341000B80C00200B4B0C4A1B7AC2F81035042B59
:103420000DD8DFE803F008030C080300074BA022C7
:103430001A6001207047054B4FF49672F8E70020A0
:10344000704700BF5C110020001000407010002089
:10345000044A0023C2E908339362034AC2E90833ED
:103460009362704728110020FC100020054B1B6858
:10347000D3F80423920342BF0022C3F84421D3F8B7
:10348000443170477C05002010B5FCF74BFE0C4C16
:103490000C490D48FCF740FE40F21713C4F8003207
:1034A0000A4A0B4B507C1B6898470A4BC4F80435FA
:1034B000094B0A4A1A600A4B04221A7010BD00BF59
:1034C000001000404C050020A48900005C11002081
:1034D00068100020871600206C100020B93800000A
:1034E000CB16002008B5084B1B6801221A61FCF7B7
:1034F0001FFEFCF717FE00F097FD0320FCF71EFEF1
:10350000BDE80840FCF7FCBD7C05002010B5064C6A
:103510000649204604F087FEC1F82405201D04F06A
:1035200082FEC1F8280510BD6C0500200010004087
:1035300008B507490748FCF7EFFD38B900F058FD1A
:10354000054B1B6840F20442C3F8002208BD00BFCF
:103550004C050020A48900007C05002038B51C4BD8
:103560001C4C1B6801251D6100F05EFDFCF7E0FDB1
:10357000FCF7C6FD00221146284600F0D7FD40F2B8
:103580001313C4F80032144A144B507C1B6898473C
:10359000134BC4F804350023C4F81031D4F81031AB
:1035A0002561D4F81031002BFBD00022C4F8102183
:1035B000D4F8103140F21713C4F80032114601203C
:1035C00000F048FDFFF7B4FF064B01229A6138BDB9
:1035D0007C050020001000405C11002068100020D5
:1035E00087160020004001402DE9F843224BDFF808
:1035F0008C801A78012A81460F4630D198F8003025
:10360000C3F3050203F03F03202B33D81C4B196A88
:1036100053F821301A701A4D1A492C6A55F8246053
:103620003046013410F8052B05F001F8164B86F8EA
:103630000190D3F84835377103F07F03B37098F8E1
:103640000130DB4303F00103F370AB6A082C28BFA1
:10365000002401332C62AB620120BDE8F883084AE4
:10366000116A52F82120597809B91170D3E75B7CAF
:103670001370D0E70020F0E75C11002087160020CF
:10368000FC100020891600200010004007B5114BE7
:103690001148DA7C90F90A00002302F5166201A9AC
:1036A000FCF758FD9DF80500FCF74EFD50B10B49A5
:1036B0000B484FF4477204F067FC08484FF4477119
:1036C00004F059FC9DF80420064BC3F80C2503B008
:1036D0005DF804FB640500205C110020588F000099
:1036E000078A000000100040837842781B0443EAF8
:1036F000022302781343C27843EA0253027943EA71
:103700008253427943EA0263827943EA8263C2794F
:1037100043EA4273094AC2F81435837A417A1B049A
:1037200043EA0123017A0B43C17A43EA0163017B37
:1037300043EA4163C2F81835704700BF00100040EB
:103740001FB504460D220021684604F07EFF0A4B97
:1037500000930A4B5B7CE0B2013B8DF808008DF8CA
:1037600009008DF80A30684601238DF80B30FFF709
:10377000BBFF04B010BD00BF0001010064050020C4
:103780001FB50023CDF80930CDF80130CDF8053054
:1037900003238DF8023006238DF800300C4B5B7C40
:1037A000013B8DF80A3020238DF80830094B1B7A35
:1037B000012293428DF80B2007D18DF80520684631
:1037C000FFF792FF05B05DF804FB042BF5D0F6E798
:1037D000640500205C110020684620F007018D463A
:1037E00019B5144BD3F80423D2060BD5D3F8102106
:1037F00042B10022C3F81021D3F810310E4B1B68E0
:1038000003B198470B4CD4F804331B070BD5D4F8FD
:103810000C3143B1084B1B6803B198470023C4F82F
:103820000C31D4F80C31FDF797FFBDE819408546FF
:10383000704700BF001000406C100020684620F068
:1038400007018D4631B5194B82B01B680193EFF328
:103850001181402383F31288BFF36F8F144B002232
:103860001D681A6081F31188BFF36F8F114C2368B4
:10387000ABB1E90703D58DF8002068469847AA0741
:1038800005D501238DF800306846236898476B07FB
:1038900005D502238DF80030684623689847FDF768
:1038A0005BFF02B0BDE831408546704774100020D0
:1038B00078100020581100202DE9F84F7B4AD2F8EB
:1038C000007417F0010703D1BDE8F84FFFF746BEBB
:1038D000DFF8DCA1DAF82830072BF5D8D2F8083465
:1038E000744DDFF8D491D2F80C4499F80120DBB282
:1038F000C2F3410135F8230084424FEA830640F0C9
:10390000AB80A8198078814240F0A680B846002795
:10391000AA196A4C9170654AD2F80C2425F8232024
:10392000A37C23B199F80130DB0740F1BC80FCF7A0
:10393000FFFB63496348FCF7E9FB5C4B40F21B1259
:10394000C3F8002294F800B05F4CBBF1000F00F008
:103950009B80BBF1010F55D1DFF870C1D3F808147B
:10396000DCF82830002B00F085805948C9B250F8A7
:103970002120002A7ED0DFF85CB1D2F800E0CBF83D
:1039800000E005EB060E9EF803E0BEF1000F17D035
:10399000B8F1000F14D182F8048050F82120013BC7
:1039A000926840F82120CCF82830002B57D002B183
:1039B0001268CBF80020484A136843F001031360F3
:1039C000464BDBF800801A68AB19B8F1000F48D0FD
:1039D0000121D97098F800009047DBF80010237897
:1039E0000A783F4862F30503237011F8052B04F0B1
:1039F0001EFE637899F8012023F0070302F0070206
:103A000013436370374B05221A70FFF73FFE274BB5
:103A1000D3F80824D2B2C3F82C25C3F80445324B9E
:103A2000324A1A60B7B1214BD3F80804DAF82830CB
:103A30003544072BA9780DD8C0B2FFF7D5FD48B1A2
:103A4000254A136843F004031360294B4FF4801296
:103A5000C3F80021BDE8F88F4FF0000858E7424650
:103A6000A7E783F8038040469047237868F305036F
:103A70002370BEE7AB194FF0000883F80380174BA3
:103A800040461B689847F0E7144B58461B68984718
:103A900099F80030227884F801B0C3F3010363F38E
:103AA00001022270AEE7FFF759FDBBE700100040AE
:103AB000FC100020E4110020871600205C1100207B
:103AC0004C0500208C890000A91600202811002038
:103AD0007C10002054110020781000206810002075
:103AE000AB160020CB1600206C100020893400009B
:103AF00000E100E010B500F0BBFBFFF7F3FC13485A
:103B000001F078FC00F0DEFB114A1248D2F8503682
:103B100023F00103C2F850360F4B00241C700F4BEA
:103B200021461C70FFF794FC202204F08EFD0C4B04
:103B300001201C605C60FEF7B9F81420FEF7B6F8AF
:103B4000BDE810400A20FEF7B1B800BF7C05002098
:103B500000100040E4110020CB160020CC160020FD
:103B60007F160020F0B5044685B0002800F0C5801F
:103B7000634D2B780BB1FFF7BDFF624B62681A6093
:103B8000614A234604F1100716461868596814461E
:103B900003C40833BB422246F7D1186820605B4B50
:103BA0005B480024202221461C6004F04EFD594B46
:103BB00059491C605C60FFF72DFC337883B1012B01
:103BC00001D1564B0B60727A554B012A00F0888068
:103BD000022A07D07AB9C3F83C25C3F8342508E097
:103BE000504BEFE74FF6FF70C3F83C05C3F83425A0
:103BF0004D4AC3F838250B68707C9847484B4B49B1
:103C00004B484FF0E732C3F81C254FF04332C3F85E
:103C10002025484AC3F82425474AC3F82825FFF73A
:103C200017FC0A4600230133082B40F8042B02F14D
:103C30002502F8D1414A424800230133082B40F8BD
:103C4000042B02F12502F8D100223E4B144601322A
:103C5000082A19601C719C6001F1250103F10C0315
:103C6000F5D120220021384804F0EFFC374B384AC8
:103C70003848019301A9CDE9024401F02FFB364BEE
:103C8000984235D100F0B0FA044698BB00F0ECFA47
:103C9000324B23495860D1F85026F37C22F00102C0
:103CA0001343C1F85036012108462246FEF720F89A
:103CB000224602211420FEF71BF8224602210A2088
:103CC000FEF716F80120FDF7E3FF1420FDF7E0FFF3
:103CD0000A20FDF7DDFF224B1C7001232B7009E049
:103CE000FF20C3F83C05C3F8342540F2071280E7F3
:103CF0006FF00D04204605B0F0BD6FF01504F9E734
:103D0000CC160020581100205C11002078100020F3
:103D1000E41100207F160020681000208137000089
:103D2000001000404137000021100100571500200D
:103D300028110020E743C323A363E3132F140020BB
:103D4000FC1000209C1000207C10002040420F003E
:103D50006D3400007C0500200000AD0B4C050020F8
:103D6000CB16002038B5254B1B78002B3CD0002803
:103D70003DD0234CA36A002B3CD0EFF311854023A8
:103D800083F31288BFF36F8F636A54F823301A7875
:103D90000270636A54F823305B784370636A54F8A6
:103DA000233093F902308370636A54F823301B790F
:103DB0000371636A54F82330DB78C370636A54F884
:103DC00023100530053104F032FC636A0133082BFF
:103DD00028BF00236362A36A013BA36285F31188B5
:103DE000BFF36F8F002038BD6FF00C00FBE76FF062
:103DF0001500F8E76FF03C00F5E700BFCC16002097
:103E0000FC10002038B5334B1A7802F0FF05002A69
:103E10005DD1314C31494FF0FF32C4F80823C4F86A
:103E20001051D4F810212E4A116040F21712C4F834
:103E300000221022C4F8042304221A70294B9A7C11
:103E4000C4F83025DA7C40F6C41102F516628A42C5
:103E50000AD92549254840F2F26204F095F8224833
:103E600040F2F26104F087F8A2F51662C4F8082562
:103E70001433BFF35B8F53E8001F21F0010143E8C7
:103E80000012002AF7D1BFF35B8F194BC4F8043539
:103E9000184B0222C3F880210120FDF7F9FEC4F877
:103EA0000451D4F80431C4F80851D4F80831C4F8E6
:103EB00010512A4601202946D4F8103100F0CAF8E2
:103EC000FFF736FB0C4B01229A61284638BD6FF094
:103ED0000F00FBE7CB16002000100040B9380000AF
:103EE0006C10002064050020AE8A0000078A0000E4
:103EF0008716002000E100E00040014008B50B4BB0
:103F00001B7803F0FF015BB968B1036808480360E0
:103F100004F089F9074B00BAC3F81C05084608BD30
:103F20006FF00F00FBE76FF01500F8E7CB160020ED
:103F3000640500200010004008B50C4B1B7803F00E
:103F4000FF0163B970B10368094840F8043F04F009
:103F50006AF9084B00BAC3F82005084608BD6FF09F
:103F60000F00FBE76FF01500F8E700BFCB1600204D
:103F7000640500200010004038B50F4B1B780C463C
:103F800003F0FF0593B9A0B1082912D80A460146EB
:103F90000A4804F04CFB0A4AFF231474C4F10804D5
:103FA00023419374FFF7B2FA284638BD6FF00F0033
:103FB000FBE76FF01500F8E7CB1600206C0500203A
:103FC000640500206428034607D8074A127802F0E7
:103FD000FF002AB9054AD37470476FF01500704787
:103FE0006FF00F00704700BFCB1600206405002063
:103FF000094B0A491A78D30003F1804303F5F833DB
:10400000C3F810150649C3F8141501239340054A57
:10401000C2F80435704700BFCF1600201841014098
:1040200000A0004000F00140084B09491B78012224
:104030009A40DB0003F1804303F5F833C1F808250B
:104040000022C3F81025C3F814257047CF160020AE
:1040500000F00140F0B52B4B2B4C1B782B4FDA00B6
:1040600014442B4A0025C2F81851D2F81821294AC5
:1040700015788000EA00C0B202F1804202F5F83201
:1040800000F1804000F58050C2F81075C2F81405A8
:10409000214A05F5117042F82040204A2048167840
:1040A000F20002F1804202F5F8320124C2F8100554
:1040B00000F5973000F58470C2F8140504FA06F68E
:1040C00004FA05F0304369B1164A174E1178CA0058
:1040D00002F1804202F5F8328C40C2F8107520439C
:1040E000C2F814659B0003F1804303F5F833012205
:1040F000D3F80018AA400A43C3F80028064BC3F8B7
:104100000405F0BDCD16002004F001401841014027
:1041100000400140D016002000F00140CE160020E3
:1041200010110040CF16002000A00040F0B5294B30
:10413000294E1878294B1A78012404FA02F304FA5C
:1041400000F51D4300F51177C3004FEAC20C19BBFF
:1041500003F1804303F5F833C6F80855C3F810158A
:10416000C3F8141546F827100CF1804303F5F83313
:10417000C3F81015C3F81415194B1B789B0003F1F5
:10418000804303F5F8330121D3F80028814022EA67
:104190000102C3F80028F0BD124A127803F18043EF
:1041A00003F5F833944000212C43C6F80845C3F8C2
:1041B0001015C3F814150CF1804303F5F83346F8D5
:1041C0002710C3F81015C3F81415D30003F180436A
:1041D000CCE700BFD016002000F00140CE16002032
:1041E000CD160020CF16002038B5174801F006F88C
:1041F000164B9842054622D1154800F0FFFFA84211
:1042000004461CD1134800F0F9FFA042054616D120
:10421000114800F0F3FFA842044610D10F4800F007
:10422000EDFFA04205460AD10D4800F0E7FFA84285
:10423000044604D10B4800F0FBFFA04202D06FF00F
:10424000120038BD0020FCE7D01600200000AD0BA6
:10425000CE160020CF160020D3160020D216002044
:10426000D1160020CD1600200048704710110040E4
:104270000E4B0F491B780978012202FA01F102FA6C
:1042800003F30B430B49097802FA01F10B430A4986
:10429000097802FA01F10B43084909788A4013436F
:1042A000074A43F00103C2F808357047D0160020D2
:1042B000D2160020CE160020CF160020D3160020E4
:1042C00000F0014038B51E4B187800F09DFF1D4BE3
:1042D000984205460AD01C491C484FF49C7203F0D2
:1042E00053FE19484FF49C7103F045FE184B1878A3
:1042F00000F08AFFA8420446EDD1164B187800F072
:1043000083FFA0420546E6D1134B187800F07CFFEE
:10431000A8420446DFD1114B187800F075FFA04287
:104320000546D8D10E4B187800F06EFFA84204461F
:10433000D1D10C4B187800F081FFA042CBD138BD11
:10434000D01600200000AD0B798F0000078A000016
:10435000CE160020CF160020D3160020D216002043
:10436000D1160020CD160020BFF34F8F0549064B14
:10437000CA6802F4E0621343CB60BFF34F8F00BF03
:10438000FDE700BF00ED00E00400FA05024AD2F8A4
:104390000034002BFBD0704700E0014010B54FF017
:1043A0008053D3F830210D2A55D14FF0804100229F
:1043B000C1F80C21C1F81021C1F838254C4AD3F8B6
:1043C0000404C2F82005D3F80804C2F82405D3F881
:1043D0000C04C2F82805D3F81004C2F82C05D3F851
:1043E0001404C2F83005D3F81804C2F83405D3F821
:1043F0001C04C2F84005D3F82004C2F84405D3F8E1
:104400002404C2F84805D3F82804C2F84C05D3F8B0
:104410002C04C2F85005D3F83004C2F85405D3F880
:104420003404C2F86005D3F83804C2F86405D3F840
:104430003C04C2F86805D3F84004C2F86C05D3F810
:104440004434C2F87035D1F80034DA0709D56FF07A
:104450000103C1F800344FF08053D3F830310D2BF5
:104460000CD14FF08053D3F834313BB14FF01023CF
:10447000D3F808224FF08043C3F858254FF010219D
:10448000D1F80C32DB0714D51A480123C0F80435E3
:10449000FFF77CFFD1F80C3223F00103C1F80C3296
:1044A000FFF774FF0023C0F80435FFF76FFFFFF735
:1044B0005BFFD1F80032002B03DBD1F80432002B74
:1044C00014DA0C4901234FF01020C1F804351224EE
:1044D000FFF75CFFC0F80042FFF758FFC0F8044246
:1044E000FFF754FF0023C1F80435DEE710BD00BF1D
:1044F00000C0004000E0014030B50468CCB1BFF31B
:104500005B8FB4FA84F3C3F11F03DBB201229A403C
:1045100024EA020250E8005FA54204D140E8002CE2
:10452000BCF1000FF6D1BFF35B8FE6D102480B70F0
:1045300030BD0248FCE700BF0000AD0B0200AD0B30
:1045400010B50368CB40DB0714D401238B4002680D
:10455000BFF35B8F43EA020150E8004F944204D15D
:1045600040E8001CBCF1000FF6D1BFF35B8FEED129
:10457000014810BD0148FCE70000AD0B0400AD0B85
:10458000034BD3F8003523FA00F000F00100704728
:1045900000F00140014BC3F80405704700F00140F2
:1045A000014BC3F80805704700F00140024B00F5CD
:1045B000117043F82010704700F00140034B00F5E4
:1045C0001170002243F82020704700BF00F0014026
:1045D000F7B54FF08043044650B1012826D0314949
:1045E0003148DC2203F0D0FC2E48DC2103F0C3FC70
:1045F0000222C3F808230122DA60C3F80401D3F8C9
:104600000431064601238DF8073042F210754FF051
:104610008047E4B1012C2FD0244923484FF4747211
:1046200003F0B2FC21484FF47471DFE70022C3F8B5
:1046300008035860C3F80021D3F800310DF10706D4
:10464000E0E783B1012003F003FE013D0BD0D7F872
:10465000183403F48033002EF3D0D7F8182402F076
:1046600003023260A3B903B0F0BD002BFBD00120E0
:1046700003F0EEFD013DF6D0D7F80C3403F480339F
:10468000002EF2D0D7F80C2402F001023270E9E7D4
:104690009DF807000128E6D103F0DAFD013DB8D10D
:1046A000E1E700BF9E8F0000078A0000DB8F00005B
:1046B000054B1A792AB95A71012218601A710348F8
:1046C00070470348704700BF701100200000AD0B19
:1046D0000C00AD0B08B50E4B1A7952B90D490E48B6
:1046E0004FF4987203F050FC0A484FF4987103F0AD
:1046F00042FC1B682BB10020FDF7ECFA08B9FDF76E
:10470000C7FA4FF080430022C3F8182508BD00BF48
:10471000701100209E8F0000078A000038B5314CD0
:10472000237953B93049314840F27F1203F02CFC11
:1047300040F27F112C4803F01EFC50B1012846D0F6
:1047400029492A4840F2C31203F01EFC40F2C3116B
:10475000F0E74FF08043D3F81814D3F81824CD03B2
:104760001DD5900702D00020FFF732FF4FF08043A5
:104770000022C3F81825022008224FF4827303F1A7
:1047800080430021196002F180421D6801251560F7
:10479000226802B34FF08043C3F804030CE0D3F85F
:1047A0001424D107E2D5D3F81C249207DBD1226868
:1047B0001AB10222C3F8042338BDD3F80421002A19
:1047C000FBD00022C3F80421D3F80431F4E700221F
:1047D0004FF48073D3E71A68002AFCD019601B6875
:1047E000EAE700BF701100209E8F0000078A0000DA
:1047F00008B5094B1B7953B90849094840F2DD1245
:1048000003F0C2FB054840F2DD1103F0B4FBBDE844
:104810000840FFF7DDBE00BF701100209E8F000032
:10482000078A00004FF08043D3F80C14D3F80C240F
:10483000C80322D5D10720D5D3F81824D2031CD51C
:10484000104A517901F0FF00C9B9C3F80C01D3F83F
:104850000C11012151711961126822B10822C3F8AB
:10486000042309487047D3F80C21002AFBD000220A
:10487000C3F80C21D3F80C31F3E70448704704481F
:10488000704700BF701100200000AD0B0500AD0B9C
:104890000B00AD0B10B54FF08043D3F8002152B19F
:1048A0000020C3F80001D3F800210122C3F8082337
:1048B000164B1B6898474FF08043D3F804215AB138
:1048C0000022C3F80421D3F804210222C3F80823EC
:1048D0000E4B01201B6898474FF08043D3F80C2102
:1048E00092B1D3F8042312070ED50022C3F80C218D
:1048F000D3F80C110821C3F80813044B5A71BDE812
:1049000010401B680420184710BD00BF7011002024
:10491000034A430900F01F00D35C1844C0B270473B
:104920008290000008B502680146104603F0A9FC19
:1049300050B9104910484FF46C7203F025FB4FF446
:104940006C710C4803F017FB02F01F0352090B6057
:104950000AD0012A0BD00749074840F2B93203F0C8
:1049600013FB40F2B931ECE74FF0A04008BD03481B
:10497000FCE700BFD4890000078A00000003005054
:10498000072808B50AD90749074840F2AA3203F0B8
:10499000FBFA044840F2AA3103F0EDFA800000F57A
:1049A000807008BD0F900000078A000070B50546B2
:1049B000FFF7AEFF0C4C08300E4634F81030DA0525
:1049C00008D5C3F3432304EBC302284654F833301D
:1049D00052689847A3682BB1E26831462846BDE883
:1049E0007040184770BD00BF8405002008B5FFF770
:1049F0008FFF034B083033F81000400B08BD00BF99
:104A00008405002008B5FFF783FF034B083033F817
:104A10001000C0F3400008BD8405002008B5FFF772
:104A200077FF044B083033F8100010F01C0018BF5B
:104A3000012008BD8405002008B5FFF769FF034B7E
:104A4000083033F81000C0F3401008BD8405002082
:104A5000034611F0010010B5CCB20DD1A207C4F38A
:104A6000400012D5094AD2F820055860C2F8200546
:104A7000003818BF012008E04FF0A041D1F82025F0
:104A80001A60C1F82025002AE8D010BD00030050AC
:104A900010B5FFF73DFF184A083032F81030D9053D
:104AA0001DD5C3F3432123F4F85322F8103002F14B
:104AB0000E04002034F8023F13F4807F03D0C3F3C8
:104AC000432399420BD001302A28F3D100230B480D
:104AD00042F83130FFF734FD094B984200D110BD48
:104AE000084909484FF4DC7203F04EFA05484FF4C8
:104AF000DC7103F040FA00BF84050020F0050020BF
:104B00000000AD0B44900000078A00002DE9F84337
:104B1000002407460E4625464FF00108A146B5423F
:104B20000DD1124BD3F87C2132B10022C3F87C2185
:104B3000D3F87C3144F000442046BDE8F883E8B265
:104B4000FFF71EFFA0F58072920808FA02F21742E2
:104B500009D000F1804303F5C043196819B1C3F8C7
:104B600000901B6814430135D9E700BF0060004086
:104B7000F7B506460846FFF7CBFE194F00F10805CA
:104B80000C4637F81530DB0727D5304603F0F2FB2B
:104B90002046FFF751FF40B12046FFF727FF31685D
:104BA00000F5A270002341F820302046FFF770FF87
:104BB000002301A827F815300194FFF7B3FE019BED
:104BC00000EB8300074BD0F80027134043F00203AB
:104BD000C0F80037044803B0F0BD0448FBE700BF4D
:104BE00084050020F0F8FCFF0000AD0B0400AD0BC5
:104BF0002DE9FF41164680460846FFF789FE3768D3
:104C00000D460446E7B1084603F0A9FB08BBCDE911
:104C100000008DF80E008DF80F003B460DF10F02DD
:104C20000DF10E01284603F03EFB474A04F108014E
:104C300032F8113023F0020343F0010322F811305F
:104C4000736863B328461F785968FFF7DBFE10B11D
:104C5000D1B13E4826E03C4A04F1080032F8103059
:104C600023F02003DB04DB0C22F8103061B1032FAA
:104C7000EFD87168496891F800C0D8F80010A7B95A
:104C80000CF5A27C41F82C702F4A04F1080132F88F
:104C9000113023F01C0343EA870322F81130B36874
:104CA0004BBB2B4804B0BDE8F08101EB8C0143EA1B
:104CB0004C33D1F810E52EF0030EC1F810E5D8F80A
:104CC000001001EB8C0E43F02003DEF8101522F8E3
:104CD000103021F44F3121F44071CEF81015290223
:104CE000DEF8108501F47C5141EA074141EA0801F0
:104CF000CEF81015C8E7D3E900672846FFF7C8FECD
:104D0000002ECED0104DD5E90023964203D19F420C
:104D100001D1002209E00F480DF10F01FFF7ECFB74
:104D20000B4B9842BED19DF80F2045F8326005EB41
:104D3000C20308345F6035F8143043EA422343F479
:104D4000807325F81430ACE7840500200400AD0B17
:104D50000000AD0BF00500202DE9FF410C46804618
:104D6000204611461E46FFF7D3FD054621B32046D7
:104D7000FFF748FE18B92046FFF75EFE10BB20463D
:104D8000FFF74CFE10B14B78012B1BD001238DF89F
:104D90000F300023CDE900134A1C8B1C20460DF177
:104DA0000F0103F080FA274A05F1080132F81130AB
:104DB00043F0030322F81130002E41D02046FFF7C4
:104DC00021FE18B9204804B0BDE8F08196F800C073
:104DD000D8F800301B4F0CF5A272002143F82210C6
:104DE00005F1080237F8121021F02001C904C90C9E
:104DF00027F8121075781DB3D8F80000B67800EBCC
:104E00008C002D04D0F8103523F4991323F4F853B3
:104E1000C0F81035230203F47C5305F44035360501
:104E2000D0F810E52B4306F4801641EA4C313343A9
:104E300041F0200143EA0E0327F81210C0F81035A4
:104E40000248C0E7840500200400AD0B0000AD0B54
:104E5000014BC3E9021270478405002010B51446C7
:104E600052B90E490E4840F20D3203F08DF80B484E
:104E700040F20D3103F07FF80846FFF7DDFD50B139
:104E80000846FFF745FD074B083033F81030064859
:104E90005B0B237010BD0548FCE700BF4490000089
:104EA000078A0000840500200000AD0B0400AD0B54
:104EB0002DE9F041184D95F8744006464CBB54223C
:104EC000214605F1100003F0C0FB36686F6EA04666
:104ED000A7420FD10023C6F87C3146F30730D6F83D
:104EE0007C31FCF7D5FE01230C4885F87430EB6665
:104EF000BDE8F081E0B2FFF743FDA0F580739B08A9
:104F00001F2B08BF46F8008004F1010408BF335886
:104F1000DEE70348ECE700BF840500200000AD0B8E
:104F20000C00AD0B034B93F87400003818BF012040
:104F3000704700BF840500200148FFF701BB00BF98
:104F4000EC0500200148FFF7D7BA00BFEC050020B0
:104F50002DE9F341054608460C461646FFF75EFD6F
:104F600050B93449344840F2FA3203F00DF840F2B7
:104F7000FA31304802F0FFFF2B68D3F80423002AEF
:104F8000A4BF4FF00042C3F804230846FFF754FDC6
:104F900018B30846FFF736FD0746F0B90846FFF795
:104FA00025FD0446FFF7ECFCD5F8008048F80070BA
:104FB00058F800302B6822B203EB8203D3F8102597
:104FC00042F00102C3F8102526B12A680123A3404C
:104FD000C2F8043302B0BDE8F08146B9154916485D
:104FE00040F20E4202F0D0FF40F20E41C1E72046EF
:104FF000FFF78EFC114B083033F81030C3F38203F7
:10500000042B12D0052B12D001A80194FFF78AFCC3
:10501000019BD0F81015D94001F001010231204662
:1050200002B0BDE8F04103F08BB90321F7E702219C
:10503000F5E700BF44900000078A000084050020C7
:105040002DE9F04F694BDFF8A881D3F80403D8F8B5
:105050006410C0B289B040F00040FFF757FD051E54
:105060002FDAC24600235AF8701F06A8CDE906338E
:10507000FFF7EEFC5F4B01930DF118094FF0000BA9
:10508000019A12F8013B0192DA0803F007031AF8BB
:10509000022022FA03F3DA071CD409F10409BBF158
:1050A000000F14D0D8F864104FF00040FFF72EFD29
:1050B000D8F8701006A8FFF7CBFC0028DAD125F04D
:1050C00000450124002D79D109B0BDE8F08F4FF0E3
:1050D000010BD5E7484B5B440293D9F80010002937
:1050E000DBD0029B91FAA1F11C78B1FA81F141EA7F
:1050F00044142046FFF70CFC0830059438F8107073
:10510000C808BB0819F80020039301F00701012328
:1051100003FA01F122EA010209F8002005A8FFF7CD
:1051200001FC059A039B02F5E072C7F3820650F872
:1051300022205B073746C2F3014224D53946204678
:10514000D6B2FFF733FC05A80594FFF7EBFB059BF0
:1051500003F5E07350F82330C3F301439E4207D1B7
:105160000021204603F0ECF83146204603F0E8F831
:1051700005A80594FFF7D6FB059B012202FA03F36D
:10518000C0F82035A9E7022A0CD10321204603F0FC
:10519000D7F806F00503012BEAD139462046FFF780
:1051A00005FCE5E702212046039203F0C9F8032E2F
:1051B000F3D0039A032ADBD1022EEDE795FAA5F38B
:1051C000B3FA83F304FA03F29B0003F1804303F57F
:1051D000C04325EA0205D3F81005D3F81015C0F333
:1051E0000520C1F30141FFF7E1FB6BE700600040E0
:1051F0008405002092900000929000000146014832
:10520000FFF77AB90006002001238340C3F312029E
:1052100001462AB1034A0448C2F80835FFF790B99D
:105220000248704700F00140000600200400AD0B6A
:1052300001460148FFF760B9FC050020C30003F1F7
:10524000804303F5F833012201465A600148FFF715
:1052500077B900BFFC05002070B51D4A0C68B2FB91
:10526000F4F304FB13258DBB94422FD85C1E1C4025
:105270002CD1B3F5007F29D802684D79D2F80465A6
:10528000097926F0030601F003013143C2F8041541
:10529000D2F8081593FAA3F321F0030105F00305F2
:1052A000B3FA83F32943C2F80815C2F81035006831
:1052B000402300F58072D450D1580433582BFAD1D2
:1052C00040F30730FCF7E4FC024870BD0248FCE7FD
:1052D0000024F4000000AD0B0400AD0BF8B541B99B
:1052E0001E491F487C2202F04FFE7C211B4802F021
:1052F00042FE05791B4C0C236B43E618377A5FBBE3
:10530000E2508B6873600368174A93420FD002F52E
:10531000805293420BD002F58052934207D002F59F
:105320008032934203D002F58052934202D14B79EE
:10533000032B06D909490A48942202F025FE94213C
:10534000D4E7FFF789FF0C2303FB0544074BC21A80
:10535000534253412372F8BD0548FCE79490000086
:10536000078A000078110020008000400000AD0B8B
:105370000C00AD0B10B50C4B02790C2101FB023275
:10538000127A012A08D009490948D22202F0FCFD0C
:105390000648D22102F0EFFD04682260027901FB89
:1053A000023302221A7210BD78110020949000007E
:1053B000078A000010B50C4B02790C2101FB023268
:1053C000127A42B909490A48DB2202F0DDFD07489A
:1053D000DB2102F0D0FD046801222261007901FB8B
:1053E00000331A7210BD00BF7811002094900000A5
:1053F000078A0000F8B5144D03790C2707FB035307
:1054000004461B7A43B911491148BC2202F0BCFD85
:105410000E48BC2102F0AFFD006840F30730FCF7F6
:1054200045FC23680026D3F80022C3F800622368F5
:105430004FF0FF32C3F808232046FFF7BBFF237964
:1054400007FB03552E72F8BD7811002094900000E0
:10545000078A000070B5144C05790C2606FB05443C
:10546000247A54B9114912484FF4957202F08CFD18
:105470000E484FF4957102F07EFD4FF480340568BC
:105480008C4073B18B0003F5A0730026EE50EB58EF
:105490000368C3F80443036801F5A87143F82120A9
:1054A00070BDC5F80843F6E778110020949000001D
:1054B000078A00002DE9F041154E07794FF00C0ED8
:1054C0000EFB07661C46367A9DF8183056B911490E
:1054D000114840F2451202F057FD0E4840F24511C6
:1054E00002F049FDD0F800E040F20117DEF800625A
:1054F0008F4026EA0706CEF800620568D5F80062FC
:105500003443C5F80042BDE8F041FFF7A3BF00BF38
:105510007811002094900000078A00000149024899
:1055200002F050BF7811002000800040014902487D
:1055300002F048BF8411002000A0004008B5144BC1
:10554000A8220021184603F080F8032202611149C5
:105550004261114A8161C2614FF48062026200229D
:1055600082624262C26201660C4941661021816614
:1055700003460267C2664267BFF35F8F084911F8AE
:10558000010D98540132102AF9D1BFF35F8F08BD85
:1055900010040020D1900000100000200000002026
:1055A000EA90000008B5084A084B93420AD9084916
:1055B0000848182202F0E8FC0548182102F0DBFC3C
:1055C0001433F2E7FCD308BDE887000084870000AD
:1055D000EB900000078A000070B50446EFF31186D7
:1055E000402383F31288BFF36F8F0C4B9D6802F04A
:1055F00016FE042C08D10A490A48872202F0C4FC8E
:105600000748872102F0B7FC86F31188BFF36F8F3C
:105610002846BDE87040FCF7BFBA00BF90110020DB
:105620000E910000078A000038B5094B53F820405E
:10563000013053F82050A54200D838BD636823B12B
:10564000204602F02AFF0834F5E723689847FAE776
:10565000BC89000070B5354B354C364D012286B003
:1056600003201A70FFF7E0FFFCF712F802F031FF99
:105670000420FFF7D9FFAC42264624D92E492F48F3
:10568000452202F081FC45212B4802F074FC54F8BD
:105690000C3C059354F8103C049354F8143C0393C9
:1056A00054F8183C029354F81C3C019354F8203CE5
:1056B000009354E90A2354E90C0100F091FD54F8D9
:1056C000303C5E65D7E7AE4204F13004DFD301F031
:1056D000BDFA174C1A4EAC421BD91749174869221C
:1056E00002F052FC6921CFE7D4E90A23B3F1FF3F6E
:1056F00008BFB2F1FF3F05D052EA0301206803D191
:1057000002F03DFF3034E6E73146183001F08AFE02
:10571000F8E7E9D301F0E8FAFAF706FF094A137B44
:1057200023F00103137306B070BD00BFD416002030
:10573000E8870000E887000030910000078A000039
:10574000E3850000480D002008B50348034A002106
:10575000121A02F0BAFE08BDD0070020D8160020A9
:1057600070B5002386B00122CDE90423134E144DF9
:1057700001930F22CDE902321249142303FB005595
:1057800006EBC01604464FF4C07000FB04110E4B2C
:1057900000954FF4A072304600F022FD737B0B4A57
:1057A000EE6023F0040373734FF4046304FB0333CC
:1057B00013442C746B6006B070BD00BFC80C002091
:1057C00090110020401F0020AD580000001700205D
:1057D000BFB50020FFF728FF2C4B83F308882C4D22
:1057E0002C4E6B692C4F43F400736B61E02385F8FA
:1057F000223000242023EB772C766C76AC7685F86B
:1058000020406B6A43F4E0236B6285F82340FCF789
:105810002DF9FCF707FB4FF0FF33AB62EB62FCF7AF
:10582000E9FBFCF723FB1D4BB36040F201129A81A8
:10583000C3E91844DC66FFF7B5FE0120FFF7F4FE6C
:105840000220174DFFF7F0FE01F0AAFA154B756123
:105850000593012314490094CDE903434FF480627A
:105860003B46CDE90144284600F0BAFC6A7B064677
:1058700022F0040228466A7300F00CFF2046FFF76E
:105880006FFF3A4631462846FCF7AAFA401F00202F
:1058900000ED00E09011002055560000C80D0020DA
:1058A000480D002051910000C020002008B50C4B8D
:1058B0009B6893F90E30002B09DB4024EFF3118332
:1058C00084F31288BFF36F8F02F0FCFBF6E7054903
:1058D00005481B2202F058FB02481B2102F04BFB3B
:1058E0009011002056910000078A00002DE9F34135
:1058F000044617461E46EFF3058545B15149524807
:105900006F2202F041FB4F486F2102F034FBEFF3AE
:105910001188402383F31288BFF36F8F4B4801F047
:10592000F5FC38B94A494848882202F02DFB882105
:105930004748EAE7454801F00DFDE368454A9BB159
:10594000A0689168884224D057EA060329D13F48CD
:1059500001F0EAFCA0B188F31188BFF36F8F6FF0FC
:105960000F0002B0BDE8F081916891F90E10374840
:1059700021610133E3609368A36001F0D5FC50B965
:105980003349314840F2311202F0FEFA40F231114F
:10599000CEE72169EBE788F31188BFF36F8F002012
:1059A000DFE791F90E1090F90E309942A8BF194621
:1059B0006FF07E029142B8BF11468B4202DD02F0C9
:1059C00089FD0546CDE9007620482246414600F093
:1059D0004FFF0028E3D0EFF31186402383F31288B2
:1059E000BFF36F8F194801F091FC00289AD0174837
:1059F00001F0B0FCA068C0B1236821699C420AD0C4
:105A00004BB193F90E309942A8BF19466FF07E034F
:105A10009942B8BF194602F05DFD30B10B483146DE
:105A200001F088F86FF00A009BE7002DF6D10748D7
:105A300001F07AFC0028A3D086F31188BFF36F8FA2
:105A4000F0E700BF77910000078A0000B011002046
:105A5000978B00009011002070B50446EFF3058687
:105A600046B131493148D72202F08EFAD7212E486B
:105A700002F081FA8368002B4FD02D4A926893423E
:105A80004ED1C36833B928492848EF2202F07CFA86
:105A9000EF21ECE7012B03D0013BC360002070BD78
:105AA000EFF31185402383F31288BFF36F8F2148F2
:105AB00001F02CFC38B920491C48882202F064FA15
:105AC00088211D48D4E71B4801F044FC2169A068E7
:105AD00002F000FD204600F071FFA06050B190F987
