:10000000001F0020351A000061800000211A000046
:10001000211A0000211A0000211A0000000000002F
:100020000000000000000000000000000D1C0000A7
:10003000211A000000000000D91B0000211A000056
:10004000D91D000005370000D91D0000D91D000092
:10005000D91D0000D91D0000D91D0000D91D0000C8
:10006000D91D0000D91D000075550000D91D0000E4
:10007000D91D0000D91D0000D91D0000D91D0000A8
:10008000D91D0000D91D0000D91D0000D91D000098
:1000900069370000D91D0000D91D0000D91D0000DE
:1000A000D91D0000D91D0000D91D0000D91D000078
:0800B000D91D0000D91D00005C
:1000B800014B1B689B68184700000020014B1B6818
:1000C8001B69184700000020014B1B685B69184733
:1000D80000000020014B1B689B69184700000020A6
:1000E800014B1B68DB69184700000020014B1B68A7
:1000F8001B6A184700000020014B1B68DB6A184781
:100108000000002010B4034C2468E468A44610BC26
:10011800604700BF0000002030B50346114890F941
:100128001C209A4219DD90F924209A4217DA9A1A6B
:10013800846AA05C0C4A15569D420DD00E320029E7
:1001480018BF01309442C0B206D129B1013BDBB2DD
:10015800012B01D80130C0B230BD0D20FCE70020D2
:10016800FAE700BF680200209C87000008B5054B2D
:1001780093F91C30984203DAFFF7CEFF024B1B5667
:10018800184608BD680200209C87000010B51C4C6A
:1001980094F82C3073B9012384F82C3000F09EF8C1
:1001A80048B1184BA362D823236284F8243008236B
:1001B800A361237710BD00F0A7F80028F1D100F063
:1001C800ADF80028EDD100F06BF838B10E4BA36202
:1001D800D823236284F824300423E9E700F06AF87E
:1001E8000028F3D100F070F80028EFD100F080F873
:1001F8000028EBD14FF4DF71742000F019F800BF2C
:1002080068020020D7870000AA870000BFF34F8F3D
:100218000549064BCA6802F4E0621343CB60BFF39A
:100228004F8F00BFFDE700BF00ED00E00400FA05B6
:100238001FB572B6134B5D688DB9FFF7E7FFB2FBC8
:10024800F6F2DCB20133002AF9D104F110036B4451
:1002580003F80C2C0A2234B901A8A847EDE7024696
:1002680000230A26EDE7631E04AEDCB256FA83F3D8
:10027800B0FBF2F602FB1600303003F80C0C3046E7
:10028800E9E700BFC00600204FF08052034BD2F8C8
:1002980030111960D2F834215A607047FC060020EA
:1002A800034B1868A0F10F0358425841704700BF2C
:1002B800FC060020034B1868A0F10A035842584175
:1002C800704700BFFC060020034B1868A0F10E031E
:1002D80058425841704700BFFC060020034B18687D
:1002E800A0F1100358425841704700BFFC06002097
:1002F800044B1868062803D0431C584258417047DD
:1003080001207047FC060020034B1868A0F10D037C
:1003180058425841704700BFFC060020034B18683C
:10032800A0F1080358425841704700BFFC0600205E
:1003380008B5FFF7A9FFBDE80840FFF727BF801AF7
:1003480000F3070038B540B20D4659B21446FFF71E
:100358000DFF0023287020446B7040B238BD002385
:10036800036070477047002070474FF0FF307047B8
:100378004FF0FF3070477047002070474FF0FF3054
:1003880070470020704700207047002303707047B3
:100398000022FFF7D4BF002070474FF0FF307047AE
:1003A8004FF0FF3070474FF0FF307047704700281C
:1003B8000CBF6FF01500002070470020704707231E
:1003C800037000207047002070470020704700002D
:1003D80008B50378022B06D1034803F0CBFC10B90B
:1003E800024B01221A7008BD910C0020900C0020CD
:1003F80008B50268530904D14FF0FF33D340DB0737
:100408000AD4074907484FF46C7207F0A7FD04485F
:100418004FF46C7107F099FD4FF0A04008BD00BF84
:100428004C8900007F89000013B50446019001A89B
:10043800FFF7DEFF00EB8400044BD0F800271340E1
:1004480043F00303C0F8003702B010BDF0F8FCFF1A
:1004580030B5144A144B154D8BB0CDE90123144A1D
:100468001068516803AB03C31C460FCD0FC42B683B
:100478002360104A0692012305A88DF815308DF8DF
:10048800263003F077FB58B901A803F03FFD38B9CF
:1004980002A803F055FD18B9082103A803F06AFD66
:1004A8000BB030BD3344BB01DEF01223808700005F
:1004B80097890000D90300002DE9F74F4FF010236A
:1004C800D3F88440D3F88850601C39D1691C6FD0A8
:1004D800FF26EFB2B046B146FF2F61D14FF0010AB7
:1004E80007F0DFFC002840F0CD80FFF7B1FF0028BF
:1004F80040F0C880282003F065FD03F08BFC00283D
:1005080040F0C080DFF884B1614C05469BF80020BC
:1005180002F0FF030193002A7ED000218BF800101F
:1005280003F0F0FA10225B48002108F062F8A27A82
:10053800019B042A4FD8DFE802F042757D859300BD
:10054800C4F30726C4F307484FEA146AE4B2FF2C41
:10055800EFB205D02046FFF767FF204607F094FC6E
:10056800FF2E05D03046FFF75FFF304607F07FFCCF
:10057800B8F1FF0F04D1BAF1FF0F08D1D146ABE7AC
:100588004046FFF751FF404607F07EFCF3E7504630
:10059800FFF74AFF50465FFA8AF907F068FC9BE7C5
:1005A800EDB22846FFF740FF284607F060FC95E7C4
:1005B800FF27B946B8463E464FF0000A90E7354A4D
:1005C80001211170217A517002215171E179117163
:1005D800617991711D46BAF1000F17D0637ADA0775
:1005E800484649D407F043FC637A9B07384646D40B
:1005F80007F03DFC55B1FF2E02D0304607F044FC11
:10060800B8F1FF0F02D0404607F031FC214800F056
:1006180067FC204800F078FB002140F6CD4006F04A
:10062800B7FC73E71B4A217A5170E179117161793E
:100638005171CFE7174B02221A70227A5A706279E9
:100648005A71C8E7134A03211170217A5170E17970
:10065800117161795171A17991710A219160B9E79C
:100668000C4B04221A70227A5A7062791A71A27994
:100678005A710A229A60AEE707F006FCB4E707F061
:1006880003FCB7E703B0BDE8F08F00BF900C002073
:10069800910C0020A00900200B4B00224FF0FF31E5
:1006A800C3F80022C3F80813C3F81021D3F81021A7
:1006B80001221A61D3F81021002AFBD00022C3F8C6
:1006C8001021D3F8103170470010004010B5FFF723
:1006D800E3FF044B1B6823B11B6813B1BDE810404E
:1006E800184710BDB009002010B51C4BD3F80423DF
:1006F800D104044616D5D3F830219AB10022C3F8A4
:100708003021174AD3F830311368013313608268F7
:1007180042B1934213480CBF002240F6CD42002359
:1007280005F042FD0D4BD3F80423120714D5D3F876
:100738000C218AB10022C3F80C210B4AD3F80C31E2
:10074800136801331360A268934205D1FFF7A4FF31
:10075800E368BDE81040184710BD00BF0010004016
:10076800B809002048000020BC09002073B5124BCE
:10077800124C187020460D4604F03CFE104B002623
:10078800D3F80022C3F800624FF0FF32C3F8082301
:100798002946204607F031FE0123024600932046F1
:1007A80040F20113314604F0A5FE204602B0BDE830
:1007B800704004F0FFBD00BFB80C0020388800006E
:1007C80000800040042810B504460BDC10F1100F1F
:1007D8000DDA10F11E0F54D010F1140F53D010F190
:1007E800280F52D02B4807F0A3FB002331E000F17B
:1007F8001003142BF6D801A252F823F09708000032
:10080800ED070000ED070000ED07000059080000A3
:10081800ED070000ED070000ED0700007B08000071
:10082800ED070000ED070000ED0700007F0800005D
:10083800ED070000ED070000ED070000F3070000DA
:10084800ED070000ED07000083080000870800009E
:10085800F423114AC2F80C35104B1B78CBB921464A
:100868000F4807F065FB21460E48BDE8104007F029
:100878005FBBF823EDE7FC23EBE70323E9E7042359
:10088800E7E7E223E5E7EC23E3E7D823E1E7F02312
:10089800DFE710BDA089000000100040B70C002061
:1008A800DF890000048A0000444B40F20122C3F8AB
:1008B80050260022C3F83425C3F83825C3F82C2560
:1008C8000122914284B0C3F8302528D0022920D0D3
:1008D800002958D1AB22C3F824254FF0AB32C3F816
:1008E8001C250023FF22CDF805308DF808204FF491
:1008F8008272ADF80A2006284FF00102CDF80130C7
:100908008DF80C2010D804283FD851D04FF48373A9
:1009180017E0CC22C3F824254FF0CC32DFE76A2257
:10092800C3F82425264ADAE70F28EFD102228DF8EA
:1009380005207F22ADF80A308DF80C308DF808209C
:100948008523204A13809DF807309DF804205B0713
:1009580043EA82539DF8052043EA0263174A43F0AD
:100968000803C2F814359DF80A309DF80B101B04D3
:1009780043EA01639DF808100B439DF80C1043EA05
:100988004163C2F8183504B0704740F20232ADF83E
:10099800042003228DF80720ADF80A20074A40F208
:1009A8000311C2F83415C2F838354FF48B73C8E711
:1009B8008DF8052040F20713C3E700BF0010004080
:1009C8001B81FE586C0C002038B50D46FFF76CFFF4
:1009D8000D4C0F2814BFFF237E23012D237010D048
:1009E800022D08D01DB9FF21601C07F083FB074BBF
:1009F800C3F8044538BDFF22CC21601C07F0F9FD7F
:100A0800F5E7FF22F021F8E7B90D002000100040BB
:100A18000F2808B50DD1A1F10B030F2B1AD801EB44
:100A2800810101F62E110D4BA1F51661C3F80815C9
:100A380008BD01F5166140F6C4139942F3D9084977
:100A4800084840F2F26207F089FA054840F2F2617C
:100A580007F07BFA40F66511E5E700BF001000409B
:100A6800268A00007F89000010B5294CBFF35B8FF0
:100A780054E8003F23F4803244E800210029F7D1EC
:100A8800BFF35B8FD80304D5224B2349187803F0B2
:100A980027FEBFF35B8F54E8003F23F0040244E8CD
:100AA80000210029F7D1BFF35B8F590705D5194BF2
:100AB8001A4A1B49187807F0D0FBBFF35B8F54E83C
:100AC800003F23F0100244E800210029F7D1BFF3CA
:100AD8005B8FDA0605D50F4B124A1149187807F0D3
:100AE800BCFBBFF35B8F54E8003F23F4807244E8FB
:100AF80000210029F7D1BFF35B8FDB0507D5054B34
:100B0800064A09491878BDE8104007F0A6BB10BD91
:100B1800B4090020B60C00200080004000100040FE
:100B280000410140041000404081004070B51B4D59
:100B38000446FFF799FF287854B3194A194907F072
:100B480082FB04230126184CBFF35B8F06FA03F3DC
:100B580054E8002F1A4344E800210029F8D1BFF3D4
:100B68005B8F1249287803F0B3FDBFF35B8F54E81D
:100B7800003F43F4803344E80032002AF7D1BFF342
:100B88005B8F287806FA00F0BDE8704003F094BD4A
:100B9800074A044907F057FB0223D3E7B60C0020A5
:100BA8000410004000410140B409002000800040CA
:100BB8000010004070B5114C054616460846FFF770
:100BC8006BFDC4F81055D4F8003243F00103C4F8A3
:100BD8000032FFF7F7FD2846094D3146FFF718FFA9
:100BE8002B7843B10020FFF7A1FF2B781BB1054BF1
:100BF80001221A6070BD01232360FBE7001000404A
:100C0800B70C0020004001402DE9F0411B4C17466D
:100C18000E461D46FFF740FDC4F81005D4F8003213
:100C280043F02103C4F80032154BC4F804353946A3
:100C3800FFF73AFE3146FFF7EBFE124B124E002249
:100C48001A604FF48053C4F80433337883B1012019
:100C5800FFF76CFF33785BB10C4B01221A6055B17A
:100C6800BDE8F0410A484FF4A022002305F09CBAE1
:100C780001236360F3E7BDE8F08100BF0010004086
:100C8800B90C0020B8090020B70C00200040014032
:100C980048000020B0F5A07F10B50C4619D109789E
:100CA800032917D1154B607894F9041001221A70A2
:100CB800134B1A78FFF77EFF6279A0790F4B00215A
:100CC80019700F490B780133DBB2834298BF1A467B
:100CD8000A7010BD04290CD1084B094960780978BD
:100CE80001221A7022790023FFF78EFF227960799A
:100CF800E4E7BDE81040034807F01AB9B70C002034
:100D0800B80C00205A8A00002DE9F3410378052B1E
:100D180040D8DFE803F0030C4952595C427990F956
:100D28000410407802B0BDE8F041FFF743BF4479B2
:100D3800457890F904708679D0F80880FFF7ACFC04
:100D480028462146FFF740FE062D5B4C25D8042D8A
:100D580025D9D4F8003243F4001343F00103C4F852
:100D680000323846C4F81055FFF72CFD31462846A6
:100D7800FFF74EFE514A00231360C4F80C31D4F833
:100D88000C31B8F1000F02D00823C4F804334A4BE1
:100D980001221A6002B0BDE8F0810F2DD9D0D4F835
:100DA800003243F02103DAE7836802794179407819
:100DB80002B0BDE8F041FFF727BF8168407902B073
:100DC800BDE8F041FFF7D2BC81680079F7E74478C5
:100DD80090F80580856890F904708679FFF75CFCC7
:100DE80020464146FFF7F0FD334BC3F81045D3F8D2
:100DF800002242F00302C3F800223846FFF7E2FC63
:100E080031462046FFF704FE2D4B2E4A1B5D128803
:100E18002D485343C5F164045C43B4FBF5F41C440A
:100E280004F0E8FA0020FFF781FE284B2648D3F8A3
:100E3800002200254FF0FF32C3F800522146C3F8C4
:100E4800082307F0C8FA0095024602231E4801212C
:100E580004F050FBEFF31186402383F31288BFF3AD
:100E68006F8F1B4B1B4C01251D60207803F01AFC6B
:100E780020B1207805FA00F003F024FCFFF7F4FD18
:100E88000D4A1549207807F0DEF9BFF35B8F134B45
:100E980053E8001F41F4807143E80012002AF7D19B
:100EA800BFF35B8F23780120984003F005FC86F39D
:100EB8001188BFF36F8F6DE700100040BC09002058
:100EC800B78A00006C0C00203888000000800040C1
:100ED80000400140B60C002044810040B4090020C5
:100EE80030B51B4A87B04FF40073CDE90323059052
:100EF80003A9184A0446184804F018FA174B9842F0
:100F0800014602D0164807F013F8002205210820F0
:100F1800002500F0B7FE2346124A0095052101205E
:100F280007F0A5F8012000F07DFE0F4807F0A0F9B2
:100F38000A4B984206D00D4806F0FAFF6FF00D00F4
:100F480007B030BD0A4B0C341C602846F8E700BFD8
:100F580040420F009D0C0000388800000000AD0BD7
:100F6800748A0000F1060000B60C0020958A000083
:100F7800B0090020B2F5802F2DE9F0410AD3344999
:100F8800344840F2EB1206F0E9FF40F2EB1130482A
:100F980006F0DBFF042A08D82D492E484FF4F972D1
:100FA80006F0DCFF4FF4F971F1E7043ACD1D8E1815
:100FB80025F0070526F00706761B172E4FEAD607F9
:100FC80008D82349234840F2FB1206F0C7FF40F235
:100FD800FB11DCE7B7FA87F4C4F12002C4F124045A
:100FE800A4000734E408631C4FF00008BB42056006
:100FF800AF60C5F80C8008D9154916484FF403723C
:1010080006F0ACFF4FF40371C1E74146920005F1C9
:10101800100007F0EEFA630043F001036B8005EB64
:10102800C4023B1B5900A5F800805180AA1925F875
:101038003440A2F80280AB5305EBC70321465A8817
:1010480042F001025A802846BDE8F04106F047BF49
:10105800C78A00007F890000014B1B68184700BF42
:101068007800002030B585B004460D4610220021D6
:10107800684607F0BEFA02238DF802302A46044B70
:1010880001932146684606F095FC05B030BD00BFC7
:101098006110000080B505460E461746984605F0D3
:1010A800A5FF034607F010FBDFF81890044649F83F
:1010B8000030424630463946A84754F8090000F047
:1010C80035FD00BF080000002DE9F84F044608462A
:1010D800A38B1907164612D4022803F0070162D120
:1010E800204606F048FF88B10138042800F225811F
:1010F800DFE810F0590023017E00C800F500012840
:101108000CBF43F0100143F02001A18304F1140047
:1011180006F0F4F8002800F0AB8086F31188BFF3DE
:101128006F8FBDE8F88F03F00702501F01281ED803
:101138000020062A2768C4E9000014D13A4603E0D3
:10114800E08B0130E0831268002AF9D123F007030D
:1011580043F00202A283204606F00DFF90B342F04E
:101168002002A2832EE023F007039AB2F2E7042AB2
:1011780033D123F007039AB2A283204606F0FBFE80
:1011880010B142F02002A283A38B03F0070989451E
:1011980040F0DC80A18BCA0640F1218121F01003C8
:1011A800A38301F00701D4F81880A38BB8F1000FCE
:1011B800B9DA0022276823F00703C4E9002243F0C4
:1011C8000103A383A38B03F00709894540F0BF807F
:1011D800002FDFD00025AA4640E08549854840F227
:1011E8001B1206F0BBFE40F21B11814806F0ADFE53
:1011F80041B17F497F484FF4AB7206F0AFFE4FF420
:10120800AB71F2E7236843B979497A4840F257123B
:1012180006F0A4FE40F25711E7E723691D6845B9B7
:10122800734974484FF4AD7206F098FE4FF4AD71EF
:10123800DBE7A38B23F0070343F006039BB2A383EA
:101248000F4688464FF00609A268002A40F08180C0
:10125800002F40F08180002D9CD0BA4643F008034F
:1012680004F1140BA383584606F048F8002875D1FA
:101278006149604840F2311206F070FE40F23111C7
:101288005D48B3E7022908D059495A4840F25D122F
:1012980006F064FE40F25D11A7E7E78B47B15449B9
:1012A80054484FF4AF7206F059FE4FF4AF719CE703
:1012B80023695D6845B94E494E4840F2611206F00F
:1012C8004DFE40F2611190E7A38B23F0070343F032
:1012D80004039BB2A383B8464FF00409B4E701297D
:1012E80008D0434943484FF4B27206F037FE4FF432
:1012F800B2717AE7236843B93D493E4840F2651226
:1013080006F02CFE40F265116FE723699D6845B928
:10131800374938484FF4B47206F020FE4FF4B471E0
:1013280063E7A38B23F0070343F005039BB2002771
:10133800A383B8464FF0050986E72D492D4840F2AA
:101348006B1206F00BFE40F26B114EE700270025EA
:101358007AE74FF0010A81E792467FE786F3118822
:10136800BFF36F8FBAF1000F16D147BB15B12349F0
:101378002046A847EFF31186402383F31288BFF372
:101388006F8F584605F0ACFF08BB1B4919488822E7
:1013980006F0E4FD882173E7A1680029E5D00E680E
:1013A8000029E2D0D1F804A043464A462046D04757
:1013B8001EB1336831461E46F2E73346FAE739462E
:1013C80043464A4620463F6806F001FECDE75846A8
:1013D80005F0AAFFA38B23F00803A383DAE68B06A4
:1013E8007FF594AE21F02003A38301F0070177E68F
:1013F800EA8A00007F8900000F8B000009140000B2
:10140800F8B504460D4600F11406EFF311874023A2
:1014180083F31288BFF36F8F304605F061FF40B940
:1014280009490A48882206F099FD0748882106F0EC
:101438008CFD304605F078FFA5613A46204601212B
:10144800BDE8F840FFF740BE0F8B00007F89000021
:101458002DE9F04704460F4606F0A9FD051E5DDBA1
:1014680004F11409EFF3118A402383F31288BFF3C0
:101478006F8F484605F034FF804638B93349344801
:10148800882206F06BFD882130483CE0484605F08C
:101498004BFFE38BA68B4FF6FF72934206F00706CD
:1014A8003FD0022E10D10133E3833546484605F07C
:1014B80025FF00283BD12549254840F2311206F086
:1014C8004DFD40F23111DFE7062E13D8DFE806F0B4
:1014D800092C1212090409006FF085054FF0000865
:1014E800E4E700233B6063687BB9C4E900777EB119
:1014F8003546F3E7174916484FF4E47206F02EFD17
:1015080014484FF4E47106F020FD1F606760EEE7B1
:10151800524602212046FFF7D7FD35462846BDE84A
:10152800F0876FF00A05D9E76FF00405D6E78AF36C
:101538001188BFF36F8FB8F1000FEFD00023324648
:101548003946204606F043FDE8E700BF0F8B000050
:101558007F890000EA8A0000F8B5054600F1140604
:10156800EFF31187402383F31288BFF36F8F304660
:1015780005F0B6FE38B920492048882206F0EEFC6E
:1015880088211D4825E0304605F0CEFEAC8B04F0DE
:101598000704022C12D0012C0CBF6FF004046FF06A
:1015A8008504304605F0AAFE08BB1349134840F2EB
:1015B800311206F0D3FC40F23111E2E7EB8B53B95C
:1015C8000F490E4840F2EF1206F0C8FC0C4840F2F2
:1015D800EF1106F0BAFC013B9BB2EB83002BE0D184
:1015E8003A4621462846FFF76FFD2046F8BD87F3A7
:1015F8001188BFF36F8FF8E70F8B00007F89000019
:10160800EA8A000008B54268816002F00302032AF2
:10161800034602D02AB1002000E0006800225A6088
:1016280008BD04490448452206F098FC01484521B4
:1016380006F08BFC3C8B00007F890000014B0360A7
:10164800002070474088000008B5044806F070FC88
:10165800BDE80840024806F06BBC00BF628B000082
:10166800978B00001D2808B508D90549054814229C
:1016780006F074FC0248142106F067FC08BD00BFA0
:10168800C58B00007F89000070B506460C461546DC
:1016980000F0EAFA40B109490948172206F05EFC51
:1016A8000648172106F051FC3046FFF7DBFF054BD3
:1016B80043F8305003EBC0035C6070BDF48B00004E
:1016C8007F8900003801002030BFFFF7FDBF00BF51
:1016D8002DE9F0410B4EDFF8308006EB0807CC1BF4
:1016E800054632460949204606F075FFA0194246CC
:1016F8000021083C06F07DFF2C6707F10800BDE8D3
:10170800F08100BF000000000400000074870000A2
:10171800074A936893F90E10002907DB5269934230
:101728001FBF044A536843F080535360704700BF9B
:101738001C0C002000ED00E0F8B5274B15469A6A0E
:1017480012F0100F9A6A14BF1124102412F0080F17
:101758009A6A064618BF122490070AD5586B9A6AE7
:10176800120628D519B19A6A22F080029A621324C7
:1017780001E06FF01500184B9A6A12F0010F9A6A8F
:1017880018BF1424D70602D49B6A99070AD5124FAA
:101798007B681A0506D5314600F0D0FA70B180F39F
:1017A800098802240C4A936A43F0FF0393620023DA
:1017B8002B702046F8BD6FF01500D8E7BB6ADB0632
:1017C800F0D50649064840F25D1206F0C7FB03480B
:1017D80040F25D1106F0B9FB00ED00E0218C00003D
:1017E8007F890000134B9A6A12F0007F9A6A14BF2F
:1017F8001E201D2012F0807F9A6A18BF1F2012F445
:10180800002F9A6A18BF212012F4802F9A6A18BFF5
:10181800222012F4003F9A6A18BF232012F4803F56
:101828009A6A6FEA02426FEA12429A6218BF24204B
:10183800704700BF00ED00E010B5164B9A6A9C6A2D
:1018480012F4805F14BF1722162214F4006F9C6AEA
:1018580018BF1822A40509D59A6B9A6A120404D5F0
:1018680018B19A6A22F400429A621922094B986ABE
:1018780010F4806F986A18BF1A2210F4807F986A53
:1018880040F47F4098624FF000030B700CBF104685
:101898001B2010BD00ED00E0F0B5564B5B688BB027
:1018A8000446C3F30803002585F31188BFF36F8F3F
:1018B80002F07F40B0F17F4F08D102F00C000828F9
:1018C80004D012074CBF0C46012554B94A494B486D
:1018D8004FF48B6206F042FB4FF48B61464806F0EA
:1018E80034FB0022033B8DF80720032B7BD8DFE86D
:1018F80003F00272765D3F4AD36A13F0020372D195
:10190800D16A00291ADBD36A5B005BD55369A169E8
:1019180043F480735361BFF34F8FBFF36F8F5369E5
:1019280031F8021C23F480735361BFF34F8FBFF368
:101938006F8F4DF6027399421FD123689DF80720D7
:10194800CAB902AE04F1200720686168324603C2B2
:101958000834BC421646F7D1099A002D45D0C2F387
:10196800080121B96FEA52226FEA4222099202A9BC
:10197800184606F067FB0BB0F0BD936ADBB23BB1CB
:101988000DF1070201212046FFF7D6FE0346D5E7F1
:10199800936A13F47F4F05D00DF107010120FFF77B
:1019A8004BFFF3E7936AB3F5803F02D3FFF71AFFC3
:1019B800ECE71149114840F22A3206F0CFFA40F21A
:1019C8002A318BE70C490D4840F22E3206F0C6FA50
:1019D80040F22E3182E70DF107020021D3E70DF125
:1019E80007010020DBE70023A8E722F4FF7222F0BA
:1019F8000102BBE700ED00E0218C00007F890000B8
:101A0800044B5A6942F010025A615A6922F00802DE
:101A18005A61704700ED00E0EFF30880EFF30981A9
:101A280001B57246FFF738FF01BD00BF002080F303
:101A38001488BFF36F8F02F0DBFC00200D490860AB
:101A4800BFF34F8F0C4880F3088800F03DF8402022
:101A580080F3118809484FF40461401880F309881D
:101A6800EFF314800221084380F31488BFF36F8FCB
:101A780000F032F994ED00E0001F002080110020F2
:101A8800BFF34F8F0549064BCA6802F4E06213435F
:101A9800CB60BFF34F8F00BFFDE700BF00ED00E054
:101AA8000400FA050749D1F890200023C2F3072261
:101AB8001846934200DB7047C1F89830C1F8A0007F
:101AC8000133F6E700ED00E008B572B6002383F3B2
:101AD8001388FFF7E7FF144B4FF0FF32C3F880205D
:101AE800C3F88420C3F88820C3F88C20C3F890205A
:101AF800C3F89420C3F89820C3F89C20C3F8802129
:101B0800C3F88421C3F88821C3F88C21C3F8902135
:101B1800C3F89421C3F89821C3F89C2162B6BFF397
:101B28004F8FBFF36F8F08BD00E100E0084B9B6843
:101B380083420BD1EFF3058343B1064B5A6842F059
:101B480080525A605A6A22F400425A6205F054BA26
:101B58001C0C002000ED00E0094A93686FF00A01B0
:101B68009967084958674B6843F080534B600023D6
:101B780083F31188BFF36F8F9368986F704700BF26
:101B88001C0C002000ED00E010B50446EFF31183B3
:101B9800402383F31288BFF36F8F0A4B586998600C
:101BA800094B4FF000625A60084B026F1A6000221E
:101BB800436F426783F31188BFF36F8F00F026F9F4
:101BC800204610BD1C0C002000ED00E0C0090020DC
:101BD8000B498A684FF030001044EFF3098C80E815
:101BE800F01F74467046FFF7CFFFA64604498A687F
:101BF80002F1300090E8F01F8CF30988704700006C
:101C08001C0C00201EF0040F0CBFEFF30880EFF34C
:101C18000980816911F8021C0229FFD001B506F07C
:101C280017FA01BD40B2002807DB044A4109012325
:101C380000F01F00834042F82130704700E100E0C7
:101C480040B200280CDB4309064900F01F0020338E
:101C58000122824041F82320BFF34F8FBFF36F8FDB
:101C6800704700BF00E100E0054B420900F01F008B
:101C780053F82220012303FA00F01040704700BFF8
:101C880000E100E008B5D3070BD40231072909D9D0
:101C98000E490F48582206F061F90C48582106F001
:101CA80054F9002140B20028ACBF00F16040094B54
:101CB8004FEA4111B8BF00F00F00C9B2AABF00F542
:101CC8006140195480F8001308BD00BF538C000010
:101CD8007F89000014ED00E008B5084B084A23F09E
:101CE8007F039360BFF34F8FBFF36F8F03F018FD2F
:101CF80005F022FB00F060F803F056FD000000003C
:101D080000ED00E042F8203C009B42F81C3C0A49E8
:101D1800019B42F8183C029B42F8143C21F0010157
:101D28004FF0807342F8043C42F8081C0023203A24
:101D380002654367704700BF9D100000094A0346CB
:101D4800906870B113F1160F006E05D0A0F1400233
:101D58009A4205D8834203D2814228BF00207047A7
:101D6800002070471C0C002008B515460B4A0C4B88
:101D78009060026F1A600E4600F048F82C4686F311
:101D880009884FF00000074B984720464FF00001A4
:101D98004FF000024FF00003034C20471C0C0020BA
:101DA800C0090020938000009D100000014B102204
:101DB8001A61704700ED00E0044800234021C21872
:101DC80001331E2B82F80013F9D1704700E100E0BF
:101DD80008B5EFF30583064A103B02EBC30152F83E
:101DE800330049688847BDE80840FFF791BC00BF49
:101DF80038010020024B034A0348012100F076B85D
:101E0800006000200000002040880000026E054BA2
:101E1800403A1A60044A4021C3E9011218460121D8
:101E280000F080B8C409002000000B15084AC2F869
:101E380098000B6823F01F03034343F01003C2F814
:101E48009C308B6843F00103C2F8A030704700BF94
:101E580000ED00E02DE9F043DFF8608085B00E4624
:101E68001F4604464FF00009B14523DA6068D8B12F
:101E78003FB1411E08421BD11F2819D923681942B6
:101E880016D12368019306F023F9A368034303934B
:101E9800D8F89050C5F30725D0B2013DA84207D81D
:101EA80001A9FFF7C3FF421C09F101090C34DBE764
:101EB8006FF01502104605B0BDE8F08300ED00E0B4
:101EC800044B0522C3F89420BFF34F8FBFF36F8FE5
:101ED800704700BF00ED00E0BFF35F8F024B0022A8
:101EE800C3F89420704700BF00ED00E010B50A4C1D
:101EF80001232278FFF7AEFF207016300AD1074978
:101F080007484FF4B47206F029F804484FF4B47146
:101F180006F01BF810BD00BFB90E00208A8C000027
:101F28007F89000008B5114A00231278FFF792FF55
:101F380010F1160F08D00E4A0021D2F89030C3F3E2
:101F4800072398420BDB08BD0A490B4840F2871269
:101F580006F004F8074840F2871105F0F6FFC2F8CA
:101F68009800C2F8A0100130E7E700BFB90E0020C2
:101F780000ED00E08A8C00007F8900002DE9F04F19
:101F88006D4B6E4CD3F890302568C3F307239D4200
:101F980085B00AD96A496B4840F29F1205F0DEFF06
:101FA80040F29F11664805F0D0FFFFF795FF00202B
:101FB8000C26854229D1644C644F25706846FFF78A
:101FC8003DFBDFF87481DFF8889106460025AE42B4
:101FD80022D1237858490020D1F89020C2F3072253
:101FE8009342C0F29E80FFF76BFFD1F89030C3F3A5
:101FF8000723082B00F09B805149524840F20F22DA
:1020080005F0ACFF40F20F21CCE7616806FB001138
:10201800FFF70CFF0130CCE7009A02EB051329010A
:10202800D3F80CA00AEA0700B0F5000F5CD00AD874
:10203800B0F5001F36D0B0F5800F48D0B0F5801F3E
:1020480012D00135C3E7B0F1807F58D0B0F1007FDE
:10205800F7D19868D3F804A0525806F039F8CDE9BA
:1020680001A240F480200BE09868D3F804A05258ED
:1020780006F02EF8CDE901A240F0885040F4302057
:102088000390D8F890302078C3F30723013B984297
:1020980040D92B492B4840F2C91205F05FFF40F2A6
:1020A800C9117FE79868D3F804B0525806F010F8C1
:1020B8001AF0010F40EA0900CDE901B20390E0D01F
:1020C8001F4920486D2205F049FF6D216AE798688D
:1020D800D3F804A0525805F0FBFF40F0E060CDE9CA
:1020E80001A240F40030CBE79868D3F804A0525816
:1020F80005F0EEFFCDE901A240F08270C0E79868D4
:10210800D3F804A0525805F0E3FFCDE901A240F04E
:102118008870B5E701A9FFF789FE2378013323709A
:102128008FE7C1F89830C1F8A000013354E70020C8
:1021380005B0BDE8F08F00BF00ED00E04C8800005E
:102148008A8C00007F890000B90E00200000F0FF93
:102158000000081108B50649064821F00701C1F139
:10216800005202F5C042FEF705FF002008BD00BF7F
:1021780087230020D009002020B1034B800143F0C1
:1021880001031847704700BF30880000F7B50646BE
:102198000D461446194F384606F048F940B9184913
:1021A8001848142205F0DAFE1548142105F0CDFE72
:1021B800AAB2BB681B683BB9134912485B2205F0F9
:1021C800CDFE11485B21F1E7314638469847002893
:1021D80002DB002003B0F0BD002CFBD1AC42F8D2EA
:1021E8002F1B042F28BF042706F001F83A46019058
:1021F80001A9301906F0EFF93C44EFE74C870000DD
:10220800C88C00007F890000018D000037B50C469E
:102218000A490B4A411A40230093491105462346AF
:10222800084805F06AFF011E05DA2846234603B070
:10223800BDE83040184703B030BD00BFF0090020AA
:102248006D81000024870000C9B2012908B508D9AA
:10225800084909487A2205F081FE06487A2105F0E6
:1022680074FE03690C2201FB0233986C00F007002E
:1022780008BD00BF358D00007F89000070B5C9B268
:10228800012903690AD91849184840F25D1205F076
:1022980065FE154840F25D1105F057FEEFF3118514
:1022A800402484F31288BFF36F8F0C2606FB013499
:1022B800A46C14F0C00408D0A24206D085F311889B
:1022C800BFF36F8F4FF0FF3070BD06FB0133012263
:1022D8009A6485F31188BFF36F8F436803EBC103DA
:1022E8005B6898470020EFE7358D00007F89000084
:1022F80070B50D460649411A044649110548402261
:10230800FFF7BCFF2B4601462046BDE87040184742
:10231800F009002024870000002270B5012104463E
:102328001046FFF7AFFC114802F054FA104B9842E0
:1023380018D1206900F014FA02F05EFA26690D49F6
:10234800304605F05AFE00280BDB0125B5642469E8
:10235800084904F1200005F050FE002801DB6565FE
:10236800002070BD6FF00400FBE700BF35240000BB
:102378000000AD0B6C8800001FB500220123CDE9D9
:102388000223094ACDF800D06B46CDF804D005F0F9
:10239800E2FE002805DB4FF480420023684603F084
:1023A800FDFB05B05DF804FB7F81000010B5EFF37D
:1023B8001184402383F31288BFF36F8F074A136891
:1023C80023F00201DB07116002D4012002F0A2FA17
:1023D80084F31188BFF36F8F10BD00BF480A002037
:1023E80030B4104B0C2202FB003301460020D3E925
:1023F80010521864EFF31180402484F31288BFF35D
:102408006F8F9C6C04F0C00444F002049C6480F359
:102418001188BFF36F8F1DB12B46034830BC184796
:1024280030BC7047F009002024870000012810B54F
:1024380004460AD004280CD078B90E4B9B6C5B0775
:1024480016D1BDE81040FFF7CBBF00F097F9204642
:10245800F7E7BDE8104000F09FB90749074840F288
:10246800722205F07BFD044840F2722105F06DFDF3
:1024780010BD00BFF0090020358D00007F890000E5
:1024880010B4EFF31182402383F31288BFF36F8FE8
:102498001748016841F002040460C80707D482F3B2
:1024A8001188BFF36F8F012010BC02F0C9B94FF03B
:1024B8008041D1F80C04D1F80C14C907EFD5EFF31B
:1024C800118083F31288BFF36F8F0A498B6C03F076
:1024D800C00343F002038B6480F31188BFF36F8F4E
:1024E80082F31188BFF36F8F002010BCFFF778BF0D
:1024F800480A0020F0090020024BC0B203EB40104C
:10250800704700BFF0090020F8B53349BFF35B8F6F
:102518000646012251E8003F41E800200028F9D191
:10252800BFF35B8F9BB92D492D484B60CB608A6008
:10253800FEF78EFF00280ADA2A492B484FF40C725E
:1025480005F00CFD4FF40C71264805F0FEFC06B3AF
:10255800731E012B37D805F0DDFF0446D0B9234B95
:102568001B78BBB14FF080430222C3F8082305460D
:102578004FF08047D7F81824D7F81834D20312D56B
:102588009B0701D0012E0ED1BCB185F31188BFF392
:102598006F8FF8BDEFF31185402383F31288BFF3E3
:1025A8006F8F0124E4E71CB1284605F082FDE1E7BE
:1025B8000021212004F0ECFCDCE74FF080430222EC
:1025C800C3F80423E5E70749074840F2422205F02B
:1025D800C5FC40F24221B7E7EC090020DC090020E5
:1025E800100A0020358D00007F890000601100204E
:1025F80008B5134BBFF35B8F012253E8001F002976
:1026080003D143E800200028F7D1BFF35B8F15D131
:102618000C490023CB600C4B4B6003238B600B4BA6
:102628001868FEF715FF002808DA094909484D22FD
:1026380005F094FC06484D2105F087FC08BD00BF55
:10264800680A0020500A00203D2700004C0A00209C
:10265800818D00007F89000007B500220023CDE9A5
:1026680000230D484FF40032002305F02BF90B4BE3
:102678001868FEF771FF002808DA09490948552249
:1026880005F06CFC0648552105F05FFC064B00225E
:102698001A6003B05DF804FB300200204C0A0020E9
:1026A800818D00007F890000680A0020F7B51C4E64
:1026B8001C4CB7681C4DFB683C213046984740B11C
:1026C800002323702B8002F03FF90123237003B00D
:1026D800F0BD0C213B696A46304698470028EFD187
:1026E800124A019B93FBF2F3009A217803EB8203D1
:1026F8001BB2B5F900200029E4D09A1A002AB8BF05
:10270800524212B2012ADDDC094A13680139013349
:102718002170136003B0BDE8F040FFF79DBF00BF14
:1027280060870000BA0E00206E0C002090D00300D5
:10273800600A002008B5074805F078FE28B902F0BD
:1027480003F9054B01221A7008BDBDE8084003488B
:1027580003F05EBC60870000BA0E00207C000020F9
:10276800034B044A186000231360034A1360704740
:102778004C0A0020640A0020600A0020024B002254
:102788001A70FFF735BF00BFBA0E0020014805F0E8
:1027980006BF00BF30020020024A136801331360ED
:1027A800FFF75ABF640A0020EFF31182402383F336
:1027B8001288BFF36F8F0A4BD3F8001161B1002163
:1027C800D3F80805C3F80011D3F80031C0B282F37A
:1027D8001188BFF36F8F70476FF00A00F7E700BFEB
:1027E80000D00040F0B5034610469C7893F803C02B
:1027F800EFF31182402585F31288BFF36F8F1F789E
:1028080093F801E0E41B04EA0C04A04288BFA0B2DC
:102818003E180CEA06063D461E7082F31188BFF387
:102828006F8F0A188A4216D177450CD1EFF31182BF
:10283800402181F31288BFF36F8F1978597082F3A2
:102848001188BFF36F8F1B79241AA34222BF064B4E
:1028580001221A60F0BD5E190135767901F8016B25
:1028680005EA0C05DEE700BF00D000402DE9F0477F
:102878002D4D0069A8420E4614460AD02B492C4813
:1028880040F2031205F06AFB284840F2031105F0F4
:102898005CFBDB4313F0010504D02030FFF7A2FFF7
:1028A800BDE8F0879AB3EFF31188402383F31288C9
:1028B800BFF36F8F0D20FFF7D7F907460D20FFF7FD
:1028C800BFF988F31188BFF36F8FDFF868A0DFF8CE
:1028D8006880CAF80051DAF800314FF40059012332
:1028E800CAF800302546C8F88091DAF8003183B17B
:1028F800FFF75AFF031EC8F88091F6DB013DADB221
:102908007355002DF1D117B10D20FFF78BF9204633
:10291800C6E7EFF31180402383F31288BFF36F8F6C
:1029280005F0C7FBE1E700BF6C0A0020C28D00007C
:102938007F89000000D0004000E100E02DE9F0416F
:10294800184B07699F420D46144605D107F1350813
:102958005CB92046BDE8F08113491448E52205F02A
:10296800FDFA1148E52105F0F0FA4FF0FF334FF07A
:10297800FF32384603F012F9224629464046FFF74F
:1029880031FF0646384603F0C3F83EB94FF0FF3230
:102998004FF0FF33064803F001F9E6E7A41BA4B2A1
:1029A8003544D5E76C0A0020C28D00007F890000FD
:1029B8007C0A002038B51F4B04699C420AD01E4986
:1029C8001E4840F2471205F0C9FA1B4840F2471169
:1029D80005F0BBFA01221146204605F05EFD0122F2
:1029E800002104F1100005F058FD40F20743238749
:1029F8004FF0706323620C2384F824300025104BB9
:102A080084F83550E586D3F8042522F00102C3F88E
:102A180004250121C3F80051D3F80021C3F8041399
:102A28002A4619600D20FFF72DF90D20FFF7FAF857
:102A3800284638BD6C0A0020C28D00007F8900003E
:102A480000D0004010B5FFF7AFFE002820DB174B81
:102A580093F8222093F8214093F82310141B31EAAD
:102A68000404C0B20DD193F8372093F8364093F898
:102A78003810141B31EA04040BD10D4B01225A60A3
:102A88000EE09C180132114084F8250083F82210CA
:102A980010BD9C180132114084F83A0083F83710B1
:102AA8000448BDE8104003F033B800BF6C0A0020AA
:102AB80000D000407C0A002010B5036941B91C49C8
:102AC8001C483E2205F04AFA3E21194805F03DFA15
:102AD800486830B9164917483F2205F03FFA3F21A8
:102AE800F3E75868F8B1884219D19C6808685860BB
:102AF800A14200D19860002008602AB15A680A6093
:102B08009A68596002B99960002010E0814206D1A4
:102B18000868206098688142EDD19C60EBE7044624
:102B280000680028F2D1002AE8D16FF0150010BD26
:102B3800048E00007F89000038B545682B69B3B161
:102B48001035284602F048FA044680B9014628465E
:102B580002F008FA084B98420BD108492246284649
:102B680002F0D4F9224605210620FFF78BF8002051
:102B780038BD6FF00400FBE70000AD0BA52C00008A
:102B880008B50268530904D14FF0FF33D340DB077F
:102B98000AD4074907484FF46C7205F0DFF9044876
:102BA8004FF46C7105F0D1F94FF0A04008BD00BF9B
:102BB8004C8900007F890000F0B54068057B01F072
:102BC8001F0444EA4514056987B0002D5BD0B2F5AF
:102BD800001F00F1100506D12146284605F0CBFB61
:102BE800002007B0F0BD01AE0027B2F5800F0197B5
:102BF800776033D1B3F1007F14BF052304238DF828
:102C080004300023CDE9046303938368CB40D907DC
:102C180016D4B2F1A07F13D168460094FFF7B0FF35
:102C280004F5E07350F82330DB0709D46A462146DF
:102C3800284602F071F9174B98421AD0CDF808D0FF
:102C480003AA2146284602F037F8134B98421DD1B3
:102C580001222146284602F0D5F9C1E7B3F1C06F39
:102C680005D0B3F1007F14BF01230223C7E7032374
:102C7800C5E76946284602F0BFF9074B9842DDD000
:102C88006FF00B00ADE76FF08500AAE76FF0150055
:102C9800A7E700BF0400AD0B0000AD0B430970B5FA
:102CA80007D1104B596821B101250C680E4E85409B
:102CB80001B970BD8A682A400CD04B6843B90B49EA
:102CC8000B48612205F04AF90848612105F03DF9F1
:102CD800304698471CB1236821461C46E8E723463E
:102CE800FAE700BFB00A002038870000048E000011
:102CF8007F8900002DE9F043466840F20635337BB2
:102D0800D00687B001F01F0702EA050547EA431716
:102D180054BFC2F340130323B5F5837F14468DF8DF
:102D2800033044D00FD8062D18D007D8B5B1022DDE
:102D38003FD06FF0150007B0BDE8F083B5F5807F90
:102D4800F7D101250AE040F20222954233D0B5F5C9
:102D5800407F32D0B5F5007FEBD102250123220355
:102D680003FA01F12BD57368C3F80815336963BBFF
:102D780003A80397FFF704FF84F4803300EB870070
:102D8800C3F30043C4F34044D0F8002744EA4304A3
:102D98009DF8033022F4E16244EA830422F007023A
:102DA80044EA05231343C0F800370020C3E707258A
:102DB800D4E70425D2E70525D0E70325CEE763034A
:102DC80044BF7368C3F80C15D0E710360DF1020242
:102DD8003946304602F0A0F814F4403F804616D138
:102DE8003946304605F0C5FA234B9845DDD19DF8A4
:102DF8000210304602F0FAF84045D6D01F49204864
:102E0800EC2205F0ABF81D48EC2105F09EF801AB6B
:102E18004FF0000903AA39463046CDE90439CDE917
:102E28000199CDF80C9001F047FF134B984280D1DF
:102E380014F4003315D09DF803308DF80E3084F467
:102E48008034C4F300444B4603AA394630468DF813
:102E58000C508DF80D4001F0DDFF074B9842C3D0B0
:102E680067E7CDE9043303AA0DF103033946304679
:102E7800039301F021FFF0E70000AD0B408E000046
:102E88007F890000014B01221A60704700C0004092
:102E98000C2903690BD15B6A064907484B4393FB2E
:102EA800F0F100FB113311605360002070476FF0A0
:102EB8008500704790D0030040420F00044B006922
:102EC8000022C3F80021D3F8003102F021BE00BF70
:102ED80000C000407FB50569AB6A002B40D03C2993
:102EE80001D00C293FD105F110064FF0FF324FF009
:102EF800FF33304602F0E4FC1C4B0193002403230B
:102F0800A86A039469460293FEF7A2FAA04208DA77
:102F1800174918483D2205F021F83D21144805F0CD
:102F280014F84FF0FF324FF0FF33284602F036FE18
:102F3800A86AFEF711FB002806DA0D490D4842225F
:102F480005F00CF84221E9E70B4BD3F808256A6233
:102F580001225A60304602F069FD204604B070BD77
:102F68006FF00A00FAE76FF08500F7E78D2E000092
:102F78007A8E00007F89000000C0004010B5046907
:102F88000020FFF7B9FAA06240B91049104877222B
:102F980004F0E4FF0D48772104F0D7FF4FF0FF322B
:102FA8000021204605F079FA04F1100005F06EFAC8
:102FB800002201210C20FEF765FE0C20FEF732FEF0
:102FC800044B0122C3F80423002010BD7A8E0000B0
:102FD8007F89000000C0004070B40E49D1E9003478
:102FE800D01AC31844F1000422F07F46C1E9003426
:102FF800A6F50013B3F5400F09D2074B1B681A0A50
:103008001B069C19054B42F10005C3E9004570BC3D
:1030180004F0DABA50070020F00A00205807002010
:103028000D4B1868010A0006BFF35F8F0B4BD3F8EE
:103038000435181841F10001B3F5801F0AD2084B76
:10304800D3E90023904271EB030303D210F180709F
:1030580041F10001704700BFF00A00200010014054
:10306800580700202DE9F7432B4CD4F8043399076F
:103078000BD5D4F8043143B1284A0023C4F80431ED
:10308800D4F80431136801331360D4F80433DA0335
:1030980023D5BFF35B8F224B53E8002F22F00101A9
:1030A80043E800100028F7D1BFF35B8FD30702D4A1
:1030B800D4F840318BB10025C4F84051D4F84031E0
:1030C800FFF7AEFFEFF3108272B6164BD3E9026733
:1030D800B042B94104D282F3108803B0BDE8F0834E
:1030E8004FF0FF384FF0FF39C3E90289D3E90010E8
:1030F8001D604FF48033C4F84833C4F84051D4F805
:10310800403182F310880029E7D0009032463B46D0
:1031180028468847E1E700BF00100140F00A002078
:10312800E80A0020400700202DE9F84F4B4DBFF377
:103138005B8F06460F4655E8008F28F0010345E8E7
:103148000032002AF7D1BFF35B8F454C4FF480392A
:10315800C4F80893BFF35F8FBFF36F8FFFF760FF6B
:10316800B04271EB070308F0010840D23D4B301A1A
:1031780067EB0101984271F100014CD23A4BD3E957
:1031880002239F4208BF96423ED04FF0000CC4F87D
:103198004893C4F840C126F07F40D4F84031DFF8A6
:1031A800CCA0834603216FF0020E2BF07F43C4F8B6
:1031B8004035C4F84493D4F80425AEEB02035B44CD
:1031C80023F07F4353451FD9D4F840315BB1D4F87D
:1031D8000425131A23F07F43B3F5000F14D9C4F85C
:1031E80040C1D4F8403101EB020B0131DDE7204B3F
:1031F800BFF35B8F53E8001F41F0010143E8001261
:10320800002AF7D1BFF35B8F174B1A4A1A60C3E93C
:10321800026700225A60B8F1000F1CD0BFF35B8F21
:1032280055E8003F43F0010345E80032002AF7D192
:10323800BFF35B8F4FF48033C4F804330C4BBFF3F8
:103248005B8F1B68BFF35B8FDB0742BF0A4B4FF4F2
:103258000032C3F80021BDE8F88F00BFEC0A002057
:10326800001001400100800040070020FDFF7F00A2
:10327800E80A0020E12F000000E100E070B5194CD9
:10328800194BC4F80833C4F84833184B00254FF0DD
:10329800FF304FF0FF31C4F80855C3E902014FF47D
:1032A8008033C4F80433124B02264FF40032C4F8BA
:1032B80004630121C3F8802111202A46FEF7E2FCAD
:1032C8001120FEF7AFFC01230A4AA3600021236006
:1032D80009481360FFF728FF3046FFF715F928461D
:1032E80070BD00BF0010014003000F004007002020
:1032F80000E100E0EC0A0020FFFF7F00431C10B54E
:103308000F4C05D08442A8BF0446012CB8BF012445
:10331800FFF786FE0B4AD2E90031C01AB0F5000F5C
:10332800074A0AD22044904228BF1046C018BDE878
:10333800104041F10001FFF7F7BE1046F6E700BF65
:10334800FFFF7F005007002008B5FFF769FE024B1A
:103358001B68C01A08BD00BF500700200B4B0C4A61
:103368001B7AC2F81035042B0DD8DFE803F00803E8
:103378000C080300074BA0221A6001207047054B78
:103388004FF49672F8E70020704700BFE80B002062
:1033980000100040FC0A0020044A0023C2E9083358
:1033A8009362034AC2E9083393627047B40B002062
:1033B800880B0020054B1B68D3F80423920342BFF7
:1033C8000022C3F84421D3F844317047BC000020E0
:1033D80010B5FCF77FFE0C4C0C490D48FCF774FE49
:1033E80040F21713C4F800320A4A0B4B507C1B6892
:1033F80098470A4BC4F80435094B0A4A1A600A4B25
:1034080004221A7010BD00BF001000408C0000207C
:103418001C890000E80B0020F40A0020131100208A
:10342800F80A0020D13800005711002008B5084BD1
:103438001B6801221A61FCF753FEFCF74BFE00F0F3
:10344800F3FD0320FCF752FEBDE80840FCF730BE50
:10345800BC00002008B507490748FCF735FE38B915
:1034680000F0C6FD054B1B6840F20442C3F8002279
:1034780008BD00BF8C0000201C890000BC00002093
:1034880038B51C4B1C4C1B6801251D6100F0CCFD98
:10349800FCF726FEFCF70CFE00221146284600F039
:1034A80045FE40F21313C4F80032144A144B507C02
:1034B8001B689847134BC4F804350023C4F810312F
:1034C800D4F810312561D4F81031002BFBD000223C
:1034D800C4F81021D4F8103140F21713C4F80032A0
:1034E8001146012000F0B6FDFFF7B4FF064B01229C
:1034F8009A6138BDBC00002000100040E80B002095
:10350800F40A002013110020004001402DE9F8437F
:10351800224BDFF88C801A78012A81460F4630D179
:1035280098F80030C3F3050203F03F03202B33D88B
:103538001C4B196A53F821301A701A4D1A492C6A13
:1035480055F824603046013410F8052B05F043F88F
:10355800164B86F80190D3F84835377103F07F038E
:10356800B37098F80130DB4303F00103F370AB6AE2
:10357800082C28BF002401332C62AB620120BDE86F
:10358800F883084A116A52F82120597809B911704C
:10359800D3E75B7C1370D0E70020F0E7E80B00204E
:1035A80013110020880B0020151100200010004086
:1035B80007B5114B1148DA7C90F90A00002302F58F
:1035C800166201A9FCF79EFD9DF80500FCF794FD25
:1035D80050B10B490B484FF4477204F0BFFC084840
:1035E8004FF4477104F0B1FC9DF80420064BC3F872
:1035F8000C2503B05DF804FBA4000020E80B0020B4
:10360800C28E00007F890000001000408378427855
:103618001B0443EA022302781343C27843EA0253A5
:10362800027943EA8253427943EA0263827943EAA0
:103638008263C27943EA4273094AC2F81435837A2D
:10364800417A1B0443EA0123017A0B43C17A43EA16
:103658000163017B43EA4163C2F81835704700BF34
:10366800001000401FB504460D220021684604F0F2
:10367800C0FF0A4B00930A4B5B7CE0B2013B8DF81C
:1036880008008DF809008DF80A30684601238DF886
:103698000B30FFF7BBFF04B010BD00BF00010100F5
:1036A800A40000201FB50023CDF80930CDF8013063
:1036B800CDF8053003238DF8023006238DF800304D
:1036C8000C4B5B7C013B8DF80A3020238DF80830C9
:1036D800094B1B7A012293428DF80B2007D18DF8F4
:1036E80005206846FFF792FF05B05DF804FB042B40
:1036F800F5D0F6E7A4000020E80B0020684620F08B
:1037080007018D4619B5144BD3F80423D2060BD5FF
:10371800D3F8102142B10022C3F81021D3F8103198
:103728000E4B1B6803B198470B4CD4F804331B07A6
:103738000BD5D4F80C3143B1084B1B6803B198473B
:103748000023C4F80C31D4F80C31FDF7E1FFBDE8D3
:1037580019408546704700BF00100040F80A002055
:10376800684620F007018D4631B5194B82B01B68B9
:103778000193EFF31181402383F31288BFF36F8F16
:10378800144B00221D681A6081F31188BFF36F8FF4
:10379800114C2368ABB1E90703D58DF800206846C2
:1037A8009847AA0705D501238DF800306846236895
:1037B80098476B0705D502238DF8003068462368C3
:1037C8009847FDF7A5FF02B0BDE831408546704730
:1037D800000B0020040B0020E40B00200146C80762
:1037E80008B506D5314804F00AFD314B00BAC3F8D4
:1037F8001C058A0706D52F4804F001FD2C4B00BA9A
:10380800C3F820054B070AD52B48294904F0F7FCD3
:10381800C1F82405294804F0F2FCC1F828054FF046
:103828008053D3F83021082A3ED1D3F83431052B00
:103838003AD8234AD35CBBB31C4B224A5B7C052B8A
:103848001B4BD3F81C15D3F8200518BF4FF07F4247
:103858004140114228D1D3F82415D3F82825C1F3C3
:103868000720CBB2834214D0C1F30740834210D063
:10387800B3EB116F0DD0D1B28B420AD0C2F307213E
:103888008B4206D0C2F307418B4202D0B3EB126FD2
:103898000AD1074AD2F8743723F0807323F0010362
:1038A80043F08073C2F8743708BD00BFA40000203D
:1038B80000100040A8000020AC000020B00000204C
:1038C800E38E00000000FFFF2DE9F84F7B4AD2F895
:1038D800007417F0010703D1BDE8F84FFFF7D0BD1A
:1038E800DFF8DCA1DAF82830072BF5D8D2F808344D
:1038F800744DDFF8D491D2F80C4499F80120DBB26A
:10390800C2F3410135F8230084424FEA830640F0B0
:10391800AB80A8198078814240F0A680B84600277D
:10392800AA196A4C9170654AD2F80C2425F823200C
:10393800A37C23B199F80130DB0740F1BC80FCF788
:10394800CFFB63496348FCF7B9FB5C4B40F21B12A1
:10395800C3F8002294F800B05F4CBBF1000F00F0F0
:103968009B80BBF1010F55D1DFF870C1D3F8081463
:10397800DCF82830002B00F085805948C9B250F88F
:103988002120002A7ED0DFF85CB1D2F800E0CBF825
:1039980000E005EB060E9EF803E0BEF1000F17D01D
:1039A800B8F1000F14D182F8048050F82120013BAF
:1039B800926840F82120CCF82830002B57D002B16B
:1039C8001268CBF80020484A136843F001031360DB
:1039D800464BDBF800801A68AB19B8F1000F48D0E5
:1039E8000121D97098F800009047DBF8001023787F
:1039F8000A783F4862F30503237011F8052B04F099
:103A0800EAFD637899F8012023F0070302F0070222
:103A180013436370374B05221A70FFF7C9FD274B14
:103A2800D3F80824D2B2C3F82C25C3F80445324B86
:103A3800324A1A60B7B1214BD3F80804DAF82830B3
:103A48003544072BA9780DD8C0B2FFF75FFD48B100
:103A5800254A136843F004031360294B4FF480127E
:103A6800C3F80021BDE8F88F4FF0000858E7424638
:103A7800A7E783F8038040469047237868F3050357
:103A88002370BEE7AB194FF0000883F80380174B8B
:103A980040461B689847F0E7144B58461B68984700
:103AA80099F80030227884F801B0C3F3010363F376
:103AB80001022270AEE7FFF7E3FCBBE7001000400D
:103AC800880B0020700C002013110020E80B002048
:103AD8008C0000200489000035110020B40B002060
:103AE800080B0020E00B0020040B0020F40A002043
:103AF8003711002057110020F80A0020D9330000A0
:103B080000E100E010B500F0B3FBFFF78FFC1348AD
:103B180001F090FC00F0D6FB114A1248D2F850365A
:103B280023F00103C2F850360F4B00241C700F4BD2
:103B380021461C70FFF730FC202204F05AFD0C4B84
:103B480001201C605C60FEF77BF81420FEF778F813
:103B5800BDE810400A20FEF773B800BFBC00002083
:103B680000100040700C0020571100205811002050
:103B78000B110020F0B5044685B0002800F0C58080
:103B8800634D2B780BB1FFF7BDFF624B62681A607B
:103B9800614A234604F11007164618685968144606
:103BA80003C40833BB422246F7D1186820605B4B38
:103BB8005B480024202221461C6004F01AFD594B62
:103BC80059491C605C60FFF7C9FB337883B1012B4E
:103BD80001D1564B0B60727A554B012A00F0888050
:103BE800022A07D07AB9C3F83C25C3F8342508E07F
:103BF800504BEFE74FF6FF70C3F83C05C3F8342588
:103C08004D4AC3F838250B68707C9847484B4B4998
:103C18004B484FF0E732C3F81C254FF04332C3F846
:103C28002025484AC3F82425474AC3F82825FFF722
:103C3800B3FB0A4600230133082B40F8042B02F19A
:103C48002502F8D1414A424800230133082B40F8A5
:103C5800042B02F12502F8D100223E4B1446013212
:103C6800082A19601C719C6001F1250103F10C03FD
:103C7800F5D120220021384804F0BBFC374B384AE4
:103C88003848019301A9CDE9024401F04FFB364BB6
:103C9800984235D100F0A8FA044698BB00F0E4FA3F
:103CA800324B23495860D1F85026F37C22F00102A8
:103CB8001343C1F85036012108462246FDF7E2FFBA
:103CC800224602211420FDF7DDFF224602210A20A8
:103CD800FDF7D8FF0120FDF7A5FF1420FDF7A2FF8F
:103CE8000A20FDF79FFF224B1C7001232B7009E06F
:103CF800FF20C3F83C05C3F8342540F2071280E7DB
:103D08006FF00D04204605B0F0BD6FF01504F9E71B
:103D180058110020E40B0020E80B0020040B0020C1
:103D2800700C00200B110020F40A0020AD360000B2
:103D3800001000406D36000021100100E30F002044
:103D4800B40B0020E743C323A363E313BB0E002097
:103D5800880B0020280B0020080B002040420F0091
:103D6800BD330000BC0000200000AD0B8C0000201B
:103D78005711002038B5254B1B78002B3CD0002864
:103D88003DD0234CA36A002B3CD0EFF31185402390
:103D980083F31288BFF36F8F636A54F823301A785D
:103DA8000270636A54F823305B784370636A54F88E
:103DB800233093F902308370636A54F823301B79F7
:103DC8000371636A54F82330DB78C370636A54F86C
:103DD80023100530053104F0FEFB636A0133082B1C
:103DE80028BF00236362A36A013BA36285F311889D
:103DF800BFF36F8F002038BD6FF00C00FBE76FF04A
:103E08001500F8E76FF03C00F5E700BF58110020F7
:103E1800880B002038B5334B1A7802F0FF05002ACA
:103E28005DD1314C31494FF0FF32C4F80823C4F852
:103E38001051D4F810212E4A116040F21712C4F81C
:103E480000221022C4F8042304221A70294B9A7CF9
:103E5800C4F83025DA7C40F6C41102F516628A42AD
:103E68000AD92549254840F2F26204F077F8224839
:103E780040F2F26104F069F8A2F51662C4F8082568
:103E88001433BFF35B8F53E8001F21F0010143E8AF
:103E98000012002AF7D1BFF35B8F194BC4F8043521
:103EA800184B0222C3F880210120FDF7BBFEC4F89D
:103EB8000451D4F80431C4F80851D4F80831C4F8CE
:103EC80010512A4601202946D4F8103100F0C2F8D2
:103ED800FFF7C0FA0C4B01229A61284638BD6FF0F3
:103EE8000F00FBE75711002000100040D1380000F8
:103EF800F80A0020A4000020268A00007F8900001C
:103F08001311002000E100E00040014010B50A4B09
:103F18001B7803F0FF0443B950B1084B02681A60DC
:103F28000120FFF75BFC204610BD6FF00F00FBE798
:103F38006FF01500F8E700BF57110020A40000201B
:103F480010B50A4B1B7803F0FF0443B950B1084B76
:103F580002685A600220FFF741FC204610BD6FF04E
:103F68000F00FBE76FF01500F8E700BF57110020BE
:103F7800A400002038B5104B1B780C4603F0FF0551
:103F88009BB9A8B1082913D80A4601460B4804F082
:103F980022FB0B4AFF231474C4F1080423410420B4
:103FA8009374FFF71BFC284638BD6FF00F00FBE742
:103FB8006FF01500F8E700BF57110020AC00002093
:103FC800A40000206428034607D8074A127802F0A4
:103FD800FF002AB9054AD37470476FF0150070477F
:103FE8006FF00F00704700BF57110020A400002099
:103FF800094B0A491A78D30003F1804303F5F833D3
:10400800C3F810150649C3F8141501239340054A4F
:10401800C2F80435704700BF5B1100201841014009
:1040280000A0004000F00140084B09491B7801221C
:104038009A40DB0003F1804303F5F833C1F8082503
:104048000022C3F81025C3F8142570475B1100201F
:1040580000F00140F0B52B4B2B4C1B782B4FDA00AE
:1040680014442B4A0025C2F81851D2F81821294ABD
:1040780015788000EA00C0B202F1804202F5F832F9
:1040880000F1804000F58050C2F81075C2F81405A0
:10409800214A05F5117042F82040204A2048167838
:1040A800F20002F1804202F5F8320124C2F810054C
:1040B80000F5973000F58470C2F8140504FA06F686
:1040C80004FA05F0304369B1164A174E1178CA0050
:1040D80002F1804202F5F8328C40C2F81075204394
:1040E800C2F814659B0003F1804303F5F8330122FD
:1040F800D3F80018AA400A43C3F80028064BC3F8AF
:104108000405F0BD5911002004F001401841014098
:10411800004001405C11002000F001405A110020CD
:10412800101100405B11002000A00040F0B5294BA1
:10413800294E1878294B1A78012404FA02F304FA54
:1041480000F51D4300F51177C3004FEAC20C19BBF7
:1041580003F1804303F5F833C6F80855C3F8101582
:10416800C3F8141546F827100CF1804303F5F8330B
:10417800C3F81015C3F81415194B1B789B0003F1ED
:10418800804303F5F8330121D3F80028814022EA5F
:104198000102C3F80028F0BD124A127803F18043E7
:1041A80003F5F833944000212C43C6F80845C3F8BA
:1041B8001015C3F814150CF1804303F5F83346F8CD
:1041C8002710C3F81015C3F81415D30003F1804362
:1041D800CCE700BF5C11002000F001405A1100201C
:1041E800591100205B11002038B5174801F02EF84E
:1041F800164B9842054622D1154801F027F8A842E7
:1042080004461CD1134801F021F8A042054616D1F6
:10421800114801F01BF8A842044610D10F4801F0DC
:1042280015F8A04205460AD10D4801F00FF8A8423A
:10423800044604D10B4801F023F8A04202D06FF0E5
:10424800120038BD0020FCE75C1100200000AD0B17
:104258005A1100205B1100205F1100205E11002020
:104268005D110020591100200048704710110040CE
:104278000E4B0F491B780978012202FA01F102FA64
:1042880003F30B430B49097802FA01F10B430A497E
:10429800097802FA01F10B43084909788A40134367
:1042A800074A43F00103C2F8083570475C11002043
:1042B8005E1100205A1100205B1100205F110020C0
:1042C80000F0014038B51E4B187800F0C5FF1D4BB3
:1042D800984205460AD01C491C484FF49C7203F0CA
:1042E8003DFE19484FF49C7103F02FFE184B1878C7
:1042F80000F0B2FFA8420446EDD1164B187800F042
:10430800ABFFA0420546E6D1134B187800F0A4FF96
:10431800A8420446DFD1114B187800F09DFFA04257
:104328000546D8D10E4B187800F096FFA8420446EF
:10433800D1D10C4B187800F0A9FFA042CBD138BDE1
:104348005C1100200000AD0BE98E00007F890000A1
:104358005A1100205B1100205F1100205E1100201F
:104368005D11002059110020BFF34F8F0549064BFE
:10437800CA6802F4E0621343CB60BFF34F8F00BFFB
:10438800FDE700BF00ED00E00400FA054FF08053A0
:10439800D3F83021082A06D1D3F83431052B02D8B6
:1043A800024AD05C70470020704700BF148F00009D
:1043B8004FF08052D2E94C30082B04D1052808D898
:1043C800064B185C70470E2B05D1003818BF01202A
:1043D8007047012070470020704700BF0E8F000013
:1043E800024AD2F80034002BFBD0704700E00140AD
:1043F80010B54FF08053D3F830210E2A01BFD3F8FF
:1044080044324FF08042C3F34233C2F83C3503F0E4
:104418000AFF40B14FF080430022C3F80C21C3F8D3
:104428001021C3F8382503F0FEFE002846D04FF0CF
:104438008052744BD2F80414C3F82015D2F808142B
:10444800C3F82415D2F80C14C3F82815D2F81014A0
:10445800C3F82C15D2F81414C3F83015D2F8181470
:10446800C3F83415D2F81C14C3F84015D2F8201438
:10447800C3F84415D2F82414C3F84815D2F8281400
:10448800C3F84C15D2F82C14C3F85015D2F83014D0
:10449800C3F85415D2F83414C3F86015D2F8381498
:1044A800C3F86415D2F83C14C3F86815D2F8401460
:1044B800C3F86C15D2F84424C3F87025FFF766FFDB
:1044C80018B1514B514AC3F88C26FFF75FFF18B15A
:1044D8004F4BFB22C3F81825FFF758FF70B14FF078
:1044E80080414FF08053D1F8E42ED3F8583222F0AF
:1044F8000F0203F00F031343C1F8E43EFFF746FF32
:1045080020B1444B4FF40072C3F8402603F08BFEF1
:1045180048B14FF08043D3F80024D20744BF6FF06E
:104528000102C3F800244FF08053D3F830310E2B2A
:1045380001BF4FF08042D2F8E43E43F00F03C2F8C7
:10454800E43EFFF735FF38B34FF010214FF08043BA
:10455800D1F80822C3F85825FFF72AFFE0B1D1F8AF
:104568000031013303D0D1F80431013314D12A4882
:1045780001234FF01024C0F804350021FFF730FF65
:10458800C4F80011FFF72CFFC4F80411FFF728FF47
:10459800C0F80415FFF724FF4FF01021D1F80032BE
:1045A800002B03DBD1F80432002B17DA1A49012358
:1045B8004FF01020C1F804351224FFF711FFC0F89E
:1045C8000042FFF70DFFC0F80442FFF709FF002380
:1045D800C1F80435FFF704FFFFF7C6FED1F80C3227
:1045E800DB070DD50C480123C0F804350024FFF77C
:1045F800F7FEC1F80C42FFF7F3FEC0F80445E9E7FF
:1046080010BD00BF00C000400050004048810300BA
:1046180000F000400090024000E0014030B504681E
:10462800CCB1BFF35B8FB4FA84F3C3F11F03DBB2E1
:1046380001229A4024EA020250E8005FA54204D110
:1046480040E8002CBCF1000FF6D1BFF35B8FE6D138
:1046580002480B7030BD0248FCE700BF0000AD0BFC
:104668000200AD0B10B50368CB40DB0714D401235F
:104678008B400268BFF35B8F43EA020150E8004FAA
:10468800944204D140E8001CBCF1000FF6D1BFF3FE
:104698005B8FEED1014810BD0148FCE70000AD0B6F
:1046A8000400AD0B034BD3F8003523FA00F000F0FB
:1046B8000100704700F00140014BC3F80405704742
:1046C80000F00140014BC3F80805704700F00140B5
:1046D800024B00F5117043F82010704700F00140BC
:1046E800034B00F51170002243F82020704700BFEB
:1046F80000F00140F7B54FF08043044650B101285F
:1047080026D031493148DC2203F028FC2E48DC2130
:1047180003F01BFC0222C3F808230122DA60C3F865
:104728000401D3F80431064601238DF8073042F21C
:1047380010754FF08047E4B1012C2FD0244923484D
:104748004FF4747203F00AFC21484FF47471DFE7E8
:104758000022C3F808035860C3F80021D3F80031D9
:104768000DF10706E0E783B1012003F06AFD013D82
:104778000BD0D7F8183403F48033002EF3D0D7F8D1
:10478800182402F003023260A3B903B0F0BD002B75
:10479800FBD0012003F055FD013DF6D0D7F80C34CD
:1047A80003F48033002EF2D0D7F80C2402F0010273
:1047B8003270E9E79DF807000128E6D103F041FDD2
:1047C800013DB8D1E1E700BF1A8F00007F890000E2
:1047D800578F0000054B1A792AB95A7101221860BF
:1047E8001A71034870470348704700BFFC0B00204C
:1047F8000000AD0B0C00AD0B08B50E4B1A7952B981
:104808000D490E484FF4987203F0A8FB0A484FF47C
:10481800987103F09AFB1B682BB10020FDF724FA6E
:1048280008B9FDF7FFF94FF080430022C3F81825B7
:1048380008BD00BFFC0B00201A8F00007F89000014
:1048480038B5314C237953B93049314840F27F1299
:1048580003F084FB40F27F112C4803F076FB50B143
:10486800012846D029492A4840F2C31203F076FBB2
:1048780040F2C311F0E74FF08043D3F81814D3F88F
:104888001824CD031DD5900702D00020FFF732FF72
:104898004FF080430022C3F81825022008224FF465
:1048A800827303F180430021196002F180421D6880
:1048B80001251560226802B34FF08043C3F8040352
:1048C8000CE0D3F81424D107E2D5D3F81C249207BE
:1048D800DBD122681AB10222C3F8042338BDD3F809
:1048E8000421002AFBD00022C3F80421D3F80431A4
:1048F800F4E700224FF48073D3E71A68002AFCD04B
:1049080019601B68EAE700BFFC0B00201A8F000043
:104918007F89000008B5094B1B7953B90849094834
:1049280040F2DD1203F01AFB054840F2DD1103F0F6
:104938000CFBBDE80840FFF7DDBE00BFFC0B002004
:104948001A8F00007F8900004FF08043D3F80C14C1
:10495800D3F80C24C80322D5D10720D5D3F81824BE
:10496800D2031CD5104A517901F0FF00C9B9C3F828
:104978000C01D3F80C11012151711961126822B18F
:104988000822C3F8042309487047D3F80C21002AE9
:10499800FBD00022C3F80C21D3F80C31F3E704480C
:1049A80070470448704700BFFC0B00200000AD0BA7
:1049B8000500AD0B0B00AD0B10B54FF08043D3F8DD
:1049C800002152B10020C3F80001D3F800210122D0
:1049D800C3F80823164B1B6898474FF08043D3F859
:1049E80004215AB10022C3F80421D3F80421022279
:1049F800C3F808230E4B01201B6898474FF08043EB
:104A0800D3F80C2192B1D3F8042312070ED5002253
:104A1800C3F80C21D3F80C110821C3F80813044B70
:104A28005A71BDE810401B680420184710BD00BF2C
:104A3800FC0B002008B502680146104603F01AFC7A
:104A480050B90E490E484FF46C7203F087FA4FF4D0
:104A58006C710A4803F079FA02F01F0352090B60DF
:104A680008D00649064840F2B93203F077FA40F216
:104A7800B931EEE74FF0A04008BD00BF4C890000F7
:104A88007F890000072808B50AD90749074840F276
:104A9800AA3203F063FA044840F2AA3103F055FA47
:104AA800800000F5807008BD8B8F00007F890000B2
:104AB80070B500F108030C4C34F81330DA050546DC
:104AC8000E4607D5C3F3432304EBC30254F833302F
:104AD80052689847A3682BB1E26831462846BDE87A
:104AE8007040184770BD00BFC4000020C0B2034B1F
:104AF800083033F81000C0F340007047C4000020AD
:104B0800C0B2034B083033F81000C0F340107047B0
:104B1800C400002010B5C0B2174A083032F810306F
:104B2800D9051DD5C3F3432123F4F85322F81030D7
:104B380002F10E04002034F8023F13F4807F03D002
:104B4800C3F3432399420BD001302028F3D100232B
:104B58000A4842F83130FFF785FD094B984200D1E9
:104B680010BD084908484FF4DC7203F0F7F905480E
:104B78004FF4DC7103F0E9F9C40000201C010020A7
:104B88000000AD0BC08F00007F8900002DE9F843BD
:104B9800002407460E4625464FF00108A146B542B7
:104BA8000DD1124BD3F87C2132B10022C3F87C21FD
:104BB800D3F87C3144F000442046BDE8F883E8B2DD
:104BC800FFF760FFA0F58072920808FA02F2174218
:104BD80009D000F1804303F5C043196819B1C3F83F
:104BE80000901B6814430135D9E700BF00600040FE
:104BF80010B5044608460A46FFF782FFC0B10846CA
:104C0800FFF774FFA0B9CAB20C4B2168083233F819
:104C180012200123520B9340C1F80833236803EB99
:104C28008203D3F8102522F00302C3F8102510BD23
:104C3800BDE810400021104603F073BBC4000020FB
:104C4800F7B5CDB2184E0835074636F81530DB07EC
:104C58000C4626D5FFF7CCFF2046FFF751FF40B1A1
:104C680036F815303A685B0B03F5A273002142F859
:104C780023102046FFF74EFF002301A826F8153021
:104C88000194FFF7D7FE019B00EB8300074BD0F898
:104C98000027134043F00203C0F80037044803B06C
:104CA800F0BD0448FBE700BFC4000020F0F8FCFF9B
:104CB8000000AD0B0400AD0BF0B50C46116885B0D3
:104CC80007461546E1B1204603F048FB08BB0B46F2
:104CD800CDE900008DF80E008DF80F000DF10F02E0
:104CE8000DF10E01204603F0CFFAE3B2454908332F
:104CF80031F8132022F0020242F0010221F81320B9
:104D08006B685BB320461A785968FFF7EFFE10B15D
:104D1800C9B13D4825E0E6B2DFF8E8C008363CF8FE
:104D2800163023F02003DB04DB0C2CF8163051B1CD
:104D3800032AEED869684968087839689AB900F58D
:104D4800A27041F82020E3B22E48083330F813103F
:104D580021F01C0141EA820220F81320AB683BBB1A
:104D68002A4805B0F0BD01EB800143EA4033D1F891
:104D780010E52EF0030EC1F810E53F6807EB800739
:104D880043F02003D7F810152CF8163021F44731DA
:104D980021F44071C7F810152102D7F810E501F485
:104DA800F85141EA024141EA0E01C7F81015CAE775
:104DB800D3E900672046FFF7ADFE002ED0D0114D95
:104DC800D5E90023964203D19F4201D1002209E090
:104DD8000F480DF10F01FFF721FC0C4B9842C0D191
:104DE8009DF80F2045F83260E4B205EBC2030834A1
:104DF8005F6035F8143043EA422343F4807325F8A2
:104E08001430ADE7C40000200400AD0B0000AD0B6A
:104E18001C0100202DE9FF4107460C461E4632B30F
:104E28000846FFF763FE18B90846FFF769FE20BB7E
:104E3800E5B2DFF8CC80083538F8153013F01C0FD0
:104E480002D05378012B18D001238DF80F3000239E
:104E5800CDE900230DF10F01931C2046013203F028
:104E680013FA38F8153043F0030328F81530002EEC
:104E780043D02046FFF73AFE18B9224804B0BDE8EF
:104E8800F08196F800E03B681D4D0EF5A2720021F6
:104E980043F82210E1B2083135F8112022F020023F
:104EA800D204D20C25F8112096F801C0BCF1000FED
:104EB80023D03868B67800EB8E004FEA0C4CD0F857
:104EC800103523F4981323F4F853C0F8103523024F
:104ED80003F4F8530CF4403C3605D0F8107543EA57
:104EE8000C0306F4801642EA4E32334342F02002A5
:104EF8003B4325F81120C0F810350348BEE700BF32
:104F0800C40000200400AD0B0000AD0B014BC3E949
:104F180002127047C400002008B552B90C490D4868
:104F280040F20D3203F01AF8094840F20D3103F04F
:104F38000CF80846FFF7E4FD40B1C9B2064B074834
:104F4800083133F811305B0B137008BD0448FCE7D7
:104F5800C08F00007F890000C40000200000AD0B56
:104F68000400AD0B2DE9F041184D95F86040064658
:104F78004CBB4022214605F1100003F03AFB36688D
:104F88002F6DA046A7420FD10023C6F87C3146F307
:104F98000730D6F87C31FCF745FE01230C4885F82C
:104FA8006030AB65BDE8F081E0B2FFF76BFDA0F5BE
:104FB80080739B081F2B08BF46F8008004F101048A
:104FC80008BF3358DEE70348ECE700BFC400002001
:104FD8000000AD0B0C00AD0B034B93F860000038DC
:104FE80018BF0120704700BFC40000200148FFF728
:104FF80039BB00BF180100200148FFF70FBB00BFF5
:10500800180100202DE9F341CBB216460833334A84
:1050180032F8132012F01C0F0C460546C2F3820129
:105028000AD12F492F4840F2FA3202F097FF40F296
:10503800FA312B4802F089FF0368D3F804030028EB
:10504800A4BF4FF00040C3F804032046FFF758FD03
:1050580000B32046FFF74AFD0746D8B9540B20464F
:10506800FFF710FDD5F8008048F8007058F80030B8
:105078002B6803EB8403D3F8102542F00102C3F830
:10508800102526B12A680123A340C2F8043302B0D0
:10509800BDE8F08146B91249124840F20E4202F0CA
:1050A8005DFF40F20E41C4E7042912D0052912D051
:1050B80001A80194FFF7BEFC019AD0F81035D3403F
:1050C80003F00103991C204602B0BDE8F04103F04B
:1050D80028B90321F7E70221F5E700BFC400002043
:1050E800C08F00007F8900002DE9F74F554B564FC0
:1050F800D3F80403396DC0B240F00040FFF746FD15
:10510800051E18DA0023F96D0093684603F018F9B4
:105118004FF0010897F85C30DB075BD4396D4FF02E
:105128000040FFF733FDF96D684603F009F90028E0
:10513800F0D125F000450124002D6AD103B0BDE867
:10514800F08F94FAA4F4B4FA84F4E10804F10803A3
:1051580004F0070237F813901DF80130019408FA9B
:1051680002F223EA020301A80DF80130FFF762FCFE
:10517800019B03F5E0734FEA990B50F82360C9F3DC
:10518800820A1BF0040FD146C6F3014626D05146C9
:105198002046FFF78DFC01A80194FFF74BFC019B0B
:1051A80003F5E073F6B250F82330C3F301439E428F
:1051B80007D10021204603F0B4F83146204603F019
:1051C800B0F801A80194FFF735FC019B08FA03F336
:1051D800C0F82035009C002CB3D19FE7022E0CD1DB
:1051E8000321204603F09DF80AF00503012BE8D1BE
:1051F80049462046FFF75CFCE3E70221204603F01E
:1052080090F8BAF1030FF3D0032EDAD1BAF1020FF6
:10521800EDE795FAA5F3B3FA83F304FA03F29B00DA
:1052280003F1804303F5C04325EA0205D3F81005CE
:10523800D3F81015C0F30420C1F30141FFF738FC7F
:105248007AE700BF00600040C40000200146014822
:10525800FFF7E4B92C01002001238340C3F31202B5
:1052680001462AB1034A0448C2F80835FFF7FAB9DB
:105278000248704700F001402C0100200400AD0BEB
:1052880001460148FFF7CAB928010020C30003F10D
:10529800804303F5F833012201465A600148FFF7BD
:1052A800E1B900BF2801002070B51D4A0C68B2FBA7
:1052B800F4F304FB13258DBB94422FD85C1E1C40CD
:1052C8002CD1B3F5007F29D802684D79D2F804654E
:1052D800097926F0030601F003013143C2F80415E9
:1052E800D2F8081593FAA3F321F0030105F003059A
:1052F800B3FA83F32943C2F80815C2F810350068D9
:10530800402300F58072D450D1580433582BFAD179
:1053180040F30730FCF786FC024870BD0248FCE702
:105328000024F4000000AD0B0400AD0BF8B541B942
:105338001A491B487C2202F011FE7C21174802F012
:1053480004FE0579174C0C236B43E618377A1FBB0C
:10535800E2508B6873600368134A934207D002F5E2
:105368008052934203D002F58052934202D14B7986
:10537800032B06D909490A48942202F0EFFD94212B
:10538800DCE7FFF791FF0C2303FB0544074BC21A28
:10539800534253412372F8BD0548FCE7FE8F0000D5
:1053A8007F890000040C0020008000400000AD0B45
:1053B8000C00AD0B10B50C4B02790C2101FB02322D
:1053C800127A012A08D009490948D22202F0C6FDFA
:1053D8000648D22102F0B9FD04682260027901FB77
:1053E800023302221A7210BD040C0020FE8F000046
:1053F8007F89000010B50C4B02790C2101FB0232A9
:10540800127A42B909490A48DB2202F0A7FD074887
:10541800DB2102F09AFD046801222261007901FB78
:1054280000331A7210BD00BF040C0020FE8F00006C
:105438007F890000F8B5144D03790C2707FB035347
:1054480004461B7A43B911491148BC2202F086FD73
:105458000E48BC2102F079FD006840F30730FCF7E4
:10546800EFFB23680026D3F80022C3F80062236804
:105478004FF0FF32C3F808232046FFF7BBFF23791C
:1054880007FB03552E72F8BD040C0020FE8F0000A8
:105498007F89000070B5144C05790C2606FB05447D
:1054A800247A54B9114912484FF4957202F056FD06
:1054B8000E484FF4957102F048FD4FF480340568AA
:1054C8008C4073B18B0003F5A0730026EE50EB58A7
:1054D8000368C3F80443036801F5A87143F8212061
:1054E80070BDC5F80843F6E7040C0020FE8F0000E5
:1054F8007F8900002DE9F041154E07794FF00C0E19
:105508000EFB07661C46367A9DF8183056B91149C5
:10551800114840F2451202F021FD0E4840F24511B3
:1055280002F013FDD0F800E040F20117DEF8006247
:105538008F4026EA0706CEF800620568D5F80062B3
:105548003443C5F80042BDE8F041FFF7A3BF00BFF0
:10555800040C0020FE8F00007F89000001490248EA
:1055680002F00BBF040C00200080004001490248F3
:1055780002F003BF100C002000A0004008B5084A44
:10558800084B93420AD908490848182202F0E6FC59
:105598000548182102F0D9FC1433F2E7FCD308BD02
:1055A80074870000248700003B9000007F8900007A
:1055B80070B50446EFF31186402383F31288BFF3D6
:1055C8006F8F0C4B9D6802F016FE042C08D10A4917
:1055D8000A48872202F0C2FC0748872102F0B5FC7E
:1055E80086F31188BFF36F8F2846BDE87040FCF73B
:1055F8009DBA00BF1C0C00205E9000007F8900004F
:1056080038B5094B53F82040013053F82050A542D3
:1056180000D838BD636823B1204602F012FF083471
:10562800F5E723689847FAE73489000070B5354BE9
:10563800354C364D012286B003201A70FFF7E0FF83
:10564800FCF702F802F019FF0420FFF7D9FFAC427B
:10565800264624D92E492F48452202F07FFC4521B1
:105668002B4802F072FC54F80C3C059354F8103C9B
:10567800049354F8143C039354F8183C029354F8D8
:105688001C3C019354F8203C009354E90A2354E944
:105698000C0100F08FFD54F8303C5E65D7E7AE4250
:1056A80004F13004DFD301F0BBFA174C1A4EAC42B8
:1056B8001BD917491748692202F050FC6921CFE726
:1056C800D4E90A23B3F1FF3F08BFB2F1FF3F05D089
:1056D80052EA0301206803D102F025FF3034E6E7DF
:1056E8003146183001F088FEF8E7E9D301F0E6FA10
:1056F800FAF7E2FE094A137B23F00103137306B09D
:1057080070BD00BF6011002074870000748700001E
:10571800809000007F89000093850000E00700204A
:1057280008B50348034A0021121A02F0A2FE08BD78
:10573800680200206411002070B5002386B00122A1
:10574800CDE90423134E144D01930F22CDE9023203
:105758001249142303FB005506EBC01604464FF408
:10576800A07000FB04110E4B00954FF48072304678
:1057780000F020FD737B0B4AEE6023F00403737383
:105788004FF4046304FB033313442C746B6006B0BA
:1057980070BD00BF600700201C0C0020C01900204D
:1057A8008958000080110020BFB50020FFF728FFAE
:1057B8002B4B83F308882B4D2B4E6B692B4F43F4EF
:1057C80000736B61E02385F8223000242023EB77F7
:1057D8002C766C76AC766B6A43F4E0236B6285F8C2
:1057E8002340FCF70DF9FCF7E1FA4FF0FF33AB6209
:1057F800EB62FCF7C3FBFCF7FDFA1D4BB36040F20C
:1058080001129A81C3E91844DC66FFF7B7FE01204C
:10581800FFF7F6FE0220174DFFF7F2FE01F0AAFA95
:10582800154B75610593012314490094CDE9034391
:105838004FF480623B46CDE90144284600F0BAFCAB
:105848006A7B064622F0040228466A7300F00CFFC1
:105858002046FFF771FF3A4631462846FCF784FA9E
:10586800C019002000ED00E01C0C00203556000097
:1058780060080020E0070020A1900000001B002025
:1058880008B50C4B9B6893F90E30002B09DB4024BC
:10589800EFF3118384F31288BFF36F8F02F0FCFBE0
:1058A800F6E7054905481B2202F058FB02481B2170
:1058B80002F04BFB1C0C0020A69000007F89000022
:1058C8002DE9F341044617461E46EFF3058545B119
:1058D800514952486F2202F041FB4F486F2102F0B4
:1058E80034FBEFF31188402383F31288BFF36F8FE3
:1058F8004B4801F0F5FC38B94A494848882202F07B
:105908002DFB88214748EAE7454801F00DFDE3688B
:10591800454A9BB1A0689168884224D057EA06039B
:1059280029D13F4801F0EAFCA0B188F31188BFF300
:105938006F8F6FF00F0002B0BDE8F081916891F9A8
:105948000E10374821610133E3609368A36001F0CA
:10595800D5FC50B93349314840F2311202F0FEFA11
:1059680040F23111CEE72169EBE788F31188BFF3E4
:105978006F8F0020DFE791F90E1090F90E309942F1
:10598800A8BF19466FF07E029142B8BF11468B42FC
:1059980002DD02F073FD0546CDE900762048224677
:1059A800414600F04FFF0028E3D0EFF31186402373
:1059B80083F31288BFF36F8F194801F091FC002818
:1059C8009AD0174801F0B0FCA068C0B123682169DB
:1059D8009C420AD04BB193F90E309942A8BF1946A0
:1059E8006FF07E039942B8BF194602F047FD30B107
:1059F8000B48314601F088F86FF00A009BE7002D4C
:105A0800F6D1074801F07AFC0028A3D086F3118864
:105A1800BFF36F8FF0E700BFC79000007F890000D9
:105A28003C0C00200F8B00001C0C002070B50446B5
:105A3800EFF3058646B131493148D72202F08EFA94
:105A4800D7212E4802F081FA8368002B4FD02D4AC7
:105A5800926893424ED1C36833B928492848EF2247
:105A680002F07CFAEF21ECE7012B03D0013BC36085
:105A7800002070BDEFF31185402383F31288BFF334
:105A88006F8F214801F02CFC38B920491C48882226
:105A980002F064FA88211D48D4E71B4801F044FC51
:105AA8002169A06802F0EAFC204600F071FFA060BE
:105AB80050B190F90E202261866700F0D5FD12489A
:105AC800294601F021F8D3E7E0600F4801F016FC01
