:1000000040240020A919000041810000951900003A
:1000100095190000951900009519000000000000D6
:10002000000000000000000000000000811B000034
:1000300095190000000000004D1B000095190000FC
:10004000591D000095360000591D0000591D000083
:10005000591D0000591D0000591D0000591D0000C8
:10006000591D0000591D0000E9550000591D0000F0
:10007000591D0000591D0000591D0000591D0000A8
:10008000591D0000591D0000591D0000591D000098
:10009000F9360000591D0000591D0000591D0000CF
:1000A000591D0000591D0000591D0000591D000078
:1000B000591D0000591D0000591D0000591D000068
:1000C000591D0000591D0000591D0000591D000058
:0C00D000591D0000591D0000591D0000C2
:1000DC00014B1B689B681847C0040020014B1B6830
:1000EC001B691847C0040020014B1B685B6918474B
:1000FC00C0040020014B1B689B691847C0040020FA
:10010C00014B1B68DB691847C0040020014B1B68BE
:10011C001B6A1847C0040020014B1B68DB6A184798
:10012C00C004002010B4034C2468E468A44610BC3E
:10013C00604700BFC004002030B50346114890F959
:10014C001C209A4219DD90F924209A4217DA9A1A47
:10015C00846AA05C0C4A15569D420DD00E320029C3
:10016C0018BF01309442C0B206D129B1013BDBB2B9
:10017C00012B01D80130C0B230BD0D20FCE70020AE
:10018C00FAE700BF700700208C88000008B5054B0B
:10019C0093F91C30984203DAFFF7CEFF024B1B5643
:1001AC00184608BD700700208C88000010B51C4C48
:1001BC0094F82C3073B9012384F82C3000F09EF89D
:1001CC0048B1184BA362D823236284F82430082347
:1001DC00A361237710BD00F0A7F80028F1D100F03F
:1001EC00ADF80028EDD100F06BF838B10E4BA362DE
:1001FC00D823236284F824300423E9E700F06AF85A
:10020C000028F3D100F070F80028EFD100F080F84E
:10021C000028EBD14FF4DF71742000F019F800BF07
:10022C0070070020C78800009A880000BFF34F8F2A
:10023C000549064BCA6802F4E0621343CB60BFF376
:10024C004F8F00BFFDE700BF00ED00E00400FA0592
:10025C001FB572B6134B5D688DB9FFF7E7FFB2FBA4
:10026C00F6F2DCB20133002AF9D104F110036B442D
:10027C0003F80C2C0A2234B901A8A847EDE7024672
:10028C0000230A26EDE7631E04AEDCB256FA83F3B4
:10029C00B0FBF2F602FB1600303003F80C0C3046C3
:1002AC00E9E700BFC80B00204FF08052034BD2F897
:1002BC0030111960D2F834215A607047040C0020B8
:1002CC00034B1868A0F10F0358425841704700BF08
:1002DC00040C0020034B1868A0F10A035842584143
:1002EC00704700BF040C0020034B1868A0F10E03EC
:1002FC0058425841704700BF040C0020034B18684B
:10030C00A0F1100358425841704700BF040C002064
:10031C00044B1868062803D0431C584258417047B8
:10032C0001207047040C0020034B1868A0F10D034A
:10033C0058425841704700BF040C0020034B18680A
:10034C00A0F1080358425841704700BF040C00202C
:10035C0008B5FFF7A9FFBDE80840FFF727BF801AD3
:10036C0000F3070038B540B20D4659B21446FFF7FA
:10037C000DFF0023287020446B7040B238BD002361
:10038C00036070477047002070474FF0FF30704794
:10039C004FF0FF3070477047002070474FF0FF3030
:1003AC00704700207047002070470023037070478F
:1003BC000022FFF7D4BF002070474FF0FF3070478A
:1003CC004FF0FF3070474FF0FF30704770470028F8
:1003DC000CBF6FF0150000207047002070470723FA
:1003EC000370002070470020704700207047000009
:1003FC0008B50378022B06D1034803F0A5FC10B90D
:10040C00024B01221A7008BD99110020981100208E
:10041C0008B50268530904D14FF0FF33D340DB0712
:10042C000AD4074907484FF46C7207F005FE0448DC
:10043C004FF46C7107F0F7FD4FF0A04008BD00BF02
:10044C003C8A00006F8A000013B50446019001A895
:10045C00FFF7DEFF00EB8400044BD0F800271340BD
:10046C0043F00303C0F8003702B010BDF0F8FCFFF6
:10047C0030B5144A144B154D8BB0CDE90123144AF9
:10048C001068516803AB03C31C460FCD0FC42B6817
:10049C002360104A0692012305A88DF815308DF8BB
:1004AC00263003F039FB58B901A803F019FD38B90F
:1004BC0002A803F02FFD18B9082103A803F044FD8E
:1004CC000BB030BD3344BB01DEF01223708800004A
:1004DC00878A0000FD0300002DE9F74F4FF0102331
:1004EC00D3F88440D3F88850601C39D1691C6FD084
:1004FC00FF26EFB2B046B146FF2F61D14FF0010A93
:10050C0007F03DFD002840F0CD80FFF7B1FF00283B
:10051C0040F0C880282003F03FFD03F065FC002864
:10052C0040F0C080DFF884B1614C05469BF8002098
:10053C0002F0FF030193002A7ED000218BF80010FB
:10054C0003F0B2FA10225B48002108F0C3F8A27A3B
:10055C00019B042A4FD8DFE802F042757D85930099
:10056C00C4F30726C4F307484FEA146AE4B2FF2C1D
:10057C00EFB205D02046FFF767FF204607F0F2FCEC
:10058C00FF2E05D03046FFF75FFF304607F0DDFC4D
:10059C00B8F1FF0F04D1BAF1FF0F08D1D146ABE788
:1005AC004046FFF751FF404607F0DCFCF3E75046AE
:1005BC00FFF74AFF50465FFA8AF907F0C6FC9BE743
:1005CC00EDB22846FFF740FF284607F0BEFC95E742
:1005DC00FF27B946B8463E464FF0000A90E7354A29
:1005EC0001211170217A517002215171E17911713F
:1005FC00617991711D46BAF1000F17D0637ADA0751
:10060C00484649D407F0A1FC637A9B07384646D488
:10061C0007F09BFC55B1FF2E02D0304607F0A2FC30
:10062C00B8F1FF0F02D0404607F08FFC214800F0D4
:10063C00FDFB204800F020FB002140F6CD4006F0E9
:10064C0015FD73E71B4A217A5170E17911716179BB
:10065C005171CFE7174B02221A70227A5A706279C5
:10066C005A71C8E7134A03211170217A5170E1794C
:10067C00117161795171A17991710A219160B9E778
:10068C000C4B04221A70227A5A7062791A71A27970
:10069C005A710A229A60AEE707F064FCB4E707F0DF
:1006AC0061FCB7E703B0BDE8F08F00BF98110020E4
:1006BC0099110020A80E00200B4B00224FF0FF31A7
:1006CC00C3F80022C3F80813C3F81021D3F8102183
:1006DC0001221A61D3F81021002AFBD00022C3F8A2
:1006EC001021D3F8103170470010004010B5FFF7FF
:1006FC00E3FF044B1B6823B11B6813B1BDE810402A
:10070C00184710BDB80E002010B51C4BD3F80423AD
:10071C00D104044616D5D3F830219AB10022C3F87F
:10072C003021174AD3F830311368013313608268D3
:10073C0042B1934213480CBF002240F6CD42002335
:10074C0005F0A0FD0D4BD3F80423120714D5D3F8F4
:10075C000C218AB10022C3F80C210B4AD3F80C31BE
:10076C00136801331360A268934205D1FFF7A4FF0D
:10077C00E368BDE81040184710BD00BF00100040F2
:10078C00C00E002008050020C40E002073B5124BCB
:10079C00124C187020460D4604F064FE104B0026D7
:1007AC00D3F80022C3F800624FF0FF32C3F80823DD
:1007BC002946204607F08BFE012302460093204673
:1007CC0040F20113314604F0CDFE204602B0BDE8E4
:1007DC00704004F027BE00BFC01100202889000023
:1007EC0000800040042810B504460BDC10F1100FFB
:1007FC000DDA10F11E0F54D010F1140F53D010F16C
:10080C00280F52D02B4807F001FC002331E000F1F7
:10081C001003142BF6D801A252F823F0BB080000E9
:10082C001108000011080000110800007D080000EC
:10083C001108000011080000110800009F080000BA
:10084C00110800001108000011080000A3080000A6
:10085C001108000011080000110800001708000022
:10086C001108000011080000A7080000AB080000E8
:10087C00F423114AC2F80C35104B1B78CBB9214626
:10088C000F4807F0C3FB21460E48BDE8104007F0A7
:10089C00BDBBF823EDE7FC23EBE70323E9E70423D7
:1008AC00E7E7FF23E5E7EC23E3E7D823E1E7F023D1
:1008BC00DFE710BD908A000000100040BF1100203F
:1008CC00CF8A0000F48A0000214B40F20122C3F8C9
:1008DC0050260022C3F83425C3F83825C3F82C253C
:1008EC000122914284B0C3F830252BD0022923D0A9
:1008FC0001BBAB22C3F824254FF0AB32C3F81C2547
:10090C0004284FF00003CDF80530124A05BF01232F
:10091C008DF808304FF4837340F2071313809DF861
:10092C0008300B4A1B0643F00803C2F814350A4B77
:10093C00C2F8183504B07047CC22C3F824254FF008
:10094C00CC32DBE76A22C3F82425044AD6E700BF81
:10095C000010004074110020FF0004031B81FE589E
:10096C0038B50C4CFFF7B0FFFF22012922700FD0D5
:10097C00022908D019B91146601C07F027FC064B58
:10098C00C3F8044538BDCC21601C07F0A3FEF6E784
:10099C00F021F9E7C11200200010004008B500F565
:1009AC00166040F6C41398420AD90849084840F228
:1009BC00F26207F041FB054840F2F26107F033FBAD
:1009CC00044BA0F51660C3F8080508BD168B000093
:1009DC006F8A00000010004010B5294CBFF35B8FEC
:1009EC0054E8003F23F4803244E800210029F7D179
:1009FC00BFF35B8FD80304D5224B2349187803F03F
:100A0C0073FEBFF35B8F54E8003F23F0040244E80D
:100A1C0000210029F7D1BFF35B8F590705D5194B7E
:100A2C001A4A1B49187807F082FCBFF35B8F54E815
:100A3C00003F23F0100244E800210029F7D1BFF356
:100A4C005B8FDA0605D50F4B124A1149187807F05F
:100A5C006EFCBFF35B8F54E8003F23F4807244E8D4
:100A6C0000210029F7D1BFF35B8FDB0507D5054BC0
:100A7C00064A09491878BDE8104007F058BC10BD6B
:100A8C00BC0E0020BE110020008000400010004071
:100A9C0000410140041000404081004070B51B4DE6
:100AAC000446FFF799FF287854B3194A194907F0FF
:100ABC0034FC04230126184CBFF35B8F06FA03F3B6
:100ACC0054E8002F1A4344E800210029F8D1BFF361
:100ADC005B8F1249287803F0FFFDBFF35B8F54E85E
:100AEC00003F43F4803344E80032002AF7D1BFF3CF
:100AFC005B8F287806FA00F0BDE8704003F0E0BD8B
:100B0C00074A044907F009FC0223D3E7BE11002071
:100B1C000410004000410140BC0E00200080004049
:100B2C000010004070B5114C064615460846FFF7FC
:100B3C00C3FDC4F81065D4F8003243F00103C4F8C7
:100B4C000032FFF74FFE2846094DFFF727FF2B78A1
:100B5C0043B10020FFF7A2FF2B781BB1054B0122FC
:100B6C001A6070BD01232360FBE700BF001000403A
:100B7C00BF110020004001402DE9F0411B4C1746ED
:100B8C000E461D46FFF798FDC4F81005D4F8003248
:100B9C0043F02103C4F80032154BC4F80435394630
:100BAC00FFF792FE3046FFF7F9FE124B124E002271
:100BBC001A604FF48053C4F80433337883B10120A6
:100BCC00FFF76CFF33785BB10C4B01221A6055B107
:100BDC00BDE8F0410A484FF4A022002305F052BBB7
:100BEC0001236360F3E7BDE8F08100BF0010004013
:100BFC00C1110020C00E0020BF1100200040014098
:100C0C0008050020B0F5A07F10B50C4619D1097865
:100C1C00032917D1154B607894F9041001221A702E
:100C2C00134B1A78FFF77EFF6279A0790F4B0021E6
:100C3C0019700F490B780133DBB2834298BF1A4607
:100C4C000A7010BD04290CD1084B09496078097849
:100C5C0001221A7022790023FFF78EFF2279607926
:100C6C00E4E7BDE81040034807F0D0B9BF110020FD
:100C7C00C01100204A8B00002DE9F3410378052BAD
:100C8C0035D8DFE803F0030C3740474A427990F936
:100C9C000410407802B0BDE8F041FFF743BF44793F
:100CAC00457890F9048087798668FFF705FD214621
:100CBC00544C2846FFF754FED4F8003243F021037D
:100CCC00C4F800324046C4F81055FFF78BFD384687
:100CDC00FFF764FE4C4A00231360C4F80C31D4F8BF
:100CEC000C3116B10823C4F804330123236002B07D
:100CFC00BDE8F081836802794179407802B0BDE8A3
:100D0C00F041FFF739BF8168407902B0BDE8F0418E
:100D1C00FFF73CBD81680079F7E7447890F80580CF
:100D2C00856890F904708679FFF7C6FC2046414629
:100D3C00FFF716FE334BC3F81045D3F8002242F0F0
:100D4C000302C3F800223846FFF74CFD3046FFF78C
:100D5C0025FE2E4B2E4A1B5D12882E485343C5F19F
:100D6C0064045C43B4FBF5F41C4404F07BFB0020EE
:100D7C00FFF794FE284B2748D3F8002200254FF0AC
:100D8C00FF32C3F800522146C3F8082307F08DFB4D
:100D9C000095024602231F48012104F0E3FBEFF308
:100DAC001186402383F31288BFF36F8F1B4B1C4CAF
:100DBC0001251D60207803F079FC20B1207805FA1C
:100DCC0000F003F083FCFFF707FE0E4A154920786C
:100DDC0007F0A3FABFF35B8F134B53E8001F41F4EA
:100DEC00807143E80012002AF7D1BFF35B8F2378A0
:100DFC000120984003F064FC86F31188BFF36F8FD9
:100E0C0075E700BF00100040C40E0020A78B000047
:100E1C00741100202889000000800040004001402F
:100E2C00BE11002044810040BC0E002030B51B4A8E
:100E3C0087B04FF40073CDE90323059003A9184A3A
:100E4C000446184804F0A2FA174B9842014602D007
:100E5C00164807F0DBF8002205210820002500F0D9
:100E6C00C9FE2346124A00950521012007F06DF9B1
:100E7C00012000F08FFE0F4807F064FA0A4B9842ED
:100E8C0006D00D4807F0C2F86FF00D0007B030BD6A
:100E9C000A4B0C341C602846F8E700BF40420F0098
:100EAC00110C0000288900000000AD0B648B0000C1
:100EBC0015070000BE110020858B0000B80E002025
:100ECC00B2F5802F2DE9F0410AD33449344840F271
:100EDC00EB1207F0B1F840F2EB11304807F0A3F831
:100EEC00042A08D82D492E484FF4F97207F0A4F8BB
:100EFC004FF4F971F1E7043ACD1D8E1825F0070572
:100F0C0026F00706761B172E4FEAD60708D823497A
:100F1C00234840F2FB1207F08FF840F2FB11DCE79C
:100F2C00B7FA87F4C4F12002C4F12404A4000734F6
:100F3C00E408631C4FF00008BB420560AF60C5F8C5
:100F4C000C8008D9154916484FF4037207F074F851
:100F5C004FF40371C1E74146920005F1100007F010
:100F6C00B9FB630043F001036B8005EBC4023B1B30
:100F7C005900A5F800805180AA1925F83440A2F830
:100F8C000280AB5305EBC70321465A8842F001029D
:100F9C005A802846BDE8F04107F00FB8B78B000027
:100FAC006F8A0000014B1B68184700BF38050020F2
:100FBC0030B585B004460D4610220021684607F076
:100FCC0089FB02238DF802302A46044B01932146FB
:100FDC00684606F05DFD05B030BD00BFB10F0000E6
:100FEC0080B505460E461746984606F06DF8034642
:100FFC0007F0DCFBDFF81890044649F80030424655
:10100C0030463946A84754F8090000F047FD00BFA8
:10101C00080000002DE9F84F04460846A38B190779
:10102C00164612D4022803F0070162D1204607F0BD
:10103C0010F888B10138042800F22581DFE810F09F
:10104C00590023017E00C800F50001280CBF43F0B5
:10105C00100143F02001A18304F1140006F0BCF947
:10106C00002800F0AB8086F31188BFF36F8FBDE8CA
:10107C00F88F03F00702501F01281ED80020062A03
:10108C002768C4E9000014D13A4603E0E08B013034
:10109C00E0831268002AF9D123F0070343F002021F
:1010AC00A283204606F0D5FF90B342F02002A28323
:1010BC002EE023F007039AB2F2E7042A33D123F08F
:1010CC0007039AB2A283204606F0C3FF10B142F088
:1010DC002002A283A38B03F00709894540F0DC8032
:1010EC00A18BCA0640F1218121F01003A38301F0EA
:1010FC000701D4F81880A38BB8F1000FB9DA0022DD
:10110C00276823F00703C4E9002243F00103A383FB
:10111C00A38B03F00709894540F0BF80002FDFD077
:10112C000025AA4640E08549854840F21B1206F08E
:10113C0083FF40F21B11814806F075FF41B17F49D6
:10114C007F484FF4AB7206F077FF4FF4AB71F2E7C8
:10115C00236843B979497A4840F2571206F06CFF7C
:10116C0040F25711E7E723691D6845B97349744884
:10117C004FF4AD7206F060FF4FF4AD71DBE7A38B5B
:10118C0023F0070343F006039BB2A3830F46884664
:10119C004FF00609A268002A40F08180002F40F031
:1011AC008180002D9CD0BA4643F0080304F1140B47
:1011BC00A383584606F010F9002875D161496048A0
:1011CC0040F2311206F038FF40F231115D48B3E7BE
:1011DC00022908D059495A4840F25D1206F02CFFFA
:1011EC0040F25D11A7E7E78B47B1544954484FF4DF
:1011FC00AF7206F021FF4FF4AF719CE723695D6875
:10120C0045B94E494E4840F2611206F015FF40F2C6
:10121C00611190E7A38B23F0070343F004039BB207
:10122C00A383B8464FF00409B4E7012908D0434919
:10123C0043484FF4B27206F0FFFE4FF4B2717AE7F6
:10124C00236843B93D493E4840F2651206F0F4FE6E
:10125C0040F265116FE723699D6845B937493848F5
:10126C004FF4B47206F0E8FE4FF4B47163E7A38B4D
:10127C0023F0070343F005039BB20027A383B84672
:10128C004FF0050986E72D492D4840F26B1206F008
:10129C00D3FE40F26B114EE7002700257AE74FF0A2
:1012AC00010A81E792467FE786F31188BFF36F8FBF
:1012BC00BAF1000F16D147BB15B123492046A847F8
:1012CC00EFF31186402383F31288BFF36F8F5846D8
:1012DC0006F074F808BB1B491948882206F0ACFECE
:1012EC00882173E7A1680029E5D00E680029E2D0B7
:1012FC00D1F804A043464A462046D0471EB1336875
:10130C0031461E46F2E73346FAE7394643464A462B
:10131C0020463F6806F0C9FECDE7584606F072F845
:10132C00A38B23F00803A383DAE68B067FF594AE38
:10133C0021F02003A38301F0070177E6DA8B00008C
:10134C006F8A0000FF8B000059130000F8B50446AB
:10135C000D4600F11406EFF31187402383F3128836
:10136C00BFF36F8F304606F029F840B909490A4897
:10137C00882206F061FE0748882106F054FE3046AC
:10138C0006F040F8A5613A4620460121BDE8F84038
:10139C00FFF740BEFF8B00006F8A00002DE9F0477D
:1013AC0004460F4606F071FE051E5DDB04F11409C0
:1013BC00EFF3118A402383F31288BFF36F8F4846F3
:1013CC0005F0FCFF804638B933493448882206F0D2
:1013DC0033FE882130483CE0484606F013F8E38B96
:1013EC00A68B4FF6FF72934206F007063FD0022EF3
:1013FC0010D10133E3833546484605F0EDFF002854
:10140C003BD12549254840F2311206F015FE40F239
:10141C003111DFE7062E13D8DFE806F0092C121283
:10142C00090409006FF085054FF00008E4E700237C
:10143C003B6063687BB9C4E900777EB13546F3E75E
:10144C00174916484FF4E47206F0F6FD14484FF4B1
:10145C00E47106F0E8FD1F606760EEE7524602217A
:10146C002046FFF7D7FD35462846BDE8F0876FF0DC
:10147C000A05D9E76FF00405D6E78AF31188BFF3A4
:10148C006F8FB8F1000FEFD000233246394620465B
:10149C0006F00BFEE8E700BFFF8B00006F8A000030
:1014AC00DA8B0000F8B5054600F11406EFF311874E
:1014BC00402383F31288BFF36F8F304605F07EFF15
:1014CC0038B920492048882206F0B6FD88211D48ED
:1014DC0025E0304605F096FFAC8B04F00704022C97
:1014EC0012D0012C0CBF6FF004046FF08504304651
:1014FC0005F072FF08BB1349134840F2311206F095
:10150C009BFD40F23111E2E7EB8B53B90F490E48CA
:10151C0040F2EF1206F090FD0C4840F2EF1106F08D
:10152C0082FD013B9BB2EB83002BE0D13A46214676
:10153C002846FFF76FFD2046F8BD87F31188BFF3EF
:10154C006F8FF8E7FF8B00006F8A0000DA8B0000CA
:10155C0008B54268816002F00302032A034602D0F8
:10156C002AB1002000E0006800225A6008BD04493E
:10157C000448452206F060FD0148452106F053FD64
:10158C002C8C00006F8A0000014B03600020704718
:10159C003089000008B5044806F038FDBDE8084065
:1015AC00024806F033BD00BF528C0000878C00004F
:1015BC00262808B508D905490548142206F03CFD33
:1015CC000248142106F02FFD08BD00BFB58C0000A9
:1015DC006F8A000070B506460C46154600F0FCFA02
:1015EC0040B109490948172206F026FD0648172183
:1015FC0006F019FD3046FFF7DBFF054B43F8305082
:10160C0003EBC0035C6070BDE48C00006F8A0000CB
:10161C00F805002030BFFFF7FDBF00BF2DE9F041FA
:10162C000B4EDFF8308006EB0807CC1B0546324624
:10163C000949204607F040F8A01942460021083C11
:10164C0007F048F82C6707F10800BDE8F08100BFEF
:10165C00000000000400000064880000074A936842
:10166C0093F90E10002907DB526993421FBF044AFD
:10167C00536843F080535360704700BF241100201F
:10168C0000ED00E0F8B52D4B15469A6A12F0100FDC
:10169C009A6A14BF1124102412F0080F9A6A18BF0A
:1016AC001224970706460AD5586B9A6A140634D545
:1016BC0019B19A6A22F080029A62132401E06FF049
:1016CC0015001E4B9A6A12F0010F9A6A18BF142467
:1016DC0012F0200F9A6A18BF1524D10602D49B6A07
:1016EC009A070AD5154F7B681B0506D5314600F0C5
:1016FC00E3FAA8B180F309880224104B9A6A920687
:10170C0042BF5A6A22F400525A629A6A42F0FF02AD
:10171C009A6200232B702046F8BD6FF01500CCE7C1
:10172C00BB6AD906E9D50649064840F25D1206F0B7
:10173C0083FC034840F25D1106F075FC00ED00E0FF
:10174C00118D00006F8A0000134B9A6A12F0007F13
:10175C009A6A14BF1E201D2012F0807F9A6A18BF4F
:10176C001F2012F4002F9A6A18BF212012F4802F28
:10177C009A6A18BF222012F4003F9A6A18BF2320DD
:10178C0012F4803F9A6A6FEA02426FEA12429A623E
:10179C0018BF2420704700BF00ED00E010B5194BB6
:1017AC000246986A9C6A10F4805F14BF17201620BA
:1017BC0014F4006F9C6A18BF1820A40509D5986B07
:1017CC00986A000404D51AB19A6A22F400429A620B
:1017DC0019200C4B9A6A12F4806F9A6A18BF1A205F
:1017EC00D2050CD49B6A13F4005F18BF1C20054A69
:1017FC00936A43F47F43936200230B7010BD1B204C
:10180C00F5E700BF00ED00E0F0B5564B5B688BB020
:10181C000446C3F30803002585F31188BFF36F8FCB
:10182C0002F07F40B0F17F4F08D102F00C00082885
:10183C0004D012074CBF0C46012554B94A494B48F9
:10184C004FF48B6206F0F8FB4FF48B61464806F0C0
:10185C00EAFB0022033B8DF80720032B7BD8DFE843
:10186C0003F00272765D3F4AD36A13F0020372D121
:10187C00D16A00291ADBD36A5B005BD55369A16975
:10188C0043F480735361BFF34F8FBFF36F8F536972
:10189C0031F8021C23F480735361BFF34F8FBFF3F5
:1018AC006F8F4DF6027399421FD123689DF8072064
:1018BC00CAB902AE04F1200720686168324603C23F
:1018CC000834BC421646F7D1099A002D45D0C2F314
:1018DC00080121B96FEA52226FEA4222099202A949
:1018EC00184606F01DFC0BB0F0BD936ADBB23BB1A1
:1018FC000DF1070201212046FFF7C4FE0346D5E790
:10190C00936A13F47F4F05D00DF107010120FFF707
:10191C0045FFF3E7936AB3F5803F02D3FFF714FF5B
:10192C00ECE71149114840F22A3206F085FB40F2EF
:10193C002A318BE70C490D4840F22E3206F07CFB25
:10194C0040F22E3182E70DF107020021D3E70DF1B1
:10195C0007010020DBE70023A8E722F4FF7222F046
:10196C000102BBE700ED00E0118D00006F8A000062
:10197C00044B5A6942F010025A615A6922F008026B
:10198C005A61704700ED00E0EFF30880EFF3098136
:10199C0001B57246FFF738FF01BD00BF002080F390
:1019AC001488BFF36F8F02F0F7FC00200D4908601C
:1019BC00BFF34F8F0C4880F3088800F03DF84020AF
:1019CC0080F3118809484FF40461401880F30988AA
:1019DC00EFF314800221084380F31488BFF36F8F58
:1019EC0000F032F994ED00E0402400208016002035
:1019FC00BFF34F8F0549064BCA6802F4E0621343EC
:101A0C00CB60BFF34F8F00BFFDE700BF00ED00E0E0
:101A1C000400FA050749D1F890200023C2F30722ED
:101A2C001846934200DB7047C1F89830C1F8A0000B
:101A3C000133F6E700ED00E008B572B6002383F33E
:101A4C001388FFF7E7FF144B4FF0FF32C3F88020E9
:101A5C00C3F88420C3F88820C3F88C20C3F89020E6
:101A6C00C3F89420C3F89820C3F89C20C3F88021B5
:101A7C00C3F88421C3F88821C3F88C21C3F89021C2
:101A8C00C3F89421C3F89821C3F89C2162B6BFF324
:101A9C004F8FBFF36F8F08BD00E100E0084B9B68D0
:101AAC0083420BD1EFF3058343B1064B5A6842F0E6
:101ABC0080525A605A6A22F400425A6205F00ABBFC
:101ACC002411002000ED00E0094A93686FF00A0130
:101ADC009967084958674B6843F080534B60002363
:101AEC0083F31188BFF36F8F9368986F704700BFB3
:101AFC002411002000ED00E010B50446EFF3118333
:101B0C00402383F31288BFF36F8F0A4B5869986098
:101B1C00094B4FF000625A60084B026F1A600022AA
:101B2C00436F426783F31188BFF36F8F00F02CF97A
:101B3C00204610BD2411002000ED00E0C80E00204E
:101B4C000B498A684FF030001044EFF3098C80E8A1
:101B5C00F01F74467046FFF7CFFFA64604498A680B
:101B6C0002F1300090E8F01F8CF3098870470000F8
:101B7C00241100201EF0040F0CBFEFF30880EFF3CC
:101B8C000980816911F8021C0229FFD001B506F009
:101B9C00CDFA01BD40B2002807DB044A41090123FC
:101BAC0000F01F00834042F82130704700E100E054
:101BBC0040B200280CDB4309064900F01F0020331B
:101BCC000122824041F82320BFF34F8FBFF36F8F68
:101BDC00704700BF00E100E0054B420900F01F0018
:101BEC0053F82220012303FA00F01040704700BF85
:101BFC0000E100E008B5D3070BD40231072909D95D
:101C0C000E490F48582206F017FA0C48582106F0D6
:101C1C000AFA002140B20028ACBF00F16040094B29
:101C2C004FEA4111B8BF00F00F00C9B2AABF00F5CE
:101C3C006140195480F8001308BD00BF438D0000AB
:101C4C006F8A000014ED00E00B4A08B50B4B22F034
:101C5C007F029A60BFF34F8FBFF36F8FD3F888204A
:101C6C0022F47002C3F8882003F0C6FD05F0D2FB05
:101C7C0000F060F803F004FE0000000000ED00E04E
:101C8C0042F8203C009B42F81C3C0A49019B42F85C
:101C9C00183C029B42F8143C21F001014FF0807378
:101CAC0042F8043C42F8081C0023203A02654367C2
:101CBC00704700BFED0F0000094A0346906870B1F1
:101CCC0013F1160F006E05D0A0F140029A4205D810
:101CDC00834203D2814228BF002070470020704706
:101CEC002411002008B515460B4A0C4B9060026F6E
:101CFC001A600E4600F048F82C4686F309884FF01F
:101D0C000000074B984720464FF000014FF00002AF
:101D1C004FF00003034C204724110020C80E002074
:101D2C0073810000ED0F0000014B10221A61704707
:101D3C0000ED00E0044800234021C2180133272B9A
:101D4C0082F80013F9D1704700E100E008B5EFF319
:101D5C000583064A103B02EBC30152F83300496875
:101D6C008847BDE80840FFF779BC00BFF8050020A4
:101D7C00024B034A0348012100F076B80000012011
:101D8C000000002030890000026E054B403A1A60BA
:101D9C00044A4021C3E901121846012100F080B821
:101DAC00CC0E002000000B15084AC2F898000B68F6
:101DBC0023F01F03034343F01003C2F89C308B68DD
:101DCC0043F00103C2F8A030704700BF00ED00E003
:101DDC002DE9F043DFF8608085B00E461F460446BF
:101DEC004FF00009B14523DA6068D8B13FB1411E0C
:101DFC0008421BD11F2819D92368194216D1236810
:101E0C00019306F0D3F9A36803430393D8F89050D9
:101E1C00C5F30725D0B2013DA84207D801A9FFF7A9
:101E2C00C3FF421C09F101090C34DBE76FF015020A
:101E3C00104605B0BDE8F08300ED00E0044B052230
:101E4C00C3F89420BFF34F8FBFF36F8F704700BF61
:101E5C0000ED00E0BFF35F8F024B0022C3F894202B
:101E6C00704700BF00ED00E010B50A4C012322784A
:101E7C00FFF7AEFF207016300AD1074907484FF420
:101E8C00B47206F0D9F804484FF4B47106F0CBF8EC
:101E9C0010BD00BFC11300207A8D00006F8A0000B6
:101EAC0008B5114A00231278FFF792FF10F1160FB4
:101EBC0008D00E4A0021D2F89030C3F30723984281
:101ECC000BDB08BD0A490B4840F2871206F0B4F848
:101EDC00074840F2871106F0A6F8C2F89800C2F83D
:101EEC00A0100130E7E700BFC113002000ED00E0B7
:101EFC007A8D00006F8A00002DE9F04F6D4B6E4C0F
:101F0C00D3F890302568C3F307239D4285B00AD9D6
:101F1C006A496B4840F29F1206F08EF840F29F110E
:101F2C00664806F080F8FFF795FF00200C268542E6
:101F3C0029D1644C644F25706846FFF725FBDFF808
:101F4C007481DFF8889106460025AE4222D12378B1
:101F5C0058490020D1F89020C2F307229342C0F2D6
:101F6C009E80FFF76BFFD1F89030C3F30723082B4B
:101F7C0000F09B805149524840F20F2206F05CF869
:101F8C0040F20F21CCE7616806FB0011FFF70CFF54
:101F9C000130CCE7009A02EB05132901D3F80CA011
:101FAC000AEA0700B0F5000F5CD00AD8B0F5001FA4
:101FBC0036D0B0F5800F48D0B0F5801F12D0013567
:101FCC00C3E7B0F1807F58D0B0F1007FF7D19868AB
:101FDC00D3F804A0525806F0E9F8CDE901A240F478
:101FEC0080200BE09868D3F804A0525806F0DEF875
:101FFC00CDE901A240F0885040F430200390D8F88D
:10200C0090302078C3F30723013B984240D92B49E9
:10201C002B4840F2C91206F00FF840F2C9117FE7C5
:10202C009868D3F804B0525806F0C0F81AF0010FB3
:10203C0040EA0900CDE901B20390E0D01F492048E5
:10204C006D2205F0F9FF6D216AE79868D3F804A0BA
:10205C00525806F0ABF840F0E060CDE901A240F434
:10206C000030CBE79868D3F804A0525806F09EF8DD
:10207C00CDE901A240F08270C0E79868D3F804A0C3
:10208C00525806F093F8CDE901A240F08870B5E7FC
:10209C0001A9FFF789FE2378013323708FE7C1F87C
:1020AC009830C1F8A000013354E7002005B0BDE81A
:1020BC00F08F00BF00ED00E03C8900007A8D00003D
:1020CC006F8A0000C11300200000F0FF000008110F
:1020DC0008B50649064821F00701C1F1005202F586
:1020EC008032FEF7EDFE002008BD00BFC72800209F
:1020FC00D80E0020024B0122C3F840250020704767
:10210C0000E0014020B1034B800143F0010318476C
:10211C00704700BF20890000F7B506460D461446EF
:10212C00194F384606F0F3F940B9184918481422EB
:10213C0005F082FF1548142105F075FFAAB2BB68A3
:10214C001B683BB9134912485B2205F075FF114817
:10215C005B21F1E7314638469847002802DB002026
:10216C0003B0F0BD002CFBD1AC42F8D22F1B042FD6
:10217C0028BF042706F0A4F83A46019001A93019AB
:10218C0006F09AFA3C44EFE73C880000B88D00005A
:10219C006F8A0000F18D000037B50C460A490B4AD6
:1021AC00411A40230093491105462346084806F07E
:1021BC0010F8011E05DA2846234603B0BDE830406E
:1021CC00184703B030BD00BFF80E00204982000054
:1021DC0014880000C9B2012908B508D90849094872
:1021EC007A2205F029FF06487A2105F01CFF0369C5
:1021FC000C2201FB0233986C00F0070008BD00BFF5
:10220C00258E00006F8A000070B5C9B201290369E0
:10221C000AD91849184840F25D1205F00DFF15480F
:10222C0040F25D1105F0FFFEEFF31185402484F3BD
:10223C001288BFF36F8F0C2606FB0134A46C14F0CC
:10224C00C00408D0A24206D085F31188BFF36F8F6B
:10225C004FF0FF3070BD06FB013301229A6485F309
:10226C001188BFF36F8F436803EBC1035B6898471A
:10227C000020EFE7258E00006F8A000070B50D4638
:10228C000649411A0446491105484022FFF7BCFF94
:10229C002B4601462046BDE870401847F80E00203A
:1022AC0014880000002270B5012104461046FFF787
:1022BC00A1FC114802F098FA104B984218D12069F1
:1022CC0000F026FA02F0A2FA26690D49304605F014
:1022DC0002FF00280BDB0125B5642469084904F1D1
:1022EC00200005F0F8FE002801DB6565002070BDBC
:1022FC006FF00400FBE700BFE92300000000AD0B0A
:10230C005C8900001FB500220123CDE90223094A94
:10231C00CDF800D06B46CDF804D005F088FF00282E
:10232C0005DB4FF480420023684603F0A5FC05B0A2
:10233C005DF804FB5582000010B5074C23782BB9CF
:10234C004FF4A57006F0DFF801232370BDE81040B0
:10235C00002002F07FBA00BFC213002010B5EFF3CB
:10236C001184402383F31288BFF36F8F074A1368DD
:10237C0023F00201DB07116002D4012002F0F4FA11
:10238C0084F31188BFF36F8F10BD00BF500F002076
:10239C0030B4104B0C2202FB003301460020D3E971
:1023AC0010521864EFF31180402484F31288BFF3A9
:1023BC006F8F9C6C04F0C00444F002049C6480F3A6
:1023CC001188BFF36F8F1DB12B46034830BC1847E3
:1023DC0030BC7047F80E002014880000012810B59E
:1023EC0004460AD004280CD078B90E4B9B6C5B07C2
:1023FC0016D1BDE81040FFF7CBBF00F097F920468F
:10240C00F7E7BDE8104000F09FB90749074840F2D4
:10241C00722205F011FE044840F2722105F003FE11
:10242C0010BD00BFF80E0020258E00006F8A000042
:10243C0010B4EFF31182402383F31288BFF36F8F34
:10244C001748016841F002040460C80707D482F3FE
:10245C001188BFF36F8F012010BC02F0FBB94FF055
:10246C008041D1F80C04D1F80C14C907EFD5EFF367
:10247C00118083F31288BFF36F8F0A498B6C03F0C2
:10248C00C00343F002038B6480F31188BFF36F8F9A
:10249C0082F31188BFF36F8F002010BCFFF778BF59
:1024AC00500F0020F80E0020024BC0B203EB40107E
:1024BC00704700BFF80E0020F8B53349BFF35B8FAF
:1024CC000646012251E8003F41E800200028F9D1DE
:1024DC00BFF35B8F9BB92D492D484B60CB608A6055
:1024EC00FEF75CFF00280ADA2A492B484FF40C72DD
:1024FC0005F0A2FD4FF40C71264805F094FD06B3CF
:10250C00731E012B37D806F076F80446D0B9234B4E
:10251C001B78BBB14FF080430222C3F80823054659
:10252C004FF08047D7F81824D7F81834D20312D5B7
:10253C009B0701D0012E0ED1BCB185F31188BFF3DE
:10254C006F8FF8BDEFF31185402383F31288BFF32F
:10255C006F8F0124E4E71CB1284605F018FEE1E773
:10256C000021212004F082FDDCE74FF080430222A1
:10257C00C3F80423E5E70749074840F2422205F077
:10258C005BFD40F24221B7E7F40E0020E40E002080
:10259C00180F0020258E00006F8A0000691600209D
:1025AC0008B5134BBFF35B8F012253E8001F0029C2
:1025BC0003D143E800200028F7D1BFF35B8F15D17E
:1025CC000C490023CB600C4B4B6003238B600B4BF3
:1025DC001868FEF7E3FE002808DA094909484D227D
:1025EC0005F02AFD06484D2105F01DFD08BD00BF74
:1025FC00700F0020580F0020F1260000540F00200F
:10260C00718E00006F8A000007B500220023CDE90F
:10261C0000230D484FF40032002305F0C1F90B4B99
:10262C001868FEF73FFF002808DA094909485522C7
:10263C0005F002FD0648552105F0F5FC064B00227D
:10264C001A6003B05DF804FB38070020540F00201B
:10265C00718E00006F8A0000700F0020F7B51C4EC1
:10266C001C4CB7681C4DFB683C213046984740B168
:10267C00002323702B8002F091F90123237003B007
:10268C00F0BD0C213B696A46304698470028EFD1D3
:10269C00124A019B93FBF2F3009A217803EB82031D
:1026AC001BB2B5F900200029E4D09A1A002AB8BF51
:1026BC00524212B2012ADDDC094A13680139013396
:1026CC002170136003B0BDE8F040FFF79DBF00BF61
:1026DC0050880000C31300207611002090D0030016
:1026EC00680F002008B5074805F011FF28B902F063
:1026FC0055F9054B01221A7008BDBDE80840034886
:10270C0003F0F4BC50880000C31300203C050020EB
:10271C00034B044A186000231360034A136070478C
:10272C00540F00206C0F0020680F0020024B002279
:10273C001A70FFF735BF00BFC3130020014805F026
:10274C009FBF00BF38070020024A13680133136093
:10275C00FFF75ABF6C0F0020EFF31182402383F375
:10276C001288BFF36F8F0A4BD3F8001161B10021AF
:10277C00D3F80805C3F80011D3F80031C0B282F3C6
:10278C001188BFF36F8F70476FF00A00F7E700BF37
:10279C0000D00040F0B5034610469C7893F803C077
:1027AC00EFF31182402585F31288BFF36F8F1F78EA
:1027BC0093F801E0E41B04EA0C04A04288BFA0B229
:1027CC003E180CEA06063D461E7082F31188BFF3D4
:1027DC006F8F0A188A4216D177450CD1EFF311820C
:1027EC00402181F31288BFF36F8F1978597082F3EF
:1027FC001188BFF36F8F1B79241AA34222BF064B9B
:10280C0001221A60F0BD5E190135767901F8016B71
:10281C0005EA0C05DEE700BF00D000402DE9F047CB
:10282C002D4D0069A8420E4614460AD02B492C485F
:10283C0040F2031205F000FC284840F2031105F0A9
:10284C00F2FBDB4313F0010504D02030FFF7A2FFAD
:10285C00BDE8F0879AB3EFF31188402383F3128815
:10286C00BFF36F8F0D20FFF7B7F907460D20FFF769
:10287C009FF988F31188BFF36F8FDFF868A0DFF83A
:10288C006880CAF80051DAF800314FF4005901237E
:10289C00CAF800302546C8F88091DAF8003183B1C7
:1028AC00FFF75AFF031EC8F88091F6DB013DADB26D
:1028BC007355002DF1D117B10D20FFF76BF92046A0
:1028CC00C6E7EFF31180402383F31288BFF36F8FB9
:1028DC0005F05DFCE1E700BF740F0020B28E000034
:1028EC006F8A000000D0004000E100E02DE9F041CB
:1028FC00184B07699F420D46144605D107F1350860
:10290C005CB92046BDE8F08113491448E52205F076
:10291C0093FB1148E52105F086FB4FF0FF334FF098
:10292C00FF32384603F0A8F9224629464046FFF705
:10293C0031FF0646384603F059F93EB94FF0FF32E5
:10294C004FF0FF33064803F097F9E6E7A41BA4B257
:10295C003544D5E7740F0020B28E00006F8A00005A
:10296C00840F002038B51F4B04699C420AD01E49C5
:10297C001E4840F2471205F05FFB1B4840F247111E
:10298C0005F051FB01221146204605F0F7FD01220E
:10299C00002104F1100005F0F1FD40F207432387FC
:1029AC004FF0706323620C2384F824300025104B05
:1029BC0084F83550E586D3F8042522F00102C3F8DB
:1029CC0004250121C3F80051D3F80021C3F80413E6
:1029DC002A4619600D20FFF70DF90D20FFF7DAF8E4
:1029EC00284638BD740F0020B28E00006F8A00009C
:1029FC0000D0004010B5FFF7AFFE002820DB174BCE
:102A0C0093F8222093F8214093F82310141B31EAF9
:102A1C000404C0B20DD193F8372093F8364093F8E4
:102A2C003810141B31EA04040BD10D4B01225A60EF
:102A3C000EE09C180132114084F8250083F8221016
:102A4C0010BD9C180132114084F83A0083F83710FD
:102A5C000448BDE8104003F0C9B800BF740F002053
:102A6C0000D00040840F002010B5036941B91C4907
:102A7C001C483E2205F0E0FA3E21194805F0D3FA35
:102A8C00486830B9164917483F2205F0D5FA3F215E
:102A9C00F3E75868F8B1884219D19C680868586007
:102AAC00A14200D19860002008602AB15A680A60DF
:102ABC009A68596002B99960002010E0814206D1F1
:102ACC000868206098688142EDD19C60EBE7044671
:102ADC0000680028F2D1002AE8D16FF0150010BD73
:102AEC00F48E00006F8A000038B545682B69B3B1CD
:102AFC001035284602F0A0FA044680B90146284653
:102B0C0002F060FA084B98420BD10849224628463D
:102B1C0002F02CFA224605210620FFF76BF8002064
:102B2C0038BD6FF00400FBE70000AD0B592C000022
:102B3C0008B50268530904D14FF0FF33D340DB07CB
:102B4C000AD4074907484FF46C7205F075FA04482B
:102B5C004FF46C7105F067FA4FF0A04008BD00BF50
:102B6C003C8A00006F8A0000F0B54068057B01F0DC
:102B7C001F0444EA4514056987B0002D5BD0B2F5FB
:102B8C00001F00F1100506D12146284605F05DFC1A
:102B9C00002007B0F0BD01AE0027B2F5800F019701
:102BAC00776033D1B3F1007F14BF052304238DF874
:102BBC0004300023CDE9046303938368CB40D90729
:102BCC0016D4B2F1A07F13D168460094FFF7B0FF82
:102BDC0004F5E07350F82330DB0709D46A4621462C
:102BEC00284602F0C9F9174B98421AD0CDF808D0F4
:102BFC0003AA2146284602F08FF8134B98421DD1A8
:102C0C0001222146284602F02DFAC1E7B3F1C06F2C
:102C1C0005D0B3F1007F14BF01230223C7E70323C0
:102C2C00C5E76946284602F017FA074B9842DDD0F3
:102C3C006FF00B00ADE76FF08500AAE76FF01500A1
:102C4C00A7E700BF0400AD0B0000AD0B430970B546
:102C5C0007D1104B596821B101250C680E4E8540E7
:102C6C0001B970BD8A682A400CD04B6843B90B4936
:102C7C000B48612205F0E0F90848612105F0D3F911
:102C8C00304698471CB1236821461C46E8E723468A
:102C9C00FAE700BFB80F002028880000F48E00006F
:102CAC006F8A00002DE9F043466840F20635337B0D
:102CBC00D00687B001F01F0702EA050547EA431763
:102CCC0054BFC2F340130323B5F5837F14468DF82C
:102CDC00033044D00FD8062D18D007D8B5B1022D2B
:102CEC003FD06FF0150007B0BDE8F083B5F5807FDD
:102CFC00F7D101250AE040F20222954233D0B5F516
:102D0C00407F32D0B5F5007FEBD1022501232203A1
:102D1C0003FA01F12BD57368C3F80815336963BB4B
:102D2C0003A80397FFF704FF84F4803300EB8700BC
:102D3C00C3F30043C4F34044D0F8002744EA4304EF
:102D4C009DF8033022F4E16244EA830422F0070286
:102D5C0044EA05231343C0F800370020C3E70725D6
:102D6C00D4E70425D2E70525D0E70325CEE7630396
:102D7C0044BF7368C3F80C15D0E710360DF102028E
:102D8C003946304602F0F8F814F4403F804616D12C
:102D9C003946304605F057FB234B9845DDD19DF85D
:102DAC000210304602F052F94045D6D01F49204857
:102DBC00EC2205F041F91D48EC2105F034F901AB8A
:102DCC004FF0000903AA39463046CDE90439CDE964
:102DDC000199CDF80C9001F09FFF134B984280D1D4
:102DEC0014F4003315D09DF803308DF80E3084F4B4
:102DFC008034C4F300444B4603AA394630468DF860
:102E0C000C508DF80D4002F035F8074B9842C3D0AA
:102E1C0067E7CDE9043303AA0DF1030339463046C5
:102E2C00039301F079FFF0E70000AD0B308F000049
:102E3C006F8A0000014B01221A60704700C00040ED
:102E4C000C2903690BD15B6A064907484B4393FB7A
:102E5C00F0F100FB113311605360002070476FF0EC
:102E6C008500704790D0030040420F00044B00696E
:102E7C000022C3F80021D3F8003102F0B7BE00BF26
:102E8C0000C000407FB50569AB6A002B40D03C29DF
:102E9C0001D00C293FD105F110064FF0FF324FF055
:102EAC00FF33304602F07AFD1C4B019300240323C0
:102EBC00A86A039469460293FEF770FAA04208DAF6
:102ECC00174918483D2205F0B7F83D21144805F084
:102EDC00AAF84FF0FF324FF0FF33284602F0CCFE39
:102EEC00A86AFEF7DFFA002806DA0D490D484222DF
:102EFC0005F0A2F84221E9E70B4BD3F808256A62EA
:102F0C0001225A60304602F0FFFD204604B070BD2D
:102F1C006FF00A00FAE76FF08500F7E7412E00002A
:102F2C006A8F00006F8A000000C0004010B5046971
:102F3C000020FFF7B9FAA06240B910491048772277
:102F4C0005F07AF80D48772105F06DF84FF0FF3257
:102F5C000021204605F012FB04F1100005F007FBE0
:102F6C00002201210C20FEF745FE0C20FEF712FE7C
:102F7C00044B0122C3F80423002010BD6A8F00000B
:102F8C006F8A000000C0004070B40E49D1E90034D3
:102F9C00D01AC31844F1000422F07F46C1E9003472
:102FAC00A6F50013B3F5400F09D2074B1B681A0A9C
:102FBC001B069C19054B42F10005C3E9004570BC8A
:102FCC0004F070BB580C0020F80F0020600C00209F
:102FDC000D4B1868010A0006BFF35F8F0B4BD3F83B
:102FEC000435181841F10001B3F5801F0AD2084BC3
:102FFC00D3E90023904271EB030303D210F18070EC
:10300C0041F10001704700BFF80F00200010014093
:10301C00600C00202DE9F7432B4CD4F804339907AE
:10302C000BD5D4F8043143B1284A0023C4F8043139
:10303C00D4F80431136801331360D4F80433DA0381
:10304C0023D5BFF35B8F224B53E8002F22F00101F5
:10305C0043E800100028F7D1BFF35B8FD30702D4ED
:10306C00D4F840318BB10025C4F84051D4F840312C
:10307C00FFF7AEFFEFF3108272B6164BD3E902677F
:10308C00B042B94104D282F3108803B0BDE8F0839A
:10309C004FF0FF384FF0FF39C3E90289D3E9001034
:1030AC001D604FF48033C4F84833C4F84051D4F851
:1030BC00403182F310880029E7D0009032463B461D
:1030CC0028468847E1E700BF00100140F80F0020B8
:1030DC00F00F0020480C00202DE9F84F4B4DBFF3AA
:1030EC005B8F06460F4655E8008F28F0010345E834
:1030FC000032002AF7D1BFF35B8F454C4FF4803977
:10310C00C4F80893BFF35F8FBFF36F8FFFF760FFB7
:10311C00B04271EB070308F0010840D23D4B301A66
:10312C0067EB0101984271F100014CD23A4BD3E9A3
:10313C0002239F4208BF96423ED04FF0000CC4F8C9
:10314C004893C4F840C126F07F40D4F84031DFF8F2
:10315C00CCA0834603216FF0020E2BF07F43C4F802
:10316C004035C4F84493D4F80425AEEB02035B4419
:10317C0023F07F4353451FD9D4F840315BB1D4F8C9
:10318C000425131A23F07F43B3F5000F14D9C4F8A8
:10319C0040C1D4F8403101EB020B0131DDE7204B8B
:1031AC00BFF35B8F53E8001F41F0010143E80012AD
:1031BC00002AF7D1BFF35B8F174B1A4A1A60C3E989
:1031CC00026700225A60B8F1000F1CD0BFF35B8F6E
:1031DC0055E8003F43F0010345E80032002AF7D1DF
:1031EC00BFF35B8F4FF48033C4F804330C4BBFF345
:1031FC005B8F1B68BFF35B8FDB0742BF0A4B4FF43F
:10320C000032C3F80021BDE8F88F00BFF40F002096
:10321C000010014001008000480C0020FDFF7F00E1
:10322C00F00F0020952F000000E100E070B5194C64
:10323C00194BC4F80833C4F84833184B00254FF029
:10324C00FF304FF0FF31C4F80855C3E902014FF4C9
:10325C008033C4F80433124B02264FF40032C4F806
:10326C0004630121C3F8802111202A46FEF7C2FC19
:10327C001120FEF78FFC01230A4AA3600021236072
:10328C0009481360FFF728FF3046FFF715F9284669
:10329C0070BD00BF0010014003000F00480C00205F
:1032AC0000E100E0F40F0020FFFF7F00431C10B58D
:1032BC000F4C05D08442A8BF0446012CB8BF012492
:1032CC00FFF786FE0B4AD2E90031C01AB0F5000FA9
:1032DC00074A0AD22044904228BF1046C018BDE8C5
:1032EC00104041F10001FFF7F7BE1046F6E700BFB2
:1032FC00FFFF7F00580C002008B5FFF769FE024B5A
:10330C001B68C01A08BD00BF580C00200B4B0C4AA0
:10331C001B7AC2F81035042B0DD8DFE803F0080334
:10332C0008080300074BA0221A6001207047054BC8
:10333C004FF49672F8E70020704700BFF0100020A1
:10334C000010004004100020044A0023C2E9083396
:10335C009362034AC2E9083393627047BC100020A1
:10336C0090100020054B1B68D3F80423920342BF36
:10337C000022C3F84421D3F8443170477C05002067
:10338C0010B5FCF7B7FE0C4C0C490D48FCF7ACFE25
:10339C0040F21713C4F800320A4A0B4B507C1B68DE
:1033AC0098470A4BC4F80435094B0A4A1A600A4B71
:1033BC0004221A7010BD00BF001000404C05002004
:1033CC000C8A0000F0100020FC0F00201C160020BE
:1033DC0000100020793800006016002008B5084B5A
:1033EC001B6801221A61FCF78BFEFCF783FE00F0D0
:1033FC0005FE0320FCF78AFEBDE80840FCF768BE1A
:10340C007C05002008B507490748FCF76DFE38B964
:10341C0000F0D8FD054B1B6840F20442C3F80022B3
:10342C0008BD00BF4C0500200C8A00007C05002064
:10343C0038B51C4B1C4C1B6801251D6100F0DEFDD2
:10344C00FCF75EFEFCF744FE00221146284600F015
:10345C0057FE40F21313C4F80032144A144B507C3C
:10346C001B689847134BC4F804350023C4F810317B
:10347C00D4F810312561D4F81031002BFBD0002288
:10348C00C4F81021D4F8103140F21713C4F80032EC
:10349C001146012000F0C8FDFFF7B4FF064B0122D6
:1034AC009A6138BD7C05002000100040F01000200F
:1034BC00FC0F00201C160020004001402DE9F843B1
:1034CC00224BDFF88C801A78012A81460F4630D1C6
:1034DC0098F80030C3F3050203F03F03202B33D8D8
:1034EC001C4B196A53F821301A701A4D1A492C6A60
:1034FC0055F824603046013410F8052B05F0DCF843
:10350C00164B86F80190D3F84835377103F07F03DA
:10351C00B37098F80130DB4303F00103F370AB6A2E
:10352C00082C28BF002401332C62AB620120BDE8BB
:10353C00F883084A116A52F82120597809B9117098
:10354C00D3E75B7C1370D0E70020F0E7F01000208D
:10355C001C160020901000201E16002000100040A9
:10356C0007B5114B1148DA7C90F90A00002302F5DB
:10357C00166201A9FCF7D6FD9DF80500FCF7CCFD01
:10358C0050B10B490B484FF4477204F055FD0848F5
:10359C004FF4477104F047FD9DF80420064BC3F827
:1035AC000C2503B05DF804FB64050020F01000202E
:1035BC00B28F00006F8A00000010004083784278C0
:1035CC001B0443EA022302781343C27843EA0253F2
:1035DC00027943EA0263094AC2F81435C379817946
:1035EC001B0443EA012341790B43017A43EA01634B
:1035FC00417A43EA4163C2F8183570470010004025
:10360C001FB500230293ADF80C300A4B01930A4B03
:10361C005B7CC0B2013B8DF809008DF80A008DF877
:10362C000B3001A801238DF80C30FFF7C7FF05B054
:10363C005DF804FB00010100640500201FB50F4A72
:10364C000023CDE901230E4B5B7C013B8DF80B3045
:10365C0020238DF809300B4B1B7A01229342ADF8D5
:10366C000C2007D18DF8082001A8FFF7A7FF05B0A3
:10367C005DF804FB042BF5D0F6E700BF0600030051
:10368C0064050020F0100020684620F007018D46EC
:10369C0019B5144BD3F80423D2060BD5D3F810214B
:1036AC0042B10022C3F81021D3F810310E4B1B6825
:1036BC0003B198470B4CD4F804331B070BD5D4F843
:1036CC000C3143B1084B1B6803B198470023C4F875
:1036DC000C31D4F80C31FDF7C1FFBDE8194085461B
:1036EC00704700BF0010004000100020684620F01A
:1036FC0007018D4631B5194B82B01B680193EFF36E
:10370C001181402383F31288BFF36F8F144B002277
:10371C001D681A6081F31188BFF36F8F114C2368F9
:10372C00ABB1E90703D58DF8002068469847AA0786
:10373C0005D501238DF800306846236898476B0740
:10374C0005D502238DF80030684623689847FDF7AD
:10375C0085FF02B0BDE83140854670470810002057
:10376C000C100020EC100020C20708B5014606D54D
:10377C00374804F0ADFD374B00BAC3F81C058B0776
:10378C0006D5354804F0A4FD324B00BAC3F8200529
:10379C0048070AD531482F4904F09AFDC1F8240591
:1037AC002F4804F095FDC1F828054FF08053D3F84D
:1037BC003021511C09BF4FF07043D3F8343193F8CA
:1037CC00E02FD3F8E83F08BFC3F30313062A3DD11B
:1037DC00033B042B02D8234AD35CBBB31C4B224AB9
:1037EC005B7C052B1B4BD3F81C15D3F8200518BF9D
:1037FC004FF07F424140114228D1D3F82415D3F821
:10380C002825C1F30720CBB2834214D0C1F3074063
:10381C00834210D0B3EB116F0DD0D1B28B420AD0D2
:10382C00C2F307218B4206D0C2F307418B4202D070
:10383C00B3EB126F0AD1074AD2F8743723F08073B6
:10384C0023F0010343F08073C2F8743708BD00BF46
:10385C006405002000100040680500206C05002065
:10386C0070050020D88F00000000FFFF2DE9F84FF5
:10387C007B4AD2F8007417F0010703D1BDE8F84F6A
:10388C00FFF7D6BDDFF8DCA1DAF82830072BF5D826
:10389C00D2F80834744DDFF8D491D2F80C4499F86E
:1038AC000120DBB2C2F3410135F8230084424FEA18
:1038BC00830640F0AB80A8198078814240F0A68046
:1038CC00B8460027AA196A4C9170654AD2F80C24A4
:1038DC0025F82320A37C23B199F80130DB0740F1B4
:1038EC00BC80FCF70DFC63496348FCF7F7FB5C4BB1
:1038FC0040F21B12C3F8002294F800B05F4CBBF1ED
:10390C00000F00F09B80BBF1010F55D1DFF870C1A7
:10391C00D3F80814DCF82830002B00F085805948C7
:10392C00C9B250F82120002A7ED0DFF85CB1D2F861
:10393C0000E0CBF800E005EB060E9EF803E0BEF1CC
:10394C00000F17D0B8F1000F14D182F8048050F892
:10395C002120013B926840F82120CCF82830002B24
:10396C0057D002B11268CBF80020484A136843F0D4
:10397C0001031360464BDBF800801A68AB19B8F1F1
:10398C00000F48D00121D97098F800009047DBF85F
:10399C00001023780A783F4862F30503237011F86E
:1039AC00052B04F089FE637899F8012023F00703B6
:1039BC0002F0070213436370374B05221A70FFF7AE
:1039CC00CFFD274BD3F80824D2B2C3F82C25C3F86B
:1039DC000445324B324A1A60B7B1214BD3F8080474
:1039EC00DAF828303544072BA9780DD8C0B2FFF788
:1039FC0065FD48B1254A136843F004031360294B55
:103A0C004FF48012C3F80021BDE8F88F4FF0000886
:103A1C0058E74246A7E783F803804046904723784F
:103A2C0068F305032370BEE7AB194FF0000883F869
:103A3C000380174B40461B689847F0E7144B5846D9
:103A4C001B68984799F80030227884F801B0C3F3CA
:103A5C00010363F301022270AEE7FFF7E9FCBBE759
:103A6C000010004090100020781100201C1600203F
:103A7C00F01000204C050020F48900003E160020B8
:103A8C00BC10002010100020E81000200C100020AA
:103A9C00FC0F0020401600206016002000100020B3
:103AAC008D33000000E100E010B500F0CBFBFFF718
:103ABC0095FC134801F0F6FC00F0EEFB114A12489D
:103ACC00D2F8503623F00103C2F850360F4B0024C5
:103ADC001C700F4B21461C70FFF736FC202204F0A3
:103AEC00F9FD0C4B01201C605C60FEF761F81420A2
:103AFC00FEF75EF8BDE810400A20FEF759B800BF8B
:103B0C007C05002000100040781100206016002079
:103B1C006116002014160020F0B5044685B000286C
:103B2C0000F0DB806E4D2B780BB1FFF7BDFF6D4BBA
:103B3C0062681A606C4A234604F11007164618682E
:103B4C005968144603C40833BB422246F7D118689F
:103B5C002060664B66480024202221461C6004F03D
:103B6C00B9FD644B64491C605C60FFF7CFFB337894
:103B7C0083B1012B01D1614B0B60727A604B012A2E
:103B8C0000F09E80022A07D07AB9C3F83C25C3F80E
:103B9C00342508E05B4BEFE74FF6FF70C3F83C05AC
:103BAC00C3F83425584AC3F838250B68707C9847FD
:103BBC00534B564956484FF0E732C3F81C254FF08B
:103BCC004332C3F82025534AC3F82425524AC3F87C
:103BDC002825FFF7B9FB0A4600230133082B40F8D0
:103BEC00042B02F12502F8D14C4A4D480023013335
:103BFC00082B40F8042B02F12502F8D10022494B86
:103C0C0014460132082A19601C719C6001F12501CF
:103C1C0003F10C03F5D120220021434804F05AFD96
:103C2C00424B434A4348019301A9CDE9024401F0B8
:103C3C00ADFB414B98424BD100F0C0FA0446002832
:103C4C0048D100F0FBFA3D4B2D495860D1F8502675
:103C5C00F37C22F001021343C1F8503601210846CF
:103C6C002246FDF7C7FF224602211420FDF7C2FFB2
:103C7C00224602210A20FDF7BDFF0120FDF78AFF35
:103C8C001420FDF787FF0A20FDF784FF2C4B1C70D6
:103C9C0001232B704FF08053D3F83021062A19D111
:103CAC00D3F83431033B042B02D8264AD35C8BB1B6
:103CBC00134AD2F83C3743F48063C2F83C3709E02E
:103CCC00FF20C3F83C05C3F8342540F207126AE71D
:103CDC006FF00D04204605B0F0BD6FF01504F9E748
:103CEC0061160020EC100020F01000200C100020B9
:103CFC007811002014160020FC0F0020493600001B
:103D0C00001000400D36000021100100EC140020C2
:103D1C00BC100020E743C323A363E313C4130020A8
:103D2C0090100020301000201010002040420F0096
:103D3C00713300007C0500200000AD0B4C05002009
:103D4C0060160020D38F000038B5254B1B78002B54
:103D5C003CD000283DD0234CA36A002B3CD0EFF381
:103D6C001185402383F31288BFF36F8F636A54F875
:103D7C0023301A780270636A54F823305B784370EE
:103D8C00636A54F8233093F902308370636A54F8F1
:103D9C0023301B790371636A54F82330DB78C370CA
:103DAC00636A54F823100530053104F085FC636A0E
:103DBC000133082B28BF00236362A36A013BA36273
:103DCC0085F31188BFF36F8F002038BD6FF00C00A6
:103DDC00FBE76FF01500F8E76FF03C00F5E700BF6C
:103DEC00611600209010002038B5334B1A7802F081
:103DFC00FF05002A5DD1314C31494FF0FF32C4F838
:103E0C000823C4F81051D4F810212E4A116040F246
:103E1C001712C4F800221022C4F8042304221A70CA
:103E2C00294B9A7CC4F83025DA7C40F6C41102F593
:103E3C0016628A420AD92549254840F2F26204F0FA
:103E4C00FBF8224840F2F26104F0EDF8A2F516629C
:103E5C00C4F808251433BFF35B8F53E8001F21F01F
:103E6C00010143E80012002AF7D1BFF35B8F194B15
:103E7C00C4F80435184B0222C3F880210120FDF749
:103E8C0089FEC4F80451D4F80431C4F80851D4F8AC
:103E9C000831C4F810512A4601202946D4F81031B3
:103EAC0000F0C2F8FFF7AEFA0C4B01229A612846DB
:103EBC0038BD6FF00F00FBE76016002000100040CB
:103ECC00793800000010002064050020168B0000DB
:103EDC006F8A00001C16002000E100E00040014049
:103EEC0010B50A4B1B7803F0FF0443B950B1084BD3
:103EFC0002681A600120FFF737FC204610BD6FF0F6
:103F0C000F00FBE76FF01500F8E700BF601600200C
:103F1C006405002010B50A4B1B7803F0FF0443B96D
:103F2C0050B1084B02685A600220FFF71DFC204676
:103F3C0010BD6FF00F00FBE76FF01500F8E700BF46
:103F4C00601600206405002038B5104B1B780C4619
:103F5C0003F0FF059BB9A8B1082913D80A460146FE
:103F6C000B4804F0A9FB0B4AFF231474C4F108049A
:103F7C00234104209374FFF7F7FB284638BD6FF0FC
:103F8C000F00FBE76FF01500F8E700BF601600208C
:103F9C006C050020640500206428034607D8074AF6
:103FAC00127802F0FF002AB9054AD37470476FF0FB
:103FBC00150070476FF00F00704700BF60160020AF
:103FCC0064050020094B0A491A78D30003F1804399
:103FDC0003F5F833C3F810150649C3F8141501237B
:103FEC009340054AC2F80435704700BF64160020A0
:103FFC001841014000A0004000F00140084B094965
:10400C001B7801229A40DB0003F1804303F5F8335F
:10401C00C1F808250022C3F81025C3F814257047F1
:10402C006416002000F00140F0B52B4B2B4C1B7894
:10403C002B4FDA0014442B4A0025C2F81851D2F841
:10404C001821294A15788000EA00C0B202F180429A
:10405C0002F5F83200F1804000F58050C2F810757E
:10406C00C2F81405214A05F5117042F82040204A87
:10407C0020481678F20002F1804202F5F832012451
:10408C00C2F8100500F5973000F58470C2F81405DD
:10409C0004FA06F604FA05F0304369B1164A174ED5
:1040AC001178CA0002F1804202F5F8328C40C2F855
:1040BC0010752043C2F814659B0003F1804303F58F
:1040CC00F8330122D3F80018AA400A43C3F8002899
:1040DC00064BC3F80405F0BD6216002004F0014045
:1040EC0018410140004001406516002000F00140DD
:1040FC0063160020101100406416002000A0004040
:10410C00F0B5294B294E1878294B1A78012404FA5A
:10411C0002F304FA00F51D4300F51177C3004FEAD2
:10412C00C20C19BB03F1804303F5F833C6F80855EC
:10413C00C3F81015C3F8141546F827100CF180437A
:10414C0003F5F833C3F81015C3F81415194B1B7885
:10415C009B0003F1804303F5F8330121D3F80028C9
:10416C00814022EA0102C3F80028F0BD124A1278FD
:10417C0003F1804303F5F833944000212C43C6F837
:10418C000845C3F81015C3F814150CF1804303F55A
:10419C00F83346F82710C3F81015C3F81415D300DC
:1041AC0003F18043CCE700BF6516002000F001400E
:1041BC0063160020621600206416002038B51748DC
:1041CC0001F074F8164B9842054622D1154801F0BF
:1041DC006DF8A84204461CD1134801F067F8A042C0
:1041EC00054616D1114801F061F8A842044610D1D9
:1041FC000F4801F05BF8A04205460AD10D4801F0CA
:10420C0055F8A842044604D10B4801F069F8A042C5
:10421C0002D06FF0120038BD0020FCE765160020BC
:10422C000000AD0B631600206416002068160020F9
:10423C0067160020661600206216002000487047A2
:10424C00101100400E4B0F491B780978012202FA1D
:10425C0001F102FA03F30B430B49097802FA01F15D
:10426C000B430A49097802FA01F10B430849097812
:10427C008A401343074A43F00103C2F808357047DC
:10428C0065160020671600206316002064160020B7
:10429C006816002000F0014038B51E4B187801F06C
:1042AC000BF81D4B984205460AD01C491C484FF48C
:1042BC009C7203F0C1FE19484FF49C7103F0B3FEDD
:1042CC00184B187800F0F8FFA8420446EDD1164BB5
:1042DC00187800F0F1FFA0420546E6D1134B187890
:1042EC0000F0EAFFA8420446DFD1114B187800F029
:1042FC00E3FFA0420546D8D10E4B187800F0DCFF46
:10430C00A8420446D1D10C4B187800F0EFFFA04224
:10431C00CBD138BD651600200000AD0BDD8F000041
:10432C006F8A0000631600206416002068160020B7
:10433C00671600206616002062160020BFF34F8F10
:10434C000549064BCA6802F4E0621343CB60BFF325
:10435C004F8F00BFFDE700BF00ED00E00400FA0541
:10436C004FF0704393F8E02F062A09D1D3F8E83FB9
:10437C00C3F30313033B042B02D8024AD05C7047EF
:10438C000020704711900000024AD2F80034002B34
:10439C00FBD0704700E0014010B503F0ADFF40B119
:1043AC004FF08053944AD3F82433C3F30423C2F858
:1043BC004035FFF7D5FF10B1904B914A5A6703F087
:1043CC009BFF48B14FF080534FF08042D3F84432FA
:1043DC00C3F34233C2F83C35FFF7C2FF30B1894A10
:1043EC00D2F8FC3023F08073C2F8FC3003F084FF69
:1043FC0040B14FF080430022C3F80C21C3F81021C8
:10440C00C3F83825FFF7ACFF20B14FF080430322EF
:10441C00C3F8A025FFF7A4FF60B17B4B0522C3F8BE
:10442C0010260122C3F888260022C3F818263F2242
:10443C00C3F814264FF08053D3F83021511C09BF18
:10444C004FF07043D3F8343193F8E02FD3F8E83FB2
:10445C0008BFC3F30313062A4DD1033B042B03D827
:10446C006A4AD35C002B46D04FF08052684BD2F88E
:10447C000414C3F82015D2F80814C3F82415D2F884
:10448C000C14C3F82815D2F81014C3F82C15D2F854
:10449C001414C3F83015D2F81814C3F83415D2F824
:1044AC001C14C3F84015D2F82014C3F84415D2F8E4
:1044BC002414C3F84815D2F82814C3F84C15D2F8B4
:1044CC002C14C3F85015D2F83014C3F85415D2F884
:1044DC003414C3F86015D2F83814C3F86415D2F844
:1044EC003C14C3F86815D2F84014C3F86C15D2F814
:1044FC004424C3F8702503F0FFFE48B14FF08053FD
:10450C004FF08042D3F8583203F04F03C2F8E43E28
:10451C0003F0F2FE48B14FF08043D3F80024D207E9
:10452C0044BF6FF00102C3F800244FF08053D3F85E
:10453C003021062A26D1D3F83431033B042B02D880
:10454C00344AD35C63B1344AD2F83C3743F48063C9
:10455C00C2F83C374FF08053D3F83031062B11D1D1
:10456C004FF08053D3F83431033B042B02D82B4A41
:10457C00D35C3BB14FF01023D3F808224FF08043AB
:10458C00C3F858254FF01021D1F80C32DB0714D5A5
:10459C0023480123C0F80435FFF7F6FED1F80C329E
:1045AC0023F00103C1F80C32FFF7EEFE0023C0F834
:1045BC000435FFF7E9FEFFF7C1FED1F80032002BFE
:1045CC0003DBD1F80432002B14DA154901234FF028
:1045DC001020C1F804351524FFF7D6FEC0F80042B0
:1045EC00FFF7D2FEC0F80442FFF7CEFE0023C1F85D
:1045FC000435DEE710BD00BF0030014000C00740AD
:10460C000DF0ADBA00ED00E0005000400C90000041
:10461C0000C0004007900000001000400290000015
:10462C0000E0014030B50468CCB1BFF35B8FB4FA45
:10463C0084F3C3F11F03DBB201229A4024EA020285
:10464C0050E8005FA54204D140E8002CBCF1000FFB
:10465C00F6D1BFF35B8FE6D102480B7030BD024838
:10466C00FCE700BF0000AD0B0200AD0B10B50368FA
:10467C00CB40DB0714D401238B400268BFF35B8F64
:10468C0043EA020150E8004F944204D140E8001C78
:10469C00BCF1000FF6D1BFF35B8FEED1014810BD1A
:1046AC000148FCE70000AD0B0400AD0B034BD3F845
:1046BC00003523FA00F000F00100704700F00140D3
:1046CC00014BC3F80405704700F00140014BC3F8DF
:1046DC000805704700F00140024B00F5117043F8DB
:1046EC002010704700F00140034B00F511700022C0
:1046FC0043F82020704700BF00F00140F7B54FF0A1
:10470C008043044650B1012826D033493348DC227B
:10471C0003F092FC3048DC2103F085FC0222C3F844
:10472C0008230122DA60C3F80401D3F804310646E9
:10473C0001238DF8073042F210754FF08047E4B139
:10474C00012C2ED0264925484FF4747203F074FCCA
:10475C0023484FF47471DFE70022C3F80803586054
:10476C00C3F80021D3F800310DF10706E0E783B15F
:10477C00012003F0D0FD013D0BD0D7F8183403F421
:10478C008033002EF3D0D7F8182402F003023260E5
:10479C00BBB903B0F0BD83B1012003F0BCFD013DFA
:1047AC000BD0D7F80C3403F48033002EF3D0D7F8A9
:1047BC000C2402F0010232701BB90A4B00225A7110
:1047CC00E7E79DF80700012803D103F0A4FD013DA4
:1047DC00B5D1012CDDD1F0E7169000006F8A0000F6
:1047EC005390000004110020054B1A792AB99A71D4
:1047FC00012218609A80034870470348704700BF35
:10480C00041100200000AD0B0C00AD0B08B50E4BD5
:10481C001A7952B90D490E484FF4987203F00CFCFA
:10482C000A484FF4987103F0FEFB1B682BB1002073
:10483C00FDF7D2F908B9FDF7ADF94FF0804300222E
:10484C00C3F8182508BD00BF041100201690000005
:10485C006F8A000070B53D4C237953B93C493D48F3
:10486C0040F27F1203F0E8FB40F27F11384803F06E
:10487C00DAFB4FF0804350B101284DD03449354814
:10488C0040F2C31203F0D8FB40F2C311EEE7D3F8A9
:10489C001814D3F81824CD0326D5900702D0002085
:1048AC00FFF72CFF4FF080430022C3F81825C3F804
:1048BC000421294AD3F80431D2F8FC0040F080736B
:1048CC00C2F8FC30254B1D6845F0010119605E688B
:1048DC005968891BB1F50A5FFAD31D602049C2F8EB
:1048EC00FC00082302201EE0D3F81424D107D9D5EC
:1048FC00D3F81C249207D2D122681AB10222C3F831
:10490C00042370BDD3F80421002AFBD00022C3F885
:10491C000421D3F80431F4E70022C3F80021114933
:10492C00D3F80031134603F1804301221A60236847
:10493C0023B14FF08043C3F80403E2E70B68002B6C
:10494C00FCD000230B600B68DBE700BF04110020D8
:10495C00169000006F8A000000ED00E0001000E0EF
:10496C00040100400001004008B5094B1B7953B904
:10497C000849094840F2DD1203F05EFB054840F29D
:10498C00DD1103F050FBBDE80840FFF7B7BE00BFD8
:10499C0004110020169000006F8A00004FF0804335
:1049AC00D3F80C14D3F80C24C80325D5D10723D580
:1049BC00D3F81824D2031FD5114A917901F0FF00C6
:1049CC00E1B9C3F80C01D3F80C110220012191714B
:1049DC00C3F8340C1961126822B10822C3F80423FD
:1049EC0008487047D3F80C21002AFBD00022C3F8EA
:1049FC000C21D3F80C31F3E7034870470348704798
:104A0C00041100200000AD0B0500AD0B0B00AD0B2D
:104A1C0010B54FF08043D3F800216AB10022C3F8DF
:104A2C000021D3F800210122C3F80823184B587930
:104A3C0010B95A711B6898474FF08043D3F8042182
:104A4C005AB10022C3F80421D3F804210222C3F87E
:104A5C0008230F4B01201B6898474FF08043D3F875
:104A6C000C21A2B1D3F80423120710D50022C3F8ED
:104A7C00342CC3F80C21D3F80C110821C3F80813FB
:104A8C00034B9A71BDE810401B680420184710BDF9
:104A9C000411002008B502680146104603F054FCCE
:104AAC0050B90E490E484FF46C7203F0C5FA4FF42E
:104ABC006C710A4803F0B7FA02F01F0352090B603D
:104ACC0008D00649064840F2B93203F0B5FA40F274
:104ADC00B931EEE74FF0A04008BD00BF3C8A0000A2
:104AEC006F8A0000072808B50AD90749074840F221
:104AFC00AA3203F0A1FA044840F2AA3103F093FA67
:104B0C00800000F5807008BD879000006F8A00005F
:104B1C0070B500F108030C4C34F81330DA05054677
:104B2C000E4607D5C3F3432304EBC30254F83330CA
:104B3C0052689847A3682BB1E26831462846BDE815
:104B4C007040184770BD00BF84050020C0B2034BF5
:104B5C00083033F81000C0F3400070478405002083
:104B6C00C0B2034B083033F81000C0F3401070474C
:104B7C008405002010B5C0B2174A083032F8103046
:104B8C00D9051DD5C3F3432123F4F85322F8103073
:104B9C0002F10E04002034F8023F13F4807F03D09E
:104BAC00C3F3432399420BD001302028F3D10023C7
:104BBC000A4842F83130FFF759FD094B984200D1B1
:104BCC0010BD084908484FF4DC7203F035FA05486B
:104BDC004FF4DC7103F027FA84050020DC0500207B
:104BEC000000AD0BBC9000006F8A00002DE9F8436B
:104BFC00002407460E4625464FF00108A146B54253
:104C0C000DD1124BD3F87C2132B10022C3F87C2198
:104C1C00D3F87C3144F000442046BDE8F883E8B278
:104C2C00FFF760FFA0F58072920808FA02F21742B3
:104C3C0009D000F1804303F5C043196819B1C3F8DA
:104C4C0000901B6814430135D9E700BF0060004099
:104C5C0010B5044608460A46FFF782FFC0B1084665
:104C6C00FFF774FFA0B9CAB20C4B2168083233F8B5
:104C7C0012200123520B9340C1F80833236803EB35
:104C8C008203D3F8102522F00302C3F8102510BDBF
:104C9C00BDE810400021104603F0ADBB8405002098
:104CAC00F7B5CDB2184E0835074636F81530DB0788
:104CBC000C4626D5FFF7CCFF2046FFF751FF40B13D
:104CCC0036F815303A685B0B03F5A273002142F8F5
:104CDC0023102046FFF74EFF002301A826F81530BD
:104CEC000194FFF7D7FE019B00EB8300074BD0F834
:104CFC000027134043F00203C0F80037044803B008
:104D0C00F0BD0448FBE700BF84050020F0F8FCFF71
:104D1C000000AD0B0400AD0BF0B50C46116885B06E
:104D2C0007461546E1B1204603F082FB08BB0B4653
:104D3C00CDE900008DF80E008DF80F000DF10F027B
:104D4C000DF10E01204603F009FBE3B2454908338F
:104D5C0031F8132022F0020242F0010221F8132054
:104D6C006B685BB320461A785968FFF7EFFE10B1F9
:104D7C00C9B13D4825E0E6B2DFF8E8C008363CF89A
:104D8C00163023F02003DB04DB0C2CF8163051B169
:104D9C00032AEED869684968087839689AB900F529
:104DAC00A27041F82020E3B22E48083330F81310DB
:104DBC0021F01C0141EA820220F81320AB683BBBB6
:104DCC002A4805B0F0BD01EB800143EA4033D1F82D
:104DDC0010E52EF0030EC1F810E53F6807EB8007D5
:104DEC0043F02003D7F810152CF8163021F4473176
:104DFC0021F44071C7F810152102D7F810E501F421
:104E0C00F85141EA024141EA0E01C7F81015CAE710
:104E1C00D3E900672046FFF7ADFE002ED0D0114D30
:104E2C00D5E90023964203D19F4201D1002209E02B
:104E3C000F480DF10F01FFF7F5FB0C4B9842C0D159
:104E4C009DF80F2045F83260E4B205EBC20308343C
:104E5C005F6035F8143043EA422343F4807325F83D
:104E6C001430ADE7840500200400AD0B0000AD0B41
:104E7C00DC0500202DE9FF4107460C461E4632B3E7
:104E8C000846FFF763FE18B90846FFF769FE20BB1A
:104E9C00E5B2DFF8CC80083538F8153013F01C0F6C
:104EAC0002D05378012B18D001238DF80F3000233A
:104EBC00CDE900230DF10F01931C2046013203F0C4
:104ECC004DFA38F8153043F0030328F81530002E4E
:104EDC0043D02046FFF73AFE18B9224804B0BDE88B
:104EEC00F08196F800E03B681D4D0EF5A272002192
:104EFC0043F82210E1B2083135F8112022F02002DB
:104F0C00D204D20C25F8112096F801C0BCF1000F88
:104F1C0023D03868B67800EB8E004FEA0C4CD0F8F2
:104F2C00103523F4981323F4F853C0F810352302EA
:104F3C0003F4F8530CF4403C3605D0F8107543EAF2
:104F4C000C0306F4801642EA4E32334342F0200240
:104F5C003B4325F81120C0F810350348BEE700BFCD
:104F6C00840500200400AD0B0000AD0B014BC3E920
:104F7C00021270478405002008B552B90C490D483F
:104F8C0040F20D3203F058F8094840F20D3103F0AD
:104F9C004AF80846FFF7E4FD40B1C9B2064B074892
:104FAC00083133F811305B0B137008BD0448FCE773
:104FBC00BC9000006F8A0000840500200000AD0B3F
:104FCC000400AD0B2DE9F041184D95F860400646F4
:104FDC004CBB4022214605F1100003F07BFB3668E8
:104FEC002F6DA046A7420FD10023C6F87C3146F3A3
:104FFC000730D6F87C31FCF7CDFD01230C4885F841
:10500C006030AB65BDE8F081E0B2FFF76BFDA0F559
:10501C0080739B081F2B08BF46F8008004F1010425
:10502C0008BF3358DEE70348ECE700BF84050020D7
:10503C000000AD0B0C00AD0B034B93F86000003877
:10504C0018BF0120704700BF840500200148FFF7FE
:10505C000DBB00BFD80500200148FFF7E3BA00BF25
:10506C00D80500202DE9F341CBB216460833334A5C
:10507C0032F8132012F01C0F0C460546C2F38201C5
:10508C000AD12F492F4840F2FA3202F0D5FF40F2F4
:10509C00FA312B4802F0C7FF0368D3F80403002849
:1050AC00A4BF4FF00040C3F804032046FFF758FD9F
:1050BC0000B32046FFF74AFD0746D8B9540B2046EB
:1050CC00FFF710FDD5F8008048F8007058F8003054
:1050DC002B6803EB8403D3F8102542F00102C3F8CC
:1050EC00102526B12A680123A340C2F8043302B06C
:1050FC00BDE8F08146B91249124840F20E4202F066
:10510C009BFF40F20E41C4E7042912D0052912D0AE
:10511C0001A80194FFF7BEFC019AD0F81035D340DA
:10512C0003F00103991C204602B0BDE8F04103F0E6
:10513C0062B90321F7E70221F5E700BF84050020DF
:10514C00BC9000006F8A00002DE9F74F554B564F6D
:10515C00D3F80403396DC0B240F00040FFF746FDB0
:10516C00051E18DA0023F96D0093684603F052F916
:10517C004FF0010897F85C30DB075BD4396D4FF0CA
:10518C000040FFF733FDF96D684603F043F9002842
:10519C00F0D125F000450124002D6AD103B0BDE803
:1051AC00F08F94FAA4F4B4FA84F4E10804F108033F
:1051BC0004F0070237F813901DF80130019408FA37
:1051CC0002F223EA020301A80DF80130FFF762FC9A
:1051DC00019B03F5E0734FEA990B50F82360C9F378
:1051EC00820A1BF0040FD146C6F3014626D0514665
:1051FC002046FFF78DFC01A80194FFF74BFC019BA7
:10520C0003F5E073F6B250F82330C3F301439E422A
:10521C0007D10021204603F0EEF83146204603F07A
:10522C00EAF801A80194FFF735FC019B08FA03F397
:10523C00C0F82035009C002CB3D19FE7022E0CD176
:10524C000321204603F0D7F80AF00503012BE8D11F
:10525C0049462046FFF75CFCE3E70221204603F0B9
:10526C00CAF8BAF1030FF3D0032EDAD1BAF1020F58
:10527C00EDE795FAA5F3B3FA83F304FA03F29B0076
:10528C0003F1804303F5C04325EA0205D3F810056A
:10529C00D3F81015C0F30420C1F30141FFF738FC1B
:1052AC007AE700BF006000408405002001460148F9
:1052BC00FFF7B8B9EC05002001238340C3F31202B9
:1052CC0001462AB1034A0448C2F80835FFF7CEB9A3
:1052DC000248704700F00140EC0500200400AD0BC3
:1052EC0001460148FFF79EB9E8050020C30003F111
:1052FC00804303F5F833012201465A600148FFF759
:10530C00B5B900BFE805002070B51D4A0C68B2FBAA
:10531C00F4F304FB13258DBB94422FD85C1E1C4068
:10532C002CD1B3F5007F29D802684D79D2F80465E9
:10533C00097926F0030601F003013143C2F8041584
:10534C00D2F8081593FAA3F321F0030105F0030535
:10535C00B3FA83F32943C2F80815C2F81035006874
:10536C00402300F58072D450D1580433582BFAD115
:10537C0040F30730FCF70EFC024870BD0248FCE716
:10538C000024F4000000AD0B0400AD0BF8B541B9DE
:10539C001E491F487C2202F04FFE7C211B4802F064
:1053AC0042FE05791B4C0C236B43E618377A5FBB26
:1053BC00E2508B6873600368174A93420FD002F572
:1053CC00805293420BD002F58052934207D002F5E3
:1053DC008032934203D002F58052934202D14B7932
:1053EC00032B06D909490A48942202F025FE942180
:1053FC00D4E7FFF789FF0C2303FB0544074BC21AC4
:10540C00534253412372F8BD0548FCE7FA90000063
:10541C006F8A00000C110020008000400000AD0BD2
:10542C000C00AD0B10B50C4B02790C2101FB0232B8
:10543C00127A012A08D009490948D22202F0FCFD4F
:10544C000648D22102F0EFFD04682260027901FBCC
:10545C00023302221A7210BD0C110020FA900000C7
:10546C006F8A000010B50C4B02790C2101FB023243
:10547C00127A42B909490A48DB2202F0DDFD0748DD
:10548C00DB2102F0D0FD046801222261007901FBCE
:10549C0000331A7210BD00BF0C110020FA900000EE
:1054AC006F8A0000F8B5144D03790C2707FB0353E2
:1054BC0004461B7A43B911491148BC2202F0BCFDC9
:1054CC000E48BC2102F0AFFD006840F30730FCF73A
:1054DC006FFB23680026D3F80022C3F80062236810
:1054EC004FF0FF32C3F808232046FFF7BBFF2379A8
:1054FC0007FB03552E72F8BD0C110020FA9000002A
:10550C006F8A000070B5144C05790C2606FB054417
:10551C00247A54B9114912484FF4957202F08CFD5B
:10552C000E484FF4957102F07EFD4FF480340568FF
:10553C008C4073B18B0003F5A0730026EE50EB5832
:10554C000368C3F80443036801F5A87143F82120EC
:10555C0070BDC5F80843F6E70C110020FA90000066
:10556C006F8A00002DE9F041154E07794FF00C0EB3
:10557C000EFB07661C46367A9DF8183056B9114951
:10558C00114840F2451202F057FD0E4840F2451109
:10559C0002F049FDD0F800E040F20117DEF800629D
:1055AC008F4026EA0706CEF800620568D5F800623F
:1055BC003443C5F80042BDE8F041FFF7A3BF00BF7C
:1055CC000C110020FA9000006F8A0000014902487B
:1055DC0002F03DBF0C110020008000400149024840
:1055EC0002F035BF1811002000A0004008B5144B84
:1055FC00A8220021184603F06DF80322026111491C
:10560C004261114A8161C2614FF4806202620022E0
:10561C0082624262C26201660C4941661021816657
:10562C0003460267C2664267BFF35F8F084911F8F1
:10563C00010D98540132102AF9D1BFF35F8F08BDC8
:10564C001004002037910000100000200000002002
:10565C005091000008B5084A084B93420AD90849F2
:10566C000848182202F0E8FC0548182102F0DBFC7F
:10567C001433F2E7FCD308BD6488000014880000E2
:10568C00519100006F8A000070B50446EFF311864B
:10569C00402383F31288BFF36F8F0C4B9D6802F08D
:1056AC0013FE042C08D10A490A48872202F0C4FCD4
:1056BC000748872102F0B7FC86F31188BFF36F8F80
:1056CC002846BDE87040FCF7E9B900BF2411002062
:1056DC00749100006F8A000038B5094B53F82040D4
:1056EC00013053F82050A54200D838BD636823B16F
:1056FC00204602F017FF0834F5E723689847FAE7CD
:10570C00248A000070B5354B354C364D012286B0DD
:10571C0003201A70FFF7E0FFFBF73CFF02F01EFFBF
:10572C000420FFF7D9FFAC42264624D92E492F4836
:10573C00452202F081FC45212B4802F074FC54F800
:10574C000C3C059354F8103C049354F8143C03930C
:10575C0054F8183C029354F81C3C019354F8203C28
:10576C00009354E90A2354E90C0100F091FD54F81C
:10577C00303C5E65D7E7AE4204F13004DFD301F074
:10578C00BDFA174C1A4EAC421BD91749174869225F
:10579C0002F052FC6921CFE7D4E90A23B3F1FF3FB1
:1057AC0008BFB2F1FF3F05D052EA0301206803D1D4
:1057BC0002F02AFF3034E6E73146183001F08AFE59
:1057CC00F8E7E9D301F0E8FAFAF786FE094A137B09
:1057DC0023F00103137306B070BD00BF69160020DF
:1057EC006488000064880000969100006F8A0000B5
:1057FC0079860000E80C002008B50348034A002114
:10580C00121A02F0A7FE08BD700700206C160020CB
:10581C0070B5002386B00122CDE90423134E144D3C
:10582C0001930F22CDE902321249142303FB0055D8
:10583C0006EBC01604464FF4C07000FB04110E4B6F
:10584C0000954FF4A072304600F022FD737B0B4A9A
:10585C00EE6023F0040373734FF4046304FB03330F
:10586C0013442C746B6006B070BD00BF680C002034
:10587C0024110020C01E0020695900008016002051
:10588C00BFB50020FFF728FF2C4B83F308882C4D65
:10589C002C4E6B692C4F43F400736B61E02385F83D
:1058AC00223000242023EB772C766C76AC7685F8AE
:1058BC0020406B6A43F4E0236B6285F82340FCF7CD
:1058CC0057F8FCF731FA4FF0FF33AB62EB62FCF7A1
:1058DC0013FBFCF74DFA1D4BB36040F201129A8199
:1058EC00C3E91844DC66FFF7B5FE0120FFF7F4FEB0
:1058FC000220174DFFF7F0FE01F0AAFA154B756167
:10590C000593012314490094CDE903434FF48062BD
:10591C003B46CDE90144284600F0BAFC6A7B0646BA
:10592C0022F0040228466A7300F00CFF2046FFF7B1
:10593C006FFF3A4631462846FCF7D4F9C01E0020CA
:10594C0000ED00E02411002011570000680D00202C
:10595C00E80C0020B79100004020002008B50C4B4B
:10596C009B6893F90E30002B09DB4024EFF3118375
:10597C0084F31288BFF36F8F02F0FCFBF6E7054946
:10598C0005481B2202F058FB02481B2102F04BFB7E
:10599C0024110020BC9100006F8A00002DE9F34116
:1059AC00044617461E46EFF3058545B1514952484A
:1059BC006F2202F041FB4F486F2102F034FBEFF3F2
:1059CC001188402383F31288BFF36F8F4B4801F08B
:1059DC00F5FC38B94A494848882202F02DFB882149
:1059EC004748EAE7454801F00DFDE368454A9BB19D
:1059FC00A0689168884224D057EA060329D13F4811
:105A0C0001F0EAFCA0B188F31188BFF36F8F6FF03F
:105A1C000F0002B0BDE8F081916891F90E10374883
:105A2C0021610133E3609368A36001F0D5FC50B9A8
:105A3C003349314840F2311202F0FEFA40F2311192
:105A4C00CEE72169EBE788F31188BFF36F8F002055
:105A5C00DFE791F90E1090F90E309942A8BF194664
:105A6C006FF07E029142B8BF11468B4202DD02F00C
:105A7C0076FD0546CDE9007620482246414600F0E9
:105A8C004FFF0028E3D0EFF31186402383F31288F5
:105A9C00BFF36F8F194801F091FC00289AD017487A
:105AAC0001F0B0FCA068C0B1236821699C420AD007
:105ABC004BB193F90E309942A8BF19466FF07E0393
:105ACC009942B8BF194602F04AFD30B10B48314635
